ARM GAS  C:\Users\jcjco\AppData\Local\Temp\cchBw9Ih.s 			page 1


   1              		.cpu cortex-m7
   2              		.eabi_attribute 28, 1
   3              		.eabi_attribute 20, 1
   4              		.eabi_attribute 21, 1
   5              		.eabi_attribute 23, 3
   6              		.eabi_attribute 24, 1
   7              		.eabi_attribute 25, 1
   8              		.eabi_attribute 26, 1
   9              		.eabi_attribute 30, 2
  10              		.eabi_attribute 34, 1
  11              		.eabi_attribute 18, 4
  12              		.file	"main.cpp"
  13              		.text
  14              	.Ltext0:
  15              		.cfi_sections	.debug_frame
  16              		.section	.text._ZN5daisy9DaisySeedD2Ev,"axG",%progbits,_ZN5daisy9DaisySeedD5Ev,comdat
  17              		.align	1
  18              		.p2align 2,,3
  19              		.weak	_ZN5daisy9DaisySeedD2Ev
  20              		.arch armv7e-m
  21              		.syntax unified
  22              		.thumb
  23              		.thumb_func
  24              		.fpu fpv5-d16
  26              	_ZN5daisy9DaisySeedD2Ev:
  27              	.LVL0:
  28              	.LFB2528:
  29              		.file 1 "../../libDaisy/src/daisy_seed.h"
   1:../../libDaisy/src/daisy_seed.h **** #pragma once
   2:../../libDaisy/src/daisy_seed.h **** #ifndef DSY_SEED_H
   3:../../libDaisy/src/daisy_seed.h **** #define DSY_SEED_H
   4:../../libDaisy/src/daisy_seed.h **** 
   5:../../libDaisy/src/daisy_seed.h **** #include "daisy.h"
   6:../../libDaisy/src/daisy_seed.h **** 
   7:../../libDaisy/src/daisy_seed.h **** //Uncomment this out if you're still using the rev2 hardware
   8:../../libDaisy/src/daisy_seed.h **** //#define SEED_REV2
   9:../../libDaisy/src/daisy_seed.h **** 
  10:../../libDaisy/src/daisy_seed.h **** namespace daisy
  11:../../libDaisy/src/daisy_seed.h **** {
  12:../../libDaisy/src/daisy_seed.h **** /**
  13:../../libDaisy/src/daisy_seed.h ****    @brief This is the higher-level interface for the Daisy board. \n 
  14:../../libDaisy/src/daisy_seed.h ****     All basic peripheral configuration/initialization is setup here. \n
  15:../../libDaisy/src/daisy_seed.h **** 
  16:../../libDaisy/src/daisy_seed.h ****    @ingroup boards
  17:../../libDaisy/src/daisy_seed.h **** */
  18:../../libDaisy/src/daisy_seed.h **** class DaisySeed
  19:../../libDaisy/src/daisy_seed.h **** {
  20:../../libDaisy/src/daisy_seed.h ****   public:
  21:../../libDaisy/src/daisy_seed.h ****     DaisySeed() {}
  22:../../libDaisy/src/daisy_seed.h ****     ~DaisySeed() {}
  30              		.loc 1 22 5 view -0
  31              		.cfi_startproc
  32              		@ args = 0, pretend = 0, frame = 0
  33              		@ frame_needed = 0, uses_anonymous_args = 0
  34              		@ link register save eliminated.
  35              	.LBB235:
  36              	.LBI235:
ARM GAS  C:\Users\jcjco\AppData\Local\Temp\cchBw9Ih.s 			page 2


  37              		.file 2 "../../libDaisy/src/sys/system.h"
   1:../../libDaisy/src/sys/system.h **** #ifndef DSY_SYSTEM_H
   2:../../libDaisy/src/sys/system.h **** #define DSY_SYSTEM_H
   3:../../libDaisy/src/sys/system.h **** 
   4:../../libDaisy/src/sys/system.h **** #ifndef UNIT_TEST // for unit tests, a dummy implementation is provided below
   5:../../libDaisy/src/sys/system.h **** 
   6:../../libDaisy/src/sys/system.h **** #include <cstdint>
   7:../../libDaisy/src/sys/system.h **** #include "per/tim.h"
   8:../../libDaisy/src/sys/system.h **** 
   9:../../libDaisy/src/sys/system.h **** namespace daisy
  10:../../libDaisy/src/sys/system.h **** {
  11:../../libDaisy/src/sys/system.h **** /** A handle for interacting with the Core System. 
  12:../../libDaisy/src/sys/system.h ****  ** This includes the Clock tree, MPU, global DMA initialization,
  13:../../libDaisy/src/sys/system.h ****  ** cache handling, and any other necessary global initiailzation
  14:../../libDaisy/src/sys/system.h ****  **
  15:../../libDaisy/src/sys/system.h ****  ** @author shensley
  16:../../libDaisy/src/sys/system.h ****  ** @ingroup system
  17:../../libDaisy/src/sys/system.h ****  */
  18:../../libDaisy/src/sys/system.h **** class System
  19:../../libDaisy/src/sys/system.h **** {
  20:../../libDaisy/src/sys/system.h ****   public:
  21:../../libDaisy/src/sys/system.h ****     /** Contains settings for initializing the System */
  22:../../libDaisy/src/sys/system.h ****     struct Config
  23:../../libDaisy/src/sys/system.h ****     {
  24:../../libDaisy/src/sys/system.h ****         /** Specifies the system clock frequency that feeds APB/AHB clocks, etc. */
  25:../../libDaisy/src/sys/system.h ****         enum class SysClkFreq
  26:../../libDaisy/src/sys/system.h ****         {
  27:../../libDaisy/src/sys/system.h ****             FREQ_400MHZ,
  28:../../libDaisy/src/sys/system.h ****             FREQ_480MHZ,
  29:../../libDaisy/src/sys/system.h ****         };
  30:../../libDaisy/src/sys/system.h **** 
  31:../../libDaisy/src/sys/system.h ****         /** Method to call on the struct to set to defaults
  32:../../libDaisy/src/sys/system.h ****          ** CPU Freq set to 400MHz
  33:../../libDaisy/src/sys/system.h ****          ** Cache Enabled 
  34:../../libDaisy/src/sys/system.h ****          ** */
  35:../../libDaisy/src/sys/system.h ****         void Defaults()
  36:../../libDaisy/src/sys/system.h ****         {
  37:../../libDaisy/src/sys/system.h ****             cpu_freq    = SysClkFreq::FREQ_400MHZ;
  38:../../libDaisy/src/sys/system.h ****             use_dcache  = true;
  39:../../libDaisy/src/sys/system.h ****             use_icache  = true;
  40:../../libDaisy/src/sys/system.h ****             skip_clocks = false;
  41:../../libDaisy/src/sys/system.h ****         }
  42:../../libDaisy/src/sys/system.h **** 
  43:../../libDaisy/src/sys/system.h ****         /** Method to call on the struct to set to boost mode:
  44:../../libDaisy/src/sys/system.h ****          ** CPU Freq set to 480MHz
  45:../../libDaisy/src/sys/system.h ****          ** Cache Enabled 
  46:../../libDaisy/src/sys/system.h ****          ** */
  47:../../libDaisy/src/sys/system.h ****         void Boost()
  48:../../libDaisy/src/sys/system.h ****         {
  49:../../libDaisy/src/sys/system.h ****             cpu_freq    = SysClkFreq::FREQ_480MHZ;
  50:../../libDaisy/src/sys/system.h ****             use_dcache  = true;
  51:../../libDaisy/src/sys/system.h ****             use_icache  = true;
  52:../../libDaisy/src/sys/system.h ****             skip_clocks = false;
  53:../../libDaisy/src/sys/system.h ****         }
  54:../../libDaisy/src/sys/system.h **** 
  55:../../libDaisy/src/sys/system.h ****         SysClkFreq cpu_freq;
  56:../../libDaisy/src/sys/system.h ****         bool       use_dcache;
ARM GAS  C:\Users\jcjco\AppData\Local\Temp\cchBw9Ih.s 			page 3


  57:../../libDaisy/src/sys/system.h ****         bool       use_icache;
  58:../../libDaisy/src/sys/system.h ****         bool       skip_clocks;
  59:../../libDaisy/src/sys/system.h ****     };
  60:../../libDaisy/src/sys/system.h **** 
  61:../../libDaisy/src/sys/system.h ****     /** Describes the different regions of memory available to the Daisy
  62:../../libDaisy/src/sys/system.h ****      * 
  63:../../libDaisy/src/sys/system.h ****      */
  64:../../libDaisy/src/sys/system.h ****     enum MemoryRegion
  65:../../libDaisy/src/sys/system.h ****     {
  66:../../libDaisy/src/sys/system.h ****         INTERNAL_FLASH = 0,
  67:../../libDaisy/src/sys/system.h ****         ITCMRAM,
  68:../../libDaisy/src/sys/system.h ****         DTCMRAM,
  69:../../libDaisy/src/sys/system.h ****         SRAM_D1,
  70:../../libDaisy/src/sys/system.h ****         SRAM_D2,
  71:../../libDaisy/src/sys/system.h ****         SRAM_D3,
  72:../../libDaisy/src/sys/system.h ****         SDRAM,
  73:../../libDaisy/src/sys/system.h ****         QSPI,
  74:../../libDaisy/src/sys/system.h ****         INVALID_ADDRESS,
  75:../../libDaisy/src/sys/system.h ****     };
  76:../../libDaisy/src/sys/system.h **** 
  77:../../libDaisy/src/sys/system.h ****     System() {}
  78:../../libDaisy/src/sys/system.h ****     ~System() {}
  38              		.loc 2 78 5 view .LVU1
  39              		.loc 2 78 5 is_stmt 0 view .LVU2
  40              	.LBE235:
  41              	.LBB236:
  42              	.LBI236:
  43              		.file 3 "../../libDaisy/src/hid/usb.h"
   1:../../libDaisy/src/hid/usb.h **** #pragma once
   2:../../libDaisy/src/hid/usb.h **** #ifndef DSY_HID_USB_H
   3:../../libDaisy/src/hid/usb.h **** #define DSY_HID_USB_H
   4:../../libDaisy/src/hid/usb.h **** #include <stdint.h>
   5:../../libDaisy/src/hid/usb.h **** #include <stdlib.h>
   6:../../libDaisy/src/hid/usb.h **** 
   7:../../libDaisy/src/hid/usb.h **** namespace daisy
   8:../../libDaisy/src/hid/usb.h **** /** @addtogroup human_interface
   9:../../libDaisy/src/hid/usb.h ****     @{
  10:../../libDaisy/src/hid/usb.h **** */
  11:../../libDaisy/src/hid/usb.h **** 
  12:../../libDaisy/src/hid/usb.h **** {
  13:../../libDaisy/src/hid/usb.h **** /** 
  14:../../libDaisy/src/hid/usb.h ****     @brief Interface for initializing and using the USB Peripherals on the daisy
  15:../../libDaisy/src/hid/usb.h ****     @author Stephen Hensley
  16:../../libDaisy/src/hid/usb.h ****     @date December 2019
  17:../../libDaisy/src/hid/usb.h **** */
  18:../../libDaisy/src/hid/usb.h **** class UsbHandle
  19:../../libDaisy/src/hid/usb.h **** {
  20:../../libDaisy/src/hid/usb.h ****   public:
  21:../../libDaisy/src/hid/usb.h ****     /** Return values for USBHandle Functions */
  22:../../libDaisy/src/hid/usb.h ****     enum class Result
  23:../../libDaisy/src/hid/usb.h ****     {
  24:../../libDaisy/src/hid/usb.h ****         OK,
  25:../../libDaisy/src/hid/usb.h ****         ERR,
  26:../../libDaisy/src/hid/usb.h ****     };
  27:../../libDaisy/src/hid/usb.h **** 
  28:../../libDaisy/src/hid/usb.h ****     /** Specified which of the two USB Peripherals to initialize. */
  29:../../libDaisy/src/hid/usb.h ****     enum UsbPeriph
ARM GAS  C:\Users\jcjco\AppData\Local\Temp\cchBw9Ih.s 			page 4


  30:../../libDaisy/src/hid/usb.h ****     {
  31:../../libDaisy/src/hid/usb.h ****         FS_INTERNAL, /**< Internal pin */
  32:../../libDaisy/src/hid/usb.h ****         FS_EXTERNAL, /**< FS External D+ pin is Pin 38 (GPIO32). FS External D- pin is Pin 37 (GPIO
  33:../../libDaisy/src/hid/usb.h ****         FS_BOTH,     /**< Both */
  34:../../libDaisy/src/hid/usb.h ****     };
  35:../../libDaisy/src/hid/usb.h **** 
  36:../../libDaisy/src/hid/usb.h **** 
  37:../../libDaisy/src/hid/usb.h ****     /** Function called upon reception of a buffer */
  38:../../libDaisy/src/hid/usb.h ****     typedef void (*ReceiveCallback)(uint8_t* buff, uint32_t* len);
  39:../../libDaisy/src/hid/usb.h **** 
  40:../../libDaisy/src/hid/usb.h ****     UsbHandle() {}
  41:../../libDaisy/src/hid/usb.h **** 
  42:../../libDaisy/src/hid/usb.h ****     ~UsbHandle() {}
  44              		.loc 3 42 5 is_stmt 1 view .LVU3
  45              		.loc 3 42 5 is_stmt 0 view .LVU4
  46              	.LBE236:
  47              	.LBB237:
  48              	.LBI237:
  49              		.file 4 "../../libDaisy/src/per/adc.h"
   1:../../libDaisy/src/per/adc.h **** #pragma once
   2:../../libDaisy/src/per/adc.h **** #ifndef DSY_ADC_H
   3:../../libDaisy/src/per/adc.h **** #define DSY_ADC_H /**< Macro */
   4:../../libDaisy/src/per/adc.h **** #include <stdint.h>
   5:../../libDaisy/src/per/adc.h **** #include <stdlib.h>
   6:../../libDaisy/src/per/adc.h **** #include "daisy_core.h"
   7:../../libDaisy/src/per/adc.h **** #include "per/gpio.h"
   8:../../libDaisy/src/per/adc.h **** 
   9:../../libDaisy/src/per/adc.h **** #define DSY_ADC_MAX_CHANNELS 16 /**< Maximum number of ADC channels */
  10:../../libDaisy/src/per/adc.h **** 
  11:../../libDaisy/src/per/adc.h **** namespace daisy
  12:../../libDaisy/src/per/adc.h **** {
  13:../../libDaisy/src/per/adc.h **** /** @addtogroup per_analog
  14:../../libDaisy/src/per/adc.h ****     @{
  15:../../libDaisy/src/per/adc.h **** */
  16:../../libDaisy/src/per/adc.h **** 
  17:../../libDaisy/src/per/adc.h **** /* While there may not be many configuration options here,
  18:../../libDaisy/src/per/adc.h **** using a struct like this allows us to add more configuration
  19:../../libDaisy/src/per/adc.h **** later without breaking existing functionality.
  20:../../libDaisy/src/per/adc.h **** */
  21:../../libDaisy/src/per/adc.h **** 
  22:../../libDaisy/src/per/adc.h **** /** @brief   Configuration Structure for an ADC Channel 
  23:../../libDaisy/src/per/adc.h ****  *  @details This can be used to configure a a single input, 
  24:../../libDaisy/src/per/adc.h ****  *           or a multiplexed input, allowing up to 8 inputs on 
  25:../../libDaisy/src/per/adc.h ****  *           one channel.
  26:../../libDaisy/src/per/adc.h ****  *  @note    Sharing data lines to multiple muxes _is_ possible, but
  27:../../libDaisy/src/per/adc.h ****  *           each channel sharing data lines must be set to the maximum
  28:../../libDaisy/src/per/adc.h ****  *           number of channels, even if some multiplexers have fewer
  29:../../libDaisy/src/per/adc.h ****  *           inputs connected.
  30:../../libDaisy/src/per/adc.h **** */
  31:../../libDaisy/src/per/adc.h **** struct AdcChannelConfig
  32:../../libDaisy/src/per/adc.h **** {
  33:../../libDaisy/src/per/adc.h ****     /** Which pin to use for multiplexing */
  34:../../libDaisy/src/per/adc.h ****     enum MuxPin
  35:../../libDaisy/src/per/adc.h ****     {
  36:../../libDaisy/src/per/adc.h ****         MUX_SEL_0,    /**< & */
  37:../../libDaisy/src/per/adc.h ****         MUX_SEL_1,    /**< & */
  38:../../libDaisy/src/per/adc.h ****         MUX_SEL_2,    /**< & */
ARM GAS  C:\Users\jcjco\AppData\Local\Temp\cchBw9Ih.s 			page 5


  39:../../libDaisy/src/per/adc.h ****         MUX_SEL_LAST, /**< & */
  40:../../libDaisy/src/per/adc.h ****     };
  41:../../libDaisy/src/per/adc.h **** 
  42:../../libDaisy/src/per/adc.h ****     /** Initializes a single ADC pin as an ADC. 
  43:../../libDaisy/src/per/adc.h ****     \param pin Pin to init.
  44:../../libDaisy/src/per/adc.h ****      */
  45:../../libDaisy/src/per/adc.h ****     void InitSingle(dsy_gpio_pin pin);
  46:../../libDaisy/src/per/adc.h **** 
  47:../../libDaisy/src/per/adc.h ****     /** 
  48:../../libDaisy/src/per/adc.h ****     Initializes a single ADC pin as a Multiplexed ADC.
  49:../../libDaisy/src/per/adc.h ****     Requires a CD405X Multiplexer connected to the pin.
  50:../../libDaisy/src/per/adc.h ****     You only need to supply the mux pins that are required,
  51:../../libDaisy/src/per/adc.h ****     e.g. a 4052 mux would only require mux_0 and mux_1.
  52:../../libDaisy/src/per/adc.h ****     Internal Callbacks handle the pin addressing.
  53:../../libDaisy/src/per/adc.h ****     \param mux_channels must be 1-8
  54:../../libDaisy/src/per/adc.h ****     \param mux_0 First mux pin
  55:../../libDaisy/src/per/adc.h ****     \param mux_1 Second mux pin
  56:../../libDaisy/src/per/adc.h ****     \param mux_2 Third mux pin
  57:../../libDaisy/src/per/adc.h ****     \param adc_pin &
  58:../../libDaisy/src/per/adc.h ****     */
  59:../../libDaisy/src/per/adc.h ****     void InitMux(dsy_gpio_pin adc_pin,
  60:../../libDaisy/src/per/adc.h ****                  size_t       mux_channels,
  61:../../libDaisy/src/per/adc.h ****                  dsy_gpio_pin mux_0,
  62:../../libDaisy/src/per/adc.h ****                  dsy_gpio_pin mux_1 = {DSY_GPIOX, 0},
  63:../../libDaisy/src/per/adc.h ****                  dsy_gpio_pin mux_2 = {DSY_GPIOX, 0});
  64:../../libDaisy/src/per/adc.h **** 
  65:../../libDaisy/src/per/adc.h ****     dsy_gpio pin_;                   /**< & */
  66:../../libDaisy/src/per/adc.h ****     dsy_gpio mux_pin_[MUX_SEL_LAST]; /**< & */
  67:../../libDaisy/src/per/adc.h ****     uint8_t  mux_channels_;          /**< & */
  68:../../libDaisy/src/per/adc.h **** };
  69:../../libDaisy/src/per/adc.h **** 
  70:../../libDaisy/src/per/adc.h **** /**
  71:../../libDaisy/src/per/adc.h ****    @brief Handler for analog to digital conversion
  72:../../libDaisy/src/per/adc.h **** */
  73:../../libDaisy/src/per/adc.h **** class AdcHandle
  74:../../libDaisy/src/per/adc.h **** {
  75:../../libDaisy/src/per/adc.h ****   public:
  76:../../libDaisy/src/per/adc.h ****     /** Supported oversampling amounts */
  77:../../libDaisy/src/per/adc.h ****     enum OverSampling
  78:../../libDaisy/src/per/adc.h ****     {
  79:../../libDaisy/src/per/adc.h ****         OVS_NONE, /**< & */
  80:../../libDaisy/src/per/adc.h ****         OVS_4,    /**< & */
  81:../../libDaisy/src/per/adc.h ****         OVS_8,    /**< & */
  82:../../libDaisy/src/per/adc.h ****         OVS_16,   /**< & */
  83:../../libDaisy/src/per/adc.h ****         OVS_32,   /**< & */
  84:../../libDaisy/src/per/adc.h ****         OVS_64,   /**< & */
  85:../../libDaisy/src/per/adc.h ****         OVS_128,  /**< & */
  86:../../libDaisy/src/per/adc.h ****         OVS_256,  /**< & */
  87:../../libDaisy/src/per/adc.h ****         OVS_512,  /**< & */
  88:../../libDaisy/src/per/adc.h ****         OVS_1024, /**< & */
  89:../../libDaisy/src/per/adc.h ****         OVS_LAST, /**< & */
  90:../../libDaisy/src/per/adc.h ****     };
  91:../../libDaisy/src/per/adc.h **** 
  92:../../libDaisy/src/per/adc.h ****     AdcHandle() {}
  93:../../libDaisy/src/per/adc.h ****     ~AdcHandle() {}
  50              		.loc 4 93 5 is_stmt 1 view .LVU5
  51              		.loc 4 93 5 is_stmt 0 view .LVU6
ARM GAS  C:\Users\jcjco\AppData\Local\Temp\cchBw9Ih.s 			page 6


  52              	.LBE237:
  53              	.LBB238:
  54              	.LBI238:
  55              		.file 5 "../../libDaisy/src/hid/audio.h"
   1:../../libDaisy/src/hid/audio.h **** #ifndef DSY_AUDIO_H
   2:../../libDaisy/src/hid/audio.h **** #define DSY_AUDIO_H /**< & */
   3:../../libDaisy/src/hid/audio.h **** 
   4:../../libDaisy/src/hid/audio.h **** #include "per/sai.h"
   5:../../libDaisy/src/hid/audio.h **** 
   6:../../libDaisy/src/hid/audio.h **** namespace daisy
   7:../../libDaisy/src/hid/audio.h **** {
   8:../../libDaisy/src/hid/audio.h **** /** @brief Audio Engine Handle
   9:../../libDaisy/src/hid/audio.h ****  *  @ingroup audio 
  10:../../libDaisy/src/hid/audio.h ****  *  @details This class allows for higher level access to an audio engine.
  11:../../libDaisy/src/hid/audio.h ****  *           If you're using a SOM like the DaisySeed or DaisyPatchSM (or any 
  12:../../libDaisy/src/hid/audio.h ****  *            board that includes one of those objects) then the intialization
  13:../../libDaisy/src/hid/audio.h ****  *            is already taken  care of.
  14:../../libDaisy/src/hid/audio.h ****  *           If you're setting up your own custom hardware, or need to make changes
  15:../../libDaisy/src/hid/audio.h ****  *           you will have to take the following steps:
  16:../../libDaisy/src/hid/audio.h ****  *             1. Create and Initialize an SaiHandle or two depending on your requirements
  17:../../libDaisy/src/hid/audio.h ****  *             2. Initialize the Audio Handle with the desired settings and the Initialized SaiHand
  18:../../libDaisy/src/hid/audio.h ****  *             3. If the connected codec requires special configuration or initialization, do so
  19:../../libDaisy/src/hid/audio.h ****  *             4. Write a callback method using either the AudioCallback or the InterleavingAudioCa
  20:../../libDaisy/src/hid/audio.h ****  *             5. Start the Audio using one of the StartAudio function
  21:../../libDaisy/src/hid/audio.h ****  */
  22:../../libDaisy/src/hid/audio.h **** class AudioHandle
  23:../../libDaisy/src/hid/audio.h **** {
  24:../../libDaisy/src/hid/audio.h ****   public:
  25:../../libDaisy/src/hid/audio.h ****     /** Manually configurable details about the Audio Engine */
  26:../../libDaisy/src/hid/audio.h ****     /** TODO: Figure out how to get samplerate in here. */
  27:../../libDaisy/src/hid/audio.h ****     struct Config
  28:../../libDaisy/src/hid/audio.h ****     {
  29:../../libDaisy/src/hid/audio.h ****         /** number of samples to process per callback */
  30:../../libDaisy/src/hid/audio.h ****         size_t blocksize;
  31:../../libDaisy/src/hid/audio.h **** 
  32:../../libDaisy/src/hid/audio.h ****         /**< Sample rate of audio */
  33:../../libDaisy/src/hid/audio.h ****         SaiHandle::Config::SampleRate samplerate;
  34:../../libDaisy/src/hid/audio.h **** 
  35:../../libDaisy/src/hid/audio.h ****         /** factor for adjustment before and after callback for hardware that may have extra headro
  36:../../libDaisy/src/hid/audio.h ****         float postgain;
  37:../../libDaisy/src/hid/audio.h **** 
  38:../../libDaisy/src/hid/audio.h ****         /** factor for additional one-sided compensation to audio path for hardware that may
  39:../../libDaisy/src/hid/audio.h ****          *  have unequal input/output ranges
  40:../../libDaisy/src/hid/audio.h ****          */
  41:../../libDaisy/src/hid/audio.h ****         float output_compensation;
  42:../../libDaisy/src/hid/audio.h **** 
  43:../../libDaisy/src/hid/audio.h ****         /** Sets default values for config struct */
  44:../../libDaisy/src/hid/audio.h ****         Config()
  45:../../libDaisy/src/hid/audio.h ****         : blocksize(48),
  46:../../libDaisy/src/hid/audio.h ****           samplerate(SaiHandle::Config::SampleRate::SAI_48KHZ),
  47:../../libDaisy/src/hid/audio.h ****           postgain(1.f),
  48:../../libDaisy/src/hid/audio.h ****           output_compensation(1.f)
  49:../../libDaisy/src/hid/audio.h ****         {
  50:../../libDaisy/src/hid/audio.h ****         }
  51:../../libDaisy/src/hid/audio.h ****     };
  52:../../libDaisy/src/hid/audio.h **** 
  53:../../libDaisy/src/hid/audio.h ****     enum class Result
ARM GAS  C:\Users\jcjco\AppData\Local\Temp\cchBw9Ih.s 			page 7


  54:../../libDaisy/src/hid/audio.h ****     {
  55:../../libDaisy/src/hid/audio.h ****         OK,
  56:../../libDaisy/src/hid/audio.h ****         ERR,
  57:../../libDaisy/src/hid/audio.h ****     };
  58:../../libDaisy/src/hid/audio.h **** 
  59:../../libDaisy/src/hid/audio.h ****     /** Non-Interleaving input buffer
  60:../../libDaisy/src/hid/audio.h ****      * Buffer arranged by float[chn][sample] 
  61:../../libDaisy/src/hid/audio.h ****      * const so that the user can't modify the input
  62:../../libDaisy/src/hid/audio.h ****      */
  63:../../libDaisy/src/hid/audio.h ****     typedef const float* const* InputBuffer;
  64:../../libDaisy/src/hid/audio.h **** 
  65:../../libDaisy/src/hid/audio.h ****     /** Non-Interleaving output buffer
  66:../../libDaisy/src/hid/audio.h ****      * Arranged by float[chn][sample] 
  67:../../libDaisy/src/hid/audio.h ****      */
  68:../../libDaisy/src/hid/audio.h ****     typedef float** OutputBuffer;
  69:../../libDaisy/src/hid/audio.h **** 
  70:../../libDaisy/src/hid/audio.h ****     /** Type for a Non-Interleaving audio callback 
  71:../../libDaisy/src/hid/audio.h ****      * Non-Interleaving audio callbacks in daisy will be of this type
  72:../../libDaisy/src/hid/audio.h ****      */
  73:../../libDaisy/src/hid/audio.h ****     typedef void (*AudioCallback)(InputBuffer  in,
  74:../../libDaisy/src/hid/audio.h ****                                   OutputBuffer out,
  75:../../libDaisy/src/hid/audio.h ****                                   size_t       size);
  76:../../libDaisy/src/hid/audio.h **** 
  77:../../libDaisy/src/hid/audio.h ****     /** Interleaving Input buffer
  78:../../libDaisy/src/hid/audio.h ****      ** audio is prepared as { L0, R0, L1, R1, . . . LN, RN }]
  79:../../libDaisy/src/hid/audio.h ****      ** this is const, as the user shouldn't modify it
  80:../../libDaisy/src/hid/audio.h ****     */
  81:../../libDaisy/src/hid/audio.h ****     typedef const float* InterleavingInputBuffer;
  82:../../libDaisy/src/hid/audio.h **** 
  83:../../libDaisy/src/hid/audio.h ****     /** Interleaving Output buffer 
  84:../../libDaisy/src/hid/audio.h ****      ** audio is prepared as { L0, R0, L1, R1, . . . LN, RN }
  85:../../libDaisy/src/hid/audio.h ****     */
  86:../../libDaisy/src/hid/audio.h ****     typedef float* InterleavingOutputBuffer;
  87:../../libDaisy/src/hid/audio.h **** 
  88:../../libDaisy/src/hid/audio.h ****     /** Interleaving Audio Callback 
  89:../../libDaisy/src/hid/audio.h ****      * Interleaving audio callbacks in daisy must be of this type
  90:../../libDaisy/src/hid/audio.h ****      */
  91:../../libDaisy/src/hid/audio.h ****     typedef void (*InterleavingAudioCallback)(InterleavingInputBuffer  in,
  92:../../libDaisy/src/hid/audio.h ****                                               InterleavingOutputBuffer out,
  93:../../libDaisy/src/hid/audio.h ****                                               size_t                   size);
  94:../../libDaisy/src/hid/audio.h **** 
  95:../../libDaisy/src/hid/audio.h ****     AudioHandle() : pimpl_(nullptr) {}
  96:../../libDaisy/src/hid/audio.h ****     ~AudioHandle() {}
  56              		.loc 5 96 5 is_stmt 1 view .LVU7
  57              		.loc 5 96 5 is_stmt 0 view .LVU8
  58              	.LBE238:
  59              		.loc 1 22 19 view .LVU9
  60 0000 7047     		bx	lr
  61              		.cfi_endproc
  62              	.LFE2528:
  64              		.weak	_ZN5daisy9DaisySeedD1Ev
  65              		.thumb_set _ZN5daisy9DaisySeedD1Ev,_ZN5daisy9DaisySeedD2Ev
  66 0002 00BF     		.section	.text._ZN7VASynthD2Ev,"axG",%progbits,_ZN7VASynthD5Ev,comdat
  67              		.align	1
  68              		.p2align 2,,3
  69              		.weak	_ZN7VASynthD2Ev
  70              		.syntax unified
ARM GAS  C:\Users\jcjco\AppData\Local\Temp\cchBw9Ih.s 			page 8


  71              		.thumb
  72              		.thumb_func
  73              		.fpu fpv5-d16
  75              	_ZN7VASynthD2Ev:
  76              	.LVL1:
  77              	.LFB4790:
  78              		.file 6 "vasynth.h"
   1:vasynth.h     **** #pragma once
   2:vasynth.h     **** #ifndef DSY_VAVOICE_H
   3:vasynth.h     **** #define DSY_VAVOICE_H
   4:vasynth.h     **** 
   5:vasynth.h     **** #include "daisysp.h"
   6:vasynth.h     **** 
   7:vasynth.h     **** #include "main.h"
   8:vasynth.h     **** 
   9:vasynth.h     **** // preset
  10:vasynth.h     **** #define PRESET_MAX 1
  11:vasynth.h     **** 
  12:vasynth.h     **** // waveforms
  13:vasynth.h     **** #define WAVE_TRI 0
  14:vasynth.h     **** #define WAVE_SAW 1
  15:vasynth.h     **** #define WAVE_SQUARE 2
  16:vasynth.h     **** #define WAVE_POLYBLEP_SAW 3 
  17:vasynth.h     **** 
  18:vasynth.h     **** using namespace daisy;
  19:vasynth.h     **** using namespace daisysp;
  20:vasynth.h     **** using namespace infrasonic;
  21:vasynth.h     **** 
  22:vasynth.h     **** typedef struct
  23:vasynth.h     **** {
  24:vasynth.h     **** 	// config
  25:vasynth.h     **** 	uint8_t waveform;
  26:vasynth.h     **** 	float osc_mix;
  27:vasynth.h     **** 	float detune;
  28:vasynth.h     **** 	float osc_pw;
  29:vasynth.h     **** 
  30:vasynth.h     **** 	uint8_t osc2_waveform;
  31:vasynth.h     **** 	float osc2_detune;
  32:vasynth.h     **** 	float osc2_transpose;
  33:vasynth.h     **** 	float osc2_pw;
  34:vasynth.h     **** 	
  35:vasynth.h     **** 	float eg_a_attack;
  36:vasynth.h     **** 	float eg_a_decay;
  37:vasynth.h     **** 	float eg_a_sustain; // level
  38:vasynth.h     **** 	float eg_a_release;
  39:vasynth.h     **** 	float eg_f_attack;
  40:vasynth.h     **** 	float eg_f_decay;
  41:vasynth.h     **** 	float eg_f_sustain; // level
  42:vasynth.h     **** 	float eg_f_release;
  43:vasynth.h     **** 	
  44:vasynth.h     **** 	uint8_t lfo_waveform;
  45:vasynth.h     **** 	float lfo_freq;
  46:vasynth.h     **** 	float lfo_amp;
  47:vasynth.h     **** 
  48:vasynth.h     **** 	uint8_t pwmlfo_waveform;
  49:vasynth.h     **** 	float pwmlfo_freq;
  50:vasynth.h     **** 	float pwmlfo_amp;
ARM GAS  C:\Users\jcjco\AppData\Local\Temp\cchBw9Ih.s 			page 9


  51:vasynth.h     **** 
  52:vasynth.h     **** 	uint8_t pwm2lfo_waveform;
  53:vasynth.h     **** 	float pwm2lfo_freq;
  54:vasynth.h     **** 	float pwm2lfo_amp;
  55:vasynth.h     **** 	
  56:vasynth.h     **** 	uint8_t vcavcflfo_waveform;
  57:vasynth.h     **** 	float vcavcflfo_freq;
  58:vasynth.h     **** 	float vcavcflfo_amp;
  59:vasynth.h     **** 
  60:vasynth.h     **** 	float vcf_kbd_follow;
  61:vasynth.h     **** 	float env_kbd_follow;
  62:vasynth.h     **** 
  63:vasynth.h     **** 	float filter_res;
  64:vasynth.h     **** 	float filter_cutoff;
  65:vasynth.h     **** 	float eg_f_amount;
  66:vasynth.h     **** 	uint8_t vel_select;
  67:vasynth.h     **** 	uint8_t midi_channel;
  68:vasynth.h     **** } VASynthSetting;
  69:vasynth.h     **** 
  70:vasynth.h     **** class VASynth
  71:vasynth.h     **** {
  72:vasynth.h     **** 	public:
  73:vasynth.h     **** 
  74:vasynth.h     ****     VASynth() {}
  75:vasynth.h     ****     ~VASynth() {}
  79              		.loc 6 75 5 is_stmt 1 view -0
  80              		.cfi_startproc
  81              		@ args = 0, pretend = 0, frame = 0
  82              		@ frame_needed = 0, uses_anonymous_args = 0
  83              		@ link register save eliminated.
  84              	.LBB239:
  85              	.LBI239:
  86              		.file 7 "../../DaisySP/Source/Synthesis/oscillator.h"
   1:../../DaisySP/Source/Synthesis/oscillator.h **** #pragma once
   2:../../DaisySP/Source/Synthesis/oscillator.h **** #ifndef DSY_OSCILLATOR_H
   3:../../DaisySP/Source/Synthesis/oscillator.h **** #define DSY_OSCILLATOR_H
   4:../../DaisySP/Source/Synthesis/oscillator.h **** #include <stdint.h>
   5:../../DaisySP/Source/Synthesis/oscillator.h **** #include "Utility/dsp.h"
   6:../../DaisySP/Source/Synthesis/oscillator.h **** #ifdef __cplusplus
   7:../../DaisySP/Source/Synthesis/oscillator.h **** 
   8:../../DaisySP/Source/Synthesis/oscillator.h **** namespace daisysp
   9:../../DaisySP/Source/Synthesis/oscillator.h **** {
  10:../../DaisySP/Source/Synthesis/oscillator.h **** /** Synthesis of several waveforms, including polyBLEP bandlimited waveforms.
  11:../../DaisySP/Source/Synthesis/oscillator.h **** */
  12:../../DaisySP/Source/Synthesis/oscillator.h **** class Oscillator
  13:../../DaisySP/Source/Synthesis/oscillator.h **** {
  14:../../DaisySP/Source/Synthesis/oscillator.h ****   public:
  15:../../DaisySP/Source/Synthesis/oscillator.h ****     Oscillator() {}
  16:../../DaisySP/Source/Synthesis/oscillator.h ****     ~Oscillator() {}
  87              		.loc 7 16 5 view .LVU11
  88              		.loc 7 16 5 is_stmt 0 view .LVU12
  89              	.LBE239:
  90              	.LBB240:
  91              	.LBI240:
  92              		.loc 7 16 5 is_stmt 1 view .LVU13
  93              		.loc 7 16 5 is_stmt 0 view .LVU14
  94              	.LBE240:
ARM GAS  C:\Users\jcjco\AppData\Local\Temp\cchBw9Ih.s 			page 10


  95              	.LBB241:
  96              	.LBI241:
  97              		.loc 7 16 5 is_stmt 1 view .LVU15
  98              		.loc 7 16 5 is_stmt 0 view .LVU16
  99              	.LBE241:
 100              	.LBB242:
 101              	.LBI242:
 102              		.loc 7 16 5 is_stmt 1 view .LVU17
 103              		.loc 7 16 5 is_stmt 0 view .LVU18
 104              	.LBE242:
 105              		.loc 6 75 17 view .LVU19
 106 0000 7047     		bx	lr
 107              		.cfi_endproc
 108              	.LFE4790:
 110              		.weak	_ZN7VASynthD1Ev
 111              		.thumb_set _ZN7VASynthD1Ev,_ZN7VASynthD2Ev
 112 0002 00BF     		.section	.text._ZN5daisy11MidiHandlerINS_16MidiUsbTransportEED2Ev,"axG",%progbits,_ZN5daisy11MidiH
 113              		.align	1
 114              		.p2align 2,,3
 115              		.weak	_ZN5daisy11MidiHandlerINS_16MidiUsbTransportEED2Ev
 116              		.syntax unified
 117              		.thumb
 118              		.thumb_func
 119              		.fpu fpv5-d16
 121              	_ZN5daisy11MidiHandlerINS_16MidiUsbTransportEED2Ev:
 122              	.LVL2:
 123              	.LFB5388:
 124              		.file 8 "../../libDaisy/src/hid/midi.h"
   1:../../libDaisy/src/hid/midi.h **** #pragma once
   2:../../libDaisy/src/hid/midi.h **** #ifndef DSY_MIDI_H
   3:../../libDaisy/src/hid/midi.h **** #define DSY_MIDI_H
   4:../../libDaisy/src/hid/midi.h **** 
   5:../../libDaisy/src/hid/midi.h **** // TODO: make this adjustable
   6:../../libDaisy/src/hid/midi.h **** #define SYSEX_BUFFER_LEN 128
   7:../../libDaisy/src/hid/midi.h **** 
   8:../../libDaisy/src/hid/midi.h **** #include <stdint.h>
   9:../../libDaisy/src/hid/midi.h **** #include <stdlib.h>
  10:../../libDaisy/src/hid/midi.h **** #include "per/uart.h"
  11:../../libDaisy/src/hid/midi.h **** #include "util/ringbuffer.h"
  12:../../libDaisy/src/hid/midi.h **** #include "hid/MidiEvent.h"
  13:../../libDaisy/src/hid/midi.h **** #include "hid/usb_midi.h"
  14:../../libDaisy/src/hid/midi.h **** #include "sys/system.h"
  15:../../libDaisy/src/hid/midi.h **** 
  16:../../libDaisy/src/hid/midi.h **** namespace daisy
  17:../../libDaisy/src/hid/midi.h **** {
  18:../../libDaisy/src/hid/midi.h **** /** @brief   Transport layer for sending and receiving MIDI data over UART 
  19:../../libDaisy/src/hid/midi.h ****  *  @details This is the mode of communication used for TRS and DIN MIDI
  20:../../libDaisy/src/hid/midi.h ****  *  @ingroup midi
  21:../../libDaisy/src/hid/midi.h **** */
  22:../../libDaisy/src/hid/midi.h **** class MidiUartTransport
  23:../../libDaisy/src/hid/midi.h **** {
  24:../../libDaisy/src/hid/midi.h ****   public:
  25:../../libDaisy/src/hid/midi.h ****     MidiUartTransport() {}
  26:../../libDaisy/src/hid/midi.h ****     ~MidiUartTransport() {}
  27:../../libDaisy/src/hid/midi.h **** 
  28:../../libDaisy/src/hid/midi.h ****     struct Config
  29:../../libDaisy/src/hid/midi.h ****     {
ARM GAS  C:\Users\jcjco\AppData\Local\Temp\cchBw9Ih.s 			page 11


  30:../../libDaisy/src/hid/midi.h ****         UartHandler::Config::Peripheral periph;
  31:../../libDaisy/src/hid/midi.h ****         dsy_gpio_pin                    rx;
  32:../../libDaisy/src/hid/midi.h ****         dsy_gpio_pin                    tx;
  33:../../libDaisy/src/hid/midi.h **** 
  34:../../libDaisy/src/hid/midi.h ****         Config()
  35:../../libDaisy/src/hid/midi.h ****         {
  36:../../libDaisy/src/hid/midi.h ****             periph = UartHandler::Config::Peripheral::USART_1;
  37:../../libDaisy/src/hid/midi.h ****             rx     = {DSY_GPIOB, 7};
  38:../../libDaisy/src/hid/midi.h ****             tx     = {DSY_GPIOB, 6};
  39:../../libDaisy/src/hid/midi.h ****         }
  40:../../libDaisy/src/hid/midi.h ****     };
  41:../../libDaisy/src/hid/midi.h **** 
  42:../../libDaisy/src/hid/midi.h ****     inline void Init(Config config)
  43:../../libDaisy/src/hid/midi.h ****     {
  44:../../libDaisy/src/hid/midi.h ****         UartHandler::Config uart_config;
  45:../../libDaisy/src/hid/midi.h **** 
  46:../../libDaisy/src/hid/midi.h ****         //defaults
  47:../../libDaisy/src/hid/midi.h ****         uart_config.baudrate   = 31250;
  48:../../libDaisy/src/hid/midi.h ****         uart_config.stopbits   = UartHandler::Config::StopBits::BITS_1;
  49:../../libDaisy/src/hid/midi.h ****         uart_config.parity     = UartHandler::Config::Parity::NONE;
  50:../../libDaisy/src/hid/midi.h ****         uart_config.mode       = UartHandler::Config::Mode::TX_RX;
  51:../../libDaisy/src/hid/midi.h ****         uart_config.wordlength = UartHandler::Config::WordLength::BITS_8;
  52:../../libDaisy/src/hid/midi.h **** 
  53:../../libDaisy/src/hid/midi.h ****         //user settings
  54:../../libDaisy/src/hid/midi.h ****         uart_config.periph        = config.periph;
  55:../../libDaisy/src/hid/midi.h ****         uart_config.pin_config.rx = config.rx;
  56:../../libDaisy/src/hid/midi.h ****         uart_config.pin_config.tx = config.tx;
  57:../../libDaisy/src/hid/midi.h **** 
  58:../../libDaisy/src/hid/midi.h ****         uart_.Init(uart_config);
  59:../../libDaisy/src/hid/midi.h ****     }
  60:../../libDaisy/src/hid/midi.h **** 
  61:../../libDaisy/src/hid/midi.h ****     inline void    StartRx() { uart_.StartRx(); }
  62:../../libDaisy/src/hid/midi.h ****     inline size_t  Readable() { return uart_.Readable(); }
  63:../../libDaisy/src/hid/midi.h ****     inline uint8_t Rx() { return uart_.PopRx(); }
  64:../../libDaisy/src/hid/midi.h ****     inline bool    RxActive() { return uart_.RxActive(); }
  65:../../libDaisy/src/hid/midi.h ****     inline void    FlushRx() { uart_.FlushRx(); }
  66:../../libDaisy/src/hid/midi.h ****     inline void    Tx(uint8_t* buff, size_t size) { uart_.PollTx(buff, size); }
  67:../../libDaisy/src/hid/midi.h **** 
  68:../../libDaisy/src/hid/midi.h ****   private:
  69:../../libDaisy/src/hid/midi.h ****     UartHandler uart_;
  70:../../libDaisy/src/hid/midi.h **** };
  71:../../libDaisy/src/hid/midi.h **** 
  72:../../libDaisy/src/hid/midi.h **** /** 
  73:../../libDaisy/src/hid/midi.h ****     @brief Simple MIDI Handler \n 
  74:../../libDaisy/src/hid/midi.h ****     Parses bytes from an input into valid MidiEvents. \n 
  75:../../libDaisy/src/hid/midi.h ****     The MidiEvents fill a FIFO queue that the user can pop messages from.
  76:../../libDaisy/src/hid/midi.h ****     @author shensley
  77:../../libDaisy/src/hid/midi.h ****     @date March 2020
  78:../../libDaisy/src/hid/midi.h ****     @ingroup midi
  79:../../libDaisy/src/hid/midi.h **** */
  80:../../libDaisy/src/hid/midi.h **** template <typename Transport>
  81:../../libDaisy/src/hid/midi.h **** class MidiHandler
  82:../../libDaisy/src/hid/midi.h **** {
  83:../../libDaisy/src/hid/midi.h ****   public:
  84:../../libDaisy/src/hid/midi.h ****     MidiHandler() {}
  85:../../libDaisy/src/hid/midi.h ****     ~MidiHandler() {}
 125              		.loc 8 85 5 is_stmt 1 view -0
ARM GAS  C:\Users\jcjco\AppData\Local\Temp\cchBw9Ih.s 			page 12


 126              		.cfi_startproc
 127              		@ args = 0, pretend = 0, frame = 0
 128              		@ frame_needed = 0, uses_anonymous_args = 0
 129              		@ link register save eliminated.
 130              	.LBB243:
 131              	.LBI243:
 132              		.file 9 "../../libDaisy/src/hid/usb_midi.h"
   1:../../libDaisy/src/hid/usb_midi.h **** #pragma once
   2:../../libDaisy/src/hid/usb_midi.h **** #ifndef __DSY_MIDIUSBTRANSPORT_H__
   3:../../libDaisy/src/hid/usb_midi.h **** #define __DSY_MIDIUSBTRANSPORT_H__
   4:../../libDaisy/src/hid/usb_midi.h **** 
   5:../../libDaisy/src/hid/usb_midi.h **** #include "hid/usb.h"
   6:../../libDaisy/src/hid/usb_midi.h **** #include "sys/system.h"
   7:../../libDaisy/src/hid/usb_midi.h **** #include "util/ringbuffer.h"
   8:../../libDaisy/src/hid/usb_midi.h **** 
   9:../../libDaisy/src/hid/usb_midi.h **** namespace daisy
  10:../../libDaisy/src/hid/usb_midi.h **** {
  11:../../libDaisy/src/hid/usb_midi.h **** /** @brief USB Transport for MIDI 
  12:../../libDaisy/src/hid/usb_midi.h ****  *  @ingroup midi
  13:../../libDaisy/src/hid/usb_midi.h ****  */
  14:../../libDaisy/src/hid/usb_midi.h **** class MidiUsbTransport
  15:../../libDaisy/src/hid/usb_midi.h **** {
  16:../../libDaisy/src/hid/usb_midi.h ****   public:
  17:../../libDaisy/src/hid/usb_midi.h ****     // MidiUsbTransport() {}
  18:../../libDaisy/src/hid/usb_midi.h ****     ~MidiUsbTransport() {}
 133              		.loc 9 18 5 view .LVU21
 134              		.loc 9 18 5 is_stmt 0 view .LVU22
 135              	.LBE243:
 136              		.loc 8 85 21 view .LVU23
 137 0000 7047     		bx	lr
 138              		.cfi_endproc
 139              	.LFE5388:
 141              		.weak	_ZN5daisy11MidiHandlerINS_16MidiUsbTransportEED1Ev
 142              		.thumb_set _ZN5daisy11MidiHandlerINS_16MidiUsbTransportEED1Ev,_ZN5daisy11MidiHandlerINS_16MidiUsbT
 143 0002 00BF     		.section	.text._ZN7daisysp9DelayLineIfLj48000EED2Ev,"axG",%progbits,_ZN7daisysp9DelayLineIfLj48000
 144              		.align	1
 145              		.p2align 2,,3
 146              		.weak	_ZN7daisysp9DelayLineIfLj48000EED2Ev
 147              		.syntax unified
 148              		.thumb
 149              		.thumb_func
 150              		.fpu fpv5-d16
 152              	_ZN7daisysp9DelayLineIfLj48000EED2Ev:
 153              	.LVL3:
 154              	.LFB5391:
 155              		.file 10 "../../DaisySP/Source/Utility/delayline.h"
   1:../../DaisySP/Source/Utility/delayline.h **** #pragma once
   2:../../DaisySP/Source/Utility/delayline.h **** #ifndef DSY_DELAY_H
   3:../../DaisySP/Source/Utility/delayline.h **** #define DSY_DELAY_H
   4:../../DaisySP/Source/Utility/delayline.h **** #include <stdlib.h>
   5:../../DaisySP/Source/Utility/delayline.h **** #include <stdint.h>
   6:../../DaisySP/Source/Utility/delayline.h **** namespace daisysp
   7:../../DaisySP/Source/Utility/delayline.h **** {
   8:../../DaisySP/Source/Utility/delayline.h **** /** Simple Delay line.
   9:../../DaisySP/Source/Utility/delayline.h **** November 2019
  10:../../DaisySP/Source/Utility/delayline.h **** 
  11:../../DaisySP/Source/Utility/delayline.h **** Converted to Template December 2019
ARM GAS  C:\Users\jcjco\AppData\Local\Temp\cchBw9Ih.s 			page 13


  12:../../DaisySP/Source/Utility/delayline.h **** 
  13:../../DaisySP/Source/Utility/delayline.h **** declaration example: (1 second of floats)
  14:../../DaisySP/Source/Utility/delayline.h **** 
  15:../../DaisySP/Source/Utility/delayline.h **** DelayLine<float, SAMPLE_RATE> del;
  16:../../DaisySP/Source/Utility/delayline.h **** 
  17:../../DaisySP/Source/Utility/delayline.h **** By: shensley
  18:../../DaisySP/Source/Utility/delayline.h **** */
  19:../../DaisySP/Source/Utility/delayline.h **** template <typename T, size_t max_size>
  20:../../DaisySP/Source/Utility/delayline.h **** class DelayLine
  21:../../DaisySP/Source/Utility/delayline.h **** {
  22:../../DaisySP/Source/Utility/delayline.h ****   public:
  23:../../DaisySP/Source/Utility/delayline.h ****     DelayLine() {}
  24:../../DaisySP/Source/Utility/delayline.h ****     ~DelayLine() {}
 156              		.loc 10 24 5 is_stmt 1 view -0
 157              		.cfi_startproc
 158              		@ args = 0, pretend = 0, frame = 0
 159              		@ frame_needed = 0, uses_anonymous_args = 0
 160              		@ link register save eliminated.
 161              		.loc 10 24 19 is_stmt 0 view .LVU25
 162 0000 7047     		bx	lr
 163              		.cfi_endproc
 164              	.LFE5391:
 166              		.weak	_ZN7daisysp9DelayLineIfLj48000EED1Ev
 167              		.thumb_set _ZN7daisysp9DelayLineIfLj48000EED1Ev,_ZN7daisysp9DelayLineIfLj48000EED2Ev
 168              		.section	.text._Z13AudioCallbackPKfPfj,"ax",%progbits
 169              		.align	1
 170              		.p2align 2,,3
 171              		.global	_Z13AudioCallbackPKfPfj
 172              		.syntax unified
 173              		.thumb
 174              		.thumb_func
 175              		.fpu fpv5-d16
 177              	_Z13AudioCallbackPKfPfj:
 178              	.LVL4:
 179              	.LFB4792:
 180              		.file 11 "main.cpp"
   1:main.cpp      **** /*This is code modified by Jacob August Colburn based on the code created by those credited below,
   2:main.cpp      **** it seeks to make the midi implimentation more universal at the moment, or at the least deployed in 
   3:main.cpp      **** my nektar impact lx49 (non plus) can handle, readme has up to date info on the goings on of this sh
   4:main.cpp      **** /*
   5:main.cpp      **** 
   6:main.cpp      **** 
   7:main.cpp      **** /*
   8:main.cpp      **** This code is a modification of OscPocketD/VASynth, created by Staffan Melin, staffan.melin@oscillat
   9:main.cpp      **** It was later modified by (Steven @moonfriendsynth) to work with the Daisy Pod.
  10:main.cpp      **** I (Christopher @Nettech15) have modified it further to run on the Daisy Seed without the use of the
  11:main.cpp      **** Synth parameters are now controlled by a Miditech i2-61 midi keyboard.
  12:main.cpp      **** Feel free to copy, modify, and improve this code to match your equipment and sound requirements.
  13:main.cpp      **** */
  14:main.cpp      **** 
  15:main.cpp      **** #include "daisy_seed.h"
  16:main.cpp      **** #include "daisysp.h"
  17:main.cpp      **** 
  18:main.cpp      **** #include "main.h"
  19:main.cpp      **** #include "vasynth.h"
  20:main.cpp      **** 
  21:main.cpp      **** using namespace daisy;
ARM GAS  C:\Users\jcjco\AppData\Local\Temp\cchBw9Ih.s 			page 14


  22:main.cpp      **** using namespace daisysp;
  23:main.cpp      **** 
  24:main.cpp      **** // globals
  25:main.cpp      **** DaisySeed hardware;
  26:main.cpp      **** MidiUsbHandler midi;
  27:main.cpp      **** float sysSampleRate;
  28:main.cpp      **** float sysCallbackRate;
  29:main.cpp      **** extern uint8_t preset_max;
  30:main.cpp      **** extern VASynthSetting preset_setting[PRESET_MAX];
  31:main.cpp      **** 
  32:main.cpp      **** uint8_t param_;
  33:main.cpp      **** float pitch_bend = 1.0f;
  34:main.cpp      **** float master_tune = 0.0f;
  35:main.cpp      **** 
  36:main.cpp      **** // sound
  37:main.cpp      **** VASynth vasynth;
  38:main.cpp      **** uint8_t gPlay = PLAY_ON;
  39:main.cpp      **** 
  40:main.cpp      **** // fx
  41:main.cpp      **** DelayLine<float, DELAY_MAX> DSY_SDRAM_BSS delay_;
  42:main.cpp      **** 
  43:main.cpp      **** // sequencer
  44:main.cpp      **** void SequencerPlay(uint16_t);
  45:main.cpp      **** void SequencerRecord(uint8_t, uint8_t);
  46:main.cpp      **** void SeqTimer_Config(void);
  47:main.cpp      **** void writeSram(uint32_t, uint8_t);
  48:main.cpp      **** uint8_t readSram(uint32_t);
  49:main.cpp      **** void writeSramWord(uint32_t, uint16_t);
  50:main.cpp      **** uint16_t readSramWord(uint32_t);
  51:main.cpp      **** 
  52:main.cpp      **** uint16_t seqclock = 0, seqtime = 0, seqmode = 0, seqmsg;
  53:main.cpp      **** uint16_t seqnote, seqvelocity;
  54:main.cpp      **** uint32_t seqmem = 0x00010000;
  55:main.cpp      **** 
  56:main.cpp      **** // audio callback
  57:main.cpp      **** 
  58:main.cpp      **** void AudioCallback(AudioHandle::InterleavingInputBuffer  in,
  59:main.cpp      ****                    AudioHandle::InterleavingOutputBuffer out,
  60:main.cpp      ****                    size_t                                size)
  61:main.cpp      **** {	
 181              		.loc 11 61 1 is_stmt 1 view -0
 182              		.cfi_startproc
 183              		@ args = 0, pretend = 0, frame = 8
 184              		@ frame_needed = 0, uses_anonymous_args = 0
  62:main.cpp      **** 	float voice_left, voice_right;
 185              		.loc 11 62 2 view .LVU27
  63:main.cpp      **** 	
  64:main.cpp      **** 	for (size_t n = 0; n < size; n += 2)
 186              		.loc 11 64 2 view .LVU28
 187              	.LBB244:
 188              		.loc 11 64 23 view .LVU29
 189 0000 AAB3     		cbz	r2, .L16
 190              	.LBE244:
  61:main.cpp      **** 	float voice_left, voice_right;
 191              		.loc 11 61 1 is_stmt 0 view .LVU30
 192 0002 2DE9F041 		push	{r4, r5, r6, r7, r8, lr}
 193              		.cfi_def_cfa_offset 24
ARM GAS  C:\Users\jcjco\AppData\Local\Temp\cchBw9Ih.s 			page 15


 194              		.cfi_offset 4, -24
 195              		.cfi_offset 5, -20
 196              		.cfi_offset 6, -16
 197              		.cfi_offset 7, -12
 198              		.cfi_offset 8, -8
 199              		.cfi_offset 14, -4
 200 0006 1746     		mov	r7, r2
 201 0008 82B0     		sub	sp, sp, #8
 202              		.cfi_def_cfa_offset 32
 203 000a 0646     		mov	r6, r0
 204 000c 0C46     		mov	r4, r1
 205              	.LBB245:
 206              		.loc 11 64 14 view .LVU31
 207 000e 0025     		movs	r5, #0
 208 0010 DFF86080 		ldr	r8, .L20+4
 209 0014 07E0     		b	.L10
 210              	.LVL5:
 211              	.L8:
 212              		.loc 11 64 33 view .LVU32
 213 0016 0235     		adds	r5, r5, #2
 214              	.LVL6:
  65:main.cpp      **** 	{	
  66:main.cpp      **** 		if (gPlay == PLAY_ON)
  67:main.cpp      **** 		{			
  68:main.cpp      **** 			vasynth.Process(&voice_left, &voice_right);
  69:main.cpp      **** 			
  70:main.cpp      **** 			out[n] = voice_left + in[n];
  71:main.cpp      **** 			out[n + 1] = voice_right + in[n + 1];
  72:main.cpp      **** 		} 
  73:main.cpp      **** 		else 
  74:main.cpp      **** 		{
  75:main.cpp      **** 			out[n] = 0;
 215              		.loc 11 75 11 view .LVU33
 216 0018 2360     		str	r3, [r4]	@ float
  76:main.cpp      **** 			out[n + 1] = 0;		
 217              		.loc 11 76 4 is_stmt 1 view .LVU34
 218              		.loc 11 76 15 is_stmt 0 view .LVU35
 219 001a 6360     		str	r3, [r4, #4]	@ float
  64:main.cpp      **** 	{	
 220              		.loc 11 64 2 is_stmt 1 view .LVU36
 221              	.LVL7:
  64:main.cpp      **** 	{	
 222              		.loc 11 64 23 view .LVU37
 223 001c 0836     		adds	r6, r6, #8
 224 001e AF42     		cmp	r7, r5
 225 0020 04F10804 		add	r4, r4, #8
 226 0024 20D9     		bls	.L19
 227              	.LVL8:
 228              	.L10:
  66:main.cpp      **** 		{			
 229              		.loc 11 66 3 view .LVU38
  75:main.cpp      **** 			out[n + 1] = 0;		
 230              		.loc 11 75 4 view .LVU39
  66:main.cpp      **** 		{			
 231              		.loc 11 66 3 is_stmt 0 view .LVU40
 232 0026 98F80010 		ldrb	r1, [r8]	@ zero_extendqisi2
  75:main.cpp      **** 			out[n + 1] = 0;		
ARM GAS  C:\Users\jcjco\AppData\Local\Temp\cchBw9Ih.s 			page 16


 233              		.loc 11 75 11 view .LVU41
 234 002a 0023     		movs	r3, #0
  66:main.cpp      **** 		{			
 235              		.loc 11 66 3 view .LVU42
 236 002c 0129     		cmp	r1, #1
 237 002e F2D1     		bne	.L8
  68:main.cpp      **** 			
 238              		.loc 11 68 4 is_stmt 1 view .LVU43
  68:main.cpp      **** 			
 239              		.loc 11 68 19 is_stmt 0 view .LVU44
 240 0030 01AA     		add	r2, sp, #4
 241 0032 6946     		mov	r1, sp
 242 0034 0E48     		ldr	r0, .L20
  64:main.cpp      **** 	{	
 243              		.loc 11 64 33 view .LVU45
 244 0036 0235     		adds	r5, r5, #2
 245              	.LVL9:
  68:main.cpp      **** 			
 246              		.loc 11 68 19 view .LVU46
 247 0038 FFF7FEFF 		bl	_ZN7VASynth7ProcessEPfS0_
 248              	.LVL10:
  70:main.cpp      **** 			out[n + 1] = voice_right + in[n + 1];
 249              		.loc 11 70 4 is_stmt 1 view .LVU47
  70:main.cpp      **** 			out[n + 1] = voice_right + in[n + 1];
 250              		.loc 11 70 24 is_stmt 0 view .LVU48
 251 003c 96ED007A 		vldr.32	s14, [r6]
 252 0040 DDED007A 		vldr.32	s15, [sp]
  64:main.cpp      **** 	{	
 253              		.loc 11 64 23 view .LVU49
 254 0044 AF42     		cmp	r7, r5
  71:main.cpp      **** 		} 
 255              		.loc 11 71 29 view .LVU50
 256 0046 DDED016A 		vldr.32	s13, [sp, #4]
  64:main.cpp      **** 	{	
 257              		.loc 11 64 23 view .LVU51
 258 004a 06F10806 		add	r6, r6, #8
  70:main.cpp      **** 			out[n + 1] = voice_right + in[n + 1];
 259              		.loc 11 70 24 view .LVU52
 260 004e 37EE277A 		vadd.f32	s14, s14, s15
  64:main.cpp      **** 	{	
 261              		.loc 11 64 23 view .LVU53
 262 0052 04F10804 		add	r4, r4, #8
  70:main.cpp      **** 			out[n + 1] = voice_right + in[n + 1];
 263              		.loc 11 70 11 view .LVU54
 264 0056 04ED027A 		vstr.32	s14, [r4, #-8]
  71:main.cpp      **** 		} 
 265              		.loc 11 71 4 is_stmt 1 view .LVU55
  71:main.cpp      **** 		} 
 266              		.loc 11 71 29 is_stmt 0 view .LVU56
 267 005a 56ED017A 		vldr.32	s15, [r6, #-4]
 268 005e 77EEA67A 		vadd.f32	s15, s15, s13
  71:main.cpp      **** 		} 
 269              		.loc 11 71 15 view .LVU57
 270 0062 44ED017A 		vstr.32	s15, [r4, #-4]
  64:main.cpp      **** 	{	
 271              		.loc 11 64 2 is_stmt 1 view .LVU58
 272              	.LVL11:
ARM GAS  C:\Users\jcjco\AppData\Local\Temp\cchBw9Ih.s 			page 17


  64:main.cpp      **** 	{	
 273              		.loc 11 64 23 view .LVU59
 274 0066 DED8     		bhi	.L10
 275              	.L19:
  64:main.cpp      **** 	{	
 276              		.loc 11 64 23 is_stmt 0 view .LVU60
 277              	.LBE245:
  77:main.cpp      **** 		}		
  78:main.cpp      **** 	}
  79:main.cpp      **** }
 278              		.loc 11 79 1 view .LVU61
 279 0068 02B0     		add	sp, sp, #8
 280              		.cfi_def_cfa_offset 24
 281              		@ sp needed
 282 006a BDE8F081 		pop	{r4, r5, r6, r7, r8, pc}
 283              	.LVL12:
 284              	.L16:
 285              		.cfi_def_cfa_offset 0
 286              		.cfi_restore 4
 287              		.cfi_restore 5
 288              		.cfi_restore 6
 289              		.cfi_restore 7
 290              		.cfi_restore 8
 291              		.cfi_restore 14
 292              		.loc 11 79 1 view .LVU62
 293 006e 7047     		bx	lr
 294              	.L21:
 295              		.align	2
 296              	.L20:
 297 0070 00000000 		.word	.LANCHOR1
 298 0074 00000000 		.word	.LANCHOR0
 299              		.cfi_endproc
 300              	.LFE4792:
 302              		.section	.text._Z13SequencerPlayt.part.0,"ax",%progbits
 303              		.align	1
 304              		.p2align 2,,3
 305              		.syntax unified
 306              		.thumb
 307              		.thumb_func
 308              		.fpu fpv5-d16
 310              	_Z13SequencerPlayt.part.0:
 311              	.LVL13:
 312              	.LFB5394:
  80:main.cpp      **** 
  81:main.cpp      **** 
  82:main.cpp      **** // midi handler
  83:main.cpp      **** void HandleMidiMessage(MidiEvent m)
  84:main.cpp      **** {
  85:main.cpp      ****     switch(m.type)
  86:main.cpp      ****     {
  87:main.cpp      ****         case NoteOn:
  88:main.cpp      ****         {
  89:main.cpp      ****             NoteOnEvent p = m.AsNoteOn();
  90:main.cpp      ****             if ((vasynth.midi_channel_ == MIDI_CHANNEL_ALL) || (p.channel == vasynth.midi_channel_)
  91:main.cpp      **** 			{
  92:main.cpp      **** 				if(seqmode == 1)
  93:main.cpp      **** 				{
ARM GAS  C:\Users\jcjco\AppData\Local\Temp\cchBw9Ih.s 			page 18


  94:main.cpp      **** 					SequencerRecord((p.note | 0x80), p.velocity);
  95:main.cpp      **** 				}
  96:main.cpp      **** 				vasynth.NoteOn(p.note, p.velocity);
  97:main.cpp      **** 				hardware.SetLed(true);
  98:main.cpp      **** 			}
  99:main.cpp      **** 	        break;
 100:main.cpp      ****         }
 101:main.cpp      ****         case NoteOff:
 102:main.cpp      ****         {
 103:main.cpp      ****             NoteOnEvent p = m.AsNoteOn();
 104:main.cpp      ****             if ((vasynth.midi_channel_ == MIDI_CHANNEL_ALL) || (p.channel == vasynth.midi_channel_)
 105:main.cpp      **** 			{
 106:main.cpp      **** 				if(seqmode == 1)
 107:main.cpp      **** 				{
 108:main.cpp      **** 					SequencerRecord(p.note, 0);
 109:main.cpp      **** 				}
 110:main.cpp      **** 				vasynth.NoteOff(p.note);
 111:main.cpp      **** 				hardware.SetLed(false);
 112:main.cpp      **** 			}			
 113:main.cpp      **** 	        break;
 114:main.cpp      ****         } 
 115:main.cpp      **** 		case PitchBend:
 116:main.cpp      ****         {
 117:main.cpp      ****             PitchBendEvent p = m.AsPitchBend();
 118:main.cpp      ****             if ((vasynth.midi_channel_ == MIDI_CHANNEL_ALL) || (p.channel == vasynth.midi_channel_)
 119:main.cpp      **** 			{
 120:main.cpp      **** 				vasynth.PitchBend(p.value);
 121:main.cpp      **** 			}			
 122:main.cpp      **** 	        break;
 123:main.cpp      ****         } 
 124:main.cpp      ****         case ControlChange:
 125:main.cpp      ****         {
 126:main.cpp      ****             ControlChangeEvent p = m.AsControlChange();
 127:main.cpp      ****             switch(p.control_number)
 128:main.cpp      ****             {
 129:main.cpp      **** 				case 1: // Modulation Wheel
 130:main.cpp      **** 					vasynth.filter_cutoff_ = ((float)p.value / 127.0f) * FILTER_CUTOFF_MAX;
 131:main.cpp      ****                     vasynth.SetFilter();			
 132:main.cpp      **** 						 	break;	
 133:main.cpp      ****                     break;
 134:main.cpp      **** 				{
 135:main.cpp      **** 
 136:main.cpp      **** 						case 2:
 137:main.cpp      **** 						{
 138:main.cpp      **** 							switch(p.value >> 5)
 139:main.cpp      **** 							{
 140:main.cpp      **** 								case 0:
 141:main.cpp      **** 									vasynth.waveform_ = WAVE_TRI;
 142:main.cpp      **** 									break;
 143:main.cpp      **** 								case 1:
 144:main.cpp      **** 									vasynth.waveform_ = WAVE_SAW;
 145:main.cpp      **** 									break;
 146:main.cpp      **** 								case 2:
 147:main.cpp      **** 									vasynth.waveform_ = WAVE_SQUARE;
 148:main.cpp      **** 									break;
 149:main.cpp      **** 								case 3:
 150:main.cpp      **** 									vasynth.waveform_ = WAVE_POLYBLEP_SAW;
ARM GAS  C:\Users\jcjco\AppData\Local\Temp\cchBw9Ih.s 			page 19


 151:main.cpp      **** 									break;
 152:main.cpp      **** 							}
 153:main.cpp      **** 							vasynth.SetWaveform();
 154:main.cpp      **** 							break;
 155:main.cpp      **** 						}
 156:main.cpp      **** 						case 3:
 157:main.cpp      **** 						{
 158:main.cpp      **** 							switch(p.value >> 5)
 159:main.cpp      **** 							{
 160:main.cpp      **** 								case 0:
 161:main.cpp      **** 									vasynth.osc2_waveform_ = WAVE_TRI;
 162:main.cpp      **** 									break;
 163:main.cpp      **** 								case 1:
 164:main.cpp      **** 									vasynth.osc2_waveform_ = WAVE_SAW;
 165:main.cpp      **** 									break;
 166:main.cpp      **** 								case 2:
 167:main.cpp      **** 									vasynth.osc2_waveform_ = WAVE_SQUARE;
 168:main.cpp      **** 									break;
 169:main.cpp      **** 								case 3:
 170:main.cpp      **** 									vasynth.osc2_waveform_ = WAVE_POLYBLEP_SAW;
 171:main.cpp      **** 									break;
 172:main.cpp      **** 							}
 173:main.cpp      **** 							vasynth.SetWaveform();
 174:main.cpp      **** 							break;
 175:main.cpp      **** 						}
 176:main.cpp      **** 
 177:main.cpp      **** 						case 4:
 178:main.cpp      **** 						{
 179:main.cpp      **** 							vasynth.osc_mix_ = ((float)p.value / 127.0f);
 180:main.cpp      **** 							break;
 181:main.cpp      **** 						}
 182:main.cpp      **** 						case 5:
 183:main.cpp      **** 						{
 184:main.cpp      **** 							vasynth.osc2_detune_ = ((float)p.value / 255.0f);
 185:main.cpp      **** 							break;
 186:main.cpp      **** 						}
 187:main.cpp      **** 						case 6:
 188:main.cpp      **** 						{
 189:main.cpp      **** 							vasynth.osc2_transpose_ = (1.0f + ((float)p.value / 127.0f));
 190:main.cpp      **** 							break;
 191:main.cpp      **** 						}
 192:main.cpp      **** 						case 7:
 193:main.cpp      **** 						{
 194:main.cpp      **** 							vasynth.eg_f_attack_ = ((float)p.value / 127.0f);
 195:main.cpp      **** 							vasynth.SetEG();
 196:main.cpp      **** 							break;
 197:main.cpp      **** 						}						
 198:main.cpp      **** 
 199:main.cpp      **** 						case 8:
 200:main.cpp      **** 						{
 201:main.cpp      **** 							vasynth.eg_f_decay_ = ((float)p.value / 127.0f);
 202:main.cpp      **** 							vasynth.SetEG();
 203:main.cpp      **** 							break;
 204:main.cpp      **** 						}
 205:main.cpp      **** 						case 9:	
 206:main.cpp      **** 							{
 207:main.cpp      **** 							vasynth.eg_f_sustain_ = ((float)p.value / 127.0f);
ARM GAS  C:\Users\jcjco\AppData\Local\Temp\cchBw9Ih.s 			page 20


 208:main.cpp      **** 							vasynth.SetEG();
 209:main.cpp      **** 							break;
 210:main.cpp      **** 						}
 211:main.cpp      **** 
 212:main.cpp      **** 						case 10:
 213:main.cpp      **** 						{
 214:main.cpp      **** 							vasynth.eg_f_release_ = ((float)p.value / 127.0f);
 215:main.cpp      **** 							vasynth.SetEG();
 216:main.cpp      **** 							break;
 217:main.cpp      **** 						}
 218:main.cpp      **** 						case 11:
 219:main.cpp      **** 						{
 220:main.cpp      **** 							vasynth.eg_a_attack_ = ((float)p.value / 127.0f);
 221:main.cpp      **** 							vasynth.SetEG();
 222:main.cpp      **** 							break;
 223:main.cpp      **** 						}
 224:main.cpp      **** 
 225:main.cpp      **** 
 226:main.cpp      **** 						case 12:
 227:main.cpp      **** 						{
 228:main.cpp      **** 							vasynth.eg_a_decay_ = ((float)p.value / 127.0f);
 229:main.cpp      **** 							vasynth.SetEG();
 230:main.cpp      **** 							break;
 231:main.cpp      **** 						}
 232:main.cpp      **** 						case 13:
 233:main.cpp      **** 						{
 234:main.cpp      **** 							vasynth.eg_a_sustain_ = ((float)p.value / 127.0f);
 235:main.cpp      **** 							vasynth.SetEG();
 236:main.cpp      **** 							break;
 237:main.cpp      **** 						}
 238:main.cpp      **** 						case 14:
 239:main.cpp      **** 						{
 240:main.cpp      **** 							vasynth.eg_a_release_ = ((float)p.value / 127.0f);
 241:main.cpp      **** 							vasynth.SetEG();
 242:main.cpp      **** 							break;
 243:main.cpp      **** 						}
 244:main.cpp      **** 					
 245:main.cpp      **** 						case 15:
 246:main.cpp      **** 						{
 247:main.cpp      **** 							vasynth.vcf_kbd_follow_= ((float)p.value / 127.0f);
 248:main.cpp      **** 							break;
 249:main.cpp      **** 						}
 250:main.cpp      **** 						case 16:
 251:main.cpp      **** 						{
 252:main.cpp      **** 							vasynth.env_kbd_follow_ = ((float)p.value / 127.0f);
 253:main.cpp      **** 							break;
 254:main.cpp      **** 						}
 255:main.cpp      **** 					case 17:
 256:main.cpp      **** 						{
 257:main.cpp      **** 							vasynth.filter_res_ = ((float)p.value / 127.0f);
 258:main.cpp      ****                     		vasynth.SetFilter();
 259:main.cpp      **** 							break;
 260:main.cpp      **** 						}
 261:main.cpp      **** 						case 18:
 262:main.cpp      **** 						{			
 263:main.cpp      **** 							vasynth.filter_cutoff_ = ((float)p.value / 127.0f) * FILTER_CUTOFF_MAX;
 264:main.cpp      ****                		  	   vasynth.SetFilter();			
ARM GAS  C:\Users\jcjco\AppData\Local\Temp\cchBw9Ih.s 			page 21


 265:main.cpp      **** 					 	break;
 266:main.cpp      **** 						}
 267:main.cpp      **** 
 268:main.cpp      **** 						case 19:
 269:main.cpp      **** 						{
 270:main.cpp      **** 							vasynth.vcavcflfo_freq_ = ((float)p.value / 127.0f);
 271:main.cpp      **** 							vasynth.SetVCAVCFLFO();
 272:main.cpp      **** 							break;
 273:main.cpp      **** 						}
 274:main.cpp      **** 						case 20:
 275:main.cpp      **** 						{
 276:main.cpp      **** 							vasynth.vcavcflfo_amp_ = ((float)p.value / 127.0f);
 277:main.cpp      **** 							vasynth.SetVCAVCFLFO();
 278:main.cpp      **** 							break;
 279:main.cpp      **** 						}
 280:main.cpp      **** 						case 21:
 281:main.cpp      **** 						{
 282:main.cpp      **** 							switch(p.value >> 5)
 283:main.cpp      **** 							{
 284:main.cpp      **** 								case 0:
 285:main.cpp      **** 									vasynth.vcavcflfo_waveform_ = WAVE_TRI;
 286:main.cpp      **** 									break;
 287:main.cpp      **** 								case 1:
 288:main.cpp      **** 									vasynth.vcavcflfo_waveform_ = WAVE_SAW;
 289:main.cpp      **** 									break;
 290:main.cpp      **** 								case 2:
 291:main.cpp      **** 									vasynth.vcavcflfo_waveform_ = WAVE_SQUARE;
 292:main.cpp      **** 									break;
 293:main.cpp      **** 								case 3:
 294:main.cpp      **** 									vasynth.vcavcflfo_waveform_ = WAVE_POLYBLEP_SAW;
 295:main.cpp      **** 									break;
 296:main.cpp      **** 							}
 297:main.cpp      **** 								vasynth.SetVCAVCFLFO();
 298:main.cpp      **** 								break;
 299:main.cpp      **** 						}
 300:main.cpp      **** 						case 22:
 301:main.cpp      **** 						{
 302:main.cpp      **** 							// Sequencer Mode Record
 303:main.cpp      **** 							seqmode = 1;
 304:main.cpp      **** 							seqclock = 0;
 305:main.cpp      **** 							break;
 306:main.cpp      **** 						}
 307:main.cpp      **** 						case 23:
 308:main.cpp      **** 						{
 309:main.cpp      **** 							// Sequencer Mode Record End
 310:main.cpp      **** 							seqmode = 2;
 311:main.cpp      **** 							// Place a time-stamp and stop marker at the current position and stop the sequencer
 312:main.cpp      **** 							writeSramWord(seqmem, seqclock);
 313:main.cpp      **** 							seqmem++;
 314:main.cpp      **** 							seqmem++;
 315:main.cpp      **** 							writeSramWord(seqmem, 0xFFFF);
 316:main.cpp      **** 							seqmode = 0;
 317:main.cpp      **** 							seqclock = 0;
 318:main.cpp      **** 							seqmem = 0x00010000;
 319:main.cpp      **** 							break;
 320:main.cpp      **** 						}
 321:main.cpp      **** 						case 24:
ARM GAS  C:\Users\jcjco\AppData\Local\Temp\cchBw9Ih.s 			page 22


 322:main.cpp      **** 						{
 323:main.cpp      **** 							// Sequencer Mode Stop
 324:main.cpp      **** 							seqmode = 0;
 325:main.cpp      **** 							seqclock = 0;
 326:main.cpp      **** 							seqmem = 0x00010000;
 327:main.cpp      **** 							break;
 328:main.cpp      **** 						}
 329:main.cpp      **** 						case 25:
 330:main.cpp      **** 						{
 331:main.cpp      **** 							// Sequencer Mode Play
 332:main.cpp      **** 							seqmode = 3;
 333:main.cpp      **** 							seqclock = 0;
 334:main.cpp      **** 							seqmem = 0x00010000;
 335:main.cpp      **** 							break;
 336:main.cpp      **** 						}
 337:main.cpp      **** 				
 338:main.cpp      **** 					}
 339:main.cpp      **** 				}	
 340:main.cpp      **** 
 341:main.cpp      **** 
 342:main.cpp      **** 		}
 343:main.cpp      **** 		default: break;
 344:main.cpp      **** 	}
 345:main.cpp      **** }
 346:main.cpp      **** 
 347:main.cpp      **** void SequencerPlay(uint16_t modenum)
 313              		.loc 11 347 6 is_stmt 1 view -0
 314              		.cfi_startproc
 315              		@ args = 0, pretend = 0, frame = 0
 316              		@ frame_needed = 0, uses_anonymous_args = 0
 348:main.cpp      **** {
 349:main.cpp      **** 	if(modenum == 0)
 350:main.cpp      **** 	{
 351:main.cpp      **** 		seqclock = 0;
 352:main.cpp      **** 		seqmem = 0x00010000;
 353:main.cpp      **** 		return;
 354:main.cpp      **** 	}
 355:main.cpp      **** 	
 356:main.cpp      **** 	if(modenum == 3)
 317              		.loc 11 356 2 view .LVU64
 318 0000 0328     		cmp	r0, #3
 347:main.cpp      **** {
 319              		.loc 11 347 6 is_stmt 0 view .LVU65
 320 0002 2DE9F84F 		push	{r3, r4, r5, r6, r7, r8, r9, r10, fp, lr}
 321              		.cfi_def_cfa_offset 40
 322              		.cfi_offset 3, -40
 323              		.cfi_offset 4, -36
 324              		.cfi_offset 5, -32
 325              		.cfi_offset 6, -28
 326              		.cfi_offset 7, -24
 327              		.cfi_offset 8, -20
 328              		.cfi_offset 9, -16
 329              		.cfi_offset 10, -12
 330              		.cfi_offset 11, -8
 331              		.cfi_offset 14, -4
 332              		.loc 11 356 2 view .LVU66
 333 0006 08D0     		beq	.L31
ARM GAS  C:\Users\jcjco\AppData\Local\Temp\cchBw9Ih.s 			page 23


 357:main.cpp      **** 	{
 358:main.cpp      **** 		/* Read the time-stamp from SRAM and compare to seqclock*/
 359:main.cpp      **** 		seqtime = readSramWord(seqmem);
 360:main.cpp      **** 		
 361:main.cpp      **** 		while(seqtime == seqclock)
 362:main.cpp      **** 		{
 363:main.cpp      **** 			/* Move pointer to note data */
 364:main.cpp      **** 			seqmem++;
 365:main.cpp      **** 			seqmem++;
 366:main.cpp      **** 			
 367:main.cpp      **** 			/* Read the note from SRAM */
 368:main.cpp      **** 			seqnote = readSram(seqmem);
 369:main.cpp      **** 			seqmsg = seqnote & 0x80;
 370:main.cpp      **** 			seqnote = seqnote & 0x7F;
 371:main.cpp      **** 			seqmem++;
 372:main.cpp      **** 		
 373:main.cpp      **** 			/* Read the velocity from SRAM */
 374:main.cpp      **** 			seqvelocity = readSram(seqmem);
 375:main.cpp      **** 			seqmem++;
 376:main.cpp      **** 			
 377:main.cpp      **** 			if(seqvelocity == 0xFF)
 378:main.cpp      **** 			{
 379:main.cpp      **** 				/* End of sequence reached, reset the position to the beginning and restart */
 380:main.cpp      **** 				seqclock = 0;
 381:main.cpp      **** 				seqmem = 0x00010000;
 382:main.cpp      **** 				return;
 383:main.cpp      **** 			}
 384:main.cpp      **** 			
 385:main.cpp      **** 			if(seqmsg)
 386:main.cpp      **** 			{
 387:main.cpp      **** 				/* Play the note */
 388:main.cpp      **** 				vasynth.NoteOn(seqnote, seqvelocity);
 389:main.cpp      **** 			}
 390:main.cpp      **** 			else
 391:main.cpp      **** 			{
 392:main.cpp      **** 				/* Stop the note */
 393:main.cpp      **** 				vasynth.NoteOff(seqnote);
 394:main.cpp      **** 			}
 395:main.cpp      **** 			
 396:main.cpp      **** 			/* Check to see if there are other events at the current sequencer clock */
 397:main.cpp      **** 			seqtime = readSramWord(seqmem);
 398:main.cpp      **** 		}
 399:main.cpp      **** 	}
 400:main.cpp      **** 	
 401:main.cpp      **** 	/* All events processed so increment the sequencer clock */
 402:main.cpp      **** 	seqclock++;
 334              		.loc 11 402 10 view .LVU67
 335 0008 DFF8BC90 		ldr	r9, .L34+24
 336 000c B9F80010 		ldrh	r1, [r9]
 337              	.LVL14:
 338              	.L24:
 339              		.loc 11 402 2 is_stmt 1 view .LVU68
 340              		.loc 11 402 10 is_stmt 0 view .LVU69
 341 0010 0131     		adds	r1, r1, #1
 342 0012 A9F80010 		strh	r1, [r9]	@ movhi
 403:main.cpp      **** }
 343              		.loc 11 403 1 view .LVU70
ARM GAS  C:\Users\jcjco\AppData\Local\Temp\cchBw9Ih.s 			page 24


 344 0016 BDE8F88F 		pop	{r3, r4, r5, r6, r7, r8, r9, r10, fp, pc}
 345              	.LVL15:
 346              	.L31:
 359:main.cpp      **** 		
 347              		.loc 11 359 3 is_stmt 1 view .LVU71
 359:main.cpp      **** 		
 348              		.loc 11 359 25 is_stmt 0 view .LVU72
 349 001a 254C     		ldr	r4, .L34
 361:main.cpp      **** 		{
 350              		.loc 11 361 17 view .LVU73
 351 001c DFF8A890 		ldr	r9, .L34+24
 359:main.cpp      **** 		
 352              		.loc 11 359 25 view .LVU74
 353 0020 2368     		ldr	r3, [r4]
 354              	.LVL16:
 355              	.LBB246:
 356              	.LBI246:
 404:main.cpp      **** 
 405:main.cpp      **** void SequencerRecord(uint8_t recnote, uint8_t recvelocity)
 406:main.cpp      **** {
 407:main.cpp      **** 	/* Write the timestamp to SRAM */
 408:main.cpp      **** 	writeSramWord(seqmem, seqclock);
 409:main.cpp      **** 	seqmem++;
 410:main.cpp      **** 	seqmem++;
 411:main.cpp      **** 		
 412:main.cpp      **** 	/* Write the note to SRAM */
 413:main.cpp      **** 	writeSram(seqmem, recnote);
 414:main.cpp      **** 	seqmem++;
 415:main.cpp      **** 		
 416:main.cpp      **** 	/* Write the velocity to SRAM */
 417:main.cpp      **** 	writeSram(seqmem, recvelocity);
 418:main.cpp      **** 	seqmem++;
 419:main.cpp      **** 	
 420:main.cpp      **** 	if(seqmem > 0x7FFF8)
 421:main.cpp      **** 	{
 422:main.cpp      **** 		/* There is no more memory left for the sequencer to use */
 423:main.cpp      **** 		/* Place a timestamp and stop marker at the current position and select stop mode */
 424:main.cpp      **** 		writeSramWord(seqmem, seqclock);
 425:main.cpp      **** 		seqmem++;
 426:main.cpp      **** 		seqmem++;
 427:main.cpp      **** 		writeSramWord(seqmem, 0xFFFF);
 428:main.cpp      **** 		seqmode = 0;
 429:main.cpp      **** 		seqclock = 0;
 430:main.cpp      **** 		seqmem = 0x00010000;
 431:main.cpp      **** 	}
 432:main.cpp      **** 	}
 433:main.cpp      **** 
 434:main.cpp      **** /* SRAM memory handling routines */
 435:main.cpp      **** void writeSram(uint32_t l_addr, uint8_t l_data)
 436:main.cpp      **** {
 437:main.cpp      ****   /* Pointer write on specific location of backup SRAM */
 438:main.cpp      ****   *(volatile uint8_t *) (WRITE_READ_SRAM_ADDR + l_addr) = l_data;
 439:main.cpp      **** }
 440:main.cpp      **** 
 441:main.cpp      **** uint8_t readSram(uint32_t l_addr)
 442:main.cpp      **** {
 443:main.cpp      ****   uint8_t i_retval;
ARM GAS  C:\Users\jcjco\AppData\Local\Temp\cchBw9Ih.s 			page 25


 444:main.cpp      **** 	
 445:main.cpp      ****   /* Pointer write from specific location of backup SRAM */
 446:main.cpp      ****   i_retval =  *(volatile uint8_t *) (WRITE_READ_SRAM_ADDR + l_addr);
 447:main.cpp      **** 	
 448:main.cpp      ****   return i_retval;
 449:main.cpp      **** }
 450:main.cpp      **** 
 451:main.cpp      **** void writeSramWord(uint32_t l_addr_w, uint16_t l_data_w)
 452:main.cpp      **** {
 453:main.cpp      ****   /* Pointer write on specific location of backup SRAM */
 454:main.cpp      ****   *(volatile uint16_t *) (WRITE_READ_SRAM_ADDR + l_addr_w) = l_data_w;
 455:main.cpp      **** }
 456:main.cpp      **** 
 457:main.cpp      **** uint16_t readSramWord(uint32_t l_addr_w)
 357              		.loc 11 457 10 is_stmt 1 view .LVU75
 358              	.LBB247:
 458:main.cpp      **** {
 459:main.cpp      ****   uint16_t i_retval_w;
 359              		.loc 11 459 3 view .LVU76
 460:main.cpp      **** 	
 461:main.cpp      ****   /* Pointer write from specific location of backup SRAM */
 462:main.cpp      ****   i_retval_w =  *(volatile uint16_t *) (WRITE_READ_SRAM_ADDR + l_addr_w);
 360              		.loc 11 462 3 view .LVU77
 361              	.LBE247:
 362              	.LBE246:
 361:main.cpp      **** 		{
 363              		.loc 11 361 17 is_stmt 0 view .LVU78
 364 0022 B9F80010 		ldrh	r1, [r9]
 365              	.LBB250:
 366              	.LBB248:
 367              		.loc 11 462 62 view .LVU79
 368 0026 03F10052 		add	r2, r3, #536870912
 369              	.LBE248:
 370              	.LBE250:
 359:main.cpp      **** 		
 371              		.loc 11 359 11 view .LVU80
 372 002a 224D     		ldr	r5, .L34+4
 373              	.LBB251:
 374              	.LBB249:
 375              		.loc 11 462 14 view .LVU81
 376 002c 1288     		ldrh	r2, [r2]
 377 002e 92B2     		uxth	r2, r2
 378              	.LVL17:
 463:main.cpp      **** 	
 464:main.cpp      ****   return i_retval_w;
 379              		.loc 11 464 3 is_stmt 1 view .LVU82
 380              		.loc 11 464 3 is_stmt 0 view .LVU83
 381              	.LBE249:
 382              	.LBE251:
 361:main.cpp      **** 		{
 383              		.loc 11 361 17 view .LVU84
 384 0030 8A42     		cmp	r2, r1
 359:main.cpp      **** 		
 385              		.loc 11 359 11 view .LVU85
 386 0032 2A80     		strh	r2, [r5]	@ movhi
 361:main.cpp      **** 		{
 387              		.loc 11 361 3 is_stmt 1 view .LVU86
ARM GAS  C:\Users\jcjco\AppData\Local\Temp\cchBw9Ih.s 			page 26


 361:main.cpp      **** 		{
 388              		.loc 11 361 17 view .LVU87
 389 0034 ECD1     		bne	.L24
 390 0036 DFF89480 		ldr	r8, .L34+28
 391 003a 1F4F     		ldr	r7, .L34+8
 392 003c 1F4E     		ldr	r6, .L34+12
 393 003e 0BE0     		b	.L29
 394              	.LVL18:
 395              	.L33:
 388:main.cpp      **** 			}
 396              		.loc 11 388 19 is_stmt 0 view .LVU88
 397 0040 FFF7FEFF 		bl	_ZN7VASynth6NoteOnEhh
 398              	.LVL19:
 399              	.L28:
 397:main.cpp      **** 		}
 400              		.loc 11 397 4 is_stmt 1 view .LVU89
 397:main.cpp      **** 		}
 401              		.loc 11 397 26 is_stmt 0 view .LVU90
 402 0044 2368     		ldr	r3, [r4]
 403              	.LVL20:
 404              	.LBB252:
 405              	.LBI252:
 457:main.cpp      **** {
 406              		.loc 11 457 10 is_stmt 1 view .LVU91
 407              	.LBB253:
 459:main.cpp      **** 	
 408              		.loc 11 459 3 view .LVU92
 462:main.cpp      **** 	
 409              		.loc 11 462 3 view .LVU93
 410              	.LBE253:
 411              	.LBE252:
 361:main.cpp      **** 		{
 412              		.loc 11 361 17 is_stmt 0 view .LVU94
 413 0046 B9F80010 		ldrh	r1, [r9]
 414              	.LBB255:
 415              	.LBB254:
 462:main.cpp      **** 	
 416              		.loc 11 462 62 view .LVU95
 417 004a 03F10052 		add	r2, r3, #536870912
 462:main.cpp      **** 	
 418              		.loc 11 462 14 view .LVU96
 419 004e 1288     		ldrh	r2, [r2]
 420 0050 92B2     		uxth	r2, r2
 421              	.LVL21:
 422              		.loc 11 464 3 is_stmt 1 view .LVU97
 423              		.loc 11 464 3 is_stmt 0 view .LVU98
 424              	.LBE254:
 425              	.LBE255:
 361:main.cpp      **** 		{
 426              		.loc 11 361 17 view .LVU99
 427 0052 9142     		cmp	r1, r2
 397:main.cpp      **** 		}
 428              		.loc 11 397 12 view .LVU100
 429 0054 2A80     		strh	r2, [r5]	@ movhi
 361:main.cpp      **** 		{
 430              		.loc 11 361 3 is_stmt 1 view .LVU101
 361:main.cpp      **** 		{
ARM GAS  C:\Users\jcjco\AppData\Local\Temp\cchBw9Ih.s 			page 27


 431              		.loc 11 361 17 view .LVU102
 432 0056 DBD1     		bne	.L24
 433              	.L29:
 364:main.cpp      **** 			seqmem++;
 434              		.loc 11 364 4 view .LVU103
 365:main.cpp      **** 			
 435              		.loc 11 365 4 view .LVU104
 385:main.cpp      **** 			{
 436              		.loc 11 385 4 view .LVU105
 388:main.cpp      **** 			}
 437              		.loc 11 388 5 view .LVU106
 393:main.cpp      **** 			}
 438              		.loc 11 393 5 view .LVU107
 365:main.cpp      **** 			
 439              		.loc 11 365 10 is_stmt 0 view .LVU108
 440 0058 981C     		adds	r0, r3, #2
 441              	.LBB256:
 442              	.LBB257:
 446:main.cpp      **** 	
 443              		.loc 11 446 59 view .LVU109
 444 005a 194A     		ldr	r2, .L34+16
 445              	.LBE257:
 446              	.LBE256:
 371:main.cpp      **** 		
 447              		.loc 11 371 10 view .LVU110
 448 005c D91C     		adds	r1, r3, #3
 449              	.LBB260:
 450              	.LBB261:
 446:main.cpp      **** 	
 451              		.loc 11 446 59 view .LVU111
 452 005e DFF870A0 		ldr	r10, .L34+32
 453              	.LBE261:
 454              	.LBE260:
 365:main.cpp      **** 			
 455              		.loc 11 365 10 view .LVU112
 456 0062 2060     		str	r0, [r4]
 368:main.cpp      **** 			seqmsg = seqnote & 0x80;
 457              		.loc 11 368 4 is_stmt 1 view .LVU113
 458              	.LVL22:
 459              	.LBB264:
 460              	.LBI256:
 441:main.cpp      **** {
 461              		.loc 11 441 9 view .LVU114
 462              	.LBB258:
 443:main.cpp      **** 	
 463              		.loc 11 443 3 view .LVU115
 446:main.cpp      **** 	
 464              		.loc 11 446 3 view .LVU116
 446:main.cpp      **** 	
 465              		.loc 11 446 12 is_stmt 0 view .LVU117
 466 0064 9A5C     		ldrb	r2, [r3, r2]	@ zero_extendqisi2
 467              	.LBE258:
 468              	.LBE264:
 371:main.cpp      **** 		
 469              		.loc 11 371 10 view .LVU118
 470 0066 2160     		str	r1, [r4]
 375:main.cpp      **** 			
ARM GAS  C:\Users\jcjco\AppData\Local\Temp\cchBw9Ih.s 			page 28


 471              		.loc 11 375 10 view .LVU119
 472 0068 191D     		adds	r1, r3, #4
 473 006a 02F07F0C 		and	ip, r2, #127
 369:main.cpp      **** 			seqnote = seqnote & 0x7F;
 474              		.loc 11 369 21 view .LVU120
 475 006e 02F0800B 		and	fp, r2, #128
 476              	.LBB265:
 477              	.LBB259:
 446:main.cpp      **** 	
 478              		.loc 11 446 12 view .LVU121
 479 0072 5FFA82FE 		uxtb	lr, r2
 480              	.LVL23:
 448:main.cpp      **** }
 481              		.loc 11 448 3 is_stmt 1 view .LVU122
 448:main.cpp      **** }
 482              		.loc 11 448 3 is_stmt 0 view .LVU123
 483              	.LBE259:
 484              	.LBE265:
 369:main.cpp      **** 			seqnote = seqnote & 0x7F;
 485              		.loc 11 369 4 is_stmt 1 view .LVU124
 388:main.cpp      **** 			}
 486              		.loc 11 388 19 is_stmt 0 view .LVU125
 487 0076 1348     		ldr	r0, .L34+20
 369:main.cpp      **** 			seqnote = seqnote & 0x7F;
 488              		.loc 11 369 21 view .LVU126
 489 0078 A8F800B0 		strh	fp, [r8]	@ movhi
 370:main.cpp      **** 			seqmem++;
 490              		.loc 11 370 4 is_stmt 1 view .LVU127
 370:main.cpp      **** 			seqmem++;
 491              		.loc 11 370 22 is_stmt 0 view .LVU128
 492 007c A7F800C0 		strh	ip, [r7]	@ movhi
 371:main.cpp      **** 		
 493              		.loc 11 371 4 is_stmt 1 view .LVU129
 374:main.cpp      **** 			seqmem++;
 494              		.loc 11 374 4 view .LVU130
 495              	.LVL24:
 496              	.LBB266:
 497              	.LBI260:
 441:main.cpp      **** {
 498              		.loc 11 441 9 view .LVU131
 499              	.LBB262:
 443:main.cpp      **** 	
 500              		.loc 11 443 3 view .LVU132
 446:main.cpp      **** 	
 501              		.loc 11 446 3 view .LVU133
 446:main.cpp      **** 	
 502              		.loc 11 446 12 is_stmt 0 view .LVU134
 503 0080 13F80A20 		ldrb	r2, [r3, r10]	@ zero_extendqisi2
 504              	.LBE262:
 505              	.LBE266:
 375:main.cpp      **** 			
 506              		.loc 11 375 10 view .LVU135
 507 0084 2160     		str	r1, [r4]
 508              	.LVL25:
 388:main.cpp      **** 			}
 509              		.loc 11 388 19 view .LVU136
 510 0086 6146     		mov	r1, ip
ARM GAS  C:\Users\jcjco\AppData\Local\Temp\cchBw9Ih.s 			page 29


 374:main.cpp      **** 			seqmem++;
 511              		.loc 11 374 26 view .LVU137
 512 0088 1346     		mov	r3, r2
 513              	.LVL26:
 514              	.LBB267:
 515              	.LBB263:
 446:main.cpp      **** 	
 516              		.loc 11 446 12 view .LVU138
 517 008a D2B2     		uxtb	r2, r2
 518              	.LVL27:
 448:main.cpp      **** }
 519              		.loc 11 448 3 is_stmt 1 view .LVU139
 448:main.cpp      **** }
 520              		.loc 11 448 3 is_stmt 0 view .LVU140
 521              	.LBE263:
 522              	.LBE267:
 377:main.cpp      **** 			{
 523              		.loc 11 377 4 view .LVU141
 524 008c FF2B     		cmp	r3, #255
 374:main.cpp      **** 			seqmem++;
 525              		.loc 11 374 16 view .LVU142
 526 008e 3380     		strh	r3, [r6]	@ movhi
 375:main.cpp      **** 			
 527              		.loc 11 375 4 is_stmt 1 view .LVU143
 377:main.cpp      **** 			{
 528              		.loc 11 377 4 view .LVU144
 529 0090 06D0     		beq	.L32
 385:main.cpp      **** 			{
 530              		.loc 11 385 4 is_stmt 0 view .LVU145
 531 0092 1EF0800F 		tst	lr, #128
 532 0096 D3D1     		bne	.L33
 393:main.cpp      **** 			}
 533              		.loc 11 393 20 view .LVU146
 534 0098 0A48     		ldr	r0, .L34+20
 535 009a FFF7FEFF 		bl	_ZN7VASynth7NoteOffEh
 536              	.LVL28:
 537 009e D1E7     		b	.L28
 538              	.L32:
 380:main.cpp      **** 				seqmem = 0x00010000;
 539              		.loc 11 380 5 is_stmt 1 view .LVU147
 380:main.cpp      **** 				seqmem = 0x00010000;
 540              		.loc 11 380 14 is_stmt 0 view .LVU148
 541 00a0 0022     		movs	r2, #0
 381:main.cpp      **** 				return;
 542              		.loc 11 381 12 view .LVU149
 543 00a2 4FF48033 		mov	r3, #65536
 380:main.cpp      **** 				seqmem = 0x00010000;
 544              		.loc 11 380 14 view .LVU150
 545 00a6 A9F80020 		strh	r2, [r9]	@ movhi
 381:main.cpp      **** 				return;
 546              		.loc 11 381 5 is_stmt 1 view .LVU151
 381:main.cpp      **** 				return;
 547              		.loc 11 381 12 is_stmt 0 view .LVU152
 548 00aa 2360     		str	r3, [r4]
 382:main.cpp      **** 			}
 549              		.loc 11 382 5 is_stmt 1 view .LVU153
 403:main.cpp      **** 
ARM GAS  C:\Users\jcjco\AppData\Local\Temp\cchBw9Ih.s 			page 30


 550              		.loc 11 403 1 is_stmt 0 view .LVU154
 551 00ac BDE8F88F 		pop	{r3, r4, r5, r6, r7, r8, r9, r10, fp, pc}
 552              	.L35:
 553              		.align	2
 554              	.L34:
 555 00b0 00000000 		.word	.LANCHOR2
 556 00b4 00000000 		.word	.LANCHOR3
 557 00b8 00000000 		.word	.LANCHOR6
 558 00bc 00000000 		.word	.LANCHOR7
 559 00c0 02000020 		.word	536870914
 560 00c4 00000000 		.word	.LANCHOR1
 561 00c8 00000000 		.word	.LANCHOR4
 562 00cc 00000000 		.word	.LANCHOR5
 563 00d0 03000020 		.word	536870915
 564              		.cfi_endproc
 565              	.LFE5394:
 567              		.section	.text._Z8CallbackPv,"ax",%progbits
 568              		.align	1
 569              		.p2align 2,,3
 570              		.global	_Z8CallbackPv
 571              		.syntax unified
 572              		.thumb
 573              		.thumb_func
 574              		.fpu fpv5-d16
 576              	_Z8CallbackPv:
 577              	.LVL29:
 578              	.LFB4800:
 465:main.cpp      **** }
 466:main.cpp      **** 
 467:main.cpp      **** /* Process sequencer requests */
 468:main.cpp      **** void Callback(void* data)
 469:main.cpp      **** {
 579              		.loc 11 469 1 is_stmt 1 view -0
 580              		.cfi_startproc
 581              		@ args = 0, pretend = 0, frame = 0
 582              		@ frame_needed = 0, uses_anonymous_args = 0
 583              		@ link register save eliminated.
 470:main.cpp      **** 	SequencerPlay(seqmode);
 584              		.loc 11 470 2 view .LVU156
 585              		.loc 11 470 15 is_stmt 0 view .LVU157
 586 0000 054B     		ldr	r3, .L41
 587 0002 1888     		ldrh	r0, [r3]
 588              	.LVL30:
 589              	.LBB270:
 590              	.LBI270:
 347:main.cpp      **** {
 591              		.loc 11 347 6 is_stmt 1 view .LVU158
 592              	.LBB271:
 349:main.cpp      **** 	{
 593              		.loc 11 349 2 view .LVU159
 594 0004 08B1     		cbz	r0, .L40
 595 0006 FFF7FEBF 		b	_Z13SequencerPlayt.part.0
 596              	.LVL31:
 597              	.L40:
 351:main.cpp      **** 		seqmem = 0x00010000;
 598              		.loc 11 351 3 view .LVU160
 351:main.cpp      **** 		seqmem = 0x00010000;
ARM GAS  C:\Users\jcjco\AppData\Local\Temp\cchBw9Ih.s 			page 31


 599              		.loc 11 351 12 is_stmt 0 view .LVU161
 600 000a 0449     		ldr	r1, .L41+4
 352:main.cpp      **** 		return;
 601              		.loc 11 352 10 view .LVU162
 602 000c 4FF48032 		mov	r2, #65536
 603 0010 034B     		ldr	r3, .L41+8
 351:main.cpp      **** 		seqmem = 0x00010000;
 604              		.loc 11 351 12 view .LVU163
 605 0012 0880     		strh	r0, [r1]	@ movhi
 352:main.cpp      **** 		return;
 606              		.loc 11 352 3 is_stmt 1 view .LVU164
 352:main.cpp      **** 		return;
 607              		.loc 11 352 10 is_stmt 0 view .LVU165
 608 0014 1A60     		str	r2, [r3]
 353:main.cpp      **** 	}
 609              		.loc 11 353 3 is_stmt 1 view .LVU166
 610              	.LBE271:
 611              	.LBE270:
 471:main.cpp      **** }
 612              		.loc 11 471 1 is_stmt 0 view .LVU167
 613 0016 7047     		bx	lr
 614              	.L42:
 615              		.align	2
 616              	.L41:
 617 0018 00000000 		.word	.LANCHOR8
 618 001c 00000000 		.word	.LANCHOR4
 619 0020 00000000 		.word	.LANCHOR2
 620              		.cfi_endproc
 621              	.LFE4800:
 623              		.section	.text._ZN7VASynthC2Ev,"axG",%progbits,_ZN7VASynthC5Ev,comdat
 624              		.align	1
 625              		.p2align 2,,3
 626              		.weak	_ZN7VASynthC2Ev
 627              		.syntax unified
 628              		.thumb
 629              		.thumb_func
 630              		.fpu fpv5-d16
 632              	_ZN7VASynthC2Ev:
 633              	.LVL32:
 634              	.LFB4787:
  74:vasynth.h     ****     ~VASynth() {}
 635              		.loc 6 74 5 is_stmt 1 view -0
 636              		.cfi_startproc
 637              		@ args = 0, pretend = 0, frame = 0
 638              		@ frame_needed = 0, uses_anonymous_args = 0
 639              	.LBB292:
  74:vasynth.h     ****     ~VASynth() {}
 640              		.loc 6 74 15 view .LVU169
  74:vasynth.h     ****     ~VASynth() {}
 641              		.loc 6 74 15 view .LVU170
 642              	.LBB293:
 643              	.LBI293:
  15:../../DaisySP/Source/Synthesis/oscillator.h ****     ~Oscillator() {}
 644              		.loc 7 15 5 view .LVU171
  15:../../DaisySP/Source/Synthesis/oscillator.h ****     ~Oscillator() {}
 645              		.loc 7 15 5 is_stmt 0 view .LVU172
 646              	.LBE293:
ARM GAS  C:\Users\jcjco\AppData\Local\Temp\cchBw9Ih.s 			page 32


 647              	.LBB294:
 648              	.LBI294:
  15:../../DaisySP/Source/Synthesis/oscillator.h ****     ~Oscillator() {}
 649              		.loc 7 15 5 is_stmt 1 view .LVU173
  15:../../DaisySP/Source/Synthesis/oscillator.h ****     ~Oscillator() {}
 650              		.loc 7 15 5 is_stmt 0 view .LVU174
 651              	.LBE294:
 652              	.LBB295:
 653              	.LBI295:
  15:../../DaisySP/Source/Synthesis/oscillator.h ****     ~Oscillator() {}
 654              		.loc 7 15 5 is_stmt 1 view .LVU175
  15:../../DaisySP/Source/Synthesis/oscillator.h ****     ~Oscillator() {}
 655              		.loc 7 15 5 is_stmt 0 view .LVU176
 656              	.LBE295:
 657              	.LBB296:
 658              	.LBI296:
  15:../../DaisySP/Source/Synthesis/oscillator.h ****     ~Oscillator() {}
 659              		.loc 7 15 5 is_stmt 1 view .LVU177
  15:../../DaisySP/Source/Synthesis/oscillator.h ****     ~Oscillator() {}
 660              		.loc 7 15 5 is_stmt 0 view .LVU178
 661              	.LBE296:
  74:vasynth.h     ****     ~VASynth() {}
 662              		.loc 6 74 15 is_stmt 1 view .LVU179
 663              	.LBE292:
  74:vasynth.h     ****     ~VASynth() {}
 664              		.loc 6 74 5 is_stmt 0 view .LVU180
 665 0000 10B5     		push	{r4, lr}
 666              		.cfi_def_cfa_offset 8
 667              		.cfi_offset 4, -8
 668              		.cfi_offset 14, -4
 669 0002 00F2D443 		addw	r3, r0, #1236
 670 0006 00F25464 		addw	r4, r0, #1620
 671              	.L44:
 672              	.LVL33:
 673              	.LBB315:
 674              	.LBB297:
 675              	.LBI297:
 676              		.file 12 "../../DaisySP/Source/Control/adsr.h"
   1:../../DaisySP/Source/Control/adsr.h **** #pragma once
   2:../../DaisySP/Source/Control/adsr.h **** #ifndef DSY_ADSR_H
   3:../../DaisySP/Source/Control/adsr.h **** #define DSY_ADSR_H
   4:../../DaisySP/Source/Control/adsr.h **** 
   5:../../DaisySP/Source/Control/adsr.h **** #include <stdint.h>
   6:../../DaisySP/Source/Control/adsr.h **** #ifdef __cplusplus
   7:../../DaisySP/Source/Control/adsr.h **** 
   8:../../DaisySP/Source/Control/adsr.h **** namespace daisysp
   9:../../DaisySP/Source/Control/adsr.h **** {
  10:../../DaisySP/Source/Control/adsr.h **** /** Distinct stages that the phase of the envelope can be located in.
  11:../../DaisySP/Source/Control/adsr.h **** - IDLE   = located at phase location 0, and not currently running
  12:../../DaisySP/Source/Control/adsr.h **** - ATTACK  = First segment of envelope where phase moves from 0 to 1
  13:../../DaisySP/Source/Control/adsr.h **** - DECAY   = Second segment of envelope where phase moves from 1 to SUSTAIN value
  14:../../DaisySP/Source/Control/adsr.h **** - RELEASE =     Fourth segment of envelop where phase moves from SUSTAIN to 0
  15:../../DaisySP/Source/Control/adsr.h **** */
  16:../../DaisySP/Source/Control/adsr.h **** enum
  17:../../DaisySP/Source/Control/adsr.h **** {
  18:../../DaisySP/Source/Control/adsr.h ****     ADSR_SEG_IDLE    = 0,
  19:../../DaisySP/Source/Control/adsr.h ****     ADSR_SEG_ATTACK  = 1,
ARM GAS  C:\Users\jcjco\AppData\Local\Temp\cchBw9Ih.s 			page 33


  20:../../DaisySP/Source/Control/adsr.h ****     ADSR_SEG_DECAY   = 2,
  21:../../DaisySP/Source/Control/adsr.h ****     ADSR_SEG_RELEASE = 4
  22:../../DaisySP/Source/Control/adsr.h **** };
  23:../../DaisySP/Source/Control/adsr.h **** 
  24:../../DaisySP/Source/Control/adsr.h **** 
  25:../../DaisySP/Source/Control/adsr.h **** /** adsr envelope module
  26:../../DaisySP/Source/Control/adsr.h **** 
  27:../../DaisySP/Source/Control/adsr.h **** Original author(s) : Paul Batchelor
  28:../../DaisySP/Source/Control/adsr.h **** 
  29:../../DaisySP/Source/Control/adsr.h **** Ported from Soundpipe by Ben Sergentanis, May 2020
  30:../../DaisySP/Source/Control/adsr.h ****  
  31:../../DaisySP/Source/Control/adsr.h **** Remake by Steffan DIedrichsen, May 2021
  32:../../DaisySP/Source/Control/adsr.h **** */
  33:../../DaisySP/Source/Control/adsr.h **** class Adsr
  34:../../DaisySP/Source/Control/adsr.h **** {
  35:../../DaisySP/Source/Control/adsr.h ****   public:
  36:../../DaisySP/Source/Control/adsr.h ****     Adsr() {}
 677              		.loc 12 36 5 is_stmt 1 view .LVU181
 678              	.LBE297:
  74:vasynth.h     ****     ~VASynth() {}
 679              		.loc 6 74 15 is_stmt 0 view .LVU182
 680 000a 3033     		adds	r3, r3, #48
 681              	.LVL34:
 682              	.LBB300:
 683              	.LBB298:
 684              		.loc 12 36 12 view .LVU183
 685 000c 0022     		movs	r2, #0
 686 000e 2D49     		ldr	r1, .L51
 687 0010 4FF0000C 		mov	ip, #0
 688              	.LBE298:
 689              	.LBE300:
  74:vasynth.h     ****     ~VASynth() {}
 690              		.loc 6 74 15 view .LVU184
 691 0014 A342     		cmp	r3, r4
 692              	.LBB301:
 693              	.LBB299:
 694              		.loc 12 36 12 view .LVU185
 695 0016 43F8302C 		str	r2, [r3, #-48]	@ float
 696 001a 43F82C2C 		str	r2, [r3, #-44]	@ float
 697 001e 43F8281C 		str	r1, [r3, #-40]	@ float
 698 0022 43F8242C 		str	r2, [r3, #-36]	@ float
 699 0026 43F8201C 		str	r1, [r3, #-32]	@ float
 700 002a 43F81C1C 		str	r1, [r3, #-28]	@ float
 701 002e 43F8181C 		str	r1, [r3, #-24]	@ float
 702 0032 43F8142C 		str	r2, [r3, #-20]	@ float
 703 0036 43F8102C 		str	r2, [r3, #-16]	@ float
 704 003a 43F80C2C 		str	r2, [r3, #-12]	@ float
 705 003e 03F804CC 		strb	ip, [r3, #-4]
 706 0042 03F803CC 		strb	ip, [r3, #-3]
 707              	.LVL35:
 708              		.loc 12 36 12 view .LVU186
 709              	.LBE299:
 710              	.LBE301:
  74:vasynth.h     ****     ~VASynth() {}
 711              		.loc 6 74 15 is_stmt 1 view .LVU187
  74:vasynth.h     ****     ~VASynth() {}
 712              		.loc 6 74 15 view .LVU188
ARM GAS  C:\Users\jcjco\AppData\Local\Temp\cchBw9Ih.s 			page 34


 713 0046 E0D1     		bne	.L44
  74:vasynth.h     ****     ~VASynth() {}
 714              		.loc 6 74 15 discriminator 10 view .LVU189
 715 0048 00F2D474 		addw	r4, r0, #2004
 716              	.L45:
 717              	.LVL36:
 718              	.LBB302:
 719              	.LBI302:
 720              		.loc 12 36 5 view .LVU190
 721              	.LBE302:
  74:vasynth.h     ****     ~VASynth() {}
 722              		.loc 6 74 15 is_stmt 0 view .LVU191
 723 004c 3033     		adds	r3, r3, #48
 724              	.LVL37:
 725              	.LBB305:
 726              	.LBB303:
 727              		.loc 12 36 12 view .LVU192
 728 004e 0022     		movs	r2, #0
 729 0050 1C49     		ldr	r1, .L51
 730 0052 4FF0000C 		mov	ip, #0
 731              	.LBE303:
 732              	.LBE305:
  74:vasynth.h     ****     ~VASynth() {}
 733              		.loc 6 74 15 view .LVU193
 734 0056 A342     		cmp	r3, r4
 735              	.LBB306:
 736              	.LBB304:
 737              		.loc 12 36 12 view .LVU194
 738 0058 43F8302C 		str	r2, [r3, #-48]	@ float
 739 005c 43F82C2C 		str	r2, [r3, #-44]	@ float
 740 0060 43F8281C 		str	r1, [r3, #-40]	@ float
 741 0064 43F8242C 		str	r2, [r3, #-36]	@ float
 742 0068 43F8201C 		str	r1, [r3, #-32]	@ float
 743 006c 43F81C1C 		str	r1, [r3, #-28]	@ float
 744 0070 43F8181C 		str	r1, [r3, #-24]	@ float
 745 0074 43F8142C 		str	r2, [r3, #-20]	@ float
 746 0078 43F8102C 		str	r2, [r3, #-16]	@ float
 747 007c 43F80C2C 		str	r2, [r3, #-12]	@ float
 748 0080 03F804CC 		strb	ip, [r3, #-4]
 749 0084 03F803CC 		strb	ip, [r3, #-3]
 750              	.LVL38:
 751              		.loc 12 36 12 view .LVU195
 752              	.LBE304:
 753              	.LBE306:
  74:vasynth.h     ****     ~VASynth() {}
 754              		.loc 6 74 15 is_stmt 1 view .LVU196
  74:vasynth.h     ****     ~VASynth() {}
 755              		.loc 6 74 15 view .LVU197
 756 0088 E0D1     		bne	.L45
  74:vasynth.h     ****     ~VASynth() {}
 757              		.loc 6 74 15 discriminator 14 view .LVU198
 758 008a 00F63424 		addw	r4, r0, #2612
 759              	.L46:
 760              	.LVL39:
 761              	.LBB307:
 762              	.LBI307:
 763              		.file 13 "../../DaisySP/Source/Filters/moogladder.h"
ARM GAS  C:\Users\jcjco\AppData\Local\Temp\cchBw9Ih.s 			page 35


   1:../../DaisySP/Source/Filters/moogladder.h **** /* Ported from Audio Library for Teensy, Ladder Filter
   2:../../DaisySP/Source/Filters/moogladder.h ****  * Copyright (c) 2021, Richard van Hoesel
   3:../../DaisySP/Source/Filters/moogladder.h ****  * Copyright (c) 2022, Infrasonic Audio LLC
   4:../../DaisySP/Source/Filters/moogladder.h ****  *
   5:../../DaisySP/Source/Filters/moogladder.h ****  * Permission is hereby granted, free of charge, to any person obtaining a copy
   6:../../DaisySP/Source/Filters/moogladder.h ****  * of this software and associated documentation files (the "Software"), to deal
   7:../../DaisySP/Source/Filters/moogladder.h ****  * in the Software without restriction, including without limitation the rights
   8:../../DaisySP/Source/Filters/moogladder.h ****  * to use, copy, modify, merge, publish, distribute, sublicense, and/or sell
   9:../../DaisySP/Source/Filters/moogladder.h ****  * copies of the Software, and to permit persons to whom the Software is
  10:../../DaisySP/Source/Filters/moogladder.h ****  * furnished to do so, subject to the following conditions:
  11:../../DaisySP/Source/Filters/moogladder.h ****  *
  12:../../DaisySP/Source/Filters/moogladder.h ****  * The above copyright notice, development funding notice, and this permission
  13:../../DaisySP/Source/Filters/moogladder.h ****  * notice shall be included in all copies or substantial portions of the Software.
  14:../../DaisySP/Source/Filters/moogladder.h ****  *
  15:../../DaisySP/Source/Filters/moogladder.h ****  * THE SOFTWARE IS PROVIDED "AS IS", WITHOUT WARRANTY OF ANY KIND, EXPRESS OR
  16:../../DaisySP/Source/Filters/moogladder.h ****  * IMPLIED, INCLUDING BUT NOT LIMITED TO THE WARRANTIES OF MERCHANTABILITY,
  17:../../DaisySP/Source/Filters/moogladder.h ****  * FITNESS FOR A PARTICULAR PURPOSE AND NONINFRINGEMENT. IN NO EVENT SHALL THE
  18:../../DaisySP/Source/Filters/moogladder.h ****  * AUTHORS OR COPYRIGHT HOLDERS BE LIABLE FOR ANY CLAIM, DAMAGES OR OTHER
  19:../../DaisySP/Source/Filters/moogladder.h ****  * LIABILITY, WHETHER IN AN ACTION OF CONTRACT, TORT OR OTHERWISE, ARISING FROM,
  20:../../DaisySP/Source/Filters/moogladder.h ****  * OUT OF OR IN CONNECTION WITH THE SOFTWARE OR THE USE OR OTHER DEALINGS IN
  21:../../DaisySP/Source/Filters/moogladder.h ****  * THE SOFTWARE.
  22:../../DaisySP/Source/Filters/moogladder.h ****  */
  23:../../DaisySP/Source/Filters/moogladder.h **** 
  24:../../DaisySP/Source/Filters/moogladder.h **** //-----------------------------------------------------------
  25:../../DaisySP/Source/Filters/moogladder.h **** // Huovilainen New Moog (HNM) model as per CMJ jun 2006
  26:../../DaisySP/Source/Filters/moogladder.h **** // Richard van Hoesel, v. 1.03, Feb. 14 2021
  27:../../DaisySP/Source/Filters/moogladder.h **** // v1.6 (Infrasonic) removes polyphase FIR, uses 2x linear
  28:../../DaisySP/Source/Filters/moogladder.h **** //      oversampling for performance reasons, port to DaisySP conventions
  29:../../DaisySP/Source/Filters/moogladder.h **** // v1.5 adds polyphase FIR or Linear interpolation
  30:../../DaisySP/Source/Filters/moogladder.h **** // v1.4 FC extended to 18.7kHz, max res to 1.8, 4x oversampling,
  31:../../DaisySP/Source/Filters/moogladder.h **** //      and a minor Q-tuning adjustment
  32:../../DaisySP/Source/Filters/moogladder.h **** // v.1.03 adds oversampling, extended resonance,
  33:../../DaisySP/Source/Filters/moogladder.h **** // and exposes parameters input_drive and passband_gain
  34:../../DaisySP/Source/Filters/moogladder.h **** // v.1.02 now includes both cutoff and resonance "CV" modulation inputs
  35:../../DaisySP/Source/Filters/moogladder.h **** // please retain this header if you use this code.
  36:../../DaisySP/Source/Filters/moogladder.h **** //-----------------------------------------------------------
  37:../../DaisySP/Source/Filters/moogladder.h **** 
  38:../../DaisySP/Source/Filters/moogladder.h **** #pragma once
  39:../../DaisySP/Source/Filters/moogladder.h **** #ifndef INFS_MOOGLADDER_H
  40:../../DaisySP/Source/Filters/moogladder.h **** #define INFS_MOOGLADDER_H
  41:../../DaisySP/Source/Filters/moogladder.h **** 
  42:../../DaisySP/Source/Filters/moogladder.h **** #include <stdlib.h>
  43:../../DaisySP/Source/Filters/moogladder.h **** #include <stdint.h>
  44:../../DaisySP/Source/Filters/moogladder.h **** #ifdef __cplusplus
  45:../../DaisySP/Source/Filters/moogladder.h **** 
  46:../../DaisySP/Source/Filters/moogladder.h **** namespace infrasonic
  47:../../DaisySP/Source/Filters/moogladder.h **** {
  48:../../DaisySP/Source/Filters/moogladder.h **** 
  49:../../DaisySP/Source/Filters/moogladder.h **** class MoogLadder
  50:../../DaisySP/Source/Filters/moogladder.h **** {
  51:../../DaisySP/Source/Filters/moogladder.h ****     public:
  52:../../DaisySP/Source/Filters/moogladder.h ****         MoogLadder() {}
 764              		.loc 13 52 9 view .LVU199
 765              	.LBB308:
 766              		.loc 13 52 22 is_stmt 0 view .LVU200
 767 008e 0022     		movs	r2, #0
 768 0090 03F1180C 		add	ip, r3, #24
ARM GAS  C:\Users\jcjco\AppData\Local\Temp\cchBw9Ih.s 			page 36


 769 0094 03F12801 		add	r1, r3, #40
 770 0098 03F1080E 		add	lr, r3, #8
 771 009c C3E90222 		strd	r2, r2, [r3, #8]
 772 00a0 C3E90422 		strd	r2, r2, [r3, #16]
 773              	.LBE308:
 774              	.LBE307:
  74:vasynth.h     ****     ~VASynth() {}
 775              		.loc 6 74 15 view .LVU201
 776 00a4 4C33     		adds	r3, r3, #76
 777              	.LVL40:
 778              	.LBB312:
 779              	.LBB309:
 780              		.loc 13 52 22 view .LVU202
 781 00a6 43F8342C 		str	r2, [r3, #-52]
 782 00aa CCF80C20 		str	r2, [ip, #12]
 783              	.LBE309:
 784              	.LBE312:
  74:vasynth.h     ****     ~VASynth() {}
 785              		.loc 6 74 15 view .LVU203
 786 00ae A342     		cmp	r3, r4
 787              	.LBB313:
 788              	.LBB310:
 789              		.loc 13 52 22 view .LVU204
 790 00b0 CCE90122 		strd	r2, r2, [ip, #4]
 791 00b4 43F8242C 		str	r2, [r3, #-36]
 792 00b8 CA60     		str	r2, [r1, #12]
 793              	.LVL41:
 794              		.loc 13 52 22 view .LVU205
 795              	.LBE310:
 796              	.LBE313:
  74:vasynth.h     ****     ~VASynth() {}
 797              		.loc 6 74 15 is_stmt 1 view .LVU206
  74:vasynth.h     ****     ~VASynth() {}
 798              		.loc 6 74 15 view .LVU207
 799              	.LBB314:
 800              	.LBB311:
 801              		.loc 13 52 22 is_stmt 0 view .LVU208
 802 00ba C1E90122 		strd	r2, r2, [r1, #4]
 803              	.LBE311:
 804              	.LBE314:
  74:vasynth.h     ****     ~VASynth() {}
 805              		.loc 6 74 15 view .LVU209
 806 00be E6D1     		bne	.L46
 807              	.LBE315:
  74:vasynth.h     ****     ~VASynth() {}
 808              		.loc 6 74 16 discriminator 18 view .LVU210
 809 00c0 10BD     		pop	{r4, pc}
 810              	.L52:
 811 00c2 00BF     		.align	2
 812              	.L51:
 813 00c4 000080BF 		.word	-1082130432
 814              		.cfi_endproc
 815              	.LFE4787:
 817              		.weak	_ZN7VASynthC1Ev
 818              		.thumb_set _ZN7VASynthC1Ev,_ZN7VASynthC2Ev
 819              		.section	.text._Z13SequencerPlayt,"ax",%progbits
 820              		.align	1
ARM GAS  C:\Users\jcjco\AppData\Local\Temp\cchBw9Ih.s 			page 37


 821              		.p2align 2,,3
 822              		.global	_Z13SequencerPlayt
 823              		.syntax unified
 824              		.thumb
 825              		.thumb_func
 826              		.fpu fpv5-d16
 828              	_Z13SequencerPlayt:
 829              	.LVL42:
 830              	.LFB4794:
 348:main.cpp      **** 	if(modenum == 0)
 831              		.loc 11 348 1 is_stmt 1 view -0
 832              		.cfi_startproc
 833              		@ args = 0, pretend = 0, frame = 0
 834              		@ frame_needed = 0, uses_anonymous_args = 0
 835              		@ link register save eliminated.
 349:main.cpp      **** 	{
 836              		.loc 11 349 2 view .LVU212
 837 0000 0346     		mov	r3, r0
 838 0002 08B1     		cbz	r0, .L57
 839 0004 FFF7FEBF 		b	_Z13SequencerPlayt.part.0
 840              	.LVL43:
 841              	.L57:
 351:main.cpp      **** 		seqmem = 0x00010000;
 842              		.loc 11 351 3 view .LVU213
 351:main.cpp      **** 		seqmem = 0x00010000;
 843              		.loc 11 351 12 is_stmt 0 view .LVU214
 844 0008 0348     		ldr	r0, .L58
 845              	.LVL44:
 352:main.cpp      **** 		return;
 846              		.loc 11 352 10 view .LVU215
 847 000a 4FF48031 		mov	r1, #65536
 848 000e 034A     		ldr	r2, .L58+4
 351:main.cpp      **** 		seqmem = 0x00010000;
 849              		.loc 11 351 12 view .LVU216
 850 0010 0380     		strh	r3, [r0]	@ movhi
 352:main.cpp      **** 		return;
 851              		.loc 11 352 3 is_stmt 1 view .LVU217
 352:main.cpp      **** 		return;
 852              		.loc 11 352 10 is_stmt 0 view .LVU218
 853 0012 1160     		str	r1, [r2]
 353:main.cpp      **** 	}
 854              		.loc 11 353 3 is_stmt 1 view .LVU219
 403:main.cpp      **** 
 855              		.loc 11 403 1 is_stmt 0 view .LVU220
 856 0014 7047     		bx	lr
 857              	.L59:
 858 0016 00BF     		.align	2
 859              	.L58:
 860 0018 00000000 		.word	.LANCHOR4
 861 001c 00000000 		.word	.LANCHOR2
 862              		.cfi_endproc
 863              	.LFE4794:
 865              		.section	.text._Z15SequencerRecordhh,"ax",%progbits
 866              		.align	1
 867              		.p2align 2,,3
 868              		.global	_Z15SequencerRecordhh
 869              		.syntax unified
ARM GAS  C:\Users\jcjco\AppData\Local\Temp\cchBw9Ih.s 			page 38


 870              		.thumb
 871              		.thumb_func
 872              		.fpu fpv5-d16
 874              	_Z15SequencerRecordhh:
 875              	.LVL45:
 876              	.LFB4795:
 406:main.cpp      **** 	/* Write the timestamp to SRAM */
 877              		.loc 11 406 1 is_stmt 1 view -0
 878              		.cfi_startproc
 879              		@ args = 0, pretend = 0, frame = 0
 880              		@ frame_needed = 0, uses_anonymous_args = 0
 881              		@ link register save eliminated.
 408:main.cpp      **** 	seqmem++;
 882              		.loc 11 408 2 view .LVU222
 408:main.cpp      **** 	seqmem++;
 883              		.loc 11 408 15 is_stmt 0 view .LVU223
 884 0000 134B     		ldr	r3, .L63
 406:main.cpp      **** 	/* Write the timestamp to SRAM */
 885              		.loc 11 406 1 view .LVU224
 886 0002 30B4     		push	{r4, r5}
 887              		.cfi_def_cfa_offset 8
 888              		.cfi_offset 4, -8
 889              		.cfi_offset 5, -4
 408:main.cpp      **** 	seqmem++;
 890              		.loc 11 408 15 view .LVU225
 891 0004 1A68     		ldr	r2, [r3]
 892 0006 134C     		ldr	r4, .L63+4
 893              	.LBB316:
 894              	.LBB317:
 454:main.cpp      **** }
 895              		.loc 11 454 48 view .LVU226
 896 0008 02F10055 		add	r5, r2, #536870912
 897              	.LBE317:
 898              	.LBE316:
 408:main.cpp      **** 	seqmem++;
 899              		.loc 11 408 15 view .LVU227
 900 000c B4F800C0 		ldrh	ip, [r4]
 901              	.LVL46:
 902              	.LBB319:
 903              	.LBI316:
 451:main.cpp      **** {
 904              		.loc 11 451 6 is_stmt 1 view .LVU228
 905              	.LBB318:
 454:main.cpp      **** }
 906              		.loc 11 454 3 view .LVU229
 454:main.cpp      **** }
 907              		.loc 11 454 60 is_stmt 0 view .LVU230
 908 0010 A5F800C0 		strh	ip, [r5]	@ movhi
 909              	.LVL47:
 454:main.cpp      **** }
 910              		.loc 11 454 60 view .LVU231
 911              	.LBE318:
 912              	.LBE319:
 409:main.cpp      **** 	seqmem++;
 913              		.loc 11 409 2 is_stmt 1 view .LVU232
 410:main.cpp      **** 		
 914              		.loc 11 410 2 view .LVU233
ARM GAS  C:\Users\jcjco\AppData\Local\Temp\cchBw9Ih.s 			page 39


 410:main.cpp      **** 		
 915              		.loc 11 410 8 is_stmt 0 view .LVU234
 916 0014 951C     		adds	r5, r2, #2
 917 0016 1D60     		str	r5, [r3]
 413:main.cpp      **** 	seqmem++;
 918              		.loc 11 413 2 is_stmt 1 view .LVU235
 919              	.LVL48:
 920              	.LBB320:
 921              	.LBI320:
 435:main.cpp      **** {
 922              		.loc 11 435 6 view .LVU236
 923              	.LBB321:
 438:main.cpp      **** }
 924              		.loc 11 438 3 view .LVU237
 438:main.cpp      **** }
 925              		.loc 11 438 47 is_stmt 0 view .LVU238
 926 0018 0F4D     		ldr	r5, .L63+8
 927              	.LVL49:
 438:main.cpp      **** }
 928              		.loc 11 438 57 view .LVU239
 929 001a 5055     		strb	r0, [r2, r5]
 930              	.LVL50:
 438:main.cpp      **** }
 931              		.loc 11 438 57 view .LVU240
 932              	.LBE321:
 933              	.LBE320:
 414:main.cpp      **** 		
 934              		.loc 11 414 2 is_stmt 1 view .LVU241
 414:main.cpp      **** 		
 935              		.loc 11 414 8 is_stmt 0 view .LVU242
 936 001c 1A68     		ldr	r2, [r3]
 420:main.cpp      **** 	{
 937              		.loc 11 420 2 view .LVU243
 938 001e 0F4D     		ldr	r5, .L63+12
 414:main.cpp      **** 		
 939              		.loc 11 414 8 view .LVU244
 940 0020 501C     		adds	r0, r2, #1
 941              	.LVL51:
 414:main.cpp      **** 		
 942              		.loc 11 414 8 view .LVU245
 943 0022 1860     		str	r0, [r3]
 417:main.cpp      **** 	seqmem++;
 944              		.loc 11 417 2 is_stmt 1 view .LVU246
 945              	.LVL52:
 946              	.LBB322:
 947              	.LBI322:
 435:main.cpp      **** {
 948              		.loc 11 435 6 view .LVU247
 949              	.LBB323:
 438:main.cpp      **** }
 950              		.loc 11 438 3 view .LVU248
 438:main.cpp      **** }
 951              		.loc 11 438 47 is_stmt 0 view .LVU249
 952 0024 0E48     		ldr	r0, .L63+16
 953              	.LVL53:
 438:main.cpp      **** }
 954              		.loc 11 438 57 view .LVU250
ARM GAS  C:\Users\jcjco\AppData\Local\Temp\cchBw9Ih.s 			page 40


 955 0026 1154     		strb	r1, [r2, r0]
 956              	.LVL54:
 438:main.cpp      **** }
 957              		.loc 11 438 57 view .LVU251
 958              	.LBE323:
 959              	.LBE322:
 418:main.cpp      **** 	
 960              		.loc 11 418 2 is_stmt 1 view .LVU252
 418:main.cpp      **** 	
 961              		.loc 11 418 8 is_stmt 0 view .LVU253
 962 0028 1A68     		ldr	r2, [r3]
 963 002a 511C     		adds	r1, r2, #1
 964              	.LVL55:
 420:main.cpp      **** 	{
 965              		.loc 11 420 2 view .LVU254
 966 002c A942     		cmp	r1, r5
 418:main.cpp      **** 	
 967              		.loc 11 418 8 view .LVU255
 968 002e 1960     		str	r1, [r3]
 420:main.cpp      **** 	{
 969              		.loc 11 420 2 is_stmt 1 view .LVU256
 970 0030 0CD9     		bls	.L60
 424:main.cpp      **** 		seqmem++;
 971              		.loc 11 424 3 view .LVU257
 424:main.cpp      **** 		seqmem++;
 972              		.loc 11 424 16 is_stmt 0 view .LVU258
 973 0032 2188     		ldrh	r1, [r4]
 974              	.LVL56:
 975              	.LBB324:
 976              	.LBI324:
 451:main.cpp      **** {
 977              		.loc 11 451 6 is_stmt 1 view .LVU259
 978              	.LBB325:
 454:main.cpp      **** }
 979              		.loc 11 454 3 view .LVU260
 454:main.cpp      **** }
 980              		.loc 11 454 60 is_stmt 0 view .LVU261
 981 0034 1152     		strh	r1, [r2, r0]	@ movhi
 982              	.LVL57:
 454:main.cpp      **** }
 983              		.loc 11 454 60 view .LVU262
 984              	.LBE325:
 985              	.LBE324:
 425:main.cpp      **** 		seqmem++;
 986              		.loc 11 425 3 is_stmt 1 view .LVU263
 426:main.cpp      **** 		writeSramWord(seqmem, 0xFFFF);
 987              		.loc 11 426 3 view .LVU264
 427:main.cpp      **** 		seqmode = 0;
 988              		.loc 11 427 3 view .LVU265
 989              	.LBB326:
 990              	.LBI326:
 451:main.cpp      **** {
 991              		.loc 11 451 6 view .LVU266
 992              	.LBB327:
 454:main.cpp      **** }
 993              		.loc 11 454 3 view .LVU267
 454:main.cpp      **** }
ARM GAS  C:\Users\jcjco\AppData\Local\Temp\cchBw9Ih.s 			page 41


 994              		.loc 11 454 60 is_stmt 0 view .LVU268
 995 0036 4FF6FF70 		movw	r0, #65535
 454:main.cpp      **** }
 996              		.loc 11 454 48 view .LVU269
 997 003a 0A49     		ldr	r1, .L63+20
 454:main.cpp      **** }
 998              		.loc 11 454 60 view .LVU270
 999 003c 5052     		strh	r0, [r2, r1]	@ movhi
 1000              	.LVL58:
 454:main.cpp      **** }
 1001              		.loc 11 454 60 view .LVU271
 1002              	.LBE327:
 1003              	.LBE326:
 428:main.cpp      **** 		seqclock = 0;
 1004              		.loc 11 428 3 is_stmt 1 view .LVU272
 428:main.cpp      **** 		seqclock = 0;
 1005              		.loc 11 428 11 is_stmt 0 view .LVU273
 1006 003e 0022     		movs	r2, #0
 1007 0040 0948     		ldr	r0, .L63+24
 430:main.cpp      **** 	}
 1008              		.loc 11 430 10 view .LVU274
 1009 0042 4FF48031 		mov	r1, #65536
 429:main.cpp      **** 		seqmem = 0x00010000;
 1010              		.loc 11 429 12 view .LVU275
 1011 0046 2280     		strh	r2, [r4]	@ movhi
 428:main.cpp      **** 		seqclock = 0;
 1012              		.loc 11 428 11 view .LVU276
 1013 0048 0280     		strh	r2, [r0]	@ movhi
 429:main.cpp      **** 		seqmem = 0x00010000;
 1014              		.loc 11 429 3 is_stmt 1 view .LVU277
 430:main.cpp      **** 	}
 1015              		.loc 11 430 3 view .LVU278
 430:main.cpp      **** 	}
 1016              		.loc 11 430 10 is_stmt 0 view .LVU279
 1017 004a 1960     		str	r1, [r3]
 1018              	.L60:
 432:main.cpp      **** 
 1019              		.loc 11 432 2 view .LVU280
 1020 004c 30BC     		pop	{r4, r5}
 1021              		.cfi_restore 5
 1022              		.cfi_restore 4
 1023              		.cfi_def_cfa_offset 0
 1024 004e 7047     		bx	lr
 1025              	.L64:
 1026              		.align	2
 1027              	.L63:
 1028 0050 00000000 		.word	.LANCHOR2
 1029 0054 00000000 		.word	.LANCHOR4
 1030 0058 02000020 		.word	536870914
 1031 005c F8FF0700 		.word	524280
 1032 0060 01000020 		.word	536870913
 1033 0064 03000020 		.word	536870915
 1034 0068 00000000 		.word	.LANCHOR8
 1035              		.cfi_endproc
 1036              	.LFE4795:
 1038              		.section	.text._Z17HandleMidiMessageN5daisy9MidiEventE,"ax",%progbits
 1039              		.align	1
ARM GAS  C:\Users\jcjco\AppData\Local\Temp\cchBw9Ih.s 			page 42


 1040              		.p2align 2,,3
 1041              		.global	_Z17HandleMidiMessageN5daisy9MidiEventE
 1042              		.syntax unified
 1043              		.thumb
 1044              		.thumb_func
 1045              		.fpu fpv5-d16
 1047              	_Z17HandleMidiMessageN5daisy9MidiEventE:
 1048              	.LFB4793:
  84:main.cpp      ****     switch(m.type)
 1049              		.loc 11 84 1 is_stmt 1 view -0
 1050              		.cfi_startproc
 1051              		@ args = 144, pretend = 16, frame = 8
 1052              		@ frame_needed = 0, uses_anonymous_args = 0
 1053 0000 84B0     		sub	sp, sp, #16
 1054              		.cfi_def_cfa_offset 16
 1055 0002 F0B5     		push	{r4, r5, r6, r7, lr}
 1056              		.cfi_def_cfa_offset 36
 1057              		.cfi_offset 4, -36
 1058              		.cfi_offset 5, -32
 1059              		.cfi_offset 6, -28
 1060              		.cfi_offset 7, -24
 1061              		.cfi_offset 14, -20
 1062 0004 83B0     		sub	sp, sp, #12
 1063              		.cfi_def_cfa_offset 48
  84:main.cpp      ****     switch(m.type)
 1064              		.loc 11 84 1 is_stmt 0 view .LVU282
 1065 0006 08AC     		add	r4, sp, #32
 1066 0008 84E80F00 		stm	r4, {r0, r1, r2, r3}
 1067 000c 9DF82030 		ldrb	r3, [sp, #32]	@ zero_extendqisi2
 1068              	.LVL59:
  84:main.cpp      ****     switch(m.type)
 1069              		.loc 11 84 1 view .LVU283
 1070 0010 9DF82840 		ldrb	r4, [sp, #40]	@ zero_extendqisi2
 1071              	.LVL60:
  84:main.cpp      ****     switch(m.type)
 1072              		.loc 11 84 1 view .LVU284
 1073 0014 9DF82920 		ldrb	r2, [sp, #41]	@ zero_extendqisi2
 1074              	.LVL61:
  85:main.cpp      ****     {
 1075              		.loc 11 85 5 is_stmt 1 view .LVU285
 1076 0018 062B     		cmp	r3, #6
 1077 001a 0CD8     		bhi	.L65
 1078 001c DFE803F0 		tbb	[pc, r3]
 1079              	.L68:
 1080 0020 41       		.byte	(.L71-.L68)/2
 1081 0021 04       		.byte	(.L70-.L68)/2
 1082 0022 0B       		.byte	(.L65-.L68)/2
 1083 0023 23       		.byte	(.L69-.L68)/2
 1084 0024 0B       		.byte	(.L65-.L68)/2
 1085 0025 0B       		.byte	(.L65-.L68)/2
 1086 0026 10       		.byte	(.L67-.L68)/2
 1087 0027 00       		.p2align 1
 1088              	.L70:
  87:main.cpp      ****         {
 1089              		.loc 11 87 9 view .LVU286
  88:main.cpp      ****             NoteOnEvent p = m.AsNoteOn();
 1090              		.loc 11 88 9 view .LVU287
ARM GAS  C:\Users\jcjco\AppData\Local\Temp\cchBw9Ih.s 			page 43


 1091              	.LBB328:
 1092              	.LBB329:
  89:main.cpp      ****             if ((vasynth.midi_channel_ == MIDI_CHANNEL_ALL) || (p.channel == vasynth.midi_channel_)
 1093              		.loc 11 89 13 view .LVU288
 1094              	.LVL62:
 1095              	.LBB330:
 1096              	.LBI330:
 1097              		.file 14 "../../libDaisy/src/hid/MidiEvent.h"
   1:../../libDaisy/src/hid/MidiEvent.h **** namespace daisy
   2:../../libDaisy/src/hid/MidiEvent.h **** {
   3:../../libDaisy/src/hid/MidiEvent.h **** /** @addtogroup midi MIDI
   4:../../libDaisy/src/hid/MidiEvent.h ****  *  @ingroup human_interface
   5:../../libDaisy/src/hid/MidiEvent.h ****  *  @ingroup libdaisy
   6:../../libDaisy/src/hid/MidiEvent.h ****  *  @brief MIDI handlers, transports, and message types
   7:../../libDaisy/src/hid/MidiEvent.h ****  *  @{
   8:../../libDaisy/src/hid/MidiEvent.h ****  */
   9:../../libDaisy/src/hid/MidiEvent.h **** 
  10:../../libDaisy/src/hid/MidiEvent.h **** /** @defgroup midi_events MIDI_EVENTS 
  11:../../libDaisy/src/hid/MidiEvent.h ****  *  @{
  12:../../libDaisy/src/hid/MidiEvent.h **** */
  13:../../libDaisy/src/hid/MidiEvent.h **** 
  14:../../libDaisy/src/hid/MidiEvent.h **** /** Parsed from the Status Byte, these are the common Midi Messages that can be handled. \n
  15:../../libDaisy/src/hid/MidiEvent.h **** At this time only 3-byte messages are correctly parsed into MidiEvents.
  16:../../libDaisy/src/hid/MidiEvent.h **** */
  17:../../libDaisy/src/hid/MidiEvent.h **** enum MidiMessageType
  18:../../libDaisy/src/hid/MidiEvent.h **** {
  19:../../libDaisy/src/hid/MidiEvent.h ****     NoteOff,               /**< & */
  20:../../libDaisy/src/hid/MidiEvent.h ****     NoteOn,                /**< & */
  21:../../libDaisy/src/hid/MidiEvent.h ****     PolyphonicKeyPressure, /**< & */
  22:../../libDaisy/src/hid/MidiEvent.h ****     ControlChange,         /**< & */
  23:../../libDaisy/src/hid/MidiEvent.h ****     ProgramChange,         /**< & */
  24:../../libDaisy/src/hid/MidiEvent.h ****     ChannelPressure,       /**< & */
  25:../../libDaisy/src/hid/MidiEvent.h ****     PitchBend,             /**< & */
  26:../../libDaisy/src/hid/MidiEvent.h ****     SystemCommon,          /**< & */
  27:../../libDaisy/src/hid/MidiEvent.h ****     SystemRealTime,        /**< & */
  28:../../libDaisy/src/hid/MidiEvent.h ****     ChannelMode,           /**< & */
  29:../../libDaisy/src/hid/MidiEvent.h ****     MessageLast,           /**< & */
  30:../../libDaisy/src/hid/MidiEvent.h **** };
  31:../../libDaisy/src/hid/MidiEvent.h **** 
  32:../../libDaisy/src/hid/MidiEvent.h **** enum SystemCommonType
  33:../../libDaisy/src/hid/MidiEvent.h **** {
  34:../../libDaisy/src/hid/MidiEvent.h ****     SystemExclusive,     /**< & */
  35:../../libDaisy/src/hid/MidiEvent.h ****     MTCQuarterFrame,     /**< & */
  36:../../libDaisy/src/hid/MidiEvent.h ****     SongPositionPointer, /**< & */
  37:../../libDaisy/src/hid/MidiEvent.h ****     SongSelect,          /**< & */
  38:../../libDaisy/src/hid/MidiEvent.h ****     SCUndefined0,        /**< & */
  39:../../libDaisy/src/hid/MidiEvent.h ****     SCUndefined1,        /**< & */
  40:../../libDaisy/src/hid/MidiEvent.h ****     TuneRequest,         /**< & */
  41:../../libDaisy/src/hid/MidiEvent.h ****     SysExEnd,            /**< & */
  42:../../libDaisy/src/hid/MidiEvent.h ****     SystemCommonLast,    /**< & */
  43:../../libDaisy/src/hid/MidiEvent.h **** };
  44:../../libDaisy/src/hid/MidiEvent.h **** 
  45:../../libDaisy/src/hid/MidiEvent.h **** enum SystemRealTimeType
  46:../../libDaisy/src/hid/MidiEvent.h **** {
  47:../../libDaisy/src/hid/MidiEvent.h ****     TimingClock,        /**< & */
  48:../../libDaisy/src/hid/MidiEvent.h ****     SRTUndefined0,      /**< & */
  49:../../libDaisy/src/hid/MidiEvent.h ****     Start,              /**< & */
ARM GAS  C:\Users\jcjco\AppData\Local\Temp\cchBw9Ih.s 			page 44


  50:../../libDaisy/src/hid/MidiEvent.h ****     Continue,           /**< & */
  51:../../libDaisy/src/hid/MidiEvent.h ****     Stop,               /**< & */
  52:../../libDaisy/src/hid/MidiEvent.h ****     SRTUndefined1,      /**< & */
  53:../../libDaisy/src/hid/MidiEvent.h ****     ActiveSensing,      /**< & */
  54:../../libDaisy/src/hid/MidiEvent.h ****     Reset,              /**< & */
  55:../../libDaisy/src/hid/MidiEvent.h ****     SystemRealTimeLast, /**< & */
  56:../../libDaisy/src/hid/MidiEvent.h **** };
  57:../../libDaisy/src/hid/MidiEvent.h **** 
  58:../../libDaisy/src/hid/MidiEvent.h **** enum ChannelModeType
  59:../../libDaisy/src/hid/MidiEvent.h **** {
  60:../../libDaisy/src/hid/MidiEvent.h ****     AllSoundOff,         /**< & */
  61:../../libDaisy/src/hid/MidiEvent.h ****     ResetAllControllers, /**< & */
  62:../../libDaisy/src/hid/MidiEvent.h ****     LocalControl,        /**< & */
  63:../../libDaisy/src/hid/MidiEvent.h ****     AllNotesOff,         /**< & */
  64:../../libDaisy/src/hid/MidiEvent.h ****     OmniModeOff,         /**< & */
  65:../../libDaisy/src/hid/MidiEvent.h ****     OmniModeOn,          /**< & */
  66:../../libDaisy/src/hid/MidiEvent.h ****     MonoModeOn,          /**< & */
  67:../../libDaisy/src/hid/MidiEvent.h ****     PolyModeOn,          /**< & */
  68:../../libDaisy/src/hid/MidiEvent.h ****     ChannelModeLast,     /**< & */
  69:../../libDaisy/src/hid/MidiEvent.h **** };
  70:../../libDaisy/src/hid/MidiEvent.h **** 
  71:../../libDaisy/src/hid/MidiEvent.h **** /** Struct containing note, and velocity data for a given channel.
  72:../../libDaisy/src/hid/MidiEvent.h **** Can be made from MidiEvent
  73:../../libDaisy/src/hid/MidiEvent.h **** */
  74:../../libDaisy/src/hid/MidiEvent.h **** struct NoteOffEvent
  75:../../libDaisy/src/hid/MidiEvent.h **** {
  76:../../libDaisy/src/hid/MidiEvent.h ****     int     channel;  /**< & */
  77:../../libDaisy/src/hid/MidiEvent.h ****     uint8_t note;     /**< & */
  78:../../libDaisy/src/hid/MidiEvent.h ****     uint8_t velocity; /**< & */
  79:../../libDaisy/src/hid/MidiEvent.h **** };
  80:../../libDaisy/src/hid/MidiEvent.h **** 
  81:../../libDaisy/src/hid/MidiEvent.h **** 
  82:../../libDaisy/src/hid/MidiEvent.h **** /** Struct containing note, and velocity data for a given channel.
  83:../../libDaisy/src/hid/MidiEvent.h **** Can be made from MidiEvent
  84:../../libDaisy/src/hid/MidiEvent.h **** */
  85:../../libDaisy/src/hid/MidiEvent.h **** struct NoteOnEvent
  86:../../libDaisy/src/hid/MidiEvent.h **** {
  87:../../libDaisy/src/hid/MidiEvent.h ****     int     channel;  /**< & */
  88:../../libDaisy/src/hid/MidiEvent.h ****     uint8_t note;     /**< & */
  89:../../libDaisy/src/hid/MidiEvent.h ****     uint8_t velocity; /**< & */
  90:../../libDaisy/src/hid/MidiEvent.h **** };
  91:../../libDaisy/src/hid/MidiEvent.h **** /** Struct containing note, and pressure data for a given channel.
  92:../../libDaisy/src/hid/MidiEvent.h **** Can be made from MidiEvent
  93:../../libDaisy/src/hid/MidiEvent.h **** */
  94:../../libDaisy/src/hid/MidiEvent.h **** struct PolyphonicKeyPressureEvent
  95:../../libDaisy/src/hid/MidiEvent.h **** {
  96:../../libDaisy/src/hid/MidiEvent.h ****     int     channel;
  97:../../libDaisy/src/hid/MidiEvent.h ****     uint8_t note;
  98:../../libDaisy/src/hid/MidiEvent.h ****     uint8_t pressure;
  99:../../libDaisy/src/hid/MidiEvent.h **** };
 100:../../libDaisy/src/hid/MidiEvent.h **** /** Struct containing control number, and value for a given channel.
 101:../../libDaisy/src/hid/MidiEvent.h **** Can be made from MidiEvent
 102:../../libDaisy/src/hid/MidiEvent.h **** */
 103:../../libDaisy/src/hid/MidiEvent.h **** struct ControlChangeEvent
 104:../../libDaisy/src/hid/MidiEvent.h **** {
 105:../../libDaisy/src/hid/MidiEvent.h ****     int     channel;        /**< & */
 106:../../libDaisy/src/hid/MidiEvent.h ****     uint8_t control_number; /**< & */
ARM GAS  C:\Users\jcjco\AppData\Local\Temp\cchBw9Ih.s 			page 45


 107:../../libDaisy/src/hid/MidiEvent.h ****     uint8_t 
 108:../../libDaisy/src/hid/MidiEvent.h ****     value;          /**< & */
 109:../../libDaisy/src/hid/MidiEvent.h **** };
 110:../../libDaisy/src/hid/MidiEvent.h **** /** Struct containing new program number, for a given channel.
 111:../../libDaisy/src/hid/MidiEvent.h **** Can be made from MidiEvent
 112:../../libDaisy/src/hid/MidiEvent.h **** */
 113:../../libDaisy/src/hid/MidiEvent.h **** struct ProgramChangeEvent
 114:../../libDaisy/src/hid/MidiEvent.h **** {
 115:../../libDaisy/src/hid/MidiEvent.h ****     int     channel; /**< & */
 116:../../libDaisy/src/hid/MidiEvent.h ****     uint8_t program; /**< & */
 117:../../libDaisy/src/hid/MidiEvent.h **** };
 118:../../libDaisy/src/hid/MidiEvent.h **** /** Struct containing pressure (aftertouch), for a given channel.
 119:../../libDaisy/src/hid/MidiEvent.h **** Can be made from MidiEvent
 120:../../libDaisy/src/hid/MidiEvent.h **** */
 121:../../libDaisy/src/hid/MidiEvent.h **** struct ChannelPressureEvent
 122:../../libDaisy/src/hid/MidiEvent.h **** {
 123:../../libDaisy/src/hid/MidiEvent.h ****     int     channel;  /**< & */
 124:../../libDaisy/src/hid/MidiEvent.h ****     uint8_t pressure; /**< & */
 125:../../libDaisy/src/hid/MidiEvent.h **** };
 126:../../libDaisy/src/hid/MidiEvent.h **** /** Struct containing pitch bend value for a given channel.
 127:../../libDaisy/src/hid/MidiEvent.h **** Can be made from MidiEvent
 128:../../libDaisy/src/hid/MidiEvent.h **** */
 129:../../libDaisy/src/hid/MidiEvent.h **** struct PitchBendEvent
 130:../../libDaisy/src/hid/MidiEvent.h **** {
 131:../../libDaisy/src/hid/MidiEvent.h ****     int     channel; /**< & */
 132:../../libDaisy/src/hid/MidiEvent.h ****     int16_t value;   /**< & */
 133:../../libDaisy/src/hid/MidiEvent.h **** };
 134:../../libDaisy/src/hid/MidiEvent.h **** /** Struct containing channel mode event for a given channel.
 135:../../libDaisy/src/hid/MidiEvent.h **** Can be made from MidiEvent
 136:../../libDaisy/src/hid/MidiEvent.h **** */
 137:../../libDaisy/src/hid/MidiEvent.h **** struct ChannelModeEvent
 138:../../libDaisy/src/hid/MidiEvent.h **** {
 139:../../libDaisy/src/hid/MidiEvent.h ****     int             channel;    /**< & */
 140:../../libDaisy/src/hid/MidiEvent.h ****     ChannelModeType event_type; /**< & */
 141:../../libDaisy/src/hid/MidiEvent.h ****     int16_t         value;      /**< & */
 142:../../libDaisy/src/hid/MidiEvent.h **** };
 143:../../libDaisy/src/hid/MidiEvent.h **** /** Struct containing sysex data.
 144:../../libDaisy/src/hid/MidiEvent.h **** Can be made from MidiEvent
 145:../../libDaisy/src/hid/MidiEvent.h **** */
 146:../../libDaisy/src/hid/MidiEvent.h **** struct SystemExclusiveEvent
 147:../../libDaisy/src/hid/MidiEvent.h **** {
 148:../../libDaisy/src/hid/MidiEvent.h ****     int     length;
 149:../../libDaisy/src/hid/MidiEvent.h ****     uint8_t data[SYSEX_BUFFER_LEN]; /**< & */
 150:../../libDaisy/src/hid/MidiEvent.h **** };
 151:../../libDaisy/src/hid/MidiEvent.h **** /** Struct containing QuarterFrame data.
 152:../../libDaisy/src/hid/MidiEvent.h **** Can be made from MidiEvent
 153:../../libDaisy/src/hid/MidiEvent.h **** */
 154:../../libDaisy/src/hid/MidiEvent.h **** struct MTCQuarterFrameEvent
 155:../../libDaisy/src/hid/MidiEvent.h **** {
 156:../../libDaisy/src/hid/MidiEvent.h ****     uint8_t message_type; /**< & */
 157:../../libDaisy/src/hid/MidiEvent.h ****     uint8_t value;        /**< & */
 158:../../libDaisy/src/hid/MidiEvent.h **** };
 159:../../libDaisy/src/hid/MidiEvent.h **** /** Struct containing song position data.
 160:../../libDaisy/src/hid/MidiEvent.h **** Can be made from MidiEvent
 161:../../libDaisy/src/hid/MidiEvent.h **** */
 162:../../libDaisy/src/hid/MidiEvent.h **** struct SongPositionPointerEvent
 163:../../libDaisy/src/hid/MidiEvent.h **** {
ARM GAS  C:\Users\jcjco\AppData\Local\Temp\cchBw9Ih.s 			page 46


 164:../../libDaisy/src/hid/MidiEvent.h ****     uint16_t position; /**< & */
 165:../../libDaisy/src/hid/MidiEvent.h **** };
 166:../../libDaisy/src/hid/MidiEvent.h **** /** Struct containing song select data.
 167:../../libDaisy/src/hid/MidiEvent.h **** Can be made from MidiEvent
 168:../../libDaisy/src/hid/MidiEvent.h **** */
 169:../../libDaisy/src/hid/MidiEvent.h **** struct SongSelectEvent
 170:../../libDaisy/src/hid/MidiEvent.h **** {
 171:../../libDaisy/src/hid/MidiEvent.h ****     uint8_t song; /**< & */
 172:../../libDaisy/src/hid/MidiEvent.h **** };
 173:../../libDaisy/src/hid/MidiEvent.h **** /** Struct containing sound off data.
 174:../../libDaisy/src/hid/MidiEvent.h **** Can be made from MidiEvent
 175:../../libDaisy/src/hid/MidiEvent.h **** */
 176:../../libDaisy/src/hid/MidiEvent.h **** struct AllSoundOffEvent
 177:../../libDaisy/src/hid/MidiEvent.h **** {
 178:../../libDaisy/src/hid/MidiEvent.h ****     int channel; /**< & */
 179:../../libDaisy/src/hid/MidiEvent.h **** };
 180:../../libDaisy/src/hid/MidiEvent.h **** /** Struct containing ResetAllControllersEvent data.
 181:../../libDaisy/src/hid/MidiEvent.h **** Can be made from MidiEvent
 182:../../libDaisy/src/hid/MidiEvent.h **** */
 183:../../libDaisy/src/hid/MidiEvent.h **** struct ResetAllControllersEvent
 184:../../libDaisy/src/hid/MidiEvent.h **** {
 185:../../libDaisy/src/hid/MidiEvent.h ****     int     channel; /**< & */
 186:../../libDaisy/src/hid/MidiEvent.h ****     uint8_t value;   /**< & */
 187:../../libDaisy/src/hid/MidiEvent.h **** };
 188:../../libDaisy/src/hid/MidiEvent.h **** /** Struct containing LocalControlEvent data.
 189:../../libDaisy/src/hid/MidiEvent.h **** Can be made from MidiEvent
 190:../../libDaisy/src/hid/MidiEvent.h **** */
 191:../../libDaisy/src/hid/MidiEvent.h **** struct LocalControlEvent
 192:../../libDaisy/src/hid/MidiEvent.h **** {
 193:../../libDaisy/src/hid/MidiEvent.h ****     int  channel;           /**< & */
 194:../../libDaisy/src/hid/MidiEvent.h ****     bool local_control_off; /**< & */
 195:../../libDaisy/src/hid/MidiEvent.h ****     bool local_control_on;  /**< & */
 196:../../libDaisy/src/hid/MidiEvent.h **** };
 197:../../libDaisy/src/hid/MidiEvent.h **** /** Struct containing AllNotesOffEvent data.
 198:../../libDaisy/src/hid/MidiEvent.h **** Can be made from MidiEvent
 199:../../libDaisy/src/hid/MidiEvent.h **** */
 200:../../libDaisy/src/hid/MidiEvent.h **** struct AllNotesOffEvent
 201:../../libDaisy/src/hid/MidiEvent.h **** {
 202:../../libDaisy/src/hid/MidiEvent.h ****     int channel; /**< & */
 203:../../libDaisy/src/hid/MidiEvent.h **** };
 204:../../libDaisy/src/hid/MidiEvent.h **** /** Struct containing OmniModeOffEvent data. 
 205:../../libDaisy/src/hid/MidiEvent.h ****  * Can be made from MidiEvent
 206:../../libDaisy/src/hid/MidiEvent.h **** */
 207:../../libDaisy/src/hid/MidiEvent.h **** struct OmniModeOffEvent
 208:../../libDaisy/src/hid/MidiEvent.h **** {
 209:../../libDaisy/src/hid/MidiEvent.h ****     int channel; /**< & */
 210:../../libDaisy/src/hid/MidiEvent.h **** };
 211:../../libDaisy/src/hid/MidiEvent.h **** /** Struct containing OmniModeOnEvent data.
 212:../../libDaisy/src/hid/MidiEvent.h **** Can be made from MidiEvent
 213:../../libDaisy/src/hid/MidiEvent.h **** */
 214:../../libDaisy/src/hid/MidiEvent.h **** struct OmniModeOnEvent
 215:../../libDaisy/src/hid/MidiEvent.h **** {
 216:../../libDaisy/src/hid/MidiEvent.h ****     int channel; /**< & */
 217:../../libDaisy/src/hid/MidiEvent.h **** };
 218:../../libDaisy/src/hid/MidiEvent.h **** /** Struct containing MonoModeOnEvent data.
 219:../../libDaisy/src/hid/MidiEvent.h **** Can be made from MidiEvent
 220:../../libDaisy/src/hid/MidiEvent.h **** */
ARM GAS  C:\Users\jcjco\AppData\Local\Temp\cchBw9Ih.s 			page 47


 221:../../libDaisy/src/hid/MidiEvent.h **** struct MonoModeOnEvent
 222:../../libDaisy/src/hid/MidiEvent.h **** {
 223:../../libDaisy/src/hid/MidiEvent.h ****     int     channel;      /**< & */
 224:../../libDaisy/src/hid/MidiEvent.h ****     uint8_t num_channels; /**< & */
 225:../../libDaisy/src/hid/MidiEvent.h **** };
 226:../../libDaisy/src/hid/MidiEvent.h **** /** Struct containing PolyModeOnEvent data.
 227:../../libDaisy/src/hid/MidiEvent.h **** Can be made from MidiEvent
 228:../../libDaisy/src/hid/MidiEvent.h **** */
 229:../../libDaisy/src/hid/MidiEvent.h **** struct PolyModeOnEvent
 230:../../libDaisy/src/hid/MidiEvent.h **** {
 231:../../libDaisy/src/hid/MidiEvent.h ****     int channel; /**< & */
 232:../../libDaisy/src/hid/MidiEvent.h **** };
 233:../../libDaisy/src/hid/MidiEvent.h **** 
 234:../../libDaisy/src/hid/MidiEvent.h **** 
 235:../../libDaisy/src/hid/MidiEvent.h **** /** Simple MidiEvent with message type, channel, and data[2] members.
 236:../../libDaisy/src/hid/MidiEvent.h **** */
 237:../../libDaisy/src/hid/MidiEvent.h **** struct MidiEvent
 238:../../libDaisy/src/hid/MidiEvent.h **** {
 239:../../libDaisy/src/hid/MidiEvent.h ****     // Newer ish.
 240:../../libDaisy/src/hid/MidiEvent.h ****     MidiMessageType    type;                         /**< & */
 241:../../libDaisy/src/hid/MidiEvent.h ****     int                channel;                      /**< & */
 242:../../libDaisy/src/hid/MidiEvent.h ****     uint8_t            data[2];                      /**< & */
 243:../../libDaisy/src/hid/MidiEvent.h ****     uint8_t            sysex_data[SYSEX_BUFFER_LEN]; /**< & */
 244:../../libDaisy/src/hid/MidiEvent.h ****     uint8_t            sysex_message_len;
 245:../../libDaisy/src/hid/MidiEvent.h ****     SystemCommonType   sc_type;
 246:../../libDaisy/src/hid/MidiEvent.h ****     SystemRealTimeType srt_type;
 247:../../libDaisy/src/hid/MidiEvent.h ****     ChannelModeType    cm_type;
 248:../../libDaisy/src/hid/MidiEvent.h **** 
 249:../../libDaisy/src/hid/MidiEvent.h ****     /** Returns the data within the MidiEvent as a NoteOffEvent struct */
 250:../../libDaisy/src/hid/MidiEvent.h ****     NoteOffEvent AsNoteOff()
 251:../../libDaisy/src/hid/MidiEvent.h ****     {
 252:../../libDaisy/src/hid/MidiEvent.h ****         NoteOffEvent m;
 253:../../libDaisy/src/hid/MidiEvent.h ****         m.channel  = channel;
 254:../../libDaisy/src/hid/MidiEvent.h ****         m.note     = data[0];
 255:../../libDaisy/src/hid/MidiEvent.h ****         m.velocity = data[1];
 256:../../libDaisy/src/hid/MidiEvent.h ****         return m;
 257:../../libDaisy/src/hid/MidiEvent.h ****     }
 258:../../libDaisy/src/hid/MidiEvent.h **** 
 259:../../libDaisy/src/hid/MidiEvent.h ****     /** Returns the data within the MidiEvent as a NoteOnEvent struct */
 260:../../libDaisy/src/hid/MidiEvent.h ****     NoteOnEvent AsNoteOn()
 1098              		.loc 14 260 17 view .LVU289
 1099              	.LBB331:
 261:../../libDaisy/src/hid/MidiEvent.h ****     {
 262:../../libDaisy/src/hid/MidiEvent.h ****         NoteOnEvent m;
 1100              		.loc 14 262 9 view .LVU290
 263:../../libDaisy/src/hid/MidiEvent.h ****         m.channel  = channel;
 1101              		.loc 14 263 9 view .LVU291
 264:../../libDaisy/src/hid/MidiEvent.h ****         m.note     = data[0];
 1102              		.loc 14 264 9 view .LVU292
 265:../../libDaisy/src/hid/MidiEvent.h ****         m.velocity = data[1];
 1103              		.loc 14 265 9 view .LVU293
 266:../../libDaisy/src/hid/MidiEvent.h ****         return m;
 1104              		.loc 14 266 9 view .LVU294
 1105              		.loc 14 266 9 is_stmt 0 view .LVU295
 1106              	.LBE331:
 1107              	.LBE330:
  90:main.cpp      **** 			{
ARM GAS  C:\Users\jcjco\AppData\Local\Temp\cchBw9Ih.s 			page 48


 1108              		.loc 11 90 13 is_stmt 1 view .LVU296
  90:main.cpp      **** 			{
 1109              		.loc 11 90 26 is_stmt 0 view .LVU297
 1110 0028 B04B     		ldr	r3, .L136
 1111 002a 93F88930 		ldrb	r3, [r3, #137]	@ zero_extendqisi2
  90:main.cpp      **** 			{
 1112              		.loc 11 90 13 view .LVU298
 1113 002e 112B     		cmp	r3, #17
 1114 0030 4FD0     		beq	.L72
  90:main.cpp      **** 			{
 1115              		.loc 11 90 61 discriminator 1 view .LVU299
 1116 0032 8B42     		cmp	r3, r1
 1117 0034 4DD0     		beq	.L72
 1118              	.LVL63:
 1119              	.L65:
  90:main.cpp      **** 			{
 1120              		.loc 11 90 61 discriminator 1 view .LVU300
 1121              	.LBE329:
 1122              	.LBE328:
 345:main.cpp      **** 
 1123              		.loc 11 345 1 view .LVU301
 1124 0036 03B0     		add	sp, sp, #12
 1125              		.cfi_remember_state
 1126              		.cfi_def_cfa_offset 36
 1127              		@ sp needed
 1128 0038 BDE8F040 		pop	{r4, r5, r6, r7, lr}
 1129              		.cfi_restore 14
 1130              		.cfi_restore 7
 1131              		.cfi_restore 6
 1132              		.cfi_restore 5
 1133              		.cfi_restore 4
 1134              		.cfi_def_cfa_offset 16
 1135 003c 04B0     		add	sp, sp, #16
 1136              		.cfi_def_cfa_offset 0
 1137 003e 7047     		bx	lr
 1138              	.LVL64:
 1139              	.L67:
 1140              		.cfi_restore_state
 115:main.cpp      ****         {
 1141              		.loc 11 115 3 is_stmt 1 view .LVU302
 116:main.cpp      ****             PitchBendEvent p = m.AsPitchBend();
 1142              		.loc 11 116 9 view .LVU303
 1143              	.LBB366:
 1144              	.LBB332:
 117:main.cpp      ****             if ((vasynth.midi_channel_ == MIDI_CHANNEL_ALL) || (p.channel == vasynth.midi_channel_)
 1145              		.loc 11 117 13 view .LVU304
 1146              	.LBB333:
 1147              	.LBI333:
 267:../../libDaisy/src/hid/MidiEvent.h ****     }
 268:../../libDaisy/src/hid/MidiEvent.h **** 
 269:../../libDaisy/src/hid/MidiEvent.h ****     /** Returns the data within the MidiEvent as a PolyphonicKeyPressureEvent struct */
 270:../../libDaisy/src/hid/MidiEvent.h ****     PolyphonicKeyPressureEvent AsPolyphonicKeyPressure()
 271:../../libDaisy/src/hid/MidiEvent.h ****     {
 272:../../libDaisy/src/hid/MidiEvent.h ****         PolyphonicKeyPressureEvent m;
 273:../../libDaisy/src/hid/MidiEvent.h ****         m.channel  = channel;
 274:../../libDaisy/src/hid/MidiEvent.h ****         m.note     = data[0];
 275:../../libDaisy/src/hid/MidiEvent.h ****         m.pressure = data[1];
ARM GAS  C:\Users\jcjco\AppData\Local\Temp\cchBw9Ih.s 			page 49


 276:../../libDaisy/src/hid/MidiEvent.h ****         return m;
 277:../../libDaisy/src/hid/MidiEvent.h ****     }
 278:../../libDaisy/src/hid/MidiEvent.h **** 
 279:../../libDaisy/src/hid/MidiEvent.h ****     /** Returns the data within the MidiEvent as a ControlChangeEvent struct.*/
 280:../../libDaisy/src/hid/MidiEvent.h ****     ControlChangeEvent AsControlChange()
 281:../../libDaisy/src/hid/MidiEvent.h ****     {
 282:../../libDaisy/src/hid/MidiEvent.h ****         ControlChangeEvent m;
 283:../../libDaisy/src/hid/MidiEvent.h ****         m.channel        = channel;
 284:../../libDaisy/src/hid/MidiEvent.h ****         m.control_number = data[0];
 285:../../libDaisy/src/hid/MidiEvent.h ****         m.value          = data[1];
 286:../../libDaisy/src/hid/MidiEvent.h ****         return m;
 287:../../libDaisy/src/hid/MidiEvent.h ****     }
 288:../../libDaisy/src/hid/MidiEvent.h **** 
 289:../../libDaisy/src/hid/MidiEvent.h ****     /** Returns the data within the MidiEvent as a ProgramChangeEvent struct.*/
 290:../../libDaisy/src/hid/MidiEvent.h ****     ProgramChangeEvent AsProgramChange()
 291:../../libDaisy/src/hid/MidiEvent.h ****     {
 292:../../libDaisy/src/hid/MidiEvent.h ****         ProgramChangeEvent m;
 293:../../libDaisy/src/hid/MidiEvent.h ****         m.channel = channel;
 294:../../libDaisy/src/hid/MidiEvent.h ****         m.program = data[0];
 295:../../libDaisy/src/hid/MidiEvent.h ****         return m;
 296:../../libDaisy/src/hid/MidiEvent.h ****     }
 297:../../libDaisy/src/hid/MidiEvent.h **** 
 298:../../libDaisy/src/hid/MidiEvent.h ****     /** Returns the data within the MidiEvent as a ProgramChangeEvent struct.*/
 299:../../libDaisy/src/hid/MidiEvent.h ****     ChannelPressureEvent AsChannelPressure()
 300:../../libDaisy/src/hid/MidiEvent.h ****     {
 301:../../libDaisy/src/hid/MidiEvent.h ****         ChannelPressureEvent m;
 302:../../libDaisy/src/hid/MidiEvent.h ****         m.channel  = channel;
 303:../../libDaisy/src/hid/MidiEvent.h ****         m.pressure = data[0];
 304:../../libDaisy/src/hid/MidiEvent.h ****         return m;
 305:../../libDaisy/src/hid/MidiEvent.h ****     }
 306:../../libDaisy/src/hid/MidiEvent.h **** 
 307:../../libDaisy/src/hid/MidiEvent.h ****     /** Returns the data within the MidiEvent as a PitchBendEvent struct.*/
 308:../../libDaisy/src/hid/MidiEvent.h ****     PitchBendEvent AsPitchBend()
 1148              		.loc 14 308 20 view .LVU305
 1149              	.LBB334:
 309:../../libDaisy/src/hid/MidiEvent.h ****     {
 310:../../libDaisy/src/hid/MidiEvent.h ****         PitchBendEvent m;
 1150              		.loc 14 310 9 view .LVU306
 311:../../libDaisy/src/hid/MidiEvent.h ****         m.channel = channel;
 1151              		.loc 14 311 9 view .LVU307
 312:../../libDaisy/src/hid/MidiEvent.h ****         m.value   = ((uint16_t)data[1] << 7) + (data[0] - 8192);
 1152              		.loc 14 312 9 view .LVU308
 313:../../libDaisy/src/hid/MidiEvent.h ****         return m;
 1153              		.loc 14 313 9 view .LVU309
 1154              		.loc 14 313 9 is_stmt 0 view .LVU310
 1155              	.LBE334:
 1156              	.LBE333:
 118:main.cpp      **** 			{
 1157              		.loc 11 118 13 is_stmt 1 view .LVU311
 118:main.cpp      **** 			{
 1158              		.loc 11 118 26 is_stmt 0 view .LVU312
 1159 0040 AA4B     		ldr	r3, .L136
 1160 0042 93F88930 		ldrb	r3, [r3, #137]	@ zero_extendqisi2
 118:main.cpp      **** 			{
 1161              		.loc 11 118 13 view .LVU313
 1162 0046 112B     		cmp	r3, #17
 1163 0048 01D0     		beq	.L76
ARM GAS  C:\Users\jcjco\AppData\Local\Temp\cchBw9Ih.s 			page 50


 118:main.cpp      **** 			{
 1164              		.loc 11 118 61 discriminator 1 view .LVU314
 1165 004a 8B42     		cmp	r3, r1
 1166 004c F3D1     		bne	.L65
 1167              	.L76:
 120:main.cpp      **** 			}			
 1168              		.loc 11 120 5 is_stmt 1 view .LVU315
 1169              	.LBB337:
 1170              	.LBB335:
 312:../../libDaisy/src/hid/MidiEvent.h ****         return m;
 1171              		.loc 14 312 46 is_stmt 0 view .LVU316
 1172 004e A4F50054 		sub	r4, r4, #8192
 1173              	.LVL65:
 312:../../libDaisy/src/hid/MidiEvent.h ****         return m;
 1174              		.loc 14 312 46 view .LVU317
 1175              	.LBE335:
 1176              	.LBE337:
 120:main.cpp      **** 			}			
 1177              		.loc 11 120 22 view .LVU318
 1178 0052 A648     		ldr	r0, .L136
 1179              	.LBB338:
 1180              	.LBB336:
 312:../../libDaisy/src/hid/MidiEvent.h ****         return m;
 1181              		.loc 14 312 46 view .LVU319
 1182 0054 04EBC214 		add	r4, r4, r2, lsl #7
 1183              	.LVL66:
 312:../../libDaisy/src/hid/MidiEvent.h ****         return m;
 1184              		.loc 14 312 46 view .LVU320
 1185              	.LBE336:
 1186              	.LBE338:
 120:main.cpp      **** 			}			
 1187              		.loc 11 120 22 view .LVU321
 1188 0058 21B2     		sxth	r1, r4
 1189              	.LBE332:
 1190              	.LBE366:
 345:main.cpp      **** 
 1191              		.loc 11 345 1 view .LVU322
 1192 005a 03B0     		add	sp, sp, #12
 1193              		.cfi_remember_state
 1194              		.cfi_def_cfa_offset 36
 1195              		@ sp needed
 1196 005c BDE8F040 		pop	{r4, r5, r6, r7, lr}
 1197              		.cfi_restore 14
 1198              		.cfi_restore 7
 1199              		.cfi_restore 6
 1200              		.cfi_restore 5
 1201              		.cfi_restore 4
 1202              		.cfi_def_cfa_offset 16
 1203 0060 04B0     		add	sp, sp, #16
 1204              		.cfi_def_cfa_offset 0
 1205              	.LBB367:
 1206              	.LBB339:
 120:main.cpp      **** 			}			
 1207              		.loc 11 120 22 view .LVU323
 1208 0062 FFF7FEBF 		b	_ZN7VASynth9PitchBendEs
 1209              	.LVL67:
 1210              	.L69:
ARM GAS  C:\Users\jcjco\AppData\Local\Temp\cchBw9Ih.s 			page 51


 1211              		.cfi_restore_state
 120:main.cpp      **** 			}			
 1212              		.loc 11 120 22 view .LVU324
 1213              	.LBE339:
 1214              	.LBE367:
 124:main.cpp      ****         {
 1215              		.loc 11 124 9 is_stmt 1 view .LVU325
 125:main.cpp      ****             ControlChangeEvent p = m.AsControlChange();
 1216              		.loc 11 125 9 view .LVU326
 1217              	.LBB368:
 1218              	.LBB340:
 126:main.cpp      ****             switch(p.control_number)
 1219              		.loc 11 126 13 view .LVU327
 1220              	.LBB341:
 1221              	.LBI341:
 280:../../libDaisy/src/hid/MidiEvent.h ****     {
 1222              		.loc 14 280 24 view .LVU328
 1223              	.LBB342:
 282:../../libDaisy/src/hid/MidiEvent.h ****         m.channel        = channel;
 1224              		.loc 14 282 9 view .LVU329
 283:../../libDaisy/src/hid/MidiEvent.h ****         m.control_number = data[0];
 1225              		.loc 14 283 9 view .LVU330
 284:../../libDaisy/src/hid/MidiEvent.h ****         m.value          = data[1];
 1226              		.loc 14 284 9 view .LVU331
 285:../../libDaisy/src/hid/MidiEvent.h ****         return m;
 1227              		.loc 14 285 9 view .LVU332
 286:../../libDaisy/src/hid/MidiEvent.h ****     }
 1228              		.loc 14 286 9 view .LVU333
 286:../../libDaisy/src/hid/MidiEvent.h ****     }
 1229              		.loc 14 286 9 is_stmt 0 view .LVU334
 1230              	.LBE342:
 1231              	.LBE341:
 127:main.cpp      ****             {
 1232              		.loc 11 127 13 is_stmt 1 view .LVU335
 1233 0066 013C     		subs	r4, r4, #1
 1234              	.LVL68:
 127:main.cpp      ****             {
 1235              		.loc 11 127 13 is_stmt 0 view .LVU336
 1236 0068 182C     		cmp	r4, #24
 1237 006a E4D8     		bhi	.L65
 1238 006c DFE814F0 		tbh	[pc, r4, lsl #1]
 1239              	.L78:
 1240 0070 3C00     		.2byte	(.L85-.L78)/2
 1241 0072 5C00     		.2byte	(.L101-.L78)/2
 1242 0074 6600     		.2byte	(.L100-.L78)/2
 1243 0076 7000     		.2byte	(.L99-.L78)/2
 1244 0078 7C00     		.2byte	(.L98-.L78)/2
 1245 007a 8800     		.2byte	(.L97-.L78)/2
 1246 007c 9800     		.2byte	(.L96-.L78)/2
 1247 007e A900     		.2byte	(.L95-.L78)/2
 1248 0080 B500     		.2byte	(.L94-.L78)/2
 1249 0082 C100     		.2byte	(.L93-.L78)/2
 1250 0084 CD00     		.2byte	(.L92-.L78)/2
 1251 0086 D900     		.2byte	(.L91-.L78)/2
 1252 0088 E500     		.2byte	(.L90-.L78)/2
 1253 008a F100     		.2byte	(.L89-.L78)/2
 1254 008c FD00     		.2byte	(.L88-.L78)/2
ARM GAS  C:\Users\jcjco\AppData\Local\Temp\cchBw9Ih.s 			page 52


 1255 008e 0901     		.2byte	(.L87-.L78)/2
 1256 0090 5A01     		.2byte	(.L86-.L78)/2
 1257 0092 3C00     		.2byte	(.L85-.L78)/2
 1258 0094 2D01     		.2byte	(.L84-.L78)/2
 1259 0096 4E01     		.2byte	(.L83-.L78)/2
 1260 0098 1501     		.2byte	(.L82-.L78)/2
 1261 009a 1C01     		.2byte	(.L81-.L78)/2
 1262 009c 6601     		.2byte	(.L80-.L78)/2
 1263 009e 2301     		.2byte	(.L79-.L78)/2
 1264 00a0 5100     		.2byte	(.L77-.L78)/2
 1265              	.LVL69:
 1266              		.p2align 1
 1267              	.L71:
 127:main.cpp      ****             {
 1268              		.loc 11 127 13 view .LVU337
 1269              	.LBE340:
 1270              	.LBE368:
 101:main.cpp      ****         {
 1271              		.loc 11 101 9 is_stmt 1 view .LVU338
 102:main.cpp      ****             NoteOnEvent p = m.AsNoteOn();
 1272              		.loc 11 102 9 view .LVU339
 1273              	.LBB369:
 1274              	.LBB353:
 103:main.cpp      ****             if ((vasynth.midi_channel_ == MIDI_CHANNEL_ALL) || (p.channel == vasynth.midi_channel_)
 1275              		.loc 11 103 13 view .LVU340
 1276              	.LBB354:
 1277              	.LBI354:
 260:../../libDaisy/src/hid/MidiEvent.h ****     {
 1278              		.loc 14 260 17 view .LVU341
 1279              	.LBB355:
 262:../../libDaisy/src/hid/MidiEvent.h ****         m.channel  = channel;
 1280              		.loc 14 262 9 view .LVU342
 263:../../libDaisy/src/hid/MidiEvent.h ****         m.note     = data[0];
 1281              		.loc 14 263 9 view .LVU343
 264:../../libDaisy/src/hid/MidiEvent.h ****         m.velocity = data[1];
 1282              		.loc 14 264 9 view .LVU344
 265:../../libDaisy/src/hid/MidiEvent.h ****         return m;
 1283              		.loc 14 265 9 view .LVU345
 266:../../libDaisy/src/hid/MidiEvent.h ****     }
 1284              		.loc 14 266 9 view .LVU346
 266:../../libDaisy/src/hid/MidiEvent.h ****     }
 1285              		.loc 14 266 9 is_stmt 0 view .LVU347
 1286              	.LBE355:
 1287              	.LBE354:
 104:main.cpp      **** 			{
 1288              		.loc 11 104 13 is_stmt 1 view .LVU348
 104:main.cpp      **** 			{
 1289              		.loc 11 104 26 is_stmt 0 view .LVU349
 1290 00a2 924B     		ldr	r3, .L136
 1291 00a4 93F88930 		ldrb	r3, [r3, #137]	@ zero_extendqisi2
 104:main.cpp      **** 			{
 1292              		.loc 11 104 13 view .LVU350
 1293 00a8 112B     		cmp	r3, #17
 1294 00aa 01D0     		beq	.L74
 104:main.cpp      **** 			{
 1295              		.loc 11 104 61 discriminator 1 view .LVU351
 1296 00ac 8B42     		cmp	r3, r1
ARM GAS  C:\Users\jcjco\AppData\Local\Temp\cchBw9Ih.s 			page 53


 1297 00ae C2D1     		bne	.L65
 1298              	.L74:
 106:main.cpp      **** 				{
 1299              		.loc 11 106 5 is_stmt 1 view .LVU352
 106:main.cpp      **** 				{
 1300              		.loc 11 106 16 is_stmt 0 view .LVU353
 1301 00b0 8F4B     		ldr	r3, .L136+4
 106:main.cpp      **** 				{
 1302              		.loc 11 106 5 view .LVU354
 1303 00b2 1B88     		ldrh	r3, [r3]
 1304 00b4 012B     		cmp	r3, #1
 1305 00b6 00F09881 		beq	.L134
 1306              	.LVL70:
 1307              	.L75:
 110:main.cpp      **** 				hardware.SetLed(false);
 1308              		.loc 11 110 5 is_stmt 1 view .LVU355
 110:main.cpp      **** 				hardware.SetLed(false);
 1309              		.loc 11 110 20 is_stmt 0 view .LVU356
 1310 00ba 2146     		mov	r1, r4
 1311 00bc 8B48     		ldr	r0, .L136
 1312 00be FFF7FEFF 		bl	_ZN7VASynth7NoteOffEh
 1313              	.LVL71:
 111:main.cpp      **** 			}			
 1314              		.loc 11 111 5 is_stmt 1 view .LVU357
 111:main.cpp      **** 			}			
 1315              		.loc 11 111 20 is_stmt 0 view .LVU358
 1316 00c2 0021     		movs	r1, #0
 1317              	.LVL72:
 1318              	.L130:
 111:main.cpp      **** 			}			
 1319              		.loc 11 111 20 view .LVU359
 1320 00c4 8B48     		ldr	r0, .L136+8
 1321              	.LBE353:
 1322              	.LBE369:
 345:main.cpp      **** 
 1323              		.loc 11 345 1 view .LVU360
 1324 00c6 03B0     		add	sp, sp, #12
 1325              		.cfi_remember_state
 1326              		.cfi_def_cfa_offset 36
 1327              		@ sp needed
 1328 00c8 BDE8F040 		pop	{r4, r5, r6, r7, lr}
 1329              		.cfi_restore 14
 1330              		.cfi_restore 7
 1331              		.cfi_restore 6
 1332              		.cfi_restore 5
 1333              		.cfi_restore 4
 1334              		.cfi_def_cfa_offset 16
 1335              	.LVL73:
 345:main.cpp      **** 
 1336              		.loc 11 345 1 view .LVU361
 1337 00cc 04B0     		add	sp, sp, #16
 1338              		.cfi_def_cfa_offset 0
 1339              	.LBB370:
 1340              	.LBB356:
 111:main.cpp      **** 			}			
 1341              		.loc 11 111 20 view .LVU362
 1342 00ce FFF7FEBF 		b	_ZN5daisy9DaisySeed6SetLedEb
ARM GAS  C:\Users\jcjco\AppData\Local\Temp\cchBw9Ih.s 			page 54


 1343              	.LVL74:
 1344              	.L72:
 1345              		.cfi_restore_state
 111:main.cpp      **** 			}			
 1346              		.loc 11 111 20 view .LVU363
 1347              	.LBE356:
 1348              	.LBB357:
  92:main.cpp      **** 				{
 1349              		.loc 11 92 5 is_stmt 1 view .LVU364
  92:main.cpp      **** 				{
 1350              		.loc 11 92 16 is_stmt 0 view .LVU365
 1351 00d2 874B     		ldr	r3, .L136+4
  92:main.cpp      **** 				{
 1352              		.loc 11 92 5 view .LVU366
 1353 00d4 1B88     		ldrh	r3, [r3]
 1354 00d6 012B     		cmp	r3, #1
 1355 00d8 00F07F81 		beq	.L135
 1356              	.LVL75:
 1357              	.L73:
  96:main.cpp      **** 				hardware.SetLed(true);
 1358              		.loc 11 96 5 is_stmt 1 view .LVU367
  96:main.cpp      **** 				hardware.SetLed(true);
 1359              		.loc 11 96 19 is_stmt 0 view .LVU368
 1360 00dc 2146     		mov	r1, r4
 1361 00de 8348     		ldr	r0, .L136
 1362 00e0 FFF7FEFF 		bl	_ZN7VASynth6NoteOnEhh
 1363              	.LVL76:
  97:main.cpp      **** 			}
 1364              		.loc 11 97 5 is_stmt 1 view .LVU369
  97:main.cpp      **** 			}
 1365              		.loc 11 97 20 is_stmt 0 view .LVU370
 1366 00e4 0121     		movs	r1, #1
 1367 00e6 EDE7     		b	.L130
 1368              	.LVL77:
 1369              	.L85:
  97:main.cpp      **** 			}
 1370              		.loc 11 97 20 view .LVU371
 1371              	.LBE357:
 1372              	.LBB358:
 261:main.cpp      **** 						{			
 1373              		.loc 11 261 7 is_stmt 1 view .LVU372
 262:main.cpp      **** 							vasynth.filter_cutoff_ = ((float)p.value / 127.0f) * FILTER_CUTOFF_MAX;
 1374              		.loc 11 262 7 view .LVU373
 263:main.cpp      ****                		  	   vasynth.SetFilter();			
 1375              		.loc 11 263 8 view .LVU374
 263:main.cpp      ****                		  	   vasynth.SetFilter();			
 1376              		.loc 11 263 34 is_stmt 0 view .LVU375
 1377 00e8 07EE902A 		vmov	s15, r2	@ int
 263:main.cpp      ****                		  	   vasynth.SetFilter();			
 1378              		.loc 11 263 49 view .LVU376
 1379 00ec DFED866A 		vldr.32	s13, .L136+28
 263:main.cpp      ****                		  	   vasynth.SetFilter();			
 1380              		.loc 11 263 59 view .LVU377
 1381 00f0 9FED817A 		vldr.32	s14, .L136+12
 263:main.cpp      ****                		  	   vasynth.SetFilter();			
 1382              		.loc 11 263 34 view .LVU378
 1383 00f4 B8EE676A 		vcvt.f32.u32	s12, s15
ARM GAS  C:\Users\jcjco\AppData\Local\Temp\cchBw9Ih.s 			page 55


 263:main.cpp      ****                		  	   vasynth.SetFilter();			
 1384              		.loc 11 263 31 view .LVU379
 1385 00f8 7C48     		ldr	r0, .L136
 263:main.cpp      ****                		  	   vasynth.SetFilter();			
 1386              		.loc 11 263 49 view .LVU380
 1387 00fa C6EE267A 		vdiv.f32	s15, s12, s13
 263:main.cpp      ****                		  	   vasynth.SetFilter();			
 1388              		.loc 11 263 59 view .LVU381
 1389 00fe 67EE877A 		vmul.f32	s15, s15, s14
 263:main.cpp      ****                		  	   vasynth.SetFilter();			
 1390              		.loc 11 263 31 view .LVU382
 1391 0102 C0ED207A 		vstr.32	s15, [r0, #128]
 264:main.cpp      **** 					 	break;
 1392              		.loc 11 264 24 is_stmt 1 view .LVU383
 1393              	.L131:
 258:main.cpp      **** 							break;
 1394              		.loc 11 258 23 view .LVU384
 1395              	.LBE358:
 1396              	.LBE370:
 345:main.cpp      **** 
 1397              		.loc 11 345 1 is_stmt 0 view .LVU385
 1398 0106 03B0     		add	sp, sp, #12
 1399              		.cfi_remember_state
 1400              		.cfi_def_cfa_offset 36
 1401              		@ sp needed
 1402 0108 BDE8F040 		pop	{r4, r5, r6, r7, lr}
 1403              		.cfi_restore 14
 1404              		.cfi_restore 7
 1405              		.cfi_restore 6
 1406              		.cfi_restore 5
 1407              		.cfi_restore 4
 1408              		.cfi_def_cfa_offset 16
 1409              	.LVL78:
 345:main.cpp      **** 
 1410              		.loc 11 345 1 view .LVU386
 1411 010c 04B0     		add	sp, sp, #16
 1412              		.cfi_def_cfa_offset 0
 1413              	.LBB371:
 1414              	.LBB359:
 258:main.cpp      **** 							break;
 1415              		.loc 11 258 40 view .LVU387
 1416 010e FFF7FEBF 		b	_ZN7VASynth9SetFilterEv
 1417              	.LVL79:
 1418              	.L77:
 1419              		.cfi_restore_state
 329:main.cpp      **** 						{
 1420              		.loc 11 329 7 is_stmt 1 view .LVU388
 330:main.cpp      **** 							// Sequencer Mode Play
 1421              		.loc 11 330 7 view .LVU389
 332:main.cpp      **** 							seqclock = 0;
 1422              		.loc 11 332 8 view .LVU390
 333:main.cpp      **** 							seqmem = 0x00010000;
 1423              		.loc 11 333 17 is_stmt 0 view .LVU391
 1424 0112 7A4A     		ldr	r2, .L136+16
 1425              	.LVL80:
 333:main.cpp      **** 							seqmem = 0x00010000;
 1426              		.loc 11 333 17 view .LVU392
ARM GAS  C:\Users\jcjco\AppData\Local\Temp\cchBw9Ih.s 			page 56


 1427 0114 0021     		movs	r1, #0
 332:main.cpp      **** 							seqclock = 0;
 1428              		.loc 11 332 16 view .LVU393
 1429 0116 7648     		ldr	r0, .L136+4
 1430 0118 0324     		movs	r4, #3
 334:main.cpp      **** 							break;
 1431              		.loc 11 334 15 view .LVU394
 1432 011a 794B     		ldr	r3, .L136+20
 333:main.cpp      **** 							seqmem = 0x00010000;
 1433              		.loc 11 333 17 view .LVU395
 1434 011c 1180     		strh	r1, [r2]	@ movhi
 334:main.cpp      **** 							break;
 1435              		.loc 11 334 15 view .LVU396
 1436 011e 4FF48032 		mov	r2, #65536
 332:main.cpp      **** 							seqclock = 0;
 1437              		.loc 11 332 16 view .LVU397
 1438 0122 0480     		strh	r4, [r0]	@ movhi
 333:main.cpp      **** 							seqmem = 0x00010000;
 1439              		.loc 11 333 8 is_stmt 1 view .LVU398
 334:main.cpp      **** 							break;
 1440              		.loc 11 334 8 view .LVU399
 334:main.cpp      **** 							break;
 1441              		.loc 11 334 15 is_stmt 0 view .LVU400
 1442 0124 1A60     		str	r2, [r3]
 335:main.cpp      **** 						}
 1443              		.loc 11 335 8 is_stmt 1 view .LVU401
 1444              	.LBE359:
 1445              	.LBE371:
 345:main.cpp      **** 
 1446              		.loc 11 345 1 is_stmt 0 view .LVU402
 1447 0126 86E7     		b	.L65
 1448              	.LVL81:
 1449              	.L101:
 1450              	.LBB372:
 1451              	.LBB360:
 134:main.cpp      **** 
 1452              		.loc 11 134 5 is_stmt 1 discriminator 5 view .LVU403
 136:main.cpp      **** 						{
 1453              		.loc 11 136 7 discriminator 5 view .LVU404
 137:main.cpp      **** 							switch(p.value >> 5)
 1454              		.loc 11 137 7 discriminator 5 view .LVU405
 138:main.cpp      **** 							{
 1455              		.loc 11 138 8 discriminator 5 view .LVU406
 1456 0128 5209     		lsrs	r2, r2, #5
 1457              	.LVL82:
 138:main.cpp      **** 							{
 1458              		.loc 11 138 8 is_stmt 0 discriminator 5 view .LVU407
 1459 012a 032A     		cmp	r2, #3
 1460 012c 00F21D81 		bhi	.L103
 1461 0130 DFE812F0 		tbh	[pc, r2, lsl #1]
 1462              	.L105:
 1463 0134 3001     		.2byte	(.L108-.L105)/2
 1464 0136 2C01     		.2byte	(.L107-.L105)/2
 1465 0138 2801     		.2byte	(.L106-.L105)/2
 1466 013a 1801     		.2byte	(.L104-.L105)/2
 1467              	.LVL83:
 1468              		.p2align 1
ARM GAS  C:\Users\jcjco\AppData\Local\Temp\cchBw9Ih.s 			page 57


 1469              	.L100:
 156:main.cpp      **** 						{
 1470              		.loc 11 156 7 is_stmt 1 discriminator 6 view .LVU408
 157:main.cpp      **** 							switch(p.value >> 5)
 1471              		.loc 11 157 7 discriminator 6 view .LVU409
 158:main.cpp      **** 							{
 1472              		.loc 11 158 8 discriminator 6 view .LVU410
 1473 013c 5209     		lsrs	r2, r2, #5
 1474              	.LVL84:
 158:main.cpp      **** 							{
 1475              		.loc 11 158 8 is_stmt 0 discriminator 6 view .LVU411
 1476 013e 032A     		cmp	r2, #3
 1477 0140 00F21381 		bhi	.L103
 1478 0144 DFE812F0 		tbh	[pc, r2, lsl #1]
 1479              	.L110:
 1480 0148 4501     		.2byte	(.L113-.L110)/2
 1481 014a 4101     		.2byte	(.L112-.L110)/2
 1482 014c 3D01     		.2byte	(.L111-.L110)/2
 1483 014e 3901     		.2byte	(.L109-.L110)/2
 1484              	.LVL85:
 1485              		.p2align 1
 1486              	.L99:
 177:main.cpp      **** 						{
 1487              		.loc 11 177 7 is_stmt 1 view .LVU412
 178:main.cpp      **** 							vasynth.osc_mix_ = ((float)p.value / 127.0f);
 1488              		.loc 11 178 7 view .LVU413
 179:main.cpp      **** 							break;
 1489              		.loc 11 179 8 view .LVU414
 179:main.cpp      **** 							break;
 1490              		.loc 11 179 28 is_stmt 0 view .LVU415
 1491 0150 07EE902A 		vmov	s15, r2	@ int
 179:main.cpp      **** 							break;
 1492              		.loc 11 179 43 view .LVU416
 1493 0154 9FED6C7A 		vldr.32	s14, .L136+28
 179:main.cpp      **** 							break;
 1494              		.loc 11 179 25 view .LVU417
 1495 0158 644B     		ldr	r3, .L136
 179:main.cpp      **** 							break;
 1496              		.loc 11 179 28 view .LVU418
 1497 015a F8EE676A 		vcvt.f32.u32	s13, s15
 179:main.cpp      **** 							break;
 1498              		.loc 11 179 43 view .LVU419
 1499 015e C6EE877A 		vdiv.f32	s15, s13, s14
 179:main.cpp      **** 							break;
 1500              		.loc 11 179 25 view .LVU420
 1501 0162 C3ED027A 		vstr.32	s15, [r3, #8]
 180:main.cpp      **** 						}
 1502              		.loc 11 180 8 is_stmt 1 view .LVU421
 1503 0166 66E7     		b	.L65
 1504              	.L98:
 182:main.cpp      **** 						{
 1505              		.loc 11 182 7 view .LVU422
 183:main.cpp      **** 							vasynth.osc2_detune_ = ((float)p.value / 255.0f);
 1506              		.loc 11 183 7 view .LVU423
 184:main.cpp      **** 							break;
 1507              		.loc 11 184 8 view .LVU424
 184:main.cpp      **** 							break;
ARM GAS  C:\Users\jcjco\AppData\Local\Temp\cchBw9Ih.s 			page 58


 1508              		.loc 11 184 32 is_stmt 0 view .LVU425
 1509 0168 07EE902A 		vmov	s15, r2	@ int
 184:main.cpp      **** 							break;
 1510              		.loc 11 184 47 view .LVU426
 1511 016c 9FED657A 		vldr.32	s14, .L136+24
 184:main.cpp      **** 							break;
 1512              		.loc 11 184 29 view .LVU427
 1513 0170 5E4B     		ldr	r3, .L136
 184:main.cpp      **** 							break;
 1514              		.loc 11 184 32 view .LVU428
 1515 0172 F8EE676A 		vcvt.f32.u32	s13, s15
 184:main.cpp      **** 							break;
 1516              		.loc 11 184 47 view .LVU429
 1517 0176 C6EE877A 		vdiv.f32	s15, s13, s14
 184:main.cpp      **** 							break;
 1518              		.loc 11 184 29 view .LVU430
 1519 017a C3ED067A 		vstr.32	s15, [r3, #24]
 185:main.cpp      **** 						}
 1520              		.loc 11 185 8 is_stmt 1 view .LVU431
 1521 017e 5AE7     		b	.L65
 1522              	.L97:
 187:main.cpp      **** 						{
 1523              		.loc 11 187 7 view .LVU432
 188:main.cpp      **** 							vasynth.osc2_transpose_ = (1.0f + ((float)p.value / 127.0f));
 1524              		.loc 11 188 7 view .LVU433
 189:main.cpp      **** 							break;
 1525              		.loc 11 189 8 view .LVU434
 189:main.cpp      **** 							break;
 1526              		.loc 11 189 43 is_stmt 0 view .LVU435
 1527 0180 07EE902A 		vmov	s15, r2	@ int
 189:main.cpp      **** 							break;
 1528              		.loc 11 189 58 view .LVU436
 1529 0184 DFED606A 		vldr.32	s13, .L136+28
 189:main.cpp      **** 							break;
 1530              		.loc 11 189 40 view .LVU437
 1531 0188 B7EE007A 		vmov.f32	s14, #1.0e+0
 189:main.cpp      **** 							break;
 1532              		.loc 11 189 32 view .LVU438
 1533 018c 574B     		ldr	r3, .L136
 189:main.cpp      **** 							break;
 1534              		.loc 11 189 43 view .LVU439
 1535 018e B8EE676A 		vcvt.f32.u32	s12, s15
 189:main.cpp      **** 							break;
 1536              		.loc 11 189 58 view .LVU440
 1537 0192 C6EE267A 		vdiv.f32	s15, s12, s13
 189:main.cpp      **** 							break;
 1538              		.loc 11 189 40 view .LVU441
 1539 0196 77EE877A 		vadd.f32	s15, s15, s14
 189:main.cpp      **** 							break;
 1540              		.loc 11 189 32 view .LVU442
 1541 019a C3ED077A 		vstr.32	s15, [r3, #28]
 190:main.cpp      **** 						}
 1542              		.loc 11 190 8 is_stmt 1 view .LVU443
 1543 019e 4AE7     		b	.L65
 1544              	.L96:
 192:main.cpp      **** 						{
 1545              		.loc 11 192 7 view .LVU444
ARM GAS  C:\Users\jcjco\AppData\Local\Temp\cchBw9Ih.s 			page 59


 193:main.cpp      **** 							vasynth.eg_f_attack_ = ((float)p.value / 127.0f);
 1546              		.loc 11 193 7 view .LVU445
 194:main.cpp      **** 							vasynth.SetEG();
 1547              		.loc 11 194 8 view .LVU446
 194:main.cpp      **** 							vasynth.SetEG();
 1548              		.loc 11 194 32 is_stmt 0 view .LVU447
 1549 01a0 07EE902A 		vmov	s15, r2	@ int
 194:main.cpp      **** 							vasynth.SetEG();
 1550              		.loc 11 194 47 view .LVU448
 1551 01a4 9FED587A 		vldr.32	s14, .L136+28
 194:main.cpp      **** 							vasynth.SetEG();
 1552              		.loc 11 194 29 view .LVU449
 1553 01a8 5048     		ldr	r0, .L136
 194:main.cpp      **** 							vasynth.SetEG();
 1554              		.loc 11 194 32 view .LVU450
 1555 01aa F8EE676A 		vcvt.f32.u32	s13, s15
 194:main.cpp      **** 							vasynth.SetEG();
 1556              		.loc 11 194 47 view .LVU451
 1557 01ae C6EE877A 		vdiv.f32	s15, s13, s14
 194:main.cpp      **** 							vasynth.SetEG();
 1558              		.loc 11 194 29 view .LVU452
 1559 01b2 C0ED0D7A 		vstr.32	s15, [r0, #52]
 195:main.cpp      **** 							break;
 1560              		.loc 11 195 8 is_stmt 1 view .LVU453
 1561              	.L133:
 202:main.cpp      **** 							break;
 1562              		.loc 11 202 8 view .LVU454
 1563              	.LBE360:
 1564              	.LBE372:
 345:main.cpp      **** 
 1565              		.loc 11 345 1 is_stmt 0 view .LVU455
 1566 01b6 03B0     		add	sp, sp, #12
 1567              		.cfi_remember_state
 1568              		.cfi_def_cfa_offset 36
 1569              		@ sp needed
 1570 01b8 BDE8F040 		pop	{r4, r5, r6, r7, lr}
 1571              		.cfi_restore 14
 1572              		.cfi_restore 7
 1573              		.cfi_restore 6
 1574              		.cfi_restore 5
 1575              		.cfi_restore 4
 1576              		.cfi_def_cfa_offset 16
 1577 01bc 04B0     		add	sp, sp, #16
 1578              		.cfi_def_cfa_offset 0
 1579              	.LBB373:
 1580              	.LBB361:
 202:main.cpp      **** 							break;
 1581              		.loc 11 202 21 view .LVU456
 1582 01be FFF7FEBF 		b	_ZN7VASynth5SetEGEv
 1583              	.LVL86:
 1584              	.L95:
 1585              		.cfi_restore_state
 199:main.cpp      **** 						{
 1586              		.loc 11 199 7 is_stmt 1 view .LVU457
 200:main.cpp      **** 							vasynth.eg_f_decay_ = ((float)p.value / 127.0f);
 1587              		.loc 11 200 7 view .LVU458
 201:main.cpp      **** 							vasynth.SetEG();
ARM GAS  C:\Users\jcjco\AppData\Local\Temp\cchBw9Ih.s 			page 60


 1588              		.loc 11 201 8 view .LVU459
 201:main.cpp      **** 							vasynth.SetEG();
 1589              		.loc 11 201 31 is_stmt 0 view .LVU460
 1590 01c2 07EE902A 		vmov	s15, r2	@ int
 201:main.cpp      **** 							vasynth.SetEG();
 1591              		.loc 11 201 46 view .LVU461
 1592 01c6 9FED507A 		vldr.32	s14, .L136+28
 201:main.cpp      **** 							vasynth.SetEG();
 1593              		.loc 11 201 28 view .LVU462
 1594 01ca 4848     		ldr	r0, .L136
 201:main.cpp      **** 							vasynth.SetEG();
 1595              		.loc 11 201 31 view .LVU463
 1596 01cc F8EE676A 		vcvt.f32.u32	s13, s15
 201:main.cpp      **** 							vasynth.SetEG();
 1597              		.loc 11 201 46 view .LVU464
 1598 01d0 C6EE877A 		vdiv.f32	s15, s13, s14
 201:main.cpp      **** 							vasynth.SetEG();
 1599              		.loc 11 201 28 view .LVU465
 1600 01d4 C0ED0E7A 		vstr.32	s15, [r0, #56]
 1601 01d8 EDE7     		b	.L133
 1602              	.L94:
 205:main.cpp      **** 							{
 1603              		.loc 11 205 7 is_stmt 1 view .LVU466
 206:main.cpp      **** 							vasynth.eg_f_sustain_ = ((float)p.value / 127.0f);
 1604              		.loc 11 206 8 view .LVU467
 207:main.cpp      **** 							vasynth.SetEG();
 1605              		.loc 11 207 8 view .LVU468
 207:main.cpp      **** 							vasynth.SetEG();
 1606              		.loc 11 207 33 is_stmt 0 view .LVU469
 1607 01da 07EE902A 		vmov	s15, r2	@ int
 207:main.cpp      **** 							vasynth.SetEG();
 1608              		.loc 11 207 48 view .LVU470
 1609 01de 9FED4A7A 		vldr.32	s14, .L136+28
 207:main.cpp      **** 							vasynth.SetEG();
 1610              		.loc 11 207 30 view .LVU471
 1611 01e2 4248     		ldr	r0, .L136
 207:main.cpp      **** 							vasynth.SetEG();
 1612              		.loc 11 207 33 view .LVU472
 1613 01e4 F8EE676A 		vcvt.f32.u32	s13, s15
 207:main.cpp      **** 							vasynth.SetEG();
 1614              		.loc 11 207 48 view .LVU473
 1615 01e8 C6EE877A 		vdiv.f32	s15, s13, s14
 207:main.cpp      **** 							vasynth.SetEG();
 1616              		.loc 11 207 30 view .LVU474
 1617 01ec C0ED0F7A 		vstr.32	s15, [r0, #60]
 208:main.cpp      **** 							break;
 1618              		.loc 11 208 8 is_stmt 1 view .LVU475
 1619 01f0 E1E7     		b	.L133
 1620              	.L93:
 212:main.cpp      **** 						{
 1621              		.loc 11 212 7 view .LVU476
 213:main.cpp      **** 							vasynth.eg_f_release_ = ((float)p.value / 127.0f);
 1622              		.loc 11 213 7 view .LVU477
 214:main.cpp      **** 							vasynth.SetEG();
 1623              		.loc 11 214 8 view .LVU478
 214:main.cpp      **** 							vasynth.SetEG();
 1624              		.loc 11 214 33 is_stmt 0 view .LVU479
ARM GAS  C:\Users\jcjco\AppData\Local\Temp\cchBw9Ih.s 			page 61


 1625 01f2 07EE902A 		vmov	s15, r2	@ int
 214:main.cpp      **** 							vasynth.SetEG();
 1626              		.loc 11 214 48 view .LVU480
 1627 01f6 9FED447A 		vldr.32	s14, .L136+28
 214:main.cpp      **** 							vasynth.SetEG();
 1628              		.loc 11 214 30 view .LVU481
 1629 01fa 3C48     		ldr	r0, .L136
 214:main.cpp      **** 							vasynth.SetEG();
 1630              		.loc 11 214 33 view .LVU482
 1631 01fc F8EE676A 		vcvt.f32.u32	s13, s15
 214:main.cpp      **** 							vasynth.SetEG();
 1632              		.loc 11 214 48 view .LVU483
 1633 0200 C6EE877A 		vdiv.f32	s15, s13, s14
 214:main.cpp      **** 							vasynth.SetEG();
 1634              		.loc 11 214 30 view .LVU484
 1635 0204 C0ED107A 		vstr.32	s15, [r0, #64]
 215:main.cpp      **** 							break;
 1636              		.loc 11 215 8 is_stmt 1 view .LVU485
 1637 0208 D5E7     		b	.L133
 1638              	.L92:
 218:main.cpp      **** 						{
 1639              		.loc 11 218 7 view .LVU486
 219:main.cpp      **** 							vasynth.eg_a_attack_ = ((float)p.value / 127.0f);
 1640              		.loc 11 219 7 view .LVU487
 220:main.cpp      **** 							vasynth.SetEG();
 1641              		.loc 11 220 8 view .LVU488
 220:main.cpp      **** 							vasynth.SetEG();
 1642              		.loc 11 220 32 is_stmt 0 view .LVU489
 1643 020a 07EE902A 		vmov	s15, r2	@ int
 220:main.cpp      **** 							vasynth.SetEG();
 1644              		.loc 11 220 47 view .LVU490
 1645 020e 9FED3E7A 		vldr.32	s14, .L136+28
 220:main.cpp      **** 							vasynth.SetEG();
 1646              		.loc 11 220 29 view .LVU491
 1647 0212 3648     		ldr	r0, .L136
 220:main.cpp      **** 							vasynth.SetEG();
 1648              		.loc 11 220 32 view .LVU492
 1649 0214 F8EE676A 		vcvt.f32.u32	s13, s15
 220:main.cpp      **** 							vasynth.SetEG();
 1650              		.loc 11 220 47 view .LVU493
 1651 0218 C6EE877A 		vdiv.f32	s15, s13, s14
 220:main.cpp      **** 							vasynth.SetEG();
 1652              		.loc 11 220 29 view .LVU494
 1653 021c C0ED097A 		vstr.32	s15, [r0, #36]
 221:main.cpp      **** 							break;
 1654              		.loc 11 221 8 is_stmt 1 view .LVU495
 1655 0220 C9E7     		b	.L133
 1656              	.L91:
 226:main.cpp      **** 						{
 1657              		.loc 11 226 7 view .LVU496
 227:main.cpp      **** 							vasynth.eg_a_decay_ = ((float)p.value / 127.0f);
 1658              		.loc 11 227 7 view .LVU497
 228:main.cpp      **** 							vasynth.SetEG();
 1659              		.loc 11 228 8 view .LVU498
 228:main.cpp      **** 							vasynth.SetEG();
 1660              		.loc 11 228 31 is_stmt 0 view .LVU499
 1661 0222 07EE902A 		vmov	s15, r2	@ int
ARM GAS  C:\Users\jcjco\AppData\Local\Temp\cchBw9Ih.s 			page 62


 228:main.cpp      **** 							vasynth.SetEG();
 1662              		.loc 11 228 46 view .LVU500
 1663 0226 9FED387A 		vldr.32	s14, .L136+28
 228:main.cpp      **** 							vasynth.SetEG();
 1664              		.loc 11 228 28 view .LVU501
 1665 022a 3048     		ldr	r0, .L136
 228:main.cpp      **** 							vasynth.SetEG();
 1666              		.loc 11 228 31 view .LVU502
 1667 022c F8EE676A 		vcvt.f32.u32	s13, s15
 228:main.cpp      **** 							vasynth.SetEG();
 1668              		.loc 11 228 46 view .LVU503
 1669 0230 C6EE877A 		vdiv.f32	s15, s13, s14
 228:main.cpp      **** 							vasynth.SetEG();
 1670              		.loc 11 228 28 view .LVU504
 1671 0234 C0ED0A7A 		vstr.32	s15, [r0, #40]
 229:main.cpp      **** 							break;
 1672              		.loc 11 229 8 is_stmt 1 view .LVU505
 1673 0238 BDE7     		b	.L133
 1674              	.L90:
 232:main.cpp      **** 						{
 1675              		.loc 11 232 7 view .LVU506
 233:main.cpp      **** 							vasynth.eg_a_sustain_ = ((float)p.value / 127.0f);
 1676              		.loc 11 233 7 view .LVU507
 234:main.cpp      **** 							vasynth.SetEG();
 1677              		.loc 11 234 8 view .LVU508
 234:main.cpp      **** 							vasynth.SetEG();
 1678              		.loc 11 234 33 is_stmt 0 view .LVU509
 1679 023a 07EE902A 		vmov	s15, r2	@ int
 234:main.cpp      **** 							vasynth.SetEG();
 1680              		.loc 11 234 48 view .LVU510
 1681 023e 9FED327A 		vldr.32	s14, .L136+28
 234:main.cpp      **** 							vasynth.SetEG();
 1682              		.loc 11 234 30 view .LVU511
 1683 0242 2A48     		ldr	r0, .L136
 234:main.cpp      **** 							vasynth.SetEG();
 1684              		.loc 11 234 33 view .LVU512
 1685 0244 F8EE676A 		vcvt.f32.u32	s13, s15
 234:main.cpp      **** 							vasynth.SetEG();
 1686              		.loc 11 234 48 view .LVU513
 1687 0248 C6EE877A 		vdiv.f32	s15, s13, s14
 234:main.cpp      **** 							vasynth.SetEG();
 1688              		.loc 11 234 30 view .LVU514
 1689 024c C0ED0B7A 		vstr.32	s15, [r0, #44]
 235:main.cpp      **** 							break;
 1690              		.loc 11 235 8 is_stmt 1 view .LVU515
 1691 0250 B1E7     		b	.L133
 1692              	.L89:
 238:main.cpp      **** 						{
 1693              		.loc 11 238 7 view .LVU516
 239:main.cpp      **** 							vasynth.eg_a_release_ = ((float)p.value / 127.0f);
 1694              		.loc 11 239 7 view .LVU517
 240:main.cpp      **** 							vasynth.SetEG();
 1695              		.loc 11 240 8 view .LVU518
 240:main.cpp      **** 							vasynth.SetEG();
 1696              		.loc 11 240 33 is_stmt 0 view .LVU519
 1697 0252 07EE902A 		vmov	s15, r2	@ int
 240:main.cpp      **** 							vasynth.SetEG();
ARM GAS  C:\Users\jcjco\AppData\Local\Temp\cchBw9Ih.s 			page 63


 1698              		.loc 11 240 48 view .LVU520
 1699 0256 9FED2C7A 		vldr.32	s14, .L136+28
 240:main.cpp      **** 							vasynth.SetEG();
 1700              		.loc 11 240 30 view .LVU521
 1701 025a 2448     		ldr	r0, .L136
 240:main.cpp      **** 							vasynth.SetEG();
 1702              		.loc 11 240 33 view .LVU522
 1703 025c F8EE676A 		vcvt.f32.u32	s13, s15
 240:main.cpp      **** 							vasynth.SetEG();
 1704              		.loc 11 240 48 view .LVU523
 1705 0260 C6EE877A 		vdiv.f32	s15, s13, s14
 240:main.cpp      **** 							vasynth.SetEG();
 1706              		.loc 11 240 30 view .LVU524
 1707 0264 C0ED0C7A 		vstr.32	s15, [r0, #48]
 241:main.cpp      **** 							break;
 1708              		.loc 11 241 8 is_stmt 1 view .LVU525
 1709 0268 A5E7     		b	.L133
 1710              	.L88:
 245:main.cpp      **** 						{
 1711              		.loc 11 245 7 view .LVU526
 246:main.cpp      **** 							vasynth.vcf_kbd_follow_= ((float)p.value / 127.0f);
 1712              		.loc 11 246 7 view .LVU527
 247:main.cpp      **** 							break;
 1713              		.loc 11 247 8 view .LVU528
 247:main.cpp      **** 							break;
 1714              		.loc 11 247 34 is_stmt 0 view .LVU529
 1715 026a 07EE902A 		vmov	s15, r2	@ int
 247:main.cpp      **** 							break;
 1716              		.loc 11 247 49 view .LVU530
 1717 026e 9FED267A 		vldr.32	s14, .L136+28
 247:main.cpp      **** 							break;
 1718              		.loc 11 247 31 view .LVU531
 1719 0272 1E4B     		ldr	r3, .L136
 247:main.cpp      **** 							break;
 1720              		.loc 11 247 34 view .LVU532
 1721 0274 F8EE676A 		vcvt.f32.u32	s13, s15
 247:main.cpp      **** 							break;
 1722              		.loc 11 247 49 view .LVU533
 1723 0278 C6EE877A 		vdiv.f32	s15, s13, s14
 247:main.cpp      **** 							break;
 1724              		.loc 11 247 31 view .LVU534
 1725 027c C3ED1D7A 		vstr.32	s15, [r3, #116]
 248:main.cpp      **** 						}
 1726              		.loc 11 248 8 is_stmt 1 view .LVU535
 1727 0280 D9E6     		b	.L65
 1728              	.L87:
 250:main.cpp      **** 						{
 1729              		.loc 11 250 7 view .LVU536
 251:main.cpp      **** 							vasynth.env_kbd_follow_ = ((float)p.value / 127.0f);
 1730              		.loc 11 251 7 view .LVU537
 252:main.cpp      **** 							break;
 1731              		.loc 11 252 8 view .LVU538
 252:main.cpp      **** 							break;
 1732              		.loc 11 252 35 is_stmt 0 view .LVU539
 1733 0282 07EE902A 		vmov	s15, r2	@ int
 252:main.cpp      **** 							break;
 1734              		.loc 11 252 50 view .LVU540
ARM GAS  C:\Users\jcjco\AppData\Local\Temp\cchBw9Ih.s 			page 64


 1735 0286 9FED207A 		vldr.32	s14, .L136+28
 252:main.cpp      **** 							break;
 1736              		.loc 11 252 32 view .LVU541
 1737 028a 184B     		ldr	r3, .L136
 252:main.cpp      **** 							break;
 1738              		.loc 11 252 35 view .LVU542
 1739 028c F8EE676A 		vcvt.f32.u32	s13, s15
 252:main.cpp      **** 							break;
 1740              		.loc 11 252 50 view .LVU543
 1741 0290 C6EE877A 		vdiv.f32	s15, s13, s14
 252:main.cpp      **** 							break;
 1742              		.loc 11 252 32 view .LVU544
 1743 0294 C3ED1E7A 		vstr.32	s15, [r3, #120]
 253:main.cpp      **** 						}
 1744              		.loc 11 253 8 is_stmt 1 view .LVU545
 1745 0298 CDE6     		b	.L65
 1746              	.L82:
 280:main.cpp      **** 						{
 1747              		.loc 11 280 7 discriminator 7 view .LVU546
 281:main.cpp      **** 							switch(p.value >> 5)
 1748              		.loc 11 281 7 discriminator 7 view .LVU547
 282:main.cpp      **** 							{
 1749              		.loc 11 282 8 discriminator 7 view .LVU548
 1750 029a 5209     		lsrs	r2, r2, #5
 1751              	.LVL87:
 282:main.cpp      **** 							{
 1752              		.loc 11 282 8 is_stmt 0 discriminator 7 view .LVU549
 1753 029c 032A     		cmp	r2, #3
 1754 029e 6FD8     		bhi	.L114
 1755 02a0 DFE802F0 		tbb	[pc, r2]
 1756              	.L116:
 1757 02a4 81       		.byte	(.L119-.L116)/2
 1758 02a5 86       		.byte	(.L118-.L116)/2
 1759 02a6 7C       		.byte	(.L117-.L116)/2
 1760 02a7 6A       		.byte	(.L115-.L116)/2
 1761              	.LVL88:
 1762              		.p2align 1
 1763              	.L81:
 300:main.cpp      **** 						{
 1764              		.loc 11 300 7 is_stmt 1 view .LVU550
 301:main.cpp      **** 							// Sequencer Mode Record
 1765              		.loc 11 301 7 view .LVU551
 303:main.cpp      **** 							seqclock = 0;
 1766              		.loc 11 303 8 view .LVU552
 303:main.cpp      **** 							seqclock = 0;
 1767              		.loc 11 303 16 is_stmt 0 view .LVU553
 1768 02a8 1149     		ldr	r1, .L136+4
 1769 02aa 0120     		movs	r0, #1
 304:main.cpp      **** 							break;
 1770              		.loc 11 304 17 view .LVU554
 1771 02ac 134B     		ldr	r3, .L136+16
 1772 02ae 0022     		movs	r2, #0
 1773              	.LVL89:
 303:main.cpp      **** 							seqclock = 0;
 1774              		.loc 11 303 16 view .LVU555
 1775 02b0 0880     		strh	r0, [r1]	@ movhi
 304:main.cpp      **** 							break;
ARM GAS  C:\Users\jcjco\AppData\Local\Temp\cchBw9Ih.s 			page 65


 1776              		.loc 11 304 8 is_stmt 1 view .LVU556
 304:main.cpp      **** 							break;
 1777              		.loc 11 304 17 is_stmt 0 view .LVU557
 1778 02b2 1A80     		strh	r2, [r3]	@ movhi
 305:main.cpp      **** 						}
 1779              		.loc 11 305 8 is_stmt 1 view .LVU558
 1780 02b4 BFE6     		b	.L65
 1781              	.LVL90:
 1782              	.L79:
 321:main.cpp      **** 						{
 1783              		.loc 11 321 7 view .LVU559
 322:main.cpp      **** 							// Sequencer Mode Stop
 1784              		.loc 11 322 7 view .LVU560
 324:main.cpp      **** 							seqclock = 0;
 1785              		.loc 11 324 8 view .LVU561
 324:main.cpp      **** 							seqclock = 0;
 1786              		.loc 11 324 16 is_stmt 0 view .LVU562
 1787 02b6 0023     		movs	r3, #0
 1788 02b8 0D4C     		ldr	r4, .L136+4
 325:main.cpp      **** 							seqmem = 0x00010000;
 1789              		.loc 11 325 17 view .LVU563
 1790 02ba 1048     		ldr	r0, .L136+16
 326:main.cpp      **** 							break;
 1791              		.loc 11 326 15 view .LVU564
 1792 02bc 4FF48031 		mov	r1, #65536
 1793 02c0 0F4A     		ldr	r2, .L136+20
 1794              	.LVL91:
 324:main.cpp      **** 							seqclock = 0;
 1795              		.loc 11 324 16 view .LVU565
 1796 02c2 2380     		strh	r3, [r4]	@ movhi
 325:main.cpp      **** 							seqmem = 0x00010000;
 1797              		.loc 11 325 8 is_stmt 1 view .LVU566
 325:main.cpp      **** 							seqmem = 0x00010000;
 1798              		.loc 11 325 17 is_stmt 0 view .LVU567
 1799 02c4 0380     		strh	r3, [r0]	@ movhi
 326:main.cpp      **** 							break;
 1800              		.loc 11 326 8 is_stmt 1 view .LVU568
 326:main.cpp      **** 							break;
 1801              		.loc 11 326 15 is_stmt 0 view .LVU569
 1802 02c6 1160     		str	r1, [r2]
 327:main.cpp      **** 						}
 1803              		.loc 11 327 8 is_stmt 1 view .LVU570
 1804 02c8 B5E6     		b	.L65
 1805              	.LVL92:
 1806              	.L84:
 268:main.cpp      **** 						{
 1807              		.loc 11 268 7 view .LVU571
 269:main.cpp      **** 							vasynth.vcavcflfo_freq_ = ((float)p.value / 127.0f);
 1808              		.loc 11 269 7 view .LVU572
 270:main.cpp      **** 							vasynth.SetVCAVCFLFO();
 1809              		.loc 11 270 8 view .LVU573
 270:main.cpp      **** 							vasynth.SetVCAVCFLFO();
 1810              		.loc 11 270 35 is_stmt 0 view .LVU574
 1811 02ca 07EE902A 		vmov	s15, r2	@ int
 270:main.cpp      **** 							vasynth.SetVCAVCFLFO();
 1812              		.loc 11 270 50 view .LVU575
 1813 02ce 9FED0E7A 		vldr.32	s14, .L136+28
ARM GAS  C:\Users\jcjco\AppData\Local\Temp\cchBw9Ih.s 			page 66


 270:main.cpp      **** 							vasynth.SetVCAVCFLFO();
 1814              		.loc 11 270 32 view .LVU576
 1815 02d2 0648     		ldr	r0, .L136
 270:main.cpp      **** 							vasynth.SetVCAVCFLFO();
 1816              		.loc 11 270 35 view .LVU577
 1817 02d4 F8EE676A 		vcvt.f32.u32	s13, s15
 270:main.cpp      **** 							vasynth.SetVCAVCFLFO();
 1818              		.loc 11 270 50 view .LVU578
 1819 02d8 C6EE877A 		vdiv.f32	s15, s13, s14
 270:main.cpp      **** 							vasynth.SetVCAVCFLFO();
 1820              		.loc 11 270 32 view .LVU579
 1821 02dc C0ED1B7A 		vstr.32	s15, [r0, #108]
 271:main.cpp      **** 							break;
 1822              		.loc 11 271 8 is_stmt 1 view .LVU580
 1823              	.LVL93:
 1824              	.L132:
 271:main.cpp      **** 							break;
 1825              		.loc 11 271 8 is_stmt 0 view .LVU581
 1826              	.LBE361:
 1827              	.LBE373:
 345:main.cpp      **** 
 1828              		.loc 11 345 1 view .LVU582
 1829 02e0 03B0     		add	sp, sp, #12
 1830              		.cfi_remember_state
 1831              		.cfi_def_cfa_offset 36
 1832              		@ sp needed
 1833 02e2 BDE8F040 		pop	{r4, r5, r6, r7, lr}
 1834              		.cfi_restore 14
 1835              		.cfi_restore 7
 1836              		.cfi_restore 6
 1837              		.cfi_restore 5
 1838              		.cfi_restore 4
 1839              		.cfi_def_cfa_offset 16
 1840 02e6 04B0     		add	sp, sp, #16
 1841              		.cfi_def_cfa_offset 0
 1842              	.LBB374:
 1843              	.LBB362:
 297:main.cpp      **** 								break;
 1844              		.loc 11 297 29 view .LVU583
 1845 02e8 FFF7FEBF 		b	_ZN7VASynth12SetVCAVCFLFOEv
 1846              	.LVL94:
 1847              	.L137:
 1848              		.align	2
 1849              	.L136:
 1850 02ec 00000000 		.word	.LANCHOR1
 1851 02f0 00000000 		.word	.LANCHOR8
 1852 02f4 00000000 		.word	.LANCHOR9
 1853 02f8 00A08C46 		.word	1183621120
 1854 02fc 00000000 		.word	.LANCHOR4
 1855 0300 00000000 		.word	.LANCHOR2
 1856 0304 00007F43 		.word	1132396544
 1857 0308 0000FE42 		.word	1123942400
 1858              	.LVL95:
 1859              	.L83:
 1860              		.cfi_restore_state
 274:main.cpp      **** 						{
 1861              		.loc 11 274 7 is_stmt 1 view .LVU584
ARM GAS  C:\Users\jcjco\AppData\Local\Temp\cchBw9Ih.s 			page 67


 275:main.cpp      **** 							vasynth.vcavcflfo_amp_ = ((float)p.value / 127.0f);
 1862              		.loc 11 275 7 view .LVU585
 276:main.cpp      **** 							vasynth.SetVCAVCFLFO();
 1863              		.loc 11 276 8 view .LVU586
 276:main.cpp      **** 							vasynth.SetVCAVCFLFO();
 1864              		.loc 11 276 34 is_stmt 0 view .LVU587
 1865 030c 07EE902A 		vmov	s15, r2	@ int
 276:main.cpp      **** 							vasynth.SetVCAVCFLFO();
 1866              		.loc 11 276 49 view .LVU588
 1867 0310 1FED037A 		vldr.32	s14, .L136+28
 276:main.cpp      **** 							vasynth.SetVCAVCFLFO();
 1868              		.loc 11 276 31 view .LVU589
 1869 0314 3748     		ldr	r0, .L138
 276:main.cpp      **** 							vasynth.SetVCAVCFLFO();
 1870              		.loc 11 276 34 view .LVU590
 1871 0316 F8EE676A 		vcvt.f32.u32	s13, s15
 276:main.cpp      **** 							vasynth.SetVCAVCFLFO();
 1872              		.loc 11 276 49 view .LVU591
 1873 031a C6EE877A 		vdiv.f32	s15, s13, s14
 276:main.cpp      **** 							vasynth.SetVCAVCFLFO();
 1874              		.loc 11 276 31 view .LVU592
 1875 031e C0ED1C7A 		vstr.32	s15, [r0, #112]
 277:main.cpp      **** 							break;
 1876              		.loc 11 277 8 is_stmt 1 view .LVU593
 1877 0322 DDE7     		b	.L132
 1878              	.L86:
 255:main.cpp      **** 						{
 1879              		.loc 11 255 6 view .LVU594
 256:main.cpp      **** 							vasynth.filter_res_ = ((float)p.value / 127.0f);
 1880              		.loc 11 256 7 view .LVU595
 257:main.cpp      ****                     		vasynth.SetFilter();
 1881              		.loc 11 257 8 view .LVU596
 257:main.cpp      ****                     		vasynth.SetFilter();
 1882              		.loc 11 257 31 is_stmt 0 view .LVU597
 1883 0324 07EE902A 		vmov	s15, r2	@ int
 257:main.cpp      ****                     		vasynth.SetFilter();
 1884              		.loc 11 257 46 view .LVU598
 1885 0328 9FED337A 		vldr.32	s14, .L138+4
 257:main.cpp      ****                     		vasynth.SetFilter();
 1886              		.loc 11 257 28 view .LVU599
 1887 032c 3148     		ldr	r0, .L138
 257:main.cpp      ****                     		vasynth.SetFilter();
 1888              		.loc 11 257 31 view .LVU600
 1889 032e F8EE676A 		vcvt.f32.u32	s13, s15
 257:main.cpp      ****                     		vasynth.SetFilter();
 1890              		.loc 11 257 46 view .LVU601
 1891 0332 C6EE877A 		vdiv.f32	s15, s13, s14
 257:main.cpp      ****                     		vasynth.SetFilter();
 1892              		.loc 11 257 28 view .LVU602
 1893 0336 C0ED1F7A 		vstr.32	s15, [r0, #124]
 1894 033a E4E6     		b	.L131
 1895              	.L80:
 307:main.cpp      **** 						{
 1896              		.loc 11 307 7 is_stmt 1 view .LVU603
 308:main.cpp      **** 							// Sequencer Mode Record End
 1897              		.loc 11 308 7 view .LVU604
 310:main.cpp      **** 							// Place a time-stamp and stop marker at the current position and stop the sequencer
ARM GAS  C:\Users\jcjco\AppData\Local\Temp\cchBw9Ih.s 			page 68


 1898              		.loc 11 310 8 view .LVU605
 312:main.cpp      **** 							seqmem++;
 1899              		.loc 11 312 8 view .LVU606
 312:main.cpp      **** 							seqmem++;
 1900              		.loc 11 312 21 is_stmt 0 view .LVU607
 1901 033c 2F4B     		ldr	r3, .L138+8
 1902              	.LBB343:
 1903              	.LBB344:
 454:main.cpp      **** }
 1904              		.loc 11 454 60 view .LVU608
 1905 033e 4FF6FF7E 		movw	lr, #65535
 1906              	.LBE344:
 1907              	.LBE343:
 312:main.cpp      **** 							seqmem++;
 1908              		.loc 11 312 21 view .LVU609
 1909 0342 2F4A     		ldr	r2, .L138+12
 1910              	.LVL96:
 316:main.cpp      **** 							seqclock = 0;
 1911              		.loc 11 316 16 view .LVU610
 1912 0344 0021     		movs	r1, #0
 312:main.cpp      **** 							seqmem++;
 1913              		.loc 11 312 21 view .LVU611
 1914 0346 1868     		ldr	r0, [r3]
 1915 0348 1688     		ldrh	r6, [r2]
 1916              	.LVL97:
 1917              	.LBB347:
 1918              	.LBI347:
 451:main.cpp      **** {
 1919              		.loc 11 451 6 is_stmt 1 view .LVU612
 1920              	.LBB348:
 454:main.cpp      **** }
 1921              		.loc 11 454 3 view .LVU613
 454:main.cpp      **** }
 1922              		.loc 11 454 48 is_stmt 0 view .LVU614
 1923 034a 00F10055 		add	r5, r0, #536870912
 1924              	.LBE348:
 1925              	.LBE347:
 1926              	.LBB350:
 1927              	.LBB345:
 1928 034e 2D4F     		ldr	r7, .L138+16
 1929              	.LBE345:
 1930              	.LBE350:
 316:main.cpp      **** 							seqclock = 0;
 1931              		.loc 11 316 16 view .LVU615
 1932 0350 2D4C     		ldr	r4, .L138+20
 1933              	.LBB351:
 1934              	.LBB349:
 454:main.cpp      **** }
 1935              		.loc 11 454 60 view .LVU616
 1936 0352 2E80     		strh	r6, [r5]	@ movhi
 1937              	.LVL98:
 454:main.cpp      **** }
 1938              		.loc 11 454 60 view .LVU617
 1939              	.LBE349:
 1940              	.LBE351:
 313:main.cpp      **** 							seqmem++;
 1941              		.loc 11 313 8 is_stmt 1 view .LVU618
ARM GAS  C:\Users\jcjco\AppData\Local\Temp\cchBw9Ih.s 			page 69


 314:main.cpp      **** 							writeSramWord(seqmem, 0xFFFF);
 1942              		.loc 11 314 8 view .LVU619
 315:main.cpp      **** 							seqmode = 0;
 1943              		.loc 11 315 8 view .LVU620
 1944              	.LBB352:
 1945              	.LBI343:
 451:main.cpp      **** {
 1946              		.loc 11 451 6 view .LVU621
 1947              	.LBB346:
 454:main.cpp      **** }
 1948              		.loc 11 454 3 view .LVU622
 454:main.cpp      **** }
 1949              		.loc 11 454 60 is_stmt 0 view .LVU623
 1950 0354 20F807E0 		strh	lr, [r0, r7]	@ movhi
 1951              	.LVL99:
 454:main.cpp      **** }
 1952              		.loc 11 454 60 view .LVU624
 1953              	.LBE346:
 1954              	.LBE352:
 316:main.cpp      **** 							seqclock = 0;
 1955              		.loc 11 316 8 is_stmt 1 view .LVU625
 318:main.cpp      **** 							break;
 1956              		.loc 11 318 15 is_stmt 0 view .LVU626
 1957 0358 4FF48030 		mov	r0, #65536
 316:main.cpp      **** 							seqclock = 0;
 1958              		.loc 11 316 16 view .LVU627
 1959 035c 2180     		strh	r1, [r4]	@ movhi
 317:main.cpp      **** 							seqmem = 0x00010000;
 1960              		.loc 11 317 8 is_stmt 1 view .LVU628
 317:main.cpp      **** 							seqmem = 0x00010000;
 1961              		.loc 11 317 17 is_stmt 0 view .LVU629
 1962 035e 1180     		strh	r1, [r2]	@ movhi
 318:main.cpp      **** 							break;
 1963              		.loc 11 318 8 is_stmt 1 view .LVU630
 318:main.cpp      **** 							break;
 1964              		.loc 11 318 15 is_stmt 0 view .LVU631
 1965 0360 1860     		str	r0, [r3]
 319:main.cpp      **** 						}
 1966              		.loc 11 319 8 is_stmt 1 view .LVU632
 1967 0362 68E6     		b	.L65
 1968              	.L104:
 149:main.cpp      **** 									vasynth.waveform_ = WAVE_POLYBLEP_SAW;
 1969              		.loc 11 149 9 view .LVU633
 150:main.cpp      **** 									break;
 1970              		.loc 11 150 10 view .LVU634
 150:main.cpp      **** 									break;
 1971              		.loc 11 150 28 is_stmt 0 view .LVU635
 1972 0364 234B     		ldr	r3, .L138
 1973 0366 0322     		movs	r2, #3
 1974 0368 1A71     		strb	r2, [r3, #4]
 151:main.cpp      **** 							}
 1975              		.loc 11 151 10 is_stmt 1 view .LVU636
 1976              	.L103:
 153:main.cpp      **** 							break;
 1977              		.loc 11 153 8 view .LVU637
 153:main.cpp      **** 							break;
 1978              		.loc 11 153 27 is_stmt 0 view .LVU638
ARM GAS  C:\Users\jcjco\AppData\Local\Temp\cchBw9Ih.s 			page 70


 1979 036a 2248     		ldr	r0, .L138
 1980              	.LBE362:
 1981              	.LBE374:
 345:main.cpp      **** 
 1982              		.loc 11 345 1 view .LVU639
 1983 036c 03B0     		add	sp, sp, #12
 1984              		.cfi_remember_state
 1985              		.cfi_def_cfa_offset 36
 1986              		@ sp needed
 1987 036e BDE8F040 		pop	{r4, r5, r6, r7, lr}
 1988              		.cfi_restore 14
 1989              		.cfi_restore 7
 1990              		.cfi_restore 6
 1991              		.cfi_restore 5
 1992              		.cfi_restore 4
 1993              		.cfi_def_cfa_offset 16
 1994 0372 04B0     		add	sp, sp, #16
 1995              		.cfi_def_cfa_offset 0
 1996              	.LBB375:
 1997              	.LBB363:
 153:main.cpp      **** 							break;
 1998              		.loc 11 153 27 view .LVU640
 1999 0374 FFF7FEBF 		b	_ZN7VASynth11SetWaveformEv
 2000              	.LVL100:
 2001              	.L115:
 2002              		.cfi_restore_state
 293:main.cpp      **** 									vasynth.vcavcflfo_waveform_ = WAVE_POLYBLEP_SAW;
 2003              		.loc 11 293 9 is_stmt 1 view .LVU641
 294:main.cpp      **** 									break;
 2004              		.loc 11 294 10 view .LVU642
 294:main.cpp      **** 									break;
 2005              		.loc 11 294 38 is_stmt 0 view .LVU643
 2006 0378 1E4B     		ldr	r3, .L138
 2007 037a 0322     		movs	r2, #3
 2008 037c 83F86820 		strb	r2, [r3, #104]
 295:main.cpp      **** 							}
 2009              		.loc 11 295 10 is_stmt 1 view .LVU644
 2010              	.L114:
 297:main.cpp      **** 								break;
 2011              		.loc 11 297 9 view .LVU645
 297:main.cpp      **** 								break;
 2012              		.loc 11 297 29 is_stmt 0 view .LVU646
 2013 0380 1C48     		ldr	r0, .L138
 2014 0382 ADE7     		b	.L132
 2015              	.L106:
 146:main.cpp      **** 									vasynth.waveform_ = WAVE_SQUARE;
 2016              		.loc 11 146 9 is_stmt 1 view .LVU647
 147:main.cpp      **** 									break;
 2017              		.loc 11 147 10 view .LVU648
 147:main.cpp      **** 									break;
 2018              		.loc 11 147 28 is_stmt 0 view .LVU649
 2019 0384 1B4B     		ldr	r3, .L138
 2020 0386 0222     		movs	r2, #2
 2021 0388 1A71     		strb	r2, [r3, #4]
 148:main.cpp      **** 								case 3:
 2022              		.loc 11 148 10 is_stmt 1 view .LVU650
 2023 038a EEE7     		b	.L103
ARM GAS  C:\Users\jcjco\AppData\Local\Temp\cchBw9Ih.s 			page 71


 2024              	.L107:
 143:main.cpp      **** 									vasynth.waveform_ = WAVE_SAW;
 2025              		.loc 11 143 9 view .LVU651
 144:main.cpp      **** 									break;
 2026              		.loc 11 144 10 view .LVU652
 144:main.cpp      **** 									break;
 2027              		.loc 11 144 28 is_stmt 0 view .LVU653
 2028 038c 194B     		ldr	r3, .L138
 2029 038e 0122     		movs	r2, #1
 2030 0390 1A71     		strb	r2, [r3, #4]
 145:main.cpp      **** 								case 2:
 2031              		.loc 11 145 10 is_stmt 1 view .LVU654
 2032 0392 EAE7     		b	.L103
 2033              	.L108:
 140:main.cpp      **** 									vasynth.waveform_ = WAVE_TRI;
 2034              		.loc 11 140 9 view .LVU655
 141:main.cpp      **** 									break;
 2035              		.loc 11 141 10 view .LVU656
 141:main.cpp      **** 									break;
 2036              		.loc 11 141 28 is_stmt 0 view .LVU657
 2037 0394 174B     		ldr	r3, .L138
 2038 0396 0022     		movs	r2, #0
 2039 0398 1A71     		strb	r2, [r3, #4]
 142:main.cpp      **** 								case 1:
 2040              		.loc 11 142 10 is_stmt 1 view .LVU658
 2041 039a E6E7     		b	.L103
 2042              	.L117:
 290:main.cpp      **** 									vasynth.vcavcflfo_waveform_ = WAVE_SQUARE;
 2043              		.loc 11 290 9 view .LVU659
 291:main.cpp      **** 									break;
 2044              		.loc 11 291 10 view .LVU660
 291:main.cpp      **** 									break;
 2045              		.loc 11 291 38 is_stmt 0 view .LVU661
 2046 039c 154B     		ldr	r3, .L138
 2047 039e 0222     		movs	r2, #2
 2048 03a0 83F86820 		strb	r2, [r3, #104]
 292:main.cpp      **** 								case 3:
 2049              		.loc 11 292 10 is_stmt 1 view .LVU662
 2050 03a4 ECE7     		b	.L114
 2051              	.L119:
 284:main.cpp      **** 									vasynth.vcavcflfo_waveform_ = WAVE_TRI;
 2052              		.loc 11 284 9 view .LVU663
 285:main.cpp      **** 									break;
 2053              		.loc 11 285 10 view .LVU664
 285:main.cpp      **** 									break;
 2054              		.loc 11 285 38 is_stmt 0 view .LVU665
 2055 03a6 134B     		ldr	r3, .L138
 2056 03a8 0022     		movs	r2, #0
 2057 03aa 83F86820 		strb	r2, [r3, #104]
 286:main.cpp      **** 								case 1:
 2058              		.loc 11 286 10 is_stmt 1 view .LVU666
 2059 03ae E7E7     		b	.L114
 2060              	.L118:
 287:main.cpp      **** 									vasynth.vcavcflfo_waveform_ = WAVE_SAW;
 2061              		.loc 11 287 9 view .LVU667
 288:main.cpp      **** 									break;
 2062              		.loc 11 288 10 view .LVU668
ARM GAS  C:\Users\jcjco\AppData\Local\Temp\cchBw9Ih.s 			page 72


 288:main.cpp      **** 									break;
 2063              		.loc 11 288 38 is_stmt 0 view .LVU669
 2064 03b0 104B     		ldr	r3, .L138
 2065 03b2 0122     		movs	r2, #1
 2066 03b4 83F86820 		strb	r2, [r3, #104]
 289:main.cpp      **** 								case 2:
 2067              		.loc 11 289 10 is_stmt 1 view .LVU670
 2068 03b8 E2E7     		b	.L114
 2069              	.L109:
