:020000040800F2
:1000000000000220010A0008FD090008F94D00085F
:10001000FD090008FD090008FD09000800000000B6
:10002000000000000000000000000000FD090008C2
:10003000FD09000800000000FD0900087D4D0008D2
:10004000FD090008FD090008FD090008FD09000878
:10005000FD090008FD090008FD090008FD09000868
:10006000FD090008FD090008FD090008F945000820
:1000700005460008FD090008114600081D46000855
:1000800089F00008253B0008FD090008FD0900086B
:10009000FD090008FD090008FD090008FD09000828
:1000A000FD090008FD090008FD090008FD09000818
:1000B000114C00081D4C0008294C0008593B000851
:1000C000FD090008653B0008FD09000839E000084B
:1000D00045E00008BDEE0008EDEE000821EF000845
:1000E000FD090008FD09000800000000FD090008E6
:1000F000FD090008FD090008FD090008FD090008C8
:10010000FD090008FD090008354C000851E0000811
:1001100055EF000889EF0008FD090008FD090008F7
:10012000FD090008FD09000875E00008A9E00008C5
:10013000BDF00008FD090008FD090008FD090008E0
:1001400000000000000000000000000000000000AF
:10015000FD090008FD090008FD090008BDEF0008C1
:10016000713B0008FD0900088D4D0008B14D0008E5
:10017000FD090008D54D0008FD090008FD0900082B
:10018000FD090008FD090008F1EF000821F0000852
:100190005DE0000869E00008FD090008FD090008AD
:1001A000FD090008FD090008FD090008FD09000817
:1001B00019430008FD090008FD090008FD090008B1
:1001C000FD090008FD090008F5D7000801D800085E
:1001D000FD0900080DD80008FD090008FD09000808
:1001E000FD090008FD090008FD090008FD090008D7
:1001F000FD090008FD090008FD090008FD090008C7
:10020000FD090008FD090008FD090008FD090008B6
:10021000FD090008FD090008FD090008FD090008A6
:10022000FD090008FD090008FD09000800000000A4
:10023000FD090008FD09000800000000FD09000894
:10024000FD090008FD090008FD090008FD09000876
:10025000FD090008FD090008FD090008FD09000866
:10026000FD090008FD090008FD090008FD09000856
:10027000FD090008FD09000855F000080000000015
:10028000FD090008FD090008FD0900080000000044
:0802900000000000FD09000858
:1002A00010B5054C237833B9044B13B10448AFF3B0
:1002B00000800123237010BDA00600240000000070
:1002C000284B010808B5034B1BB103490348AFF3A2
:1002D000008008BD00000000A4060024284B01088F
:1002E00001F0FF01102A2BDB10F0070F08D010F8E7
:1002F000013B013A8B422DD010F0070F42B3F6D1EB
:10030000F0B441EA012141EA014122F007047FF003
:1003100000070023F0E80256083C85EA010586EA5A
:10032000010685FA47F5A3FA87F586FA47F6A5FA96
:1003300087F68EB9EED1F0BC01F0FF0102F00702A2
:1003400032B110F8013B013A83EA010313B1F8D14D
:100350000020704701387047002D06BF354603382E
:10036000073815F0010F07D1013015F4807F02BF67
:10037000013015F4C03F0130F0BC0138704700BFB8
:1003800081F0004102E000BF83F0004330B54FEA46
:1003900041044FEA430594EA050F08BF90EA020FB3
:1003A0001FBF54EA000C55EA020C7FEA645C7FEA46
:1003B000655C00F0E2804FEA5454D4EB5555B8BF69
:1003C0006D420CDD2C4480EA020281EA030382EADA
:1003D000000083EA010180EA020281EA0303362D6C
:1003E00088BF30BD11F0004F4FEA01314FF4801C3F
:1003F0004CEA113102D0404261EB410113F0004F51
:100400004FEA03334CEA133302D0524263EB430307
:1004100094EA050F00F0A780A4F10104D5F1200EA5
:100420000DDB02FA0EFC22FA05F2801841F1000100
:1004300003FA0EF2801843FA05F359410EE0A5F1D4
:1004400020050EF1200E012A03FA0EFC28BF4CF005
:10045000020C43FA05F3C01851EBE37101F00045BB
:1004600007D54FF0000EDCF1000C7EEB00006EEBC8
:100470000101B1F5801F1BD3B1F5001F0CD3490852
:100480005FEA30004FEA3C0C04F101044FEA4452A9
:1004900012F5800F80F09A80BCF1004F08BF5FEA30
:1004A000500C50F1000041EB045141EA050130BD10
:1004B0005FEA4C0C404141EB0101013C28BFB1F522
:1004C000801FE9D291F0000F04BF01460020B1FA6D
:1004D00081F308BF2033A3F10B03B3F120020CDA40
:1004E0000C3208DD02F1140CC2F10C0201FA0CF01E
:1004F00021FA02F10CE002F11402D8BFC2F1200C83
:1005000001FA02F120FA0CFCDCBF41EA0C01904038
:10051000E41AA2BF01EB0451294330BD6FEA040481
:100520001F3C1CDA0C340EDC04F11404C4F120026C
:1005300020FA04F001FA02F340EA030021FA04F37E
:1005400045EA030130BDC4F10C04C4F1200220FAD5
:1005500002F001FA04F340EA0300294630BD21FA13
:1005600004F0294630BD94F0000F83F4801306BFD9
:1005700081F480110134013D4EE77FEA645C18BFCD
:100580007FEA655C29D094EA050F08BF90EA020F64
:1005900005D054EA000C04BF1946104630BD91EA5C
:1005A000030F1EBF0021002030BD5FEA545C05D15F
:1005B0004000494128BF41F0004130BD14F580049E
:1005C0003CBF01F5801130BD01F0004545F0FE4112
:1005D00041F470014FF0000030BD7FEA645C1ABF47
:1005E000194610467FEA655C1CBF0B46024650EA7E
:1005F000013406BF52EA033591EA030F41F40021AA
:1006000030BD00BF90F0000F04BF0021704730B52F
:100610004FF4806404F132044FF000054FF0000104
:1006200050E700BF90F0000F04BF0021704730B5C5
:100630004FF4806404F1320410F0004548BF40429A
:100640004FF000013EE700BF42004FEAE2014FEAEF
:1006500031014FEA02701FBF12F07F4393F07F4FCA
:1006600081F06051704732F07F4208BF704793F0CD
:100670007F4F04BF41F40021704730B54FF46074E0
:1006800001F0004521F000411CE700BF50EA0102E3
:1006900008BF704730B54FF000050AE050EA01028C
:1006A00008BF704730B511F0004502D5404261EBFC
:1006B00041014FF4806404F132045FEA915C3FF43D
:1006C000D8AE4FF003025FEADC0C18BF03325FEADA
:1006D000DC0C18BF033202EBDC02C2F1200300FA8B
:1006E00003FC20FA02F001FA03FE40EA0E0021FAB0
:1006F00002F11444BDE600BF53B94AB9002908BF4E
:1007000000281CBF4FF0FF314FF0FF3000F074B9EC
:10071000ADF1080C6DE904CE00F006F8DDF804E058
:10072000DDE9022304B070472DE9F047089D044637
:100730008E46002B4DD18A42944669D9B2FA82F294
:1007400052B101FA02F3C2F1200120FA01F10CFAD0
:1007500002FC41EA030E94404FEA1C48210CBEFB08
:10076000F8F61FFA8CF708FB16E341EA034306FB91
:1007700007F199420AD91CEB030306F1FF3080F020
:100780001F81994240F21C81023E63445B1AA4B26D
:10079000B3FBF8F008FB103344EA034400FB07F70F
:1007A000A7420AD91CEB040400F1FF3380F00A8150
:1007B000A74240F207816444023840EA0640E41B45
:1007C00000261DB1D4400023C5E900433146BDE8F1
:1007D000F0878B4209D9002D00F0EF800026C5E993
:1007E000000130463146BDE8F087B3FA83F6002EAB
:1007F0004AD18B4202D3824200F2F980841A61EB23
:10080000030301209E46002DE0D0C5E9004EDDE740
:1008100002B9FFDEB2FA82F2002A40F09280A1EB28
:100820000C014FEA1C471FFA8CFE0126200CB1FB7D
:10083000F7F307FB131140EA01410EFB03F0884276
:1008400008D91CEB010103F1FF3802D2884200F203
:10085000CB804346091AA4B2B1FBF7F007FB101195
:1008600044EA01440EFB00FEA64508D91CEB040433
:1008700000F1FF3102D2A64500F2BB800846A4EB8E
:100880000E0440EA03409CE7C6F12007B34022FA79
:1008900007FC4CEA030C20FA07F401FA06F31C43A8
:1008A000F9404FEA1C4900FA06F3B1FBF9F8200CB5
:1008B0001FFA8CFE09FB181140EA014108FB0EF0FB
:1008C000884202FA06F20BD91CEB010108F1FF3A4B
:1008D00080F08880884240F28580A8F10208614457
:1008E000091AA4B2B1FBF9F009FB101144EA014165
:1008F00000FB0EFE8E4508D91CEB010100F1FF3410
:100900006CD28E456AD90238614440EA0840A0FBA7
:100910000294A1EB0E01A142C846A64656D353D07D
:100920005DB1B3EB080261EB0E0101FA07F722FAA1
:1009300006F3F1401F43C5E9007100263146BDE8CA
:10094000F087C2F12003D8400CFA02FC21FA03F32D
:10095000914001434FEA1C471FFA8CFEB3FBF7F0AE
:1009600007FB10360B0C43EA064300FB0EF69E42D3
:1009700004FA02F408D91CEB030300F1FF382FD26C
:100980009E422DD9023863449B1B89B2B3FBF7F614
:1009900007FB163341EA034106FB0EF38B4208D9ED
:1009A0001CEB010106F1FF3816D28B4214D9023E2E
:1009B0006144C91A46EA004638E72E46284605E74C
:1009C0000646E3E61846F8E64B45A9D2B9EB02081D
:1009D00064EB0C0E0138A3E74646EAE7204694E7AD
:1009E0004046D1E7D0467BE7023B614432E73046E0
:1009F00009E76444023842E7704700BFFEE700BFE2
:100A00000B480C4A904203D0121A0B4912F038FDE1
:100A10000A480B4A904203D0121A002112F03EFD00
:100A200004F016FC12F000FD00F0F2FCFEE700BF3F
:100A300000000024A00600245C4B0108A00600244E
:100A400050090124704700BF704700BF704700BFC6
:100A5000704700BFAAB32DE9F041174682B00646A1
:100A60000C460025DFF8608007E0023523606360F4
:100A70000836AF4204F1080420D998F8001000238A
:100A80000129F2D101AA69460E48023501F058F851
:100A900096ED007ADDED007AAF42DDED016A06F1F8
:100AA000080637EE277A04F1080404ED027A56EDC1
:100AB000017A77EEA67A44ED017ADED802B0BDE87D
:100AC000F0817047C49700240400002403282DE916
:100AD000F84F08D0DFF8BC90B9F800100131A9F840
:100AE0000010BDE8F88F254CDFF8A8902368B9F80E
:100AF000001003F10052224D128892B28A422A80DD
:100B0000ECD1DFF894801F4F1F4E0BE001F0F8F995
:100B10002368B9F8001003F10052128892B2914292
:100B20002A80DBD1981C194AD91CDFF870A02060FC
:100B30009A5C2160191D02F07F0C02F0800B5FFAB5
:100B400082FE1348A8F800B0A7F800C013F80A20E6
:100B5000216061461346D2B2FF2B338006D01EF0CF
:100B6000800FD3D10A4801F039FAD1E700224FF4BF
:100B70008033A9F800202360BDE8F88F0C00002422
:100B8000B8970024B6970024BA97002402000020EA
:100B9000C4970024B0970024B497002403000020D9
:100BA000054B188808B1FFF791BF04494FF4803214
:100BB000034B08801A607047B2970024B097002456
:100BC0000C00002410B500F2D44300F2546430331A
:100BD00000222D494FF0000CA34243F8302C43F87B
:100BE0002C2C43F8281C43F8242C43F8201C43F8F1
:100BF0001C1C43F8181C43F8142C43F8102C43F821
:100C00000C2C03F804CC03F803CCE0D100F2D4742C
:100C1000303300221C494FF0000CA34243F8302C23
:100C200043F82C2C43F8281C43F8242C43F8201CB0
:100C300043F81C1C43F8181C43F8142C43F8102CE0
:100C400043F80C2C03F804CC03F803CCE0D100F6F5
:100C50003424002203F1180C03F1280103F1080EDB
:100C6000C3E90222C3E904224C3343F8342CCCF804
:100C70000C20A342CCE9012243F8242CCA60C1E92C
:100C80000122E6D110BD00BF000080BF134B30B47D
:100C90001A68134C02F10055B4F800C0A5F800C062
:100CA000951C1D600F4D50551A680F4D501C186053
:100CB0000E4811541A68511CA94219600CD9218898
:100CC00011524FF6FF700A495052002209484FF462
:100CD000803122800280196030BC70470C000024F3
:100CE000B097002402000020F8FF07000100002058
:100CF00003000020B297002484B0F0B583B008ACA4
:100D000084E80F009DF820309DF828409DF82920A8
:100D1000062B0CD8DFE803F041040B230B0B10006B
:100D2000B04B93F88930112B4FD08B424DD003B08C
:100D3000BDE8F04004B07047AA4B93F88930112BFE
:100D400001D08B42F3D1A4F50054A64804EBC214A1
:100D500021B203B0BDE8F04004B001F04DB9013C50
:100D6000182CE4D8DFE814F03C005C00660070004A
:100D70007C0088009800A900B500C100CD00D90012
:100D8000E500F100FD0009015A013C002D014E0172
:100D900015011C01660123015100924B93F8893023
:100DA000112B01D08B42C2D18F4B1B88012B00F03D
:100DB000988121468B4801F011F900218B4803B03E
:100DC000BDE8F04004B001F0EBB9874B1B88012B64
:100DD00000F07F812146834801F092F80121EDE780
:100DE00007EE902ADFED866A9FED817AB8EE676A9A
:100DF0007C48C6EE267A67EE877AC0ED207A03B08B
:100E0000BDE8F04004B000F06BBE7A4A002176489D
:100E10000324794B11804FF4803204801A6086E7F6
:100E20005209032A00F21D81DFE812F030012C0183
:100E3000280118015209032A00F21381DFE812F099
:100E4000450141013D01390107EE902A9FED6C7A81
:100E5000644BF8EE676AC6EE877AC3ED027A66E7FE
:100E600007EE902A9FED657A5E4BF8EE676AC6EE54
:100E7000877AC3ED067A5AE707EE902ADFED606ABB
:100E8000B7EE007A574BB8EE676AC6EE267A77EE71
:100E9000877AC3ED077A4AE707EE902A9FED587AE2
:100EA0005048F8EE676AC6EE877AC0ED0D7A03B057
:100EB000BDE8F04004B000F0AFBD07EE902A9FED12
:100EC000507A4848F8EE676AC6EE877AC0ED0E7A27
:100ED000EDE707EE902A9FED4A7A4248F8EE676AFE
:100EE000C6EE877AC0ED0F7AE1E707EE902A9FED14
:100EF000447A3C48F8EE676AC6EE877AC0ED107A0D
:100F0000D5E707EE902A9FED3E7A3648F8EE676AFD
:100F1000C6EE877AC0ED097AC9E707EE902A9FED01
:100F2000387A3048F8EE676AC6EE877AC0ED0A7AFA
:100F3000BDE707EE902A9FED327A2A48F8EE676AFD
:100F4000C6EE877AC0ED0B7AB1E707EE902A9FEDE7
:100F50002C7A2448F8EE676AC6EE877AC0ED0C7AE0
:100F6000A5E707EE902A9FED267A1E4BF8EE676AFA
:100F7000C6EE877AC3ED1D7AD9E607EE902A9FED7B
:100F8000207A184BF8EE676AC6EE877AC3ED1E7AB0
:100F9000CDE65209032A6FD8DFE802F081867C6A29
:100FA00011490120134B002208801A80BFE600235C
:100FB0000D4C10484FF480310F4A2380038011609C
:100FC000B5E607EE902A9FED0E7A0648F8EE676ABE
:100FD000C6EE877AC0ED1B7A03B0BDE8F04004B0DE
:100FE00000F092BDC4970024B2970024BC060024F0
:100FF00000A08C46B09700240C00002400007F4322
:101000000000FE4207EE902A1FED037A3748F8EE03
:10101000676AC6EE877AC0ED1C7ADDE707EE902A94
:101020009FED337A3148F8EE676AC6EE877AC0EDF5
:101030001F7AE4E62F4B4FF6FF7E2F4A00211868F7
:10104000168800F100552D4F2D4C2E8020F807E01A
:101050004FF4803021801180186068E6234B032212
:101060001A71224803B0BDE8F04004B000F0C2BCE1
:101070001E4B032283F868201C48ADE71B4B02225D
:101080001A71EEE7194B01221A71EAE7174B002299
:101090001A71E6E7154B022283F86820ECE7134B40
:1010A000002283F86820E7E7104B012283F86820CC
:1010B000E2E70E4B03221A75D3E70C4B02221A7596
:1010C000CFE70A4B01221A75CBE7084B00221A75AD
:1010D000C7E7114644F080000192FFF7D7FD019A5F
:1010E00078E600212046FFF7D1FD62E6C497002490
:1010F0000000FE420C000024B097002402000020F3
:10110000B297002410B5032286B000244FF0FF31BF
:101110000123029201948DF81430CDE9034104F0CB
:101120004BF8094B02A9A3FB0030C009049001A8A9
:1011300003F086FD2246054901A803F0FBFD01A846
:1011400003F0E6FD06B010BD89888888A10B000871
:101150002DE9F04100F51044C8B0054694F8AC30D4
:101160001942037918D0032B1CD00022027194F885
:10117000B0300B40C36094F8AD300B401B09092B15
:10118000037206D80120072B287184F8A43000F0E0
:10119000E88048B0BDE8F081032BFAD8DFE803F01F
:1011A0008D115802F72900F0C38095F9922095F827
:1011B0009230002AEDDBEA180133917485F8923001
:1011C000E7E794F8AE8001EA080885F8108094F803
:1011D000A4703B1F012B06D995F8933003F0FD0353
:1011E000012B40F0BB8000236E46902205F10801E0
:1011F00030462B7112F044F9D4F89830D4F89C2082
:10120000013B9B1ADBB2002BF6D0902231460DEB4E
:10121000020012F035F9D4F89C6024A9902206EB64
:10122000C600013605EB0010F6B2983012F028F92E
:10123000C4F89C60B8F1770FABD9032FA9D109236B
:10124000A8F178012B7284F8A43085F89510A0E7F6
:1012500094F8AE301940697494F8A430012B02D18F
:10126000002900F08C806E46902205F1080130467E
:1012700012F006F9D4F89830D4F89C20013B9B1A60
:10128000DBB2002BF6D0902231460DEB020012F0BB
:10129000F7F8D4F89C6024A9902206EBC60001362A
:1012A00005EB0010F6B2983012F0EAF80023C4F80B
:1012B0009C602B7148B0BDE8F08194F8A4302B728B
:1012C000043B94F8AE20012B01EA0201297405D9F0
:1012D00095F8933003F0FD03012B3CD100236E46BB
:1012E000902205F1080130462B7112F0C9F8D4F8AC
:1012F0009830D4F89C20013B9B1ADBB2002BF6D02F
:10130000902231460DEB020012F0BAF8D4F89C603E
:1013100024A9902206EBC600013605EB0010F6B2B8
:10132000983012F0ADF8C4F89C6048B0BDE8F08188
:1013300000236E46902205F1080130462B7112F011
:101340009FF8D4F89830D4F89C20013B9B1ADBB26C
:10135000002BF6D0D4E702232B711AE702232B715E
:1013600068E711F00800EA6036D101F0070385F85C
:1013700093303BB9032285F892302A7109E70023A4
:101380002B7270E74B077FF504AF6E4628719022F1
:1013900005F10801304612F073F8D4F89830D4F80B
:1013A0009C20013B9B1ADBB2002BF6D090223146E9
:1013B0000DEB020012F064F8D4F89C6024A990228E
:1013C00006EBC60005EB0010983012F059F8731CBC
:1013D000DBB2C4F89C30DCE608236E462B72304644
:1013E00084F8A43094F8B2302A719022194085F81C
:1013F000941005F1080112F043F8D4F89830D4F8AD
:101400009C20013B9B1ADBB2002BF6D0CEE700BF3D
:101410002DE9F0430121C9B06248002500F02CFFFE
:10142000062160484FF00A0900F09AFEDFF8988123
:101430005C4800F091FE5B4888ED000A00F0ACFECD
:101440000523594A0121594F8DF880308DF882309B
:1014500007F510448DF884308DF886308DF888308B
:10146000082382ED000A06228DF8813009238DF8C9
:101470008C1020A98DF8833007234A488DF88530D9
:101480008DF887208DF88A208DF88B208DF88D506F
:101490008DF8899002F0BCFD454800F0D9F8444829
:1014A00000F04CFE434E294604F1A80084F8A550F4
:1014B00002F07AF86420C4F89C50C4F8985087F879
:1014C00008903D7103F00AFD29463B4A304611F071
:1014D000E5FFD8ED007A9FED397A4BF67F3346F879
:1014E000085C67EE877ABDEEE77A17EE102AF8EE11
:1014F000C76A9A4277EEE67A28BF1A4646ED037A23
:1015000046F8042C24AEFFF7FDFD2D49254800F0D8
:101510001FFE03F0E1FC054607E0C4F8A05002F00E
:1015200079F801462148FFF713FE264802F068F8D3
:1015300003462448002BF0D1224802F07FF80346EE
:1015400040B3D4F89C30D4F898209B1ADBB2002B1F
:10155000DFD0D4F89C30D4F898209B1ADBB2002B53
:10156000F7D0D4F898509022304605EBC5010135EC
:1015700007EB0111EDB2983111F082FF28A980220A
:101580006846C4F8985011F07BFF96E80F00FFF70B
:10159000B3FBD6E70B483B7102F054F8094802F060
:1015A0002BF8CEE7BC060024BC970024FC060024E0
:1015B000C49700240C0000C000EE02000AD7233CB0
:1015C000550A0008A4970024C097002438B516488F
:1015D0000024164A164904604461046211F0EAFAD4
:1015E0001448154D4FF60F0100F5104304600F4AE3
:1015F000C3F8A8400724A3F8B01083F8B2400F4CFA
:10160000C3F8AC500E4911F0D5FA2046FFF7DAFACC
:10161000064A0C49204611F0CDFA044A0A490B4803
:10162000BDE8384011F0C6BABC0600240000002412
:10163000450A0008FC06002480707FF0C49700244F
:101640004D0A0008490A0008510A0008000000C0BD
:101650002DE9F04F054600F58A7400F2D47800F5C4
:1016600025792DED088B83B048E0F4EE487AF1EE51
:1016700010FA78FE277A04F5A866C4EDF07A012105
:1016800095ED000A304610F079FD95ED0D0A012127
:10169000304610F0E3FD95ED0E0A0221304610F0C1
:1016A000DDFD95ED100A0421304610F0D7FDD5ED93
:1016B0000F7AF5EEC07AF1EE10FA40F2C380B7EE81
:1016C000007AF4EE477AF1EE10FA77FE277AC6ED4B
:1016D000007A404695ED000A303410F09FFE4046F7
:1016E00095ED200A11F00EF8404695ED1F0A08F11D
:1016F0004C0811F05DF84C4500F0A780B7EE008A69
:10170000D5ED007AB6EE009A9FEDB4AA9FEDB4BA7B
:10171000012788EE277ADFF8D8B2C4ED057A204693
:1017200084ED02AA04F5C07A84ED019A04F570767E
:1017300084ED039AB0EE4A0AC4F810B084ED07BAFB
:10174000DFEDA8AADFEDA89AC9FE0B8AC8FEC88AF9
:1017500084ED067A11F022FA84F82D7084ED080ADF
:10176000204684F82C70B0EE6A0A2B7984ED018A49
:10177000082BC4ED02AA28BF0023237011F00EFA33
:1017800068EEA99A84ED080A5046C4ED038AB0EECB
:101790004A0AC4ED049AD5ED007A84ED62AA88EE77
:1017A000277AC4ED657A84ED619A84ED639AC4F872
:1017B00090B184ED67BACDF804A084ED667A11F09B
:1017C000EDF984F8AD7184F8AC7184ED680A2B7D75
:1017D00084ED618A082B019828BF002384F88031AA
:1017E00095ED060A20EE2A0A84ED620A11F0D6F978
:1017F0003946304684ED680AC4ED638AC4ED649AC4
:1018000095ED000A019610F0B9FC95ED090A3946EC
:10181000019810F023FD95ED0A0A0221019810F0BD
:101820001DFD95ED0C0A0421019810F017FDD5ED72
:101830000B7AF4EECB7AF1EE10FA3FF616AFDFED4D
:101840006B7A18E7DFED697A41E7F7EE008AD5EDAC
:10185000007A05F214444FF07C569FED608A4FF0F9
:10186000000888EEA77ADFF88891C4ED057A204653
:1018700084ED028A40F201176660E660C4F81090B9
:10188000B0EE480AC4F81C8084ED067A11F086F99F
:1018900084ED080A95F84430204695ED120A082B8D
:1018A000A5F8407428BF002385F8143484ED020A9B
:1018B00011F074F984ED080AEB6CB0EE480A63602D
:1018C00005F24444D5ED007A204684ED028A88EE84
:1018D000A77AC4ED057A6660E660C4F81090C4F893
:1018E0001C8084ED067A11F059F984ED080A95F808
:1018F0005030204695ED150A082BA5F8707428BFC6
:10190000002385F8443484ED020A11F047F984ED90
:10191000080AAB6DB0EE480A636005F27444D5ED79
:10192000007A204684ED028A88EEA77AC4ED057A13
:101930006660E660C4F81090C4F81C8084ED067AF6
:1019400011F02CF984ED080A95F85C30204695EDED
:10195000180A082BA5F8A07428BF002385F8743452
:1019600084ED020A11F01AF984ED080A6B6EB0EEEC
:10197000480A636005F2A444D5ED007A2046C4F815
:10198000109088EEA77AC4ED057A84ED028A66602D
:10199000E660C4F81C8084ED067A11F0FFF884ED4F
:1019A000080A95F86830204695ED1B0A082BA5F823
:1019B000D07428BF002385F8A43484ED020A11F006
:1019C000EDF8002384ED080A2A6F626085F88A30FA
:1019D00003B0BDEC088BBDE8F08F00BF0000C8422B
:1019E000000000000000DC43DB0FC9400AD723BC25
:1019F000DB0F4940027900F5C071037D072A88BFDB
:101A00000022072B88BF002380F81421303080F893
:101A100064328142F8D1704770B5044682B000F25A
:101A2000D44500F254662EE0F4EE477AF1EE10FA57
:101A300077FE277AC5ED607A2846012194ED090AE0
:101A400010F00CFC284694ED0A0A022110F006FC66
:101A5000284694ED0C0A042110F000FCD4ED0B7A1A
:101A6000B7EE007AF5EEC07AF1EE10FA2BD9F4EE6B
:101A7000477A2B463035F1EE10FA77FE277AB542D9
:101A8000C3ED007A27D005F5C07094ED0D0A012151
:101A9000019010F0E3FB94ED0E0A0221019810F082
:101AA000DDFB94ED100A0198042110F0D7FBD4ED72
:101AB0000F7AB7EE007AF5EEC07AF1EE10FAB3D8ED
:101AC000DFED067AB6E72B463035DFED047AB54216
:101AD000C3ED007AD7D102B070BD00BF0AD723BCD6
:101AE00070B5054600F2D47400F63426204695ED14
:101AF000200A10F007FE20464C3495ED1F0A10F026
:101B000057FEB442F2D170BD38B5F2EE007A90F8CB
:101B1000683090ED1B0A00F2A445082B044620EE25
:101B2000270A284628BF002384F8A43485ED020A3A
:101B300011F034F885ED080A236F6B6038BD00BFE3
:101B40002DE9F04F044600F214402DED0A8B85B0CC
:101B5000DFEDE48A04F18B0704F2D47604F1940AF1
:101B600004F58A75CDE9021210F036FE04F2444005
:101B7000F0EE40AA10F030FE04F27440B0EE40AA3D
:101B800010F02AFE04F2A440F0EE409A10F024FE79
:101B900004F19303B0EE409A019328E0DAED0F7A56
:101BA0003046D4ED216A20EE270A94ED207AD4ED58
:101BB0001D5A79EE0B7A9AED076A20EE260AA5EEF9
:101BC000C6BA20EE070A20EE270A20EE0B0A10F014
:101BD00099FD3046B0EE480A10F094FC019B78EE77
:101BE000808A4C369F4205F1300500F03F8117F89E
:101BF000013B002B14BF4FF001084FF000080DD03F
:101C000007EE903A9FEDB86AB7EE007AF8EE677A81
:101C1000C7EE866A77EE667ACAED087AD4ED1E7A48
:101C2000F5EE407AF1EE10FA40F0B18005F5A869C2
:101C300005F5707B4146584610F098FB94F88830C3
:101C4000F7EE007A2846012BA84BB7EE00BA88BF02
:101C50009AED107A79EE277A88BF20EE070A27EEF0
:101C6000800A85ED010A85ED610ADAED187A9AEDB0
:101C7000000A93ED008A67EEAACA94ED037A9C4BA2
:101C800027EE888A30EE070AD4ED06BA93ED00CA33
:101C900067EEABBA27EE8CCA30EE080A30EE0C0ABB
:101CA00030EE2C0A85ED020A10F078FF85ED080A67
:101CB000D4ED077A05F5C073BAEC017A27EE880AED
:101CC00018469B46A7EE270AA7EE8C0AA7EEAC0A99
:101CD000A7EEAB0A85ED620A10F060FF85ED680A99
:101CE00094ED047A2846DFED836A3AEE077A9FED99
:101CF0007D6A37EE297A87FE067A87FE4B7A67EE91
:101D0000267A85ED037AC5ED047AD4ED087A7AEE69
:101D1000277A77EEA97AC7FE867AC7FECB7A67EE76
:101D2000A66AC5ED637AC5ED646A10F055FD5846A4
:101D3000F0EE40BA10F050FD94ED027A414648466C
:101D40007BEE477A27EE808AA7EE2B8A10F00EFBF7
:101D500094F8883003F0FD03012B3FF41FAFD4ED5E
:101D6000217A304694ED207A60EE277A94ED1D6A50
:101D7000DAED076A39EE0B0A67EE877AA6EE66BAE5
:101D800027EE800A20EE0B0A10F0BCFC21E7B7EE2C
:101D9000008A9AED087AD4ED0D6A05F5A86901214B
:101DA00005F5707B38EE477A4846B0EE480AA7EE54
:101DB000C70A20EE260A10F051FADAED087AB0EEE2
:101DC000480AD4ED1E6A78EE677A94ED0E7A48469A
:101DD0000221A6EEE70A20EE070A10F03FFADAED3C
:101DE000087AB0EE480AD4ED1E6A78EE677A94ED70
:101DF000107A48460421A6EEE70A20EE070A10F002
:101E00002DFADAED087AB0EE480AD4ED1E6A78EEC3
:101E1000677A94ED097A58460121A6EEE70A20EE8A
:101E2000070A10F01BFADAED087AB0EE480AD4ED92
:101E30001E6A78EE677A94ED0A7A58460221A6EE79
:101E4000E70A20EE070A10F009FADAED087A94EDB5
:101E50001E7A042178EE677A94ED0C0A5846A7EEB4
:101E6000678A28EE000A10F0F9F9E3E6224B4BF6F8
:101E7000803622494BF67F30F4EE007AD3ED006ACB
:101E8000D3E9014268EEA78A2244204403EB84048C
:101E9000A1FB02C7551CBF0A06FB172203EB8202F7
:101EA000D2ED037AA1FB0572A1FB0071920A890AA7
:101EB00006FB125506FB1101596003EB850393EDF8
:101EC000037A029B37EE677AC4ED038AC3ED008A7A
:101ED000039BE7EE267AC3ED007A05B0BDEC0A8BD2
:101EE000BDE8F08F000000000000A84208000024B8
:101EF000F8060024DB0FC940000000C0F119760588
:101F000070B54FF0080C04462DED048B82B090F8AC
:101F10008A30019201330CF1FF3203F0070560199A
:101F20002B4690F88B6046B112F0FF0CF2D184F88A
:101F30008A5002B0BDEC048B70BD07EE901ADFED45
:101F4000249AB2EE089A84F88A50F8EE670A80F86C
:101F50008B10B0EE000ADFED1F8A04EB850570EEF2
:101F6000E90AC0EE890A10F09FFEF0EE407AB0EE6A
:101F7000000A67EEA87AC5ED257A94F88A30E11850
:101F800004EB830291F88B3092ED258A013300EE49
:101F9000903AF8EEE00A70EEE90AC0EE890A10F015
:101FA00083FEDDED017ADFED0C6A94F88A30F8EEFD
:101FB000677A04EB8304A0EE688A87EEA67A84ED44
:101FC0003D8A84ED357A02B0BDEC048B70BD00BF54
:101FD00000008A420000DC430000FE4200F18B0357
:101FE000933013F8012B8A4202D1002203F8012C0E
:101FF0008342F6D1704700BF07EE101AF0EE006A78
:10200000F7EE007A034BBAEEE97AE7EE667AC3EDB3
:10201000007A70470800002410B50022464C227058
:1020200091F800C080F804C0D1F804C0C0F808C01E
:10203000D1F808C0C0F80CC0D1F80CC0C0F810C06E
:1020400091F810C080F814C0D1F814C0C0F818C0BE
:10205000D1F818C0C0F81CC0D1F81CC0C0F820C00E
:10206000D1F820C0C0F824C0D1F824C0C0F828C0DE
:10207000D1F828C0C0F82CC0D1F82CC0C0F830C0AE
:10208000D1F830C0C0F834C0D1F834C0C0F838C07E
:10209000D1F838C0C0F83CC0D1F83CC0C0F840C04E
:1020A00091F840C080F844C0D1F844C0C0F848C09E
:1020B000D1F848C0C0F84CC091F84CC080F850C06E
:1020C000D1F850C0C0F854C0D1F854C0C0F858C0BE
:1020D00091F858C080F85CC0D1F85CC0C0F860C00E
:1020E000D1F860C0C0F864C091F864C080F868C0DE
:1020F000D1F868C0C0F86CC0D1F86CC0C0F870C02E
:10210000D1F878C0C0F87CC0D1F87CC0C0F880C0DD
:10211000D1F880C0C0F884C091F884C080F888C02D
:1021200091F8851080F88A2080F88910FFF790FADE
:102130000123237010BD00BF04000024024B03499B
:102140001B680360FFF768BFC097002410000024DD
:10215000143001F0B1B900BF143001F0A9B900BFCB
:1021600038B500F1140504462DED028B284601F028
:1021700091F9284601F09CF92846B0EE408A01F01A
:1021800085F9D0ED007AF8EE677A88EE277ABDEC13
:10219000028B84ED0E7A38BD90ED0E0A704700BFB9
:1021A000253001F06BBB00BFF0B5032399B00027C9
:1021B0000125129306462C4B09A81595CDE90E73FF
:1021C00040F20453ADF84030284BCDE91357099342
:1021D00001F06AFA09A801F043FB002836D1244B2C
:1021E00004AF04460090CDF84230102339460495E0
:1021F0008DF820301F4BCDE91650CDE906506846CA
:10220000059301F0BBFC0823009A01A909A8ADF8C9
:1022100004508DF8064009940295039300F0E4F809
:1022200000230EA938463024049302F071FA0322E9
:102230004FF07E5309A906F114000B930C93CDE9DE
:102240000942049A01F0EAF819B0F0BD40F60132F3
:10225000074B169704AFADF824200998CDF842300B
:10226000179500F081F8DBE7040204040303000182
:10227000040604030704010B2DE9F04304462DED89
:10228000028B83B0002948D0012140F201120023C3
:102290000091ADF804208DF80630304A0126304B0D
:1022A000271D304904F12908626040F20272A360E0
:1022B00040F60663E16004F125092682A4F8252092
:1022C00084F82760A4F8293084F82B6002F076FFA8
:1022D0006946054648B304F130008DF8066002F007
:1022E000C9FE072D34D104F114052046FFF75CFF29
:1022F000284601F0DDF82846B0EE408A01F0C6F825
:10230000D0ED007AF8EE677A88EE277A84ED0E7ABF
:1023100003B0BDEC028BBDE8F08340F201130091E5
:102320008DF80610ADF80430B7E704F1300002F084
:10233000A1FE3946204601F06BFE484601F0B4F993
:10234000404601F0B1F904F1120000F077F9CAE754
:102350003946204601F05CFEC5E700BF05080509C7
:1023600005070506050A060610B584B003460124D4
:10237000ADF8040003A8ADF80C30ADF80E4001F044
:1023800093F9214603A801F079FA204602F0A6FD50
:10239000002103A801F072FA204602F09FFD2146B9
:1023A00003A801F06BFA04B010BD00BF10B5C2F372
:1023B000002384B00C46017C8DF80D2043EA4402D2
:1023C000FA2402238DF80C2003AA009401F06CFC7F
:1023D00018B10124204604B010BD04460A2002F0C2
:1023E0007DFD204604B010BD034670B543F8042BB4
:1023F000044684B007C983E80700A37983B91A218A
:102400000B461E22FA2523742046ADF80C20022329
:1024100003AA009501F048FC28B1012004B070BD6A
:102420001B210B46EDE70A2002F058FD4FF4B8528D
:1024300000950223ADF80C20204603AA217C01F070
:1024400033FC0028E9D10A2002F048FD41F2027273
:1024500000950223ADF80C20204603AA217C01F050
:1024600023FC0028D9D10A2002F038FD042200956F
:102470000223ADF80C20204603AA217C01F014FCB5
:102480000028CAD10A2002F029FD06220095022365
:10249000ADF80C20204603AA217C01F005FC0028A1
:1024A000BBD10A2002F01AFD41F208220095022356
:1024B000ADF80C20204603AA217C01F0F5FB002892
:1024C000ABD10A20064602F009FD0095022303AABB
:1024D000217C2046ADF80C6001F0E6FB00289CD181
:1024E000304602F0FBFC009522790C232046002A9E
:1024F0008DF80C3003AA4FF0020314BF6221422171
:102500008DF80D10217C01F0CFFB002885D13046DD
:1025100002F0E4FC2279D4E902310B43DBB20AB9C0
:1025200043F0400362790AB143F020030E22FA25FA
:102530008DF80D302046009502238DF80C2003AA5B
:10254000217C01F0B1FB00287FF467AF0A2002F084
:10255000C5FC102200950223ADF80C20204603AAEA
:10256000217C01F0A1FB00287FF457AF0A2002F084
:10257000B5FC122100950223ADF80C1003AA217CB2
:10258000204601F091FB00287FF447AF0A2002F0BB
:10259000A5FC012209212046FFF708FF003818BFDB
:1025A00001203BE7F0B5102387B0234C0122002522
:1025B0000126002702A920460195CDE902234FF408
:1025C0008052CDE9046709F045F8642003F0D0F9A2
:1025D00002A94FF480522046CDE904670226102755
:1025E000CDE9026709F036F80322102302A920463C
:1025F000CDE9022300230422CDE904234FF48052C5
:1026000009F028F840F23223042202A90193102392
:102610002046CDE90223019A012305924FF480520E
:10262000049309F017F840F60601204609F032F845
:10263000284607B0F0BD00BF00A200241C4B0022BA
:102640001C494FF0400C30B5054689B00220596056
:1026500007219A601A620124DA620A224FF4006E9E
:10266000DC6006922022CDE9000104200821CDE99A
:10267000020103201021CDE9040108206946C3E9C5
:1026800004024FF4C072181DC3E906C24FF4805211
:10269000C3E909E208F0B4FF38B92846FFF782FF22
:1026A000003818BF012009B030BD204609B030BD48
:1026B000FCA1002440410052614A0021D0B51368BA
:1026C0008EB00A91002B40F0B9805E4B01214FF68D
:1026D00083700C2411600221D3F8D4200026032734
:1026E00042F48052C3F8D420D3F8D42002F48052AC
:1026F0000092009AD3F8E02042F01002C3F8E020E4
:10270000D3F8E02002F010020192019AD3F8E02001
:1027100042F04002C3F8E020D3F8E02002F040028B
:102720000292029AD3F8E02042F00802C3F8E020B7
:10273000D3F8E02002F008020392039AD3F8E020D5
:1027400042F48072C3F8E020D3F8E02002F48072F3
:102750000492049AD3F8E02042F08002C3F8E0200B
:10276000D3F8E02002F080020592059AD3F8E02029
:1027700042F02002C3F8E020D3F8E02002F020026B
:102780000692069AD3F8E02042F00402C3F8E02053
:10279000D3F8E0300C9403F0040307930323079A63
:1027A0000B93CDE9080108A9274804F087F948F2FE
:1027B0003712022308A925480C94CDE90823CDE956
:1027C0000A6704F07BF94CF20372022308A920483F
:1027D0000C94CDE90823CDE90A6704F06FF940F2C3
:1027E000FF62022308A91B480C94CDE90823CDE918
:1027F0000A6704F063F94FF60C72022308A9164821
:102800000C94CDE90823CDE90A6704F057F94FF697
:102810003F02022308A911480C94CDE90823CDE911
:102820000A6704F04BF92022022308A90A480C94F5
:10283000CDE90A67CDE9082304F040F90EB0D0BD18
:10284000F8A1002400440258001002580018025851
:10285000000C025800200258001C025800140258B4
:102860002DE9F04FDFF8108406460D46144608F1B6
:1028700018002DED028B89B000AF02F041F8D8F8B6
:10288000183073B3D8F81C30D8F80490002B436983
:102890000BBF4FF0080A4FF0100A4FF0020B4FF039
:1028A000040BB9F1000F2AD0A200EA46012B02F175
:1028B000070222F00702ADEB020D6846ADEB020DF8
:1028C000694600F03F81022B00F0D680002B6FD0CC
:1028D0002246C847D5462437BD46BDEC028BBDE82D
:1028E000F08FD8F81C30002BF5D0D8F804904FF0BA
:1028F000080A4FF0020B4369B9F1000FD4D1FB6114
:10290000D8F80030BB61002BE5D0D54802F06AF85A
:102910006B46BBF1020F786108EE103AFB6900F0DC
:1029200083816A465146A2EBC40295466200EA469C
:10293000B2FBFBF2AAEBC40085460AEB8200EE462E
:10294000F861ADEB010DF8690EEB820CC7F810C011
:10295000EC46ADEB010D00EB8201CCF80400CCF8A5
:10296000081001EB82013869E946CCF80C1000EB45
:102970008201CCF800A001EB8202C9E900E0C9E9BC
:102980000212012B00F06483022B00F06C82002BFA
:1029900000F08081620849466046BB69984718EE9E
:1029A000103A24379D46BD46BDEC028BBDE8F08F42
:1029B000002C8DD01A46D8ED0C6A9FEDB27A844671
:1029C000331D36F922E00CF1080C07EE90EA33F9DA
:1029D00022E00232F8EEE77A944267EE877A67EEF9
:1029E000A67A4CED027A07EE90EAF8EEE77A67EE07
:1029F000877A67EEA67A4CED017AE2D8F961224631
:102A0000C847984ED8ED0D6A0020F9692B1D9FED3F
:102A10009E7A9FED9E6ADFED9E5A22E0F4EEC67A22
:102A2000F1EE10FAC0F2C88447F6FE72D1ED017AD9
:102A300045F8202066EEA77AF4EEC77AF1EE10FA98
:102A400040F2F080F4EEC67AF1EE10FAC0F2D584CE
:102A500047F6FE7243F820200230083184427FF6A8
:102A600039AFD1ED007A66EEA77AF4EEC77AF1EECF
:102A700010FAD3D83246D9E7002C3FF429AFD8ED6D
:102A80000C6A84469FED787A0022331D8E4656F8F4
:102A900022100CF1080C07EE901A53F822100232A3
:102AA000F8EEE77A944267EE877A67EEA67A4CED05
:102AB000027A07EE901AF8EEE77A67EE877A67EE09
:102AC000A67A4CED017AE2D871462246C7F81CE09E
:102AD000C847664ED8ED0D6A0020F9692B1D9FEDA1
:102AE0006A7A9FED6A6ADFF894C120E0F4EEC67A54
:102AF000F1EE10FAC0F279843246D1ED017A45F850
:102B0000202066EEA77AF4EEC77AF1EE10FA40F2D2
:102B10008780F4EEC67AF1EE10FAC0F25E84324697
:102B200043F820200230083184427FF6D3AED1ED45
:102B3000007A66EEA77AF4EEC77AF1EE10FAD5D8ED
:102B40006246DAE7002C3FF4C3AED8ED0C6A864645
:102B50009FED477A4FF0000C331D56F82C200EF1F4
:102B6000080E82F40002A2F5000207EE902A53F844
:102B70002C200CF1020CF8EEE77A82F40002644596
:102B8000A2F5000267EE877A67EEA67A4EED027A2A
:102B900007EE902AF8EEE77A67EE877A67EEA67A74
:102BA0004EED017AD9D8F9612246C847314ED8EDA9
:102BB0000D6A0020F9692B1D9FED337A9FED336A72
:102BC000DFF8BCC01FE0F4EEC67AF1EE10FAC0F2F6
:102BD000FC833246D1ED017A45F8202066EEA77AD3
:102BE000F4EEC77AF1EE10FA18D9F4EEC67AF1EEE7
:102BF00010FAC0F2DA83324643F82020023008315E
:102C000084427FF667AED1ED007A66EEA77AF4EEE5
:102C1000C77AF1EE10FAD6D86246DBE76246EBE7F8
:102C200062467DE7324615E7A100D64662080731C5
:102C300021F00701ADEB010DEA46ADEB010D694650
:102C4000ADEB0E0D0AEB8200EC46ADEB0E0D01EB89
:102C50008202F861E946CCE900A0C9E9001290E6D9
:102C600050A200240280FFFF000000300082FF7F9E
:102C70000000003482FF7F0034A20024007E008028
:102C80007E0080FF0000003804FF7FBF04FF7F3F0D
:102C900000FEFF46002C00F0C982BBF1020FD8F8FD
:102CA000242000F0FA827969C7F8049002EB810EC3
:102CB0005FED0C5A8A00DCF808100EF104007A610E
:102CC0001A46DCF80C303B61331DD7F810903D619B
:102CD000FD69C7E902CB8C46834636F92210D8ED50
:102CE0000C7A06EE101A33F9221006EE901A3EF90D
:102CF0002210B8EEC66A07EE101AF8EEE66A3BF943
:102D00002210B8EEC77A26EE256A66EEA56A27EE8F
:102D1000257A26EE276A66EEA76A27EE277A07EE5F
:102D2000901A51080232F8EEE77A0AEB81009442D9
:102D300080ED006A05EB810067EEA57AC0ED006AC0
:102D40000CEB810009EB810180ED007A98ED0C7AA3
:102D500067EE877AC1ED007ABFD8D7F804903D6955
:102D6000D7E902CB60466208BB6949469847D8F864
:102D70002C307A69D8ED0D6A1A441FED3D7A1FEDAB
:102D80003D6A2B1D904602F1040A5FED3F5A002276
:102D9000A84ED9E900EC51E0F4EEC67AF1EE10FA53
:102DA000C0F2C78247F6FE7045F822000CEB010026
:102DB000D0ED007A66EEA77AF4EEC77AF1EE10FA5B
:102DC0004BD9F4EEC67AF1EE10FAC0F2BA8247F6A9
:102DD000FE70BBF1020F43F822002BD0D9F8080097
:102DE0000844D0ED007A66EEA77AF4EEC77AF1EEE9
:102DF00010FA36D9F4EEC67AF1EE10FAC0F2CD82AE
:102E000047F6FE7048F82200D9F80C000144D1EDD5
:102E1000007A66EEA77AF4EEC77AF1EE10FA1ED9C0
:102E2000F4EEC67AF1EE10FAC0F2AF8247F6FE7108
:102E30004AF82210023294427FF6B1AD51080EEBEF
:102E400081008900D0ED007A66EEA77AF4EEC77AA9
:102E5000F1EE10FAA0D83046A6E73046B9E7314681
:102E6000E6E73046CEE7002C00F0E081BBF1020F30
:102E7000D8F8243000F0E1817A69DCF8081003EB1F
:102E8000820EC7F804909300DFED6B5A0EF1040038
:102E900000227B61DCF80C303B61331DD7F81090C9
:102EA0003D61FD69C7E902CB8C46834656F8221086
:102EB000D8ED0C7A07EE101A53F82210B8EEC76A54
:102EC00007EE101A5EF82210F8EEC76A07EE101A25
:102ED00026EE256A5BF82210B8EEC77A66EEA56A80
:102EE00026EE276A27EE257A66EEA76A27EE277A6E
:102EF00007EE901A51080232F8EEE77A0AEB8100E9
:102F0000944280ED006A05EB810067EEA57AC0ED82
:102F1000006A0CEB810009EB810180ED007A98EDED
:102F20000C7A67EE877AC1ED007ABFD8D7F80490A3
:102F30003D69D7E902CB60466208BB6949469847BC
:102F4000D8F82C307A69D8ED0D6A1A449FED3E7A94
:102F50009FED3E6A131D9246DFF8E4C00022FB613C
:102F60002B1D364ED9E9008E4EE0F4EEC67AF1EE16
:102F700010FAC0F2FC81304645F822000EEB010049
:102F8000D0ED007A66EEA77AF4EEC77AF1EE10FA89
:102F900049D9F4EEC67AF1EE10FAC0F2EF8130466C
:102FA000BBF1020F43F822002AD0D9F808000844E8
:102FB000D0ED007A66EEA77AF4EEC77AF1EE10FA59
:102FC00035D9F4EEC67AF1EE10FAC0F2C981304676
:102FD0004AF82200D9F80C000144D1ED007A66EEDF
:102FE000A77AF4EEC77AF1EE10FA1ED9F4EEC67A9B
:102FF000F1EE10FAC0F2AD813146F86940F82210C6
:10300000023294427FF6CBAC510808EB8100890074
:10301000D0ED007A66EEA77AF4EEC77AF1EE10FAF8
:10302000A3D86046A8E76046BAE76146E5E7604690
:10303000CEE700BF0280FFFF000000300082FF7F6C
:10304000007E00800000003404FF7FBF04FF7F3F4C
:10305000002C00F0EB807A690021D8F82430C7F802
:10306000109003EB820ED7F81C909300FD610EF1D7
:1030700004021FED0C6A7B61331D154656F82120B2
:103080004808D8ED0C6ABBF1020F82F40002A2F5E9
:10309000000207EE902A53F8212082F40002B8EED5
:1030A000E77AA2F5000227EE067A07EE902A0AEBED
:1030B0008002F8EEE77A27EE267A67EE867A82EDCE
:1030C000007A09EB80024FEA800067EEA67AC2ED33
:1030D000007A27D05EF8212082F40002A2F50002D7
:1030E00007EE902A55F8212082F40002B8EEE77A24
:1030F000A2F5000227EE067A07EE902ADCF80820F7
:10310000F8EEE77A024427EE267A67EE867A82EDB9
:10311000007A98ED0C7ADCF80C2067EE877A02448E
:10312000C2ED007A02318C42A8D8D7F810906046E0
:103130006208BB694946FD699847D8F82C307A691E
:10314000D8ED0D6A1A441FED407A1FED406A131D39
:103150009246DFF8C4C20022FB612B1DAB4ED9E9B9
:10316000008E4EE0F4EEC67AF1EE10FAC0F2C580A1
:10317000304645F822000EEB0100D0ED007A66EEF5
:10318000A77AF4EEC77AF1EE10FA49D9F4EEC67ACE
:10319000F1EE10FAC0F2BF803046BBF1020F43F8E7
:1031A00022002AD0D9F808000844D0ED007A66EE53
:1031B000A77AF4EEC77AF1EE10FA35D9F4EEC67AB2
:1031C000F1EE10FAC0F2AE8030464AF82200D9F88B
:1031D0000C000144D1ED007A66EEA77AF4EEC77ACE
:1031E000F1EE10FA1ED9F4EEC67AF1EE10FAC0F242
:1031F0008B803146F86940F82210023294427FF603
:10320000CEAB510808EB81008900D0ED007A66EE64
:10321000A77AF4EEC77AF1EE10FAA3D86046A8E7D1
:103220006046BAE76146E5E76046CEE72246494692
:103230006046BB699847FFF7B2BBC7F810B00022E1
:1032400098ED0C6A331DDFED726AD7F81CB078690F
:1032500056F8221007EE901A53F82210B8EEE77ACB
:1032600007EE901A51080232F8EEE77A27EE267A36
:103270000AEB810E94420BEB810167EEA67A27EEF2
:10328000067A67EE867A8EED007AC1ED007ADFD895
:103290008300D7F810B07B614DE61A46C7F810B02E
:1032A00098ED0C6A331DDFED5B6AD7F81CB07869C6
:1032B00036F9221007EE101A33F9221007EE901A91
:1032C000B8EEC77A51080232F8EEE77A27EE267A8E
:1032D0000AEB810E94420BEB810167EEA67A27EE92
:1032E000067A67EE867A8EED007AC1ED007ADFD835
:1032F0008300D7F810B07B6134E5F0EE675AFEEE3C
:10330000E45A15EE900A34E7F0EE675AFEEEE45AFE
:1033100015EE901A6EE7F0EE675AFEEEE45A15EEDF
:10332000900A3AE7F0EE675AFEEEE45A15EE900A7C
:103330004BE767EEA57AFDEEE77A17EE900A00B24A
:1033400032E567EEA57AFDEEE77A17EE900A00B255
:103350003FE5F0EE675AFEEEE05A15EE901A4CE6A5
:10336000F0EE675AFEEEE05A15EE900A30E6F0EE07
:10337000675AFEEEE05A15EE900AFDE5F0EE675A48
:10338000FEEEE05A15EE900A0AE667EEA57AFDEE2B
:10339000E77A17EE901A09B24AE567EEA57AFDEED4
:1033A000E77A17EE900A00B22CE5F0EE675AFEEECF
:1033B000E45A15EE902A1FE467EEA57AFDEEE77A4F
:1033C00017EE902A12B2FFF731BBF0EE675AFEEE0D
:1033D000E45A15EE902AFFF7FDBBF0EE675AFEEEB9
:1033E000E05A15EE902AFFF79BBBF0EE675AFEEE0F
:1033F000E05A15EE902AFFF780BB67EEA57AFDEE46
:10340000E77A17EE902A12B2FFF724BB82FF7F0003
:1034100000000030000000387E0080FF30B5184CFE
:10342000154685B0046004F1080EEC460FC98EE81D
:103430000F00D4ED047AF5EEC07A8CE80F00F1EEBF
:1034400010FA1ADDB7EE006A94ED057A27EE277AB6
:10345000C6EE276A84ED0D7AC4ED0C6A6DB1204684
:1034600040F8185F01F04CFA064903690020064A4B
:103470002162A262E36005B030BD012005B030BD1D
:1034800034A2002400200030000000300068083022
:10349000704700BFB1F5807F03680A4628BF4FF42C
:1034A0008072B1F5807F9A6094BF00200120704740
:1034B0000068183001F084BA30B5046883B0084859
:1034C0000D46A368A26A216A9B00009004F11800CF
:1034D00001F018FA0020C4E9000503B030BD00BFB8
:1034E0006128000810B4074B4FF07E5130240022B1
:1034F000032019619C60D8605DF8044B5961C3E9F1
:103500000622704734A20024704700BF254A9378F2
:1035100003B970470B68002BFBD04FF0000C70B55F
:103520006546A3EB0C04032C34D910F80C608444DA
:1035300016F00E0F06F00F042CD00F2C2AD01444D6
:1035400094F8104834B3013C0CF1010E5EFA84FE8D
:10355000D2F80434D2F80844013B1B1BC3F309031F
:10356000F3B11CF8016FD2F80434D2F80844013BDF
:103570001B1BC3F30903002BF5D0D2F80834F44524
:1035800003F101041344C4F309041E71C2F8084492
:10359000DED10B680435ADB29D42AC46C1D370BDDF
:1035A0009370F6E76CA200244FF0010CCAB20F4BE7
:1035B000A2EB0C02B2FA82F210B552090C4C82B0A6
:1035C000046020466170114683F800C001920AF041
:1035D0006FF800230A20A37001F080FC019A2046B6
:1035E000044902B0BDE810400AF0E8B8BCC40024A9
:1035F0006CA200240D350008012203689A70704700
:103600000368D3F80804D3F80434C01AC0F30900DF
:10361000704700BF0268D2F80834D2F804145B1A6D
:10362000C3F30903002BF6D0D2F80434D1180133C8
:10363000C3F309030879C2F8043470470368987823
:10364000704700BF0368D3F80424C3F80824704708
:1036500010B5104B104C03F1100E04F5016C0FCB9C
:103660008CE80F009EE80F0004F5026C8CE80F0058
:103670000A484FF60F010723094AC4F830082046CC
:10368000A4F8341884F836380649BDE810400FF025
:1036900091BA00BFAC4401086CA2002480707FF096
:1036A00000000024093500088378022B30B5044659
:1036B0008FB037D0032B33D0012B31D000230A93A6
:1036C000E378012B2AD0022B28D000230B93002370
:1036D00020460C9302F02AF80546204602F02EF808
:1036E00023780990082B13D8DFE803F01F324558E0
:1036F0006B7E91A40500594BD3F8E02042F4807210
:10370000C3F8E020D3F8E03003F480730893089BFB
:1037100009A9284603F0D2F90FB030BD0B93D6E7C4
:103720000A93CDE711230A93CAE74C4B09A928460F
:10373000D3F8E02042F00102C3F8E020D3F8E030F3
:1037400003F001030093009B03F0B8F90FB030BD04
:10375000424B09A92846D3F8E02042F00202C3F800
:10376000E020D3F8E03003F002030193019B03F063
:10377000A5F90FB030BD394B09A92846D3F8E02090
:1037800042F00402C3F8E020D3F8E03003F0040371
:103790000293029B03F092F90FB030BD2F4B09A9A1
:1037A0002846D3F8E02042F00802C3F8E020D3F81E
:1037B000E03003F008030393039B03F07FF90FB09D
:1037C00030BD264B09A92846D3F8E02042F010026C
:1037D000C3F8E020D3F8E03003F010030493049B17
:1037E00003F06CF90FB030BD1C4B09A92846D3F883
:1037F000E02042F02002C3F8E020D3F8E03003F0EC
:1038000020030593059B03F059F90FB030BD134B0E
:1038100009A92846D3F8E02042F04002C3F8E0208E
:10382000D3F8E03003F040030693069B03F046F91B
:103830000FB030BD094B09A92846D3F8E02042F06B
:103840008002C3F8E020D3F8E03003F08003079350
:10385000079B03F033F90FB030BD00BF004402589E
:1038600038B5054601F062FF0446284601F066FFC0
:1038700001462046BDE8384003F028BB70B5064637
:103880000D4601F053FF0446304601F057FF2A1E53
:103890000146204618BF0122BDE8704003F01CBB62
:1038A0000023122270B586B0CDE902230493036889
:1038B000032B01D804230593061D841D304601F017
:1038C00035FF0546304601F039FF034601A9284679
:1038D000019303F0F3F8204601F028FF0346204649
:1038E0001C4601F02BFF01A903462046019303F07B
:1038F000E5F806B070BD00BF634A0368934210B597
:103900008CB028D0614A934258D0614A934200F06B
:103910009480604A934201D00CB010BD5E4C5F4869
:10392000D4F8E03043F00203C4F8E030D4F8E030DB
:1039300003F002030A930A9BFFF7B2FFD4F8F430B6
:1039400043F08003C4F8F430D4F8F43003F080037B
:103950000B930B9BE0E7504C5148D4F8E03043F018
:103960000203C4F8E030D4F8E03003F0020301931E
:10397000019BFFF795FFD4F8E83000221F2043F4A5
:1039800000131146C4F8E830D4F8E83003F400130B
:103990000293029BD4F8D83043F00103C4F8D83026
:1039A000D4F8D83003F001030393039B02F00AF824
:1039B0001F200CB0BDE8104002F042B8364C394828
:1039C000D4F8E03043F08003C4F8E030D4F8E030BD
:1039D00003F080030493049BD4F8E03043F0020327
:1039E000C4F8E030D4F8E03003F002030593059BFF
:1039F000FFF756FFD4F8E8300022212043F480037B
:103A00001146C4F8E830D4F8E83003F48003069394
:103A1000069BD4F8D83043F00103C4F8D830D4F86A
:103A2000D83003F001030793079B01F0CBFF21205F
:103A30000CB0BDE8104002F003B81B48FFF730FFA0
:103A4000154B00224820D3F8E840114644F4000406
:103A5000C3F8E840D3F8E84004F400040894089C54
:103A6000D3F8D84044F00104C3F8D840D3F8D83094
:103A700003F001030993099B01F0A4FF48200CB057
:103A8000BDE8104001F0DCBF005400400058004089
:103A9000005C0040001C00580044025830AD002477
:103AA000A8AA002480AB002458AC00242DE9F043E0
:103AB0001A4B87B000254FF010099E46EC46184B74
:103AC000FF22E04667461A700EF118060EF1300428
:103AD000CDE90055CDE90255ADF80090BCE80F00E6
:103AE000CDE90455AEE80F009CE803000095ADF861
:103AF00000908EE80300B8E80F000FC69CE80300B2
:103B00000095ADF8009086E803000FCF0FC49CE845
:103B1000030084E8030007B0BDE8F08398000024A8
:103B2000A4AA002410B5EFF3108472B6084B1A78DB
:103B3000120602D504B962B610BD1B78D82205481A
:103B40005BB202FB0300143002F066FCF2E700BF38
:103B5000A4AA0024A8AA0024014804F055B800BF74
:103B600034AB0024014804F04FB800BF0CAC002473
:103B7000014804F049B800BFE4AC00242DE9F0434B
:103B80000F68D8243F4D85B007FB04F4032F05EBE5
:103B90000403036040DCCB680E46012B3CD84DD0BB
:103BA0004FF0D808B646DFF8FC9008FB0758BEE88F
:103BB0000F00C446ACE80F00DEF800300DF1100E27
:103BC000CCF80030D8F808C099E80F000EE90F00D3
:103BD0000EEB8703BCF1010F53F8103CC8F88C3092
:103BE00031D0BCF1020F42D0BCF1000F35D0317C96
:103BF0008C34D823002201202C4403FB07534900B6
:103C0000C3E92602C3F894102046C3E92822C3E979
:103C10002A2203F0EBFD18B1012005B0BDE8F083C6
:103C20000146204603F0FCFF0028F5D1014620465E
:103C300004F020F8003818BF0120EEE70B7C103BA1
:103C4000672BADD9E8E701F0B5FA0F4B98420CBFEE
:103C50000E4B0F4BC8F89030C9E701F0ABFA0A4B96
:103C600098420CBF0B4B0C4BC8F89030BFE701F0EB
:103C7000A1FA054B98420CBF084B094BC8F890308D
:103C8000B5E700BFA8AA0024000E27072D0FB0300B
:103C90003211D0205F4390608A62E030200BA01088
:103CA0001A098010CC4401082DE9F041D0F80080B9
:103CB00082B00D4617461E4608F18C04204603F0DC
:103CC000ABFF2028FAD1D8F80C3073B96D0020462C
:103CD000089C33463A46A9B2009403F0DDFD003853
:103CE00018BF012002B0BDE8F081089B324639467A
:103CF000204603F0A5FEF2E7044B10221A7483F865
:103D0000E82083F8C02183F898227047A8AA0024ED
:103D100030B5002395B04FF48071062204460B9312
:103D200006921393CDE90C13CDE90E33CDE911338F
:103D300001F044FA07282BD004F1100541F2883233
:103D400006A9284604F0E8FE28B10123184684F8A5
:103D50005C3015B030BD0222022306A92846CDE909
:103D6000002310220123CDE9022300224FF4800317
:103D7000CDE9042305224FF0807306926A460F9323
:103D800041F2883305F034F80028DED115B030BD9B
:103D90000323012084F85C3015B030BD0000000022
:103DA00070B50023A4B04FF080724FF480750446C4
:103DB000ADF806300D93CDE910320122CDE90E5356
:103DC000CDE91223CDE91433002943D0F02300F1CB
:103DD000100508AEADF80630C02341F288323146F6
:103DE0002846089304F098FE28B10123184684F869
:103DF0005C3024B070BD41F288320DF106012846D6
:103E000004F0F4FE03460028EFD105224FF4807140
:103E10001E93284616924FF080721B9321931F9297
:103E200002AA9FED1F7BCDE91C13CDE922338DED56
:103E3000027B9FED1D7B41F2883316A98DED047B3B
:103E40009FED1B7B8DED067B04F0D2FF0028CCD1CB
:103E500024B070BD00F1100508AE612341F2883234
:103E600031462846089304F057FE0028BDD141F2A0
:103E700088320DF10601284604F036FF0028B4D13F
:103E8000BDF80630204623F0780343F04003ADF838
:103E90000630FFF73DFF00289ED0A6E7AFF3008075
:103EA0000000000001000000100000000100000000
:103EB00000000000000040002DE9F04F00234FF407
:103EC000807501264FF0807804462DED028BABB053
:103ED0008DF8073013932193299314950E96CDF8FE
:103EE0005C80CDE91533CDE91863CDE91A33CDE90E
:103EF0002253CDE92433CDE9273306231C9301F067
:103F00005DF9072808D004F1100741F288321CA996
:103F1000384604F001FE40B10123184684F85C30B5
:103F20002BB0BDEC028BBDE8F08F4FF0020A4FF0D2
:103F3000020B4FF0050941F2883308AA1CA9384644
:103F4000CDF89480CDF870909FED2D8BCDE908AB26
:103F50004FF0000A4FF4800B8DED0A8BCDE90CABCE
:103F600004F046FF0028D7D141F2883238460EA926
:103F700004F0D2FD0028CFD1402341F288320DF168
:103F8000070138468DF8073004F030FE0028C3D111
:103F900041F288330EA902AA3846CDF83890CDF800
:103FA0005C809FED197B8DED048BCDE906AB8DED2B
:103FB000027B04F01DFF03460028ADD1CDF87090C0
:103FC0004FF00109CDF894804FF00008219308AA22
:103FD00029931CA938462295CDE92333CDE927330F
:103FE00041F288338DED0A8BCDE90CABCDE9088920
:103FF00004F0FEFE002893D0304684F85C608FE722
:10400000100000000100000040000000400000001F
:104010002DE9F043624CA3B00D46046001F0CEF8E8
:10402000072800F0A980286823466968AA6807C3A2
:104030001E46AB8926F8043B3046257B677B04F09F
:104040004DFDE0B9574B012D4FF00108E0612361B0
:1040500014BF4FF480134FF40003C4E9058893FAAA
:10406000A3F3B3FA83F34FF48079013BC4F82490AF
:10407000C4E90B003046236204F0C4FC38B10122CD
:10408000134684F85C20184623B0BDE8F08366230D
:104090000B90139041F2883206A90693CDE90C905B
:1040A000CDE90E00CDE91100304604F035FD0028C1
:1040B000E5D1992341F2883206A93046069304F0EF
:1040C0002BFD0028DBD105231C9019906A46149320
:1040D0004FF08073219014A91D9341F288339FED16
:1040E0002A7BCDE91A90CDE91F008DED007B9FED75
:1040F000287B30468DED027B9FED277B8DED047B89
:1041000004F076FE0028BAD129462046FFF748FE83
:104110000028B4D12046FFF7CFFE03460028AED1D9
:10412000002FB0D1189330460027002606AA14A904
:10413000CDF86890CDE91F33EB2314934FF440631F
:104140001B934FF4005317934FF440431C93A02349
:104150001693062319934FF0805321934FF0407329
:10416000CDE906671D9304F0BBFE034600288AD004
:10417000434684F85C8086E701230322184684F8CE
:104180005C2023B0BDE8F0830000000001000000C7
:1041900010000000010000000000000000004000CE
:1041A00008AE0024005000522DE9F04F8FB0414B73
:1041B0000024026800AF9A427C63C7E90944C7E95A
:1041C0000B4403D03C37BD46BDE8F08F3A4B40F678
:1041D00009213A48EB46D3F8D42007F11C0607F131
:1041E000220A4FF0020942F480424FF00308C3F85C
:1041F000D420D3F8D42002F48042BA60BA68D3F84D
:10420000E02042F04002C3F8E020D3F8E02002F0C2
:104210004002FA60FA68D3F8E02042F02002C3F8C6
:10422000E020D3F8E02002F020023A613A69D3F8A6
:10423000E02042F01002C3F8E020D3F8E02002F0C2
:1042400010027A617A69D3F8E02042F00202C3F8E2
:10425000E020D3F8E030F86103F002033984BB6159
:10426000174B7B60BB697B6853F8040F7B6001F0E0
:104270005DFA7B680546186801F060FA16F8013BA4
:10428000786207F124012846C7F830807B63C7E9CC
:104290000A9402F013FC5645E5D100225C20114639
:1042A00001F090FB5C2001F0CBFB3C37DD46BD46C6
:1042B000BDE8F08F00500052004402580A0A090974
:1042C00064AE0024114B02689A4200D07047104A35
:1042D00070B5D2F8D4300F4C23F4804304F11806A3
:1042E000C2F8D43054F8040F01F020FA05462068D3
:1042F00001F024FA0146284602F020FDB442F1D133
:104300005C20BDE8704001F0A9BB00BF0050005226
:104310000044025864AE0024014804F06DBE00BFA2
:1043200018AE0024084B1A1D981D03F1080110B4A3
:104330009C1C9A6603F10A02C3E91834C3E91B0105
:104340005DF8044B5A67704708AE002438B503681F
:1043500071B9026A00F1280500F5AC74012A0CBF9E
:10436000002140218BBB1D4B5722C0F858310DE076
:10437000426A00F1C00500F5E874012A0CBF002173
:104380004021EBB1164B5A22C0F8D0310023204611
:10439000C4E901214FF480524FF48061636262618D
:1043A0004FF48042C4E903314FF48073C4E906231B
:1043B0004FF40033236201F0B7FC58B1FFBEFEE7B3
:1043C000084B5822C0F8D031E0E7074B5922C0F81B
:1043D0005831DBE7C5E92044A56338BD1000024031
:1043E0007000024028000240580002402DE9F043CE
:1043F000821D05468BB0031D05F10A010830CDE989
:10440000052305F10C02AB69CDE907010992002BE8
:104410003DD0EB69B3FA83F84FEA58180123022222
:1044200005AE0AAF4FF006090393CDE9012356F814
:10443000044B2B792278934216D02B68F3B1012BD1
:1044400002D1F2B10A230493204601F077F9034622
:104450002046009301F06AF9694602F02FFBBE4244
:10446000E5D10BB0BDE8F083697963789942E4D176
:10447000B8F1000FF3D02B68002BE0D1CDF81090ED
:10448000E2E76378022B14BF0A230823DBE74FF02F
:104490000108C3E7534A0368934230B505468BB021
:1044A00055D02032934252D04F4A934204D020320A
:1044B000934201D00BB030BD4C4C4D48D4F8E030A5
:1044C00043F00103C4F8E030D4F8E03003F0010316
:1044D0000593059BD4F8E03043F00803C4F8E030BE
:1044E000D4F8E03003F008030693069BD4F8E030DC
:1044F00043F04003C4F8E030D4F8E03003F0400368
:104500000793079BD4F8F03043F40003C4F8F0306D
:10451000D4F8F03003F400030893089BFFF766FF1C
:10452000D4F8D830296843F001032F4A3048C4F842
:10453000D830891AD4F8D83018BF012103F001030C
:104540000993099B0BB0BDE83040FFF7FFBE274C35
:104550002848D4F8E03043F00103C4F8E030D4F840
:10456000E03003F001030093009BD4F8E03043F007
:104570001003C4F8E030D4F8E03003F010030193E6
:10458000019BD4F8E03043F04003C4F8E030D4F8A5
:10459000E03003F040030293029BD4F8F03043F480
:1045A0008003C4F8F030D4F8F03003F480030393B0
:1045B000039BFFF71BFFD4F8D830296843F00103B1
:1045C000084A0C48C4F8D830891AD4F8D83018BF33
:1045D000012103F001030493049B0BB0BDE83040BC
:1045E000FFF7B4BE04580140045C01400044025887
:1045F000DCB0002480AE0024014801F00DBF00BFF4
:10460000D8AF0024014801F007BF00BF50B000241C
:10461000014801F001BF00BF34B20024014801F09D
:10462000FBBE00BFACB200241A4A0368934210B428
:104630000BD02032934208D0174A934216D0203232
:10464000934213D05DF8044B7047144B0022D3F80B
:104650005442C3F85822002CF4D0D3F84802D3E9CE
:10466000931223465DF8044B520818470B4B002267
:10467000D3F8B044C3F8B424002CE3D0D3F8AC246E
:10468000D3F8A814D3F8A404520823465DF8044BC9
:10469000184700BF04580140045C014080AE00246C
:1046A000184A0368934210B40BD02032934208D0CA
:1046B000154A934217D02032934214D05DF8044B30
:1046C0007047124BD3E994245208C3F85822002CA7
:1046D000F4D0D3E99201234601EB820100EB820082
:1046E0005DF8044B1847094BD3F8AC24D3F8B04419
:1046F0005208C3F8B424002CE0D0D3F8A814D3F89F
:10470000A404E8E704580140045C014080AE0024A2
:104710002DE9F04F0C684FF41776754F87B004FB06
:1047200006F6012C07EB060AC0F800A000F3A080F3
:104730000D468E464FF00008D44669A3D3E9002306
:1047400069A1D1E90001CDE9022306ABCAF8508284
:1047500003EB8403CDE9040153F810BC53F8083C83
:10476000CAE992880193BEE80F00ACE80F00BEE8EA
:104770000F00ACE80F00019B9EE80300CAF828B0C8
:10478000CAF8C0308CE803002B69042B0CD8DFE892
:1047900003F0737D879103004FF41773554A03FBB1
:1047A00004739A64C3F8E020AA692B6A002A43D0F4
:1047B000002B4FF4177308BF022203FB047318BFCA
:1047C0000322DA6201221A63EA696B6A002A40D185
:1047D000191E4FF4177318BF012103FB0473C3E9BB
:1047E00031126B69022B05D8434A12F80380434A01
:1047F00052F823904FF4177306F1280042464946B9
:1048000003FB04740023384463646363E365C4F802
:10481000DC30C4F8CC30C4F8F430C4E90F33C4E958
:104820001533C4E93533C4E93B33022306F086FC73
:10483000002849D0FFBEFEE7191E4FF4177318BFBA
:10484000012103FB0473C3E90B12EA696B6A002AB6
:10485000BED0002B4FF4177308BF022203FB047372
:1048600018BF0322C3F8C4200122C3F8C820B8E748
:10487000012007B0BDE8F08F4FF417734FF4FA52E0
:1048800003FB04739A64C3F8E0208DE74FF41773B9
:104890004FF47A5203FB04739A64C3F8E02083E771
:1048A0004FF417734FF4FA4203FB04739A64C3F88E
:1048B000E02079E74FF417734BF6803203FB047363
:1048C0009A64C3F8E0206FE706F1C0000223424675
:1048D0004946384406F032FC0028CAD0FFBEFEE745
:1048E00004580140045C014024580140245C01400C
:1048F00080AE00240077010000450108044501084E
:104900000068704770B5046882B015460E46C4F85A
:104910005032C4E99212069AC4F85422A269012ABC
:1049200026D0626A012A9AB211D0294604F1C00049
:10493000019206F0BFFC236A019A012B10D0294690
:1049400004F1280006F0B6FC002002B070BD04F1AE
:10495000C000019206F040FD236A019A012BEED1BE
:10496000314604F1280006F037FD002002B070BD8A
:10497000226A012A9AB211D0294604F12800019234
:1049800006F098FC636A019A012B10D0294604F1C5
:10499000C00006F08FFC002002B070BD04F12800BA
:1049A000019206F019FD636A019A012BEED131469E
:1049B00004F1C00006F010FD002002B070BD00BF81
:1049C00003681B69042B05D8044A02EB830393EDAB
:1049D000000A70479FED020A704700BF10450108AA
:1049E00000803B470368D3F858027047714A036858
:1049F00011698B4200B587B04BD0916E8B4200F0AD
:104A0000B680D2F8C0108B4200F0B380D2F81811F3
:104A10008B4200F0B080B3F1804F1ED0664A9342C3
:104A20000DD0664A934200F0A880654A934200F098
:104A3000B280644A93421ED007B05DF804FB624B1B
:104A4000D3F8E82042F00202C3F8E820D3F8E830B7
:104A500003F002030293029BEEE75B4BD3F8E820DE
:104A600042F00102C3F8E820D3F8E83003F0010374
:104A70000193019BE0E7544BD3F8E82042F0100289
:104A8000C3F8E820D3F8E83003F010030593059B42
:104A9000D2E700205821B3F1804F01FB0022127BA6
:104AA0001ED045498B4235D044498B4248D04449B9
:104AB0008B42BED1444BD3F8E81041F00801C3F853
:104AC000E810D3F8E83003F008030493049B002AAD
:104AD000B2D0322000220F2100F074FF322014E007
:104AE000394BD3F8E81041F00101C3F8E810D3F8CE
:104AF000E83003F001030193019B002A9CD01C20A5
:104B000000220F2100F05EFF1C2007B05DF804EBCF
:104B100000F096BF2C4BD3F8E81041F00201C3F827
:104B2000E810D3F8E83003F002030293029B002A56
:104B300082D01D2000220F2100F044FF1D20E4E759
:104B4000214BD3F8E81041F00401C3F8E810D3F882
:104B5000E83003F004030393039B002A3FF46CAF97
:104B60001E2000220F2100F02DFF1E20CDE7012086
:104B700090E702208EE703208CE7134BD3F8E82060
:104B800042F00402C3F8E820D3F8E83003F004034D
:104B90000393039B50E70C4BD3F8E82042F0080244
:104BA000C3F8E820D3F8E83003F008030493049B2B
:104BB00042E700BF38B30024000400400008004072
:104BC000000C004000100040004402580F4B0268E7
:104BD00019698A420BD0996E8A4211D0D3F8C0105D
:104BE0008A420FD0D3F818118A420DD070470021A5
:104BF000582202FB01331A6D002AF7D0586D104776
:104C00000121F5E70221F3E70321F1E738B300249E
:104C1000014806F0EDBE00BF48B30024014806F08D
:104C2000E7BE00BFA0B30024014806F0E1BE00BF0C
:104C3000F8B30024014806F0DBBE00BF50B40024E6
:104C4000F0B54FF0580C0F682E4D8DB00CFB07FCE3
:104C5000032F05EB0C06066047DC0B46086834465C
:104C600049689A6807C41B7B237004AC7268264BA2
:104C7000002A4FF00002726118BF1022B2610FCB00
:104C800084E80F000CAB03EB870353F8203CB3F12F
:104C9000804F336124D01D4A934221D030890CF1DA
:104CA000100458230021802203FB07532C44C3E93E
:104CB00007019A62204606F005FD034600B1FEE7B3
:104CC0004FF4805208A92046099301930892CDE938
:104CD0000A33CDE9023306F0C5FD034640B1FEE7D5
:104CE000582303FB07539868D9E701200DB0F0BDA6
:104CF00001A920460193039306F032FF0028F5D066
:104D0000FEE700BF38B30024DC440108000C00407B
:104D1000006808B5037B10302BB106F08DFD00381C
:104D200018BF012008BD06F06DFD003818BF012036
:104D300008BD00BF11B10368C3E91412704700BF7A
:104D40000C4B00224FF0FF311A739960196683F8FB
:104D50006420C3F8B81083F8BC20C3F8101183F89E
:104D60001421C3E90022C3E91622C3E92C22C3E9B6
:104D70004222704738B30024704700BF08B500F0E6
:104D8000E5FDBDE8084000F0E5BE00BF064808B5F7
:104D900003680BB102F0A4F8044803681BB1BDE836
:104DA000084003F04BB808BDB0BC0024A8B80024EC
:104DB000064808B503680BB102F092F8044803688E
:104DC0001BB1BDE8084003F039B808BDB0BC0024F1
:104DD000A8B80024064808B503680BB102F080F8B3
:104DE000044803681BB1BDE8084003F027B808BDBC
:104DF000B0BC0024A8B80024364BDA6A520062D551
:104E00009A6A9A6A9A6A9B6A180600D500BE314B64
:104E10009B6A990600D500BE2E4B9B6ADA0600D528
:104E200000BE2C4B9B6A1B0700D500BE294B9B6A1A
:104E3000980700D500BE274B9B6AD90700D500BE56
:104E4000244B9B6A1A0400D500BE224B9B6A9B042C
:104E500000D500BE1F4B9B6AD80400D500BE1D4B79
:104E60009B6A190500D500BE1A4B9B6A5A0500D5EE
:104E700000BE184B9B6A9B0500D500BE154B9B6A74
:104E8000D80500D500BE134B9B6A990100D500BE22
:104E9000104B9B6ADA0100D500BE0E4B9B6A1B03C8
:104EA00000D500BE0B4B9B6A580300D500BE094BD2
:104EB0009B6A990300D500BE064B9B6ADA0306D4B1
:104EC00000BE00BEFEE7DB6A9B07FAD5F8E700BE2E
:104ED000F6E700BF00ED00E000F044BD00F048BD83
:104EE0002DE9F041CEB004464C2200210AA80EF074
:104EF000D5FA2022002102A80EF0D0FABC2200210F
:104F00001EA80EF0CBFA022003F094FC2368012BBC
:104F10004FF0000354D0534A02250193C820D16AB0
:104F2000514B21F00101D162D26A02F001020192DB
:104F30009A6942F440429A619B6903F440430193A9
:104F4000019B494A93699B04FCD5484902240022ED
:104F500001268B6A04274FF0080823F0030323433C
:104F60008B62052316900AA818934FF4803310968D
:104F7000179419941597CDF86880CDE91B2221224A
:104F8000CDE91344CDE90A2304F03EF900B1FEE770
:104F90003F220323294602A8CDE902230022082349
:104FA000CDE9042340224023CDE9062340234FF4DA
:104FB0008062CDE9082304F055FC0346B8B1FEE752
:104FC000294A04250093F0209169264B41F4404181
:104FD0009161926902F440420092DA6A42F0010261
:104FE000DA62DB6A03F001030093009BA9E7202249
:104FF0004FF4805125934FF440152B9280222D932E
:105000001EA83093269135914FF4807124923492EA
:105010000C223394439140F2271120921022CDF8B4
:1050200084802A971F96CDE92E34CDE93B334FF487
:105030008033CDE922463193002446930623CDE9FF
:105040003E4527934FF48063094C2C931E94CDE981
:10505000281204F063FE00B1FEE703F011FC4EB02D
:10506000BDE8F0810004005800480258004402588E
:105070000F130F032DE9F0410D46044684B0D1E92A
:10508000000184E8030000F031FCAE79002E37D037
:105090006F460AF001F9FEF709FD08F08DFF09F0EF
:1050A00085FE2B79002B54D16B799BB1BFF34F8FC9
:1050B000BFF36F8F3C4B0022C3F85022BFF34F8FDA
:1050C000BFF36F8F5A6942F400325A61BFF34F8FBA
:1050D000BFF36F8F4FF0FF320023002400253946C5
:1050E000324802928DF80C30CDE90045FFF7A8FD5B
:1050F0002E48FFF70DFE08F08FFB04B0BDE8F081ED
:1051000020466F46FFF7ECFE012400F0D1FC4FF083
:1051100040534FF4807838460193254BADF800405A
:10512000CDE9023800F0E2FC19224FF04043384646
:105130008DF80F40ADF80D808DF801408DF80A60B4
:105140008DF80820019300F0D1FC042000F0BEFC93
:105150009FE7154C0023C4F88430BFF34F8FD4F879
:10516000803043F6E07EC3F3C906C3F34E334FEA03
:10517000431C0CEA0E00334640EA8372013BC4F83C
:1051800060225A1CF8D1ACF1200C1CF1200FF0D198
:10519000BFF34F8F636943F480336361BFF34F8F75
:1051A000BFF36F8F80E700BF00ED00E098B40024EC
:1051B0000E00010304F086BC04F0A0BC1C4B9B68ED
:1051C00003F17842B2F5003F25D3B3F5803F20D3F9
:1051D00003F16042B2F5003F1FD303F15C42B2F528
:1051E000002F1CD303F17042B2F5902F19D303F1B5
:1051F0004842B2F5803F16D303F18042B2F1806F8E
:1052000013D303F1E043B3F5000F2CBF08200720B0
:10521000704701207047002070470220704703202C
:10522000704704207047052070470620704700BF74
:1052300000ED00E003480023034A044903600DF039
:10524000B9BC00BF98B4002400000024794D0008C8
:1052500010B4204C0022204B83B0D4F888101F4893
:1052600041F47001C4F8881019681D4C41F0010127
:1052700019601A61196808401A4918609A61DA6160
:105280001A629A62DA621A635A639A63DA631A6478
:105290005A64186820F4802018601A66D3F8DC205D
:1052A00042F06042C3F8DC20D3F8DC300193019B6C
:1052B00023681940B1F1005F03D20B4B0122C3F800
:1052C0000821044B4FF000629A6003B05DF8044B74
:1052D000704700BF00ED00E0004402587FEDF6EAA1
:1052E0000010005C0000FFFF008000514B4A036883
:1052F00030B593428BB04FF00004CDE90444CDE9C2
:105300000644089404D0464A934249D00BB030BDBD
:10531000444D4FF4C0524448D5F8E03043F0010307
:10532000C5F8E030D5F8E03003F001030093022324
:10533000009904A9CDE904230A23089301F0BEFBD8
:105340004FF40072002304A937480694CDE90423E2
:1053500001F0B4FBD5F8D8302246214643F0006373
:105360006220C5F8D830D5F8D83003F00063019337
:10537000019B00F027FB622000F062FB22462146E1
:10538000632000F01FFB632000F05AFB22462146F9
:10539000652000F017FB652000F052FB0BB030BD1C
:1053A000204D4FF4404204A9D5F8E03043F0020309
:1053B000C5F8E030D5F8E03003F002030293022391
:1053C00002981A48CDE904230C23089301F076FBD8
:1053D000D5F8D830224621464A2043F00073C5F85C
:1053E000D830D5F8D83003F000730393039B00F056
:1053F000E9FA4A2000F024FB224621464B2000F027
:10540000E1FA4B2000F01CFB224621464D2000F023
:10541000D9FA4D2000F014FB0BB030BD000008405D
:1054200000000440004402580000025800040258E2
:1054300000F57171D0F8040407F0DCBCC1EBC103C6
:1054400000EB8303D0F80404D3F8082207F000BD72
:10545000C1EBC10300EB8303D0F804049A6C07F09E
:1054600035BD00BFD0F8040407F0D4BDC16810B545
:10547000044619B1022900D0FEE70121D4F8040442
:1054800007F0B2FDD4F80404BDE8104007F084BD75
:1054900010B50446D0F8040407F0AAFD2268D2F83B
:1054A000003E43F00103C2F8003E236A23B1034AE1
:1054B000136943F00603136110BD00BF00ED00E067
:1054C000D0F8040407F09EBDD0F8040407F0B2BD84
:1054D000D0F8040407F0ACBDD0F8040407F0ACBD6C
:1054E000D0F8040407F0AABD70B5067804461EB1D2
:1054F000012E30D0002070BD304D0923304AC5F850
:105500000404C0F8985228462E612E63C5E9002392
:1055100002230222EB600023C5E9062300220023B8
:10552000C5E9082301220123C5E90A2302F0CEFBC5
:1055300000B1FEE78021284603F05CF931464022A5
:10554000284603F02DF980220121284603F028F98E
:105550002678012ECED11B4D09221B4B00216A60FB
:1055600002222B600223C5F804442846EB60002386
:10557000C4F898522961C5E9062300220023C5E931
:105580000823C5E90C2301220023C5E90A2302F000
:105590009DFB044600B1FEE74FF40071284603F07E
:1055A00029F921468022284603F0FAF84FF4BA720E
:1055B0003146284603F0F4F89CE700BFA0B400246D
:1055C00000000840A8B8002400000440D0F8980269
:1055D00008B502F011FC032802D8024B185C08BD84
:1055E000022008BD344501089446D0F898021A46B6
:1055F00008B5634602F086FF032802D8024B185C08
:1056000008BD022008BD00BF34450108D0F898024B
:1056100008B502F0B5FF032802D8024B185C08BD9C
:10562000022008BD34450108D0F8980208B503F0FF
:1056300037F8032802D8024B185C08BD022008BDC9
:1056400034450108D0F8980208B503F06DF8032836
:1056500002D8024B185C08BD022008BD3445010881
:105660000A06D0F8983206D4C1EBC10103EB8101E0
:1056700091F8FE01704701F07F01C1EBC10103EB1E
:10568000810191F83E007047D0F8980208B502F009
:1056900023FF032802D8024B185C08BD022008BD76
:1056A00034450108D0F8980208B502F0D1FF03286C
:1056B00002D8024B185C08BD022008BD3445010821
:1056C000D0F8980208B502F091FF032802D8024BE7
:1056D000185C08BD022008BD34450108D0F89802C6
:1056E00002F0ACBFD0F8C00207F09ABFD0F8C002F9
:1056F00007F0AEBFD0F8C00207F0B6BF704700BFDA
:10570000D0F8C00207F09CBFD0F8C00207F09CBFE1
:10571000D0F8D00308B501F0A3FF032802D8024B4C
:10572000185C08BD022008BD38450108024B02780C
:1057300053F82200704700BF5C450108024B4278D5
:1057400033F81200704700BF3C4501088CB00A28AE
:1057500014D8DFE800F01523313F4D5B697785935E
:1057600006004D4BD3F8E02042F48062C3F8E020FD
:10577000D3F8E03003F480630B930B9B0CB07047BD
:10578000454BD3F8E02042F00102C3F8E020D3F803
:10579000E03003F001030193019BEFE73E4BD3F8A8
:1057A000E02042F00202C3F8E020D3F8E03003F03A
:1057B00002030293029BE1E7374BD3F8E02042F06B
:1057C0000402C3F8E020D3F8E03003F004030393AD
:1057D000039BD3E7304BD3F8E02042F00802C3F834
:1057E000E020D3F8E03003F008030493049BC5E7FE
:1057F000294BD3F8E02042F01002C3F8E020D3F8A0
:10580000E03003F010030593059BB7E7224BD3F874
:10581000E02042F02002C3F8E020D3F8E03003F0AB
:1058200020030693069BA9E71B4BD3F8E02042F028
:105830004002C3F8E020D3F8E03003F040030793C0
:10584000079B9BE7144BD3F8E02042F08002C3F89B
:10585000E020D3F8E03003F080030893089B8DE745
:105860000D4BD3F8E02042F48072C3F8E020D3F867
:10587000E03003F480730993099B7FE7064BD3F86C
:10588000E02042F40072C3F8E020D3F8E03003F4E3
:1058900000730A930A9B71E700440258704700BFE7
:1058A0000F4B1B780BB90120704710B504464FF41D
:1058B0007A700C4AB0FBF3F31068B0FBF3F000F021
:1058C000E1F80F2C00D808B1012010BD00222146BC
:1058D0004FF0FF3000F076F8034B00201C6010BD45
:1058E000E8000024E0000024EC00002438B5032088
:1058F000124D00F055F8124C03F014FF114A1249F2
:105900009369C3F30323CB5C03F01F0320FA03F373
:105910000E202B60926902F00F028A5C02F01F02D7
:10592000D3402360FFF7BCFF10B10124204638BDEF
:105930000446FFF7B3FF204638BD00BFE000002457
:10594000E40000240044025824450108034A044BA3
:1059500011681B780B441360704700BF74BF0024AC
:10596000E8000024014B1868704700BF74BF002492
:1059700038B50446FFF7F6FF0546631C02D0044B1A
:105980001B781C44FFF7EEFF431BA342FAD338BD3C
:10599000E8000024014B1868000C70470010005C00
:1059A00006494FF6FF0C0002054BCA6800F4E060A0
:1059B00002EA0C0210430343CB60704700ED00E0A5
:1059C0000000FA051B4BDB68C3F3022300B5C3F1EB
:1059D000070E03F1040CBEF1040F28BF4FF0040EB4
:1059E000BCF1060F1AD9033B4FF0FF3C0CFA03FC45
:1059F00022EA0C024FF0FF3C00280CFA0EFC21EAD0
:105A00000C0101FA03F141EA02010ADB09010A4B28
:105A1000C9B2034483F800135DF804FB0022134667
:105A2000E8E700F00F000901044BC9B203441976FE
:105A30005DF804FB00ED00E000E100E0FCEC00E0BC
:105A4000002807DB00F01F0101234009024A8B40B8
:105A500042F82030704700BF00E100E000280DDB75
:105A60004309012200F01F000549203302FA00F02B
:105A700041F82300BFF34F8FBFF36F8F704700BF14
:105A800000E100E0431EB3F1807F0CD24FF0E02232
:105A9000002006494FF0F00C5361072381F823C022
:105AA0009061136170470120704700BF00ED00E076
:105AB000BFF35F8F044B00215A6A22F480325A628E
:105AC000C3F89410704700BF00ED00E0064B40F0B3
:105AD0000100C3F894005A6A42F480325A62BFF35C
:105AE0004F8FBFF36F8F704700ED00E0174A437888
:105AF000C2F89830017821B3436800B5C2F89C30F1
:105B0000C37A90F80CC01B0690F80FE043EA0C73C0
:105B100090F80AC00B43817B43EACC4390F80DC058
:105B200043EA8C4390F809C043EA4143017A43EACF
:105B30000E4343EA0C2343EA4103C2F8A0305DF868
:105B400004FBC2F89C10C2F8A010704700ED00E002
:105B5000704700BF08B5FFF7FBFF08BD0268344B74
:105B6000344930B4344D354CAA4218BF9A420CBF68
:105B7000012300238A4208BF43F001033031A242CF
:105B800008BF43F0010330348A4208BF43F00103E9
:105B90003031A24208BF43F0010330348A4208BFCB
:105BA00043F0010301F55C71A24208BF43F0010319
:105BB00004F55C748A4208BF43F001033031A2420D
:105BC00008BF43F0010330348A4208BF43F00103A9
:105BD0003031A24208BF43F0010330348A4208BF8B
:105BE00043F001033031A24208BF43F001038A426F
:105BF00008BF43F0010313B9114B9A4213D1D3B23A
:105C00001049114C103BA1FB03515F2B0F4BC1F30B
:105C1000021103EA0203615C88BF0433C165836536
:105C2000184630BC704722F0FF038365F8E700BFD9
:105C3000100002404000024028000240580002408C
:105C4000B8040240ABAAAAAA8C45010800FCFFFFD9
:105C50000368294A294930B4294D2A4CAB4218BF60
:105C600093420CBF012200228B4208BF42F0010286
:105C70002831A34208BF42F0010228348B4208BFFA
:105C800042F001022831A34208BF42F001028B42D8
:105C900008BF42F0010212B91B4A934213D1DBB292
:105CA0001A4C1B4A0121083B1A4DA4FB03434566CD
:105CB00002EB1312C3F30413920001FA03F302661A
:105CC000836630BC7047DAB21349144C1944103A59
:105CD000A829A4FB02234FEA131300D80833104A63
:105CE00003F01F0501210F4C1A44A940446692009D
:105CF00081660266E5E700BF085402583054025836
:105D00001C5402584454025894540258CDCCCCCC64
:105D10000096001680580258F0FBFDBFABAAAAAA55
:105D2000008200108008024070B50446FFF71AFE9A
:105D3000002C00F0C68023680546954A934248D05F
:105D40001832934245D0303292498B4218BF934269
:105D500001F130010CBF012200228B4208BF42F04A
:105D6000010218318B4208BF42F0010218318B4208
:105D700008BF42F0010218318B4208BF42F0010215
:105D800001F556718B4208BF42F0010218318B4277
:105D900008BF42F0010218318B4208BF42F00102F5
:105DA00018318B4208BF42F0010218318B4208BF04
:105DB00042F0010218318B4208BF42F00102183153
:105DC0008B4208BF42F001021AB9734A934240F075
:105DD000F5800222002184F8352084F834101A68F6
:105DE00022F001021A6005E0FFF7BCFD431B052B02
:105DF00040D823681A68D107F6D4D4E9022521696E
:105E00002A43A0691D680A4361690A43E1690243A4
:105E10000A4362492940256A2A430A43616A0429E0
:105E20002FD01A605A6922F00702114359612046A7
:105E3000FFF794FEE26D3F2302F01F029340836060
:105E40002046FFF705FFA368802B3CD06368A06E57
:105E5000DAB2013BD4E91851072B2A60486026D9F1
:105E60000023C4E91B33636700200123606584F8C5
:105E7000353070BD202203230120626584F835305F
:105E800070BDD4E90B5129430A431A605969A26ACB
:105E900021F00701114341F00401002DC6D0002874
:105EA0004FD1012A6ED032F00202BFD151E0501E14
:105EB000072810D9626FD4E91B31002018604A60AE
:105EC000D2E7012070BD0023A16ED4E918026360FF
:105ED00003605160C4E72168314B324DA94218BFBD
:105EE000994205F114050CBF01230023A94208BF04
:105EF00043F001031435A94208BF43F001031435F0
:105F0000A94208BF43F001031435A94208BF43F07A
:105F100001031435A94208BF43F001033BB9224BEA
:105F2000994204D0214B224913449B0003E0214BAA
:105F3000214913449B0001228240C4E91B3162675E
:105F4000BBE7B0F5005F0ED0022A05D9032A7FF423
:105F50006DAFEA017FF56AAF012340221846626502
:105F600084F8353070BD032A3FF660AF01A050F8C9
:105F700022F000BF595F0008535F0008595F000816
:105F8000855F0008B5F1C07F7FF450AFE4E700BF44
:105F90001000024040000240B80402403F8010FE62
:105FA000085402581C540258945402583F8200105E
:105FB000400902403F96001640590258324A334881
:105FC0003349834218BF934200F128000CBF0122DD
:105FD00000228B4208BF42F001022831834208BFF1
:105FE00042F0010228308B4208BF42F00102283102
:105FF000834208BF42F001028B4208BF42F0010217
:1060000012B9244A934238D102220021224D84F849
:10601000341084F835201A681540A268402A2AD026
:10602000802A0CBF4FF480400846266AD4E9031248
:10603000D20842EAD102616942EAD102A16942EA88
:10604000D102E16942EAD102144942EA1612194426
:106050002A4302431248A0FB010120461A600B09A3
:106060009B00E365FFF77AFDE26D012302F01F025A
:1060700093404360E4E61020D7E740220323012049
:10608000626584F8353070BD085402581C540258BB
:1060900030540258945402580F00FEFFF8ABFDA78D
:1060A000CDCCCCCC002800F0BC80844690F83400E5
:1060B000012800F0B88001202DE9F0419CF835401E
:1060C0008CF83400844208D000224FF400638CF82E
:1060D0003420CCF85430BDE8F0810220DCF80050C8
:1060E0007A4C8CF835000020794ECCF85400794871
:1060F000854218BFA54200F118000CBF01240024FE
:10610000854208BF44F001041830854208BF44F0BE
:1061100001041830854208BF44F00104183085425C
:1061200008BF44F0010400F55670854208BF44F0F2
:1061300001041830854208BF44F00104183085423C
:1061400008BF44F001041830854208BF44F0010440
:106150001830854208BF44F001041830854208BF5A
:1061600044F001041830854208BF44F0010418309F
:10617000854208BF44F00104A0F59560B54218BF00
:106180008542DCF86C600CBF0120002054EA000856
:10619000286820F001002860DCF86400DCF8684022
:1061A000DCF85870446040D016B1DCE91C0444604F
:1061B000DCF85C004FF03F0E00F01F000EFA00F01C
:1061C000B860286820F4802028606B60DCF8083014
:1061D000402B23D0A960EA602B6823F01E0343F014
:1061E00016032B60DCF840301BB12B6843F008032A
:1061F0002B60DCF860301A68D20303D51A6842F4C9
:1062000080721A601EB1336843F4807333602B6868
:10621000002043F001032B60BDE8F081AA60E96033
:10622000DAE7012070470220704716B1DCE91C0450
:1062300044602948DFF8A8E0754518BF85420EF193
:10624000140E0CBF01200020754508BF40F001006E
:106250000EF1140E754508BF40F001000EF1140E4A
:10626000754508BF40F001000EF1140E754508BFDA
:1062700040F001000EF1140E754508BF40F001001A
:1062800010B9164885420ED1DCF85C0000F01F0EF4
:10629000012000FA0EF078606B60DCF80830402BCB
:1062A00010D0A960EA602B6823F00E0343F00A03C4
:1062B0002B60DCF84030002B9BD02B6843F00403AC
:1062C0002B6096E7AA60E960EDE700BF400002405E
:1062D00028000240580002400854025894540258C2
:1062E0001C54025800285FD038B590F8352003467A
:1062F000022A55D10168444A914248D0183291424D
:1063000045D03032414C4248A14218BF914204F17D
:1063100048040CBF01220022814208BF42F0010262
:106320003030A14208BF42F001023034814208BF40
:1063300042F0010200F55C70A14208BF42F0010288
:1063400004F55C74814208BF42F001023030A14282
:1063500008BF42F001023034814208BF42F001021E
:106360003030A14208BF42F001023034814208BF00
:1063700042F001023030A14208BF42F001028142E6
:1063800008BF42F0010212B9224A91420ED1042202
:10639000002083F835200B6823F001030B6038BD23
:1063A000802201205A6538BD012070470A681C6EA2
:1063B00022F00E02D86D9D6D0A6000F01F000A6881
:1063C00022F001020A6001222168824021F48071DA
:1063D00021606A60DA6ED3E91910486032B1116841
:1063E000D3E91C0421F48071116044600024012170
:1063F0001A6D83F8344083F835101AB11846904767
:10640000204638BD104638BD100002404000024012
:1064100070000240B80402402DE9F04300229C4B7A
:1064200083B09C4E1D688146019203689A4A846D30
:10643000934218BFB342276808BF0126216818BFDE
:10644000002645D018329548834218BF934200F188
:1064500018000CBF01220022834208BF42F0010253
:106460001830834208BF42F001021830834208BF4F
:1064700042F001021830834208BF42F0010200F5E9
:106480005670834208BF42F001021830834208BFB1
:1064900042F001021830834208BF42F00102183076
:1064A000834208BF42F001021830834208BF42F025
:1064B00001021830834208BF42F0010218308342C3
:1064C00008BF42F001021AB9754A934240F0508267
:1064D000D9F85C10082201F01F0C02FA0CF21742E6
:1064E00040F0888127FA0CF2D2070CD55A691006C1
:1064F00009D5012202FA0CF2A260D9F8542042F028
:106500000202C9F854204FF0040E0EFA0CF0384283
:106510005BD0002E4FD1634ADFF88081434518BF1E
:10652000934208F118080CBF01220022434508BF1E
:1065300042F0010208F11808434508BF42F0010289
:1065400008F11808434508BF42F0010208F1180895
:10655000434508BF42F0010208F55678434508BF9D
:1065600042F0010208F11808434508BF42F0010259
:1065700008F11808434508BF42F0010208F1180865
:10658000434508BF42F0010208F11808434508BF1F
:1065900042F0010208F11808434508BF42F0010229
:1065A00008F11808434508BF42F001021AB93C4AF5
:1065B000934240F019821A68920706D5A060D9F874
:1065C000542042F00402C9F85420102202FA0CFCB4
:1065D0001CEA070F6CD0002E45D1324A2F4EB34231
:1065E00018BF934206F118060CBF01220022B342E5
:1065F00008BF42F001021836B34208BF42F0010260
:106600001836B34208BF42F001021836B34208BF41
:1066100042F0010206F55676B34208BF42F001028D
:106620001836B34208BF42F001021836B34208BF21
:1066300042F001021836B34208BF42F00102183698
:10664000B34208BF42F001021836B34208BF42F01D
:1066500001021836B34208BF42F001021AB9104ACB
:10666000934240F0C9811A68100721D5C4F808C0C8
:106670001A68560300F14C811A68D20503D41A68CF
:1066800022F008021A60D9F840308BB10CE000BF4C
:10669000E0000024100002402800024058000240A0
:1066A000B80402404000024048469847D9F85C10C0
:1066B00001F01F0120268E403E4268D0D9F800200C
:1066C000A54BA64FBA4218BF9A4207F118070CBF54
:1066D00001230023BA4208BF43F001031837BA422E
:1066E00008BF43F001031837BA4208BF43F0010363
:1066F0001837BA4208BF43F001031837BA4208BF3F
:1067000043F001031837BA4208BF43F0010307F50D
:106710005677BA4208BF43F001031837BA4208BFA0
:1067200043F001031837BA4208BF43F0010318379A
:10673000BA4208BF43F001031837BA4208BF43F01A
:1067400001031837BA4208BF43F001031837BA42B1
:1067500008BF43F001031BB9814B9A4240F06281AC
:106760001368DB0613D5A66099F83530042B13683F
:1067700000F0AE8013F4802F136800F0D3801C0368
:1067800040F1DE80D9F83C300BB148469847D9F843
:106790005430002B00F0B980D9F85430D8071FD5F9
:1067A000D9F80020042189F83510136823F001037B
:1067B00013606C4BA3FB0535AD0A02E01368D907E3
:1067C00004D5019B0133AB420193F7D9002389F82B
:1067D00034301368DB074CBF0323012389F83530BD
:1067E000D9F84C30002B00F09080484603B0BDE84B
:1067F000F0431847186840070AD5186820F00400CD
:106800001860A260D9F8542042F00102C9F854205F
:1068100027FA0CF2D2077FF576AE534A53488342EB
:1068200018BF934200F130000CBF012200228342C6
:1068300008BF42F001021830834208BF42F0010253
:106840001830834208BF42F001021830834208BF6B
:1068500042F0010200F55670834208BF42F0010287
:106860001830834208BF42F001021830834208BF4B
:1068700042F001021830834208BF42F00102183092
:10688000834208BF42F001021830834208BF42F041
:1068900001021830834208BF42F0010218308342DF
:1068A00008BF42F00102002A7FF420AE002E7FF4E0
:1068B0001DAE1A68042202FA0CF23A4240F09480AB
:1068C000102202FA0CFC17EA0C0F3FF4F1AE84E63A
:1068D00023F016031360536923F080035361D9F842
:1068E00040309BB3136823F0080313603F23002557
:1068F000012203FA01F1D9F85030A16089F834502F
:1069000089F83520002B7FF470AF03B0BDE8F08329
:106910001B6818037FF5B7AED9F84830002B7FF419
:10692000C3AEC5E613F480737FF42CAF116821F079
:1069300010011160012289F8343089F8352021E7EF
:10694000D9F84430002B7FF420AF20E7D9F8483045
:10695000002BC7D1CAE700BF100002402800024048
:10696000B8040240B5814E1B58000240400002406E
:106970004E4A4F4DAB4218BF934205F114050CBF70
:1069800001220022AB4208BF42F001021435AB42A3
:1069900008BF42F001021435AB4208BF42F00102C9
:1069A0001435AB4208BF42F001021435AB4208BFB8
:1069B00042F0010212B93F4A9342A6D1D9F85C5085
:1069C00004261A6805F01F05AE400E4219D057077D
:1069D00017D5100466604BD5D1034FD4D9F8483091
:1069E000002B7FF402AF90E71A68102202FA0CFC29
:1069F00017EA0C0F3FF45CAE1A6852077FF558AEE9
:106A000034E60226AE400E4211D097070FD56660DD
:106A1000140439D5D00343D4D9F84430002B7FF483
:106A2000E4AE72E713689F077FF5B1AE9BE60826D8
:106A3000AE400E423FF469AF11077FF566AF1A68AA
:106A4000002122F00E021A600123D9F84C2003FA2B
:106A500005F56560C9F8543089F8341089F8353087
:106A6000002A3FF452AF484603B0BDE8F043104758
:106A7000920603D41A6822F004021A60D9F8403052
:106A8000002B7FF4B2AE40E712F0200208D1196863
:106A9000012421F00A01196089F8342089F8354071
:106AA000D9F83C30002B7FF4A0AE2EE708540258F2
:106AB0001C54025894540258406D70472DE9F04F11
:106AC0000D6883B0002D00F0D5800023DFF86882C8
:106AD00001229A4012EA050C00F0C7804E6826F0A9
:106AE0001009B9F1020F40F0C88003F007044FEA23
:106AF000D30E4FF00F0A4FEA840900EB8E0E0AFA0C
:106B000009FADEF8204024EA0A0A0C6904FA09F4BA
:106B100006F0030944EA0A04CEF820404FEA430E87
:106B20000324D0F800A009FA0EF904FA0EF42AEAB8
:106B3000040AE44349EA0A09C0F80090D0F808A022
:106B4000CF6804EA0A0A07FA0EF949EA0A09C0F806
:106B50000890C6F30019D0F804A009FA03F92AEA4C
:106B6000020249EA02024260C268F70004EA020433
:106B70008A6802FA0EF242EA0402C26075D5644CD9
:106B800023F0030E03F00309D4F8F420C6444FEABF
:106B9000890942F00202C4F8F420D4F8F42002F08B
:106BA00002020192019A0F22DEF8084002FA09F26D
:106BB00024EA0202574CA04225D004F58064A0428A
:106BC0007BD0554CA0427ED0544CA0426FD0544C48
:106BD000A04200F08480534CA04200F08680524CCA
:106BE000A04276D0514CA04200F08580504CA0428B
:106BF00000F087804F4CA0420CBF09240A2404FAFD
:106C000009F942EA0902CEF808204FF0B0426FEAD3
:106C10000C0EF403D2F880204FF0B04454BF0EEABB
:106C200002024CEA0202C4F88020B203D4F8844085
:106C30004FF0B04254BF0EEA04044CEA0404F702D9
:106C4000C2F8844014684FF0B04254BF0EEA040406
:106C50004CEA04041460B40252684FF0B04454BFCC
:106C60000EEA02024CEA02026260013335FA03F2D4
:106C70007FF42EAF03B0BDE8F08F4FEA430E03243C
:106C8000D0F800B006F0030A04FA0EF409F1FF3957
:106C90000AFA0EFA2BEA040BB9F1010F6FEA0404A9
:106CA0004AEA0B0AC0F800A03FF65EAF46E70324AD
:106CB00004FA09F942EA0902A5E7012404FA09F9EC
:106CC00042EA09029FE7022404FA09F942EA0902AA
:106CD00099E7062404FA09F942EA090293E7042431
:106CE00004FA09F942EA09028DE7052404FA09F9D0
:106CF00042EA090287E7072404FA09F942EA09028D
:106D000081E7082404FA09F942EA09027BE700BF97
:106D1000004402580000025800080258000C0258B3
:106D2000001002580014025800180258001C0258A3
:106D3000002002580024025800040058002900F0E6
:106D4000A88000232DE9F04FDFF8689183B0DFF8C9
:106D50006881DFF868A1DFF868B14FF0010E0EFA24
:106D600003F212EA010C6FD023F0030503F00304D1
:106D70000F2640454D444FEAC404AF6806FA04F6B6
:106D800007EA0607019721D0504566D0584567D0DD
:106D9000434FB8426ED0434FB84270D0424FB842D2
:106DA00063D0424FB84256D0414FB84272D0DFF85C
:106DB00014E1704568D0DFF810E1704514BF4FF062
:106DC0000A0E4FF0090E0EFA04F400E00024019FB1
:106DD000A74219D1AC6824EA06064FF0B044AE6071
:106DE000D4F8805025EA0C05C4F88050D4F88450BB
:106DF00025EA0C05C4F88450256825EA0C052560B1
:106E0000656825EA0C05656003255C0003F007074B
:106E10000F2605FA04F40568BF00254306FA07F7B4
:106E20000560DD0800EB85052E6A26EA07062E625E
:106E3000856825EA04058560456825EA0202426006
:106E4000C26822EA0404C460013331FA03F284D137
:106E500003B0BDE8F08F4FF0060E0EFA04F4B6E76B
:106E60004FF0020E0EFA04F4B1E74FF0050E0EFAE1
:106E700004F4ACE74FF0030E0EFA04F4A7E74FF06A
:106E8000040E0EFA04F4A2E74FF0080E0EFA04F412
:106E90009DE770474FF0070E0EFA04F497E700BF26
:106EA000000C025800100258001402580018025832
:106EB000001C025800040058000002580004025848
:106EC00000080258002002580024025803691942A1
:106ED00014BF01200020704702B909048161704786
:106EE0002DE9F04F056885B00446284605F0EAFC18
:106EF000012802D005B0BDE8F08F206805F092FCB3
:106F00000028F7D0206805F08DFC10F4001F2068E1
:106F100002D04FF40013436105F084FC10F4801F8D
:106F2000206802D04FF48013436105F07BFC10F021
:106F3000806F206802D04FF08063436105F072FCDF
:106F400010F0020F20682FD105F06CFC870000F1D3
:106F50001381206805F066FCC60100F1CF8020682F
:106F600005F060FC000700F1BE80206805F05AFCC7
:106F700010F0007F20681AD105F054FCC306B9D583
:106F80002568AB6923F01003AB612E6AC6F3434159
:106F9000C6F30A17022902D1002F40F0C681AB695F
:106FA00043F01003AB61A5E702234361CCE705F092
:106FB000F7FCD4F808E080462068BEF1000F00F02E
:106FC000998005F5A06500264FF0280B4FF0020AC6
:106FD0004AE000F5A0694A0109EB4117BB685B076D
:106FE0005DD50423BB60FB6843F00203FB60BB6814
:106FF000980500F1FD80BB68DB0740F1CF80236975
:1070000053B101EB81003B6904EBC000C3F3120CE8
:10701000836CA3EB0C03C3648B004FF0010C4FF0A7
:10702000000E581804EBC000C0F858E080F85DC0AE
:10703000C7F808C090F83FE01EF0FD0F00F0648133
:10704000BEF1030F00F040820B4404EBC30393F83E
:10705000502082F0010283F85020D4F808E0206824
:1070600001362035764545D206F00F0328FA03F3A2
:10707000D907F5D52B68F1B21A04AAD400F5A0629D
:107080004FEA411C02EB4117BB6813F004090DD015
:107090000423BB60FB6843F00203FB60E0E7BB68CE
:1070A0009B0640F1B3802023BB60A0E7BB6813F0D0
:1070B000200300F0CA8001EB8103202204EBC3030C
:1070C000BA6093F83D20012ACAD183F83D9083F835
:1070D0005CA0FB6843F00203FB6005F065FCD4F89C
:1070E00008E02068BCE72046FEF7FCFA2068082389
:1070F00043613BE74FF0007343613DE72668D6F8F4
:1071000040340293D6F840340393039B23F02E03BC
:107110000393029B980707D5029BD90700F163816F
:10712000039B43F002030393029B1A0718D5039BAA
:1071300043F008030393029B5B0740F15C81A16964
:10714000022900F09A81E368012B03D14EF66022F8
:10715000C6F804242046FEF7D3FA2046FEF7C6FA06
:107160002068029B9F0603D5039B43F020030393F3
:10717000039BC6F84034F3E6D5F84034204623F0AC
:107180002E03C5F84034FEF7B5FA0121206805F05A
:10719000E5FB20684FF000534361DBE6BB689807CE
:1071A00040F18E80FB6801EB810C23F0020304EBBD
:1071B000CC0CFB608B009CF85D00012800F0B280D5
:1071C000052800F0AF80062800F0A381082800F011
:1071D000A081032800F0DC819CF85C000246C7F81F
:1071E00008A02046FEF78AFAD4F808E0206837E7BE
:1071F000FB68206843F00203FB6005F0D5FB4FF409
:1072000000732068BB60D4F808E029E7BB681B075F
:1072100000F1BB80BB685B057FF5E9AEFB680192BE
:1072200043F002030091FB6005F0BEFB00991020C3
:10723000019A01EB8103B860082004EBC30383F8D3
:107240005D004FF48063BB60D1E6D7F8089019F079
:10725000400F40F0B180BB6813F4007340F02F8101
:10726000D7F8089019F0010F40F03F81BB6813F088
:10727000080340F06881D7F8089019F0100F00F06B
:10728000C98001EB810204EBC2029365032382F8FB
:107290005D3092F83D303BB90BFB014393F83C2045
:1072A00012B9012283F83D20FB6843F00203FB6022
:1072B00005F07AFB10232068BB60D4F808E0CFE625
:1072C000BB6813F0800340F0E380BA68D20640F157
:1072D000D08001EB810004EBC00090F83F20032A2E
:1072E00000F04B8112F0FD02E4D123698265002B8E
:1072F000E0D10BFB0143032283F85D20FB6820688B
:1073000043F00203FB60D3E7FA68206842F0020210
:1073100001930091FA6005F047FB1022DDE90013AC
:10732000BA6091E68CF85C0058E706F00F0606EBB1
:10733000860804EBC808D8F8441000293FF42FAEA3
:10734000284605F5A0653A4605F0CEF9D8F8443050
:1073500005EB46123B441169D8F84C20C8F844307C
:1073600073013A44C8F84C20BC4A0A405AB1EA5862
:1073700022F0804242F00042EA5098F8503083F008
:10738000010388F85030256809E6FB684FF0050CCA
:10739000019243F002030091FB6001EB810304EBD7
:1073A000C30383F85DC01023BB600823BB6005F0F6
:1073B000FBFADDE900121AE601EB810204EBC202DE
:1073C0009365042382F85D30012382F83D30FB6829
:1073D00043F00203FB6005F0E7FA40232068BB603E
:1073E000D4F808E03CE6B369204623F00053B361CB
:1073F000FEF77CF994E62046FEF786F9D6F840348D
:10740000206823F02E03C6F84034836943F000530C
:107410008361A6E6BB681B0600F1C880BB685B05FC
:1074200000F1D780BB689B077FF51AAEFB680BFBAA
:10743000014023F00203FB6090F85D30012B00F067
:10744000E180032B00F0DB80042B00F0D880052BBB
:1074500000F0FC80062B00F0E480082B00F0E180B7
:107460000BFB01432046C7F808A093F85C20FEF709
:1074700045F9D4F808E02068F2E5029B206803F49F
:10748000C023B3F5802F18BF012105F067FA61E62C
:10749000FB6801EB810243F0020304EBC202FB60D4
:1074A000936D01339365062382F85D30206805F003
:1074B0007BFA80232068BB60D4F808E0D0E5FB6845
:1074C00043F00203FB6098E652F80970019347F01D
:1074D0000057009142F80970624680F85CC020466F
:1074E000FEF70CF9DDE90013AEE5FA6801EB81095E
:1074F00042F0020204EBC909C9F85830FA6005F0FD
:1075000053FA0123BB6089F85D30D4F808E02068A5
:10751000A6E503EB010C04EBCC0CDCF858000130C1
:10752000032825D8CCF8580002200B4404EBC303F1
:1075300083F85C0052F8093023F0804343F00043A5
:1075400042F809304AE608230091BB60FB6843F02B
:107550000203FB6005F028FA0099052201EB810186
:1075600004EBC10383F85D20D4F808E0206877E5D8
:107570000020CCF858000420D7E7FA680BFB014044
:1075800042F0020283652068FA6005F00DFA91E688
:107590000BFB0143022083F85CA052F8093023F072
:1075A000804343F0004342F8093017E6FB6800913E
:1075B00043F00203FB6005F0F7F9009906230BFB8B
:1075C000014181F85D3080232068BB60D4F808E079
:1075D00046E5FB68009143F00203FB6005F0E4F927
:1075E00010230099BB604FF480630BFB0141BB602B
:1075F000082381F85D30D4F808E0206830E580F891
:107600005CA02DE780F85C3090F83F30023B012B06
:107610003FF626AF90F8513083F0010380F85130E7
:107620001EE70BFB0140836D0133032B11D88365EB
:1076300002230BFB014080F85C3052F80C3023F041
:10764000804343F0004342F80C3009E780F85C3097
:1076500006E7002383650423EBE700BF0000F81F63
:1076600090F8B832012B0CD0012310B50446006805
:1076700084F8B83205F0F8F90023184684F8B832D7
:1076800010BD0220704700BFF8B505460E461746EC
:10769000701C2C682CD1A369990727D4A369DA063A
:1076A000F9D5A3699A06FCD520231022E261E36193
:1076B000A3699F0701D50023A362A369DE0703D452
:1076C000A36943F00103A361636800221B482021E2
:1076D0000340012063606B6C85F8402043F0040395
:1076E0006B6485F8411085F84220F8BD0020F8BD94
:1076F000A3699B07FAD4A369D9061BD4FEF732F914
:10770000C01BB04201D8002EC2D16B6C20210022D8
:1077100001200B4385F840206B6485F8411085F803
:107720004220F8BDFEF71EF9C01B8642EDD3002EA5
:10773000EBD02C68A3699B06F4D5B5E700E800FE02
:10774000F8B505460E4617462C68A3699B0649D432
:10775000A369DA0626D5731C38D1A3699E06FCD529
:1077600020231022E261E361A369990701D5002378
:10777000A362A369DA0703D4A36943F00103A361F9
:1077800063680022184820210340012063606B6C6D
:1077900085F8402043F004036B6485F8411085F8B8
:1077A0004220F8BDFEF7DEF8C01BB04201D8002E23
:1077B000CAD16B6C2021002201200B4385F84020A8
:1077C0006B6485F8411085F84220F8BDA3699806DE
:1077D000C6D4FEF7C7F8C01B8642EAD3002EE8D015
:1077E0002C68B8E70020F8BD00E800FE00284ED065
:1077F00010B590F84130044603F0FF02002B41D051
:1078000023682421626884F84110196822F07062AC
:10781000E06821F00101012819601A619A6822F4D8
:1078200000429A60A26829D042F4044202289A6079
:1078300002D14FF400625A6058684FF0200C15498D
:10784000226901435960D96821F40041D960D4E923
:107850000501024342EA0122D4E90710DA6000225E
:10786000014310461960196841F001011960626412
:1078700084F841C0226384F8422010BD42F40042E3
:107880009A60D9E780F84020FCF736F8B8E7012085
:10789000704700BF008000022DE9F047984690F83D
:1078A0004130089E202B40F0878090F840300446FD
:1078B000012B00F0818001238946174680F8403073
:1078C000FEF750F8054604E0FEF74CF8401B192877
:1078D00075D82368986910F40040F5D121226762B9
:1078E0006063C9F3090784F84120102284F842201C
:1078F0006064A4F82A80628D92B2FF2A6DD8628DEE
:10790000494892B2D1B222855A6802403A4342EACB
:107910000142464911435960DFF81C814FF0FF0ACC
:10792000DFF81891638D2A46314620469BB2002B22
:1079300030D0FFF7A9FE002873D1606A216810F8E3
:10794000012B238D8A62628D013B6062013A9BB2FA
:1079500092B223856285628D92B2002BE2D1002A19
:10796000E0D0701C43D18B691A06FCD5638D9BB2A5
:10797000FF2B48D94B682A46A4F828A0204603EAE2
:1079800008033B4343EA09034B603146638D9BB2D6
:10799000002BCED1FFF7D4FE002842D1236820214E
:1079A000234DD9615A682A405A6084F8411084F8FE
:1079B000400084F8420000E00220BDE8F087636CDC
:1079C0002021002201200B4384F84020636484F8C6
:1079D000411084F84220BDE8F0875A6812490A40F5
:1079E00014493A431143FF222285596094E78B6979
:1079F0001B06BBD4FDF7B6FF401B8642DFD3002E2B
:107A0000DDD02168ADE7638D9BB2DAB223854B6888
:107A100003EA080343EA02433B4343F000734B602D
:107A200080E70120BDE8F087009800FC002000827C
:107A300000E800FE0020FF81009C00FC0000FF0128
:107A40002DE9F0471F4690F84130202B40F08E8002
:107A500004460D46002900F08380B2FA82F91646EA
:107A60004FEA5919002A7BD05FFA83FA90F8403028
:107A7000012B7BD0012380F84030FDF773FF2123D9
:107A800065628046256884F8413084F842A0C4F8D5
:107A9000449066856B68C4F8349023F400436B60AF
:107AA0007B1C66D1AE693607FCD50823EB61E36821
:107AB000022B06D0AE69F60328D4AE69F603F9D5D9
:107AC00024E0AB691907FCD50823EB617B1CF1D0DE
:107AD000AB69DD031AD4FDF745FFA0EB0800874230
:107AE00053D3002F51D02568F0E74246394620464F
:107AF000FFF7CAFD00285BD1636A226813F8011BF7
:107B00009162658D6362013DADB26585638D9BB207
:107B1000002BEAD1424639462046FFF711FE0028E5
:107B20004DD02268536843F400435360636C042BC8
:107B300054D1002363642023D361781C41D193691D
:107B40001904FCD451680023202041F40041516005
:107B500084F84100184684F8423084F8403003E04D
:107B60004FF4007301206364BDE8F0870220BDE894
:107B7000F087AB69180733D4FDF7F4FEA0EB0800DB
:107B8000874202D30FB125688AE7636C2020002169
:107B90002268034384F84010636484F841000120A4
:107BA00084F84210536843F400435360BDE8F08703
:107BB00022680120536843F400435360D4E72268ED
:107BC000B9E793691B04BDD5FDF7CCFEA0EB080017
:107BD0008742DAD3002FD8D02268AEE70120C3E76E
:107BE0000823EB61E368022B7FF470AF08E0FDF738
:107BF000B9FEA0EB08008742C7D3002FC5D0256887
:107C0000AB691A07F3D55FE70268436B91691268A5
:107C100003B11847704700BF90F84100704700BF9C
:107C200090F84120202A23D15FFA82FC90F840206E
:107C30000346012A1CD00268242000B583F84100C5
:107C40004FF0000E106820F001001060106820F462
:107C5000805010601068014370461160116841F057
:107C60000101116083F841C083F840E05DF804FB36
:107C70000220704790F84120202A22D1034600B507
:107C80005FFA82FE90F84020012A1CD0026824206E
:107C90004FF0000C83F84100106820F001001060E4
:107CA000106820F4706040EA01216046116011689C
:107CB00041F00101116083F841E083F840C05DF8B4
:107CC00004FB0220704702205DF804FBF0B58BB086
:107CD000002800F0888090F8BD330546046803F062
:107CE000FF02002B79D0204603232E462F1D85F856
:107CF000BD33E36B6C4613F4807308BF2B6104F053
:107D00002FF956F810EBB446BCE80F000FC4BCE8DE
:107D10000F000FC49CE8030084E80300704697E856
:107D20000E0004F001F8044630B10124022320467D
:107D300085F8BD330BB0F0BD0146286804F018F992
:107D4000686858B322464FF0010E2146C2EBC203C9
:107D500002F1010C05EB830383F83C20A3F84220D9
:107D60005FFA8CF283F83DE0824283F83F10196598
:107D7000C3E91111EAD30022C4EBC403611C05EB73
:107D8000830383F8FC41CCB283F8FD21844283F85D
:107D9000FF21C3F81022C3E98122EDD36C460FCE38
:107DA0000FC40FCE0FC496E8030084E8030097E8E1
:107DB0000E00286804F0F4F804460028B5D101222A
:107DC0006B6A85F83800934285F8BD230FD0286888
:107DD00004F01AFD20460BB0F0BD80F8BC23FDF77F
:107DE00085FA286880E7012420460BB0F0BD2846BC
:107DF00000F006FDEBE700BF10B590F8BC33044679
:107E00000068012B17D00122A36A934284F8BC2397
:107E100009D004F0EBFC206804F09AF8002318461F
:107E200084F8BC3310BDA3699342F2D0836B43F452
:107E300080338363EDE7022010BD00BF2DE9F04FD2
:107E4000076889B00446384604F03CFD10B109B01B
:107E5000BDE8F08F8246206804F0E4FC0028F6D0EC
:107E6000206804F0DFFC10F0020F206803D04369A3
:107E700003F00203436104F0D5FC10F4002B2068EA
:107E800040F0508104F0CEFC10F4802F206840F0C8
:107E9000EB8004F0C7FC002874DB206804F0C2FC0F
:107EA000000564D4206804F0BDFC020114D52268EA
:107EB000536903F00063536194F8F433002B40F0EE
:107EC00095810121204684F8F413536DC3F3830395
:107ED000C4F8F83300F0ACFC206804F0A3FCC30441
:107EE0007BD4206804F09EFC10F4005F20685DD114
:107EF00004F098FC10F0100F206812D0836923F072
:107F0000100383613D6AC5F3434305F00F06022B5E
:107F100000F03182062B00F07F81836943F010036B
:107F2000836104F07FFC070700F15781206804F0AB
:107F300079FCC60200F14681206804F073FC8502DA
:107F400000F13581206804F06DFC400000F12681CD
:107F5000206804F067FC41077FF579AF23685D680E
:107F60006A0700F129825A682A435A606FE7D7F8F6
:107F70000838D90700F11C822068436903F40063C4
:107F8000436190E7D7F8043823F00103C7F80438B9
:107F900094F8F433012B00F038812046FDF790FA75
:107FA0002068436903F00043436177E704F08EFCE7
:107FB000206804F015F92568E06001F06DFD227B72
:107FC0000146284603F042FF2046FDF74FFA20689D
:107FD000436903F4005343618AE7D7F8043810215A
:107FE000206807F5006523F001036B6004F0DEF8FC
:107FF0006068B0B107F510634FF67F3199600AF100
:10800000010A1A682033824522F4001243F8202C1A
:10801000C3F8E811D3F8E02122F40012C3F8E021FC
:10802000ECD1EB6943F00113EB61236B002B40F0C3
:10803000E1806A6942F22B0313436B612B6943F0C1
:108040000B032B61D7F8003804F57172217C23F4FF
:10805000FE632068C7F8003804F054FC20684369C8
:1080600003F4805343613DE704F0F4FB804620684D
:10807000B8F1000F00F0E580264607F510694FF0D3
:10808000000BCDE9037A09E05FEA58080BF1010B18
:1080900006F11C0609F1200900F0D58018F0010F47
:1080A000F2D05FFA8BF7394604F0F0FBC3070546C0
:1080B0001FD50BF00F03039901229A40D1F83438F1
:1080C00023EA0203C1F834380123C9F808302369D0
:1080D000012B03D1D6E911231344B364394620465A
:1080E000FDF7B6F92369012B03D1BBF1000F00F0B6
:1080F000AC81280702D50823C9F80830E90602D563
:108100001023C9F808306A0602D54023C9F80830A0
:10811000AB0702D50223C9F808302D0600F1C6804E
:108120002068B1E704F088FB05462068002D00F0C8
:10813000868007F53066A1464FF0000B049707E0F4
:108140006D080BF1010B06F1200609F11C097DD029
:10815000EB07F5D55FFA8BF1039104F089FB10F082
:10816000010F8046039973D118F0080F40F0F28098
:10817000206818F0100F01D01023B36018F0200F02
:1081800005D02169012900F05A812023B36018F439
:10819000005FD5D04FF40053B360D1E72046FDF720
:1081A0009BF92068436903F080434361D1E6204690
:1081B0005FFA8BF1FDF788F92068436903F4001337
:1081C0004361C0E620465FFA8BF1FDF781F9206834
:1081D000436903F480134361AFE62046FDF742F99B
:1081E0002068436903F008034361A0E62046FDF7D9
:1081F0004FF971E6D5F8843043F00B03C5F88430AD
:108200006B6C43F00B036B641CE70021204684F881
:10821000F41300F00DFBC3E6C6EBC606082204F516
:108220007171384604F060FAC5F30A1304EB860254
:108230002068D2F814120B44C2F814326DE6AB4633
:1082400020E6C34625E6DDE9037A22E6049F19E627
:10825000206801232769B36000F53063012FD0F84F
:1082600040E003EB4B139A6800F0C580984FBE4581
:1082700040F0BD80170440F1B6804FF4004218F082
:10828000080F9A603FF475AF026C986890498A4273
:1082900000F0978020460392FDF7CAF88D4B039AB1
:1082A0009A4200F296800823B36061E7D6E914533E
:1082B000D4F800A0AB4250463FF6E6AE0AF5106295
:1082C000716CCDF81CA002EB4B120592EA1A8A429F
:1082D00028BF0A4605998969033289B2B1EB920F2A
:1082E000C0F0A980CDF81890C146A046059C1AE0C0
:1082F000736C3A46B16C50469D4228BF1D4698F8B3
:1083000010300093ABB204F0D9F9B36CA1692B44DF
:1083100089B2B364736D2B440335B1EB950F73656C
:10832000C0F08180356D9D42A5EB0305E0D8444641
:10833000C846DDF81890D4F800A0079B01225046EB
:1083400003F500610BF00F039A404B6B23EA020325
:108350004B6399E62268216902F53063126C0129AA
:1083600003EB4B13986891D15A498A4229D8204689
:10837000FDF75EF897E747F6F0731D423FF4CDAD89
:10838000C6EBC606C5F30A12384604EB8606154648
:10839000D6F8081204F0A8F9D6F8083220682B4461
:1083A000C6F80832D6F814322B44C6F81432B4E5B5
:1083B0002046FDF76DF8DFE52046FDF791F82368CC
:1083C000D1E5020402D54FF400429A602046FDF741
:1083D0002FF8216901297FF466AF04F571722068D6
:1083E00004F090FA5FE7900601D520229A602046BB
:1083F000FDF724F8B8E6170732D536498E4504D97B
:10840000120402D54FF400429A6020460393FDF710
:108410000FF804F571720121206804F073FA082244
:10842000039B9A60A0E64446356DC846DDF8189077
:10843000D4F800A050469D423FF626AE7DE704F5F5
:10844000717204F05FFA20689FE6236D002B7FF4C1
:1084500050AE04F571720121206804F053FA48E629
:10846000970608D520229A6018F0080F3FF481AED5
:10847000026C986878E712F0280FF5D1154FBE45C9
:1084800005D9120403D54FF400429A60ECE71B694A
:108490002046D9F80422C3F31203D31AC9F81432C0
:1084A000D9F808321344C9F80832FCF7C7FFBBF10A
:1084B000000F7FF459AED4F81032002B7FF454AE85
:1084C00004F571720121206804F01CFA4CE600BF2B
:1084D0000A31544F0A30544F90F8BC23012A0ED071
:1084E000012210B50446006884F8381084F8BC23D3
:1084F00004F06AF90023184684F8BC3310BD02204A
:10850000704700BF10B501F00F0E0906044627D4CE
:108510004FF01C0C0CFB0E0C0CF5FE71CEEBCE0CD0
:1085200000EB8C0C00208CF8FD018A604A7881F801
:1085300000E0CB700AB1A1F806E0022B01D10023C4
:108540000B7194F8BC33012B18D00123206884F8F8
:10855000BC3303F057FE0023184684F8BC3310BD2B
:108560001C204FF0010C00FB0E4000F13C01CEEB53
:10857000CE0004EB800080F83DC0D6E7022010BD9D
:1085800011F0800F01F00F034FF01C0110B50446ED
:108590001AD101FB0341C3EBC302002001F5FE71B8
:1085A00004EB820282F8FD010B7094F8BC33012BBE
:1085B00019D00123206884F8BC3303F06BFE00233C
:1085C000184684F8BC3310BD01FB0341C3EBC30262
:1085D000012004EB82023C3182F83D000B7094F8DC
:1085E000BC33012BE5D1022010BD00BF10B501F056
:1085F0000F041C21C4EBC40C01FB040100EB8C0C28
:1086000001F5FE71CCF810320023CCF808228CF86A
:10861000FC41CCF814328CF8FD3103690068012B61
:1086200008BFCCF80C22DAB21CB903F08DFF002091
:1086300010BD03F071FE002010BD00BF01F00F015E
:10864000C1EBC10100EB8101D1F81402704700BFFA
:1086500010B501F00F041C21C4EBC40C01FB040194
:1086600000EB8C0C3C31CCF850300023CCF8482087
:10867000CCF8543001238CF83C408CF83D30036931
:108680000068012B08BFCCF84C20DAB21CB903F00B
:108690005BFF002010BD03F03FFE002010BD00BFB7
:1086A00038B5436801F00F059D4234D80B060446E7
:1086B0001DD41C22C1EBC10302FB010100EB8303AB
:1086C000002201F5FE7183F8FD2101230D708B70EE
:1086D00094F8BC239A421CD0206884F8BC3304F080
:1086E00013F8D5B10023184684F8BC3338BD1C21DB
:1086F000C5EBC503012201FB050100EB83033C31FF
:1087000083F83D2001230D708B7094F8BC239A42AE
:10871000E2D1022038BD012038BD04F57172217C00
:10872000206804F0EFF8DDE7426838B501F00F0388
:10873000934232D811F0800F04464FF01C01C3EB76
:10874000C30219D101FB0341002004EB8202002582
:1087500001F5FE7182F8FD010B708D7094F8BC3349
:10876000012B18D00123206884F8BC3304F000F8F2
:10877000284684F8BC5338BD01FB0341012004EBBB
:10878000820200253C3182F83D000B708D7094F818
:10879000BC33012BE6D1022038BD012038BD00BF1B
:1087A00010B40468606A31B940EA0240A062002057
:1087B0005DF8044B7047A36AB1F1010C00EB134064
:1087C0000BD0002303F14001013304EB8101DBB244
:1087D0004968634500EB1140F4D30CF1400C40EACA
:1087E000024004EB8C0C5DF8044BCCF80400002034
:1087F000704700BF034600201B685962704700BFE6
:1088000003464FF0000C09491A68604610B4012471
:1088100083F8F4C3C3F8FC4393695DF8044B43F059
:1088200000639361536D1943516570470300001055
:10883000704700BF38B5114BDA68520704D4DB68C3
:1088400003F00703834214D10C4CE36823F00703C1
:108850001843E060FDF786F8054605E0FDF782F86D
:10886000401BB0F57A7F06D863689B04F6D50020DC
:1088700038BD012038BD032038BD00BF0048025874
:10888000024AD36843F08073D360704700480258AF
:1088900070B44D6A15B1B2F1406F3AD18B691BB318
:1088A0000C6A002C4CD08E680068C661CE69002E20
:1088B00069D02B4313432343CC6A334323430C6BCC
:1088C00023434C6B23430C692343CC6823430C683C
:1088D00023434C69B2F1406F43EA8443436165D05E
:1088E0004B6870BC836170470B6ABBB100682B4357
:1088F0008C68CE69C461002E6BD01343CC6A3343BD
:1089000023430C6B23434C6B23430C692343CC68F8
:10891000DEE78B6A0468013B2361BFE7CB69002B6C
:1089200066D1002D42D0CB6A0C6B2B4300681343F9
:108930004A6923434C6B234343EA8243436135E056
:10894000CC6945EA030C002C32D003684CEA0200E3
:10895000B2F1406F40EA0400CC6A40EA04000C6BBC
:1089600040EA04004C6B40EA0400CC6840EA040092
:108970000C6840EA04004C6940EA8440586115D014
:108980004A689A6112E045EA030C0D694CEA020359
:10899000CA6A23431343D1E90C4223430C681343AF
:1089A0004A692B43234343EA8243436170BC7047C7
:1089B000CC6A4CEA020300682343D1E90C4223430A
:1089C0000C6813434A69234343EA824370BC436102
:1089D0007047CC6A13432343D1E90C42234313432A
:1089E000D1E90442234343EA824370BC43617047A8
:1089F0002B43CD6A0C6B134300682B4323434C6B12
:108A000084E700BF70B50446FCF7ACFF002C54D0DF
:108A100094F84030012B52D00123064684F84030B0
:108A200094F8413003F0FF02002B34D0A56C22688B
:108A3000A1681368013923F4706343EA01231360CA
:108A400001E06B1C31D1936813F02003F9D1E06988
:108A5000E16815680143206A0143606841EA0061EA
:108A60001C482840014360691160A16955680143B1
:108A7000206941EA00411848284001250143184671
:108A80005160116829431160636484F841500023E8
:108A900084F8403070BD204684F84020FBF784FB0A
:108AA00041F288331D46A364C1E7FCF75BFF801BDE
:108AB000A84206D82DB12268C5E7012070BD02206A
:108AC00070BD0423012084F84130636C0343636468
:108AD000DDE700BF2FFFFF00FEF8E0FFC8B110B5D3
:108AE00090F840300446012B11D00268012380F831
:108AF0004030136823F001031360FBF7E3FB00230E
:108B00006364184684F8413084F8403010BD022078
:108B100010BD0120704700BF2DE9F04104460E460C
:108B20001546FCF71FFF94F84030012B3AD0012383
:108B300084F8403094F84130012BDFB206D0022790
:108B40000023384684F84030BDE8F0810023804699
:108B50006364022384F84130681C23680ED19A684C
:108B600012F02002FBD131462046FFF791FE736AD6
:108B7000E3B10123002784F84130E1E79A6812F05D
:108B800020021ED0FCF7EEFEA0EB0800854201D3C8
:108B9000002DE1D1042384F84130636C43F00103DC
:108BA0006364CDE702273846BDE8F0812268936808
:108BB0009B07FCD5022101230027D16084F84130B6
:108BC000BEE731462046FFF763FE736A43B1D0E744
:108BD000FCF7C8FEA0EB08008542DBD3002DD9D0FE
:108BE000226893689907F3D5E4E700BF2DE9F843BD
:108BF000044689461546FCF7B5FE94F840302768D0
:108C0000012B67D0012384F8403094F84130012BC8
:108C10005FFA83F807D04FF002080023404684F83B
:108C20004030BDE8F88300236364B9F1000F56D0EB
:108C30001223064684F841303B690133E3623B6905
:108C4000C4F824900133A3627B6923F040637B6105
:108C5000E36A002B31D06A1C394611D18B685B075F
:108C6000FCD5636A1B7887F82030E26A636A013AB0
:108C70000133E262E26A6362F2B16A1C2168EDD0FC
:108C80008B685807EDD4FCF76DFE801B854201D33D
:108C9000002DF2D1042384F84130636C43F00103CA
:108CA000636413E0BB689B070CD4FCF75BFE801B7E
:108CB0008542EFD3002DEDD02768691CF2D1BB6847
:108CC0009A07FCD502234FF00008FB60012384F8CB
:108CD0004130A2E74FF002084046BDE8F883636CDC
:108CE00043F00803636498E72DE9F843044615460A
:108CF0008946FCF737FE2768BA6994F84030012BA3
:108D00006CD0012384F8403094F84130012B5FFA95
:108D100083F807D04FF002080023404684F8403023
:108D2000BDE8F88300236364B9F1000F5BD0222310
:108D3000064684F841303B690133A3633B69C4F8BC
:108D40003090013363637B6923F0406343F08063B9
:108D50007B61BA61A36B002B33D0681C394612D1FA
:108D60008B6813F0060FFBD097F82020236B1A7046
:108D7000A26B236B013A0133A263A26B2363FAB1A6
:108D8000681C2168ECD08B6813F0060FECD1FCF75F
:108D9000E9FD801B854201D3002DF1D1042384F825
:108DA0004130636C43F00103636413E0BB689B07CD
:108DB0000CD4FCF7D7FD801B8542EFD3002DEDD0FE
:108DC0002768691CF2D1BB689A07FCD502234FF0D3
:108DD0000008FB60012384F841309DE74FF0020852
:108DE0004046BDE8F883636C43F00803636493E78F
:108DF0002DE9F84F04461F4689469046FCF7B2FD20
:108E000094F84030012B52D0012384F8403094F87C
:108E10004130012B5FFA83FB07D04FF0020B002398
:108E2000584684F84030BDE8F88F002382466364DA
:108E3000422384F841307A1C26682CD1B568AB06F1
:108E4000FCD4D8F8003049462046B362D8F8043044
:108E50007362D8F80830F3623268D8F8103022F420
:108E600040021343D8F80C2043F480033360C9F860
:108E700028204FF00062FFF70BFD781C22681BD101
:108E800093681907FCD5082101234FF0000BD1602E
:108E900084F84130C3E7B3689D06D2D5FCF762FD84
:108EA000A0EB0A00874212D3002FC4D10FE04FF08D
:108EB000020B5846BDE8F88F93681B07E3D4FCF714
:108EC00051FDA0EB0A00874201D3002FD5D1042326
:108ED00084F84130636C43F0010363649FE700BF93
:108EE0002DE9F04704460F461646FCF73BFD94F883
:108EF0004030012B45D0012384F8403094F84130B4
:108F0000012B5FFA83F907D04FF00209002348468E
:108F100084F84030BDE8F08700238046D4F848A0AC
:108F20006364822384F84130BAF1FF3F256814D18D
:108F3000AB689A06FCD42B68726823F00803082AF1
:108F400043EA02032B6021D04FF0406239462046AD
:108F50004FF00009FFF79CFCD8E7AB689B06EAD509
:108F6000FCF700FDA0EB0800824502D3BAF1000F28
:108F7000DAD1042384F84130636C43F00103636465
:108F8000C4E74FF002094846BDE8F0873268102375
:108F90002A63EB602B6843F480132B60D4E700BF97
:108FA000704700BF08B5006C00238363C36290F86C
:108FB0004130082B0BD103680222DA601A6842F4B0
:108FC00000321A601A6842F002021A6008BD0123DA
:108FD00080F84130FFF7E4FF08BD00BF704700BFD5
:108FE000704700BF704700BF704700BF704700BFA9
:108FF000704700BF704700BF38B5036804469A68E1
:10900000196855070ED548030CD594F84120122A4B
:1090100075D094F84120222A00F0A1802046FFF765
:10902000E5FF38BD950726D5880324D50222DA60EE
:109030001A6822F4E0221A6094F84120122A7AD0A9
:1090400094F84120222A00F0A98094F84120022AB5
:1090500000F0D08094F84120082AE2D15A69012119
:10906000204622F040625A6184F84110636C3BBB99
:10907000FFF7B4FF38BD150725D4D50735D5C8038C
:1090800033D50125DD601A6822F470221A60626C03
:1090900042F0020262641A68520779D51A68E06BDE
:1090A00022F004021A60574B836506F0CFFB0028BC
:1090B000B7D0636C204643F00403636484F84150E6
:1090C000FFF76EFF38BD0803D7D50822DA601A68AB
:1090D000520206D51A68012122F410221A6084F87F
:1090E00041102046FFF784FF38BDD00699D5CA024B
:1090F00097D510222046DA60FFF77CFF38BD9A68CA
:1091000050078BD518460EE0626A127883F820204B
:10911000E16A20680139626AE16201328168626253
:109120004D077FF57BAFE26A002AEDD1036823F497
:109130008023036072E71A68510709D51A68E16B4A
:1091400022F0040209681A60CB6823F00103CB60A7
:109150000123204684F84130FFF746FF38BD9A6866
:1091600052077FF55BAF18460EE093F82010226B94
:109170001170A16B20680139226BA16301328168F3
:10918000226349077FF54AAFA26B002AEDD1CDE7F4
:10919000204684F84150FFF703FF38BD1A68520794
:1091A0001DD49A6812F47C5F0FD111E093F820105F
:1091B000226B1170A16B20680139226BA16301320F
:1091C0008168226311F47C5F02D0A26B002AEDD18A
:1091D0000123204684F84130FFF704FF38BD1A68A8
:1091E000E16B22F0040209681A60CB6823F00103E6
:1091F000CB60EDE70123204684F84130FFF7F0FE15
:1092000038BD00BFA58F0008002800F0DE81F8B54A
:1092100003680446D80730D59F490A69896A02F075
:109220003802102A00F00081182A00F0F8806368E4
:10923000B3F5803F00F02081002B00F05E81B3F594
:10924000A02F954B1A6800F02F8222F480321A600A
:109250001A6822F480221A60FCF784FB8E4E41F2D9
:109260008837054605E0FCF77DFB401BB84200F25D
:10927000428133689A03F6D523689D0700F1858003
:10928000D9062FD5844A1369926A03F03803082B54
:1092900000F0DA80182B00F0D280E3697E4D002BBD
:1092A00000F065812B6843F080032B60FCF75AFBCC
:1092B000064605E0FCF756FB801B022800F21B81E6
:1092C0002B68DB05F6D5FCF765FB41F203039842FA
:1092D00000F20B826B68226A23F0F84343EA826350
:1092E0006B6023681D0716D563696B4D002B00F07A
:1092F0001C816B6F43F001036B67FCF733FB064681
:1093000005E0FCF72FFB801B022800F2F4806B6F56
:109310009807F6D523689A0616D5A3695E4D002BEB
:1093200000F014812B6843F480532B60FCF71AFB88
:10933000064605E0FCF716FB801B022800F2DB80E6
:109340002B689F04F6D52368590700F19B80636A58
:10935000CBB1514D2A6902F03802182A6DD0022B88
:109360002B6823F080732B6000F03981FCF7FAFA48
:10937000044605E0FCF7F6FA001B022800F2BB8069
:109380002B689B01F6D40020F8BD434A1369926A0A
:1093900013F0380329D1404BE2681B68590701D507
:1093A000002A4AD03C4D2B6823F0190313432B604D
:1093B000FCF7D8FA064605E0FCF7D4FA801B022831
:1093C00000F299802B685B07F6D5FCF7E3FA41F2CF
:1093D0000303226998426B6800F2F08023F47C3327
:1093E00043EA02336B6023684AE7182B00F0E280FF
:1093F000294DE2682B68002A00F0CB8023F0190386
:1094000013432B60FCF7AEFA064604E0FCF7AAFA19
:10941000801B02286FD82B685F07F7D5D5E701F0CE
:10942000030102297FF403AF1B4A126891037FF501
:1094300024AF6268002A7FF420AF0120F8BD02F05B
:109440000302012A7FF429AF134B1B68DA0502D50A
:10945000E369802BF1D1FCF79DFA41F203030E4A38
:109460009842216A00F2B380536823F0F84343EA3C
:1094700081635360236835E7074A136843F48033F8
:109480001360E9E6054D2B6843F480732B60FCF70D
:1094900069FA064609E000BF004402580048025835
:1094A000FCF760FA801B642825D82B68DA05F7D50D
:1094B000A368012B00F02281002B00F0FD80052B1A
:1094C000954B1A6F00F0208122F001021A671A6F83
:1094D00022F004021A67FCF745FA8F4E41F28837F2
:1094E000054604E0FCF73EFA401BB84203D8336F50
:1094F0009B07F7D52BE70320F8BD874D41F288374E
:109500002B6823F480332B602B6823F480232B609B
:10951000FCF728FA064604E0FCF724FA801BB84260
:10952000E9D82B689B03F7D4A6E66B6F23F0010301
:109530006B67FCF717FA064604E0FCF713FA801B8A
:109540000228D8D86B6F9907F7D4E3E62B6823F489
:1095500080532B60FCF706FA064604E0FCF702FA9B
:10956000801B0228C7D82B689804F7D4EBE62B6839
:1095700023F080032B60FCF7F5F9064604E0FCF7C6
:10958000F1F9801B0228B6D82B68DF05F7D42368D1
:10959000A8E623F001032B60FCF7E4F9064604E09B
:1095A000FCF7E0F9801B0228A5D82B685807F7D4F0
:1095B000236865E690077FF41BAFECE623F0FE43DB
:1095C00043EA02636B6023685AE601207047D36860
:1095D00023F07C5343EA0163D360236882E6FCF7FF
:1095E000C1F9064604E0FCF7BDF9801B022882D8C9
:1095F0002B689901F7D4A96A484BA26A0B404849E5
:10960000454E1343E26A43EA0213AB62D4E90D32DA
:10961000013B013A5B0212049BB202F4FE021343C7
:10962000226B013AC2F308021343E26B013A1206BD
:1096300002F0FE4213432B63EB6A23F00103EB625B
:109640006A6BA36C114041EAC3016963EB6A226C47
:1096500023F00C031343EB62EB6A626C23F002030A
:109660001343EB62EB6A43F48033EB62EB6A43F43F
:109670000033EB62EB6A43F48023EB62EB6A43F066
:109680000103EB622B6843F080732B60FCF76AF9EF
:10969000044605E0FCF766F9001B02283FF62BAFF5
:1096A00033689A01F6D56EE642F480221A601A6891
:1096B00042F480321A60CFE5174D41F288372B6FA4
:1096C00023F001032B672B6F23F004032B67FCF7B8
:1096D00049F9064605E0FCF745F9801BB8423FF61C
:1096E0000AAF2B6F9807F6D431E6EB68226A23F0B5
:1096F0007C5343EA0263EB602368F3E5064A136F89
:1097000043F001031367E6E642F004021A671A6F9A
:1097100042F001021A67DEE6004402580CFCFFFF2B
:109720000700FFFF474A136903F03803102B04D0EA
:10973000182B0DD01BB1444870474448704713683C
:1097400099064AD513684248C3F3C103D84070470D
:10975000936A30B4946AD56A14F47C7F516BC4F375
:10976000051038D0C1F3CC0105F0010503F0030367
:1097700005FB01F1012B07EE901AB8EEE77A02D053
:10978000022B2CD093B307EE900A9FED325AF8EEDD
:10979000E77A136BC5EE276ADFED2F5AC3F3080390
:1097A00007EE903AB7EE006AF8EEE77AE7EE257A30
:1097B00077EE867A66EEA76A224B1B6BC3F34623CD
:1097C000013307EE903AB8EEE77AC6EE877AFCEE00
:1097D000E77A17EE900A30BC70471D48704707EED5
:1097E000900A9FED1E5AF8EEE77AD2E713689B06BF
:1097F00020D5146807EE900A1549F7EE005A136B4E
:10980000C4F3C104F8EEE77A9FED135AC3F30803DB
:10981000E14006EE903A06EE101AF8EEE66AB8EE6F
:10982000C66AE7EE056A86EE277A76EEA56A66EEE8
:10983000876AC1E707EE900A9FED095AF8EEE77ACA
:10984000A7E700BF0044025800093D000024F400CF
:109850000090D0030024744A000000390024744BA7
:109860000024744C002800F00281874A136803F03A
:109870000F038B422DE9F04104460D460CD21368CC
:1098800023F00F030B431360136803F00F038B42A5
:1098900002D00120BDE8F08123685F070BD57B492A
:1098A00020698A6902F07002904204D98A6922F024
:1098B000700202438A611E070BD574496069CA6948
:1098C00002F07002904204D9CA6922F07002024389
:1098D000CA61D8060BD56D49A069CA6902F4E06275
:1098E000904204D9CA6922F4E0620243CA6199062F
:1098F0000BD56649E0690A6A02F07002904204D909
:109900000A6A22F0700202430A629A0740F1A180BB
:109910005E48E168826902F00F02914204D98269CF
:1099200022F00F020A438261D80730D5574AA16856
:10993000936923F470630B43936161681368022990
:1099400000F09780032900F08E80012900F09780B5
:1099500058079ED54D4E41F28838336923F00703EE
:109960000B433361FBF7FEFF074605E0FBF7FAFF09
:10997000C01B404500F281803369626803F0380300
:10998000B3EBC20FF2D12368990706D5E1683F48CF
:10999000826902F00F028A425FD83B490A6802F0EE
:1099A0000F02AA420AD90A6822F00F022A430A606B
:1099B0000A6802F00F02AA427FF46BAF5A070BD578
:1099C000324920698A6902F07002904204D28A69A1
:1099D00022F0700202438A611F070BD52B49606990
:1099E000CA6902F07002904204D2CA6922F0700281
:1099F0000243CA61DE060BD52449A069CA6902F494
:109A0000E062904204D2CA6922F4E0620243CA6171
:109A10009D060BD51D4AE169136A03F07003994254
:109A200004D2136A23F070030B431362FFF77AFE2C
:109A3000164A0346164892691649C2F30322825C0D
:109A40000E2002F01F02D340BDE8F0410B60FBF78F
:109A500027BFDA073FF56AAF9FE7826922F00F025E
:109A60001143816199E79F013FF574AF11E7012030
:109A700070479B033FF56EAF0BE703200AE7DE0557
:109A80003FF568AF05E700BF0020005200440258D0
:109A900024450108E000002408B501F095F9064BC3
:109AA00006499B69064A03F00F03CB5C03F01F03D2
:109AB000D840106008BD00BF00440258244501088A
:109AC000E400002410B501F07FF90949094A8B69C7
:109AD000094C03F00F03D35C03F01F03D840206050
:109AE000CB69C3F30213D35C03F01F03D84010BD4E
:109AF0000044025824450108E400002410B501F098
:109B000063F90949094A8B69094C03F00F03D35CD7
:109B100003F01F03D8402060CB69C3F30223D35C5A
:109B200003F01F03D84010BD00440258244501082B
:109B3000E4000024F8B53A4CA36A03F00303032BB6
:109B400067D0236806460F4623F080632360FBF747
:109B500009FF054604E0FBF705FF431B022B56D81F
:109B600023681A01F7D4A36A326823F47C3343EAEA
:109B70000233A362D6E90232013B013A5B021204CE
:109B80009BB202F4FE0213437268013AC2F3080268
:109B900013433269013A120602F0FE421343A363F3
:109BA000E36A726923F0C0031343E362E26AB369B4
:109BB00022F020021A431B4BE262E26A22F01002FA
:109BC000E262E16BF2690B4043EAC203E363E36ADA
:109BD00043F01003E362E36AEFB1012F0CBF43F4DB
:109BE000801343F40013E3620D4C236843F0806359
:109BF0002360FBF7B7FE054604E0FBF7B3FE401B0E
:109C0000022804D823681B01F7D50020F8BD0320E3
:109C1000F8BD0120F8BD43F40023E362E4E700BF90
:109C2000004402580700FFFFF8B53A4CA36A03F05E
:109C30000303032B67D0236806460F4623F08053A7
:109C40002360FBF78FFE054604E0FBF78BFE431B0A
:109C5000022B56D823689A00F7D4A36A326823F0FF
:109C60007C7343EA0253A362D6E90232013B013A14
:109C70005B0212049BB202F4FE0213437268013AC3
:109C8000C2F3080213433269013A120602F0FE429F
:109C900013432364E36A726923F440631343E3626A
:109CA000E26AB36922F400721A431B4BE262E26A71
:109CB00022F48072E262616CF2690B4043EAC203F3
:109CC0006364E36A43F48073E362E36AEFB1012FF4
:109CD0000CBF43F4000343F08073E3620D4C236830
:109CE00043F080532360FBF73DFE054604E0FBF79D
:109CF00039FE401B022804D823689B00F7D50020BA
:109D0000F8BD0320F8BD0120F8BD43F48003E362F1
:109D1000E4E700BF004402580700FFFF2DE9F843C5
:109D20000368044613F0006622D0426EB2F5001FAD
:109D300000F0CE8411D8002A00F0F884B2F5801F1C
:109D400040F0F18402210430FFF7F4FE0646002EB5
:109D500040F08684626E236803E0B2F5401F40F055
:109D6000E284A8480026016D21F440110A430265EF
:109D7000DD050AD5626D042A06D8DFE812F0A204D8
:109D800093049A04DF02DF020126354698051BD5AD
:109D9000A26D802A00F05B8400F2EC80002A00F0C3
:109DA0008B83402A40F0ED800021201DFFF7C2FE8A
:109DB00023680546002D40F067839249A06D0A6D27
:109DC00022F4E07202430A6559051FD5D4F8A42095
:109DD000B2F5800F00F0478400F2D680002A00F030
:109DE0007183B2F5001F40F0D7800021201DFFF7DE
:109DF000A1FE23680546002D40F044838149D4F834
:109E0000A4008A6D22F4600202438A651A051FD5F8
:109E1000D4F8A820B2F1007F00F02E8400F2BF80B9
:109E2000002A00F05583B2F1807F40F0C08000210D
:109E3000201DFFF77FFE23680546002D40F02A8392
:109E40007049D4F8A8008A6D22F0E06202438A6566
:109E50009F0118D5A26C202A00F0DA8300F2AA80B4
:109E60003AB1102A40F0A9806649CA6A42F4003229
:109E7000CA62002D40F059836249A06CCA6C22F07E
:109E800030020243CA64D8041DD5E26DB2F5005F0A
:109E900000F0FB8300F29480002A00F01F83B2F5EB
:109EA000805F40F095800021201DFFF743FE23686E
:109EB0000546002D40F0EC825249E06D0A6D22F417
:109EC000E04202430A6599041AD5226EB2F5003FBA
:109ED00000F074837FD84AB1B2F5803F40F08380B0
:109EE0000121201DFFF726FE23680546002D40F0C6
:109EF0001E834449206E0A6D22F4E02202430A6563
:109F00005A041BD5D4F8AC20B2F1005F00F0608396
:109F10006CD842B1B2F1805F70D10121201DFFF7F2
:109F200009FE23680546002D40F003833549D4F827
:109F3000AC008A6D22F0E04202438A651F040DD511
:109F4000E26EB2F1805F00F03183B2F1005F00F0A9
:109F50000182002A00F0048201263546D8015DD531
:109F6000626C032A00F20A84DFE812F0540017033F
:109F70004E005400C02A3FF41DAFB2F5807F3FF47D
:109F800019AF012635461FE7B2F5C00F3FF433AFD6
:109F9000B2F5000F3FF42FAF0126354636E7B2F198
:109FA000407F3FF44AAFB2F1806F3FF446AF0126E5
:109FB00035464DE7302A3FF45CAF0126354662E76F
:109FC000B2F5405F3FF475AFB2F5804F3FF471AF2B
:109FD0000126354677E722F48031B1F5802F85D010
:109FE000B2F5403F82D00126354689E722F0805104
:109FF000B1F1804F97D0B2F1405F94D00126354641
:10A000009CE700BF004402580221201DFFF792FD8B
:10A0100023680546002D00F06B822E46590200F1A0
:10A02000F081DF072FD5A26F282A2AD8DFE812F0A7
:10A03000D30129002900290029002900290029002D
:10A040006D03290029002900290029002900290081
:10A05000CC01290029002900290029002900290014
:10A06000D3012900290029002900290029002900FD
:10A07000D3012900290029002900290029002900ED
:10A08000D30101263546980716D5626F052A00F2DE
:10A090007883DFE812F00D00300306000D000D009C
:10A0A0000D00012104F12400FFF7BEFD23680546E1
:10A0B000002D00F025822E46590717D5D4F89020A0
:10A0C000052A00F26183DFE812F00D000C030600A0
:10A0D0000D000D000D00012104F12400FFF7A4FD87
:10A0E00023680546002D00F013822E469A061DD5E2
:10A0F000D4F88C20B2F1005F00F0458200F2DC80E1
:10A100004AB1B2F1805F40F0E1800021201DFFF7ED
:10A1100011FD23680546002D40F00582A949D4F8B9
:10A120008C004A6D22F0E04202434A655F061DD56D
:10A13000D4F89820B2F5006F00F0548200F2C98084
:10A140004AB1B2F5806F40F0CE800021201DFFF7AC
:10A15000F1FC23680546002D40F0C8819949D4F8E8
:10A1600098008A6D22F4E05202438A6518061DD5D4
:10A17000D4F89C20B2F5804F00F03F8200F2B68008
:10A180004AB1B2F5005F40F0BB800021201DFFF70F
:10A19000D1FC23680546002D40F0A6818949D4F8FA
:10A1A0009C008A6D22F4604202438A6519070BD530
:10A1B000D4F88010B1F5805F00F03E828148426D96
:10A1C00022F440520A434265DA060BD5D4F89410C3
:10A1D000B1F5807F00F025827A48826D22F44072CA
:10A1E0000A4382651F030ED5D4F8A010B1F5803F55
:10A1F00000F0D480B1F5003F00F0D780002900F0D6
:10A20000BA810126354658030FD5D4F88420B2F51B
:10A21000001F00F0B080B2F5401F00F0B380B2F52F
:10A22000801F00F0A08101263546D90309D5E26CD4
:10A23000002A00F08681B2F5803F00F02D810126D2
:10A2400035469A0000F1D2809F035CD4301E18BFBF
:10A250000120DE0206D55B49256F0A6D22F000421F
:10A260002A430A65DD0007D55649D4F8B4500A6977
:10A2700022F480422A430A61990206D55149A56E0B
:10A280000A6D22F080722A430A655A0009D54D4AA8
:10A29000116921F4004111611169D4F8B8502943C2
:10A2A0001161002B06DA474A216DD36C23F040532D
:10A2B0000B43D364BDE8F88322F08051B1F1804FA5
:10A2C0003FF429AFB2F1405F3FF425AF0126354698
:10A2D0002CE722F48061B1F5805F3FF43CAFB2F52A
:10A2E000406F3FF438AF012635463FE722F4005176
:10A2F000B1F5004F3FF44FAFB2F5C04F3FF44BAF55
:10A300000126354652E7E26FB2F5807F00F02281E8
:10A3100006D922F48071B1F5007F03D0012098E7BF
:10A32000002AFBD1002DF9D1264D301E696D18BFD2
:10A33000012021F440710A436A658AE73546002D01
:10A3400040F0A4801F49606D0A6D22F007020243AD
:10A350000A651BE50121201DFFF7ECFB236805467C
:10A36000002D40F0DE801749E06E0A6D22F0405269
:10A3700002430A65F2E5012104F12400FFF754FCD1
:10A3800023680546002D40F0DA800E49D4F8840099
:10A390004A6D22F4401202434A6546E7022104F165
:10A3A0002400FFF741FC23680546002D40F0C580DE
:10A3B0000449D4F8A0008A6D22F4403202438A6531
:10A3C00021E700BF00440258012104F12400FFF7F7
:10A3D0002BFC23680546002D40F0AD80AF49A06FEF
:10A3E0004A6D22F0380202434A654CE6022104F12C
:10A3F0002400FFF719FC236800283FF425AF01264D
:10A4000022E7A74F3B6843F480733B60FBF7AAFA4F
:10A41000804606E0FBF7A6FAA0EB0800642800F2ED
:10A420007E813B68DA05F5D5002D40F0A4819B4A7A
:10A43000D4F8B030116F594011F4407F0BD0116F38
:10A44000106F21F4407140F480301067106F20F4D9
:10A45000803010671167B3F5807F00F06E8103F4E0
:10A460004072B2F5407F00F07C818C490A6922F489
:10A470007C520A61894AC3F30B03116F0B431367C4
:10A480002368CEE52E46C1E42E469DE42E467DE4AB
:10A490002E4618E52E46DBE40221201DFFF74AFB7D
:10A4A00005462368002D53D17C49E06CCA6C22F428
:10A4B00080320243CA64C4E67849CA6A42F4003270
:10A4C000CA6277E47549CA6A42F40032CA6292E409
:10A4D0007249CA6A42F40032CA62AEE46F49CA6A7B
:10A4E00042F40032CA62E4E42E465FE62E463DE6C0
:10A4F0006A49606CCA6C22F003020243CA648DE5AB
:10A500006649606F4A6D22F0070202434A65D3E54F
:10A510006249D4F890008A6D22F0070202438A65EE
:10A52000E4E52E461AE52E4600E62E46ABE42E461E
:10A53000E6E42E4602E52E46A5E52E4663E62E46C7
:10A5400073E65649CA6A42F40032CA62002DABD0A3
:10A550002E4676E65148C16A41F40031C162002DB1
:10A560007FF4DCAEE0E64D49CA6A42F40032CA62CA
:10A57000002DE4D109E7201DFFF7DCFA054623682A
:10A58000002DDAD114E7022104F12400FFF74CFB7F
:10A5900005462368002DC6D1C0E54049CA6A42F489
:10A5A0000032CA62002D7FF438ADA1E73B49CA6A88
:10A5B00042F40032CA62002DB3D1D4E6012104F185
:10A5C0002400FFF731FB05462368002DAFD190E44E
:10A5D000012104F12400FFF727FB05462368002D25
:10A5E000A7D1A3E4022104F12400FFF71DFB0546D7
:10A5F0002368002D7FF47AAFB0E5022104F1240036
:10A60000FFF712FB05462368002D7FF46DAFC5E50B
:10A610000221201DFFF78EFA05462368002D84D104
:10A620002AE4022104F12400FFF7FEFA236800283F
:10A630003FF4D8AD0126D5E5022104F12400FFF74F
:10A64000F3FA236800283FF4BFAD0126BCE50021E2
:10A6500004F12400FFF7E8FA23680546FFF7AABBD8
:10A660002368FFF785BB002104F12400FFF7DCFA23
:10A6700023680546FFF7BFBB002104F12400FFF764
:10A68000D3FA23680546FFF7D8BB002104F1240064
:10A69000FFF7CAFA236805460BE400BF00440258DE
:10A6A000004802580021201DFFF744FA23680546A0
:10A6B00045E6002104F12400FFF7B6FA23680546B9
:10A6C0003DE633493546CA6A42F40032CA6236E68C
:10A6D00002212430FFF7A8FA0646002E3FF43AABD9
:10A6E000BEE70121201DFFF725FA05462368002D4E
:10A6F0007FF4FBAC0CE70121201DFFF71BFA054698
:10A700002368002D7FF4D7ACFAE60121201DFFF766
:10A7100011FA05462368002D7FF40DAF5EE603268F
:10A72000236835467DE40126FFF722BB1848C16A3D
:10A7300041F40031C162FFF714BBFBF713F9DFF8F6
:10A740005080074641F2883904E0FBF70BF9C01B43
:10A750004845E4D8D8F870309B07F6D5D4F8B03027
:10A760007DE60B480B4A016902EA131221F47C5181
:10A770000A4302617EE623682E4652E401263546EE
:10A780004CE40126354697E401263546AEE400BF89
:10A7900000440258CFFFFF0008B5FFF77DF9054BD5
:10A7A000054A1B6AC3F30213D35C03F01F03D840AE
:10A7B00008BD00BF0044025824450108584B70B43E
:10A7C000996A9D6ADE6A15F47C3FC5F30532DC6B3D
:10A7D0005CD0C4F3CC0406F0100601F0030106FBC4
:10A7E00004F4012907EE904AB8EEE77A03D0022973
:10A7F00075D000294FD007EE902ADFED4A6AF8EEB7
:10A80000E77A9B6B86EEA76A9FED475AC3F308036E
:10A8100006EE903AF7EE005AF8EEE66AE7EE056AC1
:10A8200076EEA56A66EE266A3D4AB7EE006A936B3D
:10A83000C3F3462307EE103AB8EEC77A70BC37EE82
:10A84000067AC6EE877AFCEEE77AC0ED007A936B63
:10A85000C3F3064307EE103AB8EEC77A37EE067A2E
:10A86000C6EE877AFCEEE77AC0ED017A936BC3F30C
:10A87000066307EE903AF8EEE77A77EE867A86EE90
:10A88000A77ABCEEC77A80ED027A704770BCC0E947
:10A890000022826070471968890627D51C6807EE78
:10A8A000902A2249F7EE005A9B6BC4F3C102F8EEDE
:10A8B000E77A9FED1D5AC3F30803D14006EE903AA4
:10A8C00006EE101AF8EEE66AB8EEC66AE7EE056A1A
:10A8D00086EE277A76EEA56A66EE876AA4E707EE2B
:10A8E000902ADFED136AF8EEE77A8AE707EE902AFE
:10A8F0009FED105A9B6BB7EE006AF8EEE77ADFED3A
:10A900000A5AC3F30803C5EE276A07EE903AF8EE39
:10A91000E77AE7EE257A77EE867A66EEA76A83E72E
:10A92000004402580024744A000000390090D0030B
:10A930000024744B0024744C584B70B4996A9D6A7F
:10A94000DE6A15F07C7FC5F305525C6C5CD0C4F305
:10A95000CC0406F4807601F0030106FB04F401291F
:10A9600007EE904AB8EEE77A03D0022975D00029A5
:10A970004FD007EE902ADFED4A6AF8EEE77A1B6CBB
:10A9800086EEA76A9FED475AC3F3080306EE903A96
:10A99000F7EE005AF8EEE66AE7EE056A76EEA56A8B
:10A9A00066EE266A3D4AB7EE006A136CC3F346238F
:10A9B00007EE103AB8EEC77A70BC37EE067AC6EEEC
:10A9C000877AFCEEE77AC0ED007A136CC3F3064396
:10A9D00007EE103AB8EEC77A37EE067AC6EE877AF7
:10A9E000FCEEE77AC0ED017A136CC3F3066307EE61
:10A9F000903AF8EEE77A77EE867A86EEA77ABCEEA2
:10AA0000C77A80ED027A704770BCC0E9002282608C
:10AA100070471968890627D51C6807EE902A2249D5
:10AA2000F7EE005A1B6CC4F3C102F8EEE77A9FED13
:10AA30001D5AC3F30803D14006EE903A06EE101AF1
:10AA4000F8EEE66AB8EEC66AE7EE056A86EE277AA1
:10AA500076EEA56A66EE876AA4E707EE902ADFED38
:10AA6000136AF8EEE77A8AE707EE902A9FED105A0C
:10AA70001B6CB7EE006AF8EEE77ADFED0A5AC3F313
:10AA80000803C5EE276A07EE903AF8EEE77AE7EE9C
:10AA9000257A77EE867A66EEA76A83E70044025845
:10AAA0000024744A000000390090D0030024744B45
:10AAB0000024744C584B70B4996A9D6ADE6A15F490
:10AAC0007C7FC5F305125C6B5CD0C4F3CC0406F04C
:10AAD000010601F0030106FB04F4012907EE904A88
:10AAE000B8EEE77A03D0022975D000294FD007EEDF
:10AAF000902ADFED4A6AF8EEE77A1B6B86EEA76ACA
:10AB00009FED475AC3F3080306EE903AF7EE005A5A
:10AB1000F8EEE66AE7EE056A76EEA56A66EE266A64
:10AB20003D4AB7EE006A136BC3F3462307EE103AB3
:10AB3000B8EEC77A70BC37EE067AC6EE877AFCEEBE
:10AB4000E77AC0ED007A136BC3F3064307EE103AC1
:10AB5000B8EEC77A37EE067AC6EE877AFCEEE77A69
:10AB6000C0ED017A136BC3F3066307EE903AF8EE7B
:10AB7000E77A77EE867A86EEA77ABCEEC77A80ED22
:10AB8000027A704770BCC0E9002282607047196881
:10AB9000890627D51C6807EE902A2249F7EE005A4D
:10ABA0001B6BC4F3C102F8EEE77A9FED1D5AC3F3A5
:10ABB0000803D14006EE903A06EE101AF8EEE66A67
:10ABC000B8EEC66AE7EE056A86EE277A76EEA56AE3
:10ABD00066EE876AA4E707EE902ADFED136AF8EEC7
:10ABE000E77A8AE707EE902A9FED105A1B6BB7EEC3
:10ABF000006AF8EEE77ADFED0A5AC3F30803C5EE00
:10AC0000276A07EE903AF8EEE77AE7EE257A77EED4
:10AC1000867A66EEA76A83E7004402580024744AE5
:10AC2000000000390090D0030024744B0024744CC1
:10AC3000B0F5807F00B585B048D0B0F5007F11D069
:10AC4000B0F5806F00F08280B0F5006F52D0B0F5A3
:10AC5000805F2CD0B0F5002F00F09680002005B06A
:10AC60005DF804FB534A136D03F4E073802B59D055
:10AC700012D9C02B26D0B3F5807FEFD1D36C13F05F
:10AC800040535BD0B3F1805F00F08D80B3F1005F83
:10AC9000494818BF0020E2E7002B3CD0402BDDD113
:10ACA00001A8FFF78BFD019805B05DF804FB414A50
:10ACB000136D03F4E043B3F5005F33D029D9B3F546
:10ACC000405F58D13D4805B05DF804FB394B1B6D22
:10ACD00003F00703042BC1D801A252F823F000BFF0
:10ACE00017AD0008A1AC000825AD0008C5AC0008F0
:10ACF00033AD00082F4A936D03F0E063B3F1007F9A
:10AD000010D01DD9B3F1407FDCD0B3F1806FB5D046
:10AD1000A4E7002B34D101A8FFF7CCFE029805B0C0
:10AD20005DF804FB01A8FFF707FE019805B05DF888
:10AD300004FB204BDB6C13F04053A3D120488EE77B
:10AD4000002BE8D0B3F1807FAAD087E7194A936D32
:10AD500003F46003B3F5800FE4D005D8002BDAD0FC
:10AD6000B3F5001F9CD079E7B3F5C00FAAD0B3F5B7
:10AD7000000F83D072E7B3F5804F3FF47FAF6DE7EC
:10AD8000B3F5805F8CD069E70A4A936D03F44033D2
:10AD9000B3F5803F09D0B3F5003F3FF46FAF002B10
:10ADA0007FF45CAF7CE7074859E701A8FFF7C4FDD3
:10ADB000039854E7004402580024F4000080BB00CC
:10ADC0000090D00300093D0008B5FEF7ABFC064B30
:10ADD00006499B69064AC3F30323CB5C03F01F03B8
:10ADE000D840106008BD00BF004402582445010847
:10ADF000E0000024F8B501680546AC4B99421FD02D
:10AE0000203399421CD003F57873994258D02033EF
:10AE1000994255D003F57873994200F01E81203392
:10AE2000994200F01A8195F89130A14E03F0FF028B
:10AE30006BB9284685F89020F9F72CFB296806E0C5
:10AE40009C4E95F8913003F0FF02002BF1D09A4B05
:10AE50009A4A1B68A2FB03230A681B0B22F4803268
:10AE60009B000A6023B30C68013B14F48034F9D1D1
:10AE7000022385F89130EB68012B00F01081022B42
:10AE800015BF032023200227222715BF4FF0010CF6
:10AE90004FF0210C00222022AB68013B042B00F272
:10AEA0004B81DFE813F0CF001000D6000F00D20076
:10AEB000D5F89430012043F04003C5F89430F8BD34
:10AEC0007F4EBEE73A464FF400672B6A3260002B94
:10AED00044D0764B994200F01E817A48081AB0FAA5
:10AEE00080F04009002840F01681774B994200F02D
:10AEF0000C812033994200F00881744B994200F094
:10AF0000FE802033994200F0FA80714B994200F0A4
:10AF10000881704B994200F00A81AB6900EB800018
:10AF2000B3F5002F4FEA400300F0E280AA6A296AD5
:10AF3000B2F1806F0CBF0222012201FB02F2120269
:10AF4000B3FBF2F3644AA2FB0312D20802EB8201C4
:10AF5000A3EB4103092B08BF01326A626B6833F02F
:10AF600002032B6D40F09680012B14BF4FF4007448
:10AF70000024FAF70FFD696CB0F5005FD5E90032E7
:10AF800042EA0102A96C42EA0102E96C42EA0102CA
:10AF9000E96A42EA0102696942EA010272D3A969D7
:10AFA00018680A43A96A0A434C4901401960296993
:10AFB0000A4319680A43696A42EA015248493A4316
:10AFC00022431A605A68286B1140EA690243686B91
:10AFD0005960024359680A4342495A609A681140CD
:10AFE0006A6E9960E96D98680A43296E0A43696D33
:10AFF00001390A43A96D013942EA012202434FF2A5
:10B0000020009A60D968AA6E0140D960E96ED868BC
:10B010000A43696F42EA0142296F013942EA01227B
:10B02000224902438B42DA6019D0294A934216D052
:10B0300000230122C5F89430184685F8903085F831
:10B040009120F8BD4FF480673FE702464FF4006758
:10B050003BE762464FF4006737E7234EF1E6736C37
:10B0600023F00103736495F83830012BE0D1D5E962
:10B070000F23013A43EA02137364736C43F0010334
:10B080007364D5E7A96918680A4318490140196033
:10B09000A96A8DE7012B08BF4FF4007469E71320FC
:10B0A00012274FF0110C1022F6E600BF04580140A1
:10B0B0000054005800580140E00000241BECCB95E0
:10B0C000005C014024580140045C014004600140E0
:10B0D0000454005824540058CDCCCCCC10C005F0FA
:10B0E000F01FFFFF0080F8FF0060014010C005F86E
:10B0F0002A6A696D01FB02F2B3FBF2F322E74FF417
:10B100000070FFF795FD2968FFE64FF40070FFF728
:10B110008FFD2968F1E64FF48070FFF789FD2968FB
:10B12000E3E64FF48060FFF783FD2968F1E64FF412
:10B130000060FFF77DFDF0E60027C6E6022938B57E
:10B14000044635D9C81E012830D800202367606422
:10B15000E064E065A0664FF6FF706067606830F0FD
:10B1600002000CBF0125002504294FF4003125659C
:10B170000CBF01200D2021664FF48021A06561667F
:10B18000032A13D8DFE802F0474E54362368484AB2
:10B19000934205D002F1C052A2F58232934205D10A
:10B1A0006368012B02D1636C002B2FD0012038BDC6
:10B1B000002023676064E064A066606830F00200ED
:10B1C00014BF0120002020654FF48030E0654FF669
:10B1D000FF70606713F00100E8D14D1E012D29D8E2
:10B1E00060664FF400302066032ADFD8DFE802F003
:10B1F0005546362CE0215B018022A1646365E2663E
:10B20000FAF7C8FB94F83830012BBFD02046BDE8D0
:10B210003840FFF7EFBD80211B014022A164636528
:10B22000E266EDE780225B01A2646365E266E7E720
:10B23000C021E0E720664FF480206066032AB5D87D
:10B24000DFE802F02B1C0C025B08E02080219A0151
:10B25000A0645B01E166C4E91523D1E75B08C02265
:10B26000802502294FEA8310A2644FEA4313E56662
:10B270006065A365C4D10823A366C1E75B0880228B
:10B2800002294FEA8310A2644FEA4313E266C4E93D
:10B290001503B5D11023A366B2E75B0880204021D7
:10B2A0005A01A0641B01E166C4E91523A8E700BFA9
:10B2B000045801402DE9F8430F4604461546FAF7B5
:10B2C00051FB002F61D0B5FA85F84FEA5818002DD0
:10B2D0005BD094F89130012B5FFA83F950D194F848
:10B2E0009030012B4CD04346C4F894800646D4F8E5
:10B2F000800065F30F03226884F89090394665F367
:10B300001F43A7671C32E3672B46122584F8915030
:10B310002E4DC0F8508005642D4DC5632D4DC5647C
:10B32000FAF7C0FE00283ED1636C082B636831D069
:10B3300005216122023B012B98BF11462268136947
:10B340000B431361136843F40033136006E0FAF70C
:10B3500009FB831BB3F57A7F2AD82268556915F457
:10B36000E025F4D01368DB0303D4136843F480337F
:10B3700013600023994684F890304846BDE8F8836E
:10B380004FF002094846BDE8F8834FF001094846EE
:10B39000BDE8F88323F00202012A0BBF1521052125
:10B3A00071226122C6E7484684F89080BDE8F883A0
:10B3B000D4F894304FF0030984F8905043F04003E0
:10B3C0004846C4F89430BDE8F88300BF15B50008BE
:10B3D000ADB4000895B50008F8B500294ED0B2FA12
:10B3E00082F513466D09002A48D090F89120044652
:10B3F000012AD6B23FD190F89020012A3BD0816734
:10B400000A462946222780F8906063F30F01C0F8AE
:10B41000945063F31F41C167D0F8840084F89170A1
:10B420001E4F216807641E4F1C310565C7631D4F01
:10B43000C764FAF737FE20BB23681A68D20303D427
:10B440001A6842F480321A60626C082A62681CD062
:10B4500005216120023A012A98BF01461A6900209D
:10B460000A4306461A611A6842F400321A6084F8E8
:10B4700090003046F8BD02263046F8BD0126304621
:10B48000F8BD304684F89050F8BD22F00201012941
:10B490000BBF1521052171206120DBE785B5000870
:10B4A00021B5000895B50008704700BF08B5C3690D
:10B4B000806BB3F5807F1BD003684FF0000C416CAC
:10B4C0001A680829A0F87EC022F400321A60426887
:10B4D00011D06FF0610C6FF00501023A012A98BF9C
:10B4E00061461A694FF0010C0A401A6180F891C058
:10B4F000FFF7DAFF08BD22F0020101290BBF6FF050
:10B50000710C6FF0610C6FF015016FF00501E4E74D
:10B51000704700BF806B08B5FFF7FAFF08BD00BF9A
:10B5200008B5C369806BB3F5807F1BD003684FF00B
:10B53000000C416C1A68082922F400321A60426833
:10B54000A0F87EC011D06FF0610C6FF00501023AD7
:10B55000012A98BF61461A694FF0010C0A401A612E
:10B5600080F891C0F9F79CF808BD22F0020101298A
:10B570000BBF6FF0710C6FF0610C6FF015016FF085
:10B580000501E4E7806B08B5F9F74EF808BD00BF88
:10B59000704700BF10B5846BFBF78EFA022823D0EA
:10B5A000D4F89420216842F08002134B1348C4F869
:10B5B00094201B680A68A0FB030322F400321B0BD3
:10B5C0000A600A689B0022F480320A606BB10A6844
:10B5D000013BD203FAD401220023204684F89120B3
:10B5E000A4F87E30FFF7D4FF10BDD4F8943043F0B8
:10B5F0004003C4F89430EEE7E00000241BECCB9548
:10B6000018B338B590F82C3004460D4603F0FF020D
:10B61000B3B12146022384F82C3051F8040B00F01A
:10B62000D7FA62682946206800F010FB084A012119
:10B630000020136843F00043136084F82C1038BDD9
:10B6400080F82D20F7F738F8E3E70120704700BFB6
:10B650000040005270B590F82C300446022BD8B24E
:10B6600004D000F0FB06012E01D0012070BD0223A2
:10B670000D46206884F82C3000F034FB2B68022B38
:10B6800003D0002084F82C6070BD0523002084F8CE
:10B690002C3070BD38B590F82C300446022BD8B24F
:10B6A00005D094F82C30012BDDB201D0012038BD3B
:10B6B0000223206884F82C3000F028FB002084F856
:10B6C0002C5038BD002800F08F8038B590F83D3000
:10B6D000044603F0FF02002B60D022680223434996
:10B6E000B2F1804F84F83D30A2EB01011368B1FA4A
:10B6F00081F14FEA511127D031BB3D483D4D824287
:10B7000051D000F5806082424DD0551B00F580601D
:10B71000B5FA85F582424FEA55154DD0002D4BD133
:10B72000354836498A4218BF82424FD001F58061C0
:10B730008A424BD0A06923F08003E1680343136081
:10B740006368D162936223E02A4D23F07003A068FE
:10B75000551B0343B5FA85F56D09206923F4407341
:10B760000343A06923F0800303431360E368D362BB
:10B770006368936251B94DB91F49204B9A4218BF73
:10B780008A4203D003F580639A4201D1636913634F
:10B7900001230020536184F83D3038BD80F83C20FF
:10B7A000F9F724F999E7551B23F07003A068B5FA5F
:10B7B00085F503436D09D0E7A06823F070030343C8
:10B7C0000F488242C9D0002DC7D1A9E7206923F4D0
:10B7D0004073A1690343E06823F080030B43616871
:10B7E0001360D0629162C7E70120704700000140FA
:10B7F00000040040000401400040014000440140BA
:10B80000000C00404FF0020C01680A4A034680F821
:10B810003DC088680240062A06D0B2F5803F03D0BA
:10B820000A6842F001020A600122002083F83D20EC
:10B83000704700BF070001000368094AD96841F05A
:10B840000101D96099680A40062A06D0B2F5803F06
:10B8500003D01A6842F001021A600020704700BF4E
:10B860000700010090F83C30012B7DD002460223F6
:10B87000006830B4012482F83D3082F83C40544CDA
:10B8800083681C400B68602B84606FD01DD9B3F5B2
:10B89000005F59D042D94F498B4206D038D94E4922
:10B8A0008B4202D010318B4206D184684B49214033
:10B8B0000B4343F00703836000230121184682F8FD
:10B8C0003D1082F83C3030BC7047402B67D019D90E
:10B8D000502BF1D1036A4C68CD6823F00A03016A4A
:10B8E0001C433E4B21F001010162816921F0F0010E
:10B8F00041EA05118161046281680B4043F05703FE
:10B900008360D9E7202BD0D01AD9302BD4D1CCE703
:10B9100023F01001B1F5801FCED1C6E7702BCBD13B
:10B920008468D1E901532B43CD6824F47F4143EA75
:10B9300005230B438360836843F077038360BBE791
:10B9400033F01001B8D1B0E7D1E9015384682B433B
:10B95000CD6824F47F4143EA05230B438360836869
:10B9600043F480438360A7E702207047046A4D6870
:10B9700024F01004C9680462836923F4704343EA25
:10B980000133016A21F0A0018361144B41EA0511E2
:10B99000016281680B4043F0670383608CE7036AB0
:10B9A0004C68CD6823F00A03016A1C430B4B21F05D
:10B9B00001010162816921F0F00141EA0511816113
:10B9C000046281680B4043F04703836074E700BF63
:10B9D0008800CEFF20001000300010008FFFCFFF46
:10B9E000704700BF704700BF704700BF704700BF7F
:10B9F00003681A69910710B5044602D5DA68920700
:10BA000068D41A69520702D5DA6850074FD41A6908
:10BA1000110702D5DA68120737D41A69D00602D5A1
:10BA2000DA68D1061ED41A69D20702D5DA68D007BF
:10BA300069D41A69110602D5DA6812066BD41A693C
:10BA4000D00502D5DA6811066DD41A69520602D5FE
:10BA5000DA6850066FD41A69910602D5DA68920640
:10BA600049D410BD6FF010010822204619612277D9
:10BA7000DB6913F4407F6FD1FFF7B2FF2046FFF779
:10BA8000B3FF002223682277CDE76FF0080104227C
:10BA9000204619612277DB699B075AD1FFF7A0FF87
:10BAA0002046FFF7A1FF002223682277B5E76FF059
:10BAB000040102222046196122779B6913F4407F1A
:10BAC00044D1FFF78DFF2046FFF78EFF0022236849
:10BAD00022779CE76FF002010122196102779B69CE
:10BAE000990730D1FFF77CFF2046FFF77DFF00224A
:10BAF0002368227785E76FF0200220461A61BDE8AF
:10BB0000104000F05FB86FF0010220461A61F9F7AB
:10BB10005DF823688DE76FF0800220461A6100F01F
:10BB200053F823688BE76FF4807220461A6100F0A7
:10BB30004DF8236889E76FF0400220461A61FFF74D
:10BB400055FF236887E7FFF74DFFD0E7FFF74AFF70
:10BB5000BCE7FFF747FFA6E7FFF744FF91E700BF09
:10BB600090F83C20012A28D003460068022230B415
:10BB7000134D83F83D20A8424268846818D005F52B
:10BB80008065A84214D024F0800C22F070020C686A
:10BB90008968224300244CEA01014FF0010C426005
:10BBA0008160204683F83DC083F83C4030BC70473C
:10BBB00022F470024D682A43E5E70220704700BF77
:10BBC00000000140704700BF704700BF704700BFD2
:10BBD0000B6810B4D3B90468A3F500434A68234046
:10BBE0001343D1E9024223431343D1E904422343DF
:10BBF0001343D1E9064223431343D1E908422343C7
:10BC00005DF8044B13430360002070470268D1E9DC
:10BC1000074322F4F84222434C6A1A430A4B224358
:10BC2000026042681340D1E9014223431343D1E942
:10BC3000034223431343D1E9054223435DF8044BF8
:10BC400013434360002070470080FFFF30B40ABBFD
:10BC50008368D1E9002403F07043013C013A43EAD0
:10BC600004131343D1E90224013A013C43EA0223BD
:10BC700043EA0432D1E904348969013B013C0139CA
:10BC800042EA034343EA045343EA016330BC83605E
:10BC9000002070478268CC68114B013C13404A6910
:10BCA00043EA0433541E43EA0454D1E90025846076
:10BCB000C3686C1E013A03F0704343EA04130C6935
:10BCC0001A438B68013C8969013B013942EA03232D
:10BCD00043EA044343EA016330BCC3600020704779
:10BCE000FF0F0FFF0246D1E9003010B4034314697F
:10BCF000D1E9021023435DF8044B013943EA4023A4
:10BD0000002043EA41131361704700BF0246054B10
:10BD1000002010B4546923405DF8044B43EA41010C
:10BD20005161704701C0FFFF84B0844600B583B005
:10BD30000DF1140E8EE80E000A9B012B32D1826B9E
:10BD4000A3F14213119922F4803201298263C2685F
:10BD500003EA0203C360C36823F44013C3606DD0D9
:10BD60000023394A009303E0DCF81030002B34DB69
:10BD7000009B013393420093F6D90320089B012BCB
:10BD80000BD1DCF8083043F00803CCF80830DCF8BD
:10BD9000083043F02003CCF8083003B05DF804EB22
:10BDA00004B07047C3680021274A43F04003C360D2
:10BDB000019103E0DCF81030002B2ADB019B0133FA
:10BDC00093420193F6D903200E9BDBB9DCF838309F
:10BDD00043F48033CCF83830D0E700231A4A00937C
:10BDE000DCF8103043F00103CCF8103004E0DCF84C
:10BDF000100010F00100C1D0009B0133934200936A
:10BE0000F5D9BAE7DCF8383023F48033CCF8383091
:10BE1000B4E700230C4A0193DCF8103043F001032F
:10BE2000CCF8103004E0DCF8100010F00100CBD0AA
:10BE3000019B013393420193F5D9C4E7C36843F4EE
:10BE40008013C3608CE700BF400D0300022A82B05C
:10BE5000844613D009230193DCF80C30002023F42E
:10BE60007053CCF80C30019BDCF80C209B0203F4DF
:10BE700070531343CCF80C3002B07047224B234A66
:10BE80000B44934207D9224B224A0B44934205D8D4
:10BE90000E230193E0E70F230193DDE71E4B1F4ABA
:10BEA0000B44934207D91E4B1E4A0B44934205D2C2
:10BEB0000C230193D0E70D230193CDE71A4B1B4AC6
:10BEC0000B44934202D80B230193C5E7184B194A40
:10BED0000B44934202D20A230193BDE7164B174A43
:10BEE0000B449342B6D3164B164A0B44934202D2EC
:10BEF00008230193B0E7144B144A0B44934234BF18
:10BF0000072306230193A7E7405327FFFF340C00C4
:10BF1000401E1BFF3F420F0000DC0BFF7F4F120053
:10BF2000808CF9FE20D6130060B6E5FE5FE31600B4
:10BF300000D3CEFE40771B00C05BB3FEC091210052
:10BF400000CA91FE20753800E05459FEE09C410083
:10BF5000034600209A6842F001029A60704700BFD1
:10BF6000034600209A6822F001029A60704700BFE1
:10BF700008B5C368012923F0C043C3600BD041B9A1
:10BF8000C36843F08043C3603220F9F7F1FC00201E
:10BF900008BD012008BDC36843F00053C360F3E748
:10BFA00084B02DE9F04782B00BAC0E9D84E80E0002
:10BFB0000023159CC0F80431C0F80831C0F80C31DA
:10BFC000C0F81031C0F81431C0F81831C0F81C3175
:10BFD000C0F82031C0F82431C0F82831C0F82C3125
:10BFE000C0F83031C0F83431C0F83831C0F83C31D5
:10BFF000836B002C40F0AC8023F400138363036850
:10C0000043F040030360036843F0800303600023B0
:10C0100000F5006CC0F8003ED0F80038C0F80038D9
:10C02000109B012B00F0A980D0F8003843F00303E7
:10C03000C0F800380023584A00934FF4846303612A
:10C0400004E0036913F0200300F08680009B0133B5
:10C0500093420093F5D9012200234F4E0193102300
:10C06000036102E00369DB0605D5019B0133B3429E
:10C070000193F7D901220026CCF81060CCF81460A7
:10C08000CCF81C60E9B100F510634FF090494FF017
:10C09000006AB6464FF67F3809E0C3F800E0013683
:10C0A000C3F810E0C3F8088020338E4231D01F68F7
:10C0B000002FF2DA16B1C3F80090F0E7C3F800A041
:10C0C000EDE7DCF81030012D23F48073CCF810304C
:10C0D00044D0002383616FF0804343611DB98369BD
:10C0E00043F01003836181692C4B0B4311998361E9
:10C0F00019B1836943F008038361012C03D181697D
:10C10000274B0B438361104602B0BDE8F04704B0F3
:10C110007047002600F530634FF090494FF0006AF9
:10C12000B6464FF67F3809E0C3F800E00136C3F8A1
:10C1300010E0C3F8088020338E42C2D01F68002F61
:10C14000F2DA16B1C3F80090F0E7C3F800A0EDE70B
:10C1500043F4001383635AE71A467DE7114BCCF88A
:10C160003030114BDCF830100B430021CCF830306C
:10C170006FF0804381614361B5E70D9B23B9D0F82F
:10C180000038C0F8003855E7D0F8003843F0010314
:10C19000C0F800384EE700BF400D030000383C8077
:10C1A000040000400001800003000100890182B00A
:10C1B00000230A4A41F020010193016103E0036971
:10C1C00013F0200307D0019B013393420193F6D96A
:10C1D000032002B07047184602B07047400D0300BC
:10C1E000D0F8083882B003F006030193019838B103
:10C1F0000198022804D0019B062B0CBF02200F20BF
:10C2000002B0704730B44B780A78012B20D002F08E
:10C210000F0C4FF48033D0F81C4800EB421203FAA5
:10C220000CF32343C0F81C38D2F8003B1B040CD499
:10C230008B68D2F8004BC3F30A03C8781449234330
:10C2400043EA80431943C2F8001B002030BC70470A
:10C2500000F5006402F00F0500EB4210AB40E56909
:10C260002B43E361D0F800391C04EED48B68D0F87E
:10C270000059C3F30A03CC7805492B4343EA8443AE
:10C2800043EA8252114330BCC0F8001900207047C5
:10C290000080001010B44A780B78012A1CD003F0FB
:10C2A0000F014FF48032D0F83C4800EB43138A4032
:10C2B000174924EA0204C0F83C48D0F81C4824EA94
:10C2C00002025DF8044BC0F81C280020D3F8002BB4
:10C2D0001140C3F8001B704703F00F01D0F83C4831
:10C2E00000EB43138A400B4924EA0204C0F83C489F
:10C2F000D0F81C4824EA02025DF8044BC0F81C2860
:10C300000020D3F800291140C3F80019704700BF7E
:10C310000078F3EF007833EC2DE9F0414B7891F899
:10C3200000C0012B51D000EB4C1C844CDCF8105B9E
:10C330000CF530632C401C61814C1D692C401C6144
:10C340004C6984B38D68012A7E4E2C4404F1FF347D
:10C35000B4FBF5F406EAC44EA4B205FB04F41D696F
:10C360004EEA0505C4F312041D611D6944EA050483
:10C370001C6125D0CB78012B0CD1D0F8083813F4F0
:10C38000807FDCF8003B0CBF43F0005343F0805348
:10C39000CCF8003BDCF8003B43F00443CCF8003B16
:10C3A0000020BDE8F0818C68012A1D69C4F31204E5
:10C3B00044EA05041C611C6944F400241C61D9D1C1
:10C3C000CA68002AD6D05A61D4E74D69002D3DD005
:10C3D00000EB4C14594ED1F808E0D4F81089584FAE
:10C3E00008EA0606C4F8106905EB0E06013EB6FB26
:10C3F000FEFED4F810693740524EC4F8107906EAB0
:10C40000CE46D4F810793E43C4F81069C5F312063D
:10C41000D4F810793E43C4F8106904F5106691F819
:10C4200003E0BEF1010F57D0012A72D0D4F80029E1
:10C430000CF00F0C42F0044203FA0CF3C4F800298C
:10C44000D0F834281343C0F83438A9E700EB4C1374
:10C450003B4E3A4C012AD3F8107906EA0706C3F896
:10C460001069D3F8106946F40026C3F81069D3F8B0
:10C47000106904EA060403F51066C3F8104991F840
:10C4800003E03AD0D3F80049BEF1010F44F0044470
:10C49000C3F8004984D1D0F8083813F4807F33689A
:10C4A0000CBF43F0005343F080533360002A7FF405
:10C4B00077AFADB20335AD083FF472AFCB6800EB98
:10C4C0000C3C03EB85010CF5805C53F8042B8B428C
:10C4D000CCF80020F9D163E73369012A23F0C04387
:10C4E0003361336943F00053336117D0D4F8003916
:10C4F00043F00443C4F80039CDE70B6963B9BEF1DA
:10C50000010F0ED03368002043F004433360BDE8D0
:10C51000F0810B69002BF5D07361F0E70B69002BFC
:10C52000FAD1D0F8083813F4807F33680CBF43F099
:10C53000005343F080533360E4E700BF0000F8FF8E
:10C54000FFFF07E00000F81FF0B54C780B78012CD6
:10C5500026D000EB4310574CD0F8105B00F5306349
:10C560002C401C61544C1D692C401C614C69A4B9C1
:10C570008C681D69C4F31204012A45F400251D616D
:10C580001D6944EA05041C6149D0D0F8003B43F022
:10C590000443C0F8003B0020F0BD8C684C61E8E724
:10C5A0004C69002C40D000EB4315424FD1F808E015
:10C5B000D5F810C9404E74450CEA070705F5106C14
:10C5C000C5F81079D5F8107906EA0706C5F810699C
:10C5D00058D9DCF81040012AC1F814E044F40024D2
:10C5E000CCF81040CEF31204DCF8106044EA0604E4
:10C5F000CCF810403AD0D5F8002942F00442C5F8F2
:10C600000029BEF1000FC6D003F00F010123D0F8BE
:10C6100034288B401343C0F834380020F0BDCA687A
:10C62000002AB2D05A61B0E700EB4310224B012A36
:10C63000D0F8104900F5106C03EA0403CCF8103070
:10C64000DCF8103043F40023CCF81030194BDCF840
:10C65000104003EA0403CCF8103007D0D0F80039BA
:10C6600043F00443C0F800390020F0BD0B690BB162
:10C67000CCF81430DCF80030002043F00443CCF850
:10C680000030F0BDDCF81060C4F31204012A46F457
:10C690000026CCF81060DCF8106044EA0604CCF800
:10C6A0001040E3D0D5F8002942F00442C5F8002933
:10C6B000AAE700BF0000F8FFFFFF07E010B49DF8F5
:10C6C000044064B903339B0809D0013201EB8303B2
:10C6D00000EB023051F8042B8B420260FAD10020AB
:10C6E0005DF8044B704700BF033292080AD000F592
:10C6F000805C01EB8200DCF8003041F8043B8842AA
:10C70000F9D17047084670474A780B78012A00EB48
:10C7100043100CD0D0F8002B0BB1002A14DAD0F85B
:10C72000003B43F40013C0F8003B00207047D0F8F2
:10C730000029002A00DB73B9D0F8003943F4001354
:10C74000C0F8003900207047D0F8003B23F0804348
:10C75000C0F8003BE3E7D0F8003923F08043C0F88D
:10C760000039D0F8003943F40013C0F80039E9E784
:10C770004A780B78012A00EB431013D0D0F8003B25
:10C7800023F40013C0F8003BCB78023B012B01D906
:10C7900000207047D0F8003B43F08053C0F8003BC6
:10C7A00000207047D0F8003923F40013C0F8003996
:10C7B000CB78023B012BEBD8D0F8003943F0805303
:10C7C000C0F8003900207047034609010020D3F863
:10C7D000002801F4FE6122F4FE62C3F80028D3F8B9
:10C7E00000281143C3F80018704700BF08B503467E
:10C7F0000320D3F8042822F00202C3F80428F9F732
:10C80000B7F8002008BD00BF08B503460320D3F8E1
:10C81000042842F00202C3F80428F9F7A9F800201E
:10C8200008BD00BF82B0436901938269019B134038
:10C830000193019802B0704782B0D0F81838019384
:10C84000D0F81C28019B134001930198000C02B002
:10C85000704700BF82B0D0F818380193D0F81C2878
:10C86000019B13400193019880B202B0704700BF52
:10C8700000EB411182B0D1F8083B0193D0F81428A5
:10C88000019B13400193019802B0704784B0D0F827
:10C89000103801F00F0C00EB41110293D0F834383E
:10C8A0000393039B029A23FA0CF3DB01DBB21343DD
:10C8B0000293D1F80839029A13400193019804B009
:10C8C000704700BF406900F001007047D0F80019C0
:10C8D00000F500630A4A0A40C0F800299A6802F08D
:10C8E0000602042A05D1D0F8002942F00302C0F85C
:10C8F00000295A68002042F480725A60704700BFD5
:10C9000000F8FFFF144B10B4046C9C421AD800F5D9
:10C910003060002301290361036943F400230361AC
:10C92000036943F018030361036943F0C0430361E3
:10C9300004D14261036843F08023036000205DF866
:10C94000044B7047D0F8003B00F53060002BE0DA74
:10C9500000205DF8044B70470A30544FD0F8002493
:10C9600001F00303012900F5806C22F00302C0F8F6
:10C970000024D0F8002443EA0203C0F8003409D0B0
:10C98000022901D00020704741F270730020CCF8DA
:10C99000043070474BF680330020CCF804307047E9
:10C9A000D0F8140480B2704700EB4111002382B02C
:10C9B00001F5A0620193D1F8003513F4802FD1F86E
:10C9C000003543F08043C1F8003522D1C36A13F427
:10C9D0007F0FD1F8003523D123F00043C1F8003593
:10C9E000D1F8003543F00043C1F80035D1F80035E7
:10C9F00023F40043C1F8003502E01368002B13DA7A
:10CA0000019B0133B3F57A7F0193F6D9002002B080
:10CA10007047D0F8103413F47F0FD1F8003506D0EA
:10CA200043F00043C1F80035002002B0704723F006
:10CA30000043C1F80035D1F8003543F00043C1F898
:10CA40000035D1F8003523F40043C1F8003502E089
:10CA50001368002BE8DA019B0133B3F57A7F019369
:10CA6000F6D9002002B0704730B4002484B04FF4EF
:10CA70008465AA4A00940146836823F00103836019
:10CA80000394056102E00B69980604D5039B01330A
:10CA900093420393F7D900201023A04A02900B6120
:10CAA00002E00B69DB0604D5029B0133934202933B
:10CAB000F7D9D1F8003501F5A06201F5E0600193E6
:10CAC000019B43F080430193019B23F000430193BA
:10CAD000019B23F400430193019BC1F80035D1F879
:10CAE00020350193019B43F080430193019B23F088
:10CAF00000430193019B23F400430193019BC1F880
:10CB00002035D1F840350193019B43F080430193D8
:10CB1000019B23F000430193019B23F40043019305
:10CB2000019BC1F84035D1F860350193019B43F07A
:10CB300080430193019B23F000430193019B23F465
:10CB400000430193019BC1F86035D1F88035019312
:10CB5000019B43F080430193019B23F00043019329
:10CB6000019B23F400430193019BC1F88035D1F868
:10CB7000A0350193019B43F080430193019B23F077
:10CB800000430193019B23F400430193019BC1F8EF
:10CB9000A035D1F8C0350193019B43F08043019348
:10CBA000019B23F000430193019B23F40043019375
:10CBB000019BC1F8C035D1F8E0350193019B43F0EA
:10CBC00080430193019B23F000430193019B23F4D5
:10CBD00000430193019BC1F8E035D1F80036019381
:10CBE000019B43F080430193019B23F00043019399
:10CBF000019B23F400430193019BC1F80036D1F857
:10CC000020360193019B43F080430193019B23F065
:10CC100000430193019B23F400430193019BC1F85E
:10CC20002036D1F840360193019B43F080430193B5
:10CC3000019B23F000430193019B23F400430193E4
:10CC4000019BC1F84036D1F860360193019B43F057
:10CC500080430193019B23F000430193019B23F444
:10CC600000430193019BC1F86036D1F880360193EF
:10CC7000019B43F080430193019B23F00043019308
:10CC8000019B23F400430193019BC1F88036D1F846
:10CC9000A0360193019B43F080430193019B23F055
:10CCA00000430193019B23F400430193019BC1F8CE
:10CCB000A036D1F8C0360193019B43F08043019325
:10CCC000019B23F000430193019B23F40043019354
:10CCD000019BC1F8C036D1F8E0360193019B43F0C7
:10CCE00080430193019B23F000430193019B23F4B4
:10CCF00000430193019BC1F8E03613680193019B47
:10CD000043F080430193019B43F000430193019B57
:10CD100023F400430193019B136004E0400D0300E2
:10CD20001368002B05DA009B0133B3F57A7F00937B
:10CD3000F6D920328242E0D14FF0FF330020C1F813
:10CD400014344B618B6843F001038B6004B030BC3A
:10CD5000704700BF08B580B1D0F88C3213B1002302
:10CD6000C0F88C3209B1C0F888120123027080F833
:10CD70007432F8F7B9FB002008BD054806F04CFCFA
:10CD8000044806F049FC0A2006F05EFC022008BDBB
:10CD9000944501089C45010808B521B103460020CF
:10CDA000C3F88C1208BD054806F036FC044806F0AE
:10CDB00033FC0A2006F048FC022008BD9445010817
:10CDC000B445010808B5F8F701FC002008BD00BF14
:10CDD00008B5D0F88C321BB11B68984700B908BD64
:10CDE000022008BD08B5D0F88C325B689847002057
:10CDF00008BD00BF38B500F520750446284600F090
:10CE00007DFB0122B4F8863294F88012C4E99B239A
:10CE100001F01F03934209D0022B13D063B101F03C
:10CE200080012046F8F700FC002038BD2946204646
:10CE300000F092FA002038BD2946204600F00AF999
:10CE4000002038BD2946204600F0BAFA002038BD3F
:10CE500038B5054669B91346D0F86C22032A15D0B7
:10CE6000052A0C460ED1C5F86C12F8F7DDFB2046FA
:10CE700038BDD0F88C329B6933B190F87422032A04
:10CE800002D19847002038BD022038BDD0E95312A6
:10CE900091420CD9891A8A42C0F84C1188BF8AB2D3
:10CEA000194698BF92B200F099FB002038BDD0F827
:10CEB0008C321B691BB190F87422032A04D02846D7
:10CEC00000F096FB002038BD9847F8E770B504469F
:10CED00061B9D0F86C32022B15D033F0040337D08F
:10CEE00094F87832012B2ED0002070BDD0F88C320F
:10CEF0005B6933B190F87422032A02D1984700206D
:10CF000070BD022070BDD0E908630D469E4223D853
:10CF1000C669B6FBF3F203FB12620AB9B34228D921
:10CF2000D4F88C32DB681BB194F87422032A30D019
:10CF300080212046F8F778FB204600F065FB94F846
:10CF40007832012BD0D10023184684F8783270BD96
:10CF50008021F8F769FBC3E7F31A114603629AB21E
:10CF600000F024FB2B462A4629462046F8F7A8FB6A
:10CF7000B6E7D0F870329E42D2D20A4600F016FBD5
:10CF80002B462A4629462046C4F87052F8F798FBEB
:10CF9000A6E720469847CBE770B500224026044616
:10CFA000012511463346F8F71FFB33468021002246
:10CFB0002046C4F84451C4F85061F8F715FB00212D
:10CFC000D4F89032A561666284F87452C4F86C1289
:10CFD0006160C4F87C1223B1D4F88C3220465B68BF
:10CFE0009847002070BD00BF0346002019747047A9
:10CFF00003460421002093F8742283F8741283F806
:10D00000752270470346002093F8752283F8742236
:10D01000704700BF90F87422032A01D000207047A7
:10D0200008B5D0F88C32DB6903B19847002008BD01
:10D03000002070470020704700207047D0F88C22F5
:10D04000012108B580F874120179536898470020CF
:10D0500008BD00BF30B50B7883B00D46044603F021
:10D060006003202B0DD0402B0BD09BB1802120469C
:10D07000F8F7DAFA00212046F8F7D6FA002003B0D4
:10D0800030BDD4F88C32294620469B689847002052
:10D0900003B030BD4B78092BE8D801A252F823F039
:10D0A000FBD0000827D100086DD0000845D100084A
:10D0B0006DD000084DD1000885D100086DD0000862
:10D0C000B5D10008C9D000088978A24D012929707E
:10D0D000CCD890F87432022B00F01281032B00F0B0
:10D0E00000818021F8F7A0FA00212046F8F79CFA89
:10D0F00029782046FFF776FEC0E790F87432013BAE
:10D10000022BB3D8CB88022BB0D10122D0F87C32CD
:10D11000C2600BB10323C360022204F10C0120465C
:10D1200000F036FAAAE790F87432013B022B9DD842
:10D130004B88012BA2D100232046C4F87C3200F09A
:10D1400057FA9BE74B88012B98D1F5E78B88002B8A
:10D150008CD1CB88002B89D14D887F2D86D890F833
:10D160007432032B82D0E9B280F87612F8F78CFA89
:10D17000204600F03DFA002D00F0E080022384F804
:10D1800074327BE74A88130A013B062B3FF66EAFE9
:10D1900001A151F823F000BF49D2000831D20008A4
:10D1A0001FD200086DD000086DD0000809D2000819
:10D1B000DBD10008CA88012A7FF458AF90F8743296
:10D1C000022B00F28780002B3FF450AF0146002372
:10D1D00041F8083F00F0DCF950E7037C002B7FF4B6
:10D1E00045AFD0F88C320DF106001B6B9847072332
:10D1F0004370BDF80620002A67D0EB88002B5BD176
:10D20000204600F0F5F939E7037C002B7FF42EAFC0
:10D21000D0F88C320DF106005B6B9847E9E7D1B28C
:10D22000052900F28F80DFE801F0271F17372F3F15
:10D23000037C002B72D1D0F88C320DF106009B6A72
:10D24000984702234370D4E7D0F888320DF10601E5
:10D25000007C1B689847CCE7D0F888320DF10601B6
:10D26000007CDB689847C4E7D0F888320DF10601EE
:10D27000007C9B689847BCE7D0F888320DF1060126
:10D28000007C5B689847B4E7D0F888320DF106015E
:10D29000007C5B699847ACE7D0F888320DF1060155
:10D2A000007C1B699847A4E7D0F888320DF106018D
:10D2B000007C9B6998479CE79A420146204628BF1C
:10D2C0001A46ADF8062000F063F9EB88002B7FF4D6
:10D2D000D5AE95E7032B7FF4C9AE011D00F058F9D8
:10D2E000CCE621B3416801298AD0C9B2FFF77AFDA3
:10D2F000297820466160FFF76BFD022880D1B5E6F2
:10D3000000293FF47DAF01210323416080F874328E
:10D31000FFF75EFD02287FF473AFA7E6D0F88C32EA
:10D320000DF10600DB6A98470223437061E7022390
:10D33000416080F87432FFF755FD61E7012384F8FE
:10D3400074329BE6D0F88C320DF106029B6B984745
:10D350004FE700BF78BF002438B50B780D46044670
:10D3600003F06002402A0AD05B0608D58021F8F756
:10D370005BF900212046F8F757F9002038BD94F8F2
:10D380007432013B022B11D82B79012B0ED8D4F823
:10D390008C32294620469B689847EB88002BECD1BD
:10D3A0000028EAD1204600F023F9E6E78021204654
:10D3B000F8F73AF900212046F8F736F9002038BD91
:10D3C00038B50B78044603F06003202B0CD0402BBB
:10D3D0000AD083B180212046F8F726F900212046A3
:10D3E000F8F722F9002038BDD4F88C3220469B682B
:10D3F0009847002038BD4B788A88012B5FFA82FC61
:10D4000037D0032B23D0002BE4D190F87432022BB9
:10D410004AD0032BDED10CF00F03120603EB83037B
:10D4200000EB830351D4D3F84431002BD2D00CF05D
:10D430007F03142505FB030505F5A075002B4FD1CF
:10D440002B6002222946204600F0A2F8CAE790F895
:10D450007432022B1DD0032BBCD14B882BB91CF08E
:10D460007F0F02D0CB88002B43D0204600F0C0F8BD
:10D47000B8E790F87432022B0BD0032BAAD14B885B
:10D48000002BAFD11CF07F0FEFD06146F8F7DAF830
:10D49000EBE71CF07F0F9DD06146F8F7C5F88021BF
:10D4A0002046F8F7C1F89DE71CF07F0F92D11106D6
:10D4B0004FF000034FF002024CBF00F1140100F5E1
:10D4C000A0710B6000F064F88CE79B69002B81D0A1
:10D4D0000CF07F035D1C05EB850500EB8505ADE7D2
:10D4E00061462046F8F7BCF808B10123A8E7286098
:10D4F000A7E76146F8F798F8B7E700BF0B78037025
:10D500004B784370CA788B7803EB022343804A79C7
:10D510000B7903EB02238380CA798B7903EB022317
:10D52000C380704710B504468021F8F77DF80021CC
:10D530002046BDE81040F8F777B800BF18B303786D
:10D5400030B40BB30446C0F1010C04EB0C0314F827
:10D55000015FDBB2002DF8D101335B00DCB2138038
:10D5600003230C704B7004785CB1022300255A1C15
:10D57000CC540233D2B2DBB28D5410F8014F002CE0
:10D58000F5D130BC7047704702242346E7E700BF5F
:10D5900010B5134602240A460021C0F86C42C0E9C7
:10D5A0000733F8F77FF8002010BD00BF8C4600213C
:10D5B00008B513466246F8F775F8002008BD00BFAD
:10D5C00010B5134603240A460021C0F86C42C0E996
:10D5D0005233F8F775F8002010BD00BF8C460021CB
:10D5E00008B513466246F8F76BF8002008BD00BF87
:10D5F00008B504210023C0F86C121A461946F8F742
:10D6000051F8002008BD00BF08B505210023C0F86F
:10D610006C121A461946F8F753F8002008BD00BFEF
:10D62000D0F8C4230132C0F8C42302780B2A00D0FA
:10D630007047D0F87C33002BFAD09B69184700BFA5
:10D64000012380F823337047002380F82333704789
:10D65000034600220121104683F8201383F821237A
:10D6600083F82223704700BF38B501230025044604
:10D6700080F8213380F8235380F82053F8F748F8D6
:10D680002179204600F006F86179204600F002F882
:10D69000284638BD0A2907D800EB8100D0F884332A
:10D6A000C3F30E03C0F8843300207047704700BFF7
:10D6B000012910B506D0022915D051B1BDE810409E
:10D6C000FBF7DEB80A4634483449FFF743FBE8B1BC
:10D6D000FEE7334B0A46334C334934481C60FFF7AE
:10D6E00039FB68B1FEE701222C492B48FFF732FBDA
:10D6F00000B1FEE72E492848FFF74EFBC0B1FEE718
:10D700002B492A48FFF748FB60B1FEE72849224829
:10D71000FFF742FB00B1FEE726491F4804F0F8FC82
:10D7200008B3FEE72449214804F0F2FCA8B1FEE763
:10D730002049194804F0ECFC00B1FEE71648FFF759
:10D7400041FB024640B9164B164C174917481C605E
:10D75000FFF700FB68B1FEE7FEE71448FFF732FB76
:10D760000028ABD0FEE70C48FFF72CFB0028A5D023
:10D77000FEE70F490D48FFF70FFB00B1FEE70E492A
:10D780000A4804F0C5FC00B1FEE70848FFF71AFBA1
:10D79000002893D0FEE700BF18C200245C040024D8
:10D7A000B4C40024ADD60008400400247CBF00248B
:10D7B000C0040024200400241004002410B50B4BE6
:10D7C000012A0B4C08461960216006D0022A01D0BC
:10D7D0003AB110BD01F082FE2068BDE8104001F0B2
:10D7E00083BEBDE8104001F079BE00BFB4C4002480
:10D7F000B8C400240148FAF721BB00BFA0B400243C
:10D800000148FAF71BBB00BFA0B400240148FAF797
:10D8100015BB00BFA0B400240C4A82B00C4BD2F858
:10D82000DC1041F04001C2F8DC10D2F8DC2002F03C
:10D8300040020192019A1A6822F020021A601A68C6
:10D8400042F004021A6002B0704700BF0044025860
:10D850000018024870B5002304464FF4806204218A
:10D860004FF440353448C4F83821C4F8D410C4F813
:10D870003431C4F84C113149C4F8B000C4F828114F
:10D88000C4E92F32C4E93133C4E93335C4E937334D
:10D89000C4E94F33C4E95135C4E95533A2680323C1
:10D8A000C4F8D830C4F85031042A0AD8DFE802F0AE
:10D8B0001F262D34030055225623C4F8B420C4F883
:10D8C0002C310022402304F1B005C4F8B8202846CA
:10D8D000C4F83031F8F728FA08B1FFBEFEE704F5C6
:10D8E00094763046F8F720FAE8B1FFBEFEE725222D
:10D8F0002623C4F8B420C4F82C31E2E727222823D9
:10D90000C4F8B420C4F82C31DBE73D223E23C4F830
:10D91000B420C4F82C31D4E753225423C4F8B420E3
:10D92000C4F82C31CDE704F12803C4E92865C4F814
:10D93000E830C4F8603170BD400402405804024031
:10D940002DE9F04F814683B00E4617461D4600F183
:10D950002804204602F024FD01288246F9D14846D9
:10D96000FFF778FF8046002835D1EFF3108301934D
:10D9700072B6DFF888B00C9B99F90820DFF880A018
:10D98000DFF88090CBF800300D9B89F80020CAF8B2
:10D9900000300DB11846A847BAB23146204602F011
:10D9A00075F830B9019B03B962B6404603B0BDE8D3
:10D9B000F08F0023CBF80030CAF80030FF2389F83D
:10D9C00000300C9B8BB101210D9888469847019B34
:10D9D000002BEAD1E8E70C9B53B1D0460D98514695
:10D9E0009847404603B0BDE8F08F4FF00108D9E7F3
:10D9F000D046404603B0BDE8F08F00BFE0CE002423
:10DA0000E8CE0024E4CE00242DE9F04F814683B017
:10DA10000E4617461D4600F12804204602F0C0FCC1
:10DA200001288246F9D14846FFF714FF80460028B6
:10DA300035D1EFF31083019372B6DFF888B00C9BF9
:10DA400099F90820DFF880A0DFF88090CBF800304B
:10DA50000D9B89F80020CAF800300DB11846A84780
:10DA6000BAB23146204602F0D5F930B9019B03B96C
:10DA700062B6404603B0BDE8F08F0023CBF800301B
:10DA8000CAF80030FF2389F800300C9B8BB10121CC
:10DA90000D9888469847019B002BEAD1E8E70C9B3C
:10DAA00053B1D0460D9851469847404603B0BDE863
:10DAB000F08F4FF00108D9E7D046404603B0BDE8EB
:10DAC000F08F00BFE0CE0024E8CE0024E4CE002496
:10DAD0002DE9F04F814683B00F461646984600F177
:10DAE0002804204602F05CFC0128FAD18246484610
:10DAF000FFF7B0FE0546002838D1EFF310830193FD
:10DB000072B699F90830DFF88890DFF888B089F8A4
:10DB100000300D9BDFF880A0CBF800300E9BCAF8D8
:10DB200000300C9B0BB10E9898471FFA88F33A46C9
:10DB30003146204602F062F830B9019B03B962B663
:10DB4000284603B0BDE8F08F0023CBF80030CAF8B8
:10DB50000030FF2389F800300D9B8BB101210E9816
:10DB60000D469847019B002BEAD1E8E70D9B4BB18E
:10DB700055460E9851469847284603B0BDE8F08FA9
:10DB80000125DAE75546284603B0BDE8F08F00BF0F
:10DB9000E4CE0024E0CE0024E8CE00242DE9F043BA
:10DBA000002387B00222044605690493CDE90223CD
:10DBB000D0E902128E00FAB1022D7AD02178B5FA9E
:10DBC00085F54FF00108276A0B294FEA551521D139
:10DBD000A2780B2A02D0B8F1000F38D123790B2B91
:10DBE00001D0002D6CD1A37917B10B2B40F0998097
:10DBF000002007B0BDE8F08335F002032178276AE2
:10DC00000CBF4FF001084FF00008023D18BF01257E
:10DC10000B29DDD07D4B94F801C053F826201078F5
:10DC20000B2802D0884200F0AD80D378D01C9942F6
:10DC300002D10B2B40F0BD809379901D8B4202D115
:10DC40000B2B40F0BC80012007B0BDE8F083711CB5
:10DC50006E4BE07853F8213019780B2902D08A42B4
:10DC600000F0B580D97803F1030C0B2902D08A4269
:10DC700000F0BB80997903F1060C0B29E3D08A42AE
:10DC8000E1D1DB798342DED1634604F102099B785E
:10DC900048460593F7F74AFD80464846F7F74EFD9C
:10DCA00001A901904046F8F709FF23790B2B98D181
:10DCB00099E70178076A0B2940F0868001258DE7F6
:10DCC000B11C524A607952F8212011780B2902D0F8
:10DCD0008B4200F08180D178D51C0B2902D08B4279
:10DCE00000F08D809179951D8B42ACD10B29AAD083
:10DCF000D3798342A7D12A46251D937828460593D8
:10DD0000F7F714FD034628461D46F7F717FD01A94E
:10DD100001902846F8F7D2FEA379002F7FF465AF73
:10DD200066E7F11C394AE07952F8212011780B2975
:10DD300001D08B425FD0D178D51C0B2901D08B420A
:10DD40004FD09179951D8B427FF47DAF0B293FF425
:10DD50007AAFD37983427FF476AF2A46A51D9378B4
:10DD600028460593F7F7E2FC04462846F7F7E6FC59
:10DD7000034601A920460193F8F7A0FE002007B052
:10DD8000BDE8F083537863457FF44FAF9378204626
:10DD90000593F7F7CBFC81462046F7F7CFFC01A9A6
:10DDA00001904846F8F78AFEA2780B2A7FF413AF59
:10DDB00014E7137963457FF43FAF0246E6E7D37972
:10DDC00063457FF440AFF8E79846012522E759788C
:10DDD00081427FF447AF58E7517881427FF47BAFAF
:10DDE0008AE711798142ACD1B7E7197981427FF492
:10DDF00041AF634649E7517881429CD1AEE7117942
:10DE000081427FF46FAF2A4676E700BFD045010814
:10DE1000654A0368934200F0B980A2F578429342C4
:10DE200000F0B68002F58062934200F0B38002F504
:10DE30007842934200F0B08002F5E052934200F045
:10DE4000AD805A4A934240F0AB8005234FF4D07125
:10DE5000574A01FB03F310B5D418D05C86B0F7F72E
:10DE600075FCA078F7F772FC2079F7F76FFCA079C2
:10DE7000F7F76CFCA368052B11D8DFE803F0192F26
:10DE8000455B71034B4BD3F8F42042F02002C3F8FA
:10DE9000F420D3F8F43003F020030593059B2046CB
:10DEA000FFF77CFE012801D006B010BDFFBEFEE7E3
:10DEB000404B00222320D3F8F01041F48051C3F8E6
:10DEC000F0101146D3F8F03003F480530093009B18
:10DED000F7F778FD2320F7F7B3FDE0E7354B002295
:10DEE0002420D3F8E81041F48041C3F8E81011462B
:10DEF000D3F8E83003F480430193019BF7F762FD08
:10DF00002420F7F79DFDCAE72A4B00223320D3F8DF
:10DF1000E81041F40041C3F8E8101146D3F8E830A6
:10DF200003F400430293029BF7F74CFD3320F7F70D
:10DF300087FDB4E71F4B00225420D3F8F01041F4C2
:10DF40000051C3F8F0101146D3F8F03003F4005339
:10DF50000393039BF7F736FD5420F7F771FD9EE717
:10DF6000144B00225520D3F8F01041F48011C3F86F
:10DF7000F0101146D3F8F03003F480130493049B9F
:10DF8000F7F720FD5520F7F75BFD88E700235DE7F5
:10DF900001235BE7022359E7032357E7042355E7EF
:10DFA00000231B78FFDE00BF003001400014005842
:10DFB000C0C40024004402582DE9F043002289B077
:10DFC0001B4B01210DF1040C9E461A4B0791E146B3
:10DFD000E04667460EF11C060EF138050EF15404BA
:10DFE000CDE90122CDE90322CDE90522FF221A70F5
:10DFF000BCE80F00AEE80F009CE807008EE80700C1
:10E00000B9E80F000FC69CE8070086E80700B8E8EB
:10E010000F000FC59CE8070085E807000FCF0FC46D
:10E020009CE8070084E8070009B0BDE8F08300BF62
:10E03000B0010024E4CE0024014802F085B800BFFE
:10E04000E8C40024014802F07FB800BF88C600245D
:10E05000014802F079B800BF28C80024014802F046
:10E0600073B800BFC8C90024014802F06DB800BFF2
:10E0700068CB002410B5EFF3108472B6084B1A7801
:10E08000120602D504B962B610BD1B784FF4D072E7
:10E0900004485BB202FB0300B030F8F7BDF9F1E7CA
:10E0A000E4CE0024C0C4002410B5EFF3108472B68F
:10E0B000094B1A78120602D504B962B610BD1B7856
:10E0C0004FF4D07205485BB202FB030000F5947078
:10E0D000F8F7A2F9F0E700BFE4CE0024C0C40024A2
:10E0E0002DE9F04184B0EFF3108772B6284AFF2182
:10E0F000284C1368217023B100211160264A106852
:10E10000984723781B061CD5DFF894800025234E02
:10E110004446216879B162686AB1A369012B22D0B3
:10E12000A3B963693046019323690093E3682289A8
:10E13000FFF76AFC18B301351C3406F5D076042DC0
:10E14000E7D107B962B604B0BDE8F081D4E9043084
:10E15000CDE90130E068238900903046FFF7B8FC34
:10E160000028E8D10BE0D4E904301146CDE90030B5
:10E170003046E3682289FFF7E3FB0028DBD1C5EBDB
:10E18000C50508EB850348F825005860D9E700BFAE
:10E19000E0CE0024E4CE0024E8CE0024C0C4002455
:10E1A000B00100242DE9F04184B0EFF3108772B67E
:10E1B000284AFF21284C1368217023B100211160E7
:10E1C000264A1068984723781B061CD5DFF89480F0
:10E1D0000025234E4446216879B162686AB1A3697B
:10E1E000012B22D0A3B963693046019323690093C0
:10E1F000E3682289FFF708FC18B301351C3406F5E3
:10E20000D076042DE7D107B962B604B0BDE8F0813D
:10E21000D4E90430CDE90130E0682389009030462C
:10E22000FFF756FC0028E8D10BE0D4E90430114692
:10E23000CDE900303046E3682289FFF781FB0028F2
:10E24000DBD1C5EBC50508EB850348F82500586010
:10E25000D9E700BFE0CE0024E4CE0024E8CE0024BD
:10E26000C0C40024B00100242DE9F04184B0EFF3D4
:10E27000108772B6284AFF21284C1368217023B1F9
:10E2800000211160264A1068984723781B061CD588
:10E29000DFF894800025234E4446216879B16268F6
:10E2A0006AB1A369012B22D0A3B9636930460193F7
:10E2B00023690093E3682289FFF7A6FB18B30135B1
:10E2C0001C3406F5D076042DE7D107B962B604B048
:10E2D000BDE8F081D4E90430CDE90130E06823895C
:10E2E00000903046FFF7F4FB0028E8D10BE0D4E9BA
:10E2F00004301146CDE900303046E3682289FFF74B
:10E300001FFB0028DBD1C5EBC50508EB850348F8EA
:10E3100025005860D9E700BFE0CE0024E4CE0024F9
:10E32000E8CE0024C0C40024B00100242DE9F0414F
:10E3300084B0EFF3108772B601F0FAFA284A294C3C
:10E34000FF21136821702BB1002111600121264AA1
:10E350001068984723781B061CD5DFF894800025A9
:10E36000224E4446216879B162686AB1A369012BE3
:10E3700022D0A3B963693046019323690093E3680F
:10E380002289FFF741FB18B301351C3406F5D0761E
:10E39000042DE7D107B962B604B0BDE8F081D4E935
:10E3A0000430CDE90130E068238900903046FFF762
:10E3B0008FFB0028E8D10BE0D4E904301146CDE909
:10E3C00000303046E3682289FFF7BAFA0028DBD133
:10E3D000C5EBC50508EB850348F825005860D9E76B
:10E3E000E0CE0024E4CE0024E8CE0024C0C4002403
:10E3F000B001002430B4544B002108220220534CB9
:10E40000D9615862C3F8BC11C3F8C401C3F85C13E6
:10E41000C3F86403C3F8F424C3F8F814C3F8FC1475
:10E42000C3F80405C3F89426C3F89816C3F89C16DD
:10E43000C3F8A406C3F83428C3F83818C3F83C1846
:10E44000C3F84408424D4348C3E90521C3E96D219F
:10E45000C3E9D5212288A3783F49EA80CA800B729C
:10E460003E492B72CA800B722168A0F803204371C9
:10E47000C28003723A4C3B48E2802372A0F803202A
:10E48000394C4371C28003723848E2802372A0F88D
:10E490000320374C4371C2800372080C2180A070A6
:10E4A000A4F803206371E2802372324C324D218044
:10E4B000A070A4F803206371E28023722F4CEA80DD
:10E4C00021802B72A070A4F803206371E280237274
:10E4D0002B4C2180A070A4F803206371E28023728A
:10E4E000284C2180A070A4F803206371E28023727D
:10E4F000254C2180A070A4F803206371E280237270
:10E50000224C2180A070A4F803206371E280237262
:10E510001F4C21801F49A070A4F803201E4863717E
:10E52000E2802372A1F803201C4C4B71CA800B724D
:10E530001B49E2802372C2800372A1F803204B7151
:10E54000CA800B7230BC7047C0C40024CC4501089F
:10E55000380100245C0100242C010024F000002478
:10E5600044010024800100246801002408010024E3
:10E57000B0CE002498CE002474010024A4CE002440
:10E5800080CE0024D4CE0024BCCE0024C8CE0024EB
:10E590008CCE0024A4010024980100248C010024C6
:10E5A0001401002470B50446554800234FF48065DB
:10E5B000C4F8A8004020C4F8CC301646C4F828019E
:10E5C00094F89801C4F8B0300028C4F82C31C4F88D
:10E5D0003C3114BF4FF480700020C4F84431C4F8BB
:10E5E000C4004FF44030C4F83051C4F8C800C4F837
:10E5F00040014448C4E92D35C4E92F33C4E94D3303
:10E600006368C4F82001072B0BD8DFE803F03A4316
:10E610004C555E67700451225223C4F8AC20C4F8F4
:10E62000243181B9BEB994F8983153B1D4F8A81007
:10E63000E2690B6823F008030B60136843F01003D2
:10E640001360002070BD04F1A8052846F7F76CFBA5
:10E6500048B1FFBEFEE704F590752846F7F764FB66
:10E6600040B1FFBEFEE704F11C03C4F89450C4F8A7
:10E67000E030D7E704F11C03C4F89050C4F85831D7
:10E68000D1E729222A23C4F8AC20C4F82431002978
:10E69000C8D0D8E72B222C23C4F8AC20C4F82431EE
:10E6A0000029BFD0CFE72D222E23C4F8AC20C4F818
:10E6B00024310029B6D0C6E73F224023C4F8AC205D
:10E6C000C4F824310029ADD0BDE741224223C4F86B
:10E6D000AC20C4F824310029A4D0B4E74722482351
:10E6E000C4F8AC20C4F8243100299BD0ABE74F22FA
:10E6F0005023C4F8AC20C4F82431002992D0A2E7FA
:10E700008800024070040240D0F894301B682DE964
:10E71000F0415968C0B0D0F89C5106464942D0F843
:10E72000A842D5F80031C9B2D5F80421013B0C1B31
:10E730009B1AD5F80421E4B2DBB2A34294BFD218ED
:10E740001219C5F80421D5F80431B3F5807F05D935
:10E75000D5F80431A3F58073C5F80431C6F8A812C2
:10E76000D5F80021A718B7F5807F23D9C2F58078A6
:10E77000A918D2F5807222D1444502D0B4EB080228
:10E780002CD1FFB206F5D078C5F80071D6F8A402F6
:10E790002518B5F5807F8CBFC0F5807727461FBB55
:10E7A000BC4201D0E21B0ED1EDB2C6F8A45240B07B
:10E7B000BDE8F081A9182246002CE2D0A0466846A8
:10E7C00004F05EFED8E70DEB0701EDB2404604F021
:10E7D00057FEC6F8A45240B0BDE8F0810DEB08002A
:10E7E000294604F04DFECCE740443A46694604F021
:10E7F00047FED5E72DE9F04F814683B00E46174618
:10E800001D4600F11C04204601F0E6FF2028FAD145
:10E81000012200214846FFF7C5FE8046002835D179
:10E82000EFF31083019372B6DFF888B00C9B99F96F
:10E830000420DFF884A0DFF88490CBF800300D9B33
:10E8400089F80020CAF800300DB11846A847BAB2BE
:10E850003146204601F0A8FD30B9019B03B962B6EC
:10E86000404603B0BDE8F08F0023CBF80030CAF873
:10E870000030FF2389F800300C9B8BB101210D98EB
:10E8800088469847019B002BEAD1E8E70C9B53B1DF
:10E8900001210D9888469847404603B0BDE8F08FA7
:10E8A0004FF00108D9E74FF00108404603B0BDE83A
:10E8B000F08F00BFF8E6002400E70024FCE6002407
:10E8C0002DE9F04F814683B00E4617461D4600F1F4
:10E8D0001C04204601F080FF2028FAD100220121EB
:10E8E0004846FFF75FFE8046002835D1EFF31083DE
:10E8F000019372B6DFF888B00C9B99F90420DFF819
:10E9000084A0DFF88490CBF800300D9B89F80020BC
:10E91000CAF800300DB11846A847BAB231462046B1
:10E9200001F094FD30B9019B03B962B6404603B0D3
:10E93000BDE8F08F0023CBF80030CAF80030FF2389
:10E9400089F800300C9B8BB101210D9888469847BF
:10E95000019B002BEAD1E8E70C9B53B101210D98F4
:10E9600088469847404603B0BDE8F08F4FF0010855
:10E97000D9E74FF00108404603B0BDE8F08F00BF73
:10E98000F8E6002400E70024FCE600242DE9F0412D
:10E990000D4682B0EFF3108772B6002948D1FF23ED
:10E9A000254A264C237013682BB10020294610609D
:10E9B000234A1068984723781B0625D5DFF88880FE
:10E9C0000025204E444605E001351C3406F52B7623
:10E9D000092D19D0A369012B1BD0002BF4D121687C
:10E9E00030460029F0D06369019323690093E368FE
:10E9F0002289FFF765FF0028E6D1C5EBC50508EBC6
:10EA0000850348F82500586007B962B602B0BDE832
:10EA1000F08161680029D7D063693046019323698A
:10EA20000093E3682289FFF7E5FE0028CCD1E4E7F4
:10EA300003F0CEF9B3E700BFF8E60024FCE60024BB
:10EA400000E70024ECCE002420020024F0B50023CF
:10EA500087B0022204460493CDE90223027843687A
:10EA60000B2A4FEA430523D1A2780B2A02D10020BA
:10EA700007B0F0BD47496B1C474851F82330457833
:10EA800001781878E678884267D0824275D0D878C5
:10EA900003F1030C81426CD0824276D0987903F165
:10EAA000060C88426DD0824231D0012007B0F0BD03
:10EAB000384B394853F8253001784678187894F85F
:10EAC00001C081423BD082423FD0D87803F1030E8F
:10EAD00081423ED0824248D0987903F1060E8842A6
:10EAE0003FD08242E1D1DB796345DED173469B782A
:10EAF00020460593F6F71AFE06462046F6F71EFE58
:10EB0000034601A930460193F7F7D8FFACE7DB795C
:10EB1000B342CAD1634602349B7820460593F6F788
:10EB200005FE034620461C46F6F708FE034601A9EB
:10EB300020460193F7F7C2FF002007B0F0BD93F81D
:10EB400001E0B645C1D08242BFD158786045BCD102
:10EB5000CDE71F79B742BDD1BEE75F78AF4294D110
:10EB600095E7D979B142BCD19FE718796045B3D117
:10EB7000BCE71F79AF428FD190E75878B04286D179
:10EB8000C9E7D979A9428ED18FE71879B04285D1EA
:10EB9000C0E700BF38030024340300247E4A036822
:10EBA0009342F0B58FB000F0E480A2F54C4293425E
:10EBB00000F0E18002F58062934200F0DE8002F511
:10EBC0008062934200F0DB8002F58062934200F0A5
:10EBD000DA8002F54442934200F0D380A2F51C4251
:10EBE000934200F0D28002F58062934200F0CF8021
:10EBF0006A4A934240F0CD8008264FF42B77684C48
:10EC000006FB07F7E519A878F6F7A0FDE05DF6F733
:10EC10009DFD6B68082B13D8DFE803F03B4957656F
:10EC200073818F9D05005F4BD3F8F42042F00802FA
:10EC3000C3F8F420D3F8F43003F008030893089BDA
:10EC40002846FFF703FF012801D1FFBEFEE74FF47E
:10EC50002B730EAA544F0DF1240C03FB064463687A
:10EC600002EB43050FCFACE80F003B680022ACF885
:10EC70000030114635F9140CF6F7A4FE63680EAAAD
:10EC800002EB430333F9140C0FB0BDE8F040F6F784
:10EC9000D7BE444BD3F8F02042F01002C3F8F02066
:10ECA000D3F8F03003F010030093009BC8E73D4B0E
:10ECB000D3F8E82042F40032C3F8E820D3F8E83073
:10ECC00003F400330193019BBAE7364BD3F8E820F5
:10ECD00042F48022C3F8E820D3F8E83003F480231C
:10ECE0000293029BACE72F4BD3F8E82042F40022BA
:10ECF000C3F8E820D3F8E83003F400230393039B20
:10ED00009EE7284BD3F8E82042F48012C3F8E820AD
:10ED1000D3F8E83003F480130493049B90E7214B6D
:10ED2000D3F8F02042F02002C3F8F020D3F8F030FE
:10ED300003F020030593059B82E71A4BD3F8E820E4
:10ED400042F08042C3F8E820D3F8E83003F0804373
:10ED50000693069B74E7134BD3F8E82042F0004279
:10ED6000C3F8E820D3F8E83003F000430793079B8B
:10ED700066E7002641E701263FE702263DE7032636
:10ED80003BE7052639E7042637E7062635E7072659
:10ED900033E700239B78FFDE00100140000C005891
:10EDA000ECCE002400440258EC4401082DE9F04F59
:10EDB00091B0002301223F490DF1240A09938B46AB
:10EDC00001F11C09CAF8143001F13808CDF800A08F
:10EDD00001F15407CDF804A001F17006CDF808A0A8
:10EDE00001F18C05CDF80CA001F1A804CDF810A01C
:10EDF00001F1C40ECDF814A001F1E00CCAE9013311
:10EE0000CAE903330F92FF222B4BCDE906AA1A70F1
:10EE1000BAE80F00ABE80F009AE80700009B8BE808
:10EE200007009B46BBE80F00A9E80F009AE807001F
:10EE3000019B89E807009946B9E80F00A8E80F0090
:10EE40009AE80700029B88E807009846B8E80F0098
:10EE50000FC79AE80700039B87E807001F460FCFFC
:10EE60000FC69AE80700049B86E807001E460FCEEF
:10EE70000FC59AE80700059B85E807001D460FCDE2
:10EE80000FC49AE80700069B84E807001C460FCCD5
:10EE9000AEE80F00079B9AE807001C468EE80700C3
:10EEA0000FCCACE80F009AE807008CE8070011B01F
:10EEB000BDE8F08F20020024FCE6002410B50A4CC7
:10EEC00004F11C0001F096FBE369DB69DB0602D567
:10EED00094F8983103B910BD2046FFF715FCE3699B
:10EEE00010221A6210BD00BFECCE002410B50B4CEE
:10EEF00004F5327001F07EFBD4F8C832DB69DB0622
:10EF000002D594F8443403B910BD04F52B70FFF713
:10EF1000FBFBD4F8C83210221A6210BDECCE0024DC
:10EF200010B50B4C04F2745001F064FBD4F8743546
:10EF3000DB69DB0602D594F8F03603B910BD04F5A1
:10EF4000AB60FFF7E1FBD4F8743510221A6210BDF4
:10EF5000ECCE002410B50B4C04F5026001F04AFB26
:10EF6000D4F82038DB69DB0602D594F89C3903B964
:10EF700010BD04F60400FFF7C7FBD4F820381022B8
:10EF80001A6210BDECCE002410B50B4C04F6CC2058
:10EF900001F030FBD4F8CC3ADB69DB0602D594F8FB
:10EFA000483C03B910BD04F52B60FFF7ADFBD4F866
:10EFB000CC3A10221A6210BDECCE002410B50B4CD6
:10EFC00004F6785001F016FBD4F8783DDB69DB06D7
:10EFD00002D594F8F43E03B910BD04F65C50FFF777
:10EFE00093FBD4F8783D10221A6210BDECCE0024B9
:10EFF00010B50A4C04F1240001F0FCFA636ADB69E5
:10F00000DB0602D594F8A03103B910BD04F1080065
:10F01000FFF77AFB636A10221A6210BDECDE00244F
:10F0200010B50B4C04F5347001F0E4FAD4F8D0328A
:10F03000DB69DB0602D594F84C3403B910BD04F546
:10F040002D70FFF761FBD4F8D03210221A6210BD88
:10F05000ECDE002410B50B4C04F27C5001F0CAFA2F
:10F06000D4F87C35DB69DB0602D594F8F83603B9B1
:10F0700010BD04F5AC60FFF747FBD4F87C351022D7
:10F080001A6210BDECDE002410B5EFF3108472B6E6
:10F09000084B1A78120602D504B962B610BD1B7867
:10F0A0004FF42B70044A5BB200FB0320F7F7B4F96E
:10F0B000F2E700BFFCE6002494CF002410B5EFF384
:10F0C000108472B6084B1A78120602D504B962B6DB
:10F0D00010BD1B784FF42B70044A5BB200FB032079
:10F0E000F7F79AF9F2E700BFFCE600240CD0002401
:10F0F0000021FFF74BBC00BF0021FFF747BC00BF5A
:10F100000121FFF743BC00BF524B01224FF4965040
:10F1100003F5805130B40024C3F86025C3F86C2592
:10F12000C3F86445C3F87005C3F80C28C3F8104849
:10F13000C3F81828C3F81C08C3F8B82AC3F8BC4A97
:10F14000C3F8C42AC3F8C80AC3F8642DC3F8684DCD
:10F15000C3F8702DC3F8740D3F4DC3E90224C3E911
:10F160000520C3E9AD24C3E9B020C1E90424C1E905
:10F170000720C1E9AF24C1E9B220C1F86C45374C82
:10F18000C1F86825A378C1F8742522882468C1F8DD
:10F19000780533494FEA144C3248A1F803204B71EB
:10F1A000CA800B723049EA80A1F803204B71CA80F3
:10F1B0000B722E492B72C2802D4D0372A1F80320D1
:10F1C000A0F8032043714B712A48CA800B722A4968
:10F1D000EA800C802B72C280037281F802C0A1F811
:10F1E00003204B71CA800B7224492548A1F80320E3
:10F1F0004B71CA800B722349A0F80320A1F80320A9
:10F200004B71CA800B72204943710C8081F802C097
:10F21000A1F803204B71CA800B721C49C2800C807C
:10F2200081F802C0A1F803204B71CA800B72184903
:10F2300003720C8081F802C0A1F803204B71CA80D0
:10F240000B721449A1F803204B71CA800B7230BCB9
:10F25000704700BFECCE0024C80300243403002410
:10F26000E0030024D4030024F8030024EC0300246A
:10F27000BC030024A403002428E700240404002481
:10F2800028030024B003002404E700241CE7002422
:10F2900010E700241C0300243E4B00220B201146E3
:10F2A00010B5D3F8D84082B044F00104C3F8D84078
:10F2B000D3F8D84004F001040094009CD3F8D8405F
:10F2C00044F00204C3F8D840D3F8D83003F0020366
:10F2D0000193019BF6F776FB0B20F6F7B1FB0022BA
:10F2E0000C201146F6F76EFB0C20F6F7A9FB002266
:10F2F0000D201146F6F766FB0D20F6F7A1FB002264
:10F300000E201146F6F75EFB0E20F6F799FB002261
:10F310000F201146F6F756FB0F20F6F791FB00225F
:10F3200010201146F6F74EFB1020F6F789FB00225D
:10F330003C201146F6F746FB3C20F6F781FB002205
:10F3400011201146F6F73EFB1120F6F779FB00225B
:10F3500038201146F6F736FB3820F6F771FB00220D
:10F3600039201146F6F72EFB3920F6F769FB00220B
:10F370003A201146F6F726FB3A20F6F761FB002209
:10F380003B201146F6F71EFB3B2002B0BDE81040C3
:10F39000F6F756BB00440258704700BF0020704784
:10F3A00070B50446074E0D463046214602F0C2FEB7
:10F3B000304602F0C7FE044B204629461B6898479A
:10F3C000002070BD7CBF00243407012470B50446C2
:10F3D000074E0D463046214602F0ACFE304602F0A4
:10F3E000B1FE044B204629461B689847002070BD9B
:10F3F00018C200243807012400220949094808B529
:10F4000002F08EFE0849074802F094FE074B1A6886
:10F410000AB1002008BD064A00201A6008BD00BFDE
:10F4200034F700247CBF002434E70024340701248F
:10F4300099F3000800220949094808B502F070FE56
:10F440000849074802F076FE074B1A680AB1002007
:10F4500008BD064A00201A6008BD00BF34FF002422
:10F4600018C2002434EF00243807012499F300085F
:10F4700020280AD0212806D1094B18689A889B7940
:10F4800008608A808B7100207047054B0868B1F8CE
:10F4900004C08A7918600020A3F804C09A717047EC
:10F4A0003004002420280AD0212806D1094B1868EE
:10F4B0009A889B7908608A808B7100207047054B81
:10F4C0000868B1F804C08A7918600020A3F804C065
:10F4D0009A7170473804002400207047014B18606F
:10F4E000704700BF34070124014B1860704700BF0C
:10F4F00038070124122301480B8070478C04002434
:10F50000122301480B80704778040024042301482B
:10F510000B807047A004002410B5044C0A46044830
:10F520002146FEF70BF8204610BD00BF3C07012422
:10F530003046010810B5044C0A4604482146FDF740
:10F54000FDFF204610BD00BF3C07012440460108D6
:10F5500010B5044C0A4604482146FDF7EFFF20464B
:10F5600010BD00BF3C0701245446010810B5044CEF
:10F570000A4604482146FDF7E1FF204610BD00BFC2
:10F580003C0701246046010810B5044C0A460448B3
:10F590002146FDF7D3FF204610BD00BF3C070124E4
:10F5A00070460108042301480B807047A004002422
:10F5B00010B5044C0A4604482146FDF7BFFF20461B
:10F5C00010BD00BF3C07012430460108464A4FF0F9
:10F5D0001A0CD2F80008D2F80838A1F800C0C318F5
:10F5E00001D142487047180FB3F1204FD2F80418E8
:10F5F0004FF0000C3D4A2CBF3730303082F803C04A
:10F600004FF0000C9070C3F3036082F805C04FF018
:10F61000000C092882F807C04FF0000C8CBF37306F
:10F62000303082F809C04FF0000C1071C3F3035062
:10F6300082F80BC04FF0000C092882F80DC08CBF77
:10F64000373030309071C3F3034009288CBF373016
:10F6500030301072C3F3033009288CBF373030309C
:10F660009072C3F3032009288CBF373030301073F9
:10F67000C3F3031003F00F0309288CBF3730303079
:10F68000092B90734FF0000094BF30333733B1F142
:10F69000204FD07313744FEA11734FF000002CBF4A
:10F6A00037333033507400209374C1F30363D07444
:10F6B0000020092B50754FF000008CBF37333033DA
:10F6C000D0751375C1F303530848092B8CBF37332A
:10F6D00030339375C1F30343092B94BF3033373371
:10F6E000137600235376704700E0F11FA404002432
:10F6F000464A4FF01A0CD2F80008D2F80838A1F8A0
:10F7000000C0C31801D142487047180FB3F1204F11
:10F71000D2F804184FF0000C3D4A2CBF373030307F
:10F7200082F803C04FF0000C9070C3F3036082F8BE
:10F7300005C04FF0000C092882F807C04FF0000CFC
:10F740008CBF3730303082F809C04FF0000C107198
:10F75000C3F3035082F80BC04FF0000C092882F865
:10F760000DC08CBF373030309071C3F3034009288F
:10F770008CBF373030301072C3F3033009288CBF90
:10F78000373030309072C3F3032009288CBF3730F4
:10F7900030301073C3F3031003F00F0309288CBF3C
:10F7A00037303030092B90734FF0000094BF303366
:10F7B0003733B1F1204FD07313744FEA11734FF008
:10F7C00000002CBF37333033507400209374C1F3E2
:10F7D0000363D0740020092B50754FF000008CBFDC
:10F7E00037333033D0751375C1F303530848092BF1
:10F7F0008CBF373330339375C1F30343092B94BF68
:10F8000030333733137600235376704700E0F11F0F
:10F81000A404002410B5044C0A4604482146FDF710
:10F820008DFE204610BD00BF3C0701246046010844
:10F8300010B5044C0A4604482146FDF77FFE2046D9
:10F8400010BD00BF3C07012454460108034688B19F
:10F8500090F83D20022A03D0802201209A6670474A
:10F8600002680421002083F83D10D36823F00103CF
:10F87000D36070470120704703682C495A6910B45F
:10F880009C6944F008049C619C6944F010049C61EC
:10F890001C6824F001041C601C69214019619968EE
:10F8A00021F44041996090F88110042901D091061B
:10F8B00030D490F88110032901D054061FD491054B
:10F8C00009D5D0F8841041F00101C0F8841099697D
:10F8D00041F400719961D20509D5D0F8842042F035
:10F8E0000802C0F884209A6942F480729A61002369
:10F8F0005DF8044BA0F86230A0F86A307047D0F889
:10F90000841041F00401C0F88410996941F040016D
:10F910009961D4E7D0F8841041F08001C0F88410D8
:10F92000996941F020019961C3E700BF90FCFFFF96
:10F93000002800F0A48002680021F8B5514B04466D
:10F9400081629A4216D0A3F578439A4212D003F509
:10F950008063C0689A4200F08A800F2808D8E16B63
:10F9600000F108034D09DB0805FB0333082B15D90B
:10F970000120F8BDE068E16B00F10803414E4D093C
:10F98000DB0805FB0333404DAA4218BFB24203D047
:10F9900005F58065AA4201D1102BE9D894F8813091
:10F9A00003F0FF05002B58D0002702236568A66BE3
:10F9B00084F88130136823F001031360A369B3F165
:10F9C000806F3ED03943676B3B43676A3B4327698F
:10F9D0003B4367693B43276A3B43E76C3B43A7686C
:10F9E0003B43A76C3B43A76D3B432B433343E66943
:10F9F000314308439060D360B5B9936823F4C05392
:10FA000043F400639360936823F4C06343F480631A
:10FA10009360136D23F00103136500200123C4F8E4
:10FA2000840084F88130F8BD136D23F00103136561
:10FA30006B02F2D5D368616D23F000430B43D360B2
:10FA4000EBE7B5F5800FBDD1002EBBD1D2F800C0D9
:10FA50004CF4805CC2F800C0B4E7204684F88050C3
:10FA6000FEF7D6F92268A76AE16BE0689DE7E16BD3
:10FA700000F108034D09DB0805FB03338CE7012087
:10FA8000704700BF0030014000380040F8B590F8E2
:10FA90008030012B00F08C8090F8813015460122D7
:10FAA0000446DEB2934280F880206AD1002963D0F8
:10FAB000B5FA85F35B09002D5ED003224366A0F8FA
:10FAC000683080F88120C0F88430A0F86250A0F837
:10FAD0006A30C165A0F86050C0E91C338368B3F593
:10FAE000C02F04D10268136843F400631360E36815
:10FAF000A06F0F2B4BD98369B3F5804F3CD122689F
:10FB00003A4B3B4F2032036452F8183CC763394FDD
:10FB100023F40043C7640027076542F8183CB4F893
:10FB200062309BB2F6F7BEFA002844D1A36F324A86
:10FB3000DB69B3F5807F2368596802EA010218BFC8
:10FB40002A435A609A68616842F40042B1F5800F16
:10FB50009A601A6942F448721A611A6842F0010206
:10FB60001A6003D11A6842F400721A6000231E461C
:10FB700084F880303046F8BD002384F88030304669
:10FB8000F8BD0023022680F880303046F8BD072BF0
:10FB900083691AD8B3F5005F20D0B3F5804FAED19A
:10FBA000B4F862309BB203339B08A4F86230A6E736
:10FBB00002263046F8BDD4F88430012243F0100309
:10FBC000C4F8843084F88120D9E7B3F5804F05D09C
:10FBD000B3F5005FD0D1B3F5804F90D1B4F8623067
:10FBE0009BB201335B08A4F8623088E74500010846
:10FBF000C9FF0008710001080000FFFF70B51D4635
:10FC000090F88030012B00F0B9800123044680F881
:10FC1000803090F881304068DBB2B0F5800F7DD045
:10FC2000012B40F08580002D18BF002A71D00029DB
:10FC30006FD094F88130042B02D0052384F88130F2
:10FC40000023E1652168C4F88430A4F86250A4F868
:10FC50006A50A4F860506266A4F86850C4E91C3386
:10FC60008B6823F440438B60E3680F2B65D9E06F0A
:10FC70008369B3F5804F4CD194F88130042B00F0A8
:10FC80008A805E4B03645E4BC3635E4E3031B4F8D2
:10FC90006A30C66400269BB20665F6F703FA0028B0
:10FCA0006ED12268A16F9368203243F4804342F8FA
:10FCB000183CB4F86230C1E90F00C1E913009BB2EF
:10FCC0000846E16DF6F7EEF9002859D1A36FDB691C
:10FCD000B3F5807F236863D059684B4A0A402A43B2
:10FCE0005A609A68616842F40042B1F5800F9A60E8
:10FCF0001A6942F458721A611A6842F001021A60D5
:10FD000003D11A6842F400721A60002384F880302C
:10FD100070BD0023012084F8803070BDA0680028E9
:10FD20007FF47EAF042B3FF47EAF012B3FF47BAF1B
:10FD30000023022084F8803070BD072B35D8A36FD4
:10FD40009B69B3F5005F50D0B3F5804F06D1B4F88E
:10FD500062309BB203339B08A4F86230E06F836982
:10FD6000B3F5005F39D0B3F5804F85D1B4F86A3070
:10FD70009BB203339B08A4F86A307DE7022070BD74
:10FD8000D4F88430012243F010031046C4F88430C4
:10FD900084F8812070BD1D4B03641D4BC36374E761
:10FDA0005968194A0A405A609BE7E06F8369B3F5C6
:10FDB000005F02D0B3F5804FABD1A66FB669B6F540
:10FDC000804F06D1B4F86260B6B201367608A4F866
:10FDD0006260B3F5804F7FF44FAFB4F86A309BB2E6
:10FDE00001335B08A4F86A3046E7B4F862309BB28E
:10FDF00001335B08A4F86230B0E700BF650001087A
:10FE000019000108710001080000FFFF55000108FA
:10FE1000F1FF00082DE9F0411546826804460E46C0
:10FE200022B94368B3F5800F00F0958094F88030D4
:10FE3000012B00F09980012384F8803094F8813000
:10FE4000012BDFB269D1002E61D0B5FA85F35B09D1
:10FE5000002D5CD00421B2F5C02F666684F88110B5
:10FE6000A4F86850C4F88430A4F86030A4F86A504C
:10FE7000A4F86230C4E91C3304D12268136823F467
:10FE800000631360E3680F2B4ED9E06F8369B3F50D
:10FE9000804F3CD121688B6823F480438B603246CD
:10FEA000454EB4F86A3030310664444E9BB2C663A6
:10FEB000434EC66400260665F6F7F4F8002857D1CD
:10FEC000E36F404ADB69B3F5807F2368596802EA33
:10FED000010218BF2A435A609A68616842F480425E
:10FEE000B1F5800F9A601A6942F450721A611A686B
:10FEF00042F001021A6003D11A6842F400721A60DB
:10FF000000231F4684F880303846BDE8F081002386
:10FF100084F880303846BDE8F0810023022784F859
:10FF200080303846BDE8F081072B2BD82168E06F80
:10FF30008B6823F480438B608369B3F5005F32D014
:10FF4000B3F5804FABD1B4F86A309BB203339B0852
:10FF5000A4F86A30A3E72B4604250A4680F88150AE
:10FF6000BDE8F041FFF74ABE02273846BDE8F08100
:10FF7000D4F88430012243F01003C4F8843084F8AC
:10FF80008120C7E7E06F8269B2F5804F02D0B2F5F9
:10FF9000005FBCD12168B2F5804F8B6823F48043A9
:10FFA0008B607FF47CAFB4F86A309BB201335B089E
:10FFB000A4F86A3073E700BF55000108F1FF00089C
:10FFC000710001080000FFFF806B08B590F88130D8
:10FFD000072B09D0836FDB69B3F5807F05D00268FA
:10FFE000136943F00803136108BDFEF779F808BDF3
:10FFF000806B08B590F88130072B09D0C36FDB699F
:020000040801F1
:10000000B3F5807F05D00268136943F008031361DC
:1000100008BDFEF7C7F808BD806B08B590F88130C1
:10002000072B09D0836FDB69B3F5807F05D00268A9
:10003000136943F00803136108BDFEF715F908BD05
:10004000704700BF806B08B5FFF7FAFF08BD00BF1F
:10005000704700BF806B08B5FFF7FAFF08BD00BF0F
:10006000704700BF806B08B5FFF7FAFF08BD00BFFF
:1000700010B5846BF6F720FD022800D110BD23686F
:1000800030495A69986940F008009861986940F0D1
:1000900010009861186820F001001860186901408C
:1000A0001961996821F44041996094F881100429FC
:1000B00001D091063AD494F88110032901D050065A
:1000C00029D4910509D5D4F8841041F00101C4F870
:1000D0008410996941F400719961D20509D5D4F869
:1000E000842042F00802C4F884209A6942F48072A5
:1000F0009A61002301222046A4F86230A4F86A30F5
:10010000D4F8843043F01003C4F8843084F881209C
:10011000FEF70CF910BDD4F8841041F00401C4F8C6
:100120008410996941F040019961CAE7D4F88410BC
:1001300041F08001C4F88410996941F0200199616F
:10014000B9E700BF90FCFFFF036819695A692DE900
:10015000F04101EA02059F68044690F8816005F0CD
:10016000640CBCF1040F2FD005F04500012834D0F9
:1001700005F02600022800F0DF80280770D59A6974
:1001800017F4404FF6B242F008029A619A6942F0C1
:1001900010029A619A6942F400629A611A6922F027
:1001A00008021A6123D0042E00F0DE80A26FD2690B
:1001B000EAB1032E50D0E26FD269C2B1052E14D13C
:1001C0002046FEF751F810E0436F9847236F204612
:1001D000984705F04503012B02D1236F204698472D
:1001E00005F02605022D00F0A780BDE8F0819A6891
:1001F00012F4404F1FD1B4F86A2092B2DAB1626EA5
:100200000EE01B6B42F8043B6266B4F86A30013BB7
:100210009BB2A4F86A30B4F86A309BB25BB1236831
:10022000E1680F29EDD8072940F292801B8E22F851
:10023000023B6266E9E72046FFF71EFB012384F8D4
:100240008130D4F88430002B7FD1052EB8D0042E15
:1002500000F08F80032EC8D12046FDF741FFC4E790
:10026000100501D50A077AD415F4587FBDD06E0663
:1002700009D5D4F8842042F00402C4F884209A6995
:1002800042F040029A61A80509D5D4F8842042F0D2
:100290000102C4F884209A6942F400729A61E90567
:1002A00009D5D4F8842042F00802C4F884209A6961
:1002B00042F480729A61AA0609D5D4F8842042F0EB
:1002C0008002C4F884209A6942F020029A61D4F82E
:1002D0008420002A89D0196807F44047274A21F072
:1002E0000101B7F5404F1960196902EA01021A616C
:1002F00027D19A68E06F22F440429A6050B1204BB7
:100300000365F5F7EFFF28B1D4F8843043F04003DC
:10031000C4F88430A06F00283FF467AF184B036522
:10032000F5F7E0FF00283FF460AFD4F8843043F0E5
:100330004003C4F8843058E7636F2046BDE8F041BD
:1003400018470123204684F88130FDF7EFFF4CE782
:1003500093F830301370626E0132626655E79A6925
:1003600042F400629A6140E7E26FD269002A3FF4EA
:100370003EAF2046FDF716FF37E700BF94FCFFFFB6
:100380008503010808B5806B00230122A0F86A30BC
:10039000A0F8623080F88120FDF7C8FF08BD00BFDB
:1003A00090F88100704700BFF8B5D0F88070202F1A
:1003B00044D1002940D0B2FA82F67609002A3BD017
:1003C000044690F87C00012838D001252123606F75
:1003D000A4F856202165C4F88860A4F8542084F855
:1003E0007C50C4F88030D8B1DFF854C0134622687E
:1003F000C0F83CC0DFF84CC028320665C0F840C0E9
:10040000DFF844C0C0F84CC0F5F74CFE40B11023F3
:10041000284684F87C60C4F88830C4F88070F8BD41
:100420002368002240211046196284F87C209A68D3
:1004300042F080029A60F8BD0120F8BD0220F8BDAC
:10044000F9040108290501087D050108F8B5D0F86F
:100450008470202F48D1002944D0B2FA82F6760960
:10046000002A3FD090F87C300446012B3CD0012577
:100470002223C0F888608165A0F85C2080F87C5059
:10048000C0F88430806FE0B1DFF860C013460A46E0
:100490002168C0F83CC0DFF858C024310665C0F8B8
:1004A00040C0DFF850C0C0F84CC0F5F7FBFD40B1CC
:1004B0001023284684F87C60C4F88830C4F8807023
:1004C000F8BD2368002084F87C001A6842F480722A
:1004D0001A609A6842F001029A609A6842F04002FB
:1004E0009A60F8BD0120F8BD0220F8BD350501086D
:1004F000710501087D05010808B5C369806BB3F576
:10050000807F0CD003680022A0F856209A6822F061
:1005100080029A601A6842F040021A6008BDFEF735
:10052000E7FD08BD704700BF806B08B5FFF7FAFF15
:1005300008BD00BF08B5C369806BB3F5807F12D0DA
:10054000036800222021A0F85E201A6822F480723D
:100550001A609A6822F001029A609A6822F04002BA
:100560009A60C0F88410FEF7C7FD08BD704700BF51
:10057000806B08B5FFF7FAFF08BD00BF806B38B588
:100580000368D0F88040D0F884109A68150601D529
:10059000212C1DD09A68520601D5222908D0D0F806
:1005A000883043F01003C0F88830FEF7A9FD38BD4D
:1005B00000240F4A2025A0F85E40196821F49071AC
:1005C000196099680A409A60C0F88450C466E6E7EA
:1005D00000222024A0F856201A6822F0C0021A60D7
:1005E0009A6822F400029A60C0F88040D2E700BF07
:1005F000FEFFFFEF0268D36970B51E071568044659
:10060000916800F084806C4805F4907C08405CEAB6
:1006100000061DD1D80202D54E0200F19D801806B9
:1006200006D501F4000105F08000014340F08C8004
:100630005E0602D5680600F19B80190202D56A00A9
:1006400000F1A380DB0102D5002DC0F2AA8070BDAD
:10065000DE0709D5EE0507D501261662D4F88860B5
:1006600046F00106C4F888609E0760D5CE0709D51C
:1006700002261662D4F8886046F00406C4F8886042
:100680005E0758D41E070CD505F0200C5CEA00006C
:1006900007D008201062D4F8880040F00800C4F8A1
:1006A0008800D4F888000028D1D09E0606D505F031
:1006B000200501F0805155EA01036BD1D4F8885030
:1006C000936805F0080503F040031D436ED01168E0
:1006D00020203A4B21F49071116091680B40002169
:1006E0009360C4F884009368E1665D063CD5936826
:1006F000A06F23F040039360002835D0304B036592
:10070000F5F7F0FD0028A2D0A06F036D0CE09E0667
:1007100080D505F0200C01F0805E5CEA0E063FF407
:1007200079AFC36E002B92D0BDE8704018475E07CA
:10073000A8D5CE07A6D504261662D4F8886046F060
:100740000206C4F888609DE7236F002B3FF47FAF5B
:100750002046BDE8704018474FF4801320461362CE
:10076000BDE8704001F068BB2046FEF7C9FC70BDD3
:1007700013682020002123F040031360C4F8800098
:1007800020462167FEF7B4FC70BD2046BDE87040EE
:1007900001F056BBE36E002B90D0204698472268AC
:1007A0008CE72046BDE8704001F048BB2046FEF7CC
:1007B000A7FCC4F8885070BD01000010FEFFFFEFD9
:1007C000C507010808B5806B0023A0F85E30A0F8CB
:1007D0005630FEF795FC08BDD0F88020D0F8840094
:1007E00010437047F0B58268044687B02368D0E9AB
:1007F00004101D680A43616E0243E06902430A4324
:10080000A8492940A84D0A43E168AB421A605A68DA
:1008100022F4405242EA0102A1695A6000F09D8030
:10082000226A9D681143A14A666A2A401143996071
:10083000DA6A22F00F023243DA629D4A934224D0F0
:100840009C4A934255D09C4A934200F02F829B4A87
:10085000934200F09B829A4A934200F0E980994AC1
:10086000934200F09D82984A934200F0D885974ABF
:10087000934200F0D682012500234FF00112284652
:100880002367C4E91A2307B0F0BD914B5B6D03F0F9
:100890003803282BEFD88F4AD55CB0F5004F33D002
:1008A000202D00F2D981202D00F2B680DFE815F06E
:1008B000A8017B01B400B4007201B400B400B4001C
:1008C0004901B400B400B400B400B400B400B400F2
:1008D0001C01B400B400B400B400B400B400B4000F
:1008E000B400B400B400B400B400B400B400B40068
:1008F000CA00774B5B6D03F00703052BBBD8764A24
:10090000B0F5004FD55CCBD1202D00F21482202D04
:1009100000F20082DFE815F08A035804FE01FE01B0
:100920002804FE01FE01FE018604FE01FE01FE0117
:10093000FE01FE01FE01FE01F203FE01FE01FE01C9
:10094000FE01FE01FE01FE01FE01FE01FE01FE01AF
:10095000FE01FE01FE01FE01B7039868534A024002
:100960005B480A439A60DA6A616A22F00F020A431E
:10097000DA62836D03F00703052B3FF67CAF574A1D
:10098000D65C202E00F29C81012E7FF674AFB31E40
:100990001E2B3FF670AF01A252F823F0530F01084F
:1009A00077080108FD0E010877080108770801089B
:1009B00077080108C70F01087708010877080108C0
:1009C0007708010877080108770801087708010807
:1009D00077080108670F0108770801087708010800
:1009E00077080108770801087708010877080108E7
:1009F00077080108770801087708010877080108D7
:100A000077080108770801087708010877080108C6
:100A100077080108DD0F010801250023A3F110016B
:100A20004FF6EF7291423FF626AF2268D36023E77C
:100A3000274B5B6D03F00703052B3FF61CAF284ADD
:100A4000D55C2AE7002E00F0B581012E00F09E85CE
:100A5000022E00F0B185032E00F0D885042E00F0A0
:100A6000F485052E00F08486062E00F0BE86072E43
:100A700000F0FD86082E00F05087092E00F07B87DD
:100A80000A2E00F0DC8743F60953164A0B2E18BFD6
:100A900013466268002503EB5203B3FBF2F39BB2EB
:100AA000BCE700BFF369FFCF000C0058FFF4FF1153
:100AB000001001400044004000480040004C00404D
:100AC000005000400014014000780040007C0040CD
:100AD0000044025884460108B0460108B84601089F
:100AE000B046010800093D00B34B1A68920640F178
:100AF0006F811A68B14BC2F3C102D340002EC8D037
:100B0000012E00F0EF81022E00F0C584032E00F0CC
:100B1000BF84042E00F02B85052E00F09D86062E46
:100B200000F0DC86072E00F01C86082E00F04E86B2
:100B3000092E00F08E860A2E00F0E3860B2EA8D137
:100B400026E003A8F9F7F8FE626A049B002AA0D009
:100B5000012A00F0C781022A00F09D84032A00F0D8
:100B60009784042A00F00385052A00F0FD84062AF4
:100B700000F07E85072A00F0F485082A00F026861A
:100B8000092A00F066860A2A00F0BB860B2A80D16B
:100B90001B0A7EE76846F9F711FE626A019B002A8C
:100BA0003FF477AFD4E7F8F7A9FF636A03B3012BEB
:100BB00000F0F384022B00F0CE84032B00F0C884F5
:100BC000042B00F01785052B00F01185062B00F093
:100BD0000686072B00F04886082B00F09B86092B21
:100BE00000F0E1860A2B00F03B870B2B08BF000AC0
:100BF0006268002500EB5203B3FBF2F39BB20DE7F2
:100C0000F8F760FF636A03B3012B00F0C984022B7D
:100C100000F0A784032B00F0A184042B00F0E484EF
:100C2000052B00F0DE84062B00F0E685072B00F094
:100C30003686082B00F08786092B00F0B1860A2B38
:100C400000F0FA860B2B08BF000A626800EB520323
:100C5000B3FBF2F39BB2E1E6402D7FF40CAE002E25
:100C600000F0DC80012E00F09484022E00F0A784B6
:100C7000032E00F0C784042E00F0EC84052E00F053
:100C80007A85062E00F0B485072E00F0FE85082E2A
:100C900000F04986092E00F08B860A2E00F0298785
:100CA0000B2E0CBF80234FF40043F2E6424B5B6DEA
:100CB00003F00703052B3FF6DEAD414AD55CECE5BA
:100CC000402E7FF4D8AD002900F0B580012900F056
:100CD0006E84022900F08284032900F0AF84042985
:100CE00000F03B85052900F06985062900F0AD85F7
:100CF000072900F0EF85082900F03686092900F061
:100D00005B860A2900F0F9860B290CBF80254FF479
:100D1000004592E001250023A3F110014FF6EF7288
:100D200091423FF6A8AD23F00F02C3F342031343F1
:100D30002268D360A0E5402D7FF49DAD002E00F029
:100D4000D380012E00F0D280022E00F06D84032E9D
:100D500000F0F484042E00F02585052E00F068854F
:100D6000062E00F0C285072E00F01086082E00F037
:100D70004886092E00F059860A2E00F0EC860B2ECC
:100D80000CBF4FF480704FF48030AFE00A4B5B6DC6
:100D900003F00703052B3FF66EAD0A4AD55C7CE5F0
:100DA000054B5B6D03F03803282B3FF664AD064A14
:100DB000D55C72E5054B6CE6004402580090D00308
:100DC000B0460108B04601088446010800093D000C
:100DD000002E00F0BA83012E00F0FD83022E00F0F9
:100DE0002A84032E00F0B684042E00F0E484052E3D
:100DF00000F02885062E00F08785072EDAD0082E11
:100E000000F0C483092E00F0D7830A2E00F01D8461
:100E1000B44BB54A0B2E18BF13463AE64FF40043C5
:100E200037E6B24B5B6D03F00703052B3FF623ADAE
:100E3000AF4AD55C31E54FF40045676807EB4703DF
:100E4000AB423FF618ADB5EB073F3FF614AD202E91
:100E500000F2F082012E7FF60EAD023E1E2E3FF60E
:100E60000AAD01A353F826F0A5130108770801087D
:100E70007B13010877080108770801087708010843
:100E80001913010877080108770801087708010895
:100E90007708010877080108770801087708010832
:100EA000AD120108770801087708010877080108E2
:100EB0007708010877080108770801087708010812
:100EC0007708010877080108770801087708010802
:100ED00077080108770801087708010877080108F2
:100EE000351201085B08D4E54FF4803062680025B4
:100EF00000EB5203B3FBF2F39BB20DE76846F9F740
:100F00005DFC636A019D03B3012B00F0CF82022BCD
:100F100000F0C782032B00F0C182042B00F02F8366
:100F2000052B00F02983062B00F09883072B00F097
:100F30002684082B00F04D84092B00F09B840A2B9B
:100F400000F0FB840B2B00F06582002D3FF494AC85
:100F500073E7F9F721FC636A0546002BD4D1002D15
:100F60003FF48AAC69E7614B1A68950640F1A582A7
:100F70001B685D4DC3F3C103DD4000293FF45DAF45
:100F8000012900F04D83022900F04683032900F077
:100F90004083042900F04584052900F08384062954
:100FA00000F0D484072900F02085082900F04F853F
:100FB000092900F0F9850A2900F0FD850B297FF445
:100FC0003CAF2D0A39E703A8F9F7B6FC636A049D24
:100FD000002B99D1002D3FF44FAC2EE7002900F0F3
:100FE0006A82012900F0DF82022900F0F2820329DF
:100FF00000F02883042900F0AA83052900F0D88393
:10100000062900F02E84072900F06184082900F0E9
:10101000AF84092900F0EF840A2900F0148543F613
:101020000955344B0B2918BF1D4606E7F8F74AFD52
:10103000636A03B3012B00F0CA82022B00F0F7822F
:10104000032B00F07F83042B00F0B083052B00F00E
:10105000EB83062B00F05084072B00F09E84082BB6
:1010600000F0B984092B00F0E4840A2B00F07085AD
:101070000B2B08BF000A61684A0802EB4003B3FB70
:10108000F1F39BB248E6002E00F03A82012E00F008
:101090009A82022E00F0C682032E00F04D83042EA9
:1010A00000F07E83052E00F0BA83062E00F0218426
:1010B000072E00F06F84082E00F08284092E00F0C5
:1010C000CC840A2E00F06C8547F612230A4A0B2EB8
:1010D00018BF13466268002503EB5203B3FBF2F31B
:1010E0009BB219E690D003000090D0030044025850
:1010F000B046010800093D0000127A00A44B1A68AE
:10110000910640F1FF811A68A24BC2F3C10223FA93
:1011100002F206B3012E00F0B182022E00F03783F6
:10112000032E00F06F83042E00F0C683052E00F01E
:101130000084062E00F06F84072E00F07184082EC4
:1011400000F00385092E00F03C850A2E00F036855C
:101150000B2E08BF120A616800254B0803EB4203FF
:10116000B3FBF1F39BB2D7E56846F9F727FB626A58
:10117000019902B3012A00F00782022A00F01A82C4
:10118000032A00F03A82042A00F06282052A00F065
:10119000EB82062A00F01683072A00F07483082ADF
:1011A00000F0A183092A00F001840A2A00F05B8480
:1011B0000B2A08BF090A62680025530803EB4103A4
:1011C000B3FBF2F39BB2A7E5F8F798FC636A03B3AD
:1011D000012B00F0FA81022B00F02B82032B00F090
:1011E0008382042B00F0DA82052B00F02583062B86
:1011F00000F06983072B00F0C283082B00F0EE8318
:10120000092B00F07E840A2B00F08D840B2B08BF85
:10121000000A616800254A0802EB4003B3FBF1F3C2
:101220009BB279E503A8F9F787FB626A0499002A63
:10123000C1D09FE7616A002900F05482012900F0C3
:101240001F83022900F08B83032900F0BF83042948
:1012500000F00084052900F0AA84062900F08E849D
:10126000072900F08784082900F0E584092900F0A7
:10127000DE840A2900F0A8844748484B0B2918BF90
:10128000184600217B083A4618184FF0000341F138
:101290000001EFF731FAA0F54073414A93423FF65F
:1012A000EAAA23680025D860FFF7E6BA384A116831
:1012B00011F0200100F0E781136800213548C3F3E5
:1012C000C103D840636A0BB3012B00F04B83022BA0
:1012D00000F07F83032B00F00584042B00F05D8475
:1012E000052B00F02C84062B00F0A984072B00F0BE
:1012F000B484082B00F0AD84092B00F094840A2BF1
:1013000000F08D840B2B01D1000A00210902030299
:1013100041EA10617808B6E703A8F9F70DFB0498D5
:10132000636A002102460BB3012B00F03582022BC9
:1013300000F08682032B00F0C182042B00F0218391
:10134000052B00F04D83062B00F09083072B00F057
:101350002184082B00F00B84092B00F004840A2B55
:1013600000F052840B2B01D1100A0021626809029F
:10137000030241EA1061500886E76846F9F71EFA51
:101380000198636A00210246002BEFD0CCE700BF32
:10139000004402580090D00300093D000000093DC0
:1013A000FFFC0F00F9F7F8F9626A002103460AB35F
:1013B000012A00F06E82022A00F0B982032A00F0AE
:1013C0002483042A00F09383052A00F0A683062ACA
:1013D00000F0DA83072A00F0D583082A00F01C8485
:1013E000092A00F015840A2A00F02F840B2A01D163
:1013F000030A002162680902180241EA13615308D6
:10140000C0184FF0000341F10001EFF775F9A0F5A6
:10141000407342E72D0A002D3FF42EAA0DE5B54B8F
:101420005B6D03F00703052B3FF625AAB24AD55C96
:10143000FFF733BA402E7FF41EAA616A002900F03C
:101440004E81012900F02782022900F084820329BD
:1014500000F0CE82042900F05783052900F059835B
:10146000062900F06883072900F06083082900F04E
:10147000B783092900F0AF830A2900F0C0830B2944
:101480004FF000010CBF4FF400404FF40000F9E6AC
:101490009A4AA2FB03239B08FFF7FBBA974BA3FBD7
:1014A0000535AD08002D3FF4E7A9C6E46D08002D11
:1014B0003FF4E2A9C1E4924DBFE400295AD00129CA
:1014C00000F0AC80022900F0DB80032900F061818C
:1014D000042900F0A181052900F0EB81062900F024
:1014E00016820729E7D008295DD0092971D00A2979
:1014F00000F02D81834D844B0B2918BF1D469CE4C1
:10150000824BE7E5002E50D0012E00F0AF80022E76
:1015100000F03B81032E00F07A81042E00F0C78199
:10152000052E00F0FD81062E00F04D82072EE7D03B
:10153000082E48D0092E75D00A2E00F03181744B48
:10154000744A0B2E18BF1346C4E56F4BFFF7A1BAC0
:101550006A4BA3FB00308008FFF74ABB674BA3FB35
:1015600000308008FFF771BB6B4AA2FB0323DB0846
:10157000FFF78FBA644D60E4674BA3FB0535ED08B8
:10158000002D3FF479A958E4490814E6634BFFF7AE
:1015900080BA4FF48043FFF77CBA4008FFF728BBBE
:1015A0004008FFF752BB5D4D47E45A4B92E54FF4BC
:1015B000804542E48908FEE5594BFFF76ABA4FF4CB
:1015C0000053FFF766BA4E4B84E5400821E6400819
:1015D00051E5534D31E4534BFFF75BBA4FF40055DF
:1015E0002BE44D4BA3FB0030C008FFF72EBB4A4B4A
:1015F000A3FB0030C008FFF7FBBA404BA3FB01235D
:101600009908D8E541F25553FFF743BA464BFFF727
:1016100040BA3A4BA3FB0535AD080EE4414D0CE44E
:101620006D080AE43D4B55E54FF480405EE48008C8
:1016300021E58008EDE53D4BFFF72BBA41F255550A
:10164000FFF7FBBB384DFFF7F8BB314BFFF721BA73
:10165000C908B0E54FF48053FFF71BBA0C23B5FB64
:10166000F3F5002D3FF408A9FFF7E7BB264B31E562
:10167000224AA2FB0323DB08FFF70BBA52086AE5F4
:101680002A4DFFF7DABB626A002A00F0C280012A05
:1016900000F07981022A00F0B281032A00F0C381B0
:1016A000042A00F05E82052A00F05982062A00F022
:1016B0009E82072A00F09982082A00F09D82092A5A
:1016C00000F097820A2A00F083820B2A184A0E4BF8
:1016D0000EBF00210321134678083A4690E64FF4E6
:1016E0000000CFE51348CDE5044BA3FB0023980889
:1016F0008FE500BF00440258B0460108ABAAAAAA71
:1017000000093D0090D003000090D00300127A0041
:1017100020A107000020A107CDCCCCCC80841E00E6
:1017200040420F000048E8012A2C0A000024F4007F
:10173000000090D00000093DCF4BCBE442F6AA2038
:10174000FFF7D4BBCD4BA3FB0023980893E4CC4D0B
:10175000FFF773BBCB4BFFF79CB94FF48055FFF7F6
:101760006CBB1B09FFF795B90A23B1FBF3F122E526
:10177000C54BFFF78EB940F6CC43FFF78AB92D0968
:10178000002D3FF479A8FFF758BBC04BA2E49208A4
:10179000E1E4BC4DFFF751BB4008E7E5C00838E580
:1017A000BB4B97E44FF40050FFF7A0BBC00862E4C6
:1017B000B54DFFF742BBB74BFFF76BB940F6CC45D1
:1017C000FFF73BBB0C23B1FBF3F1F4E45B09FFF73C
:1017D00060B96D09002D3FF44FA8FFF72EBBA74B52
:1017E000A3FB0030C008FFF703BAAB4BFFF751B9BA
:1017F00040F6AA23FFF74DB9A04BA3FB0030C00869
:10180000FFF723BA9D4BA3FB02239A08A3E4A34B43
:1018100060E4A34B03215FE79E4DFFF70EBBA14B96
:1018200058E4ED08FFF709BB0A23B0FBF3F022E40C
:1018300041F69810FFF75ABB0A23B0FBF3F0E8E437
:10184000800893E5984BFFF724B940F6AA25FFF7E7
:10185000F4BA9B09FFF71DB90A22B3FBF2F3FFF7B5
:1018600018B98D4DFFF7E9BA0009FFF7C1B98F4BE1
:10187000FFF70FB9AD09002D3EF4FEAFFFF7DDBA5B
:101880008B480021FEE4090995E44FF40063FFF75B
:1018900000B94308AEE54FF480000021F2E40009EE
:1018A000FFF7D3B90A23B5FBF3F5FFF7C6BA814BAF
:1018B00010E47D4DFFF7C1BAD2084CE406220023A4
:1018C000EEF71AFF52E50C23B0FBF3F0A1E4774DDD
:1018D000FFF7B3BA4FF40065FFF7AFBA0C22B3FBC2
:1018E000F2F3FFF7D6B8490965E441F25450FFF727
:1018F000FDBA714BFFF7EEBB0C23B0FBF3F0FFF723
:10190000BABBDB09FFF7C5B86C4BFFF7C2B86B4D2C
:10191000FFF793BA4009FFF76BB9694BFFF7B9B806
:10192000684BFFF7D7BB4FF48063FFF7B2B883086B
:1019300060E50A23B2FBF3F20DE4ED09002D3EF45D
:101940009BAFFFF77ABA4009FFF77FB90C23B5FBCD
:10195000F3F5FFF772BA4FF40010002192E45A48F1
:1019600000218FE44008D1E44FF48065FFF765BAA9
:10197000534DFFF762BA4FF22443FFF78AB80009CC
:1019800047E4C008F2E4514B1146A5E64FF48050FD
:10199000FFF7ACBA3A4BFFF79DBB0009FFF76BBBF3
:1019A0008009FFF752B98009FFF722B9890902E4DB
:1019B0004FF40073FFF76DB84FF40075FFF73DBAB1
:1019C0003A4BFFF787BB2F4BFFF784BB4048002102
:1019D00058E480089AE44009FFF74DBB400918E439
:1019E0000A220023EEF788FEC0E42D09FFF725BA8E
:1019F0003848002146E44FF22445FFF71EBA364B23
:101A00006AE64FF40060FFF771BA00230622EEF792
:101A100073FE0346EEE40C23B2FBF3F2FFF79BBB2D
:101A20001209FFF798BB2D4B56E64FF48060FFF785
:101A30005DBA8009FFF71FBBC009FFF706B947F67B
:101A40001223FFF726B847F61225FFF7F6B96D09FE
:101A5000FFF7F3B92248002114E4194BFFF73ABB12
:101A6000C009FFF7C5B8C909FFF7A5BB0C220023C1
:101A7000EEF742FE7AE400BF54581400ABAAAAAABB
:101A800020A10700AAC2A200801A06000048E801AF
:101A900040420F0000127A001516050054854501DA
:101AA000000090D000350C0000A8610090D0030029
:101AB0000080841E0024F4002A2C0A005561510085
:101AC00048E801000050C3000040420F000048E811
:101AD000002A2C0A00551500000024F400AAC2A216
:101AE0000020A10706220023EEF706FE0EE4C3083D
:101AF00080E44FF48073FEF7CCBF4FF48075FFF79E
:101B00009CB98009FFF785BB4FF480100021FFF7D7
:101B1000B9BB53480021FFF7B5BB00230A22EEF7FB
:101B2000EBFD034666E4C009FFF773BB4FF40020EA
:101B30000021FFF7A7BB4B480021FFF7A3BB0A22F8
:101B40000023EEF7D9FDFFF7E1BB5209FFF703BB16
:101B5000C009FFF790BA4FF40070FFF7C7B9424BC6
:101B6000BAE5424BB8E590090021FFF7FFBB4009F9
:101B7000FFF7FCBB3E480021FFF784BB3D48002136
:101B8000FFF780BB030935E400230C22EEF7B4FD18
:101B900003462FE40009FFF7E9BBC008FFF7B6BB17
:101BA0004FF22443FFF796BAAD09FFF746B9324822
:101BB0000021FFF767BBED09FFF73FB9D209FFF737
:101BC000CABA9209FFF7C7BA2C480021FFF75ABBDF
:101BD0002B4B002180E54FF400300021FFF752BB72
:101BE0004FF480200021FFF74DBB264B74E5264BB8
:101BF00072E5264B00216FE5254B00216CE54FF483
:101C000080300021FFF73EBBD0090021FFF7AEBBBB
