Archive member included to satisfy reference by file (symbol)

../../libDaisy/build\libdaisy.a(daisy_seed.o)
                              build/main.o (daisy::DaisySeed::StartAudio(void (*)(float const*, float*, unsigned int)))
../../libDaisy/build\libdaisy.a(codec_ak4556.o)
                              ../../libDaisy/build\libdaisy.a(daisy_seed.o) (daisy::Ak4556::Init(dsy_gpio_pin))
../../libDaisy/build\libdaisy.a(codec_wm8731.o)
                              ../../libDaisy/build\libdaisy.a(daisy_seed.o) (daisy::Wm8731::Init(daisy::Wm8731::Config const&, daisy::I2CHandle))
../../libDaisy/build\libdaisy.a(sdram.o)
                              ../../libDaisy/build\libdaisy.a(daisy_seed.o) (SdramHandle::Init())
../../libDaisy/build\libdaisy.a(audio.o)
                              ../../libDaisy/build\libdaisy.a(daisy_seed.o) (daisy::AudioHandle::Init(daisy::AudioHandle::Config const&, daisy::SaiHandle))
../../libDaisy/build\libdaisy.a(usb_midi.o)
                              build/main.o (daisy::MidiUsbTransport::Init(daisy::MidiUsbTransport::Config))
../../libDaisy/build\libdaisy.a(gpio.o)
                              ../../libDaisy/build\libdaisy.a(daisy_seed.o) (dsy_gpio_init)
../../libDaisy/build\libdaisy.a(i2c.o)
                              ../../libDaisy/build\libdaisy.a(daisy_seed.o) (daisy::I2CHandle::Init(daisy::I2CHandle::Config const&))
../../libDaisy/build\libdaisy.a(qspi.o)
                              build/main.o (daisy::QSPIHandle::Init(daisy::QSPIHandle::Config const&))
../../libDaisy/build\libdaisy.a(sai.o)
                              ../../libDaisy/build\libdaisy.a(daisy_seed.o) (daisy::SaiHandle::Init(daisy::SaiHandle::Config const&))
../../libDaisy/build\libdaisy.a(tim.o)
                              build/main.o (daisy::TimerHandle::Init(daisy::TimerHandle::Config const&))
../../libDaisy/build\libdaisy.a(system.o)
                              ../../libDaisy/build\libdaisy.a(daisy_seed.o) (daisy::System::DeInit())
../../libDaisy/build\libdaisy.a(system_stm32h7xx.o)
                              build/startup_stm32h750xx.o (SystemInit)
../../libDaisy/build\libdaisy.a(usbd_conf.o)
                              ../../libDaisy/build\libdaisy.a(system.o) (hpcd_USB_OTG_HS)
../../libDaisy/build\libdaisy.a(usbh_conf.o)
                              ../../libDaisy/build\libdaisy.a(system.o) (hhcd_USB_OTG_HS)
../../libDaisy/build\libdaisy.a(hal_map.o)
                              ../../libDaisy/build\libdaisy.a(gpio.o) (dsy_hal_map_get_port)
../../libDaisy/build\libdaisy.a(stm32h7xx_hal.o)
                              ../../libDaisy/build\libdaisy.a(system.o) (HAL_Init)
../../libDaisy/build\libdaisy.a(stm32h7xx_hal_cortex.o)
                              ../../libDaisy/build\libdaisy.a(stm32h7xx_hal.o) (HAL_NVIC_SetPriorityGrouping)
../../libDaisy/build\libdaisy.a(stm32h7xx_hal_dma.o)
                              ../../libDaisy/build\libdaisy.a(i2c.o) (HAL_DMA_Init)
../../libDaisy/build\libdaisy.a(stm32h7xx_hal_gpio.o)
                              ../../libDaisy/build\libdaisy.a(sdram.o) (HAL_GPIO_Init)
../../libDaisy/build\libdaisy.a(stm32h7xx_hal_hcd.o)
                              ../../libDaisy/build\libdaisy.a(usbh_conf.o) (HAL_HCD_HC_Init)
../../libDaisy/build\libdaisy.a(stm32h7xx_hal_i2c.o)
                              ../../libDaisy/build\libdaisy.a(i2c.o) (HAL_I2C_Init)
../../libDaisy/build\libdaisy.a(stm32h7xx_hal_i2c_ex.o)
                              ../../libDaisy/build\libdaisy.a(i2c.o) (HAL_I2CEx_ConfigAnalogFilter)
../../libDaisy/build\libdaisy.a(stm32h7xx_hal_pcd.o)
                              ../../libDaisy/build\libdaisy.a(usbd_conf.o) (HAL_PCD_Init)
../../libDaisy/build\libdaisy.a(stm32h7xx_hal_pcd_ex.o)
                              ../../libDaisy/build\libdaisy.a(usbd_conf.o) (HAL_PCDEx_SetTxFiFo)
../../libDaisy/build\libdaisy.a(stm32h7xx_hal_pwr_ex.o)
                              ../../libDaisy/build\libdaisy.a(system.o) (HAL_PWREx_ConfigSupply)
../../libDaisy/build\libdaisy.a(stm32h7xx_hal_qspi.o)
                              ../../libDaisy/build\libdaisy.a(qspi.o) (HAL_QSPI_Init)
../../libDaisy/build\libdaisy.a(stm32h7xx_hal_rcc.o)
                              ../../libDaisy/build\libdaisy.a(system.o) (HAL_RCC_OscConfig)
../../libDaisy/build\libdaisy.a(stm32h7xx_hal_rcc_ex.o)
                              ../../libDaisy/build\libdaisy.a(system.o) (HAL_RCCEx_PeriphCLKConfig)
../../libDaisy/build\libdaisy.a(stm32h7xx_hal_sai.o)
                              ../../libDaisy/build\libdaisy.a(sai.o) (HAL_SAI_InitProtocol)
../../libDaisy/build\libdaisy.a(stm32h7xx_hal_sdram.o)
                              ../../libDaisy/build\libdaisy.a(sdram.o) (HAL_SDRAM_Init)
../../libDaisy/build\libdaisy.a(stm32h7xx_hal_tim.o)
                              ../../libDaisy/build\libdaisy.a(tim.o) (HAL_TIM_Base_Init)
../../libDaisy/build\libdaisy.a(stm32h7xx_hal_tim_ex.o)
                              ../../libDaisy/build\libdaisy.a(stm32h7xx_hal_tim.o) (TIMEx_DMACommutationCplt)
../../libDaisy/build\libdaisy.a(stm32h7xx_ll_fmc.o)
                              ../../libDaisy/build\libdaisy.a(stm32h7xx_hal_sdram.o) (FMC_SDRAM_Init)
../../libDaisy/build\libdaisy.a(stm32h7xx_ll_usb.o)
                              ../../libDaisy/build\libdaisy.a(stm32h7xx_hal_hcd.o) (USB_CoreInit)
../../libDaisy/build\libdaisy.a(usbd_core.o)
                              ../../libDaisy/build\libdaisy.a(usbd_conf.o) (USBD_LL_SetupStage)
../../libDaisy/build\libdaisy.a(usbd_ctlreq.o)
                              ../../libDaisy/build\libdaisy.a(usbd_core.o) (USBD_StdDevReq)
../../libDaisy/build\libdaisy.a(usbd_ioreq.o)
                              ../../libDaisy/build\libdaisy.a(usbd_ctlreq.o) (USBD_CtlSendData)
../../libDaisy/build\libdaisy.a(usbh_core.o)
                              ../../libDaisy/build\libdaisy.a(usbh_conf.o) (USBH_LL_SetTimer)
../../libDaisy/build\libdaisy.a(usbh_ctlreq.o)
                              ../../libDaisy/build\libdaisy.a(usbh_core.o) (USBH_Get_DevDesc)
../../libDaisy/build\libdaisy.a(usbh_ioreq.o)
                              ../../libDaisy/build\libdaisy.a(usbh_ctlreq.o) (USBH_CtlSendSetup)
../../libDaisy/build\libdaisy.a(usbh_pipes.o)
                              ../../libDaisy/build\libdaisy.a(usbh_core.o) (USBH_OpenPipe)
../../libDaisy/build\libdaisy.a(usb.o)
                              ../../libDaisy/build\libdaisy.a(usb_midi.o) (daisy::UsbHandle::Init(daisy::UsbHandle::UsbPeriph))
../../libDaisy/build\libdaisy.a(rng.o)
                              ../../libDaisy/build\libdaisy.a(system.o) (daisy::Random::Init())
../../libDaisy/build\libdaisy.a(spi.o)
                              ../../libDaisy/build\libdaisy.a(system.o) (dsy_spi_global_init)
../../libDaisy/build\libdaisy.a(uart.o)
                              ../../libDaisy/build\libdaisy.a(system.o) (dsy_uart_global_init)
../../libDaisy/build\libdaisy.a(dma.o)
                              ../../libDaisy/build\libdaisy.a(system.o) (dsy_dma_init)
../../libDaisy/build\libdaisy.a(usbd_cdc_if.o)
                              ../../libDaisy/build\libdaisy.a(usb.o) (CDC_Transmit_FS)
../../libDaisy/build\libdaisy.a(usbd_desc.o)
                              ../../libDaisy/build\libdaisy.a(usb.o) (HS_Desc)
../../libDaisy/build\libdaisy.a(stm32h7xx_hal_mdma.o)
                              ../../libDaisy/build\libdaisy.a(stm32h7xx_hal_qspi.o) (HAL_MDMA_Start_IT)
../../libDaisy/build\libdaisy.a(stm32h7xx_hal_pwr.o)
                              ../../libDaisy/build\libdaisy.a(stm32h7xx_hal_pwr_ex.o) (HAL_PWR_PVDCallback)
../../libDaisy/build\libdaisy.a(stm32h7xx_hal_spi.o)
                              ../../libDaisy/build\libdaisy.a(spi.o) (HAL_SPI_Init)
../../libDaisy/build\libdaisy.a(stm32h7xx_hal_uart.o)
                              ../../libDaisy/build\libdaisy.a(uart.o) (HAL_UART_Transmit)
../../libDaisy/build\libdaisy.a(stm32h7xx_hal_uart_ex.o)
                              ../../libDaisy/build\libdaisy.a(stm32h7xx_hal_uart.o) (HAL_UARTEx_WakeupCallback)
../../libDaisy/build\libdaisy.a(usbd_cdc.o)
                              ../../libDaisy/build\libdaisy.a(usb.o) (USBD_CDC_RegisterInterface)
../../DaisySP/build\libdaisysp.a(adsr.o)
                              build/vasynth.o (daisysp::Adsr::Init(float, int))
../../DaisySP/build\libdaisysp.a(moogladder.o)
                              build/vasynth.o (infrasonic::MoogLadder::Init(float))
../../DaisySP/build\libdaisysp.a(oscillator.o)
                              build/vasynth.o (daisysp::Oscillator::Process())
c:/program files/daisytoolchain/bin/../lib/gcc/arm-none-eabi/10.2.1/../../../../arm-none-eabi/lib/thumb/v7e-m+dp/hard\libstdc++_nano.a(atexit_arm.o)
                              build/main.o (__aeabi_atexit)
c:/program files/daisytoolchain/bin/../lib/gcc/arm-none-eabi/10.2.1/../../../../arm-none-eabi/lib/thumb/v7e-m+dp/hard\libm.a(lib_a-sf_exp.o)
                              ../../DaisySP/build\libdaisysp.a(adsr.o) (expf)
c:/program files/daisytoolchain/bin/../lib/gcc/arm-none-eabi/10.2.1/../../../../arm-none-eabi/lib/thumb/v7e-m+dp/hard\libm.a(lib_a-sf_exp2_data.o)
                              c:/program files/daisytoolchain/bin/../lib/gcc/arm-none-eabi/10.2.1/../../../../arm-none-eabi/lib/thumb/v7e-m+dp/hard\libm.a(lib_a-sf_exp.o) (__exp2f_data)
c:/program files/daisytoolchain/bin/../lib/gcc/arm-none-eabi/10.2.1/../../../../arm-none-eabi/lib/thumb/v7e-m+dp/hard\libm.a(lib_a-sf_log.o)
                              ../../DaisySP/build\libdaisysp.a(adsr.o) (logf)
c:/program files/daisytoolchain/bin/../lib/gcc/arm-none-eabi/10.2.1/../../../../arm-none-eabi/lib/thumb/v7e-m+dp/hard\libm.a(lib_a-sf_log_data.o)
                              c:/program files/daisytoolchain/bin/../lib/gcc/arm-none-eabi/10.2.1/../../../../arm-none-eabi/lib/thumb/v7e-m+dp/hard\libm.a(lib_a-sf_log.o) (__logf_data)
c:/program files/daisytoolchain/bin/../lib/gcc/arm-none-eabi/10.2.1/../../../../arm-none-eabi/lib/thumb/v7e-m+dp/hard\libm.a(lib_a-sf_pow.o)
                              build/vasynth.o (powf)
c:/program files/daisytoolchain/bin/../lib/gcc/arm-none-eabi/10.2.1/../../../../arm-none-eabi/lib/thumb/v7e-m+dp/hard\libm.a(lib_a-sf_pow_log2_data.o)
                              c:/program files/daisytoolchain/bin/../lib/gcc/arm-none-eabi/10.2.1/../../../../arm-none-eabi/lib/thumb/v7e-m+dp/hard\libm.a(lib_a-sf_pow.o) (__powf_log2_data)
c:/program files/daisytoolchain/bin/../lib/gcc/arm-none-eabi/10.2.1/../../../../arm-none-eabi/lib/thumb/v7e-m+dp/hard\libm.a(lib_a-sinf.o)
                              ../../DaisySP/build\libdaisysp.a(oscillator.o) (sinf)
c:/program files/daisytoolchain/bin/../lib/gcc/arm-none-eabi/10.2.1/../../../../arm-none-eabi/lib/thumb/v7e-m+dp/hard\libm.a(lib_a-wf_fmod.o)
                              ../../DaisySP/build\libdaisysp.a(oscillator.o) (fmodf)
c:/program files/daisytoolchain/bin/../lib/gcc/arm-none-eabi/10.2.1/../../../../arm-none-eabi/lib/thumb/v7e-m+dp/hard\libm.a(lib_a-ef_fmod.o)
                              c:/program files/daisytoolchain/bin/../lib/gcc/arm-none-eabi/10.2.1/../../../../arm-none-eabi/lib/thumb/v7e-m+dp/hard\libm.a(lib_a-wf_fmod.o) (__ieee754_fmodf)
c:/program files/daisytoolchain/bin/../lib/gcc/arm-none-eabi/10.2.1/../../../../arm-none-eabi/lib/thumb/v7e-m+dp/hard\libm.a(lib_a-math_errf.o)
                              c:/program files/daisytoolchain/bin/../lib/gcc/arm-none-eabi/10.2.1/../../../../arm-none-eabi/lib/thumb/v7e-m+dp/hard\libm.a(lib_a-sf_exp.o) (__math_uflowf)
c:/program files/daisytoolchain/bin/../lib/gcc/arm-none-eabi/10.2.1/../../../../arm-none-eabi/lib/thumb/v7e-m+dp/hard\libm.a(lib_a-s_lib_ver.o)
                              c:/program files/daisytoolchain/bin/../lib/gcc/arm-none-eabi/10.2.1/../../../../arm-none-eabi/lib/thumb/v7e-m+dp/hard\libm.a(lib_a-wf_fmod.o) (__fdlib_version)
c:/program files/daisytoolchain/bin/../lib/gcc/arm-none-eabi/10.2.1/../../../../arm-none-eabi/lib/thumb/v7e-m+dp/hard\libm.a(lib_a-sincosf_data.o)
                              c:/program files/daisytoolchain/bin/../lib/gcc/arm-none-eabi/10.2.1/../../../../arm-none-eabi/lib/thumb/v7e-m+dp/hard\libm.a(lib_a-sinf.o) (__inv_pio4)
c:/program files/daisytoolchain/bin/../lib/gcc/arm-none-eabi/10.2.1/../../../../arm-none-eabi/lib/thumb/v7e-m+dp/hard\libc_nano.a(lib_a-calloc.o)
                              ../../libDaisy/build\libdaisy.a(usbd_cdc.o) (calloc)
c:/program files/daisytoolchain/bin/../lib/gcc/arm-none-eabi/10.2.1/../../../../arm-none-eabi/lib/thumb/v7e-m+dp/hard\libc_nano.a(lib_a-cxa_atexit.o)
                              c:/program files/daisytoolchain/bin/../lib/gcc/arm-none-eabi/10.2.1/../../../../arm-none-eabi/lib/thumb/v7e-m+dp/hard\libstdc++_nano.a(atexit_arm.o) (__cxa_atexit)
c:/program files/daisytoolchain/bin/../lib/gcc/arm-none-eabi/10.2.1/../../../../arm-none-eabi/lib/thumb/v7e-m+dp/hard\libc_nano.a(lib_a-errno.o)
                              c:/program files/daisytoolchain/bin/../lib/gcc/arm-none-eabi/10.2.1/../../../../arm-none-eabi/lib/thumb/v7e-m+dp/hard\libm.a(lib_a-wf_fmod.o) (__errno)
c:/program files/daisytoolchain/bin/../lib/gcc/arm-none-eabi/10.2.1/../../../../arm-none-eabi/lib/thumb/v7e-m+dp/hard\libc_nano.a(lib_a-exit.o)
                              c:/program files/daisytoolchain/bin/../lib/gcc/arm-none-eabi/10.2.1/../../../../arm-none-eabi/lib/thumb/v7e-m+dp/hard/crt0.o (exit)
c:/program files/daisytoolchain/bin/../lib/gcc/arm-none-eabi/10.2.1/../../../../arm-none-eabi/lib/thumb/v7e-m+dp/hard\libc_nano.a(lib_a-impure.o)
                              c:/program files/daisytoolchain/bin/../lib/gcc/arm-none-eabi/10.2.1/../../../../arm-none-eabi/lib/thumb/v7e-m+dp/hard\libc_nano.a(lib_a-exit.o) (_global_impure_ptr)
c:/program files/daisytoolchain/bin/../lib/gcc/arm-none-eabi/10.2.1/../../../../arm-none-eabi/lib/thumb/v7e-m+dp/hard\libc_nano.a(lib_a-init.o)
                              c:/program files/daisytoolchain/bin/../lib/gcc/arm-none-eabi/10.2.1/../../../../arm-none-eabi/lib/thumb/v7e-m+dp/hard/crt0.o (__libc_init_array)
c:/program files/daisytoolchain/bin/../lib/gcc/arm-none-eabi/10.2.1/../../../../arm-none-eabi/lib/thumb/v7e-m+dp/hard\libc_nano.a(lib_a-malloc.o)
                              ../../libDaisy/build\libdaisy.a(usbd_cdc.o) (free)
c:/program files/daisytoolchain/bin/../lib/gcc/arm-none-eabi/10.2.1/../../../../arm-none-eabi/lib/thumb/v7e-m+dp/hard\libc_nano.a(lib_a-memcpy-stub.o)
                              build/startup_stm32h750xx.o (memcpy)
c:/program files/daisytoolchain/bin/../lib/gcc/arm-none-eabi/10.2.1/../../../../arm-none-eabi/lib/thumb/v7e-m+dp/hard\libc_nano.a(lib_a-memset.o)
                              c:/program files/daisytoolchain/bin/../lib/gcc/arm-none-eabi/10.2.1/../../../../arm-none-eabi/lib/thumb/v7e-m+dp/hard/crt0.o (memset)
c:/program files/daisytoolchain/bin/../lib/gcc/arm-none-eabi/10.2.1/../../../../arm-none-eabi/lib/thumb/v7e-m+dp/hard\libc_nano.a(lib_a-nano-callocr.o)
                              c:/program files/daisytoolchain/bin/../lib/gcc/arm-none-eabi/10.2.1/../../../../arm-none-eabi/lib/thumb/v7e-m+dp/hard\libc_nano.a(lib_a-calloc.o) (_calloc_r)
c:/program files/daisytoolchain/bin/../lib/gcc/arm-none-eabi/10.2.1/../../../../arm-none-eabi/lib/thumb/v7e-m+dp/hard\libc_nano.a(lib_a-nano-freer.o)
                              c:/program files/daisytoolchain/bin/../lib/gcc/arm-none-eabi/10.2.1/../../../../arm-none-eabi/lib/thumb/v7e-m+dp/hard\libc_nano.a(lib_a-malloc.o) (_free_r)
c:/program files/daisytoolchain/bin/../lib/gcc/arm-none-eabi/10.2.1/../../../../arm-none-eabi/lib/thumb/v7e-m+dp/hard\libc_nano.a(lib_a-nano-mallocr.o)
                              c:/program files/daisytoolchain/bin/../lib/gcc/arm-none-eabi/10.2.1/../../../../arm-none-eabi/lib/thumb/v7e-m+dp/hard\libc_nano.a(lib_a-malloc.o) (_malloc_r)
c:/program files/daisytoolchain/bin/../lib/gcc/arm-none-eabi/10.2.1/../../../../arm-none-eabi/lib/thumb/v7e-m+dp/hard\libc_nano.a(lib_a-on_exit_args.o)
                              c:/program files/daisytoolchain/bin/../lib/gcc/arm-none-eabi/10.2.1/../../../../arm-none-eabi/lib/thumb/v7e-m+dp/hard\libc_nano.a(lib_a-cxa_atexit.o) (__on_exit_args)
c:/program files/daisytoolchain/bin/../lib/gcc/arm-none-eabi/10.2.1/../../../../arm-none-eabi/lib/thumb/v7e-m+dp/hard\libc_nano.a(lib_a-printf.o)
                              ../../libDaisy/build\libdaisy.a(usbd_core.o) (printf)
c:/program files/daisytoolchain/bin/../lib/gcc/arm-none-eabi/10.2.1/../../../../arm-none-eabi/lib/thumb/v7e-m+dp/hard\libc_nano.a(lib_a-putchar.o)
                              ../../libDaisy/build\libdaisy.a(usbd_core.o) (putchar)
c:/program files/daisytoolchain/bin/../lib/gcc/arm-none-eabi/10.2.1/../../../../arm-none-eabi/lib/thumb/v7e-m+dp/hard\libc_nano.a(lib_a-sbrkr.o)
                              c:/program files/daisytoolchain/bin/../lib/gcc/arm-none-eabi/10.2.1/../../../../arm-none-eabi/lib/thumb/v7e-m+dp/hard\libc_nano.a(lib_a-nano-mallocr.o) (_sbrk_r)
c:/program files/daisytoolchain/bin/../lib/gcc/arm-none-eabi/10.2.1/../../../../arm-none-eabi/lib/thumb/v7e-m+dp/hard\libc_nano.a(lib_a-findfp.o)
                              c:/program files/daisytoolchain/bin/../lib/gcc/arm-none-eabi/10.2.1/../../../../arm-none-eabi/lib/thumb/v7e-m+dp/hard\libc_nano.a(lib_a-printf.o) (__sinit)
c:/program files/daisytoolchain/bin/../lib/gcc/arm-none-eabi/10.2.1/../../../../arm-none-eabi/lib/thumb/v7e-m+dp/hard\libc_nano.a(lib_a-fwalk.o)
                              c:/program files/daisytoolchain/bin/../lib/gcc/arm-none-eabi/10.2.1/../../../../arm-none-eabi/lib/thumb/v7e-m+dp/hard\libc_nano.a(lib_a-findfp.o) (_fwalk)
c:/program files/daisytoolchain/bin/../lib/gcc/arm-none-eabi/10.2.1/../../../../arm-none-eabi/lib/thumb/v7e-m+dp/hard\libc_nano.a(lib_a-lock.o)
                              c:/program files/daisytoolchain/bin/../lib/gcc/arm-none-eabi/10.2.1/../../../../arm-none-eabi/lib/thumb/v7e-m+dp/hard\libc_nano.a(lib_a-findfp.o) (__retarget_lock_init_recursive)
c:/program files/daisytoolchain/bin/../lib/gcc/arm-none-eabi/10.2.1/../../../../arm-none-eabi/lib/thumb/v7e-m+dp/hard\libc_nano.a(lib_a-mlock.o)
                              c:/program files/daisytoolchain/bin/../lib/gcc/arm-none-eabi/10.2.1/../../../../arm-none-eabi/lib/thumb/v7e-m+dp/hard\libc_nano.a(lib_a-nano-freer.o) (__malloc_lock)
c:/program files/daisytoolchain/bin/../lib/gcc/arm-none-eabi/10.2.1/../../../../arm-none-eabi/lib/thumb/v7e-m+dp/hard\libc_nano.a(lib_a-nano-vfprintf.o)
                              c:/program files/daisytoolchain/bin/../lib/gcc/arm-none-eabi/10.2.1/../../../../arm-none-eabi/lib/thumb/v7e-m+dp/hard\libc_nano.a(lib_a-printf.o) (_vfprintf_r)
c:/program files/daisytoolchain/bin/../lib/gcc/arm-none-eabi/10.2.1/../../../../arm-none-eabi/lib/thumb/v7e-m+dp/hard\libc_nano.a(lib_a-nano-vfprintf_i.o)
                              c:/program files/daisytoolchain/bin/../lib/gcc/arm-none-eabi/10.2.1/../../../../arm-none-eabi/lib/thumb/v7e-m+dp/hard\libc_nano.a(lib_a-nano-vfprintf.o) (_printf_i)
c:/program files/daisytoolchain/bin/../lib/gcc/arm-none-eabi/10.2.1/../../../../arm-none-eabi/lib/thumb/v7e-m+dp/hard\libc_nano.a(lib_a-putc.o)
                              c:/program files/daisytoolchain/bin/../lib/gcc/arm-none-eabi/10.2.1/../../../../arm-none-eabi/lib/thumb/v7e-m+dp/hard\libc_nano.a(lib_a-putchar.o) (_putc_r)
c:/program files/daisytoolchain/bin/../lib/gcc/arm-none-eabi/10.2.1/../../../../arm-none-eabi/lib/thumb/v7e-m+dp/hard\libc_nano.a(lib_a-reent.o)
                              c:/program files/daisytoolchain/bin/../lib/gcc/arm-none-eabi/10.2.1/../../../../arm-none-eabi/lib/thumb/v7e-m+dp/hard\libc_nano.a(lib_a-sbrkr.o) (errno)
c:/program files/daisytoolchain/bin/../lib/gcc/arm-none-eabi/10.2.1/../../../../arm-none-eabi/lib/thumb/v7e-m+dp/hard\libc_nano.a(lib_a-stdio.o)
                              c:/program files/daisytoolchain/bin/../lib/gcc/arm-none-eabi/10.2.1/../../../../arm-none-eabi/lib/thumb/v7e-m+dp/hard\libc_nano.a(lib_a-findfp.o) (__sread)
c:/program files/daisytoolchain/bin/../lib/gcc/arm-none-eabi/10.2.1/../../../../arm-none-eabi/lib/thumb/v7e-m+dp/hard\libc_nano.a(lib_a-wbuf.o)
                              c:/program files/daisytoolchain/bin/../lib/gcc/arm-none-eabi/10.2.1/../../../../arm-none-eabi/lib/thumb/v7e-m+dp/hard\libc_nano.a(lib_a-nano-vfprintf.o) (__swbuf_r)
c:/program files/daisytoolchain/bin/../lib/gcc/arm-none-eabi/10.2.1/../../../../arm-none-eabi/lib/thumb/v7e-m+dp/hard\libc_nano.a(lib_a-writer.o)
                              c:/program files/daisytoolchain/bin/../lib/gcc/arm-none-eabi/10.2.1/../../../../arm-none-eabi/lib/thumb/v7e-m+dp/hard\libc_nano.a(lib_a-stdio.o) (_write_r)
c:/program files/daisytoolchain/bin/../lib/gcc/arm-none-eabi/10.2.1/../../../../arm-none-eabi/lib/thumb/v7e-m+dp/hard\libc_nano.a(lib_a-wsetup.o)
                              c:/program files/daisytoolchain/bin/../lib/gcc/arm-none-eabi/10.2.1/../../../../arm-none-eabi/lib/thumb/v7e-m+dp/hard\libc_nano.a(lib_a-nano-vfprintf.o) (__swsetup_r)
c:/program files/daisytoolchain/bin/../lib/gcc/arm-none-eabi/10.2.1/../../../../arm-none-eabi/lib/thumb/v7e-m+dp/hard\libc_nano.a(lib_a-closer.o)
                              c:/program files/daisytoolchain/bin/../lib/gcc/arm-none-eabi/10.2.1/../../../../arm-none-eabi/lib/thumb/v7e-m+dp/hard\libc_nano.a(lib_a-stdio.o) (_close_r)
c:/program files/daisytoolchain/bin/../lib/gcc/arm-none-eabi/10.2.1/../../../../arm-none-eabi/lib/thumb/v7e-m+dp/hard\libc_nano.a(lib_a-fflush.o)
                              c:/program files/daisytoolchain/bin/../lib/gcc/arm-none-eabi/10.2.1/../../../../arm-none-eabi/lib/thumb/v7e-m+dp/hard\libc_nano.a(lib_a-findfp.o) (_fflush_r)
c:/program files/daisytoolchain/bin/../lib/gcc/arm-none-eabi/10.2.1/../../../../arm-none-eabi/lib/thumb/v7e-m+dp/hard\libc_nano.a(lib_a-fvwrite.o)
                              c:/program files/daisytoolchain/bin/../lib/gcc/arm-none-eabi/10.2.1/../../../../arm-none-eabi/lib/thumb/v7e-m+dp/hard\libc_nano.a(lib_a-nano-vfprintf.o) (__sfvwrite_r)
c:/program files/daisytoolchain/bin/../lib/gcc/arm-none-eabi/10.2.1/../../../../arm-none-eabi/lib/thumb/v7e-m+dp/hard\libc_nano.a(lib_a-lseekr.o)
                              c:/program files/daisytoolchain/bin/../lib/gcc/arm-none-eabi/10.2.1/../../../../arm-none-eabi/lib/thumb/v7e-m+dp/hard\libc_nano.a(lib_a-stdio.o) (_lseek_r)
c:/program files/daisytoolchain/bin/../lib/gcc/arm-none-eabi/10.2.1/../../../../arm-none-eabi/lib/thumb/v7e-m+dp/hard\libc_nano.a(lib_a-makebuf.o)
                              c:/program files/daisytoolchain/bin/../lib/gcc/arm-none-eabi/10.2.1/../../../../arm-none-eabi/lib/thumb/v7e-m+dp/hard\libc_nano.a(lib_a-wsetup.o) (__smakebuf_r)
c:/program files/daisytoolchain/bin/../lib/gcc/arm-none-eabi/10.2.1/../../../../arm-none-eabi/lib/thumb/v7e-m+dp/hard\libc_nano.a(lib_a-memchr.o)
                              c:/program files/daisytoolchain/bin/../lib/gcc/arm-none-eabi/10.2.1/../../../../arm-none-eabi/lib/thumb/v7e-m+dp/hard\libc_nano.a(lib_a-nano-vfprintf.o) (memchr)
c:/program files/daisytoolchain/bin/../lib/gcc/arm-none-eabi/10.2.1/../../../../arm-none-eabi/lib/thumb/v7e-m+dp/hard\libc_nano.a(lib_a-memmove.o)
                              c:/program files/daisytoolchain/bin/../lib/gcc/arm-none-eabi/10.2.1/../../../../arm-none-eabi/lib/thumb/v7e-m+dp/hard\libc_nano.a(lib_a-fvwrite.o) (memmove)
c:/program files/daisytoolchain/bin/../lib/gcc/arm-none-eabi/10.2.1/../../../../arm-none-eabi/lib/thumb/v7e-m+dp/hard\libc_nano.a(lib_a-nano-reallocr.o)
                              c:/program files/daisytoolchain/bin/../lib/gcc/arm-none-eabi/10.2.1/../../../../arm-none-eabi/lib/thumb/v7e-m+dp/hard\libc_nano.a(lib_a-fvwrite.o) (_realloc_r)
c:/program files/daisytoolchain/bin/../lib/gcc/arm-none-eabi/10.2.1/../../../../arm-none-eabi/lib/thumb/v7e-m+dp/hard\libc_nano.a(lib_a-readr.o)
                              c:/program files/daisytoolchain/bin/../lib/gcc/arm-none-eabi/10.2.1/../../../../arm-none-eabi/lib/thumb/v7e-m+dp/hard\libc_nano.a(lib_a-stdio.o) (_read_r)
c:/program files/daisytoolchain/bin/../lib/gcc/arm-none-eabi/10.2.1/../../../../arm-none-eabi/lib/thumb/v7e-m+dp/hard\libc_nano.a(lib_a-fstatr.o)
                              c:/program files/daisytoolchain/bin/../lib/gcc/arm-none-eabi/10.2.1/../../../../arm-none-eabi/lib/thumb/v7e-m+dp/hard\libc_nano.a(lib_a-makebuf.o) (_fstat_r)
c:/program files/daisytoolchain/bin/../lib/gcc/arm-none-eabi/10.2.1/../../../../arm-none-eabi/lib/thumb/v7e-m+dp/hard\libc_nano.a(lib_a-isattyr.o)
                              c:/program files/daisytoolchain/bin/../lib/gcc/arm-none-eabi/10.2.1/../../../../arm-none-eabi/lib/thumb/v7e-m+dp/hard\libc_nano.a(lib_a-makebuf.o) (_isatty_r)
c:/program files/daisytoolchain/bin/../lib/gcc/arm-none-eabi/10.2.1/../../../../arm-none-eabi/lib/thumb/v7e-m+dp/hard\libc_nano.a(lib_a-nano-msizer.o)
                              c:/program files/daisytoolchain/bin/../lib/gcc/arm-none-eabi/10.2.1/../../../../arm-none-eabi/lib/thumb/v7e-m+dp/hard\libc_nano.a(lib_a-nano-reallocr.o) (_malloc_usable_size_r)
c:/program files/daisytoolchain/bin/../lib/gcc/arm-none-eabi/10.2.1/thumb/v7e-m+dp/hard\libgcc.a(_arm_addsubdf3.o)
                              c:/program files/daisytoolchain/bin/../lib/gcc/arm-none-eabi/10.2.1/../../../../arm-none-eabi/lib/thumb/v7e-m+dp/hard\libm.a(lib_a-sinf.o) (__aeabi_l2d)
c:/program files/daisytoolchain/bin/../lib/gcc/arm-none-eabi/10.2.1/thumb/v7e-m+dp/hard\libgcc.a(_aeabi_ldivmod.o)
                              ../../libDaisy/build\libdaisy.a(stm32h7xx_hal_uart.o) (__aeabi_ldivmod)
c:/program files/daisytoolchain/bin/../lib/gcc/arm-none-eabi/10.2.1/thumb/v7e-m+dp/hard\libgcc.a(_aeabi_uldivmod.o)
                              ../../libDaisy/build\libdaisy.a(stm32h7xx_hal_uart.o) (__aeabi_uldivmod)
c:/program files/daisytoolchain/bin/../lib/gcc/arm-none-eabi/10.2.1/thumb/v7e-m+dp/hard\libgcc.a(_udivmoddi4.o)
                              c:/program files/daisytoolchain/bin/../lib/gcc/arm-none-eabi/10.2.1/thumb/v7e-m+dp/hard\libgcc.a(_aeabi_ldivmod.o) (__udivmoddi4)
c:/program files/daisytoolchain/bin/../lib/gcc/arm-none-eabi/10.2.1/thumb/v7e-m+dp/hard\libgcc.a(_dvmd_tls.o)
                              c:/program files/daisytoolchain/bin/../lib/gcc/arm-none-eabi/10.2.1/thumb/v7e-m+dp/hard\libgcc.a(_aeabi_ldivmod.o) (__aeabi_ldiv0)
c:/program files/daisytoolchain/bin/../lib/gcc/arm-none-eabi/10.2.1/../../../../arm-none-eabi/lib/thumb/v7e-m+dp/hard\libnosys.a(close.o)
                              c:/program files/daisytoolchain/bin/../lib/gcc/arm-none-eabi/10.2.1/../../../../arm-none-eabi/lib/thumb/v7e-m+dp/hard\libc_nano.a(lib_a-closer.o) (_close)
c:/program files/daisytoolchain/bin/../lib/gcc/arm-none-eabi/10.2.1/../../../../arm-none-eabi/lib/thumb/v7e-m+dp/hard\libnosys.a(fstat.o)
                              c:/program files/daisytoolchain/bin/../lib/gcc/arm-none-eabi/10.2.1/../../../../arm-none-eabi/lib/thumb/v7e-m+dp/hard\libc_nano.a(lib_a-fstatr.o) (_fstat)
c:/program files/daisytoolchain/bin/../lib/gcc/arm-none-eabi/10.2.1/../../../../arm-none-eabi/lib/thumb/v7e-m+dp/hard\libnosys.a(isatty.o)
                              c:/program files/daisytoolchain/bin/../lib/gcc/arm-none-eabi/10.2.1/../../../../arm-none-eabi/lib/thumb/v7e-m+dp/hard\libc_nano.a(lib_a-isattyr.o) (_isatty)
c:/program files/daisytoolchain/bin/../lib/gcc/arm-none-eabi/10.2.1/../../../../arm-none-eabi/lib/thumb/v7e-m+dp/hard\libnosys.a(lseek.o)
                              c:/program files/daisytoolchain/bin/../lib/gcc/arm-none-eabi/10.2.1/../../../../arm-none-eabi/lib/thumb/v7e-m+dp/hard\libc_nano.a(lib_a-lseekr.o) (_lseek)
c:/program files/daisytoolchain/bin/../lib/gcc/arm-none-eabi/10.2.1/../../../../arm-none-eabi/lib/thumb/v7e-m+dp/hard\libnosys.a(read.o)
                              c:/program files/daisytoolchain/bin/../lib/gcc/arm-none-eabi/10.2.1/../../../../arm-none-eabi/lib/thumb/v7e-m+dp/hard\libc_nano.a(lib_a-readr.o) (_read)
c:/program files/daisytoolchain/bin/../lib/gcc/arm-none-eabi/10.2.1/../../../../arm-none-eabi/lib/thumb/v7e-m+dp/hard\libnosys.a(sbrk.o)
                              c:/program files/daisytoolchain/bin/../lib/gcc/arm-none-eabi/10.2.1/../../../../arm-none-eabi/lib/thumb/v7e-m+dp/hard\libc_nano.a(lib_a-sbrkr.o) (_sbrk)
c:/program files/daisytoolchain/bin/../lib/gcc/arm-none-eabi/10.2.1/../../../../arm-none-eabi/lib/thumb/v7e-m+dp/hard\libnosys.a(write.o)
                              c:/program files/daisytoolchain/bin/../lib/gcc/arm-none-eabi/10.2.1/../../../../arm-none-eabi/lib/thumb/v7e-m+dp/hard\libc_nano.a(lib_a-writer.o) (_write)
c:/program files/daisytoolchain/bin/../lib/gcc/arm-none-eabi/10.2.1/../../../../arm-none-eabi/lib/thumb/v7e-m+dp/hard\libnosys.a(_exit.o)
                              c:/program files/daisytoolchain/bin/../lib/gcc/arm-none-eabi/10.2.1/../../../../arm-none-eabi/lib/thumb/v7e-m+dp/hard\libc_nano.a(lib_a-exit.o) (_exit)

Discarded input sections

 .text          0x00000000        0x0 c:/program files/daisytoolchain/bin/../lib/gcc/arm-none-eabi/10.2.1/thumb/v7e-m+dp/hard/crti.o
 .data          0x00000000        0x0 c:/program files/daisytoolchain/bin/../lib/gcc/arm-none-eabi/10.2.1/thumb/v7e-m+dp/hard/crti.o
 .bss           0x00000000        0x0 c:/program files/daisytoolchain/bin/../lib/gcc/arm-none-eabi/10.2.1/thumb/v7e-m+dp/hard/crti.o
 .rodata        0x00000000       0x24 c:/program files/daisytoolchain/bin/../lib/gcc/arm-none-eabi/10.2.1/thumb/v7e-m+dp/hard/crtbegin.o
 .text          0x00000000       0x7c c:/program files/daisytoolchain/bin/../lib/gcc/arm-none-eabi/10.2.1/../../../../arm-none-eabi/lib/thumb/v7e-m+dp/hard/crt0.o
 .data          0x00000000        0x0 c:/program files/daisytoolchain/bin/../lib/gcc/arm-none-eabi/10.2.1/../../../../arm-none-eabi/lib/thumb/v7e-m+dp/hard/crt0.o
 .bss           0x00000000        0x0 c:/program files/daisytoolchain/bin/../lib/gcc/arm-none-eabi/10.2.1/../../../../arm-none-eabi/lib/thumb/v7e-m+dp/hard/crt0.o
 .ARM.extab     0x00000000        0x0 c:/program files/daisytoolchain/bin/../lib/gcc/arm-none-eabi/10.2.1/../../../../arm-none-eabi/lib/thumb/v7e-m+dp/hard/crt0.o
 .ARM.exidx     0x00000000       0x10 c:/program files/daisytoolchain/bin/../lib/gcc/arm-none-eabi/10.2.1/../../../../arm-none-eabi/lib/thumb/v7e-m+dp/hard/crt0.o
 .ARM.attributes
                0x00000000       0x1c c:/program files/daisytoolchain/bin/../lib/gcc/arm-none-eabi/10.2.1/../../../../arm-none-eabi/lib/thumb/v7e-m+dp/hard/crt0.o
 .text          0x00000000        0x0 build/startup_stm32h750xx.o
 .data          0x00000000        0x0 build/startup_stm32h750xx.o
 .bss           0x00000000        0x0 build/startup_stm32h750xx.o
 .group         0x00000000        0x8 build/main.o
 .group         0x00000000        0x8 build/main.o
 .group         0x00000000        0x8 build/main.o
 .group         0x00000000        0x8 build/main.o
Memory Configuration

Name             Origin             Length             Attributes
FLASH            0x08000000         0x00020000         xr
DTCMRAM          0x20000000         0x00020000         xrw
SRAM             0x24000000         0x00080000         xrw
RAM_D2           0x30000000         0x00048000         xrw
RAM_D3           0x38000000         0x00010000         xrw
ITCMRAM          0x00000000         0x00010000         xrw
SDRAM            0xc0000000         0x04000000         xrw
QSPIFLASH        0x90000000         0x00800000         xr
*default*        0x00000000         0xffffffff

Linker script and memory map

LOAD c:/program files/daisytoolchain/bin/../lib/gcc/arm-none-eabi/10.2.1/thumb/v7e-m+dp/hard/crti.o
LOAD c:/program files/daisytoolchain/bin/../lib/gcc/arm-none-eabi/10.2.1/thumb/v7e-m+dp/hard/crtbegin.o
LOAD c:/program files/daisytoolchain/bin/../lib/gcc/arm-none-eabi/10.2.1/../../../../arm-none-eabi/lib/thumb/v7e-m+dp/hard/crt0.o
LOAD build/startup_stm32h750xx.o
LOAD build/main.o
LOAD build/vasynth.o
LOAD ../../libDaisy/build\libdaisy.a
LOAD c:/program files/daisytoolchain/bin/../lib/gcc/arm-none-eabi/10.2.1/../../../../arm-none-eabi/lib/thumb/v7e-m+dp/hard\libnosys.a
LOAD ../../DaisySP/build\libdaisysp.a
LOAD c:/program files/daisytoolchain/bin/../lib/gcc/arm-none-eabi/10.2.1/../../../../arm-none-eabi/lib/thumb/v7e-m+dp/hard\libstdc++_nano.a
LOAD c:/program files/daisytoolchain/bin/../lib/gcc/arm-none-eabi/10.2.1/../../../../arm-none-eabi/lib/thumb/v7e-m+dp/hard\libm.a
LOAD c:/program files/daisytoolchain/bin/../lib/gcc/arm-none-eabi/10.2.1/../../../../arm-none-eabi/lib/thumb/v7e-m+dp/hard\libc_nano.a
START GROUP
LOAD c:/program files/daisytoolchain/bin/../lib/gcc/arm-none-eabi/10.2.1/thumb/v7e-m+dp/hard\libgcc.a
LOAD c:/program files/daisytoolchain/bin/../lib/gcc/arm-none-eabi/10.2.1/../../../../arm-none-eabi/lib/thumb/v7e-m+dp/hard\libc_nano.a
END GROUP
START GROUP
LOAD c:/program files/daisytoolchain/bin/../lib/gcc/arm-none-eabi/10.2.1/thumb/v7e-m+dp/hard\libgcc.a
LOAD c:/program files/daisytoolchain/bin/../lib/gcc/arm-none-eabi/10.2.1/../../../../arm-none-eabi/lib/thumb/v7e-m+dp/hard\libc_nano.a
LOAD c:/program files/daisytoolchain/bin/../lib/gcc/arm-none-eabi/10.2.1/../../../../arm-none-eabi/lib/thumb/v7e-m+dp/hard\libnosys.a
END GROUP
START GROUP
LOAD c:/program files/daisytoolchain/bin/../lib/gcc/arm-none-eabi/10.2.1/thumb/v7e-m+dp/hard\libgcc.a
LOAD c:/program files/daisytoolchain/bin/../lib/gcc/arm-none-eabi/10.2.1/../../../../arm-none-eabi/lib/thumb/v7e-m+dp/hard\libc_nano.a
LOAD c:/program files/daisytoolchain/bin/../lib/gcc/arm-none-eabi/10.2.1/../../../../arm-none-eabi/lib/thumb/v7e-m+dp/hard\libnosys.a
END GROUP
LOAD c:/program files/daisytoolchain/bin/../lib/gcc/arm-none-eabi/10.2.1/thumb/v7e-m+dp/hard/crtend.o
LOAD c:/program files/daisytoolchain/bin/../lib/gcc/arm-none-eabi/10.2.1/thumb/v7e-m+dp/hard/crtn.o
                0x20020000                _estack = 0x20020000

.isr_vector     0x08000000      0x298
                0x08000000                . = ALIGN (0x4)
 *(.isr_vector)
 .isr_vector    0x08000000      0x298 build/startup_stm32h750xx.o
                0x08000000                g_pfnVectors
                0x08000298                . = ALIGN (0x4)

.text           0x080002a0    0x14888
                0x080002a0                . = ALIGN (0x4)
                0x080002a0                _stext = .
 *(.text)
 .text          0x080002a0       0x40 c:/program files/daisytoolchain/bin/../lib/gcc/arm-none-eabi/10.2.1/thumb/v7e-m+dp/hard/crtbegin.o
 .text          0x080002e0       0xa0 c:/program files/daisytoolchain/bin/../lib/gcc/arm-none-eabi/10.2.1/../../../../arm-none-eabi/lib/thumb/v7e-m+dp/hard\libc_nano.a(lib_a-memchr.o)
                0x080002e0                memchr
 .text          0x08000380      0x378 c:/program files/daisytoolchain/bin/../lib/gcc/arm-none-eabi/10.2.1/thumb/v7e-m+dp/hard\libgcc.a(_arm_addsubdf3.o)
                0x08000380                __aeabi_drsub
                0x08000388                __aeabi_dsub
                0x08000388                __subdf3
                0x0800038c                __aeabi_dadd
                0x0800038c                __adddf3
                0x08000604                __floatunsidf
                0x08000604                __aeabi_ui2d
                0x08000624                __floatsidf
                0x08000624                __aeabi_i2d
                0x08000648                __aeabi_f2d
                0x08000648                __extendsfdf2
                0x0800068c                __floatundidf
                0x0800068c                __aeabi_ul2d
                0x0800069c                __floatdidf
                0x0800069c                __aeabi_l2d
 .text          0x080006f8       0x30 c:/program files/daisytoolchain/bin/../lib/gcc/arm-none-eabi/10.2.1/thumb/v7e-m+dp/hard\libgcc.a(_aeabi_uldivmod.o)
                0x080006f8                __aeabi_uldivmod
 .text          0x08000728      0x2d0 c:/program files/daisytoolchain/bin/../lib/gcc/arm-none-eabi/10.2.1/thumb/v7e-m+dp/hard\libgcc.a(_udivmoddi4.o)
                0x08000728                __udivmoddi4
 .text          0x080009f8        0x4 c:/program files/daisytoolchain/bin/../lib/gcc/arm-none-eabi/10.2.1/thumb/v7e-m+dp/hard\libgcc.a(_dvmd_tls.o)
                0x080009f8                __aeabi_idiv0
                0x080009f8                __aeabi_ldiv0
 *(.text*)
 .text.Default_Handler
                0x080009fc        0x4 build/startup_stm32h750xx.o
                0x080009fc                RTC_Alarm_IRQHandler
                0x080009fc                HASH_RNG_IRQHandler
                0x080009fc                EXTI2_IRQHandler
                0x080009fc                TIM8_CC_IRQHandler
                0x080009fc                HRTIM1_Master_IRQHandler
                0x080009fc                DebugMon_Handler
                0x080009fc                TIM1_CC_IRQHandler
                0x080009fc                BDMA_Channel6_IRQHandler
                0x080009fc                DMA2_Stream5_IRQHandler
                0x080009fc                HRTIM1_FLT_IRQHandler
                0x080009fc                JPEG_IRQHandler
                0x080009fc                BDMA_Channel1_IRQHandler
                0x080009fc                HRTIM1_TIMD_IRQHandler
                0x080009fc                TAMP_STAMP_IRQHandler
                0x080009fc                PendSV_Handler
                0x080009fc                NMI_Handler
                0x080009fc                EXTI3_IRQHandler
                0x080009fc                LPTIM4_IRQHandler
                0x080009fc                TIM8_TRG_COM_TIM14_IRQHandler
                0x080009fc                LPTIM2_IRQHandler
                0x080009fc                DFSDM1_FLT1_IRQHandler
                0x080009fc                DMAMUX2_OVR_IRQHandler
                0x080009fc                TIM8_UP_TIM13_IRQHandler
                0x080009fc                I2C3_ER_IRQHandler
                0x080009fc                DFSDM1_FLT2_IRQHandler
                0x080009fc                MDMA_IRQHandler
                0x080009fc                LPTIM3_IRQHandler
                0x080009fc                HSEM1_IRQHandler
                0x080009fc                EXTI0_IRQHandler
                0x080009fc                DMA1_Stream2_IRQHandler
                0x080009fc                FPU_IRQHandler
                0x080009fc                OTG_HS_WKUP_IRQHandler
                0x080009fc                FDCAN1_IT1_IRQHandler
                0x080009fc                UsageFault_Handler
                0x080009fc                LTDC_ER_IRQHandler
                0x080009fc                HRTIM1_TIME_IRQHandler
                0x080009fc                TIM6_DAC_IRQHandler
                0x080009fc                DCMI_IRQHandler
                0x080009fc                HRTIM1_TIMC_IRQHandler
                0x080009fc                SAI2_IRQHandler
                0x080009fc                DFSDM1_FLT3_IRQHandler
                0x080009fc                TIM17_IRQHandler
                0x080009fc                CRYP_IRQHandler
                0x080009fc                BDMA_Channel7_IRQHandler
                0x080009fc                LPTIM5_IRQHandler
                0x080009fc                ADC3_IRQHandler
                0x080009fc                DMA2_Stream0_IRQHandler
                0x080009fc                BDMA_Channel2_IRQHandler
                0x080009fc                DMAMUX1_OVR_IRQHandler
                0x080009fc                TIM16_IRQHandler
                0x080009fc                BDMA_Channel5_IRQHandler
                0x080009fc                RCC_IRQHandler
                0x080009fc                TIM8_BRK_TIM12_IRQHandler
                0x080009fc                TIM1_TRG_COM_IRQHandler
                0x080009fc                Default_Handler
                0x080009fc                ECC_IRQHandler
                0x080009fc                CEC_IRQHandler
                0x080009fc                EXTI15_10_IRQHandler
                0x080009fc                BDMA_Channel0_IRQHandler
                0x080009fc                ADC_IRQHandler
                0x080009fc                DMA1_Stream7_IRQHandler
                0x080009fc                HRTIM1_TIMA_IRQHandler
                0x080009fc                TIM7_IRQHandler
                0x080009fc                SDMMC1_IRQHandler
                0x080009fc                DMA2_Stream7_IRQHandler
                0x080009fc                TIM15_IRQHandler
                0x080009fc                PVD_AVD_IRQHandler
                0x080009fc                EXTI9_5_IRQHandler
                0x080009fc                RTC_WKUP_IRQHandler
                0x080009fc                LTDC_IRQHandler
                0x080009fc                SAI3_IRQHandler
                0x080009fc                ETH_WKUP_IRQHandler
                0x080009fc                SPDIF_RX_IRQHandler
                0x080009fc                MemManage_Handler
                0x080009fc                SVC_Handler
                0x080009fc                CRS_IRQHandler
                0x080009fc                EXTI4_IRQHandler
                0x080009fc                HRTIM1_TIMB_IRQHandler
                0x080009fc                FDCAN2_IT1_IRQHandler
                0x080009fc                ETH_IRQHandler
                0x080009fc                TIM1_UP_IRQHandler
                0x080009fc                BDMA_Channel4_IRQHandler
                0x080009fc                WWDG_IRQHandler
                0x080009fc                SPI6_IRQHandler
                0x080009fc                I2C4_EV_IRQHandler
                0x080009fc                MDIOS_IRQHandler
                0x080009fc                FDCAN2_IT0_IRQHandler
                0x080009fc                FDCAN1_IT0_IRQHandler
                0x080009fc                OTG_FS_WKUP_IRQHandler
                0x080009fc                DMA2D_IRQHandler
                0x080009fc                TIM1_BRK_IRQHandler
                0x080009fc                EXTI1_IRQHandler
                0x080009fc                SDMMC2_IRQHandler
                0x080009fc                BDMA_Channel3_IRQHandler
                0x080009fc                MDIOS_WKUP_IRQHandler
                0x080009fc                DFSDM1_FLT0_IRQHandler
                0x080009fc                SAI4_IRQHandler
                0x080009fc                I2C2_ER_IRQHandler
                0x080009fc                DMA2_Stream1_IRQHandler
                0x080009fc                FLASH_IRQHandler
                0x080009fc                BusFault_Handler
                0x080009fc                WAKEUP_PIN_IRQHandler
                0x080009fc                I2C1_ER_IRQHandler
                0x080009fc                FMC_IRQHandler
                0x080009fc                FDCAN_CAL_IRQHandler
                0x080009fc                SWPMI1_IRQHandler
                0x080009fc                COMP1_IRQHandler
                0x080009fc                LPTIM1_IRQHandler
                0x080009fc                I2C4_ER_IRQHandler
                0x080009fc                DMA2_Stream6_IRQHandler
                0x080009fc                SAI1_IRQHandler
 .text.Reset_Handler
                0x08000a00       0x44 build/startup_stm32h750xx.o
                0x08000a00                Reset_Handler
 .text._ZN5daisy9DaisySeedD2Ev
                0x08000a44        0x4 build/main.o
                0x08000a44                daisy::DaisySeed::~DaisySeed()
                0x08000a44                daisy::DaisySeed::~DaisySeed()
 .text._ZN7VASynthD2Ev
                0x08000a48        0x4 build/main.o
                0x08000a48                VASynth::~VASynth()
                0x08000a48                VASynth::~VASynth()
 .text._ZN5daisy11MidiHandlerINS_16MidiUsbTransportEED2Ev
                0x08000a4c        0x4 build/main.o
                0x08000a4c                daisy::MidiHandler<daisy::MidiUsbTransport>::~MidiHandler()
                0x08000a4c                daisy::MidiHandler<daisy::MidiUsbTransport>::~MidiHandler()
 .text._ZN7daisysp9DelayLineIfLj48000EED2Ev
                0x08000a50        0x4 build/main.o
                0x08000a50                daisysp::DelayLine<float, 48000u>::~DelayLine()
                0x08000a50                daisysp::DelayLine<float, 48000u>::~DelayLine()
 .text._Z13AudioCallbackPKfPfj
                0x08000a54       0x78 build/main.o
                0x08000a54                AudioCallback(float const*, float*, unsigned int)
 .text._Z13SequencerPlayt.part.0
                0x08000acc       0xd4 build/main.o
 .text._Z8CallbackPv
                0x08000ba0       0x24 build/main.o
                0x08000ba0                Callback(void*)
 .text._ZN7VASynthC2Ev
                0x08000bc4       0xc8 build/main.o
                0x08000bc4                VASynth::VASynth()
                0x08000bc4                VASynth::VASynth()
 .text._Z15SequencerRecordhh
                0x08000c8c       0x6c build/main.o
                0x08000c8c                SequencerRecord(unsigned char, unsigned char)
 .text._Z17HandleMidiMessageN5daisy9MidiEventE
                0x08000cf8      0x40c build/main.o
                0x08000cf8                HandleMidiMessage(daisy::MidiEvent)
 .text._Z15SeqTimer_Configv
                0x08001104       0x4c build/main.o
                0x08001104                SeqTimer_Config()
 .text._ZN5daisy11MidiHandlerINS_16MidiUsbTransportEE5ParseEh
                0x08001150      0x2c0 build/main.o
                0x08001150                daisy::MidiHandler<daisy::MidiUsbTransport>::Parse(unsigned char)
 .text.startup.main
                0x08001410      0x1bc build/main.o
                0x08001410                main
 .text.startup._GLOBAL__sub_I_hardware
                0x080015cc       0x84 build/main.o
 .text._ZN7VASynth4InitEv
                0x08001650      0x3a4 build/vasynth.o
                0x08001650                VASynth::Init()
 .text._ZN7VASynth11SetWaveformEv
                0x080019f4       0x24 build/vasynth.o
                0x080019f4                VASynth::SetWaveform()
 .text._ZN7VASynth5SetEGEv
                0x08001a18       0xc8 build/vasynth.o
                0x08001a18                VASynth::SetEG()
 .text._ZN7VASynth9SetFilterEv
                0x08001ae0       0x28 build/vasynth.o
                0x08001ae0                VASynth::SetFilter()
 .text._ZN7VASynth12SetVCAVCFLFOEv
                0x08001b08       0x38 build/vasynth.o
                0x08001b08                VASynth::SetVCAVCFLFO()
 .text._ZN7VASynth7ProcessEPfS0_
                0x08001b40      0x3c0 build/vasynth.o
                0x08001b40                VASynth::Process(float*, float*)
 .text._ZN7VASynth6NoteOnEhh
                0x08001f00       0xdc build/vasynth.o
                0x08001f00                VASynth::NoteOn(unsigned char, unsigned char)
 .text._ZN7VASynth7NoteOffEh
                0x08001fdc       0x1c build/vasynth.o
                0x08001fdc                VASynth::NoteOff(unsigned char)
 .text._ZN7VASynth9PitchBendEs
                0x08001ff8       0x20 build/vasynth.o
                0x08001ff8                VASynth::PitchBend(short)
 .text._ZN7VASynth10SaveToLiveEP14VASynthSetting
                0x08002018      0x124 build/vasynth.o
                0x08002018                VASynth::SaveToLive(VASynthSetting*)
 .text._ZN7VASynth5FirstEv
                0x0800213c       0x14 build/vasynth.o
                0x0800213c                VASynth::First()
 .text._ZN5daisy9DaisySeed10StartAudioEPFvPKfPfjE
                0x08002150        0x8 ../../libDaisy/build\libdaisy.a(daisy_seed.o)
                0x08002150                daisy::DaisySeed::StartAudio(void (*)(float const*, float*, unsigned int))
 .text._ZN5daisy9DaisySeed15AudioSampleRateEv
                0x08002158        0x8 ../../libDaisy/build\libdaisy.a(daisy_seed.o)
                0x08002158                daisy::DaisySeed::AudioSampleRate()
 .text._ZN5daisy9DaisySeed17SetAudioBlockSizeEj
                0x08002160       0x38 ../../libDaisy/build\libdaisy.a(daisy_seed.o)
                0x08002160                daisy::DaisySeed::SetAudioBlockSize(unsigned int)
 .text._ZNK5daisy9DaisySeed17AudioCallbackRateEv
                0x08002198        0x8 ../../libDaisy/build\libdaisy.a(daisy_seed.o)
                0x08002198                daisy::DaisySeed::AudioCallbackRate() const
 .text._ZN5daisy9DaisySeed6SetLedEb
                0x080021a0        0x8 ../../libDaisy/build\libdaisy.a(daisy_seed.o)
                0x080021a0                daisy::DaisySeed::SetLed(bool)
 .text._ZN5daisy9DaisySeed14ConfigureAudioEv
                0x080021a8       0xd0 ../../libDaisy/build\libdaisy.a(daisy_seed.o)
                0x080021a8                daisy::DaisySeed::ConfigureAudio()
 .text._ZN5daisy9DaisySeed4InitEb
                0x08002278       0xf0 ../../libDaisy/build\libdaisy.a(daisy_seed.o)
                0x08002278                daisy::DaisySeed::Init(bool)
 .text._ZN5daisy6Ak45564InitE12dsy_gpio_pin
                0x08002368       0x44 ../../libDaisy/build\libdaisy.a(codec_ak4556.o)
                0x08002368                daisy::Ak4556::Init(dsy_gpio_pin)
 .text._ZN5daisy6Wm873120WriteControlRegisterEht
                0x080023ac       0x3c ../../libDaisy/build\libdaisy.a(codec_wm8731.o)
                0x080023ac                daisy::Wm8731::WriteControlRegister(unsigned char, unsigned short)
 .text._ZN5daisy6Wm87314InitERKNS0_6ConfigENS_9I2CHandleE
                0x080023e8      0x1bc ../../libDaisy/build\libdaisy.a(codec_wm8731.o)
                0x080023e8                daisy::Wm8731::Init(daisy::Wm8731::Config const&, daisy::I2CHandle)
 .text._ZN11SdramHandle10DeviceInitEv
                0x080025a4       0x98 ../../libDaisy/build\libdaisy.a(sdram.o)
                0x080025a4                SdramHandle::DeviceInit()
 .text._ZN11SdramHandle4InitEv
                0x0800263c       0x7c ../../libDaisy/build\libdaisy.a(sdram.o)
                0x0800263c                SdramHandle::Init()
 .text.HAL_SDRAM_MspInit
                0x080026b8      0x1a8 ../../libDaisy/build\libdaisy.a(sdram.o)
                0x080026b8                HAL_SDRAM_MspInit
 .text._ZN5daisy11AudioHandle4Impl16InternalCallbackEPlS2_j
                0x08002860      0xbbc ../../libDaisy/build\libdaisy.a(audio.o)
                0x08002860                daisy::AudioHandle::Impl::InternalCallback(long*, long*, unsigned int)
 .text._ZN5daisy11AudioHandle4InitERKNS0_6ConfigENS_9SaiHandleE
                0x0800341c       0x70 ../../libDaisy/build\libdaisy.a(audio.o)
                0x0800341c                daisy::AudioHandle::Init(daisy::AudioHandle::Config const&, daisy::SaiHandle)
 .text._ZNK5daisy11AudioHandle9GetConfigEv
                0x0800348c        0x8 ../../libDaisy/build\libdaisy.a(audio.o)
                0x0800348c                daisy::AudioHandle::GetConfig() const
 .text._ZN5daisy11AudioHandle12SetBlockSizeEj
                0x08003494       0x1c ../../libDaisy/build\libdaisy.a(audio.o)
                0x08003494                daisy::AudioHandle::SetBlockSize(unsigned int)
 .text._ZN5daisy11AudioHandle13GetSampleRateEv
                0x080034b0        0x8 ../../libDaisy/build\libdaisy.a(audio.o)
                0x080034b0                daisy::AudioHandle::GetSampleRate()
 .text._ZN5daisy11AudioHandle5StartEPFvPKfPfjE
                0x080034b8       0x2c ../../libDaisy/build\libdaisy.a(audio.o)
                0x080034b8                daisy::AudioHandle::Start(void (*)(float const*, float*, unsigned int))
 .text.startup._GLOBAL__sub_I__ZN5daisy11AudioHandle4Impl4InitENS0_6ConfigENS_9SaiHandleE
                0x080034e4       0x24 ../../libDaisy/build\libdaisy.a(audio.o)
 .text._ZN5daisy16MidiUsbTransport4ImplD2Ev
                0x08003508        0x4 ../../libDaisy/build\libdaisy.a(usb_midi.o)
                0x08003508                daisy::MidiUsbTransport::Impl::~Impl()
                0x08003508                daisy::MidiUsbTransport::Impl::~Impl()
 .text._Z15ReceiveCallbackPhPm
                0x0800350c       0x9c ../../libDaisy/build\libdaisy.a(usb_midi.o)
                0x0800350c                ReceiveCallback(unsigned char*, unsigned long*)
 .text._ZN5daisy16MidiUsbTransport4InitENS0_6ConfigE
                0x080035a8       0x50 ../../libDaisy/build\libdaisy.a(usb_midi.o)
                0x080035a8                daisy::MidiUsbTransport::Init(daisy::MidiUsbTransport::Config)
 .text._ZN5daisy16MidiUsbTransport7StartRxEv
                0x080035f8        0x8 ../../libDaisy/build\libdaisy.a(usb_midi.o)
                0x080035f8                daisy::MidiUsbTransport::StartRx()
 .text._ZN5daisy16MidiUsbTransport8ReadableEv
                0x08003600       0x14 ../../libDaisy/build\libdaisy.a(usb_midi.o)
                0x08003600                daisy::MidiUsbTransport::Readable()
 .text._ZN5daisy16MidiUsbTransport2RxEv
                0x08003614       0x28 ../../libDaisy/build\libdaisy.a(usb_midi.o)
                0x08003614                daisy::MidiUsbTransport::Rx()
 .text._ZN5daisy16MidiUsbTransport8RxActiveEv
                0x0800363c        0x8 ../../libDaisy/build\libdaisy.a(usb_midi.o)
                0x0800363c                daisy::MidiUsbTransport::RxActive()
 .text._ZN5daisy16MidiUsbTransport7FlushRxEv
                0x08003644        0xc ../../libDaisy/build\libdaisy.a(usb_midi.o)
                0x08003644                daisy::MidiUsbTransport::FlushRx()
 .text.startup._GLOBAL__sub_I__Z15ReceiveCallbackPhPm
                0x08003650       0x58 ../../libDaisy/build\libdaisy.a(usb_midi.o)
 .text.dsy_gpio_init
                0x080036a8      0x1b8 ../../libDaisy/build\libdaisy.a(gpio.o)
                0x080036a8                dsy_gpio_init
 .text.dsy_gpio_read
                0x08003860       0x1c ../../libDaisy/build\libdaisy.a(gpio.o)
                0x08003860                dsy_gpio_read
 .text.dsy_gpio_write
                0x0800387c       0x24 ../../libDaisy/build\libdaisy.a(gpio.o)
                0x0800387c                dsy_gpio_write
 .text._ZN5daisy9I2CHandle4Impl8InitPinsEv
                0x080038a0       0x58 ../../libDaisy/build\libdaisy.a(i2c.o)
                0x080038a0                daisy::I2CHandle::Impl::InitPins()
 .text.HAL_I2C_MspInit
                0x080038f8      0x1b4 ../../libDaisy/build\libdaisy.a(i2c.o)
                0x080038f8                HAL_I2C_MspInit
 .text.dsy_i2c_global_init
                0x08003aac       0x78 ../../libDaisy/build\libdaisy.a(i2c.o)
                0x08003aac                dsy_i2c_global_init
 .text.DMA1_Stream6_IRQHandler
                0x08003b24       0x34 ../../libDaisy/build\libdaisy.a(i2c.o)
                0x08003b24                DMA1_Stream6_IRQHandler
 .text.I2C1_EV_IRQHandler
                0x08003b58        0xc ../../libDaisy/build\libdaisy.a(i2c.o)
                0x08003b58                I2C1_EV_IRQHandler
 .text.I2C2_EV_IRQHandler
                0x08003b64        0xc ../../libDaisy/build\libdaisy.a(i2c.o)
                0x08003b64                I2C2_EV_IRQHandler
 .text.I2C3_EV_IRQHandler
                0x08003b70        0xc ../../libDaisy/build\libdaisy.a(i2c.o)
                0x08003b70                I2C3_EV_IRQHandler
 .text._ZN5daisy9I2CHandle4InitERKNS0_6ConfigE
                0x08003b7c      0x12c ../../libDaisy/build\libdaisy.a(i2c.o)
                0x08003b7c                daisy::I2CHandle::Init(daisy::I2CHandle::Config const&)
 .text._ZN5daisy9I2CHandle16TransmitBlockingEtPhtm
                0x08003ca8       0x50 ../../libDaisy/build\libdaisy.a(i2c.o)
                0x08003ca8                daisy::I2CHandle::TransmitBlocking(unsigned short, unsigned char*, unsigned short, unsigned long)
 .text.startup._GLOBAL__sub_I__ZN5daisy9I2CHandle4Impl10GlobalInitEv
                0x08003cf8       0x18 ../../libDaisy/build\libdaisy.a(i2c.o)
 .text._ZN5daisy10QSPIHandle4Impl11WriteEnableEv
                0x08003d10       0x8c ../../libDaisy/build\libdaisy.a(qspi.o)
                0x08003d10                daisy::QSPIHandle::Impl::WriteEnable()
 *fill*         0x08003d9c        0x4 
 .text._ZN5daisy10QSPIHandle4Impl17DummyCyclesConfigENS0_6Config6DeviceE
                0x08003da0      0x118 ../../libDaisy/build\libdaisy.a(qspi.o)
                0x08003da0                daisy::QSPIHandle::Impl::DummyCyclesConfig(daisy::QSPIHandle::Config::Device)
 .text._ZN5daisy10QSPIHandle4Impl10QuadEnableEv
                0x08003eb8      0x158 ../../libDaisy/build\libdaisy.a(qspi.o)
                0x08003eb8                daisy::QSPIHandle::Impl::QuadEnable()
 .text._ZN5daisy10QSPIHandle4InitERKNS0_6ConfigE
                0x08004010      0x198 ../../libDaisy/build\libdaisy.a(qspi.o)
                0x08004010                daisy::QSPIHandle::Init(daisy::QSPIHandle::Config const&)
 .text.HAL_QSPI_MspInit
                0x080041a8      0x11c ../../libDaisy/build\libdaisy.a(qspi.o)
                0x080041a8                HAL_QSPI_MspInit
 .text.HAL_QSPI_MspDeInit
                0x080042c4       0x54 ../../libDaisy/build\libdaisy.a(qspi.o)
                0x080042c4                HAL_QSPI_MspDeInit
 .text.QUADSPI_IRQHandler
                0x08004318        0xc ../../libDaisy/build\libdaisy.a(qspi.o)
                0x08004318                QUADSPI_IRQHandler
 .text.startup._GLOBAL__sub_I__ZN5daisy10QSPIHandle4Impl4InitERKNS0_6ConfigE
                0x08004324       0x28 ../../libDaisy/build\libdaisy.a(qspi.o)
 .text._ZN5daisy9SaiHandle4Impl7InitDmaENS1_15PeripheralBlockE
                0x0800434c       0xa0 ../../libDaisy/build\libdaisy.a(sai.o)
                0x0800434c                daisy::SaiHandle::Impl::InitDma(daisy::SaiHandle::Impl::PeripheralBlock)
 .text._ZN5daisy9SaiHandle4Impl8InitPinsEv
                0x080043ec       0xa8 ../../libDaisy/build\libdaisy.a(sai.o)
                0x080043ec                daisy::SaiHandle::Impl::InitPins()
 .text.HAL_SAI_MspInit
                0x08004494      0x164 ../../libDaisy/build\libdaisy.a(sai.o)
                0x08004494                HAL_SAI_MspInit
 .text.DMA1_Stream0_IRQHandler
                0x080045f8        0xc ../../libDaisy/build\libdaisy.a(sai.o)
                0x080045f8                DMA1_Stream0_IRQHandler
 .text.DMA1_Stream1_IRQHandler
                0x08004604        0xc ../../libDaisy/build\libdaisy.a(sai.o)
                0x08004604                DMA1_Stream1_IRQHandler
 .text.DMA1_Stream3_IRQHandler
                0x08004610        0xc ../../libDaisy/build\libdaisy.a(sai.o)
                0x08004610                DMA1_Stream3_IRQHandler
 .text.DMA1_Stream4_IRQHandler
                0x0800461c        0xc ../../libDaisy/build\libdaisy.a(sai.o)
                0x0800461c                DMA1_Stream4_IRQHandler
 .text.HAL_SAI_RxHalfCpltCallback
                0x08004628       0x78 ../../libDaisy/build\libdaisy.a(sai.o)
                0x08004628                HAL_SAI_RxHalfCpltCallback
 .text.HAL_SAI_RxCpltCallback
                0x080046a0       0x70 ../../libDaisy/build\libdaisy.a(sai.o)
                0x080046a0                HAL_SAI_RxCpltCallback
 .text._ZN5daisy9SaiHandle4InitERKNS0_6ConfigE
                0x08004710      0x1f0 ../../libDaisy/build\libdaisy.a(sai.o)
                0x08004710                daisy::SaiHandle::Init(daisy::SaiHandle::Config const&)
 .text._ZNK5daisy9SaiHandle9GetConfigEv
                0x08004900        0x4 ../../libDaisy/build\libdaisy.a(sai.o)
                0x08004900                daisy::SaiHandle::GetConfig() const
 .text._ZN5daisy9SaiHandle8StartDmaEPlS1_jPFvS1_S1_jE
                0x08004904       0xbc ../../libDaisy/build\libdaisy.a(sai.o)
                0x08004904                daisy::SaiHandle::StartDma(long*, long*, unsigned int, void (*)(long*, long*, unsigned int))
 .text._ZN5daisy9SaiHandle13GetSampleRateEv
                0x080049c0       0x24 ../../libDaisy/build\libdaisy.a(sai.o)
                0x080049c0                daisy::SaiHandle::GetSampleRate()
 .text._ZNK5daisy9SaiHandle9GetOffsetEv
                0x080049e4        0x8 ../../libDaisy/build\libdaisy.a(sai.o)
                0x080049e4                daisy::SaiHandle::GetOffset() const
 .text.HAL_TIM_Base_MspInit
                0x080049ec      0x1e0 ../../libDaisy/build\libdaisy.a(tim.o)
                0x080049ec                HAL_TIM_Base_MspInit
 .text.HAL_TIM_PeriodElapsedCallback
                0x08004bcc       0x44 ../../libDaisy/build\libdaisy.a(tim.o)
                0x08004bcc                HAL_TIM_PeriodElapsedCallback
 .text.TIM2_IRQHandler
                0x08004c10        0xc ../../libDaisy/build\libdaisy.a(tim.o)
                0x08004c10                TIM2_IRQHandler
 .text.TIM3_IRQHandler
                0x08004c1c        0xc ../../libDaisy/build\libdaisy.a(tim.o)
                0x08004c1c                TIM3_IRQHandler
 .text.TIM4_IRQHandler
                0x08004c28        0xc ../../libDaisy/build\libdaisy.a(tim.o)
                0x08004c28                TIM4_IRQHandler
 .text.TIM5_IRQHandler
                0x08004c34        0xc ../../libDaisy/build\libdaisy.a(tim.o)
                0x08004c34                TIM5_IRQHandler
 .text._ZN5daisy11TimerHandle4InitERKNS0_6ConfigE
                0x08004c40       0xd0 ../../libDaisy/build\libdaisy.a(tim.o)
                0x08004c40                daisy::TimerHandle::Init(daisy::TimerHandle::Config const&)
 .text._ZN5daisy11TimerHandle5StartEv
                0x08004d10       0x24 ../../libDaisy/build\libdaisy.a(tim.o)
                0x08004d10                daisy::TimerHandle::Start()
 .text._ZN5daisy11TimerHandle11SetCallbackEPFvPvES1_
                0x08004d34        0xc ../../libDaisy/build\libdaisy.a(tim.o)
                0x08004d34                daisy::TimerHandle::SetCallback(void (*)(void*), void*)
 .text.startup._GLOBAL__sub_I__ZN5daisy11TimerHandle4Impl4InitERKNS0_6ConfigE
                0x08004d40       0x38 ../../libDaisy/build\libdaisy.a(tim.o)
 .text._ZN5daisy11TimerHandleD2Ev
                0x08004d78        0x4 ../../libDaisy/build\libdaisy.a(system.o)
                0x08004d78                daisy::TimerHandle::~TimerHandle()
                0x08004d78                daisy::TimerHandle::~TimerHandle()
 .text.SysTick_Handler
                0x08004d7c       0x10 ../../libDaisy/build\libdaisy.a(system.o)
                0x08004d7c                SysTick_Handler
 .text.OTG_HS_EP1_OUT_IRQHandler
                0x08004d8c       0x24 ../../libDaisy/build\libdaisy.a(system.o)
                0x08004d8c                OTG_HS_EP1_OUT_IRQHandler
 .text.OTG_HS_EP1_IN_IRQHandler
                0x08004db0       0x24 ../../libDaisy/build\libdaisy.a(system.o)
                0x08004db0                OTG_HS_EP1_IN_IRQHandler
 .text.OTG_HS_IRQHandler
                0x08004dd4       0x24 ../../libDaisy/build\libdaisy.a(system.o)
                0x08004dd4                OTG_HS_IRQHandler
 .text.HardFault_Handler
                0x08004df8       0xe0 ../../libDaisy/build\libdaisy.a(system.o)
                0x08004df8                HardFault_Handler
 .text._ZN5daisy6System6GetNowEv
                0x08004ed8        0x4 ../../libDaisy/build\libdaisy.a(system.o)
                0x08004ed8                daisy::System::GetNow()
 .text._ZN5daisy6System5DelayEm
                0x08004edc        0x4 ../../libDaisy/build\libdaisy.a(system.o)
                0x08004edc                daisy::System::Delay(unsigned long)
 .text._ZN5daisy6System15ConfigureClocksEv
                0x08004ee0      0x194 ../../libDaisy/build\libdaisy.a(system.o)
                0x08004ee0                daisy::System::ConfigureClocks()
 .text._ZN5daisy6System4InitERKNS0_6ConfigE
                0x08005074      0x140 ../../libDaisy/build\libdaisy.a(system.o)
                0x08005074                daisy::System::Init(daisy::System::Config const&)
 .text._ZN5daisy6System12GetPClk1FreqEv
                0x080051b4        0x4 ../../libDaisy/build\libdaisy.a(system.o)
                0x080051b4                daisy::System::GetPClk1Freq()
 .text._ZN5daisy6System12GetPClk2FreqEv
                0x080051b8        0x4 ../../libDaisy/build\libdaisy.a(system.o)
                0x080051b8                daisy::System::GetPClk2Freq()
 .text._ZN5daisy6System22GetProgramMemoryRegionEv
                0x080051bc       0x78 ../../libDaisy/build\libdaisy.a(system.o)
                0x080051bc                daisy::System::GetProgramMemoryRegion()
 .text.startup._GLOBAL__sub_I_SysTick_Handler
                0x08005234       0x1c ../../libDaisy/build\libdaisy.a(system.o)
 .text.SystemInit
                0x08005250       0x9c ../../libDaisy/build\libdaisy.a(system_stm32h7xx.o)
                0x08005250                SystemInit
 .text.HAL_PCD_MspInit
                0x080052ec      0x144 ../../libDaisy/build\libdaisy.a(usbd_conf.o)
                0x080052ec                HAL_PCD_MspInit
 .text.HAL_PCD_SetupStageCallback
                0x08005430        0xc ../../libDaisy/build\libdaisy.a(usbd_conf.o)
                0x08005430                HAL_PCD_SetupStageCallback
 .text.HAL_PCD_DataOutStageCallback
                0x0800543c       0x14 ../../libDaisy/build\libdaisy.a(usbd_conf.o)
                0x0800543c                HAL_PCD_DataOutStageCallback
 .text.HAL_PCD_DataInStageCallback
                0x08005450       0x14 ../../libDaisy/build\libdaisy.a(usbd_conf.o)
                0x08005450                HAL_PCD_DataInStageCallback
 .text.HAL_PCD_SOFCallback
                0x08005464        0x8 ../../libDaisy/build\libdaisy.a(usbd_conf.o)
                0x08005464                HAL_PCD_SOFCallback
 .text.HAL_PCD_ResetCallback
                0x0800546c       0x24 ../../libDaisy/build\libdaisy.a(usbd_conf.o)
                0x0800546c                HAL_PCD_ResetCallback
 .text.HAL_PCD_SuspendCallback
                0x08005490       0x30 ../../libDaisy/build\libdaisy.a(usbd_conf.o)
                0x08005490                HAL_PCD_SuspendCallback
 .text.HAL_PCD_ResumeCallback
                0x080054c0        0x8 ../../libDaisy/build\libdaisy.a(usbd_conf.o)
                0x080054c0                HAL_PCD_ResumeCallback
 .text.HAL_PCD_ISOOUTIncompleteCallback
                0x080054c8        0x8 ../../libDaisy/build\libdaisy.a(usbd_conf.o)
                0x080054c8                HAL_PCD_ISOOUTIncompleteCallback
 .text.HAL_PCD_ISOINIncompleteCallback
                0x080054d0        0x8 ../../libDaisy/build\libdaisy.a(usbd_conf.o)
                0x080054d0                HAL_PCD_ISOINIncompleteCallback
 .text.HAL_PCD_ConnectCallback
                0x080054d8        0x8 ../../libDaisy/build\libdaisy.a(usbd_conf.o)
                0x080054d8                HAL_PCD_ConnectCallback
 .text.HAL_PCD_DisconnectCallback
                0x080054e0        0x8 ../../libDaisy/build\libdaisy.a(usbd_conf.o)
                0x080054e0                HAL_PCD_DisconnectCallback
 .text.USBD_LL_Init
                0x080054e8       0xe4 ../../libDaisy/build\libdaisy.a(usbd_conf.o)
                0x080054e8                USBD_LL_Init
 .text.USBD_LL_Start
                0x080055cc       0x1c ../../libDaisy/build\libdaisy.a(usbd_conf.o)
                0x080055cc                USBD_LL_Start
 .text.USBD_LL_OpenEP
                0x080055e8       0x24 ../../libDaisy/build\libdaisy.a(usbd_conf.o)
                0x080055e8                USBD_LL_OpenEP
 .text.USBD_LL_CloseEP
                0x0800560c       0x1c ../../libDaisy/build\libdaisy.a(usbd_conf.o)
                0x0800560c                USBD_LL_CloseEP
 .text.USBD_LL_StallEP
                0x08005628       0x1c ../../libDaisy/build\libdaisy.a(usbd_conf.o)
                0x08005628                USBD_LL_StallEP
 .text.USBD_LL_ClearStallEP
                0x08005644       0x1c ../../libDaisy/build\libdaisy.a(usbd_conf.o)
                0x08005644                USBD_LL_ClearStallEP
 .text.USBD_LL_IsStallEP
                0x08005660       0x28 ../../libDaisy/build\libdaisy.a(usbd_conf.o)
                0x08005660                USBD_LL_IsStallEP
 .text.USBD_LL_SetUSBAddress
                0x08005688       0x1c ../../libDaisy/build\libdaisy.a(usbd_conf.o)
                0x08005688                USBD_LL_SetUSBAddress
 .text.USBD_LL_Transmit
                0x080056a4       0x1c ../../libDaisy/build\libdaisy.a(usbd_conf.o)
                0x080056a4                USBD_LL_Transmit
 .text.USBD_LL_PrepareReceive
                0x080056c0       0x1c ../../libDaisy/build\libdaisy.a(usbd_conf.o)
                0x080056c0                USBD_LL_PrepareReceive
 .text.USBD_LL_GetRxDataSize
                0x080056dc        0x8 ../../libDaisy/build\libdaisy.a(usbd_conf.o)
                0x080056dc                USBD_LL_GetRxDataSize
 .text.HAL_HCD_SOF_Callback
                0x080056e4        0x8 ../../libDaisy/build\libdaisy.a(usbh_conf.o)
                0x080056e4                HAL_HCD_SOF_Callback
 .text.HAL_HCD_Connect_Callback
                0x080056ec        0x8 ../../libDaisy/build\libdaisy.a(usbh_conf.o)
                0x080056ec                HAL_HCD_Connect_Callback
 .text.HAL_HCD_Disconnect_Callback
                0x080056f4        0x8 ../../libDaisy/build\libdaisy.a(usbh_conf.o)
                0x080056f4                HAL_HCD_Disconnect_Callback
 .text.HAL_HCD_HC_NotifyURBChange_Callback
                0x080056fc        0x4 ../../libDaisy/build\libdaisy.a(usbh_conf.o)
                0x080056fc                HAL_HCD_HC_NotifyURBChange_Callback
 .text.HAL_HCD_PortEnabled_Callback
                0x08005700        0x8 ../../libDaisy/build\libdaisy.a(usbh_conf.o)
                0x08005700                HAL_HCD_PortEnabled_Callback
 .text.HAL_HCD_PortDisabled_Callback
                0x08005708        0x8 ../../libDaisy/build\libdaisy.a(usbh_conf.o)
                0x08005708                HAL_HCD_PortDisabled_Callback
 .text.USBH_LL_Stop
                0x08005710       0x1c ../../libDaisy/build\libdaisy.a(usbh_conf.o)
                0x08005710                USBH_LL_Stop
 .text.dsy_hal_map_get_port
                0x0800572c       0x10 ../../libDaisy/build\libdaisy.a(hal_map.o)
                0x0800572c                dsy_hal_map_get_port
 .text.dsy_hal_map_get_pin
                0x0800573c       0x10 ../../libDaisy/build\libdaisy.a(hal_map.o)
                0x0800573c                dsy_hal_map_get_pin
 .text.dsy_hal_map_gpio_clk_enable
                0x0800574c      0x150 ../../libDaisy/build\libdaisy.a(hal_map.o)
                0x0800574c                dsy_hal_map_gpio_clk_enable
 .text.HAL_MspInit
                0x0800589c        0x4 ../../libDaisy/build\libdaisy.a(stm32h7xx_hal.o)
                0x0800589c                HAL_MspInit
 .text.HAL_InitTick
                0x080058a0       0x4c ../../libDaisy/build\libdaisy.a(stm32h7xx_hal.o)
                0x080058a0                HAL_InitTick
 .text.HAL_Init
                0x080058ec       0x60 ../../libDaisy/build\libdaisy.a(stm32h7xx_hal.o)
                0x080058ec                HAL_Init
 .text.HAL_IncTick
                0x0800594c       0x18 ../../libDaisy/build\libdaisy.a(stm32h7xx_hal.o)
                0x0800594c                HAL_IncTick
 .text.HAL_GetTick
                0x08005964        0xc ../../libDaisy/build\libdaisy.a(stm32h7xx_hal.o)
                0x08005964                HAL_GetTick
 .text.HAL_Delay
                0x08005970       0x24 ../../libDaisy/build\libdaisy.a(stm32h7xx_hal.o)
                0x08005970                HAL_Delay
 .text.HAL_GetREVID
                0x08005994        0xc ../../libDaisy/build\libdaisy.a(stm32h7xx_hal.o)
                0x08005994                HAL_GetREVID
 .text.HAL_NVIC_SetPriorityGrouping
                0x080059a0       0x24 ../../libDaisy/build\libdaisy.a(stm32h7xx_hal_cortex.o)
                0x080059a0                HAL_NVIC_SetPriorityGrouping
 .text.HAL_NVIC_SetPriority
                0x080059c4       0x7c ../../libDaisy/build\libdaisy.a(stm32h7xx_hal_cortex.o)
                0x080059c4                HAL_NVIC_SetPriority
 .text.HAL_NVIC_EnableIRQ
                0x08005a40       0x1c ../../libDaisy/build\libdaisy.a(stm32h7xx_hal_cortex.o)
                0x08005a40                HAL_NVIC_EnableIRQ
 .text.HAL_NVIC_DisableIRQ
                0x08005a5c       0x28 ../../libDaisy/build\libdaisy.a(stm32h7xx_hal_cortex.o)
                0x08005a5c                HAL_NVIC_DisableIRQ
 .text.HAL_SYSTICK_Config
                0x08005a84       0x2c ../../libDaisy/build\libdaisy.a(stm32h7xx_hal_cortex.o)
                0x08005a84                HAL_SYSTICK_Config
 .text.HAL_MPU_Disable
                0x08005ab0       0x1c ../../libDaisy/build\libdaisy.a(stm32h7xx_hal_cortex.o)
                0x08005ab0                HAL_MPU_Disable
 .text.HAL_MPU_Enable
                0x08005acc       0x20 ../../libDaisy/build\libdaisy.a(stm32h7xx_hal_cortex.o)
                0x08005acc                HAL_MPU_Enable
 .text.HAL_MPU_ConfigRegion
                0x08005aec       0x64 ../../libDaisy/build\libdaisy.a(stm32h7xx_hal_cortex.o)
                0x08005aec                HAL_MPU_ConfigRegion
 .text.HAL_SYSTICK_Callback
                0x08005b50        0x4 ../../libDaisy/build\libdaisy.a(stm32h7xx_hal_cortex.o)
                0x08005b50                HAL_SYSTICK_Callback
 .text.HAL_SYSTICK_IRQHandler
                0x08005b54        0x8 ../../libDaisy/build\libdaisy.a(stm32h7xx_hal_cortex.o)
                0x08005b54                HAL_SYSTICK_IRQHandler
 .text.DMA_CalcBaseAndBitshift
                0x08005b5c       0xf4 ../../libDaisy/build\libdaisy.a(stm32h7xx_hal_dma.o)
 .text.DMA_CalcDMAMUXChannelBaseAndMask
                0x08005c50       0xd8 ../../libDaisy/build\libdaisy.a(stm32h7xx_hal_dma.o)
 .text.HAL_DMA_Init
                0x08005d28      0x37c ../../libDaisy/build\libdaisy.a(stm32h7xx_hal_dma.o)
                0x08005d28                HAL_DMA_Init
 .text.HAL_DMA_Start_IT
                0x080060a4      0x240 ../../libDaisy/build\libdaisy.a(stm32h7xx_hal_dma.o)
                0x080060a4                HAL_DMA_Start_IT
 .text.HAL_DMA_Abort_IT
                0x080062e4      0x134 ../../libDaisy/build\libdaisy.a(stm32h7xx_hal_dma.o)
                0x080062e4                HAL_DMA_Abort_IT
 .text.HAL_DMA_IRQHandler
                0x08006418      0x6a0 ../../libDaisy/build\libdaisy.a(stm32h7xx_hal_dma.o)
                0x08006418                HAL_DMA_IRQHandler
 .text.HAL_DMA_GetError
                0x08006ab8        0x4 ../../libDaisy/build\libdaisy.a(stm32h7xx_hal_dma.o)
                0x08006ab8                HAL_DMA_GetError
 .text.HAL_GPIO_Init
                0x08006abc      0x280 ../../libDaisy/build\libdaisy.a(stm32h7xx_hal_gpio.o)
                0x08006abc                HAL_GPIO_Init
 .text.HAL_GPIO_DeInit
                0x08006d3c      0x190 ../../libDaisy/build\libdaisy.a(stm32h7xx_hal_gpio.o)
                0x08006d3c                HAL_GPIO_DeInit
 .text.HAL_GPIO_ReadPin
                0x08006ecc        0xc ../../libDaisy/build\libdaisy.a(stm32h7xx_hal_gpio.o)
                0x08006ecc                HAL_GPIO_ReadPin
 .text.HAL_GPIO_WritePin
                0x08006ed8        0x8 ../../libDaisy/build\libdaisy.a(stm32h7xx_hal_gpio.o)
                0x08006ed8                HAL_GPIO_WritePin
 .text.HAL_HCD_IRQHandler
                0x08006ee0      0x780 ../../libDaisy/build\libdaisy.a(stm32h7xx_hal_hcd.o)
                0x08006ee0                HAL_HCD_IRQHandler
 .text.HAL_HCD_Stop
                0x08007660       0x28 ../../libDaisy/build\libdaisy.a(stm32h7xx_hal_hcd.o)
                0x08007660                HAL_HCD_Stop
 .text.I2C_WaitOnTXISFlagUntilTimeout
                0x08007688       0xb8 ../../libDaisy/build\libdaisy.a(stm32h7xx_hal_i2c.o)
 .text.I2C_WaitOnSTOPFlagUntilTimeout
                0x08007740       0xac ../../libDaisy/build\libdaisy.a(stm32h7xx_hal_i2c.o)
 .text.HAL_I2C_Init
                0x080077ec       0xac ../../libDaisy/build\libdaisy.a(stm32h7xx_hal_i2c.o)
                0x080077ec                HAL_I2C_Init
 .text.HAL_I2C_Master_Transmit
                0x08007898      0x1a8 ../../libDaisy/build\libdaisy.a(stm32h7xx_hal_i2c.o)
                0x08007898                HAL_I2C_Master_Transmit
 .text.HAL_I2C_Slave_Transmit
                0x08007a40      0x1c8 ../../libDaisy/build\libdaisy.a(stm32h7xx_hal_i2c.o)
                0x08007a40                HAL_I2C_Slave_Transmit
 .text.HAL_I2C_EV_IRQHandler
                0x08007c08       0x10 ../../libDaisy/build\libdaisy.a(stm32h7xx_hal_i2c.o)
                0x08007c08                HAL_I2C_EV_IRQHandler
 .text.HAL_I2C_GetState
                0x08007c18        0x8 ../../libDaisy/build\libdaisy.a(stm32h7xx_hal_i2c.o)
                0x08007c18                HAL_I2C_GetState
 .text.HAL_I2CEx_ConfigAnalogFilter
                0x08007c20       0x54 ../../libDaisy/build\libdaisy.a(stm32h7xx_hal_i2c_ex.o)
                0x08007c20                HAL_I2CEx_ConfigAnalogFilter
 .text.HAL_I2CEx_ConfigDigitalFilter
                0x08007c74       0x58 ../../libDaisy/build\libdaisy.a(stm32h7xx_hal_i2c_ex.o)
                0x08007c74                HAL_I2CEx_ConfigDigitalFilter
 .text.HAL_PCD_Init
                0x08007ccc      0x12c ../../libDaisy/build\libdaisy.a(stm32h7xx_hal_pcd.o)
                0x08007ccc                HAL_PCD_Init
 .text.HAL_PCD_Start
                0x08007df8       0x44 ../../libDaisy/build\libdaisy.a(stm32h7xx_hal_pcd.o)
                0x08007df8                HAL_PCD_Start
 .text.HAL_PCD_IRQHandler
                0x08007e3c      0x69c ../../libDaisy/build\libdaisy.a(stm32h7xx_hal_pcd.o)
                0x08007e3c                HAL_PCD_IRQHandler
 .text.HAL_PCD_SetAddress
                0x080084d8       0x2c ../../libDaisy/build\libdaisy.a(stm32h7xx_hal_pcd.o)
                0x080084d8                HAL_PCD_SetAddress
 .text.HAL_PCD_EP_Open
                0x08008504       0x7c ../../libDaisy/build\libdaisy.a(stm32h7xx_hal_pcd.o)
                0x08008504                HAL_PCD_EP_Open
 .text.HAL_PCD_EP_Close
                0x08008580       0x6c ../../libDaisy/build\libdaisy.a(stm32h7xx_hal_pcd.o)
                0x08008580                HAL_PCD_EP_Close
 .text.HAL_PCD_EP_Receive
                0x080085ec       0x50 ../../libDaisy/build\libdaisy.a(stm32h7xx_hal_pcd.o)
                0x080085ec                HAL_PCD_EP_Receive
 .text.HAL_PCD_EP_GetRxCount
                0x0800863c       0x14 ../../libDaisy/build\libdaisy.a(stm32h7xx_hal_pcd.o)
                0x0800863c                HAL_PCD_EP_GetRxCount
 .text.HAL_PCD_EP_Transmit
                0x08008650       0x50 ../../libDaisy/build\libdaisy.a(stm32h7xx_hal_pcd.o)
                0x08008650                HAL_PCD_EP_Transmit
 .text.HAL_PCD_EP_SetStall
                0x080086a0       0x88 ../../libDaisy/build\libdaisy.a(stm32h7xx_hal_pcd.o)
                0x080086a0                HAL_PCD_EP_SetStall
 .text.HAL_PCD_EP_ClrStall
                0x08008728       0x78 ../../libDaisy/build\libdaisy.a(stm32h7xx_hal_pcd.o)
                0x08008728                HAL_PCD_EP_ClrStall
 .text.HAL_PCDEx_SetTxFiFo
                0x080087a0       0x54 ../../libDaisy/build\libdaisy.a(stm32h7xx_hal_pcd_ex.o)
                0x080087a0                HAL_PCDEx_SetTxFiFo
 .text.HAL_PCDEx_SetRxFiFo
                0x080087f4        0xc ../../libDaisy/build\libdaisy.a(stm32h7xx_hal_pcd_ex.o)
                0x080087f4                HAL_PCDEx_SetRxFiFo
 .text.HAL_PCDEx_ActivateLPM
                0x08008800       0x30 ../../libDaisy/build\libdaisy.a(stm32h7xx_hal_pcd_ex.o)
                0x08008800                HAL_PCDEx_ActivateLPM
 .text.HAL_PCDEx_LPM_Callback
                0x08008830        0x4 ../../libDaisy/build\libdaisy.a(stm32h7xx_hal_pcd_ex.o)
                0x08008830                HAL_PCDEx_LPM_Callback
 .text.HAL_PWREx_ConfigSupply
                0x08008834       0x4c ../../libDaisy/build\libdaisy.a(stm32h7xx_hal_pwr_ex.o)
                0x08008834                HAL_PWREx_ConfigSupply
 .text.HAL_PWREx_EnableUSBVoltageDetector
                0x08008880       0x10 ../../libDaisy/build\libdaisy.a(stm32h7xx_hal_pwr_ex.o)
                0x08008880                HAL_PWREx_EnableUSBVoltageDetector
 .text.QSPI_Config
                0x08008890      0x174 ../../libDaisy/build\libdaisy.a(stm32h7xx_hal_qspi.o)
 .text.HAL_QSPI_Init
                0x08008a04       0xd8 ../../libDaisy/build\libdaisy.a(stm32h7xx_hal_qspi.o)
                0x08008a04                HAL_QSPI_Init
 .text.HAL_QSPI_DeInit
                0x08008adc       0x3c ../../libDaisy/build\libdaisy.a(stm32h7xx_hal_qspi.o)
                0x08008adc                HAL_QSPI_DeInit
 .text.HAL_QSPI_Command
                0x08008b18       0xd4 ../../libDaisy/build\libdaisy.a(stm32h7xx_hal_qspi.o)
                0x08008b18                HAL_QSPI_Command
 .text.HAL_QSPI_Transmit
                0x08008bec       0xfc ../../libDaisy/build\libdaisy.a(stm32h7xx_hal_qspi.o)
                0x08008bec                HAL_QSPI_Transmit
 .text.HAL_QSPI_Receive
                0x08008ce8      0x108 ../../libDaisy/build\libdaisy.a(stm32h7xx_hal_qspi.o)
                0x08008ce8                HAL_QSPI_Receive
 .text.HAL_QSPI_AutoPolling
                0x08008df0       0xf0 ../../libDaisy/build\libdaisy.a(stm32h7xx_hal_qspi.o)
                0x08008df0                HAL_QSPI_AutoPolling
 .text.HAL_QSPI_MemoryMapped
                0x08008ee0       0xc0 ../../libDaisy/build\libdaisy.a(stm32h7xx_hal_qspi.o)
                0x08008ee0                HAL_QSPI_MemoryMapped
 .text.HAL_QSPI_ErrorCallback
                0x08008fa0        0x4 ../../libDaisy/build\libdaisy.a(stm32h7xx_hal_qspi.o)
                0x08008fa0                HAL_QSPI_ErrorCallback
 .text.QSPI_DMAAbortCplt
                0x08008fa4       0x38 ../../libDaisy/build\libdaisy.a(stm32h7xx_hal_qspi.o)
 .text.HAL_QSPI_AbortCpltCallback
                0x08008fdc        0x4 ../../libDaisy/build\libdaisy.a(stm32h7xx_hal_qspi.o)
                0x08008fdc                HAL_QSPI_AbortCpltCallback
 .text.HAL_QSPI_CmdCpltCallback
                0x08008fe0        0x4 ../../libDaisy/build\libdaisy.a(stm32h7xx_hal_qspi.o)
                0x08008fe0                HAL_QSPI_CmdCpltCallback
 .text.HAL_QSPI_RxCpltCallback
                0x08008fe4        0x4 ../../libDaisy/build\libdaisy.a(stm32h7xx_hal_qspi.o)
                0x08008fe4                HAL_QSPI_RxCpltCallback
 .text.HAL_QSPI_TxCpltCallback
                0x08008fe8        0x4 ../../libDaisy/build\libdaisy.a(stm32h7xx_hal_qspi.o)
                0x08008fe8                HAL_QSPI_TxCpltCallback
 .text.HAL_QSPI_FifoThresholdCallback
                0x08008fec        0x4 ../../libDaisy/build\libdaisy.a(stm32h7xx_hal_qspi.o)
                0x08008fec                HAL_QSPI_FifoThresholdCallback
 .text.HAL_QSPI_StatusMatchCallback
                0x08008ff0        0x4 ../../libDaisy/build\libdaisy.a(stm32h7xx_hal_qspi.o)
                0x08008ff0                HAL_QSPI_StatusMatchCallback
 .text.HAL_QSPI_TimeOutCallback
                0x08008ff4        0x4 ../../libDaisy/build\libdaisy.a(stm32h7xx_hal_qspi.o)
                0x08008ff4                HAL_QSPI_TimeOutCallback
 .text.HAL_QSPI_IRQHandler
                0x08008ff8      0x210 ../../libDaisy/build\libdaisy.a(stm32h7xx_hal_qspi.o)
                0x08008ff8                HAL_QSPI_IRQHandler
 .text.HAL_RCC_OscConfig
                0x08009208      0x51c ../../libDaisy/build\libdaisy.a(stm32h7xx_hal_rcc.o)
                0x08009208                HAL_RCC_OscConfig
 .text.HAL_RCC_GetSysClockFreq
                0x08009724      0x140 ../../libDaisy/build\libdaisy.a(stm32h7xx_hal_rcc.o)
                0x08009724                HAL_RCC_GetSysClockFreq
 .text.HAL_RCC_ClockConfig
                0x08009864      0x234 ../../libDaisy/build\libdaisy.a(stm32h7xx_hal_rcc.o)
                0x08009864                HAL_RCC_ClockConfig
 .text.HAL_RCC_GetHCLKFreq
                0x08009a98       0x2c ../../libDaisy/build\libdaisy.a(stm32h7xx_hal_rcc.o)
                0x08009a98                HAL_RCC_GetHCLKFreq
 .text.HAL_RCC_GetPCLK1Freq
                0x08009ac4       0x38 ../../libDaisy/build\libdaisy.a(stm32h7xx_hal_rcc.o)
                0x08009ac4                HAL_RCC_GetPCLK1Freq
 .text.HAL_RCC_GetPCLK2Freq
                0x08009afc       0x38 ../../libDaisy/build\libdaisy.a(stm32h7xx_hal_rcc.o)
                0x08009afc                HAL_RCC_GetPCLK2Freq
 .text.RCCEx_PLL2_Config
                0x08009b34       0xf4 ../../libDaisy/build\libdaisy.a(stm32h7xx_hal_rcc_ex.o)
 .text.RCCEx_PLL3_Config
                0x08009c28       0xf4 ../../libDaisy/build\libdaisy.a(stm32h7xx_hal_rcc_ex.o)
 .text.HAL_RCCEx_PeriphCLKConfig
                0x08009d1c      0xa7c ../../libDaisy/build\libdaisy.a(stm32h7xx_hal_rcc_ex.o)
                0x08009d1c                HAL_RCCEx_PeriphCLKConfig
 .text.HAL_RCCEx_GetD3PCLK1Freq
                0x0800a798       0x24 ../../libDaisy/build\libdaisy.a(stm32h7xx_hal_rcc_ex.o)
                0x0800a798                HAL_RCCEx_GetD3PCLK1Freq
 .text.HAL_RCCEx_GetPLL2ClockFreq
                0x0800a7bc      0x17c ../../libDaisy/build\libdaisy.a(stm32h7xx_hal_rcc_ex.o)
                0x0800a7bc                HAL_RCCEx_GetPLL2ClockFreq
 .text.HAL_RCCEx_GetPLL3ClockFreq
                0x0800a938      0x17c ../../libDaisy/build\libdaisy.a(stm32h7xx_hal_rcc_ex.o)
                0x0800a938                HAL_RCCEx_GetPLL3ClockFreq
 .text.HAL_RCCEx_GetPLL1ClockFreq
                0x0800aab4      0x17c ../../libDaisy/build\libdaisy.a(stm32h7xx_hal_rcc_ex.o)
                0x0800aab4                HAL_RCCEx_GetPLL1ClockFreq
 .text.HAL_RCCEx_GetPeriphCLKFreq
                0x0800ac30      0x198 ../../libDaisy/build\libdaisy.a(stm32h7xx_hal_rcc_ex.o)
                0x0800ac30                HAL_RCCEx_GetPeriphCLKFreq
 .text.HAL_RCCEx_GetD1SysClockFreq
                0x0800adc8       0x2c ../../libDaisy/build\libdaisy.a(stm32h7xx_hal_rcc_ex.o)
                0x0800adc8                HAL_RCCEx_GetD1SysClockFreq
 .text.HAL_SAI_Init.part.0
                0x0800adf4      0x348 ../../libDaisy/build\libdaisy.a(stm32h7xx_hal_sai.o)
 .text.HAL_SAI_InitProtocol
                0x0800b13c      0x178 ../../libDaisy/build\libdaisy.a(stm32h7xx_hal_sai.o)
                0x0800b13c                HAL_SAI_InitProtocol
 .text.HAL_SAI_Transmit_DMA
                0x0800b2b4      0x124 ../../libDaisy/build\libdaisy.a(stm32h7xx_hal_sai.o)
                0x0800b2b4                HAL_SAI_Transmit_DMA
 .text.HAL_SAI_Receive_DMA
                0x0800b3d8       0xd0 ../../libDaisy/build\libdaisy.a(stm32h7xx_hal_sai.o)
                0x0800b3d8                HAL_SAI_Receive_DMA
 .text.HAL_SAI_TxCpltCallback
                0x0800b4a8        0x4 ../../libDaisy/build\libdaisy.a(stm32h7xx_hal_sai.o)
                0x0800b4a8                HAL_SAI_TxCpltCallback
 .text.SAI_DMATxCplt
                0x0800b4ac       0x64 ../../libDaisy/build\libdaisy.a(stm32h7xx_hal_sai.o)
 .text.HAL_SAI_TxHalfCpltCallback
                0x0800b510        0x4 ../../libDaisy/build\libdaisy.a(stm32h7xx_hal_sai.o)
                0x0800b510                HAL_SAI_TxHalfCpltCallback
 .text.SAI_DMATxHalfCplt
                0x0800b514        0xc ../../libDaisy/build\libdaisy.a(stm32h7xx_hal_sai.o)
 .text.SAI_DMARxCplt
                0x0800b520       0x64 ../../libDaisy/build\libdaisy.a(stm32h7xx_hal_sai.o)
 .text.SAI_DMARxHalfCplt
                0x0800b584        0xc ../../libDaisy/build\libdaisy.a(stm32h7xx_hal_sai.o)
 .text.HAL_SAI_ErrorCallback
                0x0800b590        0x4 ../../libDaisy/build\libdaisy.a(stm32h7xx_hal_sai.o)
                0x0800b590                HAL_SAI_ErrorCallback
 .text.SAI_DMAError
                0x0800b594       0x6c ../../libDaisy/build\libdaisy.a(stm32h7xx_hal_sai.o)
 .text.HAL_SDRAM_Init
                0x0800b600       0x54 ../../libDaisy/build\libdaisy.a(stm32h7xx_hal_sdram.o)
                0x0800b600                HAL_SDRAM_Init
 .text.HAL_SDRAM_SendCommand
                0x0800b654       0x40 ../../libDaisy/build\libdaisy.a(stm32h7xx_hal_sdram.o)
                0x0800b654                HAL_SDRAM_SendCommand
 .text.HAL_SDRAM_ProgramRefreshRate
                0x0800b694       0x30 ../../libDaisy/build\libdaisy.a(stm32h7xx_hal_sdram.o)
                0x0800b694                HAL_SDRAM_ProgramRefreshRate
 .text.HAL_TIM_Base_Init
                0x0800b6c4      0x140 ../../libDaisy/build\libdaisy.a(stm32h7xx_hal_tim.o)
                0x0800b6c4                HAL_TIM_Base_Init
 .text.HAL_TIM_Base_Start
                0x0800b804       0x34 ../../libDaisy/build\libdaisy.a(stm32h7xx_hal_tim.o)
                0x0800b804                HAL_TIM_Base_Start
 .text.HAL_TIM_Base_Start_IT
                0x0800b838       0x2c ../../libDaisy/build\libdaisy.a(stm32h7xx_hal_tim.o)
                0x0800b838                HAL_TIM_Base_Start_IT
 .text.HAL_TIM_ConfigClockSource
                0x0800b864      0x17c ../../libDaisy/build\libdaisy.a(stm32h7xx_hal_tim.o)
                0x0800b864                HAL_TIM_ConfigClockSource
 .text.HAL_TIM_OC_DelayElapsedCallback
                0x0800b9e0        0x4 ../../libDaisy/build\libdaisy.a(stm32h7xx_hal_tim.o)
                0x0800b9e0                HAL_TIM_OC_DelayElapsedCallback
 .text.HAL_TIM_IC_CaptureCallback
                0x0800b9e4        0x4 ../../libDaisy/build\libdaisy.a(stm32h7xx_hal_tim.o)
                0x0800b9e4                HAL_TIM_IC_CaptureCallback
 .text.HAL_TIM_PWM_PulseFinishedCallback
                0x0800b9e8        0x4 ../../libDaisy/build\libdaisy.a(stm32h7xx_hal_tim.o)
                0x0800b9e8                HAL_TIM_PWM_PulseFinishedCallback
 .text.HAL_TIM_TriggerCallback
                0x0800b9ec        0x4 ../../libDaisy/build\libdaisy.a(stm32h7xx_hal_tim.o)
                0x0800b9ec                HAL_TIM_TriggerCallback
 .text.HAL_TIM_IRQHandler
                0x0800b9f0      0x170 ../../libDaisy/build\libdaisy.a(stm32h7xx_hal_tim.o)
                0x0800b9f0                HAL_TIM_IRQHandler
 .text.HAL_TIMEx_MasterConfigSynchronization
                0x0800bb60       0x64 ../../libDaisy/build\libdaisy.a(stm32h7xx_hal_tim_ex.o)
                0x0800bb60                HAL_TIMEx_MasterConfigSynchronization
 .text.HAL_TIMEx_CommutCallback
                0x0800bbc4        0x4 ../../libDaisy/build\libdaisy.a(stm32h7xx_hal_tim_ex.o)
                0x0800bbc4                HAL_TIMEx_CommutCallback
 .text.HAL_TIMEx_BreakCallback
                0x0800bbc8        0x4 ../../libDaisy/build\libdaisy.a(stm32h7xx_hal_tim_ex.o)
                0x0800bbc8                HAL_TIMEx_BreakCallback
 .text.HAL_TIMEx_Break2Callback
                0x0800bbcc        0x4 ../../libDaisy/build\libdaisy.a(stm32h7xx_hal_tim_ex.o)
                0x0800bbcc                HAL_TIMEx_Break2Callback
 .text.FMC_SDRAM_Init
                0x0800bbd0       0x7c ../../libDaisy/build\libdaisy.a(stm32h7xx_ll_fmc.o)
                0x0800bbd0                FMC_SDRAM_Init
 .text.FMC_SDRAM_Timing_Init
                0x0800bc4c       0x98 ../../libDaisy/build\libdaisy.a(stm32h7xx_ll_fmc.o)
                0x0800bc4c                FMC_SDRAM_Timing_Init
 .text.FMC_SDRAM_SendCommand
                0x0800bce4       0x28 ../../libDaisy/build\libdaisy.a(stm32h7xx_ll_fmc.o)
                0x0800bce4                FMC_SDRAM_SendCommand
 .text.FMC_SDRAM_ProgramRefreshRate
                0x0800bd0c       0x1c ../../libDaisy/build\libdaisy.a(stm32h7xx_ll_fmc.o)
                0x0800bd0c                FMC_SDRAM_ProgramRefreshRate
 .text.USB_CoreInit
                0x0800bd28      0x124 ../../libDaisy/build\libdaisy.a(stm32h7xx_ll_usb.o)
                0x0800bd28                USB_CoreInit
 .text.USB_SetTurnaroundTime
                0x0800be4c      0x104 ../../libDaisy/build\libdaisy.a(stm32h7xx_ll_usb.o)
                0x0800be4c                USB_SetTurnaroundTime
 .text.USB_EnableGlobalInt
                0x0800bf50       0x10 ../../libDaisy/build\libdaisy.a(stm32h7xx_ll_usb.o)
                0x0800bf50                USB_EnableGlobalInt
 .text.USB_DisableGlobalInt
                0x0800bf60       0x10 ../../libDaisy/build\libdaisy.a(stm32h7xx_ll_usb.o)
                0x0800bf60                USB_DisableGlobalInt
 .text.USB_SetCurrentMode
                0x0800bf70       0x30 ../../libDaisy/build\libdaisy.a(stm32h7xx_ll_usb.o)
                0x0800bf70                USB_SetCurrentMode
 .text.USB_DevInit
                0x0800bfa0      0x20c ../../libDaisy/build\libdaisy.a(stm32h7xx_ll_usb.o)
                0x0800bfa0                USB_DevInit
 .text.USB_FlushTxFifo
                0x0800c1ac       0x34 ../../libDaisy/build\libdaisy.a(stm32h7xx_ll_usb.o)
                0x0800c1ac                USB_FlushTxFifo
 .text.USB_GetDevSpeed
                0x0800c1e0       0x24 ../../libDaisy/build\libdaisy.a(stm32h7xx_ll_usb.o)
                0x0800c1e0                USB_GetDevSpeed
 .text.USB_ActivateEndpoint
                0x0800c204       0x90 ../../libDaisy/build\libdaisy.a(stm32h7xx_ll_usb.o)
                0x0800c204                USB_ActivateEndpoint
 .text.USB_DeactivateEndpoint
                0x0800c294       0x84 ../../libDaisy/build\libdaisy.a(stm32h7xx_ll_usb.o)
                0x0800c294                USB_DeactivateEndpoint
 .text.USB_EPStartXfer
                0x0800c318      0x230 ../../libDaisy/build\libdaisy.a(stm32h7xx_ll_usb.o)
                0x0800c318                USB_EPStartXfer
 .text.USB_EP0StartXfer
                0x0800c548      0x174 ../../libDaisy/build\libdaisy.a(stm32h7xx_ll_usb.o)
                0x0800c548                USB_EP0StartXfer
 .text.USB_WritePacket
                0x0800c6bc       0x2c ../../libDaisy/build\libdaisy.a(stm32h7xx_ll_usb.o)
                0x0800c6bc                USB_WritePacket
 .text.USB_ReadPacket
                0x0800c6e8       0x20 ../../libDaisy/build\libdaisy.a(stm32h7xx_ll_usb.o)
                0x0800c6e8                USB_ReadPacket
 .text.USB_EPSetStall
                0x0800c708       0x68 ../../libDaisy/build\libdaisy.a(stm32h7xx_ll_usb.o)
                0x0800c708                USB_EPSetStall
 .text.USB_EPClearStall
                0x0800c770       0x58 ../../libDaisy/build\libdaisy.a(stm32h7xx_ll_usb.o)
                0x0800c770                USB_EPClearStall
 .text.USB_SetDevAddress
                0x0800c7c8       0x24 ../../libDaisy/build\libdaisy.a(stm32h7xx_ll_usb.o)
                0x0800c7c8                USB_SetDevAddress
 .text.USB_DevConnect
                0x0800c7ec       0x1c ../../libDaisy/build\libdaisy.a(stm32h7xx_ll_usb.o)
                0x0800c7ec                USB_DevConnect
 .text.USB_DevDisconnect
                0x0800c808       0x1c ../../libDaisy/build\libdaisy.a(stm32h7xx_ll_usb.o)
                0x0800c808                USB_DevDisconnect
 .text.USB_ReadInterrupts
                0x0800c824       0x14 ../../libDaisy/build\libdaisy.a(stm32h7xx_ll_usb.o)
                0x0800c824                USB_ReadInterrupts
 .text.USB_ReadDevAllOutEpInterrupt
                0x0800c838       0x1c ../../libDaisy/build\libdaisy.a(stm32h7xx_ll_usb.o)
                0x0800c838                USB_ReadDevAllOutEpInterrupt
 .text.USB_ReadDevAllInEpInterrupt
                0x0800c854       0x1c ../../libDaisy/build\libdaisy.a(stm32h7xx_ll_usb.o)
                0x0800c854                USB_ReadDevAllInEpInterrupt
 .text.USB_ReadDevOutEPInterrupt
                0x0800c870       0x1c ../../libDaisy/build\libdaisy.a(stm32h7xx_ll_usb.o)
                0x0800c870                USB_ReadDevOutEPInterrupt
 .text.USB_ReadDevInEPInterrupt
                0x0800c88c       0x38 ../../libDaisy/build\libdaisy.a(stm32h7xx_ll_usb.o)
                0x0800c88c                USB_ReadDevInEPInterrupt
 .text.USB_GetMode
                0x0800c8c4        0x8 ../../libDaisy/build\libdaisy.a(stm32h7xx_ll_usb.o)
                0x0800c8c4                USB_GetMode
 .text.USB_ActivateSetup
                0x0800c8cc       0x38 ../../libDaisy/build\libdaisy.a(stm32h7xx_ll_usb.o)
                0x0800c8cc                USB_ActivateSetup
 .text.USB_EP0_OutStart
                0x0800c904       0x58 ../../libDaisy/build\libdaisy.a(stm32h7xx_ll_usb.o)
                0x0800c904                USB_EP0_OutStart
 .text.USB_InitFSLSPClkSel
                0x0800c95c       0x44 ../../libDaisy/build\libdaisy.a(stm32h7xx_ll_usb.o)
                0x0800c95c                USB_InitFSLSPClkSel
 .text.USB_HC_ReadInterrupt
                0x0800c9a0        0x8 ../../libDaisy/build\libdaisy.a(stm32h7xx_ll_usb.o)
                0x0800c9a0                USB_HC_ReadInterrupt
 .text.USB_HC_Halt
                0x0800c9a8       0xc0 ../../libDaisy/build\libdaisy.a(stm32h7xx_ll_usb.o)
                0x0800c9a8                USB_HC_Halt
 .text.USB_StopHost
                0x0800ca68      0x2ec ../../libDaisy/build\libdaisy.a(stm32h7xx_ll_usb.o)
                0x0800ca68                USB_StopHost
 .text.USBD_Init
                0x0800cd54       0x44 ../../libDaisy/build\libdaisy.a(usbd_core.o)
                0x0800cd54                USBD_Init
 .text.USBD_RegisterClass
                0x0800cd98       0x2c ../../libDaisy/build\libdaisy.a(usbd_core.o)
                0x0800cd98                USBD_RegisterClass
 .text.USBD_Start
                0x0800cdc4        0xc ../../libDaisy/build\libdaisy.a(usbd_core.o)
                0x0800cdc4                USBD_Start
 .text.USBD_SetClassConfig
                0x0800cdd0       0x14 ../../libDaisy/build\libdaisy.a(usbd_core.o)
                0x0800cdd0                USBD_SetClassConfig
 .text.USBD_ClrClassConfig
                0x0800cde4       0x10 ../../libDaisy/build\libdaisy.a(usbd_core.o)
                0x0800cde4                USBD_ClrClassConfig
 .text.USBD_LL_SetupStage
                0x0800cdf4       0x5c ../../libDaisy/build\libdaisy.a(usbd_core.o)
                0x0800cdf4                USBD_LL_SetupStage
 .text.USBD_LL_DataOutStage
                0x0800ce50       0x7c ../../libDaisy/build\libdaisy.a(usbd_core.o)
                0x0800ce50                USBD_LL_DataOutStage
 .text.USBD_LL_DataInStage
                0x0800cecc       0xcc ../../libDaisy/build\libdaisy.a(usbd_core.o)
                0x0800cecc                USBD_LL_DataInStage
 .text.USBD_LL_Reset
                0x0800cf98       0x50 ../../libDaisy/build\libdaisy.a(usbd_core.o)
                0x0800cf98                USBD_LL_Reset
 .text.USBD_LL_SetSpeed
                0x0800cfe8        0x8 ../../libDaisy/build\libdaisy.a(usbd_core.o)
                0x0800cfe8                USBD_LL_SetSpeed
 .text.USBD_LL_Suspend
                0x0800cff0       0x14 ../../libDaisy/build\libdaisy.a(usbd_core.o)
                0x0800cff0                USBD_LL_Suspend
 .text.USBD_LL_Resume
                0x0800d004       0x10 ../../libDaisy/build\libdaisy.a(usbd_core.o)
                0x0800d004                USBD_LL_Resume
 .text.USBD_LL_SOF
                0x0800d014       0x1c ../../libDaisy/build\libdaisy.a(usbd_core.o)
                0x0800d014                USBD_LL_SOF
 .text.USBD_LL_IsoINIncomplete
                0x0800d030        0x4 ../../libDaisy/build\libdaisy.a(usbd_core.o)
                0x0800d030                USBD_LL_IsoINIncomplete
 .text.USBD_LL_IsoOUTIncomplete
                0x0800d034        0x4 ../../libDaisy/build\libdaisy.a(usbd_core.o)
                0x0800d034                USBD_LL_IsoOUTIncomplete
 .text.USBD_LL_DevConnected
                0x0800d038        0x4 ../../libDaisy/build\libdaisy.a(usbd_core.o)
                0x0800d038                USBD_LL_DevConnected
 .text.USBD_LL_DevDisconnected
                0x0800d03c       0x18 ../../libDaisy/build\libdaisy.a(usbd_core.o)
                0x0800d03c                USBD_LL_DevDisconnected
 .text.USBD_StdDevReq
                0x0800d054      0x304 ../../libDaisy/build\libdaisy.a(usbd_ctlreq.o)
                0x0800d054                USBD_StdDevReq
 .text.USBD_StdItfReq
                0x0800d358       0x68 ../../libDaisy/build\libdaisy.a(usbd_ctlreq.o)
                0x0800d358                USBD_StdItfReq
 .text.USBD_StdEPReq
                0x0800d3c0      0x13c ../../libDaisy/build\libdaisy.a(usbd_ctlreq.o)
                0x0800d3c0                USBD_StdEPReq
 .text.USBD_ParseSetupRequest
                0x0800d4fc       0x28 ../../libDaisy/build\libdaisy.a(usbd_ctlreq.o)
                0x0800d4fc                USBD_ParseSetupRequest
 .text.USBD_CtlError
                0x0800d524       0x18 ../../libDaisy/build\libdaisy.a(usbd_ctlreq.o)
                0x0800d524                USBD_CtlError
 .text.USBD_GetString
                0x0800d53c       0x54 ../../libDaisy/build\libdaisy.a(usbd_ctlreq.o)
                0x0800d53c                USBD_GetString
 .text.USBD_CtlSendData
                0x0800d590       0x1c ../../libDaisy/build\libdaisy.a(usbd_ioreq.o)
                0x0800d590                USBD_CtlSendData
 .text.USBD_CtlContinueSendData
                0x0800d5ac       0x14 ../../libDaisy/build\libdaisy.a(usbd_ioreq.o)
                0x0800d5ac                USBD_CtlContinueSendData
 .text.USBD_CtlPrepareRx
                0x0800d5c0       0x1c ../../libDaisy/build\libdaisy.a(usbd_ioreq.o)
                0x0800d5c0                USBD_CtlPrepareRx
 .text.USBD_CtlContinueRx
                0x0800d5dc       0x14 ../../libDaisy/build\libdaisy.a(usbd_ioreq.o)
                0x0800d5dc                USBD_CtlContinueRx
 .text.USBD_CtlSendStatus
                0x0800d5f0       0x18 ../../libDaisy/build\libdaisy.a(usbd_ioreq.o)
                0x0800d5f0                USBD_CtlSendStatus
 .text.USBD_CtlReceiveStatus
                0x0800d608       0x18 ../../libDaisy/build\libdaisy.a(usbd_ioreq.o)
                0x0800d608                USBD_CtlReceiveStatus
 .text.USBH_LL_IncTimer
                0x0800d620       0x20 ../../libDaisy/build\libdaisy.a(usbh_core.o)
                0x0800d620                USBH_LL_IncTimer
 .text.USBH_LL_PortEnabled
                0x0800d640        0x8 ../../libDaisy/build\libdaisy.a(usbh_core.o)
                0x0800d640                USBH_LL_PortEnabled
 .text.USBH_LL_PortDisabled
                0x0800d648        0x8 ../../libDaisy/build\libdaisy.a(usbh_core.o)
                0x0800d648                USBH_LL_PortDisabled
 .text.USBH_LL_Connect
                0x0800d650       0x18 ../../libDaisy/build\libdaisy.a(usbh_core.o)
                0x0800d650                USBH_LL_Connect
 .text.USBH_LL_Disconnect
                0x0800d668       0x2c ../../libDaisy/build\libdaisy.a(usbh_core.o)
                0x0800d668                USBH_LL_Disconnect
 .text.USBH_FreePipe
                0x0800d694       0x18 ../../libDaisy/build\libdaisy.a(usbh_pipes.o)
                0x0800d694                USBH_FreePipe
 .text.DummyRxCallback
                0x0800d6ac        0x4 ../../libDaisy/build\libdaisy.a(usb.o)
                0x0800d6ac                DummyRxCallback
 .text._ZN5daisy9UsbHandle4InitENS0_9UsbPeriphE
                0x0800d6b0      0x10c ../../libDaisy/build\libdaisy.a(usb.o)
                0x0800d6b0                daisy::UsbHandle::Init(daisy::UsbHandle::UsbPeriph)
 .text._ZN5daisy9UsbHandle18SetReceiveCallbackEPFvPhPmENS0_9UsbPeriphE
                0x0800d7bc       0x38 ../../libDaisy/build\libdaisy.a(usb.o)
                0x0800d7bc                daisy::UsbHandle::SetReceiveCallback(void (*)(unsigned char*, unsigned long*), daisy::UsbHandle::UsbPeriph)
 .text.OTG_FS_EP1_OUT_IRQHandler
                0x0800d7f4        0xc ../../libDaisy/build\libdaisy.a(usb.o)
                0x0800d7f4                OTG_FS_EP1_OUT_IRQHandler
 .text.OTG_FS_EP1_IN_IRQHandler
                0x0800d800        0xc ../../libDaisy/build\libdaisy.a(usb.o)
                0x0800d800                OTG_FS_EP1_IN_IRQHandler
 .text.OTG_FS_IRQHandler
                0x0800d80c        0xc ../../libDaisy/build\libdaisy.a(usb.o)
                0x0800d80c                OTG_FS_IRQHandler
 .text._ZN5daisy6Random4InitEv
                0x0800d818       0x3c ../../libDaisy/build\libdaisy.a(rng.o)
                0x0800d818                daisy::Random::Init()
 .text._ZN5daisy9SpiHandle4Impl7InitDmaEv
                0x0800d854       0xec ../../libDaisy/build\libdaisy.a(spi.o)
                0x0800d854                daisy::SpiHandle::Impl::InitDma()
 .text._ZN5daisy9SpiHandle4Impl10StartDmaTxEPhjPFvPvEPFvS3_NS0_6ResultEES3_
                0x0800d940       0xc8 ../../libDaisy/build\libdaisy.a(spi.o)
                0x0800d940                daisy::SpiHandle::Impl::StartDmaTx(unsigned char*, unsigned int, void (*)(void*), void (*)(void*, daisy::SpiHandle::Result), void*)
 .text._ZN5daisy9SpiHandle4Impl10StartDmaRxEPhjPFvPvEPFvS3_NS0_6ResultEES3_
                0x0800da08       0xc8 ../../libDaisy/build\libdaisy.a(spi.o)
                0x0800da08                daisy::SpiHandle::Impl::StartDmaRx(unsigned char*, unsigned int, void (*)(void*), void (*)(void*, daisy::SpiHandle::Result), void*)
 .text._ZN5daisy9SpiHandle4Impl12StartDmaRxTxEPhS2_jPFvPvEPFvS3_NS0_6ResultEES3_
                0x0800dad0       0xcc ../../libDaisy/build\libdaisy.a(spi.o)
                0x0800dad0                daisy::SpiHandle::Impl::StartDmaRxTx(unsigned char*, unsigned char*, unsigned int, void (*)(void*), void (*)(void*, daisy::SpiHandle::Result), void*)
 .text._ZN5daisy9SpiHandle4Impl8InitPinsEv
                0x0800db9c      0x274 ../../libDaisy/build\libdaisy.a(spi.o)
                0x0800db9c                daisy::SpiHandle::Impl::InitPins()
 .text.HAL_SPI_MspInit
                0x0800de10      0x1a8 ../../libDaisy/build\libdaisy.a(spi.o)
                0x0800de10                HAL_SPI_MspInit
 .text.dsy_spi_global_init
                0x0800dfb8       0x80 ../../libDaisy/build\libdaisy.a(spi.o)
                0x0800dfb8                dsy_spi_global_init
 .text.SPI1_IRQHandler
                0x0800e038        0xc ../../libDaisy/build\libdaisy.a(spi.o)
                0x0800e038                SPI1_IRQHandler
 .text.SPI2_IRQHandler
                0x0800e044        0xc ../../libDaisy/build\libdaisy.a(spi.o)
                0x0800e044                SPI2_IRQHandler
 .text.SPI3_IRQHandler
                0x0800e050        0xc ../../libDaisy/build\libdaisy.a(spi.o)
                0x0800e050                SPI3_IRQHandler
 .text.SPI4_IRQHandler
                0x0800e05c        0xc ../../libDaisy/build\libdaisy.a(spi.o)
                0x0800e05c                SPI4_IRQHandler
 .text.SPI5_IRQHandler
                0x0800e068        0xc ../../libDaisy/build\libdaisy.a(spi.o)
                0x0800e068                SPI5_IRQHandler
 .text.DMA2_Stream2_IRQHandler
                0x0800e074       0x34 ../../libDaisy/build\libdaisy.a(spi.o)
                0x0800e074                DMA2_Stream2_IRQHandler
 .text.DMA2_Stream3_IRQHandler
                0x0800e0a8       0x38 ../../libDaisy/build\libdaisy.a(spi.o)
                0x0800e0a8                DMA2_Stream3_IRQHandler
 .text.HAL_SPI_TxCpltCallback
                0x0800e0e0       0xc4 ../../libDaisy/build\libdaisy.a(spi.o)
                0x0800e0e0                HAL_SPI_TxCpltCallback
 .text.HAL_SPI_RxCpltCallback
                0x0800e1a4       0xc4 ../../libDaisy/build\libdaisy.a(spi.o)
                0x0800e1a4                HAL_SPI_RxCpltCallback
 .text.HAL_SPI_TxRxCpltCallback
                0x0800e268       0xc4 ../../libDaisy/build\libdaisy.a(spi.o)
                0x0800e268                HAL_SPI_TxRxCpltCallback
 .text.HAL_SPI_ErrorCallback
                0x0800e32c       0xc8 ../../libDaisy/build\libdaisy.a(spi.o)
                0x0800e32c                HAL_SPI_ErrorCallback
 .text.startup._GLOBAL__sub_I__Z19MapInstanceToHandleP11SPI_TypeDef
                0x0800e3f4      0x1b0 ../../libDaisy/build\libdaisy.a(spi.o)
 .text._ZN5daisy11UartHandler4Impl7InitDmaEbb
                0x0800e5a4      0x164 ../../libDaisy/build\libdaisy.a(uart.o)
                0x0800e5a4                daisy::UartHandler::Impl::InitDma(bool, bool)
 .text._ZN5daisy11UartHandler4Impl10HandleFifoEv
                0x0800e708       0xec ../../libDaisy/build\libdaisy.a(uart.o)
                0x0800e708                daisy::UartHandler::Impl::HandleFifo()
 .text._ZN5daisy11UartHandler4Impl10StartDmaTxEPhjPFvPvEPFvS3_NS0_6ResultEES3_
                0x0800e7f4       0xcc ../../libDaisy/build\libdaisy.a(uart.o)
                0x0800e7f4                daisy::UartHandler::Impl::StartDmaTx(unsigned char*, unsigned int, void (*)(void*), void (*)(void*, daisy::UartHandler::Result), void*)
 .text._ZN5daisy11UartHandler4Impl10StartDmaRxEPhjPFvPvEPFvS3_NS0_6ResultEES3_
                0x0800e8c0       0xcc ../../libDaisy/build\libdaisy.a(uart.o)
                0x0800e8c0                daisy::UartHandler::Impl::StartDmaRx(unsigned char*, unsigned int, void (*)(void*), void (*)(void*, daisy::UartHandler::Result), void*)
 .text._ZN5daisy11UartHandler4Impl19DmaTransferFinishedEP20__UART_HandleTypeDefNS0_6ResultE
                0x0800e98c       0xc0 ../../libDaisy/build\libdaisy.a(uart.o)
                0x0800e98c                daisy::UartHandler::Impl::DmaTransferFinished(__UART_HandleTypeDef*, daisy::UartHandler::Result)
 .text._ZN5daisy11UartHandler4Impl8InitPinsEv
                0x0800ea4c      0x150 ../../libDaisy/build\libdaisy.a(uart.o)
                0x0800ea4c                daisy::UartHandler::Impl::InitPins()
 .text.HAL_UART_MspInit
                0x0800eb9c      0x210 ../../libDaisy/build\libdaisy.a(uart.o)
                0x0800eb9c                HAL_UART_MspInit
 .text.dsy_uart_global_init
                0x0800edac      0x110 ../../libDaisy/build\libdaisy.a(uart.o)
                0x0800edac                dsy_uart_global_init
 .text.USART1_IRQHandler
                0x0800eebc       0x30 ../../libDaisy/build\libdaisy.a(uart.o)
                0x0800eebc                USART1_IRQHandler
 .text.USART2_IRQHandler
                0x0800eeec       0x34 ../../libDaisy/build\libdaisy.a(uart.o)
                0x0800eeec                USART2_IRQHandler
 .text.USART3_IRQHandler
                0x0800ef20       0x34 ../../libDaisy/build\libdaisy.a(uart.o)
                0x0800ef20                USART3_IRQHandler
 .text.UART4_IRQHandler
                0x0800ef54       0x34 ../../libDaisy/build\libdaisy.a(uart.o)
                0x0800ef54                UART4_IRQHandler
 .text.UART5_IRQHandler
                0x0800ef88       0x34 ../../libDaisy/build\libdaisy.a(uart.o)
                0x0800ef88                UART5_IRQHandler
 .text.USART6_IRQHandler
                0x0800efbc       0x34 ../../libDaisy/build\libdaisy.a(uart.o)
                0x0800efbc                USART6_IRQHandler
 .text.UART7_IRQHandler
                0x0800eff0       0x30 ../../libDaisy/build\libdaisy.a(uart.o)
                0x0800eff0                UART7_IRQHandler
 .text.UART8_IRQHandler
                0x0800f020       0x34 ../../libDaisy/build\libdaisy.a(uart.o)
                0x0800f020                UART8_IRQHandler
 .text.LPUART1_IRQHandler
                0x0800f054       0x34 ../../libDaisy/build\libdaisy.a(uart.o)
                0x0800f054                LPUART1_IRQHandler
 .text.DMA1_Stream5_IRQHandler
                0x0800f088       0x34 ../../libDaisy/build\libdaisy.a(uart.o)
                0x0800f088                DMA1_Stream5_IRQHandler
 .text.DMA2_Stream4_IRQHandler
                0x0800f0bc       0x34 ../../libDaisy/build\libdaisy.a(uart.o)
                0x0800f0bc                DMA2_Stream4_IRQHandler
 .text.HAL_UART_TxCpltCallback
                0x0800f0f0        0x8 ../../libDaisy/build\libdaisy.a(uart.o)
                0x0800f0f0                HAL_UART_TxCpltCallback
 .text.HAL_UART_RxCpltCallback
                0x0800f0f8        0x8 ../../libDaisy/build\libdaisy.a(uart.o)
                0x0800f0f8                HAL_UART_RxCpltCallback
 .text.HAL_UART_ErrorCallback
                0x0800f100        0x8 ../../libDaisy/build\libdaisy.a(uart.o)
                0x0800f100                HAL_UART_ErrorCallback
 .text.startup._GLOBAL__sub_I__Z19MapInstanceToHandleP13USART_TypeDef
                0x0800f108      0x190 ../../libDaisy/build\libdaisy.a(uart.o)
 .text.dsy_dma_init
                0x0800f298      0x100 ../../libDaisy/build\libdaisy.a(dma.o)
                0x0800f298                dsy_dma_init
 .text.dummy_rx_callback
                0x0800f398        0x4 ../../libDaisy/build\libdaisy.a(usbd_cdc_if.o)
                0x0800f398                dummy_rx_callback
 .text.CDC_DeInit_FS
                0x0800f39c        0x4 ../../libDaisy/build\libdaisy.a(usbd_cdc_if.o)
 .text.CDC_Receive_FS
                0x0800f3a0       0x2c ../../libDaisy/build\libdaisy.a(usbd_cdc_if.o)
 .text.CDC_Receive_HS
                0x0800f3cc       0x2c ../../libDaisy/build\libdaisy.a(usbd_cdc_if.o)
 .text.CDC_Init_FS
                0x0800f3f8       0x3c ../../libDaisy/build\libdaisy.a(usbd_cdc_if.o)
 .text.CDC_Init_HS
                0x0800f434       0x3c ../../libDaisy/build\libdaisy.a(usbd_cdc_if.o)
 .text.CDC_Control_FS
                0x0800f470       0x34 ../../libDaisy/build\libdaisy.a(usbd_cdc_if.o)
 .text.CDC_Control_HS
                0x0800f4a4       0x34 ../../libDaisy/build\libdaisy.a(usbd_cdc_if.o)
 .text.CDC_DeInit_HS
                0x0800f4d8        0x4 ../../libDaisy/build\libdaisy.a(usbd_cdc_if.o)
 .text.CDC_Set_Rx_Callback_FS
                0x0800f4dc        0xc ../../libDaisy/build\libdaisy.a(usbd_cdc_if.o)
                0x0800f4dc                CDC_Set_Rx_Callback_FS
 .text.CDC_Set_Rx_Callback_HS
                0x0800f4e8        0xc ../../libDaisy/build\libdaisy.a(usbd_cdc_if.o)
                0x0800f4e8                CDC_Set_Rx_Callback_HS
 .text.USBD_HS_DeviceDescriptor
                0x0800f4f4        0xc ../../libDaisy/build\libdaisy.a(usbd_desc.o)
                0x0800f4f4                USBD_HS_DeviceDescriptor
 .text.USBD_FS_DeviceDescriptor
                0x0800f500        0xc ../../libDaisy/build\libdaisy.a(usbd_desc.o)
                0x0800f500                USBD_FS_DeviceDescriptor
 .text.USBD_FS_LangIDStrDescriptor
                0x0800f50c        0xc ../../libDaisy/build\libdaisy.a(usbd_desc.o)
                0x0800f50c                USBD_FS_LangIDStrDescriptor
 .text.USBD_FS_ManufacturerStrDescriptor
                0x0800f518       0x1c ../../libDaisy/build\libdaisy.a(usbd_desc.o)
                0x0800f518                USBD_FS_ManufacturerStrDescriptor
 .text.USBD_HS_ProductStrDescriptor
                0x0800f534       0x1c ../../libDaisy/build\libdaisy.a(usbd_desc.o)
                0x0800f534                USBD_HS_ProductStrDescriptor
 .text.USBD_FS_ConfigStrDescriptor
                0x0800f550       0x1c ../../libDaisy/build\libdaisy.a(usbd_desc.o)
                0x0800f550                USBD_FS_ConfigStrDescriptor
 .text.USBD_FS_InterfaceStrDescriptor
                0x0800f56c       0x1c ../../libDaisy/build\libdaisy.a(usbd_desc.o)
                0x0800f56c                USBD_FS_InterfaceStrDescriptor
 .text.USBD_FS_ProductStrDescriptor
                0x0800f588       0x1c ../../libDaisy/build\libdaisy.a(usbd_desc.o)
                0x0800f588                USBD_FS_ProductStrDescriptor
 .text.USBD_HS_LangIDStrDescriptor
                0x0800f5a4        0xc ../../libDaisy/build\libdaisy.a(usbd_desc.o)
                0x0800f5a4                USBD_HS_LangIDStrDescriptor
 .text.USBD_HS_ManufacturerStrDescriptor
                0x0800f5b0       0x1c ../../libDaisy/build\libdaisy.a(usbd_desc.o)
                0x0800f5b0                USBD_HS_ManufacturerStrDescriptor
 .text.USBD_FS_SerialStrDescriptor
                0x0800f5cc      0x124 ../../libDaisy/build\libdaisy.a(usbd_desc.o)
                0x0800f5cc                USBD_FS_SerialStrDescriptor
 .text.USBD_HS_SerialStrDescriptor
                0x0800f6f0      0x124 ../../libDaisy/build\libdaisy.a(usbd_desc.o)
                0x0800f6f0                USBD_HS_SerialStrDescriptor
 .text.USBD_HS_InterfaceStrDescriptor
                0x0800f814       0x1c ../../libDaisy/build\libdaisy.a(usbd_desc.o)
                0x0800f814                USBD_HS_InterfaceStrDescriptor
 .text.USBD_HS_ConfigStrDescriptor
                0x0800f830       0x1c ../../libDaisy/build\libdaisy.a(usbd_desc.o)
                0x0800f830                USBD_HS_ConfigStrDescriptor
 .text.HAL_MDMA_Abort_IT
                0x0800f84c       0x2c ../../libDaisy/build\libdaisy.a(stm32h7xx_hal_mdma.o)
                0x0800f84c                HAL_MDMA_Abort_IT
 .text.SPI_CloseTransfer
                0x0800f878       0xb8 ../../libDaisy/build\libdaisy.a(stm32h7xx_hal_spi.o)
 .text.HAL_SPI_Init
                0x0800f930      0x15c ../../libDaisy/build\libdaisy.a(stm32h7xx_hal_spi.o)
                0x0800f930                HAL_SPI_Init
 .text.HAL_SPI_Transmit_DMA
                0x0800fa8c      0x170 ../../libDaisy/build\libdaisy.a(stm32h7xx_hal_spi.o)
                0x0800fa8c                HAL_SPI_Transmit_DMA
 .text.HAL_SPI_TransmitReceive_DMA
                0x0800fbfc      0x218 ../../libDaisy/build\libdaisy.a(stm32h7xx_hal_spi.o)
                0x0800fbfc                HAL_SPI_TransmitReceive_DMA
 .text.HAL_SPI_Receive_DMA
                0x0800fe14      0x1b4 ../../libDaisy/build\libdaisy.a(stm32h7xx_hal_spi.o)
                0x0800fe14                HAL_SPI_Receive_DMA
 .text.SPI_DMATransmitCplt
                0x0800ffc8       0x28 ../../libDaisy/build\libdaisy.a(stm32h7xx_hal_spi.o)
 .text.SPI_DMAReceiveCplt
                0x0800fff0       0x28 ../../libDaisy/build\libdaisy.a(stm32h7xx_hal_spi.o)
 .text.SPI_DMATransmitReceiveCplt
                0x08010018       0x28 ../../libDaisy/build\libdaisy.a(stm32h7xx_hal_spi.o)
 .text.HAL_SPI_TxHalfCpltCallback
                0x08010040        0x4 ../../libDaisy/build\libdaisy.a(stm32h7xx_hal_spi.o)
                0x08010040                HAL_SPI_TxHalfCpltCallback
 .text.SPI_DMAHalfTransmitCplt
                0x08010044        0xc ../../libDaisy/build\libdaisy.a(stm32h7xx_hal_spi.o)
 .text.HAL_SPI_RxHalfCpltCallback
                0x08010050        0x4 ../../libDaisy/build\libdaisy.a(stm32h7xx_hal_spi.o)
                0x08010050                HAL_SPI_RxHalfCpltCallback
 .text.SPI_DMAHalfReceiveCplt
                0x08010054        0xc ../../libDaisy/build\libdaisy.a(stm32h7xx_hal_spi.o)
 .text.HAL_SPI_TxRxHalfCpltCallback
                0x08010060        0x4 ../../libDaisy/build\libdaisy.a(stm32h7xx_hal_spi.o)
                0x08010060                HAL_SPI_TxRxHalfCpltCallback
 .text.SPI_DMAHalfTransmitReceiveCplt
                0x08010064        0xc ../../libDaisy/build\libdaisy.a(stm32h7xx_hal_spi.o)
 .text.SPI_DMAError
                0x08010070       0xd8 ../../libDaisy/build\libdaisy.a(stm32h7xx_hal_spi.o)
 .text.HAL_SPI_IRQHandler
                0x08010148      0x23c ../../libDaisy/build\libdaisy.a(stm32h7xx_hal_spi.o)
                0x08010148                HAL_SPI_IRQHandler
 .text.SPI_DMAAbortOnError
                0x08010384       0x1c ../../libDaisy/build\libdaisy.a(stm32h7xx_hal_spi.o)
 .text.HAL_SPI_GetState
                0x080103a0        0x8 ../../libDaisy/build\libdaisy.a(stm32h7xx_hal_spi.o)
                0x080103a0                HAL_SPI_GetState
 .text.HAL_UART_Transmit_DMA
                0x080103a8       0xa4 ../../libDaisy/build\libdaisy.a(stm32h7xx_hal_uart.o)
                0x080103a8                HAL_UART_Transmit_DMA
 .text.HAL_UART_Receive_DMA
                0x0801044c       0xac ../../libDaisy/build\libdaisy.a(stm32h7xx_hal_uart.o)
                0x0801044c                HAL_UART_Receive_DMA
 .text.UART_DMATransmitCplt
                0x080104f8       0x2c ../../libDaisy/build\libdaisy.a(stm32h7xx_hal_uart.o)
 .text.HAL_UART_TxHalfCpltCallback
                0x08010524        0x4 ../../libDaisy/build\libdaisy.a(stm32h7xx_hal_uart.o)
                0x08010524                HAL_UART_TxHalfCpltCallback
 .text.UART_DMATxHalfCplt
                0x08010528        0xc ../../libDaisy/build\libdaisy.a(stm32h7xx_hal_uart.o)
 .text.UART_DMAReceiveCplt
                0x08010534       0x38 ../../libDaisy/build\libdaisy.a(stm32h7xx_hal_uart.o)
 .text.HAL_UART_RxHalfCpltCallback
                0x0801056c        0x4 ../../libDaisy/build\libdaisy.a(stm32h7xx_hal_uart.o)
                0x0801056c                HAL_UART_RxHalfCpltCallback
 .text.UART_DMARxHalfCplt
                0x08010570        0xc ../../libDaisy/build\libdaisy.a(stm32h7xx_hal_uart.o)
 .text.UART_DMAError
                0x0801057c       0x78 ../../libDaisy/build\libdaisy.a(stm32h7xx_hal_uart.o)
 .text.HAL_UART_IRQHandler
                0x080105f4      0x1d0 ../../libDaisy/build\libdaisy.a(stm32h7xx_hal_uart.o)
                0x080105f4                HAL_UART_IRQHandler
 .text.UART_DMAAbortOnError
                0x080107c4       0x14 ../../libDaisy/build\libdaisy.a(stm32h7xx_hal_uart.o)
 .text.HAL_UART_GetState
                0x080107d8        0xc ../../libDaisy/build\libdaisy.a(stm32h7xx_hal_uart.o)
                0x080107d8                HAL_UART_GetState
 .text.UART_SetConfig
                0x080107e4     0x14b8 ../../libDaisy/build\libdaisy.a(stm32h7xx_hal_uart.o)
                0x080107e4                UART_SetConfig
 .text.UART_AdvFeatureConfig
                0x08011c9c       0xb0 ../../libDaisy/build\libdaisy.a(stm32h7xx_hal_uart.o)
                0x08011c9c                UART_AdvFeatureConfig
 .text.UART_CheckIdleState
                0x08011d4c       0x84 ../../libDaisy/build\libdaisy.a(stm32h7xx_hal_uart.o)
                0x08011d4c                UART_CheckIdleState
 .text.HAL_UART_Init
                0x08011dd0       0x68 ../../libDaisy/build\libdaisy.a(stm32h7xx_hal_uart.o)
                0x08011dd0                HAL_UART_Init
 .text.HAL_UARTEx_WakeupCallback
                0x08011e38        0x4 ../../libDaisy/build\libdaisy.a(stm32h7xx_hal_uart_ex.o)
                0x08011e38                HAL_UARTEx_WakeupCallback
 .text.HAL_UARTEx_RxFifoFullCallback
                0x08011e3c        0x4 ../../libDaisy/build\libdaisy.a(stm32h7xx_hal_uart_ex.o)
                0x08011e3c                HAL_UARTEx_RxFifoFullCallback
 .text.HAL_UARTEx_TxFifoEmptyCallback
                0x08011e40        0x4 ../../libDaisy/build\libdaisy.a(stm32h7xx_hal_uart_ex.o)
                0x08011e40                HAL_UARTEx_TxFifoEmptyCallback
 .text.USBD_CDC_EP0_RxReady
                0x08011e44       0x2c ../../libDaisy/build\libdaisy.a(usbd_cdc.o)
 .text.USBD_CDC_GetFSCfgDesc
                0x08011e70       0x24 ../../libDaisy/build\libdaisy.a(usbd_cdc.o)
 .text.USBD_CDC_GetHSCfgDesc
                0x08011e94       0x24 ../../libDaisy/build\libdaisy.a(usbd_cdc.o)
 .text.USBD_CDC_GetOtherSpeedCfgDesc
                0x08011eb8       0x24 ../../libDaisy/build\libdaisy.a(usbd_cdc.o)
 .text.USBD_CDC_GetDeviceQualifierDescriptor
                0x08011edc       0x10 ../../libDaisy/build\libdaisy.a(usbd_cdc.o)
                0x08011edc                USBD_CDC_GetDeviceQualifierDescriptor
 .text.USBD_CDC_DataOut
                0x08011eec       0x30 ../../libDaisy/build\libdaisy.a(usbd_cdc.o)
 .text.USBD_CDC_DataIn
                0x08011f1c       0x50 ../../libDaisy/build\libdaisy.a(usbd_cdc.o)
 .text.USBD_CDC_Setup
                0x08011f6c       0xcc ../../libDaisy/build\libdaisy.a(usbd_cdc.o)
 .text.USBD_CDC_DeInit
                0x08012038       0x44 ../../libDaisy/build\libdaisy.a(usbd_cdc.o)
 .text.USBD_CDC_Init
                0x0801207c       0x94 ../../libDaisy/build\libdaisy.a(usbd_cdc.o)
 .text.USBD_CDC_RegisterInterface
                0x08012110       0x10 ../../libDaisy/build\libdaisy.a(usbd_cdc.o)
                0x08012110                USBD_CDC_RegisterInterface
 .text.USBD_CDC_SetTxBuffer
                0x08012120       0x14 ../../libDaisy/build\libdaisy.a(usbd_cdc.o)
                0x08012120                USBD_CDC_SetTxBuffer
 .text.USBD_CDC_SetRxBuffer
                0x08012134       0x10 ../../libDaisy/build\libdaisy.a(usbd_cdc.o)
                0x08012134                USBD_CDC_SetRxBuffer
 .text.USBD_CDC_ReceivePacket
                0x08012144       0x38 ../../libDaisy/build\libdaisy.a(usbd_cdc.o)
                0x08012144                USBD_CDC_ReceivePacket
 .text._ZN7daisysp4Adsr4InitEfi
                0x0801217c       0xe0 ../../DaisySP/build\libdaisysp.a(adsr.o)
                0x0801217c                daisysp::Adsr::Init(float, int)
 .text._ZN7daisysp4Adsr7SetTimeEif
                0x0801225c      0x110 ../../DaisySP/build\libdaisysp.a(adsr.o)
                0x0801225c                daisysp::Adsr::SetTime(int, float)
 .text._ZN7daisysp4Adsr7ProcessEb
                0x0801236c       0xb0 ../../DaisySP/build\libdaisysp.a(adsr.o)
                0x0801236c                daisysp::Adsr::Process(bool)
 .text._ZN10infrasonic10MoogLadder4InitEf
                0x0801241c       0xe8 ../../DaisySP/build\libdaisysp.a(moogladder.o)
                0x0801241c                infrasonic::MoogLadder::Init(float)
 .text._ZN10infrasonic10MoogLadder7ProcessEf
                0x08012504      0x200 ../../DaisySP/build\libdaisysp.a(moogladder.o)
                0x08012504                infrasonic::MoogLadder::Process(float)
 .text._ZN10infrasonic10MoogLadder7SetFreqEf
                0x08012704       0xac ../../DaisySP/build\libdaisysp.a(moogladder.o)
                0x08012704                infrasonic::MoogLadder::SetFreq(float)
 .text._ZN10infrasonic10MoogLadder6SetResEf
                0x080127b0       0x28 ../../DaisySP/build\libdaisysp.a(moogladder.o)
                0x080127b0                infrasonic::MoogLadder::SetRes(float)
 .text._ZN7daisysp10Oscillator7ProcessEv
                0x080127d8      0x3c4 ../../DaisySP/build\libdaisysp.a(oscillator.o)
                0x080127d8                daisysp::Oscillator::Process()
 .text._ZN7daisysp10Oscillator12CalcPhaseIncEf
                0x08012b9c       0x18 ../../DaisySP/build\libdaisysp.a(oscillator.o)
                0x08012b9c                daisysp::Oscillator::CalcPhaseInc(float)
 .text.__aeabi_atexit
                0x08012bb4        0xa c:/program files/daisytoolchain/bin/../lib/gcc/arm-none-eabi/10.2.1/../../../../arm-none-eabi/lib/thumb/v7e-m+dp/hard\libstdc++_nano.a(atexit_arm.o)
                0x08012bb4                __aeabi_atexit
 *fill*         0x08012bbe        0x2 
 .text.expf     0x08012bc0       0xe4 c:/program files/daisytoolchain/bin/../lib/gcc/arm-none-eabi/10.2.1/../../../../arm-none-eabi/lib/thumb/v7e-m+dp/hard\libm.a(lib_a-sf_exp.o)
                0x08012bc0                expf
 *fill*         0x08012ca4        0x4 
 .text.powf     0x08012ca8      0x328 c:/program files/daisytoolchain/bin/../lib/gcc/arm-none-eabi/10.2.1/../../../../arm-none-eabi/lib/thumb/v7e-m+dp/hard\libm.a(lib_a-sf_pow.o)
                0x08012ca8                powf
 .text.sinf     0x08012fd0      0x20c c:/program files/daisytoolchain/bin/../lib/gcc/arm-none-eabi/10.2.1/../../../../arm-none-eabi/lib/thumb/v7e-m+dp/hard\libm.a(lib_a-sinf.o)
                0x08012fd0                sinf
 .text.fmodf    0x080131dc       0x54 c:/program files/daisytoolchain/bin/../lib/gcc/arm-none-eabi/10.2.1/../../../../arm-none-eabi/lib/thumb/v7e-m+dp/hard\libm.a(lib_a-wf_fmod.o)
                0x080131dc                fmodf
 .text.__ieee754_fmodf
                0x08013230      0x120 c:/program files/daisytoolchain/bin/../lib/gcc/arm-none-eabi/10.2.1/../../../../arm-none-eabi/lib/thumb/v7e-m+dp/hard\libm.a(lib_a-ef_fmod.o)
                0x08013230                __ieee754_fmodf
 .text.with_errnof
                0x08013350       0x18 c:/program files/daisytoolchain/bin/../lib/gcc/arm-none-eabi/10.2.1/../../../../arm-none-eabi/lib/thumb/v7e-m+dp/hard\libm.a(lib_a-math_errf.o)
 .text.xflowf   0x08013368       0x20 c:/program files/daisytoolchain/bin/../lib/gcc/arm-none-eabi/10.2.1/../../../../arm-none-eabi/lib/thumb/v7e-m+dp/hard\libm.a(lib_a-math_errf.o)
 .text.__math_uflowf
                0x08013388        0xc c:/program files/daisytoolchain/bin/../lib/gcc/arm-none-eabi/10.2.1/../../../../arm-none-eabi/lib/thumb/v7e-m+dp/hard\libm.a(lib_a-math_errf.o)
                0x08013388                __math_uflowf
 .text.__math_may_uflowf
                0x08013394        0xc c:/program files/daisytoolchain/bin/../lib/gcc/arm-none-eabi/10.2.1/../../../../arm-none-eabi/lib/thumb/v7e-m+dp/hard\libm.a(lib_a-math_errf.o)
                0x08013394                __math_may_uflowf
 .text.__math_oflowf
                0x080133a0        0xc c:/program files/daisytoolchain/bin/../lib/gcc/arm-none-eabi/10.2.1/../../../../arm-none-eabi/lib/thumb/v7e-m+dp/hard\libm.a(lib_a-math_errf.o)
                0x080133a0                __math_oflowf
 .text.__math_divzerof
                0x080133ac       0x24 c:/program files/daisytoolchain/bin/../lib/gcc/arm-none-eabi/10.2.1/../../../../arm-none-eabi/lib/thumb/v7e-m+dp/hard\libm.a(lib_a-math_errf.o)
                0x080133ac                __math_divzerof
 .text.__math_invalidf
                0x080133d0       0x20 c:/program files/daisytoolchain/bin/../lib/gcc/arm-none-eabi/10.2.1/../../../../arm-none-eabi/lib/thumb/v7e-m+dp/hard\libm.a(lib_a-math_errf.o)
                0x080133d0                __math_invalidf
 .text.calloc   0x080133f0       0x10 c:/program files/daisytoolchain/bin/../lib/gcc/arm-none-eabi/10.2.1/../../../../arm-none-eabi/lib/thumb/v7e-m+dp/hard\libc_nano.a(lib_a-calloc.o)
                0x080133f0                calloc
 .text.__cxa_atexit
                0x08013400       0x1c c:/program files/daisytoolchain/bin/../lib/gcc/arm-none-eabi/10.2.1/../../../../arm-none-eabi/lib/thumb/v7e-m+dp/hard\libc_nano.a(lib_a-cxa_atexit.o)
                0x08013400                __cxa_atexit
 .text.__errno  0x0801341c        0xc c:/program files/daisytoolchain/bin/../lib/gcc/arm-none-eabi/10.2.1/../../../../arm-none-eabi/lib/thumb/v7e-m+dp/hard\libc_nano.a(lib_a-errno.o)
                0x0801341c                __errno
 .text.__libc_init_array
                0x08013428       0x48 c:/program files/daisytoolchain/bin/../lib/gcc/arm-none-eabi/10.2.1/../../../../arm-none-eabi/lib/thumb/v7e-m+dp/hard\libc_nano.a(lib_a-init.o)
                0x08013428                __libc_init_array
 .text.free     0x08013470       0x10 c:/program files/daisytoolchain/bin/../lib/gcc/arm-none-eabi/10.2.1/../../../../arm-none-eabi/lib/thumb/v7e-m+dp/hard\libc_nano.a(lib_a-malloc.o)
                0x08013470                free
 .text.memcpy   0x08013480       0x1c c:/program files/daisytoolchain/bin/../lib/gcc/arm-none-eabi/10.2.1/../../../../arm-none-eabi/lib/thumb/v7e-m+dp/hard\libc_nano.a(lib_a-memcpy-stub.o)
                0x08013480                memcpy
 .text.memset   0x0801349c       0x10 c:/program files/daisytoolchain/bin/../lib/gcc/arm-none-eabi/10.2.1/../../../../arm-none-eabi/lib/thumb/v7e-m+dp/hard\libc_nano.a(lib_a-memset.o)
                0x0801349c                memset
 .text._calloc_r
                0x080134ac       0x1e c:/program files/daisytoolchain/bin/../lib/gcc/arm-none-eabi/10.2.1/../../../../arm-none-eabi/lib/thumb/v7e-m+dp/hard\libc_nano.a(lib_a-nano-callocr.o)
                0x080134ac                _calloc_r
 *fill*         0x080134ca        0x2 
 .text._free_r  0x080134cc       0x98 c:/program files/daisytoolchain/bin/../lib/gcc/arm-none-eabi/10.2.1/../../../../arm-none-eabi/lib/thumb/v7e-m+dp/hard\libc_nano.a(lib_a-nano-freer.o)
                0x080134cc                _free_r
 .text._malloc_r
                0x08013564       0xb4 c:/program files/daisytoolchain/bin/../lib/gcc/arm-none-eabi/10.2.1/../../../../arm-none-eabi/lib/thumb/v7e-m+dp/hard\libc_nano.a(lib_a-nano-mallocr.o)
                0x08013564                _malloc_r
 .text.printf   0x08013618       0x30 c:/program files/daisytoolchain/bin/../lib/gcc/arm-none-eabi/10.2.1/../../../../arm-none-eabi/lib/thumb/v7e-m+dp/hard\libc_nano.a(lib_a-printf.o)
                0x08013618                iprintf
                0x08013618                printf
 .text.putchar  0x08013648       0x2c c:/program files/daisytoolchain/bin/../lib/gcc/arm-none-eabi/10.2.1/../../../../arm-none-eabi/lib/thumb/v7e-m+dp/hard\libc_nano.a(lib_a-putchar.o)
                0x08013648                putchar
 .text._sbrk_r  0x08013674       0x20 c:/program files/daisytoolchain/bin/../lib/gcc/arm-none-eabi/10.2.1/../../../../arm-none-eabi/lib/thumb/v7e-m+dp/hard\libc_nano.a(lib_a-sbrkr.o)
                0x08013674                _sbrk_r
 .text.std      0x08013694       0x48 c:/program files/daisytoolchain/bin/../lib/gcc/arm-none-eabi/10.2.1/../../../../arm-none-eabi/lib/thumb/v7e-m+dp/hard\libc_nano.a(lib_a-findfp.o)
 .text._cleanup_r
                0x080136dc        0xc c:/program files/daisytoolchain/bin/../lib/gcc/arm-none-eabi/10.2.1/../../../../arm-none-eabi/lib/thumb/v7e-m+dp/hard\libc_nano.a(lib_a-findfp.o)
                0x080136dc                _cleanup_r
 .text.__sfmoreglue
                0x080136e8       0x2c c:/program files/daisytoolchain/bin/../lib/gcc/arm-none-eabi/10.2.1/../../../../arm-none-eabi/lib/thumb/v7e-m+dp/hard\libc_nano.a(lib_a-findfp.o)
                0x080136e8                __sfmoreglue
 .text.__sfp_lock_acquire
                0x08013714        0xc c:/program files/daisytoolchain/bin/../lib/gcc/arm-none-eabi/10.2.1/../../../../arm-none-eabi/lib/thumb/v7e-m+dp/hard\libc_nano.a(lib_a-findfp.o)
                0x08013714                __sfp_lock_acquire
 .text.__sfp_lock_release
                0x08013720        0xc c:/program files/daisytoolchain/bin/../lib/gcc/arm-none-eabi/10.2.1/../../../../arm-none-eabi/lib/thumb/v7e-m+dp/hard\libc_nano.a(lib_a-findfp.o)
                0x08013720                __sfp_lock_release
 .text.__sinit_lock_acquire
                0x0801372c        0xc c:/program files/daisytoolchain/bin/../lib/gcc/arm-none-eabi/10.2.1/../../../../arm-none-eabi/lib/thumb/v7e-m+dp/hard\libc_nano.a(lib_a-findfp.o)
                0x0801372c                __sinit_lock_acquire
 .text.__sinit_lock_release
                0x08013738        0xc c:/program files/daisytoolchain/bin/../lib/gcc/arm-none-eabi/10.2.1/../../../../arm-none-eabi/lib/thumb/v7e-m+dp/hard\libc_nano.a(lib_a-findfp.o)
                0x08013738                __sinit_lock_release
 .text.__sinit  0x08013744       0x70 c:/program files/daisytoolchain/bin/../lib/gcc/arm-none-eabi/10.2.1/../../../../arm-none-eabi/lib/thumb/v7e-m+dp/hard\libc_nano.a(lib_a-findfp.o)
                0x08013744                __sinit
 .text.__sfp    0x080137b4       0x8c c:/program files/daisytoolchain/bin/../lib/gcc/arm-none-eabi/10.2.1/../../../../arm-none-eabi/lib/thumb/v7e-m+dp/hard\libc_nano.a(lib_a-findfp.o)
                0x080137b4                __sfp
 .text._fwalk_reent
                0x08013840       0x3e c:/program files/daisytoolchain/bin/../lib/gcc/arm-none-eabi/10.2.1/../../../../arm-none-eabi/lib/thumb/v7e-m+dp/hard\libc_nano.a(lib_a-fwalk.o)
                0x08013840                _fwalk_reent
 .text.__retarget_lock_init_recursive
                0x0801387e        0x2 c:/program files/daisytoolchain/bin/../lib/gcc/arm-none-eabi/10.2.1/../../../../arm-none-eabi/lib/thumb/v7e-m+dp/hard\libc_nano.a(lib_a-lock.o)
                0x0801387e                __retarget_lock_init_recursive
 .text.__retarget_lock_acquire_recursive
                0x08013880        0x2 c:/program files/daisytoolchain/bin/../lib/gcc/arm-none-eabi/10.2.1/../../../../arm-none-eabi/lib/thumb/v7e-m+dp/hard\libc_nano.a(lib_a-lock.o)
                0x08013880                __retarget_lock_acquire_recursive
 .text.__retarget_lock_release_recursive
                0x08013882        0x2 c:/program files/daisytoolchain/bin/../lib/gcc/arm-none-eabi/10.2.1/../../../../arm-none-eabi/lib/thumb/v7e-m+dp/hard\libc_nano.a(lib_a-lock.o)
                0x08013882                __retarget_lock_release_recursive
 .text.__malloc_lock
                0x08013884        0xc c:/program files/daisytoolchain/bin/../lib/gcc/arm-none-eabi/10.2.1/../../../../arm-none-eabi/lib/thumb/v7e-m+dp/hard\libc_nano.a(lib_a-mlock.o)
                0x08013884                __malloc_lock
 .text.__malloc_unlock
                0x08013890        0xc c:/program files/daisytoolchain/bin/../lib/gcc/arm-none-eabi/10.2.1/../../../../arm-none-eabi/lib/thumb/v7e-m+dp/hard\libc_nano.a(lib_a-mlock.o)
                0x08013890                __malloc_unlock
 .text.__sfputc_r
                0x0801389c       0x2e c:/program files/daisytoolchain/bin/../lib/gcc/arm-none-eabi/10.2.1/../../../../arm-none-eabi/lib/thumb/v7e-m+dp/hard\libc_nano.a(lib_a-nano-vfprintf.o)
 .text.__sfputs_r
                0x080138ca       0x24 c:/program files/daisytoolchain/bin/../lib/gcc/arm-none-eabi/10.2.1/../../../../arm-none-eabi/lib/thumb/v7e-m+dp/hard\libc_nano.a(lib_a-nano-vfprintf.o)
                0x080138ca                __sfputs_r
 *fill*         0x080138ee        0x2 
 .text._vfprintf_r
                0x080138f0      0x260 c:/program files/daisytoolchain/bin/../lib/gcc/arm-none-eabi/10.2.1/../../../../arm-none-eabi/lib/thumb/v7e-m+dp/hard\libc_nano.a(lib_a-nano-vfprintf.o)
                0x080138f0                _vfprintf_r
                0x080138f0                _vfiprintf_r
 .text._printf_common
                0x08013b50       0xda c:/program files/daisytoolchain/bin/../lib/gcc/arm-none-eabi/10.2.1/../../../../arm-none-eabi/lib/thumb/v7e-m+dp/hard\libc_nano.a(lib_a-nano-vfprintf_i.o)
                0x08013b50                _printf_common
 *fill*         0x08013c2a        0x2 
 .text._printf_i
                0x08013c2c      0x24c c:/program files/daisytoolchain/bin/../lib/gcc/arm-none-eabi/10.2.1/../../../../arm-none-eabi/lib/thumb/v7e-m+dp/hard\libc_nano.a(lib_a-nano-vfprintf_i.o)
                0x08013c2c                _printf_i
 .text._putc_r  0x08013e78       0x90 c:/program files/daisytoolchain/bin/../lib/gcc/arm-none-eabi/10.2.1/../../../../arm-none-eabi/lib/thumb/v7e-m+dp/hard\libc_nano.a(lib_a-putc.o)
                0x08013e78                _putc_r
 .text.__sread  0x08013f08       0x22 c:/program files/daisytoolchain/bin/../lib/gcc/arm-none-eabi/10.2.1/../../../../arm-none-eabi/lib/thumb/v7e-m+dp/hard\libc_nano.a(lib_a-stdio.o)
                0x08013f08                __sread
 .text.__swrite
                0x08013f2a       0x38 c:/program files/daisytoolchain/bin/../lib/gcc/arm-none-eabi/10.2.1/../../../../arm-none-eabi/lib/thumb/v7e-m+dp/hard\libc_nano.a(lib_a-stdio.o)
                0x08013f2a                __swrite
 .text.__sseek  0x08013f62       0x24 c:/program files/daisytoolchain/bin/../lib/gcc/arm-none-eabi/10.2.1/../../../../arm-none-eabi/lib/thumb/v7e-m+dp/hard\libc_nano.a(lib_a-stdio.o)
                0x08013f62                __sseek
 .text.__sclose
                0x08013f86        0x8 c:/program files/daisytoolchain/bin/../lib/gcc/arm-none-eabi/10.2.1/../../../../arm-none-eabi/lib/thumb/v7e-m+dp/hard\libc_nano.a(lib_a-stdio.o)
                0x08013f86                __sclose
 *fill*         0x08013f8e        0x2 
 .text.__swbuf_r
                0x08013f90       0xa4 c:/program files/daisytoolchain/bin/../lib/gcc/arm-none-eabi/10.2.1/../../../../arm-none-eabi/lib/thumb/v7e-m+dp/hard\libc_nano.a(lib_a-wbuf.o)
                0x08013f90                __swbuf_r
 .text._write_r
                0x08014034       0x24 c:/program files/daisytoolchain/bin/../lib/gcc/arm-none-eabi/10.2.1/../../../../arm-none-eabi/lib/thumb/v7e-m+dp/hard\libc_nano.a(lib_a-writer.o)
                0x08014034                _write_r
 .text.__swsetup_r
                0x08014058       0xdc c:/program files/daisytoolchain/bin/../lib/gcc/arm-none-eabi/10.2.1/../../../../arm-none-eabi/lib/thumb/v7e-m+dp/hard\libc_nano.a(lib_a-wsetup.o)
                0x08014058                __swsetup_r
 .text._close_r
                0x08014134       0x20 c:/program files/daisytoolchain/bin/../lib/gcc/arm-none-eabi/10.2.1/../../../../arm-none-eabi/lib/thumb/v7e-m+dp/hard\libc_nano.a(lib_a-closer.o)
                0x08014134                _close_r
 .text.__sflush_r
                0x08014154      0x10c c:/program files/daisytoolchain/bin/../lib/gcc/arm-none-eabi/10.2.1/../../../../arm-none-eabi/lib/thumb/v7e-m+dp/hard\libc_nano.a(lib_a-fflush.o)
                0x08014154                __sflush_r
 .text._fflush_r
                0x08014260       0x78 c:/program files/daisytoolchain/bin/../lib/gcc/arm-none-eabi/10.2.1/../../../../arm-none-eabi/lib/thumb/v7e-m+dp/hard\libc_nano.a(lib_a-fflush.o)
                0x08014260                _fflush_r
 .text._lseek_r
                0x080142d8       0x24 c:/program files/daisytoolchain/bin/../lib/gcc/arm-none-eabi/10.2.1/../../../../arm-none-eabi/lib/thumb/v7e-m+dp/hard\libc_nano.a(lib_a-lseekr.o)
                0x080142d8                _lseek_r
 .text.__swhatbuf_r
                0x080142fc       0x4a c:/program files/daisytoolchain/bin/../lib/gcc/arm-none-eabi/10.2.1/../../../../arm-none-eabi/lib/thumb/v7e-m+dp/hard\libc_nano.a(lib_a-makebuf.o)
                0x080142fc                __swhatbuf_r
 *fill*         0x08014346        0x2 
 .text.__smakebuf_r
                0x08014348       0x80 c:/program files/daisytoolchain/bin/../lib/gcc/arm-none-eabi/10.2.1/../../../../arm-none-eabi/lib/thumb/v7e-m+dp/hard\libc_nano.a(lib_a-makebuf.o)
                0x08014348                __smakebuf_r
 .text._read_r  0x080143c8       0x24 c:/program files/daisytoolchain/bin/../lib/gcc/arm-none-eabi/10.2.1/../../../../arm-none-eabi/lib/thumb/v7e-m+dp/hard\libc_nano.a(lib_a-readr.o)
                0x080143c8                _read_r
 .text._fstat_r
                0x080143ec       0x24 c:/program files/daisytoolchain/bin/../lib/gcc/arm-none-eabi/10.2.1/../../../../arm-none-eabi/lib/thumb/v7e-m+dp/hard\libc_nano.a(lib_a-fstatr.o)
                0x080143ec                _fstat_r
 .text._isatty_r
                0x08014410       0x20 c:/program files/daisytoolchain/bin/../lib/gcc/arm-none-eabi/10.2.1/../../../../arm-none-eabi/lib/thumb/v7e-m+dp/hard\libc_nano.a(lib_a-isattyr.o)
                0x08014410                _isatty_r
 .text._close   0x08014430       0x10 c:/program files/daisytoolchain/bin/../lib/gcc/arm-none-eabi/10.2.1/../../../../arm-none-eabi/lib/thumb/v7e-m+dp/hard\libnosys.a(close.o)
                0x08014430                _close
 .text._fstat   0x08014440       0x10 c:/program files/daisytoolchain/bin/../lib/gcc/arm-none-eabi/10.2.1/../../../../arm-none-eabi/lib/thumb/v7e-m+dp/hard\libnosys.a(fstat.o)
                0x08014440                _fstat
 .text._isatty  0x08014450       0x10 c:/program files/daisytoolchain/bin/../lib/gcc/arm-none-eabi/10.2.1/../../../../arm-none-eabi/lib/thumb/v7e-m+dp/hard\libnosys.a(isatty.o)
                0x08014450                _isatty
 .text._lseek   0x08014460       0x10 c:/program files/daisytoolchain/bin/../lib/gcc/arm-none-eabi/10.2.1/../../../../arm-none-eabi/lib/thumb/v7e-m+dp/hard\libnosys.a(lseek.o)
                0x08014460                _lseek
 .text._read    0x08014470       0x10 c:/program files/daisytoolchain/bin/../lib/gcc/arm-none-eabi/10.2.1/../../../../arm-none-eabi/lib/thumb/v7e-m+dp/hard\libnosys.a(read.o)
                0x08014470                _read
 .text._sbrk    0x08014480       0x1c c:/program files/daisytoolchain/bin/../lib/gcc/arm-none-eabi/10.2.1/../../../../arm-none-eabi/lib/thumb/v7e-m+dp/hard\libnosys.a(sbrk.o)
                0x08014480                _sbrk
 .text._write   0x0801449c       0x10 c:/program files/daisytoolchain/bin/../lib/gcc/arm-none-eabi/10.2.1/../../../../arm-none-eabi/lib/thumb/v7e-m+dp/hard\libnosys.a(write.o)
                0x0801449c                _write
 *(.rodata)
 .rodata        0x080144ac       0x20 ../../libDaisy/build\libdaisy.a(usb_midi.o)
 .rodata        0x080144cc       0x10 ../../libDaisy/build\libdaisy.a(i2c.o)
 .rodata        0x080144dc       0x10 ../../libDaisy/build\libdaisy.a(tim.o)
 .rodata        0x080144ec       0x12 ../../libDaisy/build\libdaisy.a(uart.o)
 *(.rodata*)
 *fill*         0x080144fe        0x2 
 .rodata.CSWTCH.35
                0x08014500        0x3 ../../libDaisy/build\libdaisy.a(sai.o)
 *fill*         0x08014503        0x1 
 .rodata.CSWTCH.36
                0x08014504        0xc ../../libDaisy/build\libdaisy.a(sai.o)
 .rodata.CSWTCH.44
                0x08014510       0x14 ../../libDaisy/build\libdaisy.a(sai.o)
 .rodata.D1CorePrescTable
                0x08014524       0x10 ../../libDaisy/build\libdaisy.a(system_stm32h7xx.o)
                0x08014524                D1CorePrescTable
 .rodata.CSWTCH.24
                0x08014534        0x4 ../../libDaisy/build\libdaisy.a(usbd_conf.o)
 .rodata.CSWTCH.19
                0x08014538        0x4 ../../libDaisy/build\libdaisy.a(usbh_conf.o)
 .rodata.gpio_hal_pin_map
                0x0801453c       0x20 ../../libDaisy/build\libdaisy.a(hal_map.o)
 .rodata.gpio_hal_port_map
                0x0801455c       0x30 ../../libDaisy/build\libdaisy.a(hal_map.o)
 .rodata.flagBitshiftOffset.0
                0x0801458c        0x8 ../../libDaisy/build\libdaisy.a(stm32h7xx_hal_dma.o)
 .rodata.USBD_Init.str1.4
                0x08014594       0x1e ../../libDaisy/build\libdaisy.a(usbd_core.o)
 *fill*         0x080145b2        0x2 
 .rodata.USBD_RegisterClass.str1.4
                0x080145b4       0x15 ../../libDaisy/build\libdaisy.a(usbd_core.o)
 *fill*         0x080145c9        0x3 
 .rodata._ZL13pins_none_spi
                0x080145cc        0x3 ../../libDaisy/build\libdaisy.a(spi.o)
 *fill*         0x080145cf        0x1 
 .rodata._ZL16pins_periphs_spi
                0x080145d0       0x60 ../../libDaisy/build\libdaisy.a(spi.o)
 .rodata.USBD_FS_ManufacturerStrDescriptor.str1.4
                0x08014630        0xd ../../libDaisy/build\libdaisy.a(usbd_desc.o)
 *fill*         0x0801463d        0x3 
 .rodata.USBD_HS_ProductStrDescriptor.str1.4
                0x08014640       0x14 ../../libDaisy/build\libdaisy.a(usbd_desc.o)
 .rodata.USBD_FS_ConfigStrDescriptor.str1.4
                0x08014654        0xb ../../libDaisy/build\libdaisy.a(usbd_desc.o)
 *fill*         0x0801465f        0x1 
 .rodata.USBD_FS_InterfaceStrDescriptor.str1.4
                0x08014660        0xe ../../libDaisy/build\libdaisy.a(usbd_desc.o)
 *fill*         0x0801466e        0x2 
 .rodata.USBD_FS_ProductStrDescriptor.str1.4
                0x08014670       0x14 ../../libDaisy/build\libdaisy.a(usbd_desc.o)
 .rodata.CSWTCH.418
                0x08014684       0x29 ../../libDaisy/build\libdaisy.a(stm32h7xx_hal_uart.o)
 *fill*         0x080146ad        0x3 
 .rodata.CSWTCH.419
                0x080146b0        0x6 ../../libDaisy/build\libdaisy.a(stm32h7xx_hal_uart.o)
 *fill*         0x080146b6        0x2 
 .rodata.CSWTCH.426
                0x080146b8        0x6 ../../libDaisy/build\libdaisy.a(stm32h7xx_hal_uart.o)
 *fill*         0x080146be        0x2 
 .rodata.__exp2f_data
                0x080146c0      0x148 c:/program files/daisytoolchain/bin/../lib/gcc/arm-none-eabi/10.2.1/../../../../arm-none-eabi/lib/thumb/v7e-m+dp/hard\libm.a(lib_a-sf_exp2_data.o)
                0x080146c0                __exp2f_data
 .rodata.__powf_log2_data
                0x08014808      0x128 c:/program files/daisytoolchain/bin/../lib/gcc/arm-none-eabi/10.2.1/../../../../arm-none-eabi/lib/thumb/v7e-m+dp/hard\libm.a(lib_a-sf_pow_log2_data.o)
                0x08014808                __powf_log2_data
 .rodata.Zero   0x08014930        0x8 c:/program files/daisytoolchain/bin/../lib/gcc/arm-none-eabi/10.2.1/../../../../arm-none-eabi/lib/thumb/v7e-m+dp/hard\libm.a(lib_a-ef_fmod.o)
 .rodata.__inv_pio4
                0x08014938       0x60 c:/program files/daisytoolchain/bin/../lib/gcc/arm-none-eabi/10.2.1/../../../../arm-none-eabi/lib/thumb/v7e-m+dp/hard\libm.a(lib_a-sincosf_data.o)
                0x08014938                __inv_pio4
 .rodata.__sincosf_table
                0x08014998       0xe0 c:/program files/daisytoolchain/bin/../lib/gcc/arm-none-eabi/10.2.1/../../../../arm-none-eabi/lib/thumb/v7e-m+dp/hard\libm.a(lib_a-sincosf_data.o)
                0x08014998                __sincosf_table
 .rodata._global_impure_ptr
                0x08014a78        0x4 c:/program files/daisytoolchain/bin/../lib/gcc/arm-none-eabi/10.2.1/../../../../arm-none-eabi/lib/thumb/v7e-m+dp/hard\libc_nano.a(lib_a-impure.o)
                0x08014a78                _global_impure_ptr
 .rodata.__sf_fake_stderr
                0x08014a7c       0x20 c:/program files/daisytoolchain/bin/../lib/gcc/arm-none-eabi/10.2.1/../../../../arm-none-eabi/lib/thumb/v7e-m+dp/hard\libc_nano.a(lib_a-findfp.o)
                0x08014a7c                __sf_fake_stderr
 .rodata.__sf_fake_stdin
                0x08014a9c       0x20 c:/program files/daisytoolchain/bin/../lib/gcc/arm-none-eabi/10.2.1/../../../../arm-none-eabi/lib/thumb/v7e-m+dp/hard\libc_nano.a(lib_a-findfp.o)
                0x08014a9c                __sf_fake_stdin
 .rodata.__sf_fake_stdout
                0x08014abc       0x20 c:/program files/daisytoolchain/bin/../lib/gcc/arm-none-eabi/10.2.1/../../../../arm-none-eabi/lib/thumb/v7e-m+dp/hard\libc_nano.a(lib_a-findfp.o)
                0x08014abc                __sf_fake_stdout
 .rodata._vfprintf_r.str1.1
                0x08014adc       0x11 c:/program files/daisytoolchain/bin/../lib/gcc/arm-none-eabi/10.2.1/../../../../arm-none-eabi/lib/thumb/v7e-m+dp/hard\libc_nano.a(lib_a-nano-vfprintf.o)
 .rodata._printf_i.str1.1
                0x08014aed       0x22 c:/program files/daisytoolchain/bin/../lib/gcc/arm-none-eabi/10.2.1/../../../../arm-none-eabi/lib/thumb/v7e-m+dp/hard\libc_nano.a(lib_a-nano-vfprintf_i.o)
 *(.glue_7)
 .glue_7        0x08014b0f        0x0 linker stubs
 *(.glue_7t)
 .glue_7t       0x08014b0f        0x0 linker stubs
 *(.init)
 *fill*         0x08014b0f        0x1 
 .init          0x08014b10        0x4 c:/program files/daisytoolchain/bin/../lib/gcc/arm-none-eabi/10.2.1/thumb/v7e-m+dp/hard/crti.o
                0x08014b10                _init
 .init          0x08014b14        0x8 c:/program files/daisytoolchain/bin/../lib/gcc/arm-none-eabi/10.2.1/thumb/v7e-m+dp/hard/crtn.o
 *(.fini)
 .fini          0x08014b1c        0x4 c:/program files/daisytoolchain/bin/../lib/gcc/arm-none-eabi/10.2.1/thumb/v7e-m+dp/hard/crti.o
                0x08014b1c                _fini
 .fini          0x08014b20        0x8 c:/program files/daisytoolchain/bin/../lib/gcc/arm-none-eabi/10.2.1/thumb/v7e-m+dp/hard/crtn.o
                0x08014b28                . = ALIGN (0x4)
                0x08014b28                _etext = .

.eh_frame       0x08014b28        0x0
 .eh_frame      0x08014b28        0x0 c:/program files/daisytoolchain/bin/../lib/gcc/arm-none-eabi/10.2.1/thumb/v7e-m+dp/hard/crtbegin.o

.vfp11_veneer   0x08014b28        0x0
 .vfp11_veneer  0x08014b28        0x0 linker stubs

.v4_bx          0x08014b28        0x0
 .v4_bx         0x08014b28        0x0 linker stubs

.iplt           0x08014b28        0x0
 .iplt          0x08014b28        0x0 c:/program files/daisytoolchain/bin/../lib/gcc/arm-none-eabi/10.2.1/thumb/v7e-m+dp/hard/crtbegin.o

.ARM.extab      0x08014b28        0x0
                0x08014b28                . = ALIGN (0x4)
 *(.ARM.extab)
 *(.gnu.linkonce.armextab.*)
                0x08014b28                . = ALIGN (0x4)

.exidx          0x08014b28        0x8
                0x08014b28                . = ALIGN (0x4)
                [!provide]                PROVIDE (__exidx_start = .)
 *(.ARM.exidx*)
 .ARM.exidx     0x08014b28        0x8 c:/program files/daisytoolchain/bin/../lib/gcc/arm-none-eabi/10.2.1/thumb/v7e-m+dp/hard\libgcc.a(_udivmoddi4.o)
                0x08014b30                . = ALIGN (0x4)
                [!provide]                PROVIDE (__exidx_end = .)

.rel.dyn        0x08014b30        0x0
 .rel.iplt      0x08014b30        0x0 c:/program files/daisytoolchain/bin/../lib/gcc/arm-none-eabi/10.2.1/thumb/v7e-m+dp/hard/crtbegin.o

.ARM.attributes
                0x08014b30       0x2e
 *(.ARM.attributes)
 .ARM.attributes
                0x08014b30       0x1e c:/program files/daisytoolchain/bin/../lib/gcc/arm-none-eabi/10.2.1/thumb/v7e-m+dp/hard/crti.o
 .ARM.attributes
                0x08014b4e       0x32 c:/program files/daisytoolchain/bin/../lib/gcc/arm-none-eabi/10.2.1/thumb/v7e-m+dp/hard/crtbegin.o
 .ARM.attributes
                0x08014b80       0x32 build/startup_stm32h750xx.o
 .ARM.attributes
                0x08014bb2       0x32 build/main.o
 .ARM.attributes
                0x08014be4       0x32 build/vasynth.o
 .ARM.attributes
                0x08014c16       0x32 ../../libDaisy/build\libdaisy.a(daisy_seed.o)
 .ARM.attributes
                0x08014c48       0x32 ../../libDaisy/build\libdaisy.a(codec_ak4556.o)
 .ARM.attributes
                0x08014c7a       0x32 ../../libDaisy/build\libdaisy.a(codec_wm8731.o)
 .ARM.attributes
                0x08014cac       0x32 ../../libDaisy/build\libdaisy.a(sdram.o)
 .ARM.attributes
                0x08014cde       0x32 ../../libDaisy/build\libdaisy.a(audio.o)
 .ARM.attributes
                0x08014d10       0x32 ../../libDaisy/build\libdaisy.a(usb_midi.o)
 .ARM.attributes
                0x08014d42       0x32 ../../libDaisy/build\libdaisy.a(gpio.o)
 .ARM.attributes
                0x08014d74       0x32 ../../libDaisy/build\libdaisy.a(i2c.o)
 .ARM.attributes
                0x08014da6       0x32 ../../libDaisy/build\libdaisy.a(qspi.o)
 .ARM.attributes
                0x08014dd8       0x32 ../../libDaisy/build\libdaisy.a(sai.o)
 .ARM.attributes
                0x08014e0a       0x32 ../../libDaisy/build\libdaisy.a(tim.o)
 .ARM.attributes
                0x08014e3c       0x32 ../../libDaisy/build\libdaisy.a(system.o)
 .ARM.attributes
                0x08014e6e       0x32 ../../libDaisy/build\libdaisy.a(system_stm32h7xx.o)
 .ARM.attributes
                0x08014ea0       0x32 ../../libDaisy/build\libdaisy.a(usbd_conf.o)
 .ARM.attributes
                0x08014ed2       0x32 ../../libDaisy/build\libdaisy.a(usbh_conf.o)
 .ARM.attributes
                0x08014f04       0x32 ../../libDaisy/build\libdaisy.a(hal_map.o)
 .ARM.attributes
                0x08014f36       0x32 ../../libDaisy/build\libdaisy.a(stm32h7xx_hal.o)
 .ARM.attributes
                0x08014f68       0x32 ../../libDaisy/build\libdaisy.a(stm32h7xx_hal_cortex.o)
 .ARM.attributes
                0x08014f9a       0x32 ../../libDaisy/build\libdaisy.a(stm32h7xx_hal_dma.o)
 .ARM.attributes
                0x08014fcc       0x32 ../../libDaisy/build\libdaisy.a(stm32h7xx_hal_gpio.o)
 .ARM.attributes
                0x08014ffe       0x32 ../../libDaisy/build\libdaisy.a(stm32h7xx_hal_hcd.o)
 .ARM.attributes
                0x08015030       0x32 ../../libDaisy/build\libdaisy.a(stm32h7xx_hal_i2c.o)
 .ARM.attributes
                0x08015062       0x32 ../../libDaisy/build\libdaisy.a(stm32h7xx_hal_i2c_ex.o)
 .ARM.attributes
                0x08015094       0x32 ../../libDaisy/build\libdaisy.a(stm32h7xx_hal_pcd.o)
 .ARM.attributes
                0x080150c6       0x32 ../../libDaisy/build\libdaisy.a(stm32h7xx_hal_pcd_ex.o)
 .ARM.attributes
                0x080150f8       0x32 ../../libDaisy/build\libdaisy.a(stm32h7xx_hal_pwr_ex.o)
 .ARM.attributes
                0x0801512a       0x32 ../../libDaisy/build\libdaisy.a(stm32h7xx_hal_qspi.o)
 .ARM.attributes
                0x0801515c       0x32 ../../libDaisy/build\libdaisy.a(stm32h7xx_hal_rcc.o)
 .ARM.attributes
                0x0801518e       0x32 ../../libDaisy/build\libdaisy.a(stm32h7xx_hal_rcc_ex.o)
 .ARM.attributes
                0x080151c0       0x32 ../../libDaisy/build\libdaisy.a(stm32h7xx_hal_sai.o)
 .ARM.attributes
                0x080151f2       0x32 ../../libDaisy/build\libdaisy.a(stm32h7xx_hal_sdram.o)
 .ARM.attributes
                0x08015224       0x32 ../../libDaisy/build\libdaisy.a(stm32h7xx_hal_tim.o)
 .ARM.attributes
                0x08015256       0x32 ../../libDaisy/build\libdaisy.a(stm32h7xx_hal_tim_ex.o)
 .ARM.attributes
                0x08015288       0x32 ../../libDaisy/build\libdaisy.a(stm32h7xx_ll_fmc.o)
 .ARM.attributes
                0x080152ba       0x32 ../../libDaisy/build\libdaisy.a(stm32h7xx_ll_usb.o)
 .ARM.attributes
                0x080152ec       0x32 ../../libDaisy/build\libdaisy.a(usbd_core.o)
 .ARM.attributes
                0x0801531e       0x32 ../../libDaisy/build\libdaisy.a(usbd_ctlreq.o)
 .ARM.attributes
                0x08015350       0x32 ../../libDaisy/build\libdaisy.a(usbd_ioreq.o)
 .ARM.attributes
                0x08015382       0x32 ../../libDaisy/build\libdaisy.a(usbh_core.o)
 .ARM.attributes
                0x080153b4       0x32 ../../libDaisy/build\libdaisy.a(usbh_pipes.o)
 .ARM.attributes
                0x080153e6       0x32 ../../libDaisy/build\libdaisy.a(usb.o)
 .ARM.attributes
                0x08015418       0x32 ../../libDaisy/build\libdaisy.a(rng.o)
 .ARM.attributes
                0x0801544a       0x32 ../../libDaisy/build\libdaisy.a(spi.o)
 .ARM.attributes
                0x0801547c       0x32 ../../libDaisy/build\libdaisy.a(uart.o)
 .ARM.attributes
                0x080154ae       0x32 ../../libDaisy/build\libdaisy.a(dma.o)
 .ARM.attributes
                0x080154e0       0x32 ../../libDaisy/build\libdaisy.a(usbd_cdc_if.o)
 .ARM.attributes
                0x08015512       0x32 ../../libDaisy/build\libdaisy.a(usbd_desc.o)
 .ARM.attributes
                0x08015544       0x32 ../../libDaisy/build\libdaisy.a(stm32h7xx_hal_mdma.o)
 .ARM.attributes
                0x08015576       0x32 ../../libDaisy/build\libdaisy.a(stm32h7xx_hal_spi.o)
 .ARM.attributes
                0x080155a8       0x32 ../../libDaisy/build\libdaisy.a(stm32h7xx_hal_uart.o)
 .ARM.attributes
                0x080155da       0x32 ../../libDaisy/build\libdaisy.a(stm32h7xx_hal_uart_ex.o)
 .ARM.attributes
                0x0801560c       0x32 ../../libDaisy/build\libdaisy.a(usbd_cdc.o)
 .ARM.attributes
                0x0801563e       0x32 ../../DaisySP/build\libdaisysp.a(adsr.o)
 .ARM.attributes
                0x08015670       0x32 ../../DaisySP/build\libdaisysp.a(moogladder.o)
 .ARM.attributes
                0x080156a2       0x32 ../../DaisySP/build\libdaisysp.a(oscillator.o)
 .ARM.attributes
                0x080156d4       0x32 c:/program files/daisytoolchain/bin/../lib/gcc/arm-none-eabi/10.2.1/../../../../arm-none-eabi/lib/thumb/v7e-m+dp/hard\libstdc++_nano.a(atexit_arm.o)
 .ARM.attributes
                0x08015706       0x32 c:/program files/daisytoolchain/bin/../lib/gcc/arm-none-eabi/10.2.1/../../../../arm-none-eabi/lib/thumb/v7e-m+dp/hard\libm.a(lib_a-sf_exp.o)
 .ARM.attributes
                0x08015738       0x30 c:/program files/daisytoolchain/bin/../lib/gcc/arm-none-eabi/10.2.1/../../../../arm-none-eabi/lib/thumb/v7e-m+dp/hard\libm.a(lib_a-sf_exp2_data.o)
 .ARM.attributes
                0x08015768       0x32 c:/program files/daisytoolchain/bin/../lib/gcc/arm-none-eabi/10.2.1/../../../../arm-none-eabi/lib/thumb/v7e-m+dp/hard\libm.a(lib_a-sf_pow.o)
 .ARM.attributes
                0x0801579a       0x30 c:/program files/daisytoolchain/bin/../lib/gcc/arm-none-eabi/10.2.1/../../../../arm-none-eabi/lib/thumb/v7e-m+dp/hard\libm.a(lib_a-sf_pow_log2_data.o)
 .ARM.attributes
                0x080157ca       0x32 c:/program files/daisytoolchain/bin/../lib/gcc/arm-none-eabi/10.2.1/../../../../arm-none-eabi/lib/thumb/v7e-m+dp/hard\libm.a(lib_a-sinf.o)
 .ARM.attributes
                0x080157fc       0x32 c:/program files/daisytoolchain/bin/../lib/gcc/arm-none-eabi/10.2.1/../../../../arm-none-eabi/lib/thumb/v7e-m+dp/hard\libm.a(lib_a-wf_fmod.o)
 .ARM.attributes
                0x0801582e       0x32 c:/program files/daisytoolchain/bin/../lib/gcc/arm-none-eabi/10.2.1/../../../../arm-none-eabi/lib/thumb/v7e-m+dp/hard\libm.a(lib_a-ef_fmod.o)
 .ARM.attributes
                0x08015860       0x32 c:/program files/daisytoolchain/bin/../lib/gcc/arm-none-eabi/10.2.1/../../../../arm-none-eabi/lib/thumb/v7e-m+dp/hard\libm.a(lib_a-math_errf.o)
 .ARM.attributes
                0x08015892       0x30 c:/program files/daisytoolchain/bin/../lib/gcc/arm-none-eabi/10.2.1/../../../../arm-none-eabi/lib/thumb/v7e-m+dp/hard\libm.a(lib_a-s_lib_ver.o)
 .ARM.attributes
                0x080158c2       0x30 c:/program files/daisytoolchain/bin/../lib/gcc/arm-none-eabi/10.2.1/../../../../arm-none-eabi/lib/thumb/v7e-m+dp/hard\libm.a(lib_a-sincosf_data.o)
 .ARM.attributes
                0x080158f2       0x32 c:/program files/daisytoolchain/bin/../lib/gcc/arm-none-eabi/10.2.1/../../../../arm-none-eabi/lib/thumb/v7e-m+dp/hard\libc_nano.a(lib_a-calloc.o)
 .ARM.attributes
                0x08015924       0x32 c:/program files/daisytoolchain/bin/../lib/gcc/arm-none-eabi/10.2.1/../../../../arm-none-eabi/lib/thumb/v7e-m+dp/hard\libc_nano.a(lib_a-cxa_atexit.o)
 .ARM.attributes
                0x08015956       0x32 c:/program files/daisytoolchain/bin/../lib/gcc/arm-none-eabi/10.2.1/../../../../arm-none-eabi/lib/thumb/v7e-m+dp/hard\libc_nano.a(lib_a-errno.o)
 .ARM.attributes
                0x08015988       0x30 c:/program files/daisytoolchain/bin/../lib/gcc/arm-none-eabi/10.2.1/../../../../arm-none-eabi/lib/thumb/v7e-m+dp/hard\libc_nano.a(lib_a-impure.o)
 .ARM.attributes
                0x080159b8       0x32 c:/program files/daisytoolchain/bin/../lib/gcc/arm-none-eabi/10.2.1/../../../../arm-none-eabi/lib/thumb/v7e-m+dp/hard\libc_nano.a(lib_a-init.o)
 .ARM.attributes
                0x080159ea       0x32 c:/program files/daisytoolchain/bin/../lib/gcc/arm-none-eabi/10.2.1/../../../../arm-none-eabi/lib/thumb/v7e-m+dp/hard\libc_nano.a(lib_a-malloc.o)
 .ARM.attributes
                0x08015a1c       0x32 c:/program files/daisytoolchain/bin/../lib/gcc/arm-none-eabi/10.2.1/../../../../arm-none-eabi/lib/thumb/v7e-m+dp/hard\libc_nano.a(lib_a-memcpy-stub.o)
 .ARM.attributes
                0x08015a4e       0x32 c:/program files/daisytoolchain/bin/../lib/gcc/arm-none-eabi/10.2.1/../../../../arm-none-eabi/lib/thumb/v7e-m+dp/hard\libc_nano.a(lib_a-memset.o)
 .ARM.attributes
                0x08015a80       0x32 c:/program files/daisytoolchain/bin/../lib/gcc/arm-none-eabi/10.2.1/../../../../arm-none-eabi/lib/thumb/v7e-m+dp/hard\libc_nano.a(lib_a-nano-callocr.o)
 .ARM.attributes
                0x08015ab2       0x32 c:/program files/daisytoolchain/bin/../lib/gcc/arm-none-eabi/10.2.1/../../../../arm-none-eabi/lib/thumb/v7e-m+dp/hard\libc_nano.a(lib_a-nano-freer.o)
 .ARM.attributes
                0x08015ae4       0x32 c:/program files/daisytoolchain/bin/../lib/gcc/arm-none-eabi/10.2.1/../../../../arm-none-eabi/lib/thumb/v7e-m+dp/hard\libc_nano.a(lib_a-nano-mallocr.o)
 .ARM.attributes
                0x08015b16       0x32 c:/program files/daisytoolchain/bin/../lib/gcc/arm-none-eabi/10.2.1/../../../../arm-none-eabi/lib/thumb/v7e-m+dp/hard\libc_nano.a(lib_a-printf.o)
 .ARM.attributes
                0x08015b48       0x32 c:/program files/daisytoolchain/bin/../lib/gcc/arm-none-eabi/10.2.1/../../../../arm-none-eabi/lib/thumb/v7e-m+dp/hard\libc_nano.a(lib_a-putchar.o)
 .ARM.attributes
                0x08015b7a       0x32 c:/program files/daisytoolchain/bin/../lib/gcc/arm-none-eabi/10.2.1/../../../../arm-none-eabi/lib/thumb/v7e-m+dp/hard\libc_nano.a(lib_a-sbrkr.o)
 .ARM.attributes
                0x08015bac       0x32 c:/program files/daisytoolchain/bin/../lib/gcc/arm-none-eabi/10.2.1/../../../../arm-none-eabi/lib/thumb/v7e-m+dp/hard\libc_nano.a(lib_a-findfp.o)
 .ARM.attributes
                0x08015bde       0x32 c:/program files/daisytoolchain/bin/../lib/gcc/arm-none-eabi/10.2.1/../../../../arm-none-eabi/lib/thumb/v7e-m+dp/hard\libc_nano.a(lib_a-fwalk.o)
 .ARM.attributes
                0x08015c10       0x32 c:/program files/daisytoolchain/bin/../lib/gcc/arm-none-eabi/10.2.1/../../../../arm-none-eabi/lib/thumb/v7e-m+dp/hard\libc_nano.a(lib_a-lock.o)
 .ARM.attributes
                0x08015c42       0x32 c:/program files/daisytoolchain/bin/../lib/gcc/arm-none-eabi/10.2.1/../../../../arm-none-eabi/lib/thumb/v7e-m+dp/hard\libc_nano.a(lib_a-mlock.o)
 .ARM.attributes
                0x08015c74       0x32 c:/program files/daisytoolchain/bin/../lib/gcc/arm-none-eabi/10.2.1/../../../../arm-none-eabi/lib/thumb/v7e-m+dp/hard\libc_nano.a(lib_a-nano-vfprintf.o)
 .ARM.attributes
                0x08015ca6       0x32 c:/program files/daisytoolchain/bin/../lib/gcc/arm-none-eabi/10.2.1/../../../../arm-none-eabi/lib/thumb/v7e-m+dp/hard\libc_nano.a(lib_a-nano-vfprintf_i.o)
 .ARM.attributes
                0x08015cd8       0x32 c:/program files/daisytoolchain/bin/../lib/gcc/arm-none-eabi/10.2.1/../../../../arm-none-eabi/lib/thumb/v7e-m+dp/hard\libc_nano.a(lib_a-putc.o)
 .ARM.attributes
                0x08015d0a       0x32 c:/program files/daisytoolchain/bin/../lib/gcc/arm-none-eabi/10.2.1/../../../../arm-none-eabi/lib/thumb/v7e-m+dp/hard\libc_nano.a(lib_a-reent.o)
 .ARM.attributes
                0x08015d3c       0x32 c:/program files/daisytoolchain/bin/../lib/gcc/arm-none-eabi/10.2.1/../../../../arm-none-eabi/lib/thumb/v7e-m+dp/hard\libc_nano.a(lib_a-stdio.o)
 .ARM.attributes
                0x08015d6e       0x32 c:/program files/daisytoolchain/bin/../lib/gcc/arm-none-eabi/10.2.1/../../../../arm-none-eabi/lib/thumb/v7e-m+dp/hard\libc_nano.a(lib_a-wbuf.o)
 .ARM.attributes
                0x08015da0       0x32 c:/program files/daisytoolchain/bin/../lib/gcc/arm-none-eabi/10.2.1/../../../../arm-none-eabi/lib/thumb/v7e-m+dp/hard\libc_nano.a(lib_a-writer.o)
 .ARM.attributes
                0x08015dd2       0x32 c:/program files/daisytoolchain/bin/../lib/gcc/arm-none-eabi/10.2.1/../../../../arm-none-eabi/lib/thumb/v7e-m+dp/hard\libc_nano.a(lib_a-wsetup.o)
 .ARM.attributes
                0x08015e04       0x32 c:/program files/daisytoolchain/bin/../lib/gcc/arm-none-eabi/10.2.1/../../../../arm-none-eabi/lib/thumb/v7e-m+dp/hard\libc_nano.a(lib_a-closer.o)
 .ARM.attributes
                0x08015e36       0x32 c:/program files/daisytoolchain/bin/../lib/gcc/arm-none-eabi/10.2.1/../../../../arm-none-eabi/lib/thumb/v7e-m+dp/hard\libc_nano.a(lib_a-fflush.o)
 .ARM.attributes
                0x08015e68       0x32 c:/program files/daisytoolchain/bin/../lib/gcc/arm-none-eabi/10.2.1/../../../../arm-none-eabi/lib/thumb/v7e-m+dp/hard\libc_nano.a(lib_a-lseekr.o)
 .ARM.attributes
                0x08015e9a       0x32 c:/program files/daisytoolchain/bin/../lib/gcc/arm-none-eabi/10.2.1/../../../../arm-none-eabi/lib/thumb/v7e-m+dp/hard\libc_nano.a(lib_a-makebuf.o)
 .ARM.attributes
                0x08015ecc       0x1c c:/program files/daisytoolchain/bin/../lib/gcc/arm-none-eabi/10.2.1/../../../../arm-none-eabi/lib/thumb/v7e-m+dp/hard\libc_nano.a(lib_a-memchr.o)
 .ARM.attributes
                0x08015ee8       0x32 c:/program files/daisytoolchain/bin/../lib/gcc/arm-none-eabi/10.2.1/../../../../arm-none-eabi/lib/thumb/v7e-m+dp/hard\libc_nano.a(lib_a-readr.o)
 .ARM.attributes
                0x08015f1a       0x32 c:/program files/daisytoolchain/bin/../lib/gcc/arm-none-eabi/10.2.1/../../../../arm-none-eabi/lib/thumb/v7e-m+dp/hard\libc_nano.a(lib_a-fstatr.o)
 .ARM.attributes
                0x08015f4c       0x32 c:/program files/daisytoolchain/bin/../lib/gcc/arm-none-eabi/10.2.1/../../../../arm-none-eabi/lib/thumb/v7e-m+dp/hard\libc_nano.a(lib_a-isattyr.o)
 .ARM.attributes
                0x08015f7e       0x1e c:/program files/daisytoolchain/bin/../lib/gcc/arm-none-eabi/10.2.1/thumb/v7e-m+dp/hard\libgcc.a(_arm_addsubdf3.o)
 .ARM.attributes
                0x08015f9c       0x1e c:/program files/daisytoolchain/bin/../lib/gcc/arm-none-eabi/10.2.1/thumb/v7e-m+dp/hard\libgcc.a(_aeabi_uldivmod.o)
 .ARM.attributes
                0x08015fba       0x32 c:/program files/daisytoolchain/bin/../lib/gcc/arm-none-eabi/10.2.1/thumb/v7e-m+dp/hard\libgcc.a(_udivmoddi4.o)
 .ARM.attributes
                0x08015fec       0x1e c:/program files/daisytoolchain/bin/../lib/gcc/arm-none-eabi/10.2.1/thumb/v7e-m+dp/hard\libgcc.a(_dvmd_tls.o)
 .ARM.attributes
                0x0801600a       0x32 c:/program files/daisytoolchain/bin/../lib/gcc/arm-none-eabi/10.2.1/../../../../arm-none-eabi/lib/thumb/v7e-m+dp/hard\libnosys.a(close.o)
 .ARM.attributes
                0x0801603c       0x32 c:/program files/daisytoolchain/bin/../lib/gcc/arm-none-eabi/10.2.1/../../../../arm-none-eabi/lib/thumb/v7e-m+dp/hard\libnosys.a(fstat.o)
 .ARM.attributes
                0x0801606e       0x32 c:/program files/daisytoolchain/bin/../lib/gcc/arm-none-eabi/10.2.1/../../../../arm-none-eabi/lib/thumb/v7e-m+dp/hard\libnosys.a(isatty.o)
 .ARM.attributes
                0x080160a0       0x32 c:/program files/daisytoolchain/bin/../lib/gcc/arm-none-eabi/10.2.1/../../../../arm-none-eabi/lib/thumb/v7e-m+dp/hard\libnosys.a(lseek.o)
 .ARM.attributes
                0x080160d2       0x32 c:/program files/daisytoolchain/bin/../lib/gcc/arm-none-eabi/10.2.1/../../../../arm-none-eabi/lib/thumb/v7e-m+dp/hard\libnosys.a(read.o)
 .ARM.attributes
                0x08016104       0x32 c:/program files/daisytoolchain/bin/../lib/gcc/arm-none-eabi/10.2.1/../../../../arm-none-eabi/lib/thumb/v7e-m+dp/hard\libnosys.a(sbrk.o)
 .ARM.attributes
                0x08016136       0x32 c:/program files/daisytoolchain/bin/../lib/gcc/arm-none-eabi/10.2.1/../../../../arm-none-eabi/lib/thumb/v7e-m+dp/hard\libnosys.a(write.o)
 .ARM.attributes
                0x08016168       0x1e c:/program files/daisytoolchain/bin/../lib/gcc/arm-none-eabi/10.2.1/thumb/v7e-m+dp/hard/crtn.o

.preinit_array  0x08014b30        0x0
                0x08014b30                PROVIDE (__preinit_array_start = .)
 *(.preinit_array*)
                0x08014b30                PROVIDE (__preinit_array_end = .)

.init_array     0x08014b30       0x28
                0x08014b30                PROVIDE (__init_array_start = .)
 *(SORT_BY_NAME(.init_array.*))
 *(.init_array*)
 .init_array    0x08014b30        0x4 c:/program files/daisytoolchain/bin/../lib/gcc/arm-none-eabi/10.2.1/thumb/v7e-m+dp/hard/crtbegin.o
 .init_array    0x08014b34        0x4 build/main.o
 .init_array    0x08014b38        0x4 ../../libDaisy/build\libdaisy.a(audio.o)
 .init_array    0x08014b3c        0x4 ../../libDaisy/build\libdaisy.a(usb_midi.o)
 .init_array    0x08014b40        0x4 ../../libDaisy/build\libdaisy.a(i2c.o)
 .init_array    0x08014b44        0x4 ../../libDaisy/build\libdaisy.a(qspi.o)
 .init_array    0x08014b48        0x4 ../../libDaisy/build\libdaisy.a(tim.o)
 .init_array    0x08014b4c        0x4 ../../libDaisy/build\libdaisy.a(system.o)
 .init_array    0x08014b50        0x4 ../../libDaisy/build\libdaisy.a(spi.o)
 .init_array    0x08014b54        0x4 ../../libDaisy/build\libdaisy.a(uart.o)
                0x08014b58                PROVIDE (__init_array_end = .)

.fini_array     0x08014b58        0x4
                [!provide]                PROVIDE (__fini_array_start = .)
 *(.fini_array*)
 .fini_array    0x08014b58        0x4 c:/program files/daisytoolchain/bin/../lib/gcc/arm-none-eabi/10.2.1/thumb/v7e-m+dp/hard/crtbegin.o
 *(SORT_BY_NAME(.fini_array.*))
                [!provide]                PROVIDE (__fini_array_end = .)

.data           0x24000000      0x6a0 load address 0x08014b5c
                0x24000000                . = ALIGN (0x4)
                0x24000000                _sdata = .
                [!provide]                PROVIDE (__data_start__ = _sdata)
 *(.data)
 .data          0x24000000        0x4 c:/program files/daisytoolchain/bin/../lib/gcc/arm-none-eabi/10.2.1/thumb/v7e-m+dp/hard/crtbegin.o
                0x24000000                __dso_handle
 *(.data*)
 .data.gPlay    0x24000004        0x1 build/main.o
                0x24000004                gPlay
 *fill*         0x24000005        0x3 
 .data.pitch_bend
                0x24000008        0x4 build/main.o
                0x24000008                pitch_bend
 .data.seqmem   0x2400000c        0x4 build/main.o
                0x2400000c                seqmem
 .data.preset_setting
                0x24000010       0x88 build/vasynth.o
                0x24000010                preset_setting
 .data._ZN5daisy9I2CHandle4Impl21queued_dma_transfers_E
                0x24000098       0x48 ../../libDaisy/build\libdaisy.a(i2c.o)
                0x24000098                daisy::I2CHandle::Impl::queued_dma_transfers_
 .data.SystemCoreClock
                0x240000e0        0x4 ../../libDaisy/build\libdaisy.a(system_stm32h7xx.o)
                0x240000e0                SystemCoreClock
 .data.SystemD2Clock
                0x240000e4        0x4 ../../libDaisy/build\libdaisy.a(system_stm32h7xx.o)
                0x240000e4                SystemD2Clock
 .data.uwTickFreq
                0x240000e8        0x1 ../../libDaisy/build\libdaisy.a(stm32h7xx_hal.o)
 *fill*         0x240000e9        0x3 
 .data.uwTickPrio
                0x240000ec        0x4 ../../libDaisy/build\libdaisy.a(stm32h7xx_hal.o)
 .data._ZL13spi1_pins_nss
                0x240000f0        0x9 ../../libDaisy/build\libdaisy.a(spi.o)
 *fill*         0x240000f9        0x3 
 .data._ZL13spi2_pins_nss
                0x240000fc        0x9 ../../libDaisy/build\libdaisy.a(spi.o)
 *fill*         0x24000105        0x3 
 .data._ZL13spi3_pins_nss
                0x24000108        0x9 ../../libDaisy/build\libdaisy.a(spi.o)
 *fill*         0x24000111        0x3 
 .data._ZL13spi6_pins_nss
                0x24000114        0x9 ../../libDaisy/build\libdaisy.a(spi.o)
 *fill*         0x2400011d        0x3 
 .data._ZL14spi1_pins_miso
                0x24000120        0x9 ../../libDaisy/build\libdaisy.a(spi.o)
 *fill*         0x24000129        0x3 
 .data._ZL14spi1_pins_mosi
                0x2400012c        0x9 ../../libDaisy/build\libdaisy.a(spi.o)
 *fill*         0x24000135        0x3 
 .data._ZL14spi1_pins_sclk
                0x24000138        0x9 ../../libDaisy/build\libdaisy.a(spi.o)
 *fill*         0x24000141        0x3 
 .data._ZL14spi2_pins_miso
                0x24000144        0x9 ../../libDaisy/build\libdaisy.a(spi.o)
 *fill*         0x2400014d        0x3 
 .data._ZL14spi2_pins_mosi
                0x24000150        0x9 ../../libDaisy/build\libdaisy.a(spi.o)
 *fill*         0x24000159        0x3 
 .data._ZL14spi2_pins_sclk
                0x2400015c        0x9 ../../libDaisy/build\libdaisy.a(spi.o)
 *fill*         0x24000165        0x3 
 .data._ZL14spi3_pins_miso
                0x24000168        0x9 ../../libDaisy/build\libdaisy.a(spi.o)
 *fill*         0x24000171        0x3 
 .data._ZL14spi3_pins_mosi
                0x24000174        0x9 ../../libDaisy/build\libdaisy.a(spi.o)
 *fill*         0x2400017d        0x3 
 .data._ZL14spi3_pins_sclk
                0x24000180        0x9 ../../libDaisy/build\libdaisy.a(spi.o)
 *fill*         0x24000189        0x3 
 .data._ZL14spi6_pins_miso
                0x2400018c        0x9 ../../libDaisy/build\libdaisy.a(spi.o)
 *fill*         0x24000195        0x3 
 .data._ZL14spi6_pins_mosi
                0x24000198        0x9 ../../libDaisy/build\libdaisy.a(spi.o)
 *fill*         0x240001a1        0x3 
 .data._ZL14spi6_pins_sclk
                0x240001a4        0x9 ../../libDaisy/build\libdaisy.a(spi.o)
 *fill*         0x240001ad        0x3 
 .data._ZN5daisy9SpiHandle4Impl21queued_dma_transfers_E
                0x240001b0       0x70 ../../libDaisy/build\libdaisy.a(spi.o)
                0x240001b0                daisy::SpiHandle::Impl::queued_dma_transfers_
 .data._ZN5daisy11UartHandler4Impl21queued_dma_transfers_E
                0x24000220       0xfc ../../libDaisy/build\libdaisy.a(uart.o)
                0x24000220                daisy::UartHandler::Impl::queued_dma_transfers_
 .data.lpuart1_pins_rx
                0x2400031c        0x9 ../../libDaisy/build\libdaisy.a(uart.o)
                0x2400031c                lpuart1_pins_rx
 *fill*         0x24000325        0x3 
 .data.lpuart1_pins_tx
                0x24000328        0x9 ../../libDaisy/build\libdaisy.a(uart.o)
                0x24000328                lpuart1_pins_tx
 *fill*         0x24000331        0x3 
 .data.pins_none
                0x24000334        0x3 ../../libDaisy/build\libdaisy.a(uart.o)
                0x24000334                pins_none
 *fill*         0x24000337        0x1 
 .data.pins_periphs
                0x24000338       0x48 ../../libDaisy/build\libdaisy.a(uart.o)
                0x24000338                pins_periphs
 .data.uart4_pins_rx
                0x24000380        0x9 ../../libDaisy/build\libdaisy.a(uart.o)
                0x24000380                uart4_pins_rx
 *fill*         0x24000389        0x3 
 .data.uart4_pins_tx
                0x2400038c        0x9 ../../libDaisy/build\libdaisy.a(uart.o)
                0x2400038c                uart4_pins_tx
 *fill*         0x24000395        0x3 
 .data.uart5_pins_rx
                0x24000398        0x9 ../../libDaisy/build\libdaisy.a(uart.o)
                0x24000398                uart5_pins_rx
 *fill*         0x240003a1        0x3 
 .data.uart5_pins_tx
                0x240003a4        0x9 ../../libDaisy/build\libdaisy.a(uart.o)
                0x240003a4                uart5_pins_tx
 *fill*         0x240003ad        0x3 
 .data.uart7_pins_tx
                0x240003b0        0x9 ../../libDaisy/build\libdaisy.a(uart.o)
                0x240003b0                uart7_pins_tx
 *fill*         0x240003b9        0x3 
 .data.usart1_pins_rx
                0x240003bc        0x9 ../../libDaisy/build\libdaisy.a(uart.o)
                0x240003bc                usart1_pins_rx
 *fill*         0x240003c5        0x3 
 .data.usart1_pins_tx
                0x240003c8        0x9 ../../libDaisy/build\libdaisy.a(uart.o)
                0x240003c8                usart1_pins_tx
 *fill*         0x240003d1        0x3 
 .data.usart2_pins_rx
                0x240003d4        0x9 ../../libDaisy/build\libdaisy.a(uart.o)
                0x240003d4                usart2_pins_rx
 *fill*         0x240003dd        0x3 
 .data.usart2_pins_tx
                0x240003e0        0x9 ../../libDaisy/build\libdaisy.a(uart.o)
                0x240003e0                usart2_pins_tx
 *fill*         0x240003e9        0x3 
 .data.usart3_pins_rx
                0x240003ec        0x9 ../../libDaisy/build\libdaisy.a(uart.o)
                0x240003ec                usart3_pins_rx
 *fill*         0x240003f5        0x3 
 .data.usart3_pins_tx
                0x240003f8        0x9 ../../libDaisy/build\libdaisy.a(uart.o)
                0x240003f8                usart3_pins_tx
 *fill*         0x24000401        0x3 
 .data.usart6_pins_rx
                0x24000404        0x9 ../../libDaisy/build\libdaisy.a(uart.o)
                0x24000404                usart6_pins_rx
 *fill*         0x2400040d        0x3 
 .data.USBD_Interface_fops_FS
                0x24000410       0x10 ../../libDaisy/build\libdaisy.a(usbd_cdc_if.o)
                0x24000410                USBD_Interface_fops_FS
 .data.USBD_Interface_fops_HS
                0x24000420       0x10 ../../libDaisy/build\libdaisy.a(usbd_cdc_if.o)
                0x24000420                USBD_Interface_fops_HS
 .data.line_coding_fs
                0x24000430        0x7 ../../libDaisy/build\libdaisy.a(usbd_cdc_if.o)
 *fill*         0x24000437        0x1 
 .data.line_coding_hs
                0x24000438        0x7 ../../libDaisy/build\libdaisy.a(usbd_cdc_if.o)
 *fill*         0x2400043f        0x1 
 .data.FS_Desc  0x24000440       0x1c ../../libDaisy/build\libdaisy.a(usbd_desc.o)
                0x24000440                FS_Desc
 .data.HS_Desc  0x2400045c       0x1c ../../libDaisy/build\libdaisy.a(usbd_desc.o)
                0x2400045c                HS_Desc
 .data.USBD_FS_DeviceDesc
                0x24000478       0x12 ../../libDaisy/build\libdaisy.a(usbd_desc.o)
                0x24000478                USBD_FS_DeviceDesc
 *fill*         0x2400048a        0x2 
 .data.USBD_HS_DeviceDesc
                0x2400048c       0x12 ../../libDaisy/build\libdaisy.a(usbd_desc.o)
                0x2400048c                USBD_HS_DeviceDesc
 *fill*         0x2400049e        0x2 
 .data.USBD_LangIDDesc
                0x240004a0        0x4 ../../libDaisy/build\libdaisy.a(usbd_desc.o)
                0x240004a0                USBD_LangIDDesc
 .data.USBD_StringSerial
                0x240004a4       0x1a ../../libDaisy/build\libdaisy.a(usbd_desc.o)
                0x240004a4                USBD_StringSerial
 *fill*         0x240004be        0x2 
 .data.USBD_CDC
                0x240004c0       0x3c ../../libDaisy/build\libdaisy.a(usbd_cdc.o)
                0x240004c0                USBD_CDC
 .data.USBD_CDC_CfgFSDesc
                0x240004fc       0x43 ../../libDaisy/build\libdaisy.a(usbd_cdc.o)
                0x240004fc                USBD_CDC_CfgFSDesc
 *fill*         0x2400053f        0x1 
 .data.USBD_CDC_CfgHSDesc
                0x24000540       0x43 ../../libDaisy/build\libdaisy.a(usbd_cdc.o)
                0x24000540                USBD_CDC_CfgHSDesc
 *fill*         0x24000583        0x1 
 .data.USBD_CDC_DeviceQualifierDesc
                0x24000584        0xa ../../libDaisy/build\libdaisy.a(usbd_cdc.o)
 *fill*         0x2400058e        0x2 
 .data.USBD_CDC_OtherSpeedCfgDesc
                0x24000590       0x43 ../../libDaisy/build\libdaisy.a(usbd_cdc.o)
                0x24000590                USBD_CDC_OtherSpeedCfgDesc
 *fill*         0x240005d3        0x1 
 .data.USBD_MIDI_CfgDesc
                0x240005d4       0x65 ../../libDaisy/build\libdaisy.a(usbd_cdc.o)
                0x240005d4                USBD_MIDI_CfgDesc
 .data.__fdlib_version
                0x24000639        0x1 c:/program files/daisytoolchain/bin/../lib/gcc/arm-none-eabi/10.2.1/../../../../arm-none-eabi/lib/thumb/v7e-m+dp/hard\libm.a(lib_a-s_lib_ver.o)
                0x24000639                __fdlib_version
 *fill*         0x2400063a        0x2 
 .data._impure_ptr
                0x2400063c        0x4 c:/program files/daisytoolchain/bin/../lib/gcc/arm-none-eabi/10.2.1/../../../../arm-none-eabi/lib/thumb/v7e-m+dp/hard\libc_nano.a(lib_a-impure.o)
                0x2400063c                _impure_ptr
 .data.impure_data
                0x24000640       0x60 c:/program files/daisytoolchain/bin/../lib/gcc/arm-none-eabi/10.2.1/../../../../arm-none-eabi/lib/thumb/v7e-m+dp/hard\libc_nano.a(lib_a-impure.o)
                0x240006a0                . = ALIGN (0x4)
                0x240006a0                _edata = .
                [!provide]                PROVIDE (__data_end__ = _edata)
                0x08014b5c                _sidata = LOADADDR (.data)

.igot.plt       0x240006a0        0x0 load address 0x080151fc
 .igot.plt      0x240006a0        0x0 c:/program files/daisytoolchain/bin/../lib/gcc/arm-none-eabi/10.2.1/thumb/v7e-m+dp/hard/crtbegin.o

.bss            0x240006a0    0x102b0 load address 0x080151fc
                0x240006a0                . = ALIGN (0x4)
                0x240006a0                _sbss = .
                0x240006a0                PROVIDE (__bss_start__ = _sbss)
 *(.bss)
 .bss           0x240006a0       0x1c c:/program files/daisytoolchain/bin/../lib/gcc/arm-none-eabi/10.2.1/thumb/v7e-m+dp/hard/crtbegin.o
 *(.bss*)
 .bss.hardware  0x240006bc       0x3c build/main.o
                0x240006bc                hardware
 .bss.master_tune
                0x240006f8        0x4 build/main.o
                0x240006f8                master_tune
 .bss.midi      0x240006fc     0x90b4 build/main.o
                0x240006fc                midi
 .bss.seqclock  0x240097b0        0x2 build/main.o
                0x240097b0                seqclock
 .bss.seqmode   0x240097b2        0x2 build/main.o
                0x240097b2                seqmode
 .bss.seqmsg    0x240097b4        0x2 build/main.o
                0x240097b4                seqmsg
 .bss.seqnote   0x240097b6        0x2 build/main.o
                0x240097b6                seqnote
 .bss.seqtime   0x240097b8        0x2 build/main.o
                0x240097b8                seqtime
 .bss.seqvelocity
                0x240097ba        0x2 build/main.o
                0x240097ba                seqvelocity
 .bss.sysCallbackRate
                0x240097bc        0x4 build/main.o
                0x240097bc                sysCallbackRate
 .bss.sysSampleRate
                0x240097c0        0x4 build/main.o
                0x240097c0                sysSampleRate
 .bss.vasynth   0x240097c4      0xa34 build/main.o
                0x240097c4                vasynth
 .bss._ZL15FMC_Initialized
                0x2400a1f8        0x4 ../../libDaisy/build\libdaisy.a(sdram.o)
 .bss._ZL9dsy_sdram
                0x2400a1fc       0x38 ../../libDaisy/build\libdaisy.a(sdram.o)
 .bss._ZN5daisyL12audio_handleE
                0x2400a234       0x38 ../../libDaisy/build\libdaisy.a(audio.o)
 .bss._ZL15midi_usb_handle
                0x2400a26c      0x838 ../../libDaisy/build\libdaisy.a(usb_midi.o)
 .bss._ZN5daisy9I2CHandle4Impl22dma_active_peripheral_E
                0x2400aaa4        0x1 ../../libDaisy/build\libdaisy.a(i2c.o)
                0x2400aaa4                daisy::I2CHandle::Impl::dma_active_peripheral_
 *fill*         0x2400aaa5        0x3 
 .bss._ZN5daisyL11i2c_handlesE
                0x2400aaa8      0x360 ../../libDaisy/build\libdaisy.a(i2c.o)
 .bss._ZN5daisyL9qspi_implE
                0x2400ae08       0x78 ../../libDaisy/build\libdaisy.a(qspi.o)
 .bss._ZN5daisyL11sai_handlesE
                0x2400ae80      0x4b8 ../../libDaisy/build\libdaisy.a(sai.o)
 .bss._ZN5daisyL11tim_handlesE
                0x2400b338      0x160 ../../libDaisy/build\libdaisy.a(tim.o)
 .bss._ZN5daisy6System4tim_E
                0x2400b498        0x4 ../../libDaisy/build\libdaisy.a(system.o)
                0x2400b498                daisy::System::tim_
 *fill*         0x2400b49c        0x4 
 .bss.hpcd_USB_OTG_FS
                0x2400b4a0      0x408 ../../libDaisy/build\libdaisy.a(usbd_conf.o)
                0x2400b4a0                hpcd_USB_OTG_FS
 .bss.hpcd_USB_OTG_HS
                0x2400b8a8      0x408 ../../libDaisy/build\libdaisy.a(usbd_conf.o)
                0x2400b8a8                hpcd_USB_OTG_HS
 .bss.hhcd_USB_OTG_HS
                0x2400bcb0      0x2c4 ../../libDaisy/build\libdaisy.a(usbh_conf.o)
                0x2400bcb0                hhcd_USB_OTG_HS
 .bss.uwTick    0x2400bf74        0x4 ../../libDaisy/build\libdaisy.a(stm32h7xx_hal.o)
 .bss.cfgidx.0  0x2400bf78        0x1 ../../libDaisy/build\libdaisy.a(usbd_ctlreq.o)
 *fill*         0x2400bf79        0x3 
 .bss.hUsbDeviceFS
                0x2400bf7c      0x29c ../../libDaisy/build\libdaisy.a(usb.o)
                0x2400bf7c                hUsbDeviceFS
 .bss.hUsbDeviceHS
                0x2400c218      0x29c ../../libDaisy/build\libdaisy.a(usb.o)
                0x2400c218                hUsbDeviceHS
 .bss.rx_callback
                0x2400c4b4        0x4 ../../libDaisy/build\libdaisy.a(usb.o)
                0x2400c4b4                rx_callback
 .bss.rxcallback
                0x2400c4b8        0x4 ../../libDaisy/build\libdaisy.a(usb.o)
                0x2400c4b8                rxcallback
 .bss.usbd_mode
                0x2400c4bc        0x1 ../../libDaisy/build\libdaisy.a(usb.o)
                0x2400c4bc                usbd_mode
 *fill*         0x2400c4bd        0x3 
 .bss._ZL11spi_handles
                0x2400c4c0      0x9c0 ../../libDaisy/build\libdaisy.a(spi.o)
 .bss._ZL13spi4_pins_nss
                0x2400ce80        0x9 ../../libDaisy/build\libdaisy.a(spi.o)
 *fill*         0x2400ce89        0x3 
 .bss._ZL13spi5_pins_nss
                0x2400ce8c        0x9 ../../libDaisy/build\libdaisy.a(spi.o)
 *fill*         0x2400ce95        0x3 
 .bss._ZL14spi4_pins_miso
                0x2400ce98        0x9 ../../libDaisy/build\libdaisy.a(spi.o)
 *fill*         0x2400cea1        0x3 
 .bss._ZL14spi4_pins_mosi
                0x2400cea4        0x9 ../../libDaisy/build\libdaisy.a(spi.o)
 *fill*         0x2400cead        0x3 
 .bss._ZL14spi4_pins_sclk
                0x2400ceb0        0x9 ../../libDaisy/build\libdaisy.a(spi.o)
 *fill*         0x2400ceb9        0x3 
 .bss._ZL14spi5_pins_miso
                0x2400cebc        0x9 ../../libDaisy/build\libdaisy.a(spi.o)
 *fill*         0x2400cec5        0x3 
 .bss._ZL14spi5_pins_mosi
                0x2400cec8        0x9 ../../libDaisy/build\libdaisy.a(spi.o)
 *fill*         0x2400ced1        0x3 
 .bss._ZL14spi5_pins_sclk
                0x2400ced4        0x9 ../../libDaisy/build\libdaisy.a(spi.o)
 *fill*         0x2400cedd        0x3 
 .bss._ZN5daisy9SpiHandle4Impl18next_end_callback_E
                0x2400cee0        0x4 ../../libDaisy/build\libdaisy.a(spi.o)
                0x2400cee0                daisy::SpiHandle::Impl::next_end_callback_
 .bss._ZN5daisy9SpiHandle4Impl22dma_active_peripheral_E
                0x2400cee4        0x1 ../../libDaisy/build\libdaisy.a(spi.o)
                0x2400cee4                daisy::SpiHandle::Impl::dma_active_peripheral_
 *fill*         0x2400cee5        0x3 
 .bss._ZN5daisy9SpiHandle4Impl22next_callback_context_E
                0x2400cee8        0x4 ../../libDaisy/build\libdaisy.a(spi.o)
                0x2400cee8                daisy::SpiHandle::Impl::next_callback_context_
 .bss._ZL12uart_handles
                0x2400ceec     0x180c ../../libDaisy/build\libdaisy.a(uart.o)
 .bss._ZN5daisy11UartHandler4Impl18next_end_callback_E
                0x2400e6f8        0x4 ../../libDaisy/build\libdaisy.a(uart.o)
                0x2400e6f8                daisy::UartHandler::Impl::next_end_callback_
 .bss._ZN5daisy11UartHandler4Impl22dma_active_peripheral_E
                0x2400e6fc        0x1 ../../libDaisy/build\libdaisy.a(uart.o)
                0x2400e6fc                daisy::UartHandler::Impl::dma_active_peripheral_
 *fill*         0x2400e6fd        0x3 
 .bss._ZN5daisy11UartHandler4Impl22next_callback_context_E
                0x2400e700        0x4 ../../libDaisy/build\libdaisy.a(uart.o)
                0x2400e700                daisy::UartHandler::Impl::next_callback_context_
 .bss.uart7_pins_rx
                0x2400e704        0x9 ../../libDaisy/build\libdaisy.a(uart.o)
                0x2400e704                uart7_pins_rx
 *fill*         0x2400e70d        0x3 
 .bss.uart8_pins_rx
                0x2400e710        0x9 ../../libDaisy/build\libdaisy.a(uart.o)
                0x2400e710                uart8_pins_rx
 *fill*         0x2400e719        0x3 
 .bss.uart8_pins_tx
                0x2400e71c        0x9 ../../libDaisy/build\libdaisy.a(uart.o)
                0x2400e71c                uart8_pins_tx
 *fill*         0x2400e725        0x3 
 .bss.usart6_pins_tx
                0x2400e728        0x9 ../../libDaisy/build\libdaisy.a(uart.o)
                0x2400e728                usart6_pins_tx
 *fill*         0x2400e731        0x3 
 .bss.UserRxBufferFS
                0x2400e734      0x800 ../../libDaisy/build\libdaisy.a(usbd_cdc_if.o)
                0x2400e734                UserRxBufferFS
 .bss.UserRxBufferHS
                0x2400ef34      0x800 ../../libDaisy/build\libdaisy.a(usbd_cdc_if.o)
                0x2400ef34                UserRxBufferHS
 .bss.UserTxBufferFS
                0x2400f734      0x800 ../../libDaisy/build\libdaisy.a(usbd_cdc_if.o)
                0x2400f734                UserTxBufferFS
 .bss.UserTxBufferHS
                0x2400ff34      0x800 ../../libDaisy/build\libdaisy.a(usbd_cdc_if.o)
                0x2400ff34                UserTxBufferHS
 .bss.rx_callback_fs
                0x24010734        0x4 ../../libDaisy/build\libdaisy.a(usbd_cdc_if.o)
                0x24010734                rx_callback_fs
 .bss.rx_callback_hs
                0x24010738        0x4 ../../libDaisy/build\libdaisy.a(usbd_cdc_if.o)
                0x24010738                rx_callback_hs
 .bss.USBD_StrDesc
                0x2401073c      0x200 ../../libDaisy/build\libdaisy.a(usbd_desc.o)
                0x2401073c                USBD_StrDesc
 .bss.__malloc_free_list
                0x2401093c        0x4 c:/program files/daisytoolchain/bin/../lib/gcc/arm-none-eabi/10.2.1/../../../../arm-none-eabi/lib/thumb/v7e-m+dp/hard\libc_nano.a(lib_a-nano-mallocr.o)
                0x2401093c                __malloc_free_list
 .bss.__malloc_sbrk_start
                0x24010940        0x4 c:/program files/daisytoolchain/bin/../lib/gcc/arm-none-eabi/10.2.1/../../../../arm-none-eabi/lib/thumb/v7e-m+dp/hard\libc_nano.a(lib_a-nano-mallocr.o)
                0x24010940                __malloc_sbrk_start
 .bss.__lock___malloc_recursive_mutex
                0x24010944        0x1 c:/program files/daisytoolchain/bin/../lib/gcc/arm-none-eabi/10.2.1/../../../../arm-none-eabi/lib/thumb/v7e-m+dp/hard\libc_nano.a(lib_a-lock.o)
                0x24010944                __lock___malloc_recursive_mutex
 .bss.__lock___sfp_recursive_mutex
                0x24010945        0x1 c:/program files/daisytoolchain/bin/../lib/gcc/arm-none-eabi/10.2.1/../../../../arm-none-eabi/lib/thumb/v7e-m+dp/hard\libc_nano.a(lib_a-lock.o)
                0x24010945                __lock___sfp_recursive_mutex
 .bss.__lock___sinit_recursive_mutex
                0x24010946        0x1 c:/program files/daisytoolchain/bin/../lib/gcc/arm-none-eabi/10.2.1/../../../../arm-none-eabi/lib/thumb/v7e-m+dp/hard\libc_nano.a(lib_a-lock.o)
                0x24010946                __lock___sinit_recursive_mutex
 *fill*         0x24010947        0x1 
 .bss.errno     0x24010948        0x4 c:/program files/daisytoolchain/bin/../lib/gcc/arm-none-eabi/10.2.1/../../../../arm-none-eabi/lib/thumb/v7e-m+dp/hard\libc_nano.a(lib_a-reent.o)
                0x24010948                errno
 .bss.heap_end.0
                0x2401094c        0x4 c:/program files/daisytoolchain/bin/../lib/gcc/arm-none-eabi/10.2.1/../../../../arm-none-eabi/lib/thumb/v7e-m+dp/hard\libnosys.a(sbrk.o)
 *(COMMON)
                0x24010950                . = ALIGN (0x4)
                0x24010950                _ebss = .
                0x24010950                PROVIDE (__bss_end__ = _ebss)
                0x24010950                PROVIDE (end = .)

.dtcmram_bss    0x20000000        0x0
                0x20000000                . = ALIGN (0x4)
                0x20000000                _sdtcmram_bss = .
                [!provide]                PROVIDE (__dtcmram_bss_start__ = _sdtcmram_bss)
 *(.dtcmram_bss)
 *(.dtcmram_bss*)
                0x20000000                . = ALIGN (0x4)
                0x20000000                _edtcmram_bss = .
                [!provide]                PROVIDE (__dtcmram_bss_end__ = _edtcmram_bss)

.sram1_bss      0x30000000     0x4000
                0x30000000                . = ALIGN (0x4)
                0x30000000                _ssram1_bss = .
                [!provide]                PROVIDE (__sram1_bss_start__ = _sram1_bss)
 *(.sram1_bss)
 .sram1_bss     0x30000000     0x4000 ../../libDaisy/build\libdaisy.a(audio.o)
 *(.sram1_bss*)
                0x30004000                . = ALIGN (0x4)
                0x30004000                _esram1_bss = .
                [!provide]                PROVIDE (__sram1_bss_end__ = _esram1_bss)

.sdram_bss      0xc0000000    0x2ee0c
                0xc0000000                . = ALIGN (0x4)
                0xc0000000                _ssdram_bss = .
                [!provide]                PROVIDE (__sdram_bss_start = _ssdram_bss)
 *(.sdram_bss)
 .sdram_bss     0xc0000000    0x2ee0c build/main.o
                0xc0000000                delay_
 *(.sdram_bss*)
                0xc002ee0c                . = ALIGN (0x4)
                0xc002ee0c                _esdram_bss = .
                [!provide]                PROVIDE (__sdram_bss_end = _esdram_bss)

.qspiflash_text
                0x90000000        0x0
                0x90000000                . = ALIGN (0x4)
                0x90000000                _sqspiflash_text = .
                [!provide]                PROVIDE (__qspiflash_text_start = _sqspiflash_text)
 *(.qspiflash_text)
 *(.qspiflash_text*)
                0x90000000                . = ALIGN (0x4)
                0x90000000                _eqspiflash_text = .
                [!provide]                PROVIDE (__qspiflash_text_end = _eqspiflash_text)

.qspiflash_data
                0x90000000        0x0
                0x90000000                . = ALIGN (0x4)
                0x90000000                _sqspiflash_data = .
                [!provide]                PROVIDE (__qspiflash_data_start = _sqspiflash_data)
 *(.qspiflash_data)
 *(.qspiflash_data*)
                0x90000000                . = ALIGN (0x4)
                0x90000000                _eqspiflash_data = .
                [!provide]                PROVIDE (__qspiflash_data_end = _eqspiflash_data)

.qspiflash_bss  0x90000000        0x0
                0x90000000                . = ALIGN (0x4)
                0x90000000                _sqspiflash_bss = .
                [!provide]                PROVIDE (__qspiflash_bss_start = _sqspiflash_bss)
 *(.qspiflash_bss)
 *(.qspiflash_bss*)
                0x90000000                . = ALIGN (0x4)
                0x90000000                _eqspiflash_bss = .
                [!provide]                PROVIDE (__qspiflash_bss_end = _eqspiflash_bss)

.heap           0x24010950        0x0
                0x24010950                . = ALIGN (0x4)
                [!provide]                PROVIDE (__heap_start__ = .)
 *(.heap)
                0x24010950                . = ALIGN (0x4)
                [!provide]                PROVIDE (__heap_end__ = .)

.reserved_for_stack
                0x24010950        0x0
                0x24010950                . = ALIGN (0x4)
                [!provide]                PROVIDE (__reserved_for_stack_start__ = .)
 *(.reserved_for_stack)
                0x24010950                . = ALIGN (0x4)
                [!provide]                PROVIDE (__reserved_for_stack_end__ = .)

DISCARD
 libc.a(*)
 libm.a(*)
 libgcc.a(*)
OUTPUT(build/oscvasynth.elf elf32-littlearm)
LOAD linker stubs
LOAD c:/program files/daisytoolchain/bin/../lib/gcc/arm-none-eabi/10.2.1/../../../../arm-none-eabi/lib/thumb/v7e-m+dp/hard\libc.a
LOAD c:/program files/daisytoolchain/bin/../lib/gcc/arm-none-eabi/10.2.1/../../../../arm-none-eabi/lib/thumb/v7e-m+dp/hard\libm.a
LOAD c:/program files/daisytoolchain/bin/../lib/gcc/arm-none-eabi/10.2.1/thumb/v7e-m+dp/hard\libgcc.a

.debug_info     0x00000000    0x93577
 .debug_info    0x00000000      0x1d0 build/startup_stm32h750xx.o
 .debug_info    0x000001d0     0xa53c build/main.o
 .debug_info    0x0000a70c     0x8c46 build/vasynth.o
 .debug_info    0x00013352     0x51b4 ../../libDaisy/build\libdaisy.a(daisy_seed.o)
 .debug_info    0x00018506     0x1485 ../../libDaisy/build\libdaisy.a(codec_ak4556.o)
 .debug_info    0x0001998b     0x20f0 ../../libDaisy/build\libdaisy.a(codec_wm8731.o)
 .debug_info    0x0001ba7b     0x3336 ../../libDaisy/build\libdaisy.a(sdram.o)
 .debug_info    0x0001edb1     0x31e3 ../../libDaisy/build\libdaisy.a(audio.o)
 .debug_info    0x00021f94     0x435d ../../libDaisy/build\libdaisy.a(usb_midi.o)
 .debug_info    0x000262f1     0x3490 ../../libDaisy/build\libdaisy.a(gpio.o)
 .debug_info    0x00029781     0x6f26 ../../libDaisy/build\libdaisy.a(i2c.o)
 .debug_info    0x000306a7     0x7e26 ../../libDaisy/build\libdaisy.a(qspi.o)
