ARM GAS  C:\Users\jcjco\AppData\Local\Temp\ccZs88zN.s 			page 1


   1              		.cpu cortex-m7
   2              		.eabi_attribute 28, 1
   3              		.eabi_attribute 20, 1
   4              		.eabi_attribute 21, 1
   5              		.eabi_attribute 23, 3
   6              		.eabi_attribute 24, 1
   7              		.eabi_attribute 25, 1
   8              		.eabi_attribute 26, 1
   9              		.eabi_attribute 30, 2
  10              		.eabi_attribute 34, 1
  11              		.eabi_attribute 18, 4
  12              		.file	"vasynth.cpp"
  13              		.text
  14              	.Ltext0:
  15              		.cfi_sections	.debug_frame
  16              		.section	.text._ZN7VASynth4InitEv,"ax",%progbits
  17              		.align	1
  18              		.p2align 2,,3
  19              		.global	_ZN7VASynth4InitEv
  20              		.arch armv7e-m
  21              		.syntax unified
  22              		.thumb
  23              		.thumb_func
  24              		.fpu fpv5-d16
  26              	_ZN7VASynth4InitEv:
  27              	.LVL0:
  28              	.LFB4792:
  29              		.file 1 "vasynth.cpp"
   1:vasynth.cpp   **** #include "daisy_seed.h"
   2:vasynth.cpp   **** #include "daisysp.h"
   3:vasynth.cpp   **** 
   4:vasynth.cpp   **** #include "main.h"
   5:vasynth.cpp   **** #include "vasynth.h"
   6:vasynth.cpp   **** 
   7:vasynth.cpp   **** using namespace daisy;
   8:vasynth.cpp   **** using namespace daisysp;
   9:vasynth.cpp   **** 
  10:vasynth.cpp   **** // globals
  11:vasynth.cpp   **** extern DaisySeed hardware;
  12:vasynth.cpp   **** extern float sysSampleRate;
  13:vasynth.cpp   **** extern uint8_t gPlay;
  14:vasynth.cpp   **** 
  15:vasynth.cpp   **** extern uint8_t param_;
  16:vasynth.cpp   **** extern float pitch_bend;
  17:vasynth.cpp   **** extern float master_tune;
  18:vasynth.cpp   **** 
  19:vasynth.cpp   **** extern DelayLine<float, DELAY_MAX> DSY_SDRAM_BSS delay_;
  20:vasynth.cpp   **** 
  21:vasynth.cpp   **** // presets
  22:vasynth.cpp   **** 
  23:vasynth.cpp   **** uint8_t preset_max = PRESET_MAX;
  24:vasynth.cpp   **** uint8_t preset_number = 0;
  25:vasynth.cpp   **** 
  26:vasynth.cpp   **** VASynthSetting preset_setting[PRESET_MAX] = 
  27:vasynth.cpp   **** {
  28:vasynth.cpp   **** 	{//1
  29:vasynth.cpp   **** 		WAVE_POLYBLEP_SAW, 0.5f, 0.0f, 0.5f,
ARM GAS  C:\Users\jcjco\AppData\Local\Temp\ccZs88zN.s 			page 2


  30:vasynth.cpp   **** 		WAVE_POLYBLEP_SAW, 0.06f, 1.0f, 0.5f,
  31:vasynth.cpp   **** 		0.0f, 0.4f, 1.0f, 0.1f,   0.0f, 0.4f, 0.2f, 0.1f,
  32:vasynth.cpp   **** 		WAVE_TRI, 0.5f, 0.0f,
  33:vasynth.cpp   **** 		WAVE_TRI, 0.2f, 0.2f,
  34:vasynth.cpp   **** 		WAVE_TRI, 0.1f, 0.2f,
  35:vasynth.cpp   **** 		WAVE_SAW, 0.2f, 0.0f,
  36:vasynth.cpp   **** 		0.0f, 0.0f,
  37:vasynth.cpp   **** 		0.2f, FILTER_CUTOFF_MAX, 1.0f, 1, MIDI_CHANNEL_ONE
  38:vasynth.cpp   **** 	}
  39:vasynth.cpp   **** };
  40:vasynth.cpp   **** 
  41:vasynth.cpp   **** /*
  42:vasynth.cpp   **** osc_waveform, osc_mix, detune, osc_pw,
  43:vasynth.cpp   **** osc2_waveform, osc2_detune, osc2_transpose, osc2_pw,
  44:vasynth.cpp   **** eg_a_attack, d, s, r,
  45:vasynth.cpp   **** eg_f_attack, d, s, r,
  46:vasynth.cpp   **** lfo_waveform, lfo_freq, lfo_amp,
  47:vasynth.cpp   **** pwmlfo_waveform, pwmlfo_freq, pwmlfo_amp,
  48:vasynth.cpp   **** pwm2lfo_waveform, pwm2lfo_freq, pwm2lfo_amp,
  49:vasynth.cpp   **** vcavcflfo_waveform, vcavcflfo_freq, vcavcflfo_amp,
  50:vasynth.cpp   **** vcf_kbd_follow, env_kbd_follow,
  51:vasynth.cpp   **** filter_res, filter_cutoff, eg_f_amount, vel_select, midi_channel;
  52:vasynth.cpp   **** */
  53:vasynth.cpp   **** 
  54:vasynth.cpp   **** void VASynth::Init()
  55:vasynth.cpp   **** {
  30              		.loc 1 55 1 view -0
  31              		.cfi_startproc
  32              		@ args = 0, pretend = 0, frame = 8
  33              		@ frame_needed = 0, uses_anonymous_args = 0
  56:vasynth.cpp   **** 	for (uint8_t i = 0; i < VOICES_MAX; i++)
  34              		.loc 1 56 2 view .LVU1
  35              	.LBB197:
  36              		.loc 1 56 24 view .LVU2
  37              	.LBE197:
  55:vasynth.cpp   **** 	for (uint8_t i = 0; i < VOICES_MAX; i++)
  38              		.loc 1 55 1 is_stmt 0 view .LVU3
  39 0000 2DE9F04F 		push	{r4, r5, r6, r7, r8, r9, r10, fp, lr}
  40              		.cfi_def_cfa_offset 36
  41              		.cfi_offset 4, -36
  42              		.cfi_offset 5, -32
  43              		.cfi_offset 6, -28
  44              		.cfi_offset 7, -24
  45              		.cfi_offset 8, -20
  46              		.cfi_offset 9, -16
  47              		.cfi_offset 10, -12
  48              		.cfi_offset 11, -8
  49              		.cfi_offset 14, -4
  50 0004 0546     		mov	r5, r0
  51 0006 00F58A74 		add	r4, r0, #276
  52 000a 00F2D478 		addw	r8, r0, #2004
  53 000e 00F52579 		add	r9, r0, #660
  54 0012 2DED088B 		vpush.64	{d8, d9, d10, d11}
  55              		.cfi_def_cfa_offset 68
  56              		.cfi_offset 80, -68
  57              		.cfi_offset 81, -64
  58              		.cfi_offset 82, -60
ARM GAS  C:\Users\jcjco\AppData\Local\Temp\ccZs88zN.s 			page 3


  59              		.cfi_offset 83, -56
  60              		.cfi_offset 84, -52
  61              		.cfi_offset 85, -48
  62              		.cfi_offset 86, -44
  63              		.cfi_offset 87, -40
  64 0016 83B0     		sub	sp, sp, #12
  65              		.cfi_def_cfa_offset 80
  66 0018 48E0     		b	.L6
  67              	.LVL1:
  68              	.L19:
  69              	.LBB291:
  70              	.LBB198:
  71              	.LBB199:
  72              		.file 2 "../../DaisySP/Source/Control/adsr.h"
   1:../../DaisySP/Source/Control/adsr.h **** #pragma once
   2:../../DaisySP/Source/Control/adsr.h **** #ifndef DSY_ADSR_H
   3:../../DaisySP/Source/Control/adsr.h **** #define DSY_ADSR_H
   4:../../DaisySP/Source/Control/adsr.h **** 
   5:../../DaisySP/Source/Control/adsr.h **** #include <stdint.h>
   6:../../DaisySP/Source/Control/adsr.h **** #ifdef __cplusplus
   7:../../DaisySP/Source/Control/adsr.h **** 
   8:../../DaisySP/Source/Control/adsr.h **** namespace daisysp
   9:../../DaisySP/Source/Control/adsr.h **** {
  10:../../DaisySP/Source/Control/adsr.h **** /** Distinct stages that the phase of the envelope can be located in.
  11:../../DaisySP/Source/Control/adsr.h **** - IDLE   = located at phase location 0, and not currently running
  12:../../DaisySP/Source/Control/adsr.h **** - ATTACK  = First segment of envelope where phase moves from 0 to 1
  13:../../DaisySP/Source/Control/adsr.h **** - DECAY   = Second segment of envelope where phase moves from 1 to SUSTAIN value
  14:../../DaisySP/Source/Control/adsr.h **** - RELEASE =     Fourth segment of envelop where phase moves from SUSTAIN to 0
  15:../../DaisySP/Source/Control/adsr.h **** */
  16:../../DaisySP/Source/Control/adsr.h **** enum
  17:../../DaisySP/Source/Control/adsr.h **** {
  18:../../DaisySP/Source/Control/adsr.h ****     ADSR_SEG_IDLE    = 0,
  19:../../DaisySP/Source/Control/adsr.h ****     ADSR_SEG_ATTACK  = 1,
  20:../../DaisySP/Source/Control/adsr.h ****     ADSR_SEG_DECAY   = 2,
  21:../../DaisySP/Source/Control/adsr.h ****     ADSR_SEG_RELEASE = 4
  22:../../DaisySP/Source/Control/adsr.h **** };
  23:../../DaisySP/Source/Control/adsr.h **** 
  24:../../DaisySP/Source/Control/adsr.h **** 
  25:../../DaisySP/Source/Control/adsr.h **** /** adsr envelope module
  26:../../DaisySP/Source/Control/adsr.h **** 
  27:../../DaisySP/Source/Control/adsr.h **** Original author(s) : Paul Batchelor
  28:../../DaisySP/Source/Control/adsr.h **** 
  29:../../DaisySP/Source/Control/adsr.h **** Ported from Soundpipe by Ben Sergentanis, May 2020
  30:../../DaisySP/Source/Control/adsr.h ****  
  31:../../DaisySP/Source/Control/adsr.h **** Remake by Steffan DIedrichsen, May 2021
  32:../../DaisySP/Source/Control/adsr.h **** */
  33:../../DaisySP/Source/Control/adsr.h **** class Adsr
  34:../../DaisySP/Source/Control/adsr.h **** {
  35:../../DaisySP/Source/Control/adsr.h ****   public:
  36:../../DaisySP/Source/Control/adsr.h ****     Adsr() {}
  37:../../DaisySP/Source/Control/adsr.h ****     ~Adsr() {}
  38:../../DaisySP/Source/Control/adsr.h ****     /** Initializes the Adsr module.
  39:../../DaisySP/Source/Control/adsr.h ****         \param sample_rate - The sample rate of the audio engine being run. 
  40:../../DaisySP/Source/Control/adsr.h ****     */
  41:../../DaisySP/Source/Control/adsr.h ****     void Init(float sample_rate, int blockSize = 1);
  42:../../DaisySP/Source/Control/adsr.h ****     /**
  43:../../DaisySP/Source/Control/adsr.h ****      \function Retrigger forces the envelope back to attack phase
ARM GAS  C:\Users\jcjco\AppData\Local\Temp\ccZs88zN.s 			page 4


  44:../../DaisySP/Source/Control/adsr.h ****      \param hard  resets the history to zero, results in a click.
  45:../../DaisySP/Source/Control/adsr.h ****      */
  46:../../DaisySP/Source/Control/adsr.h ****     void Retrigger(bool hard);
  47:../../DaisySP/Source/Control/adsr.h ****     /** Processes one sample through the filter and returns one sample.
  48:../../DaisySP/Source/Control/adsr.h ****         \param gate - trigger the envelope, hold it to sustain 
  49:../../DaisySP/Source/Control/adsr.h ****     */
  50:../../DaisySP/Source/Control/adsr.h ****     float Process(bool gate);
  51:../../DaisySP/Source/Control/adsr.h ****     /** Sets time
  52:../../DaisySP/Source/Control/adsr.h ****         Set time per segment in seconds
  53:../../DaisySP/Source/Control/adsr.h ****     */
  54:../../DaisySP/Source/Control/adsr.h ****     void SetTime(int seg, float time);
  55:../../DaisySP/Source/Control/adsr.h ****     void SetAttackTime(float timeInS, float shape = 0.0f);
  56:../../DaisySP/Source/Control/adsr.h ****     void SetDecayTime(float timeInS);
  57:../../DaisySP/Source/Control/adsr.h ****     void SetReleaseTime(float timeInS);
  58:../../DaisySP/Source/Control/adsr.h **** 
  59:../../DaisySP/Source/Control/adsr.h ****   private:
  60:../../DaisySP/Source/Control/adsr.h ****     void SetTimeConstant(float timeInS, float& time, float& coeff);
  61:../../DaisySP/Source/Control/adsr.h **** 
  62:../../DaisySP/Source/Control/adsr.h ****   public:
  63:../../DaisySP/Source/Control/adsr.h ****     /** Sustain level
  64:../../DaisySP/Source/Control/adsr.h ****         \param sus_level - sets sustain level, 0...1.0
  65:../../DaisySP/Source/Control/adsr.h ****     */
  66:../../DaisySP/Source/Control/adsr.h ****     inline void SetSustainLevel(float sus_level)
  67:../../DaisySP/Source/Control/adsr.h ****     {
  68:../../DaisySP/Source/Control/adsr.h ****         sus_level = (sus_level <= 0.f) ? -0.01f // forces envelope into idle
  69:../../DaisySP/Source/Control/adsr.h ****                                        : (sus_level > 1.f) ? 1.f : sus_level;
  73              		.loc 2 69 60 view .LVU4
  74 001a F4EE487A 		vcmp.f32	s15, s16
  75 001e F1EE10FA 		vmrs	APSR_nzcv, FPSCR
  76 0022 78FE277A 		vselgt.f32	s15, s16, s15
  77              	.LVL2:
  78              	.L4:
  70:../../DaisySP/Source/Control/adsr.h ****         sus_level_ = sus_level;
  79              		.loc 2 70 9 is_stmt 1 view .LVU5
  80 0026 04F5A866 		add	r6, r4, #1344
  81              		.loc 2 70 20 is_stmt 0 view .LVU6
  82 002a C4EDF07A 		vstr.32	s15, [r4, #960]
  83              	.LVL3:
  84              		.loc 2 70 20 view .LVU7
  85              	.LBE199:
  86              	.LBE198:
  57:vasynth.cpp   **** 	{
  58:vasynth.cpp   **** 		// oscillator
  59:vasynth.cpp   **** 		osc_[i].Init(sample_rate_);
  60:vasynth.cpp   **** 		osc_[i].SetWaveform(waveform_);
  61:vasynth.cpp   **** 		osc_[i].SetAmp(1.0f); // default
  62:vasynth.cpp   **** 		osc_[i].SetFreq(440.0f); // default
  63:vasynth.cpp   **** 		osc_[i].SetPw(0.5f);
  64:vasynth.cpp   **** 
  65:vasynth.cpp   **** 		osc2_[i].Init(sample_rate_);
  66:vasynth.cpp   **** 		osc2_[i].SetWaveform(osc2_waveform_);
  67:vasynth.cpp   **** 		osc2_[i].SetAmp(1.0f); // default
  68:vasynth.cpp   **** 		osc2_[i].SetFreq(440.0f * osc2_detune_); // default
  69:vasynth.cpp   **** 		osc2_[i].SetPw(0.5f);
  70:vasynth.cpp   **** 		
  71:vasynth.cpp   **** 		// EG - amplitude
  72:vasynth.cpp   **** 		
ARM GAS  C:\Users\jcjco\AppData\Local\Temp\ccZs88zN.s 			page 5


  73:vasynth.cpp   **** 		
  74:vasynth.cpp   **** 		eg_a_[i].Init(sample_rate_);
  75:vasynth.cpp   **** 		eg_a_[i].SetTime(ADSR_SEG_ATTACK, eg_a_attack_);
  76:vasynth.cpp   **** 		eg_a_[i].SetTime(ADSR_SEG_DECAY, eg_a_decay_);
  77:vasynth.cpp   **** 		eg_a_[i].SetTime(ADSR_SEG_RELEASE, eg_a_release_);
  78:vasynth.cpp   **** 		eg_a_[i].SetSustainLevel(eg_a_sustain_);
  79:vasynth.cpp   **** 
  80:vasynth.cpp   **** 		// EG - filter
  81:vasynth.cpp   **** 		eg_f_[i].Init(sample_rate_);
  87              		.loc 1 81 3 is_stmt 1 view .LVU8
  88              		.loc 1 81 16 is_stmt 0 view .LVU9
  89 002e 0121     		movs	r1, #1
  90 0030 95ED000A 		vldr.32	s0, [r5]
  91 0034 3046     		mov	r0, r6
  92 0036 FFF7FEFF 		bl	_ZN7daisysp4Adsr4InitEfi
  93              	.LVL4:
  82:vasynth.cpp   **** 		eg_f_[i].SetTime(ADSR_SEG_ATTACK, eg_f_attack_);
  94              		.loc 1 82 3 is_stmt 1 view .LVU10
  95              		.loc 1 82 19 is_stmt 0 view .LVU11
  96 003a 95ED0D0A 		vldr.32	s0, [r5, #52]
  97 003e 0121     		movs	r1, #1
  98 0040 3046     		mov	r0, r6
  99 0042 FFF7FEFF 		bl	_ZN7daisysp4Adsr7SetTimeEif
 100              	.LVL5:
  83:vasynth.cpp   **** 		eg_f_[i].SetTime(ADSR_SEG_DECAY, eg_f_decay_);
 101              		.loc 1 83 3 is_stmt 1 view .LVU12
 102              		.loc 1 83 19 is_stmt 0 view .LVU13
 103 0046 95ED0E0A 		vldr.32	s0, [r5, #56]
 104 004a 0221     		movs	r1, #2
 105 004c 3046     		mov	r0, r6
 106 004e FFF7FEFF 		bl	_ZN7daisysp4Adsr7SetTimeEif
 107              	.LVL6:
  84:vasynth.cpp   **** 		eg_f_[i].SetTime(ADSR_SEG_RELEASE, eg_f_release_);
 108              		.loc 1 84 3 is_stmt 1 view .LVU14
 109              		.loc 1 84 19 is_stmt 0 view .LVU15
 110 0052 95ED100A 		vldr.32	s0, [r5, #64]
 111 0056 0421     		movs	r1, #4
 112 0058 3046     		mov	r0, r6
 113 005a FFF7FEFF 		bl	_ZN7daisysp4Adsr7SetTimeEif
 114              	.LVL7:
  85:vasynth.cpp   **** 		eg_f_[i].SetSustainLevel(eg_f_sustain_);
 115              		.loc 1 85 3 is_stmt 1 view .LVU16
 116              		.loc 1 85 27 is_stmt 0 view .LVU17
 117 005e D5ED0F7A 		vldr.32	s15, [r5, #60]
 118              	.LVL8:
 119              	.LBB201:
 120              	.LBI201:
  66:../../DaisySP/Source/Control/adsr.h ****     {
 121              		.loc 2 66 17 is_stmt 1 view .LVU18
 122              	.LBB202:
  68:../../DaisySP/Source/Control/adsr.h ****                                        : (sus_level > 1.f) ? 1.f : sus_level;
 123              		.loc 2 68 9 view .LVU19
  68:../../DaisySP/Source/Control/adsr.h ****                                        : (sus_level > 1.f) ? 1.f : sus_level;
 124              		.loc 2 68 40 is_stmt 0 view .LVU20
 125 0062 F5EEC07A 		vcmpe.f32	s15, #0
 126 0066 F1EE10FA 		vmrs	APSR_nzcv, FPSCR
 127 006a 40F2C380 		bls	.L13
ARM GAS  C:\Users\jcjco\AppData\Local\Temp\ccZs88zN.s 			page 6


  69:../../DaisySP/Source/Control/adsr.h ****         sus_level_ = sus_level;
 128              		.loc 2 69 60 view .LVU21
 129 006e B7EE007A 		vmov.f32	s14, #1.0e+0
 130 0072 F4EE477A 		vcmp.f32	s15, s14
 131 0076 F1EE10FA 		vmrs	APSR_nzcv, FPSCR
 132 007a 77FE277A 		vselgt.f32	s15, s14, s15
 133              	.LVL9:
 134              	.L5:
 135              		.loc 2 70 9 is_stmt 1 view .LVU22
 136              		.loc 2 70 20 is_stmt 0 view .LVU23
 137 007e C6ED007A 		vstr.32	s15, [r6]
 138              	.LVL10:
 139              		.loc 2 70 20 view .LVU24
 140              	.LBE202:
 141              	.LBE201:
  86:vasynth.cpp   **** 
  87:vasynth.cpp   **** 		// LP - filter
  88:vasynth.cpp   **** 		flt[i].Init(sample_rate_);
 142              		.loc 1 88 3 is_stmt 1 view .LVU25
 143              		.loc 1 88 14 is_stmt 0 view .LVU26
 144 0082 4046     		mov	r0, r8
 145 0084 95ED000A 		vldr.32	s0, [r5]
  56:vasynth.cpp   **** 	{
 146              		.loc 1 56 24 view .LVU27
 147 0088 3034     		adds	r4, r4, #48
 148              	.LVL11:
 149              		.loc 1 88 14 view .LVU28
 150 008a FFF7FEFF 		bl	_ZN10infrasonic10MoogLadder4InitEf
 151              	.LVL12:
  89:vasynth.cpp   **** 		flt[i].SetFreq(filter_cutoff_);
 152              		.loc 1 89 3 is_stmt 1 view .LVU29
 153              		.loc 1 89 17 is_stmt 0 view .LVU30
 154 008e 4046     		mov	r0, r8
 155 0090 95ED200A 		vldr.32	s0, [r5, #128]
 156 0094 FFF7FEFF 		bl	_ZN10infrasonic10MoogLadder7SetFreqEf
 157              	.LVL13:
  90:vasynth.cpp   **** 		flt[i].SetRes(filter_res_);
 158              		.loc 1 90 3 is_stmt 1 view .LVU31
 159              		.loc 1 90 16 is_stmt 0 view .LVU32
 160 0098 4046     		mov	r0, r8
 161 009a 95ED1F0A 		vldr.32	s0, [r5, #124]
  56:vasynth.cpp   **** 	{
 162              		.loc 1 56 24 view .LVU33
 163 009e 08F14C08 		add	r8, r8, #76
 164              		.loc 1 90 16 view .LVU34
 165 00a2 FFF7FEFF 		bl	_ZN10infrasonic10MoogLadder6SetResEf
 166              	.LVL14:
  56:vasynth.cpp   **** 	{
 167              		.loc 1 56 2 is_stmt 1 view .LVU35
  56:vasynth.cpp   **** 	{
 168              		.loc 1 56 24 view .LVU36
 169 00a6 4C45     		cmp	r4, r9
 170 00a8 00F0A780 		beq	.L18
 171              	.L6:
 172              	.LVL15:
  59:vasynth.cpp   **** 		osc_[i].SetWaveform(waveform_);
 173              		.loc 1 59 3 discriminator 2 view .LVU37
ARM GAS  C:\Users\jcjco\AppData\Local\Temp\ccZs88zN.s 			page 7


 174              	.LBB204:
 175              	.LBB205:
 176              		.file 3 "../../DaisySP/Source/Synthesis/oscillator.h"
   1:../../DaisySP/Source/Synthesis/oscillator.h **** #pragma once
   2:../../DaisySP/Source/Synthesis/oscillator.h **** #ifndef DSY_OSCILLATOR_H
   3:../../DaisySP/Source/Synthesis/oscillator.h **** #define DSY_OSCILLATOR_H
   4:../../DaisySP/Source/Synthesis/oscillator.h **** #include <stdint.h>
   5:../../DaisySP/Source/Synthesis/oscillator.h **** #include "Utility/dsp.h"
   6:../../DaisySP/Source/Synthesis/oscillator.h **** #ifdef __cplusplus
   7:../../DaisySP/Source/Synthesis/oscillator.h **** 
   8:../../DaisySP/Source/Synthesis/oscillator.h **** namespace daisysp
   9:../../DaisySP/Source/Synthesis/oscillator.h **** {
  10:../../DaisySP/Source/Synthesis/oscillator.h **** /** Synthesis of several waveforms, including polyBLEP bandlimited waveforms.
  11:../../DaisySP/Source/Synthesis/oscillator.h **** */
  12:../../DaisySP/Source/Synthesis/oscillator.h **** class Oscillator
  13:../../DaisySP/Source/Synthesis/oscillator.h **** {
  14:../../DaisySP/Source/Synthesis/oscillator.h ****   public:
  15:../../DaisySP/Source/Synthesis/oscillator.h ****     Oscillator() {}
  16:../../DaisySP/Source/Synthesis/oscillator.h ****     ~Oscillator() {}
  17:../../DaisySP/Source/Synthesis/oscillator.h ****     /** Choices for output waveforms, POLYBLEP are appropriately labeled. Others are naive forms.
  18:../../DaisySP/Source/Synthesis/oscillator.h ****     */
  19:../../DaisySP/Source/Synthesis/oscillator.h ****     enum
  20:../../DaisySP/Source/Synthesis/oscillator.h ****     {
  21:../../DaisySP/Source/Synthesis/oscillator.h ****         WAVE_SIN,
  22:../../DaisySP/Source/Synthesis/oscillator.h ****         WAVE_TRI,
  23:../../DaisySP/Source/Synthesis/oscillator.h ****         WAVE_SAW,
  24:../../DaisySP/Source/Synthesis/oscillator.h ****         WAVE_RAMP,
  25:../../DaisySP/Source/Synthesis/oscillator.h ****         WAVE_SQUARE,
  26:../../DaisySP/Source/Synthesis/oscillator.h ****         WAVE_POLYBLEP_TRI,
  27:../../DaisySP/Source/Synthesis/oscillator.h ****         WAVE_POLYBLEP_SAW,
  28:../../DaisySP/Source/Synthesis/oscillator.h ****         WAVE_POLYBLEP_SQUARE,
  29:../../DaisySP/Source/Synthesis/oscillator.h ****         WAVE_LAST,
  30:../../DaisySP/Source/Synthesis/oscillator.h ****     };
  31:../../DaisySP/Source/Synthesis/oscillator.h **** 
  32:../../DaisySP/Source/Synthesis/oscillator.h **** 
  33:../../DaisySP/Source/Synthesis/oscillator.h ****     /** Initializes the Oscillator
  34:../../DaisySP/Source/Synthesis/oscillator.h **** 
  35:../../DaisySP/Source/Synthesis/oscillator.h ****         \param sample_rate - sample rate of the audio engine being run, and the frequency that the 
  36:../../DaisySP/Source/Synthesis/oscillator.h **** 
  37:../../DaisySP/Source/Synthesis/oscillator.h ****         Defaults:
  38:../../DaisySP/Source/Synthesis/oscillator.h ****         - freq_ = 100 Hz
  39:../../DaisySP/Source/Synthesis/oscillator.h ****         - amp_ = 0.5
  40:../../DaisySP/Source/Synthesis/oscillator.h ****         - waveform_ = sine wave.
  41:../../DaisySP/Source/Synthesis/oscillator.h ****     */
  42:../../DaisySP/Source/Synthesis/oscillator.h ****     void Init(float sample_rate)
  43:../../DaisySP/Source/Synthesis/oscillator.h ****     {
  44:../../DaisySP/Source/Synthesis/oscillator.h ****         sr_        = sample_rate;
  45:../../DaisySP/Source/Synthesis/oscillator.h ****         sr_recip_  = 1.0f / sample_rate;
 177              		.loc 3 45 27 is_stmt 0 discriminator 2 view .LVU38
 178 00ac B7EE008A 		vmov.f32	s16, #1.0e+0
 179              	.LBE205:
 180              	.LBE204:
  59:vasynth.cpp   **** 		osc_[i].SetWaveform(waveform_);
 181              		.loc 1 59 15 discriminator 2 view .LVU39
 182 00b0 D5ED007A 		vldr.32	s15, [r5]
 183              	.LVL16:
 184              	.LBB209:
ARM GAS  C:\Users\jcjco\AppData\Local\Temp\ccZs88zN.s 			page 8


 185              	.LBI204:
  42:../../DaisySP/Source/Synthesis/oscillator.h ****     {
 186              		.loc 3 42 10 is_stmt 1 discriminator 2 view .LVU40
 187              	.LBB206:
  44:../../DaisySP/Source/Synthesis/oscillator.h ****         sr_recip_  = 1.0f / sample_rate;
 188              		.loc 3 44 9 discriminator 2 view .LVU41
  46:../../DaisySP/Source/Synthesis/oscillator.h ****         freq_      = 100.0f;
  47:../../DaisySP/Source/Synthesis/oscillator.h ****         amp_       = 0.5f;
 189              		.loc 3 47 20 is_stmt 0 discriminator 2 view .LVU42
 190 00b4 B6EE009A 		vmov.f32	s18, #5.0e-1
  46:../../DaisySP/Source/Synthesis/oscillator.h ****         freq_      = 100.0f;
 191              		.loc 3 46 20 discriminator 2 view .LVU43
 192 00b8 9FEDB4AA 		vldr.32	s20, .L20
  48:../../DaisySP/Source/Synthesis/oscillator.h ****         pw_        = 0.5f;
  49:../../DaisySP/Source/Synthesis/oscillator.h ****         pw_rad_    = pw_ * TWOPI_F;
  50:../../DaisySP/Source/Synthesis/oscillator.h ****         phase_     = 0.0f;
 193              		.loc 3 50 20 discriminator 2 view .LVU44
 194 00bc 9FEDB4BA 		vldr.32	s22, .L20+4
  51:../../DaisySP/Source/Synthesis/oscillator.h ****         phase_inc_ = CalcPhaseInc(freq_);
  52:../../DaisySP/Source/Synthesis/oscillator.h ****         waveform_  = WAVE_SIN;
  53:../../DaisySP/Source/Synthesis/oscillator.h ****         eoc_       = true;
 195              		.loc 3 53 20 discriminator 2 view .LVU45
 196 00c0 0127     		movs	r7, #1
  45:../../DaisySP/Source/Synthesis/oscillator.h ****         freq_      = 100.0f;
 197              		.loc 3 45 27 discriminator 2 view .LVU46
 198 00c2 88EE277A 		vdiv.f32	s14, s16, s15
  49:../../DaisySP/Source/Synthesis/oscillator.h ****         phase_     = 0.0f;
 199              		.loc 3 49 20 discriminator 2 view .LVU47
 200 00c6 DFF8D8B2 		ldr	fp, .L20+20
  44:../../DaisySP/Source/Synthesis/oscillator.h ****         sr_recip_  = 1.0f / sample_rate;
 201              		.loc 3 44 20 discriminator 2 view .LVU48
 202 00ca C4ED057A 		vstr.32	s15, [r4, #20]
  45:../../DaisySP/Source/Synthesis/oscillator.h ****         freq_      = 100.0f;
 203              		.loc 3 45 9 is_stmt 1 discriminator 2 view .LVU49
  51:../../DaisySP/Source/Synthesis/oscillator.h ****         waveform_  = WAVE_SIN;
 204              		.loc 3 51 34 is_stmt 0 discriminator 2 view .LVU50
 205 00ce 2046     		mov	r0, r4
  46:../../DaisySP/Source/Synthesis/oscillator.h ****         amp_       = 0.5f;
 206              		.loc 3 46 20 discriminator 2 view .LVU51
 207 00d0 84ED02AA 		vstr.32	s20, [r4, #8]
 208 00d4 04F5C07A 		add	r10, r4, #384
  47:../../DaisySP/Source/Synthesis/oscillator.h ****         pw_        = 0.5f;
 209              		.loc 3 47 20 discriminator 2 view .LVU52
 210 00d8 84ED019A 		vstr.32	s18, [r4, #4]
 211 00dc 04F57076 		add	r6, r4, #960
  48:../../DaisySP/Source/Synthesis/oscillator.h ****         pw_rad_    = pw_ * TWOPI_F;
 212              		.loc 3 48 20 discriminator 2 view .LVU53
 213 00e0 84ED039A 		vstr.32	s18, [r4, #12]
  51:../../DaisySP/Source/Synthesis/oscillator.h ****         waveform_  = WAVE_SIN;
 214              		.loc 3 51 34 discriminator 2 view .LVU54
 215 00e4 B0EE4A0A 		vmov.f32	s0, s20
  49:../../DaisySP/Source/Synthesis/oscillator.h ****         phase_     = 0.0f;
 216              		.loc 3 49 20 discriminator 2 view .LVU55
 217 00e8 C4F810B0 		str	fp, [r4, #16]	@ float
  50:../../DaisySP/Source/Synthesis/oscillator.h ****         phase_inc_ = CalcPhaseInc(freq_);
 218              		.loc 3 50 20 discriminator 2 view .LVU56
 219 00ec 84ED07BA 		vstr.32	s22, [r4, #28]
ARM GAS  C:\Users\jcjco\AppData\Local\Temp\ccZs88zN.s 			page 9


 220              	.LBE206:
 221              	.LBE209:
 222              	.LBB210:
 223              	.LBB211:
  54:../../DaisySP/Source/Synthesis/oscillator.h ****         eor_       = true;
  55:../../DaisySP/Source/Synthesis/oscillator.h ****     }
  56:../../DaisySP/Source/Synthesis/oscillator.h **** 
  57:../../DaisySP/Source/Synthesis/oscillator.h **** 
  58:../../DaisySP/Source/Synthesis/oscillator.h ****     /** Changes the frequency of the Oscillator, and recalculates phase increment.
  59:../../DaisySP/Source/Synthesis/oscillator.h ****     */
  60:../../DaisySP/Source/Synthesis/oscillator.h ****     inline void SetFreq(const float f)
  61:../../DaisySP/Source/Synthesis/oscillator.h ****     {
  62:../../DaisySP/Source/Synthesis/oscillator.h ****         freq_      = f;
 224              		.loc 3 62 20 discriminator 2 view .LVU57
 225 00f0 DFEDA8AA 		vldr.32	s21, .L20+8
 226              	.LBE211:
 227              	.LBE210:
 228              	.LBB217:
 229              	.LBB218:
  63:../../DaisySP/Source/Synthesis/oscillator.h ****         phase_inc_ = CalcPhaseInc(f);
  64:../../DaisySP/Source/Synthesis/oscillator.h ****     }
  65:../../DaisySP/Source/Synthesis/oscillator.h **** 
  66:../../DaisySP/Source/Synthesis/oscillator.h **** 
  67:../../DaisySP/Source/Synthesis/oscillator.h ****     /** Sets the amplitude of the waveform.
  68:../../DaisySP/Source/Synthesis/oscillator.h ****     */
  69:../../DaisySP/Source/Synthesis/oscillator.h ****     inline void SetAmp(const float a) { amp_ = a; }
  70:../../DaisySP/Source/Synthesis/oscillator.h ****     /** Sets the waveform to be synthesized by the Process() function.
  71:../../DaisySP/Source/Synthesis/oscillator.h ****     */
  72:../../DaisySP/Source/Synthesis/oscillator.h ****     inline void SetWaveform(const uint8_t wf)
  73:../../DaisySP/Source/Synthesis/oscillator.h ****     {
  74:../../DaisySP/Source/Synthesis/oscillator.h ****         waveform_ = wf < WAVE_LAST ? wf : WAVE_SIN;
  75:../../DaisySP/Source/Synthesis/oscillator.h ****     }
  76:../../DaisySP/Source/Synthesis/oscillator.h ****     /** Sets the pulse width for WAVE_SQUARE and WAVE_POLYBLEP_SQUARE (range 0 - 1)
  77:../../DaisySP/Source/Synthesis/oscillator.h ****      */
  78:../../DaisySP/Source/Synthesis/oscillator.h ****     inline void SetPw(const float pw)
  79:../../DaisySP/Source/Synthesis/oscillator.h ****     {
  80:../../DaisySP/Source/Synthesis/oscillator.h ****         pw_     = fclamp(pw, 0.0f, 1.0f);
  81:../../DaisySP/Source/Synthesis/oscillator.h ****         pw_rad_ = pw_ * TWOPI_F;
 230              		.loc 3 81 23 discriminator 2 view .LVU58
 231 00f4 DFEDA89A 		vldr.32	s19, .L20+12
 232              	.LBB219:
 233              	.LBB220:
 234              	.LBB221:
 235              		.file 4 "../../DaisySP/Source/Utility/dsp.h"
   1:../../DaisySP/Source/Utility/dsp.h **** /** Helpful defines, functions, and other utilities for use in/with daisysp modules.
   2:../../DaisySP/Source/Utility/dsp.h **** */
   3:../../DaisySP/Source/Utility/dsp.h **** #pragma once
   4:../../DaisySP/Source/Utility/dsp.h **** #ifndef DSY_CORE_DSP
   5:../../DaisySP/Source/Utility/dsp.h **** #define DSY_CORE_DSP
   6:../../DaisySP/Source/Utility/dsp.h **** #include <cassert>
   7:../../DaisySP/Source/Utility/dsp.h **** #include <cstdint>
   8:../../DaisySP/Source/Utility/dsp.h **** #include <random>
   9:../../DaisySP/Source/Utility/dsp.h **** #include <cmath>
  10:../../DaisySP/Source/Utility/dsp.h **** 
  11:../../DaisySP/Source/Utility/dsp.h **** /** PIs
  12:../../DaisySP/Source/Utility/dsp.h **** */
  13:../../DaisySP/Source/Utility/dsp.h **** #define PI_F 3.1415927410125732421875f
ARM GAS  C:\Users\jcjco\AppData\Local\Temp\ccZs88zN.s 			page 10


  14:../../DaisySP/Source/Utility/dsp.h **** #define TWOPI_F (2.0f * PI_F)
  15:../../DaisySP/Source/Utility/dsp.h **** #define HALFPI_F (PI_F * 0.5f)
  16:../../DaisySP/Source/Utility/dsp.h **** #define DSY_MIN(in, mn) (in < mn ? in : mn)
  17:../../DaisySP/Source/Utility/dsp.h **** #define DSY_MAX(in, mx) (in > mx ? in : mx)
  18:../../DaisySP/Source/Utility/dsp.h **** #define DSY_CLAMP(in, mn, mx) (DSY_MIN(DSY_MAX(in, mn), mx))
  19:../../DaisySP/Source/Utility/dsp.h **** #define DSY_COUNTOF(_arr) (sizeof(_arr) / sizeof(_arr[0]))
  20:../../DaisySP/Source/Utility/dsp.h **** 
  21:../../DaisySP/Source/Utility/dsp.h **** namespace daisysp
  22:../../DaisySP/Source/Utility/dsp.h **** {
  23:../../DaisySP/Source/Utility/dsp.h **** //Avoids division for random floats. e.g. rand() * kRandFrac
  24:../../DaisySP/Source/Utility/dsp.h **** static constexpr float kRandFrac = 1.f / (float)RAND_MAX;
  25:../../DaisySP/Source/Utility/dsp.h **** 
  26:../../DaisySP/Source/Utility/dsp.h **** //Convert from semitones to other units. e.g. 2 ^ (kOneTwelfth * x)
  27:../../DaisySP/Source/Utility/dsp.h **** static constexpr float kOneTwelfth = 1.f / 12.f;
  28:../../DaisySP/Source/Utility/dsp.h **** 
  29:../../DaisySP/Source/Utility/dsp.h **** /** efficient floating point min/max
  30:../../DaisySP/Source/Utility/dsp.h **** c/o stephen mccaul
  31:../../DaisySP/Source/Utility/dsp.h **** */
  32:../../DaisySP/Source/Utility/dsp.h **** inline float fmax(float a, float b)
  33:../../DaisySP/Source/Utility/dsp.h **** {
  34:../../DaisySP/Source/Utility/dsp.h ****     float r;
  35:../../DaisySP/Source/Utility/dsp.h **** #ifdef __arm__
  36:../../DaisySP/Source/Utility/dsp.h ****     asm("vmaxnm.f32 %[d], %[n], %[m]" : [d] "=t"(r) : [n] "t"(a), [m] "t"(b) :);
 236              		.loc 4 36 5 discriminator 2 view .LVU59
 237              		.syntax unified
 238              	@ 36 "../../DaisySP/Source/Utility/dsp.h" 1
 239 00f8 C9FE0B8A 		vmaxnm.f32 s17, s18, s22
 240              	@ 0 "" 2
 241              		.thumb
 242              		.syntax unified
 243              	.LBE221:
 244              	.LBE220:
 245              	.LBB223:
 246              	.LBB224:
  37:../../DaisySP/Source/Utility/dsp.h **** #else
  38:../../DaisySP/Source/Utility/dsp.h ****     r = (a > b) ? a : b;
  39:../../DaisySP/Source/Utility/dsp.h **** #endif // __arm__
  40:../../DaisySP/Source/Utility/dsp.h ****     return r;
  41:../../DaisySP/Source/Utility/dsp.h **** }
  42:../../DaisySP/Source/Utility/dsp.h **** 
  43:../../DaisySP/Source/Utility/dsp.h **** inline float fmin(float a, float b)
  44:../../DaisySP/Source/Utility/dsp.h **** {
  45:../../DaisySP/Source/Utility/dsp.h ****     float r;
  46:../../DaisySP/Source/Utility/dsp.h **** #ifdef __arm__
  47:../../DaisySP/Source/Utility/dsp.h ****     asm("vminnm.f32 %[d], %[n], %[m]" : [d] "=t"(r) : [n] "t"(a), [m] "t"(b) :);
 247              		.loc 4 47 5 discriminator 2 view .LVU60
 248              		.syntax unified
 249              	@ 47 "../../DaisySP/Source/Utility/dsp.h" 1
 250 00fc C8FEC88A 		vminnm.f32 s17, s17, s16
 251              	@ 0 "" 2
 252              		.thumb
 253              		.syntax unified
 254              	.LBE224:
 255              	.LBE223:
 256              	.LBE219:
 257              	.LBE218:
 258              	.LBE217:
ARM GAS  C:\Users\jcjco\AppData\Local\Temp\ccZs88zN.s 			page 11


 259              	.LBB235:
 260              	.LBB207:
  45:../../DaisySP/Source/Synthesis/oscillator.h ****         freq_      = 100.0f;
 261              		.loc 3 45 20 discriminator 2 view .LVU61
 262 0100 84ED067A 		vstr.32	s14, [r4, #24]
  46:../../DaisySP/Source/Synthesis/oscillator.h ****         amp_       = 0.5f;
 263              		.loc 3 46 9 is_stmt 1 discriminator 2 view .LVU62
  47:../../DaisySP/Source/Synthesis/oscillator.h ****         pw_        = 0.5f;
 264              		.loc 3 47 9 discriminator 2 view .LVU63
  48:../../DaisySP/Source/Synthesis/oscillator.h ****         pw_rad_    = pw_ * TWOPI_F;
 265              		.loc 3 48 9 discriminator 2 view .LVU64
  49:../../DaisySP/Source/Synthesis/oscillator.h ****         phase_     = 0.0f;
 266              		.loc 3 49 9 discriminator 2 view .LVU65
  50:../../DaisySP/Source/Synthesis/oscillator.h ****         phase_inc_ = CalcPhaseInc(freq_);
 267              		.loc 3 50 9 discriminator 2 view .LVU66
  51:../../DaisySP/Source/Synthesis/oscillator.h ****         waveform_  = WAVE_SIN;
 268              		.loc 3 51 9 discriminator 2 view .LVU67
  51:../../DaisySP/Source/Synthesis/oscillator.h ****         waveform_  = WAVE_SIN;
 269              		.loc 3 51 34 is_stmt 0 discriminator 2 view .LVU68
 270 0104 FFF7FEFF 		bl	_ZN7daisysp10Oscillator12CalcPhaseIncEf
 271              	.LVL17:
  53:../../DaisySP/Source/Synthesis/oscillator.h ****         eor_       = true;
 272              		.loc 3 53 20 discriminator 2 view .LVU69
 273 0108 84F82D70 		strb	r7, [r4, #45]
  51:../../DaisySP/Source/Synthesis/oscillator.h ****         waveform_  = WAVE_SIN;
 274              		.loc 3 51 20 discriminator 2 view .LVU70
 275 010c 84ED080A 		vstr.32	s0, [r4, #32]
  52:../../DaisySP/Source/Synthesis/oscillator.h ****         eoc_       = true;
 276              		.loc 3 52 9 is_stmt 1 discriminator 2 view .LVU71
  53:../../DaisySP/Source/Synthesis/oscillator.h ****         eor_       = true;
 277              		.loc 3 53 9 discriminator 2 view .LVU72
  54:../../DaisySP/Source/Synthesis/oscillator.h ****     }
 278              		.loc 3 54 9 discriminator 2 view .LVU73
 279              	.LVL18:
  54:../../DaisySP/Source/Synthesis/oscillator.h ****     }
 280              		.loc 3 54 9 is_stmt 0 discriminator 2 view .LVU74
 281              	.LBE207:
 282              	.LBE235:
  60:vasynth.cpp   **** 		osc_[i].SetAmp(1.0f); // default
 283              		.loc 1 60 3 is_stmt 1 discriminator 2 view .LVU75
 284              	.LBB236:
 285              	.LBB212:
  63:../../DaisySP/Source/Synthesis/oscillator.h ****     }
 286              		.loc 3 63 34 is_stmt 0 discriminator 2 view .LVU76
 287 0110 2046     		mov	r0, r4
 288              	.LBE212:
 289              	.LBE236:
 290              	.LBB237:
 291              	.LBB208:
  54:../../DaisySP/Source/Synthesis/oscillator.h ****     }
 292              		.loc 3 54 20 discriminator 2 view .LVU77
 293 0112 84F82C70 		strb	r7, [r4, #44]
 294              	.LBE208:
 295              	.LBE237:
 296              	.LBB238:
 297              	.LBB213:
  63:../../DaisySP/Source/Synthesis/oscillator.h ****     }
ARM GAS  C:\Users\jcjco\AppData\Local\Temp\ccZs88zN.s 			page 12


 298              		.loc 3 63 34 discriminator 2 view .LVU78
 299 0116 B0EE6A0A 		vmov.f32	s0, s21
 300              	.LBE213:
 301              	.LBE238:
  60:vasynth.cpp   **** 		osc_[i].SetAmp(1.0f); // default
 302              		.loc 1 60 22 discriminator 2 view .LVU79
 303 011a 2B79     		ldrb	r3, [r5, #4]	@ zero_extendqisi2
 304              	.LVL19:
 305              	.LBB239:
 306              	.LBI239:
  72:../../DaisySP/Source/Synthesis/oscillator.h ****     {
 307              		.loc 3 72 17 is_stmt 1 discriminator 2 view .LVU80
 308              	.LBB240:
  74:../../DaisySP/Source/Synthesis/oscillator.h ****     }
 309              		.loc 3 74 9 discriminator 2 view .LVU81
 310              	.LBE240:
 311              	.LBE239:
 312              	.LBB243:
 313              	.LBB244:
  69:../../DaisySP/Source/Synthesis/oscillator.h ****     /** Sets the waveform to be synthesized by the Process() function.
 314              		.loc 3 69 46 is_stmt 0 discriminator 2 view .LVU82
 315 011c 84ED018A 		vstr.32	s16, [r4, #4]
 316              	.LBE244:
 317              	.LBE243:
 318              	.LBB246:
 319              	.LBB241:
  74:../../DaisySP/Source/Synthesis/oscillator.h ****     }
 320              		.loc 3 74 19 discriminator 2 view .LVU83
 321 0120 082B     		cmp	r3, #8
 322              	.LBE241:
 323              	.LBE246:
 324              	.LBB247:
 325              	.LBB214:
  62:../../DaisySP/Source/Synthesis/oscillator.h ****         phase_inc_ = CalcPhaseInc(f);
 326              		.loc 3 62 20 discriminator 2 view .LVU84
 327 0122 C4ED02AA 		vstr.32	s21, [r4, #8]
 328              	.LBE214:
 329              	.LBE247:
 330              	.LBB248:
 331              	.LBB242:
  74:../../DaisySP/Source/Synthesis/oscillator.h ****     }
 332              		.loc 3 74 19 discriminator 2 view .LVU85
 333 0126 28BF     		it	cs
 334 0128 0023     		movcs	r3, #0
 335              	.LVL20:
  74:../../DaisySP/Source/Synthesis/oscillator.h ****     }
 336              		.loc 3 74 19 discriminator 2 view .LVU86
 337 012a 2370     		strb	r3, [r4]
  74:../../DaisySP/Source/Synthesis/oscillator.h ****     }
 338              		.loc 3 74 19 discriminator 2 view .LVU87
 339              	.LBE242:
 340              	.LBE248:
  61:vasynth.cpp   **** 		osc_[i].SetFreq(440.0f); // default
 341              		.loc 1 61 3 is_stmt 1 discriminator 2 view .LVU88
 342              	.LVL21:
 343              	.LBB249:
 344              	.LBI243:
ARM GAS  C:\Users\jcjco\AppData\Local\Temp\ccZs88zN.s 			page 13


  69:../../DaisySP/Source/Synthesis/oscillator.h ****     /** Sets the waveform to be synthesized by the Process() function.
 345              		.loc 3 69 17 discriminator 2 view .LVU89
 346              	.LBB245:
  69:../../DaisySP/Source/Synthesis/oscillator.h ****     /** Sets the waveform to be synthesized by the Process() function.
 347              		.loc 3 69 41 discriminator 2 view .LVU90
  69:../../DaisySP/Source/Synthesis/oscillator.h ****     /** Sets the waveform to be synthesized by the Process() function.
 348              		.loc 3 69 41 is_stmt 0 discriminator 2 view .LVU91
 349              	.LBE245:
 350              	.LBE249:
  62:vasynth.cpp   **** 		osc_[i].SetPw(0.5f);
 351              		.loc 1 62 3 is_stmt 1 discriminator 2 view .LVU92
 352              	.LBB250:
 353              	.LBI210:
  60:../../DaisySP/Source/Synthesis/oscillator.h ****     {
 354              		.loc 3 60 17 discriminator 2 view .LVU93
 355              	.LBB215:
  62:../../DaisySP/Source/Synthesis/oscillator.h ****         phase_inc_ = CalcPhaseInc(f);
 356              		.loc 3 62 9 discriminator 2 view .LVU94
  63:../../DaisySP/Source/Synthesis/oscillator.h ****     }
 357              		.loc 3 63 9 discriminator 2 view .LVU95
  63:../../DaisySP/Source/Synthesis/oscillator.h ****     }
 358              		.loc 3 63 34 is_stmt 0 discriminator 2 view .LVU96
 359 012c FFF7FEFF 		bl	_ZN7daisysp10Oscillator12CalcPhaseIncEf
 360              	.LVL22:
 361              	.LBE215:
 362              	.LBE250:
 363              	.LBB251:
 364              	.LBB230:
 365              		.loc 3 81 23 discriminator 2 view .LVU97
 366 0130 68EEA99A 		vmul.f32	s19, s17, s19
 367              	.LBE230:
 368              	.LBE251:
 369              	.LBB252:
 370              	.LBB216:
  63:../../DaisySP/Source/Synthesis/oscillator.h ****     }
 371              		.loc 3 63 20 discriminator 2 view .LVU98
 372 0134 84ED080A 		vstr.32	s0, [r4, #32]
 373              	.LVL23:
  63:../../DaisySP/Source/Synthesis/oscillator.h ****     }
 374              		.loc 3 63 20 discriminator 2 view .LVU99
 375              	.LBE216:
 376              	.LBE252:
  63:vasynth.cpp   **** 
 377              		.loc 1 63 3 is_stmt 1 discriminator 2 view .LVU100
 378              	.LBB253:
 379              	.LBI217:
  78:../../DaisySP/Source/Synthesis/oscillator.h ****     {
 380              		.loc 3 78 17 discriminator 2 view .LVU101
 381              	.LBB231:
  80:../../DaisySP/Source/Synthesis/oscillator.h ****         pw_rad_ = pw_ * TWOPI_F;
 382              		.loc 3 80 9 discriminator 2 view .LVU102
 383              	.LBB228:
 384              	.LBI219:
  48:../../DaisySP/Source/Utility/dsp.h **** #else
  49:../../DaisySP/Source/Utility/dsp.h ****     r = (a < b) ? a : b;
  50:../../DaisySP/Source/Utility/dsp.h **** #endif // __arm__
  51:../../DaisySP/Source/Utility/dsp.h ****     return r;
ARM GAS  C:\Users\jcjco\AppData\Local\Temp\ccZs88zN.s 			page 14


  52:../../DaisySP/Source/Utility/dsp.h **** }
  53:../../DaisySP/Source/Utility/dsp.h **** 
  54:../../DaisySP/Source/Utility/dsp.h **** /** quick fp clamp
  55:../../DaisySP/Source/Utility/dsp.h **** */
  56:../../DaisySP/Source/Utility/dsp.h **** inline float fclamp(float in, float min, float max)
 385              		.loc 4 56 14 discriminator 2 view .LVU103
 386              	.LBE228:
 387              	.LBE231:
 388              	.LBE253:
 389              	.LBE291:
  57:../../DaisySP/Source/Utility/dsp.h **** {
  58:../../DaisySP/Source/Utility/dsp.h ****     return fmin(fmax(in, min), max);
 390              		.loc 4 58 5 discriminator 2 view .LVU104
 391              	.LBB292:
 392              	.LBB254:
 393              	.LBB232:
 394              	.LBB229:
 395              	.LBB226:
 396              	.LBI220:
  32:../../DaisySP/Source/Utility/dsp.h **** {
 397              		.loc 4 32 14 discriminator 2 view .LVU105
 398              	.LBB222:
  34:../../DaisySP/Source/Utility/dsp.h **** #ifdef __arm__
 399              		.loc 4 34 5 discriminator 2 view .LVU106
  36:../../DaisySP/Source/Utility/dsp.h **** #else
 400              		.loc 4 36 5 discriminator 2 view .LVU107
  40:../../DaisySP/Source/Utility/dsp.h **** }
 401              		.loc 4 40 5 discriminator 2 view .LVU108
  40:../../DaisySP/Source/Utility/dsp.h **** }
 402              		.loc 4 40 5 is_stmt 0 discriminator 2 view .LVU109
 403              	.LBE222:
 404              	.LBE226:
 405              	.LBB227:
 406              	.LBI223:
  43:../../DaisySP/Source/Utility/dsp.h **** {
 407              		.loc 4 43 14 is_stmt 1 discriminator 2 view .LVU110
 408              	.LBB225:
  45:../../DaisySP/Source/Utility/dsp.h **** #ifdef __arm__
 409              		.loc 4 45 5 discriminator 2 view .LVU111
  47:../../DaisySP/Source/Utility/dsp.h **** #else
 410              		.loc 4 47 5 discriminator 2 view .LVU112
  51:../../DaisySP/Source/Utility/dsp.h **** }
 411              		.loc 4 51 5 discriminator 2 view .LVU113
  51:../../DaisySP/Source/Utility/dsp.h **** }
 412              		.loc 4 51 5 is_stmt 0 discriminator 2 view .LVU114
 413              	.LBE225:
 414              	.LBE227:
 415              	.LBE229:
 416              	.LBE232:
 417              	.LBE254:
 418              	.LBB255:
 419              	.LBB256:
  51:../../DaisySP/Source/Synthesis/oscillator.h ****         waveform_  = WAVE_SIN;
 420              		.loc 3 51 34 discriminator 2 view .LVU115
 421 0138 5046     		mov	r0, r10
 422              	.LBE256:
 423              	.LBE255:
ARM GAS  C:\Users\jcjco\AppData\Local\Temp\ccZs88zN.s 			page 15


 424              	.LBB259:
 425              	.LBB233:
  80:../../DaisySP/Source/Synthesis/oscillator.h ****         pw_rad_ = pw_ * TWOPI_F;
 426              		.loc 3 80 17 discriminator 2 view .LVU116
 427 013a C4ED038A 		vstr.32	s17, [r4, #12]
 428              		.loc 3 81 9 is_stmt 1 discriminator 2 view .LVU117
 429              	.LBE233:
 430              	.LBE259:
 431              	.LBB260:
 432              	.LBB257:
  51:../../DaisySP/Source/Synthesis/oscillator.h ****         waveform_  = WAVE_SIN;
 433              		.loc 3 51 34 is_stmt 0 discriminator 2 view .LVU118
 434 013e B0EE4A0A 		vmov.f32	s0, s20
 435              	.LBE257:
 436              	.LBE260:
 437              	.LBB261:
 438              	.LBB234:
 439              		.loc 3 81 17 discriminator 2 view .LVU119
 440 0142 C4ED049A 		vstr.32	s19, [r4, #16]
 441              	.LVL24:
 442              		.loc 3 81 17 discriminator 2 view .LVU120
 443              	.LBE234:
 444              	.LBE261:
  65:vasynth.cpp   **** 		osc2_[i].SetWaveform(osc2_waveform_);
 445              		.loc 1 65 3 is_stmt 1 discriminator 2 view .LVU121
  65:vasynth.cpp   **** 		osc2_[i].SetWaveform(osc2_waveform_);
 446              		.loc 1 65 16 is_stmt 0 discriminator 2 view .LVU122
 447 0146 D5ED007A 		vldr.32	s15, [r5]
 448              	.LVL25:
 449              	.LBB262:
 450              	.LBI255:
  42:../../DaisySP/Source/Synthesis/oscillator.h ****     {
 451              		.loc 3 42 10 is_stmt 1 discriminator 2 view .LVU123
 452              	.LBB258:
  44:../../DaisySP/Source/Synthesis/oscillator.h ****         sr_recip_  = 1.0f / sample_rate;
 453              		.loc 3 44 9 discriminator 2 view .LVU124
  46:../../DaisySP/Source/Synthesis/oscillator.h ****         amp_       = 0.5f;
 454              		.loc 3 46 20 is_stmt 0 discriminator 2 view .LVU125
 455 014a 84ED62AA 		vstr.32	s20, [r4, #392]
  45:../../DaisySP/Source/Synthesis/oscillator.h ****         freq_      = 100.0f;
 456              		.loc 3 45 27 discriminator 2 view .LVU126
 457 014e 88EE277A 		vdiv.f32	s14, s16, s15
  44:../../DaisySP/Source/Synthesis/oscillator.h ****         sr_recip_  = 1.0f / sample_rate;
 458              		.loc 3 44 20 discriminator 2 view .LVU127
 459 0152 C4ED657A 		vstr.32	s15, [r4, #404]
  45:../../DaisySP/Source/Synthesis/oscillator.h ****         freq_      = 100.0f;
 460              		.loc 3 45 9 is_stmt 1 discriminator 2 view .LVU128
  47:../../DaisySP/Source/Synthesis/oscillator.h ****         pw_        = 0.5f;
 461              		.loc 3 47 20 is_stmt 0 discriminator 2 view .LVU129
 462 0156 84ED619A 		vstr.32	s18, [r4, #388]
  48:../../DaisySP/Source/Synthesis/oscillator.h ****         pw_rad_    = pw_ * TWOPI_F;
 463              		.loc 3 48 20 discriminator 2 view .LVU130
 464 015a 84ED639A 		vstr.32	s18, [r4, #396]
  49:../../DaisySP/Source/Synthesis/oscillator.h ****         phase_     = 0.0f;
 465              		.loc 3 49 20 discriminator 2 view .LVU131
 466 015e C4F890B1 		str	fp, [r4, #400]	@ float
  50:../../DaisySP/Source/Synthesis/oscillator.h ****         phase_inc_ = CalcPhaseInc(freq_);
ARM GAS  C:\Users\jcjco\AppData\Local\Temp\ccZs88zN.s 			page 16


 467              		.loc 3 50 20 discriminator 2 view .LVU132
 468 0162 84ED67BA 		vstr.32	s22, [r4, #412]
  51:../../DaisySP/Source/Synthesis/oscillator.h ****         waveform_  = WAVE_SIN;
 469              		.loc 3 51 34 discriminator 2 view .LVU133
 470 0166 CDF804A0 		str	r10, [sp, #4]
  45:../../DaisySP/Source/Synthesis/oscillator.h ****         freq_      = 100.0f;
 471              		.loc 3 45 20 discriminator 2 view .LVU134
 472 016a 84ED667A 		vstr.32	s14, [r4, #408]
  46:../../DaisySP/Source/Synthesis/oscillator.h ****         amp_       = 0.5f;
 473              		.loc 3 46 9 is_stmt 1 discriminator 2 view .LVU135
  47:../../DaisySP/Source/Synthesis/oscillator.h ****         pw_        = 0.5f;
 474              		.loc 3 47 9 discriminator 2 view .LVU136
  48:../../DaisySP/Source/Synthesis/oscillator.h ****         pw_rad_    = pw_ * TWOPI_F;
 475              		.loc 3 48 9 discriminator 2 view .LVU137
  49:../../DaisySP/Source/Synthesis/oscillator.h ****         phase_     = 0.0f;
 476              		.loc 3 49 9 discriminator 2 view .LVU138
  50:../../DaisySP/Source/Synthesis/oscillator.h ****         phase_inc_ = CalcPhaseInc(freq_);
 477              		.loc 3 50 9 discriminator 2 view .LVU139
  51:../../DaisySP/Source/Synthesis/oscillator.h ****         waveform_  = WAVE_SIN;
 478              		.loc 3 51 9 discriminator 2 view .LVU140
  51:../../DaisySP/Source/Synthesis/oscillator.h ****         waveform_  = WAVE_SIN;
 479              		.loc 3 51 34 is_stmt 0 discriminator 2 view .LVU141
 480 016e FFF7FEFF 		bl	_ZN7daisysp10Oscillator12CalcPhaseIncEf
 481              	.LVL26:
  53:../../DaisySP/Source/Synthesis/oscillator.h ****         eor_       = true;
 482              		.loc 3 53 20 discriminator 2 view .LVU142
 483 0172 84F8AD71 		strb	r7, [r4, #429]
  54:../../DaisySP/Source/Synthesis/oscillator.h ****     }
 484              		.loc 3 54 20 discriminator 2 view .LVU143
 485 0176 84F8AC71 		strb	r7, [r4, #428]
  51:../../DaisySP/Source/Synthesis/oscillator.h ****         waveform_  = WAVE_SIN;
 486              		.loc 3 51 20 discriminator 2 view .LVU144
 487 017a 84ED680A 		vstr.32	s0, [r4, #416]
  52:../../DaisySP/Source/Synthesis/oscillator.h ****         eoc_       = true;
 488              		.loc 3 52 9 is_stmt 1 discriminator 2 view .LVU145
  53:../../DaisySP/Source/Synthesis/oscillator.h ****         eor_       = true;
 489              		.loc 3 53 9 discriminator 2 view .LVU146
  54:../../DaisySP/Source/Synthesis/oscillator.h ****     }
 490              		.loc 3 54 9 discriminator 2 view .LVU147
 491              	.LVL27:
  54:../../DaisySP/Source/Synthesis/oscillator.h ****     }
 492              		.loc 3 54 9 is_stmt 0 discriminator 2 view .LVU148
 493              	.LBE258:
 494              	.LBE262:
  66:vasynth.cpp   **** 		osc2_[i].SetAmp(1.0f); // default
 495              		.loc 1 66 3 is_stmt 1 discriminator 2 view .LVU149
  66:vasynth.cpp   **** 		osc2_[i].SetAmp(1.0f); // default
 496              		.loc 1 66 23 is_stmt 0 discriminator 2 view .LVU150
 497 017e 2B7D     		ldrb	r3, [r5, #20]	@ zero_extendqisi2
 498              	.LVL28:
 499              	.LBB263:
 500              	.LBI263:
  72:../../DaisySP/Source/Synthesis/oscillator.h ****     {
 501              		.loc 3 72 17 is_stmt 1 discriminator 2 view .LVU151
 502              	.LBB264:
  74:../../DaisySP/Source/Synthesis/oscillator.h ****     }
 503              		.loc 3 74 9 discriminator 2 view .LVU152
ARM GAS  C:\Users\jcjco\AppData\Local\Temp\ccZs88zN.s 			page 17


 504              	.LBE264:
 505              	.LBE263:
 506              	.LBB267:
 507              	.LBB268:
  69:../../DaisySP/Source/Synthesis/oscillator.h ****     /** Sets the waveform to be synthesized by the Process() function.
 508              		.loc 3 69 46 is_stmt 0 discriminator 2 view .LVU153
 509 0180 84ED618A 		vstr.32	s16, [r4, #388]
 510              	.LBE268:
 511              	.LBE267:
 512              	.LBB270:
 513              	.LBB265:
  74:../../DaisySP/Source/Synthesis/oscillator.h ****     }
 514              		.loc 3 74 19 discriminator 2 view .LVU154
 515 0184 082B     		cmp	r3, #8
 516              	.LBE265:
 517              	.LBE270:
 518              	.LBB271:
 519              	.LBB272:
  63:../../DaisySP/Source/Synthesis/oscillator.h ****     }
 520              		.loc 3 63 34 discriminator 2 view .LVU155
 521 0186 0198     		ldr	r0, [sp, #4]
 522              	.LBE272:
 523              	.LBE271:
 524              	.LBB275:
 525              	.LBB266:
  74:../../DaisySP/Source/Synthesis/oscillator.h ****     }
 526              		.loc 3 74 19 discriminator 2 view .LVU156
 527 0188 28BF     		it	cs
 528 018a 0023     		movcs	r3, #0
 529              	.LVL29:
  74:../../DaisySP/Source/Synthesis/oscillator.h ****     }
 530              		.loc 3 74 19 discriminator 2 view .LVU157
 531 018c 84F88031 		strb	r3, [r4, #384]
  74:../../DaisySP/Source/Synthesis/oscillator.h ****     }
 532              		.loc 3 74 19 discriminator 2 view .LVU158
 533              	.LBE266:
 534              	.LBE275:
  67:vasynth.cpp   **** 		osc2_[i].SetFreq(440.0f * osc2_detune_); // default
 535              		.loc 1 67 3 is_stmt 1 discriminator 2 view .LVU159
 536              	.LVL30:
 537              	.LBB276:
 538              	.LBI267:
  69:../../DaisySP/Source/Synthesis/oscillator.h ****     /** Sets the waveform to be synthesized by the Process() function.
 539              		.loc 3 69 17 discriminator 2 view .LVU160
 540              	.LBB269:
  69:../../DaisySP/Source/Synthesis/oscillator.h ****     /** Sets the waveform to be synthesized by the Process() function.
 541              		.loc 3 69 41 discriminator 2 view .LVU161
  69:../../DaisySP/Source/Synthesis/oscillator.h ****     /** Sets the waveform to be synthesized by the Process() function.
 542              		.loc 3 69 41 is_stmt 0 discriminator 2 view .LVU162
 543              	.LBE269:
 544              	.LBE276:
  68:vasynth.cpp   **** 		osc2_[i].SetPw(0.5f);
 545              		.loc 1 68 3 is_stmt 1 discriminator 2 view .LVU163
  68:vasynth.cpp   **** 		osc2_[i].SetPw(0.5f);
 546              		.loc 1 68 19 is_stmt 0 discriminator 2 view .LVU164
 547 0190 95ED060A 		vldr.32	s0, [r5, #24]
 548 0194 20EE2A0A 		vmul.f32	s0, s0, s21
ARM GAS  C:\Users\jcjco\AppData\Local\Temp\ccZs88zN.s 			page 18


 549              	.LVL31:
 550              	.LBB277:
 551              	.LBI271:
  60:../../DaisySP/Source/Synthesis/oscillator.h ****     {
 552              		.loc 3 60 17 is_stmt 1 discriminator 2 view .LVU165
 553              	.LBB273:
  62:../../DaisySP/Source/Synthesis/oscillator.h ****         phase_inc_ = CalcPhaseInc(f);
 554              		.loc 3 62 9 discriminator 2 view .LVU166
  62:../../DaisySP/Source/Synthesis/oscillator.h ****         phase_inc_ = CalcPhaseInc(f);
 555              		.loc 3 62 20 is_stmt 0 discriminator 2 view .LVU167
 556 0198 84ED620A 		vstr.32	s0, [r4, #392]
  63:../../DaisySP/Source/Synthesis/oscillator.h ****     }
 557              		.loc 3 63 9 is_stmt 1 discriminator 2 view .LVU168
  63:../../DaisySP/Source/Synthesis/oscillator.h ****     }
 558              		.loc 3 63 34 is_stmt 0 discriminator 2 view .LVU169
 559 019c FFF7FEFF 		bl	_ZN7daisysp10Oscillator12CalcPhaseIncEf
 560              	.LVL32:
  63:../../DaisySP/Source/Synthesis/oscillator.h ****     }
 561              		.loc 3 63 34 discriminator 2 view .LVU170
 562              	.LBE273:
 563              	.LBE277:
  74:vasynth.cpp   **** 		eg_a_[i].SetTime(ADSR_SEG_ATTACK, eg_a_attack_);
 564              		.loc 1 74 16 discriminator 2 view .LVU171
 565 01a0 3946     		mov	r1, r7
 566 01a2 3046     		mov	r0, r6
 567              	.LBB278:
 568              	.LBB274:
  63:../../DaisySP/Source/Synthesis/oscillator.h ****     }
 569              		.loc 3 63 20 discriminator 2 view .LVU172
 570 01a4 84ED680A 		vstr.32	s0, [r4, #416]
 571              	.LVL33:
  63:../../DaisySP/Source/Synthesis/oscillator.h ****     }
 572              		.loc 3 63 20 discriminator 2 view .LVU173
 573              	.LBE274:
 574              	.LBE278:
  69:vasynth.cpp   **** 		
 575              		.loc 1 69 3 is_stmt 1 discriminator 2 view .LVU174
 576              	.LBB279:
 577              	.LBI279:
  78:../../DaisySP/Source/Synthesis/oscillator.h ****     {
 578              		.loc 3 78 17 discriminator 2 view .LVU175
 579              	.LBB280:
  80:../../DaisySP/Source/Synthesis/oscillator.h ****         pw_rad_ = pw_ * TWOPI_F;
 580              		.loc 3 80 9 discriminator 2 view .LVU176
 581              	.LBB281:
 582              	.LBI281:
  56:../../DaisySP/Source/Utility/dsp.h **** {
 583              		.loc 4 56 14 discriminator 2 view .LVU177
 584              	.LBE281:
 585              	.LBE280:
 586              	.LBE279:
 587              	.LBE292:
 588              		.loc 4 58 5 discriminator 2 view .LVU178
 589              	.LBB293:
 590              	.LBB288:
 591              	.LBB287:
 592              	.LBB286:
ARM GAS  C:\Users\jcjco\AppData\Local\Temp\ccZs88zN.s 			page 19


 593              	.LBB282:
 594              	.LBI282:
  32:../../DaisySP/Source/Utility/dsp.h **** {
 595              		.loc 4 32 14 discriminator 2 view .LVU179
 596              	.LBB283:
  34:../../DaisySP/Source/Utility/dsp.h **** #ifdef __arm__
 597              		.loc 4 34 5 discriminator 2 view .LVU180
  36:../../DaisySP/Source/Utility/dsp.h **** #else
 598              		.loc 4 36 5 discriminator 2 view .LVU181
  40:../../DaisySP/Source/Utility/dsp.h **** }
 599              		.loc 4 40 5 discriminator 2 view .LVU182
  40:../../DaisySP/Source/Utility/dsp.h **** }
 600              		.loc 4 40 5 is_stmt 0 discriminator 2 view .LVU183
 601              	.LBE283:
 602              	.LBE282:
 603              	.LBB284:
 604              	.LBI284:
  43:../../DaisySP/Source/Utility/dsp.h **** {
 605              		.loc 4 43 14 is_stmt 1 discriminator 2 view .LVU184
 606              	.LBB285:
  45:../../DaisySP/Source/Utility/dsp.h **** #ifdef __arm__
 607              		.loc 4 45 5 discriminator 2 view .LVU185
  47:../../DaisySP/Source/Utility/dsp.h **** #else
 608              		.loc 4 47 5 discriminator 2 view .LVU186
  51:../../DaisySP/Source/Utility/dsp.h **** }
 609              		.loc 4 51 5 discriminator 2 view .LVU187
  51:../../DaisySP/Source/Utility/dsp.h **** }
 610              		.loc 4 51 5 is_stmt 0 discriminator 2 view .LVU188
 611              	.LBE285:
 612              	.LBE284:
 613              	.LBE286:
  80:../../DaisySP/Source/Synthesis/oscillator.h ****         pw_rad_ = pw_ * TWOPI_F;
 614              		.loc 3 80 17 discriminator 2 view .LVU189
 615 01a8 C4ED638A 		vstr.32	s17, [r4, #396]
 616              		.loc 3 81 9 is_stmt 1 discriminator 2 view .LVU190
 617              		.loc 3 81 17 is_stmt 0 discriminator 2 view .LVU191
 618 01ac C4ED649A 		vstr.32	s19, [r4, #400]
 619              	.LVL34:
 620              		.loc 3 81 17 discriminator 2 view .LVU192
 621              	.LBE287:
 622              	.LBE288:
  74:vasynth.cpp   **** 		eg_a_[i].SetTime(ADSR_SEG_ATTACK, eg_a_attack_);
 623              		.loc 1 74 3 is_stmt 1 discriminator 2 view .LVU193
  74:vasynth.cpp   **** 		eg_a_[i].SetTime(ADSR_SEG_ATTACK, eg_a_attack_);
 624              		.loc 1 74 16 is_stmt 0 discriminator 2 view .LVU194
 625 01b0 95ED000A 		vldr.32	s0, [r5]
 626 01b4 0196     		str	r6, [sp, #4]
 627 01b6 FFF7FEFF 		bl	_ZN7daisysp4Adsr4InitEfi
 628              	.LVL35:
  75:vasynth.cpp   **** 		eg_a_[i].SetTime(ADSR_SEG_DECAY, eg_a_decay_);
 629              		.loc 1 75 3 is_stmt 1 discriminator 2 view .LVU195
  75:vasynth.cpp   **** 		eg_a_[i].SetTime(ADSR_SEG_DECAY, eg_a_decay_);
 630              		.loc 1 75 19 is_stmt 0 discriminator 2 view .LVU196
 631 01ba 95ED090A 		vldr.32	s0, [r5, #36]
 632 01be 3946     		mov	r1, r7
 633 01c0 0198     		ldr	r0, [sp, #4]
 634 01c2 FFF7FEFF 		bl	_ZN7daisysp4Adsr7SetTimeEif
ARM GAS  C:\Users\jcjco\AppData\Local\Temp\ccZs88zN.s 			page 20


 635              	.LVL36:
  76:vasynth.cpp   **** 		eg_a_[i].SetTime(ADSR_SEG_RELEASE, eg_a_release_);
 636              		.loc 1 76 3 is_stmt 1 discriminator 2 view .LVU197
  76:vasynth.cpp   **** 		eg_a_[i].SetTime(ADSR_SEG_RELEASE, eg_a_release_);
 637              		.loc 1 76 19 is_stmt 0 discriminator 2 view .LVU198
 638 01c6 95ED0A0A 		vldr.32	s0, [r5, #40]
 639 01ca 0221     		movs	r1, #2
 640 01cc 0198     		ldr	r0, [sp, #4]
 641 01ce FFF7FEFF 		bl	_ZN7daisysp4Adsr7SetTimeEif
 642              	.LVL37:
  77:vasynth.cpp   **** 		eg_a_[i].SetSustainLevel(eg_a_sustain_);
 643              		.loc 1 77 3 is_stmt 1 discriminator 2 view .LVU199
  77:vasynth.cpp   **** 		eg_a_[i].SetSustainLevel(eg_a_sustain_);
 644              		.loc 1 77 19 is_stmt 0 discriminator 2 view .LVU200
 645 01d2 95ED0C0A 		vldr.32	s0, [r5, #48]
 646 01d6 0421     		movs	r1, #4
 647 01d8 0198     		ldr	r0, [sp, #4]
 648 01da FFF7FEFF 		bl	_ZN7daisysp4Adsr7SetTimeEif
 649              	.LVL38:
  78:vasynth.cpp   **** 
 650              		.loc 1 78 3 is_stmt 1 discriminator 2 view .LVU201
  78:vasynth.cpp   **** 
 651              		.loc 1 78 27 is_stmt 0 discriminator 2 view .LVU202
 652 01de D5ED0B7A 		vldr.32	s15, [r5, #44]
 653              	.LVL39:
 654              	.LBB289:
 655              	.LBI198:
  66:../../DaisySP/Source/Control/adsr.h ****     {
 656              		.loc 2 66 17 is_stmt 1 discriminator 2 view .LVU203
 657              	.LBB200:
  68:../../DaisySP/Source/Control/adsr.h ****                                        : (sus_level > 1.f) ? 1.f : sus_level;
 658              		.loc 2 68 9 discriminator 2 view .LVU204
  68:../../DaisySP/Source/Control/adsr.h ****                                        : (sus_level > 1.f) ? 1.f : sus_level;
 659              		.loc 2 68 40 is_stmt 0 discriminator 2 view .LVU205
 660 01e2 F4EECB7A 		vcmpe.f32	s15, s22
 661 01e6 F1EE10FA 		vmrs	APSR_nzcv, FPSCR
 662 01ea 3FF616AF 		bhi	.L19
  68:../../DaisySP/Source/Control/adsr.h ****                                        : (sus_level > 1.f) ? 1.f : sus_level;
 663              		.loc 2 68 40 view .LVU206
 664 01ee DFED6B7A 		vldr.32	s15, .L20+16
 665              	.LVL40:
  68:../../DaisySP/Source/Control/adsr.h ****                                        : (sus_level > 1.f) ? 1.f : sus_level;
 666              		.loc 2 68 40 view .LVU207
 667 01f2 18E7     		b	.L4
 668              	.LVL41:
 669              	.L13:
  68:../../DaisySP/Source/Control/adsr.h ****                                        : (sus_level > 1.f) ? 1.f : sus_level;
 670              		.loc 2 68 40 view .LVU208
 671              	.LBE200:
 672              	.LBE289:
 673              	.LBB290:
 674              	.LBB203:
 675 01f4 DFED697A 		vldr.32	s15, .L20+16
 676              	.LVL42:
  68:../../DaisySP/Source/Control/adsr.h ****                                        : (sus_level > 1.f) ? 1.f : sus_level;
 677              		.loc 2 68 40 view .LVU209
 678 01f8 41E7     		b	.L5
ARM GAS  C:\Users\jcjco\AppData\Local\Temp\ccZs88zN.s 			page 21


 679              	.LVL43:
 680              	.L18:
  68:../../DaisySP/Source/Control/adsr.h ****                                        : (sus_level > 1.f) ? 1.f : sus_level;
 681              		.loc 2 68 40 view .LVU210
 682              	.LBE203:
 683              	.LBE290:
 684              	.LBE293:
  91:vasynth.cpp   **** 	}
  92:vasynth.cpp   **** 
  93:vasynth.cpp   **** 	// lfo
  94:vasynth.cpp   **** 	lfo_.Init(sample_rate_);
 685              		.loc 1 94 2 is_stmt 1 view .LVU211
 686              	.LBB294:
 687              	.LBB295:
  45:../../DaisySP/Source/Synthesis/oscillator.h ****         freq_      = 100.0f;
 688              		.loc 3 45 27 is_stmt 0 view .LVU212
 689 01fa F7EE008A 		vmov.f32	s17, #1.0e+0
 690              	.LBE295:
 691              	.LBE294:
 692              		.loc 1 94 11 view .LVU213
 693 01fe D5ED007A 		vldr.32	s15, [r5]
 694 0202 05F21444 		addw	r4, r5, #1044
 695              	.LVL44:
 696              	.LBB298:
 697              	.LBI294:
  42:../../DaisySP/Source/Synthesis/oscillator.h ****     {
 698              		.loc 3 42 10 is_stmt 1 view .LVU214
 699              	.LBB296:
  44:../../DaisySP/Source/Synthesis/oscillator.h ****         sr_recip_  = 1.0f / sample_rate;
 700              		.loc 3 44 9 view .LVU215
  47:../../DaisySP/Source/Synthesis/oscillator.h ****         pw_        = 0.5f;
 701              		.loc 3 47 20 is_stmt 0 view .LVU216
 702 0206 4FF07C56 		mov	r6, #1056964608
  46:../../DaisySP/Source/Synthesis/oscillator.h ****         amp_       = 0.5f;
 703              		.loc 3 46 20 view .LVU217
 704 020a 9FED608A 		vldr.32	s16, .L20
  50:../../DaisySP/Source/Synthesis/oscillator.h ****         phase_inc_ = CalcPhaseInc(freq_);
 705              		.loc 3 50 20 view .LVU218
 706 020e 4FF00008 		mov	r8, #0
  45:../../DaisySP/Source/Synthesis/oscillator.h ****         freq_      = 100.0f;
 707              		.loc 3 45 27 view .LVU219
 708 0212 88EEA77A 		vdiv.f32	s14, s17, s15
  49:../../DaisySP/Source/Synthesis/oscillator.h ****         phase_     = 0.0f;
 709              		.loc 3 49 20 view .LVU220
 710 0216 DFF88891 		ldr	r9, .L20+20
  44:../../DaisySP/Source/Synthesis/oscillator.h ****         sr_recip_  = 1.0f / sample_rate;
 711              		.loc 3 44 20 view .LVU221
 712 021a C4ED057A 		vstr.32	s15, [r4, #20]
  45:../../DaisySP/Source/Synthesis/oscillator.h ****         freq_      = 100.0f;
 713              		.loc 3 45 9 is_stmt 1 view .LVU222
  51:../../DaisySP/Source/Synthesis/oscillator.h ****         waveform_  = WAVE_SIN;
 714              		.loc 3 51 34 is_stmt 0 view .LVU223
 715 021e 2046     		mov	r0, r4
  46:../../DaisySP/Source/Synthesis/oscillator.h ****         amp_       = 0.5f;
 716              		.loc 3 46 20 view .LVU224
 717 0220 84ED028A 		vstr.32	s16, [r4, #8]
  54:../../DaisySP/Source/Synthesis/oscillator.h ****     }
ARM GAS  C:\Users\jcjco\AppData\Local\Temp\ccZs88zN.s 			page 22


 718              		.loc 3 54 20 view .LVU225
 719 0224 40F20117 		movw	r7, #257
  47:../../DaisySP/Source/Synthesis/oscillator.h ****         pw_        = 0.5f;
 720              		.loc 3 47 20 view .LVU226
 721 0228 6660     		str	r6, [r4, #4]	@ float
  48:../../DaisySP/Source/Synthesis/oscillator.h ****         pw_rad_    = pw_ * TWOPI_F;
 722              		.loc 3 48 20 view .LVU227
 723 022a E660     		str	r6, [r4, #12]	@ float
  49:../../DaisySP/Source/Synthesis/oscillator.h ****         phase_     = 0.0f;
 724              		.loc 3 49 20 view .LVU228
 725 022c C4F81090 		str	r9, [r4, #16]	@ float
  51:../../DaisySP/Source/Synthesis/oscillator.h ****         waveform_  = WAVE_SIN;
 726              		.loc 3 51 34 view .LVU229
 727 0230 B0EE480A 		vmov.f32	s0, s16
  50:../../DaisySP/Source/Synthesis/oscillator.h ****         phase_inc_ = CalcPhaseInc(freq_);
 728              		.loc 3 50 20 view .LVU230
 729 0234 C4F81C80 		str	r8, [r4, #28]	@ float
  45:../../DaisySP/Source/Synthesis/oscillator.h ****         freq_      = 100.0f;
 730              		.loc 3 45 20 view .LVU231
 731 0238 84ED067A 		vstr.32	s14, [r4, #24]
  46:../../DaisySP/Source/Synthesis/oscillator.h ****         amp_       = 0.5f;
 732              		.loc 3 46 9 is_stmt 1 view .LVU232
  47:../../DaisySP/Source/Synthesis/oscillator.h ****         pw_        = 0.5f;
 733              		.loc 3 47 9 view .LVU233
  48:../../DaisySP/Source/Synthesis/oscillator.h ****         pw_rad_    = pw_ * TWOPI_F;
 734              		.loc 3 48 9 view .LVU234
  49:../../DaisySP/Source/Synthesis/oscillator.h ****         phase_     = 0.0f;
 735              		.loc 3 49 9 view .LVU235
  50:../../DaisySP/Source/Synthesis/oscillator.h ****         phase_inc_ = CalcPhaseInc(freq_);
 736              		.loc 3 50 9 view .LVU236
  51:../../DaisySP/Source/Synthesis/oscillator.h ****         waveform_  = WAVE_SIN;
 737              		.loc 3 51 9 view .LVU237
  51:../../DaisySP/Source/Synthesis/oscillator.h ****         waveform_  = WAVE_SIN;
 738              		.loc 3 51 34 is_stmt 0 view .LVU238
 739 023c FFF7FEFF 		bl	_ZN7daisysp10Oscillator12CalcPhaseIncEf
 740              	.LVL45:
  51:../../DaisySP/Source/Synthesis/oscillator.h ****         waveform_  = WAVE_SIN;
 741              		.loc 3 51 20 view .LVU239
 742 0240 84ED080A 		vstr.32	s0, [r4, #32]
  52:../../DaisySP/Source/Synthesis/oscillator.h ****         eoc_       = true;
 743              		.loc 3 52 9 is_stmt 1 view .LVU240
  53:../../DaisySP/Source/Synthesis/oscillator.h ****         eor_       = true;
 744              		.loc 3 53 9 view .LVU241
  54:../../DaisySP/Source/Synthesis/oscillator.h ****     }
 745              		.loc 3 54 9 view .LVU242
 746              	.LBE296:
 747              	.LBE298:
  95:vasynth.cpp   **** 	lfo_.SetWaveform(lfo_waveform_);
 748              		.loc 1 95 18 is_stmt 0 view .LVU243
 749 0244 95F84430 		ldrb	r3, [r5, #68]	@ zero_extendqisi2
 750              	.LBB299:
 751              	.LBB300:
  63:../../DaisySP/Source/Synthesis/oscillator.h ****     }
 752              		.loc 3 63 34 view .LVU244
 753 0248 2046     		mov	r0, r4
 754              	.LBE300:
 755              	.LBE299:
ARM GAS  C:\Users\jcjco\AppData\Local\Temp\ccZs88zN.s 			page 23


  96:vasynth.cpp   **** 	lfo_.SetFreq(lfo_freq_);
 756              		.loc 1 96 14 view .LVU245
 757 024a 95ED120A 		vldr.32	s0, [r5, #72]
 758              	.LBB303:
 759              	.LBB304:
  74:../../DaisySP/Source/Synthesis/oscillator.h ****     }
 760              		.loc 3 74 19 view .LVU246
 761 024e 082B     		cmp	r3, #8
 762              	.LBE304:
 763              	.LBE303:
 764              	.LBB307:
 765              	.LBB297:
  54:../../DaisySP/Source/Synthesis/oscillator.h ****     }
 766              		.loc 3 54 20 view .LVU247
 767 0250 A5F84074 		strh	r7, [r5, #1088]	@ movhi
 768              	.LVL46:
  54:../../DaisySP/Source/Synthesis/oscillator.h ****     }
 769              		.loc 3 54 20 view .LVU248
 770              	.LBE297:
 771              	.LBE307:
  95:vasynth.cpp   **** 	lfo_.SetFreq(lfo_freq_);
 772              		.loc 1 95 2 is_stmt 1 view .LVU249
 773              	.LBB308:
 774              	.LBI303:
  72:../../DaisySP/Source/Synthesis/oscillator.h ****     {
 775              		.loc 3 72 17 view .LVU250
 776              	.LBB305:
  74:../../DaisySP/Source/Synthesis/oscillator.h ****     }
 777              		.loc 3 74 9 view .LVU251
  74:../../DaisySP/Source/Synthesis/oscillator.h ****     }
 778              		.loc 3 74 9 is_stmt 0 view .LVU252
 779              	.LBE305:
 780              	.LBE308:
 781              		.loc 1 96 2 is_stmt 1 view .LVU253
 782              	.LBB309:
 783              	.LBI299:
  60:../../DaisySP/Source/Synthesis/oscillator.h ****     {
 784              		.loc 3 60 17 view .LVU254
 785              	.LBB301:
  62:../../DaisySP/Source/Synthesis/oscillator.h ****         phase_inc_ = CalcPhaseInc(f);
 786              		.loc 3 62 9 view .LVU255
 787              	.LBE301:
 788              	.LBE309:
 789              	.LBB310:
 790              	.LBB306:
  74:../../DaisySP/Source/Synthesis/oscillator.h ****     }
 791              		.loc 3 74 19 is_stmt 0 view .LVU256
 792 0254 28BF     		it	cs
 793 0256 0023     		movcs	r3, #0
 794 0258 85F81434 		strb	r3, [r5, #1044]
 795              	.LBE306:
 796              	.LBE310:
 797              	.LBB311:
 798              	.LBB302:
  62:../../DaisySP/Source/Synthesis/oscillator.h ****         phase_inc_ = CalcPhaseInc(f);
 799              		.loc 3 62 20 view .LVU257
 800 025c 84ED020A 		vstr.32	s0, [r4, #8]
ARM GAS  C:\Users\jcjco\AppData\Local\Temp\ccZs88zN.s 			page 24


  63:../../DaisySP/Source/Synthesis/oscillator.h ****     }
 801              		.loc 3 63 9 is_stmt 1 view .LVU258
  63:../../DaisySP/Source/Synthesis/oscillator.h ****     }
 802              		.loc 3 63 34 is_stmt 0 view .LVU259
 803 0260 FFF7FEFF 		bl	_ZN7daisysp10Oscillator12CalcPhaseIncEf
 804              	.LVL47:
  63:../../DaisySP/Source/Synthesis/oscillator.h ****     }
 805              		.loc 3 63 20 view .LVU260
 806 0264 84ED080A 		vstr.32	s0, [r4, #32]
 807              	.LVL48:
  63:../../DaisySP/Source/Synthesis/oscillator.h ****     }
 808              		.loc 3 63 20 view .LVU261
 809              	.LBE302:
 810              	.LBE311:
  97:vasynth.cpp   **** 	lfo_.SetAmp(lfo_amp_);
 811              		.loc 1 97 2 is_stmt 1 view .LVU262
 812              	.LBB312:
 813              	.LBI312:
  69:../../DaisySP/Source/Synthesis/oscillator.h ****     /** Sets the waveform to be synthesized by the Process() function.
 814              		.loc 3 69 17 view .LVU263
 815              	.LBB313:
  69:../../DaisySP/Source/Synthesis/oscillator.h ****     /** Sets the waveform to be synthesized by the Process() function.
 816              		.loc 3 69 41 view .LVU264
  69:../../DaisySP/Source/Synthesis/oscillator.h ****     /** Sets the waveform to be synthesized by the Process() function.
 817              		.loc 3 69 46 is_stmt 0 view .LVU265
 818 0268 EB6C     		ldr	r3, [r5, #76]	@ float
 819              	.LBE313:
 820              	.LBE312:
 821              	.LBB315:
 822              	.LBB316:
  51:../../DaisySP/Source/Synthesis/oscillator.h ****         waveform_  = WAVE_SIN;
 823              		.loc 3 51 34 view .LVU266
 824 026a B0EE480A 		vmov.f32	s0, s16
 825              	.LBE316:
 826              	.LBE315:
 827              	.LBB319:
 828              	.LBB314:
  69:../../DaisySP/Source/Synthesis/oscillator.h ****     /** Sets the waveform to be synthesized by the Process() function.
 829              		.loc 3 69 46 view .LVU267
 830 026e 6360     		str	r3, [r4, #4]	@ float
 831              	.LVL49:
  69:../../DaisySP/Source/Synthesis/oscillator.h ****     /** Sets the waveform to be synthesized by the Process() function.
 832              		.loc 3 69 46 view .LVU268
 833              	.LBE314:
 834              	.LBE319:
  98:vasynth.cpp   **** 	
  99:vasynth.cpp   **** 	pwmlfo_.Init(sample_rate_);
 835              		.loc 1 99 2 is_stmt 1 view .LVU269
 836              		.loc 1 99 14 is_stmt 0 view .LVU270
 837 0270 05F24444 		addw	r4, r5, #1092
 838              	.LVL50:
 839              		.loc 1 99 14 view .LVU271
 840 0274 D5ED007A 		vldr.32	s15, [r5]
 841              	.LVL51:
 842              	.LBB320:
 843              	.LBI315:
  42:../../DaisySP/Source/Synthesis/oscillator.h ****     {
ARM GAS  C:\Users\jcjco\AppData\Local\Temp\ccZs88zN.s 			page 25


 844              		.loc 3 42 10 is_stmt 1 view .LVU272
 845              	.LBB317:
  44:../../DaisySP/Source/Synthesis/oscillator.h ****         sr_recip_  = 1.0f / sample_rate;
 846              		.loc 3 44 9 view .LVU273
  51:../../DaisySP/Source/Synthesis/oscillator.h ****         waveform_  = WAVE_SIN;
 847              		.loc 3 51 34 is_stmt 0 view .LVU274
 848 0278 2046     		mov	r0, r4
  46:../../DaisySP/Source/Synthesis/oscillator.h ****         amp_       = 0.5f;
 849              		.loc 3 46 20 view .LVU275
 850 027a 84ED028A 		vstr.32	s16, [r4, #8]
  45:../../DaisySP/Source/Synthesis/oscillator.h ****         freq_      = 100.0f;
 851              		.loc 3 45 27 view .LVU276
 852 027e 88EEA77A 		vdiv.f32	s14, s17, s15
  44:../../DaisySP/Source/Synthesis/oscillator.h ****         sr_recip_  = 1.0f / sample_rate;
 853              		.loc 3 44 20 view .LVU277
 854 0282 C4ED057A 		vstr.32	s15, [r4, #20]
  45:../../DaisySP/Source/Synthesis/oscillator.h ****         freq_      = 100.0f;
 855              		.loc 3 45 9 is_stmt 1 view .LVU278
  47:../../DaisySP/Source/Synthesis/oscillator.h ****         pw_        = 0.5f;
 856              		.loc 3 47 20 is_stmt 0 view .LVU279
 857 0286 6660     		str	r6, [r4, #4]	@ float
  48:../../DaisySP/Source/Synthesis/oscillator.h ****         pw_rad_    = pw_ * TWOPI_F;
 858              		.loc 3 48 20 view .LVU280
 859 0288 E660     		str	r6, [r4, #12]	@ float
  49:../../DaisySP/Source/Synthesis/oscillator.h ****         phase_     = 0.0f;
 860              		.loc 3 49 20 view .LVU281
 861 028a C4F81090 		str	r9, [r4, #16]	@ float
  50:../../DaisySP/Source/Synthesis/oscillator.h ****         phase_inc_ = CalcPhaseInc(freq_);
 862              		.loc 3 50 20 view .LVU282
 863 028e C4F81C80 		str	r8, [r4, #28]	@ float
  45:../../DaisySP/Source/Synthesis/oscillator.h ****         freq_      = 100.0f;
 864              		.loc 3 45 20 view .LVU283
 865 0292 84ED067A 		vstr.32	s14, [r4, #24]
  46:../../DaisySP/Source/Synthesis/oscillator.h ****         amp_       = 0.5f;
 866              		.loc 3 46 9 is_stmt 1 view .LVU284
  47:../../DaisySP/Source/Synthesis/oscillator.h ****         pw_        = 0.5f;
 867              		.loc 3 47 9 view .LVU285
  48:../../DaisySP/Source/Synthesis/oscillator.h ****         pw_rad_    = pw_ * TWOPI_F;
 868              		.loc 3 48 9 view .LVU286
  49:../../DaisySP/Source/Synthesis/oscillator.h ****         phase_     = 0.0f;
 869              		.loc 3 49 9 view .LVU287
  50:../../DaisySP/Source/Synthesis/oscillator.h ****         phase_inc_ = CalcPhaseInc(freq_);
 870              		.loc 3 50 9 view .LVU288
  51:../../DaisySP/Source/Synthesis/oscillator.h ****         waveform_  = WAVE_SIN;
 871              		.loc 3 51 9 view .LVU289
  51:../../DaisySP/Source/Synthesis/oscillator.h ****         waveform_  = WAVE_SIN;
 872              		.loc 3 51 34 is_stmt 0 view .LVU290
 873 0296 FFF7FEFF 		bl	_ZN7daisysp10Oscillator12CalcPhaseIncEf
 874              	.LVL52:
  51:../../DaisySP/Source/Synthesis/oscillator.h ****         waveform_  = WAVE_SIN;
 875              		.loc 3 51 20 view .LVU291
 876 029a 84ED080A 		vstr.32	s0, [r4, #32]
  52:../../DaisySP/Source/Synthesis/oscillator.h ****         eoc_       = true;
 877              		.loc 3 52 9 is_stmt 1 view .LVU292
  53:../../DaisySP/Source/Synthesis/oscillator.h ****         eor_       = true;
 878              		.loc 3 53 9 view .LVU293
  54:../../DaisySP/Source/Synthesis/oscillator.h ****     }
ARM GAS  C:\Users\jcjco\AppData\Local\Temp\ccZs88zN.s 			page 26


 879              		.loc 3 54 9 view .LVU294
 880              	.LBE317:
 881              	.LBE320:
 100:vasynth.cpp   **** 	pwmlfo_.SetWaveform(pwmlfo_waveform_);
 882              		.loc 1 100 21 is_stmt 0 view .LVU295
 883 029e 95F85030 		ldrb	r3, [r5, #80]	@ zero_extendqisi2
 884              	.LBB321:
 885              	.LBB322:
  63:../../DaisySP/Source/Synthesis/oscillator.h ****     }
 886              		.loc 3 63 34 view .LVU296
 887 02a2 2046     		mov	r0, r4
 888              	.LBE322:
 889              	.LBE321:
 101:vasynth.cpp   **** 	pwmlfo_.SetFreq(pwmlfo_freq_);
 890              		.loc 1 101 17 view .LVU297
 891 02a4 95ED150A 		vldr.32	s0, [r5, #84]
 892              	.LBB324:
 893              	.LBB325:
  74:../../DaisySP/Source/Synthesis/oscillator.h ****     }
 894              		.loc 3 74 19 view .LVU298
 895 02a8 082B     		cmp	r3, #8
 896              	.LBE325:
 897              	.LBE324:
 898              	.LBB327:
 899              	.LBB318:
  54:../../DaisySP/Source/Synthesis/oscillator.h ****     }
 900              		.loc 3 54 20 view .LVU299
 901 02aa A5F87074 		strh	r7, [r5, #1136]	@ movhi
 902              	.LVL53:
  54:../../DaisySP/Source/Synthesis/oscillator.h ****     }
 903              		.loc 3 54 20 view .LVU300
 904              	.LBE318:
 905              	.LBE327:
 100:vasynth.cpp   **** 	pwmlfo_.SetFreq(pwmlfo_freq_);
 906              		.loc 1 100 2 is_stmt 1 view .LVU301
 907              	.LBB328:
 908              	.LBI324:
  72:../../DaisySP/Source/Synthesis/oscillator.h ****     {
 909              		.loc 3 72 17 view .LVU302
 910              	.LBB326:
  74:../../DaisySP/Source/Synthesis/oscillator.h ****     }
 911              		.loc 3 74 9 view .LVU303
  74:../../DaisySP/Source/Synthesis/oscillator.h ****     }
 912              		.loc 3 74 19 is_stmt 0 view .LVU304
 913 02ae 28BF     		it	cs
 914 02b0 0023     		movcs	r3, #0
 915              	.LVL54:
  74:../../DaisySP/Source/Synthesis/oscillator.h ****     }
 916              		.loc 3 74 19 view .LVU305
 917 02b2 85F84434 		strb	r3, [r5, #1092]
 918              	.LVL55:
  74:../../DaisySP/Source/Synthesis/oscillator.h ****     }
 919              		.loc 3 74 19 view .LVU306
 920              	.LBE326:
 921              	.LBE328:
 922              		.loc 1 101 2 is_stmt 1 view .LVU307
 923              	.LBB329:
ARM GAS  C:\Users\jcjco\AppData\Local\Temp\ccZs88zN.s 			page 27


 924              	.LBI321:
  60:../../DaisySP/Source/Synthesis/oscillator.h ****     {
 925              		.loc 3 60 17 view .LVU308
 926              	.LBB323:
  62:../../DaisySP/Source/Synthesis/oscillator.h ****         phase_inc_ = CalcPhaseInc(f);
 927              		.loc 3 62 9 view .LVU309
  62:../../DaisySP/Source/Synthesis/oscillator.h ****         phase_inc_ = CalcPhaseInc(f);
 928              		.loc 3 62 20 is_stmt 0 view .LVU310
 929 02b6 84ED020A 		vstr.32	s0, [r4, #8]
  63:../../DaisySP/Source/Synthesis/oscillator.h ****     }
 930              		.loc 3 63 9 is_stmt 1 view .LVU311
  63:../../DaisySP/Source/Synthesis/oscillator.h ****     }
 931              		.loc 3 63 34 is_stmt 0 view .LVU312
 932 02ba FFF7FEFF 		bl	_ZN7daisysp10Oscillator12CalcPhaseIncEf
 933              	.LVL56:
  63:../../DaisySP/Source/Synthesis/oscillator.h ****     }
 934              		.loc 3 63 20 view .LVU313
 935 02be 84ED080A 		vstr.32	s0, [r4, #32]
 936              	.LVL57:
  63:../../DaisySP/Source/Synthesis/oscillator.h ****     }
 937              		.loc 3 63 20 view .LVU314
 938              	.LBE323:
 939              	.LBE329:
 102:vasynth.cpp   **** 	pwmlfo_.SetAmp(pwmlfo_amp_);
 940              		.loc 1 102 2 is_stmt 1 view .LVU315
 941              	.LBB330:
 942              	.LBI330:
  69:../../DaisySP/Source/Synthesis/oscillator.h ****     /** Sets the waveform to be synthesized by the Process() function.
 943              		.loc 3 69 17 view .LVU316
 944              	.LBB331:
  69:../../DaisySP/Source/Synthesis/oscillator.h ****     /** Sets the waveform to be synthesized by the Process() function.
 945              		.loc 3 69 41 view .LVU317
  69:../../DaisySP/Source/Synthesis/oscillator.h ****     /** Sets the waveform to be synthesized by the Process() function.
 946              		.loc 3 69 46 is_stmt 0 view .LVU318
 947 02c2 AB6D     		ldr	r3, [r5, #88]	@ float
 948              	.LBE331:
 949              	.LBE330:
 950              	.LBB333:
 951              	.LBB334:
  51:../../DaisySP/Source/Synthesis/oscillator.h ****         waveform_  = WAVE_SIN;
 952              		.loc 3 51 34 view .LVU319
 953 02c4 B0EE480A 		vmov.f32	s0, s16
 954              	.LBE334:
 955              	.LBE333:
 956              	.LBB337:
 957              	.LBB332:
  69:../../DaisySP/Source/Synthesis/oscillator.h ****     /** Sets the waveform to be synthesized by the Process() function.
 958              		.loc 3 69 46 view .LVU320
 959 02c8 6360     		str	r3, [r4, #4]	@ float
 960              	.LVL58:
  69:../../DaisySP/Source/Synthesis/oscillator.h ****     /** Sets the waveform to be synthesized by the Process() function.
 961              		.loc 3 69 46 view .LVU321
 962              	.LBE332:
 963              	.LBE337:
 103:vasynth.cpp   **** 
 104:vasynth.cpp   **** 	pwm2lfo_.Init(sample_rate_);
 964              		.loc 1 104 2 is_stmt 1 view .LVU322
ARM GAS  C:\Users\jcjco\AppData\Local\Temp\ccZs88zN.s 			page 28


 965              		.loc 1 104 15 is_stmt 0 view .LVU323
 966 02ca 05F27444 		addw	r4, r5, #1140
 967              	.LVL59:
 968              		.loc 1 104 15 view .LVU324
 969 02ce D5ED007A 		vldr.32	s15, [r5]
 970              	.LVL60:
 971              	.LBB338:
 972              	.LBI333:
  42:../../DaisySP/Source/Synthesis/oscillator.h ****     {
 973              		.loc 3 42 10 is_stmt 1 view .LVU325
 974              	.LBB335:
  44:../../DaisySP/Source/Synthesis/oscillator.h ****         sr_recip_  = 1.0f / sample_rate;
 975              		.loc 3 44 9 view .LVU326
  51:../../DaisySP/Source/Synthesis/oscillator.h ****         waveform_  = WAVE_SIN;
 976              		.loc 3 51 34 is_stmt 0 view .LVU327
 977 02d2 2046     		mov	r0, r4
  46:../../DaisySP/Source/Synthesis/oscillator.h ****         amp_       = 0.5f;
 978              		.loc 3 46 20 view .LVU328
 979 02d4 84ED028A 		vstr.32	s16, [r4, #8]
  45:../../DaisySP/Source/Synthesis/oscillator.h ****         freq_      = 100.0f;
 980              		.loc 3 45 27 view .LVU329
 981 02d8 88EEA77A 		vdiv.f32	s14, s17, s15
  44:../../DaisySP/Source/Synthesis/oscillator.h ****         sr_recip_  = 1.0f / sample_rate;
 982              		.loc 3 44 20 view .LVU330
 983 02dc C4ED057A 		vstr.32	s15, [r4, #20]
  45:../../DaisySP/Source/Synthesis/oscillator.h ****         freq_      = 100.0f;
 984              		.loc 3 45 9 is_stmt 1 view .LVU331
  47:../../DaisySP/Source/Synthesis/oscillator.h ****         pw_        = 0.5f;
 985              		.loc 3 47 20 is_stmt 0 view .LVU332
 986 02e0 6660     		str	r6, [r4, #4]	@ float
  48:../../DaisySP/Source/Synthesis/oscillator.h ****         pw_rad_    = pw_ * TWOPI_F;
 987              		.loc 3 48 20 view .LVU333
 988 02e2 E660     		str	r6, [r4, #12]	@ float
  49:../../DaisySP/Source/Synthesis/oscillator.h ****         phase_     = 0.0f;
 989              		.loc 3 49 20 view .LVU334
 990 02e4 C4F81090 		str	r9, [r4, #16]	@ float
  50:../../DaisySP/Source/Synthesis/oscillator.h ****         phase_inc_ = CalcPhaseInc(freq_);
 991              		.loc 3 50 20 view .LVU335
 992 02e8 C4F81C80 		str	r8, [r4, #28]	@ float
  45:../../DaisySP/Source/Synthesis/oscillator.h ****         freq_      = 100.0f;
 993              		.loc 3 45 20 view .LVU336
 994 02ec 84ED067A 		vstr.32	s14, [r4, #24]
  46:../../DaisySP/Source/Synthesis/oscillator.h ****         amp_       = 0.5f;
 995              		.loc 3 46 9 is_stmt 1 view .LVU337
  47:../../DaisySP/Source/Synthesis/oscillator.h ****         pw_        = 0.5f;
 996              		.loc 3 47 9 view .LVU338
  48:../../DaisySP/Source/Synthesis/oscillator.h ****         pw_rad_    = pw_ * TWOPI_F;
 997              		.loc 3 48 9 view .LVU339
  49:../../DaisySP/Source/Synthesis/oscillator.h ****         phase_     = 0.0f;
 998              		.loc 3 49 9 view .LVU340
  50:../../DaisySP/Source/Synthesis/oscillator.h ****         phase_inc_ = CalcPhaseInc(freq_);
 999              		.loc 3 50 9 view .LVU341
  51:../../DaisySP/Source/Synthesis/oscillator.h ****         waveform_  = WAVE_SIN;
 1000              		.loc 3 51 9 view .LVU342
  51:../../DaisySP/Source/Synthesis/oscillator.h ****         waveform_  = WAVE_SIN;
 1001              		.loc 3 51 34 is_stmt 0 view .LVU343
 1002 02f0 FFF7FEFF 		bl	_ZN7daisysp10Oscillator12CalcPhaseIncEf
ARM GAS  C:\Users\jcjco\AppData\Local\Temp\ccZs88zN.s 			page 29


 1003              	.LVL61:
  51:../../DaisySP/Source/Synthesis/oscillator.h ****         waveform_  = WAVE_SIN;
 1004              		.loc 3 51 20 view .LVU344
 1005 02f4 84ED080A 		vstr.32	s0, [r4, #32]
  52:../../DaisySP/Source/Synthesis/oscillator.h ****         eoc_       = true;
 1006              		.loc 3 52 9 is_stmt 1 view .LVU345
  53:../../DaisySP/Source/Synthesis/oscillator.h ****         eor_       = true;
 1007              		.loc 3 53 9 view .LVU346
  54:../../DaisySP/Source/Synthesis/oscillator.h ****     }
 1008              		.loc 3 54 9 view .LVU347
 1009              	.LBE335:
 1010              	.LBE338:
 105:vasynth.cpp   **** 	pwm2lfo_.SetWaveform(pwm2lfo_waveform_);
 1011              		.loc 1 105 22 is_stmt 0 view .LVU348
 1012 02f8 95F85C30 		ldrb	r3, [r5, #92]	@ zero_extendqisi2
 1013              	.LBB339:
 1014              	.LBB340:
  63:../../DaisySP/Source/Synthesis/oscillator.h ****     }
 1015              		.loc 3 63 34 view .LVU349
 1016 02fc 2046     		mov	r0, r4
 1017              	.LBE340:
 1018              	.LBE339:
 106:vasynth.cpp   **** 	pwm2lfo_.SetFreq(pwm2lfo_freq_);
 1019              		.loc 1 106 18 view .LVU350
 1020 02fe 95ED180A 		vldr.32	s0, [r5, #96]
 1021              	.LBB342:
 1022              	.LBB343:
  74:../../DaisySP/Source/Synthesis/oscillator.h ****     }
 1023              		.loc 3 74 19 view .LVU351
 1024 0302 082B     		cmp	r3, #8
 1025              	.LBE343:
 1026              	.LBE342:
 1027              	.LBB345:
 1028              	.LBB336:
  54:../../DaisySP/Source/Synthesis/oscillator.h ****     }
 1029              		.loc 3 54 20 view .LVU352
 1030 0304 A5F8A074 		strh	r7, [r5, #1184]	@ movhi
 1031              	.LVL62:
  54:../../DaisySP/Source/Synthesis/oscillator.h ****     }
 1032              		.loc 3 54 20 view .LVU353
 1033              	.LBE336:
 1034              	.LBE345:
 105:vasynth.cpp   **** 	pwm2lfo_.SetFreq(pwm2lfo_freq_);
 1035              		.loc 1 105 2 is_stmt 1 view .LVU354
 1036              	.LBB346:
 1037              	.LBI342:
  72:../../DaisySP/Source/Synthesis/oscillator.h ****     {
 1038              		.loc 3 72 17 view .LVU355
 1039              	.LBB344:
  74:../../DaisySP/Source/Synthesis/oscillator.h ****     }
 1040              		.loc 3 74 9 view .LVU356
  74:../../DaisySP/Source/Synthesis/oscillator.h ****     }
 1041              		.loc 3 74 19 is_stmt 0 view .LVU357
 1042 0308 28BF     		it	cs
 1043 030a 0023     		movcs	r3, #0
 1044              	.LVL63:
  74:../../DaisySP/Source/Synthesis/oscillator.h ****     }
ARM GAS  C:\Users\jcjco\AppData\Local\Temp\ccZs88zN.s 			page 30


 1045              		.loc 3 74 19 view .LVU358
 1046 030c 85F87434 		strb	r3, [r5, #1140]
 1047              	.LVL64:
  74:../../DaisySP/Source/Synthesis/oscillator.h ****     }
 1048              		.loc 3 74 19 view .LVU359
 1049              	.LBE344:
 1050              	.LBE346:
 1051              		.loc 1 106 2 is_stmt 1 view .LVU360
 1052              	.LBB347:
 1053              	.LBI339:
  60:../../DaisySP/Source/Synthesis/oscillator.h ****     {
 1054              		.loc 3 60 17 view .LVU361
 1055              	.LBB341:
  62:../../DaisySP/Source/Synthesis/oscillator.h ****         phase_inc_ = CalcPhaseInc(f);
 1056              		.loc 3 62 9 view .LVU362
  62:../../DaisySP/Source/Synthesis/oscillator.h ****         phase_inc_ = CalcPhaseInc(f);
 1057              		.loc 3 62 20 is_stmt 0 view .LVU363
 1058 0310 84ED020A 		vstr.32	s0, [r4, #8]
  63:../../DaisySP/Source/Synthesis/oscillator.h ****     }
 1059              		.loc 3 63 9 is_stmt 1 view .LVU364
  63:../../DaisySP/Source/Synthesis/oscillator.h ****     }
 1060              		.loc 3 63 34 is_stmt 0 view .LVU365
 1061 0314 FFF7FEFF 		bl	_ZN7daisysp10Oscillator12CalcPhaseIncEf
 1062              	.LVL65:
  63:../../DaisySP/Source/Synthesis/oscillator.h ****     }
 1063              		.loc 3 63 20 view .LVU366
 1064 0318 84ED080A 		vstr.32	s0, [r4, #32]
 1065              	.LVL66:
  63:../../DaisySP/Source/Synthesis/oscillator.h ****     }
 1066              		.loc 3 63 20 view .LVU367
 1067              	.LBE341:
 1068              	.LBE347:
 107:vasynth.cpp   **** 	pwm2lfo_.SetAmp(pwm2lfo_amp_);
 1069              		.loc 1 107 2 is_stmt 1 view .LVU368
 1070              	.LBB348:
 1071              	.LBI348:
  69:../../DaisySP/Source/Synthesis/oscillator.h ****     /** Sets the waveform to be synthesized by the Process() function.
 1072              		.loc 3 69 17 view .LVU369
 1073              	.LBB349:
  69:../../DaisySP/Source/Synthesis/oscillator.h ****     /** Sets the waveform to be synthesized by the Process() function.
 1074              		.loc 3 69 41 view .LVU370
  69:../../DaisySP/Source/Synthesis/oscillator.h ****     /** Sets the waveform to be synthesized by the Process() function.
 1075              		.loc 3 69 46 is_stmt 0 view .LVU371
 1076 031c 6B6E     		ldr	r3, [r5, #100]	@ float
 1077              	.LBE349:
 1078              	.LBE348:
 1079              	.LBB351:
 1080              	.LBB352:
  51:../../DaisySP/Source/Synthesis/oscillator.h ****         waveform_  = WAVE_SIN;
 1081              		.loc 3 51 34 view .LVU372
 1082 031e B0EE480A 		vmov.f32	s0, s16
 1083              	.LBE352:
 1084              	.LBE351:
 1085              	.LBB355:
 1086              	.LBB350:
  69:../../DaisySP/Source/Synthesis/oscillator.h ****     /** Sets the waveform to be synthesized by the Process() function.
 1087              		.loc 3 69 46 view .LVU373
ARM GAS  C:\Users\jcjco\AppData\Local\Temp\ccZs88zN.s 			page 31


 1088 0322 6360     		str	r3, [r4, #4]	@ float
 1089              	.LVL67:
  69:../../DaisySP/Source/Synthesis/oscillator.h ****     /** Sets the waveform to be synthesized by the Process() function.
 1090              		.loc 3 69 46 view .LVU374
 1091              	.LBE350:
 1092              	.LBE355:
 108:vasynth.cpp   **** 
 109:vasynth.cpp   **** 	vcavcflfo_.Init(sample_rate_);
 1093              		.loc 1 109 2 is_stmt 1 view .LVU375
 1094              		.loc 1 109 17 is_stmt 0 view .LVU376
 1095 0324 05F2A444 		addw	r4, r5, #1188
 1096              	.LVL68:
 1097              		.loc 1 109 17 view .LVU377
 1098 0328 D5ED007A 		vldr.32	s15, [r5]
 1099              	.LVL69:
 1100              	.LBB356:
 1101              	.LBI351:
  42:../../DaisySP/Source/Synthesis/oscillator.h ****     {
 1102              		.loc 3 42 10 is_stmt 1 view .LVU378
 1103              	.LBB353:
  44:../../DaisySP/Source/Synthesis/oscillator.h ****         sr_recip_  = 1.0f / sample_rate;
 1104              		.loc 3 44 9 view .LVU379
  51:../../DaisySP/Source/Synthesis/oscillator.h ****         waveform_  = WAVE_SIN;
 1105              		.loc 3 51 34 is_stmt 0 view .LVU380
 1106 032c 2046     		mov	r0, r4
  49:../../DaisySP/Source/Synthesis/oscillator.h ****         phase_     = 0.0f;
 1107              		.loc 3 49 20 view .LVU381
 1108 032e C4F81090 		str	r9, [r4, #16]	@ float
  45:../../DaisySP/Source/Synthesis/oscillator.h ****         freq_      = 100.0f;
 1109              		.loc 3 45 27 view .LVU382
 1110 0332 88EEA77A 		vdiv.f32	s14, s17, s15
  44:../../DaisySP/Source/Synthesis/oscillator.h ****         sr_recip_  = 1.0f / sample_rate;
 1111              		.loc 3 44 20 view .LVU383
 1112 0336 C4ED057A 		vstr.32	s15, [r4, #20]
  45:../../DaisySP/Source/Synthesis/oscillator.h ****         freq_      = 100.0f;
 1113              		.loc 3 45 9 is_stmt 1 view .LVU384
  46:../../DaisySP/Source/Synthesis/oscillator.h ****         amp_       = 0.5f;
 1114              		.loc 3 46 20 is_stmt 0 view .LVU385
 1115 033a 84ED028A 		vstr.32	s16, [r4, #8]
  47:../../DaisySP/Source/Synthesis/oscillator.h ****         pw_        = 0.5f;
 1116              		.loc 3 47 20 view .LVU386
 1117 033e 6660     		str	r6, [r4, #4]	@ float
  48:../../DaisySP/Source/Synthesis/oscillator.h ****         pw_rad_    = pw_ * TWOPI_F;
 1118              		.loc 3 48 20 view .LVU387
 1119 0340 E660     		str	r6, [r4, #12]	@ float
  50:../../DaisySP/Source/Synthesis/oscillator.h ****         phase_inc_ = CalcPhaseInc(freq_);
 1120              		.loc 3 50 20 view .LVU388
 1121 0342 C4F81C80 		str	r8, [r4, #28]	@ float
  45:../../DaisySP/Source/Synthesis/oscillator.h ****         freq_      = 100.0f;
 1122              		.loc 3 45 20 view .LVU389
 1123 0346 84ED067A 		vstr.32	s14, [r4, #24]
  46:../../DaisySP/Source/Synthesis/oscillator.h ****         amp_       = 0.5f;
 1124              		.loc 3 46 9 is_stmt 1 view .LVU390
  47:../../DaisySP/Source/Synthesis/oscillator.h ****         pw_        = 0.5f;
 1125              		.loc 3 47 9 view .LVU391
  48:../../DaisySP/Source/Synthesis/oscillator.h ****         pw_rad_    = pw_ * TWOPI_F;
 1126              		.loc 3 48 9 view .LVU392
ARM GAS  C:\Users\jcjco\AppData\Local\Temp\ccZs88zN.s 			page 32


  49:../../DaisySP/Source/Synthesis/oscillator.h ****         phase_     = 0.0f;
 1127              		.loc 3 49 9 view .LVU393
  50:../../DaisySP/Source/Synthesis/oscillator.h ****         phase_inc_ = CalcPhaseInc(freq_);
 1128              		.loc 3 50 9 view .LVU394
  51:../../DaisySP/Source/Synthesis/oscillator.h ****         waveform_  = WAVE_SIN;
 1129              		.loc 3 51 9 view .LVU395
  51:../../DaisySP/Source/Synthesis/oscillator.h ****         waveform_  = WAVE_SIN;
 1130              		.loc 3 51 34 is_stmt 0 view .LVU396
 1131 034a FFF7FEFF 		bl	_ZN7daisysp10Oscillator12CalcPhaseIncEf
 1132              	.LVL70:
  51:../../DaisySP/Source/Synthesis/oscillator.h ****         waveform_  = WAVE_SIN;
 1133              		.loc 3 51 20 view .LVU397
 1134 034e 84ED080A 		vstr.32	s0, [r4, #32]
  52:../../DaisySP/Source/Synthesis/oscillator.h ****         eoc_       = true;
 1135              		.loc 3 52 9 is_stmt 1 view .LVU398
  53:../../DaisySP/Source/Synthesis/oscillator.h ****         eor_       = true;
 1136              		.loc 3 53 9 view .LVU399
  54:../../DaisySP/Source/Synthesis/oscillator.h ****     }
 1137              		.loc 3 54 9 view .LVU400
 1138              	.LBE353:
 1139              	.LBE356:
 110:vasynth.cpp   **** 	vcavcflfo_.SetWaveform(vcavcflfo_waveform_);
 1140              		.loc 1 110 24 is_stmt 0 view .LVU401
 1141 0352 95F86830 		ldrb	r3, [r5, #104]	@ zero_extendqisi2
 1142              	.LBB357:
 1143              	.LBB358:
  63:../../DaisySP/Source/Synthesis/oscillator.h ****     }
 1144              		.loc 3 63 34 view .LVU402
 1145 0356 2046     		mov	r0, r4
 1146              	.LBE358:
 1147              	.LBE357:
 111:vasynth.cpp   **** 	vcavcflfo_.SetFreq(vcavcflfo_freq_);
 1148              		.loc 1 111 20 view .LVU403
 1149 0358 95ED1B0A 		vldr.32	s0, [r5, #108]
 1150              	.LBB361:
 1151              	.LBB362:
  74:../../DaisySP/Source/Synthesis/oscillator.h ****     }
 1152              		.loc 3 74 19 view .LVU404
 1153 035c 082B     		cmp	r3, #8
 1154              	.LBE362:
 1155              	.LBE361:
 1156              	.LBB364:
 1157              	.LBB354:
  54:../../DaisySP/Source/Synthesis/oscillator.h ****     }
 1158              		.loc 3 54 20 view .LVU405
 1159 035e A5F8D074 		strh	r7, [r5, #1232]	@ movhi
 1160              	.LVL71:
  54:../../DaisySP/Source/Synthesis/oscillator.h ****     }
 1161              		.loc 3 54 20 view .LVU406
 1162              	.LBE354:
 1163              	.LBE364:
 110:vasynth.cpp   **** 	vcavcflfo_.SetFreq(vcavcflfo_freq_);
 1164              		.loc 1 110 2 is_stmt 1 view .LVU407
 1165              	.LBB365:
 1166              	.LBI361:
  72:../../DaisySP/Source/Synthesis/oscillator.h ****     {
 1167              		.loc 3 72 17 view .LVU408
ARM GAS  C:\Users\jcjco\AppData\Local\Temp\ccZs88zN.s 			page 33


 1168              	.LBB363:
  74:../../DaisySP/Source/Synthesis/oscillator.h ****     }
 1169              		.loc 3 74 9 view .LVU409
  74:../../DaisySP/Source/Synthesis/oscillator.h ****     }
 1170              		.loc 3 74 19 is_stmt 0 view .LVU410
 1171 0362 28BF     		it	cs
 1172 0364 0023     		movcs	r3, #0
 1173              	.LVL72:
  74:../../DaisySP/Source/Synthesis/oscillator.h ****     }
 1174              		.loc 3 74 19 view .LVU411
 1175 0366 85F8A434 		strb	r3, [r5, #1188]
 1176              	.LVL73:
  74:../../DaisySP/Source/Synthesis/oscillator.h ****     }
 1177              		.loc 3 74 19 view .LVU412
 1178              	.LBE363:
 1179              	.LBE365:
 1180              		.loc 1 111 2 is_stmt 1 view .LVU413
 1181              	.LBB366:
 1182              	.LBI357:
  60:../../DaisySP/Source/Synthesis/oscillator.h ****     {
 1183              		.loc 3 60 17 view .LVU414
 1184              	.LBB359:
  62:../../DaisySP/Source/Synthesis/oscillator.h ****         phase_inc_ = CalcPhaseInc(f);
 1185              		.loc 3 62 9 view .LVU415
  62:../../DaisySP/Source/Synthesis/oscillator.h ****         phase_inc_ = CalcPhaseInc(f);
 1186              		.loc 3 62 20 is_stmt 0 view .LVU416
 1187 036a 84ED020A 		vstr.32	s0, [r4, #8]
  63:../../DaisySP/Source/Synthesis/oscillator.h ****     }
 1188              		.loc 3 63 9 is_stmt 1 view .LVU417
  63:../../DaisySP/Source/Synthesis/oscillator.h ****     }
 1189              		.loc 3 63 34 is_stmt 0 view .LVU418
 1190 036e FFF7FEFF 		bl	_ZN7daisysp10Oscillator12CalcPhaseIncEf
 1191              	.LVL74:
  63:../../DaisySP/Source/Synthesis/oscillator.h ****     }
 1192              		.loc 3 63 34 view .LVU419
 1193              	.LBE359:
 1194              	.LBE366:
 112:vasynth.cpp   **** 	vcavcflfo_.SetAmp(vcavcflfo_amp_);
 113:vasynth.cpp   **** 
 114:vasynth.cpp   ****     // init
 115:vasynth.cpp   ****     osc_next_ = 0;
 1195              		.loc 1 115 15 view .LVU420
 1196 0372 0023     		movs	r3, #0
 1197              	.LBB367:
 1198              	.LBB360:
  63:../../DaisySP/Source/Synthesis/oscillator.h ****     }
 1199              		.loc 3 63 20 view .LVU421
 1200 0374 84ED080A 		vstr.32	s0, [r4, #32]
 1201              	.LVL75:
  63:../../DaisySP/Source/Synthesis/oscillator.h ****     }
 1202              		.loc 3 63 20 view .LVU422
 1203              	.LBE360:
 1204              	.LBE367:
 112:vasynth.cpp   **** 	vcavcflfo_.SetAmp(vcavcflfo_amp_);
 1205              		.loc 1 112 2 is_stmt 1 view .LVU423
 1206              	.LBB368:
 1207              	.LBI368:
ARM GAS  C:\Users\jcjco\AppData\Local\Temp\ccZs88zN.s 			page 34


  69:../../DaisySP/Source/Synthesis/oscillator.h ****     /** Sets the waveform to be synthesized by the Process() function.
 1208              		.loc 3 69 17 view .LVU424
 1209              	.LBB369:
  69:../../DaisySP/Source/Synthesis/oscillator.h ****     /** Sets the waveform to be synthesized by the Process() function.
 1210              		.loc 3 69 41 view .LVU425
  69:../../DaisySP/Source/Synthesis/oscillator.h ****     /** Sets the waveform to be synthesized by the Process() function.
 1211              		.loc 3 69 46 is_stmt 0 view .LVU426
 1212 0378 2A6F     		ldr	r2, [r5, #112]	@ float
 1213 037a 6260     		str	r2, [r4, #4]	@ float
 1214              	.LVL76:
  69:../../DaisySP/Source/Synthesis/oscillator.h ****     /** Sets the waveform to be synthesized by the Process() function.
 1215              		.loc 3 69 46 view .LVU427
 1216              	.LBE369:
 1217              	.LBE368:
 1218              		.loc 1 115 5 is_stmt 1 view .LVU428
 1219              		.loc 1 115 15 is_stmt 0 view .LVU429
 1220 037c 85F88A30 		strb	r3, [r5, #138]
 116:vasynth.cpp   **** }
 1221              		.loc 1 116 1 view .LVU430
 1222 0380 03B0     		add	sp, sp, #12
 1223              		.cfi_def_cfa_offset 68
 1224              		@ sp needed
 1225 0382 BDEC088B 		vldm	sp!, {d8-d11}
 1226              		.cfi_restore 86
 1227              		.cfi_restore 87
 1228              		.cfi_restore 84
 1229              		.cfi_restore 85
 1230              		.cfi_restore 82
 1231              		.cfi_restore 83
 1232              		.cfi_restore 80
 1233              		.cfi_restore 81
 1234              		.cfi_def_cfa_offset 36
 1235 0386 BDE8F08F 		pop	{r4, r5, r6, r7, r8, r9, r10, fp, pc}
 1236              	.LVL77:
 1237              	.L21:
 1238              		.loc 1 116 1 view .LVU431
 1239 038a 00BF     		.align	2
 1240              	.L20:
 1241 038c 0000C842 		.word	1120403456
 1242 0390 00000000 		.word	0
 1243 0394 0000DC43 		.word	1138491392
 1244 0398 DB0FC940 		.word	1086918619
 1245 039c 0AD723BC 		.word	-1138501878
 1246 03a0 DB0F4940 		.word	1078530011
 1247              		.cfi_endproc
 1248              	.LFE4792:
 1250              		.section	.text._ZN7VASynth11SetWaveformEv,"ax",%progbits
 1251              		.align	1
 1252              		.p2align 2,,3
 1253              		.global	_ZN7VASynth11SetWaveformEv
 1254              		.syntax unified
 1255              		.thumb
 1256              		.thumb_func
 1257              		.fpu fpv5-d16
 1259              	_ZN7VASynth11SetWaveformEv:
 1260              	.LVL78:
 1261              	.LFB4794:
ARM GAS  C:\Users\jcjco\AppData\Local\Temp\ccZs88zN.s 			page 35


 117:vasynth.cpp   **** 
 118:vasynth.cpp   **** void VASynth::First()
 119:vasynth.cpp   **** {
 120:vasynth.cpp   **** 	sample_rate_ = sysSampleRate;
 121:vasynth.cpp   **** 	SaveToLive(&preset_setting[0]);
 122:vasynth.cpp   **** }	
 123:vasynth.cpp   **** 
 124:vasynth.cpp   **** void VASynth::SetWaveform()
 125:vasynth.cpp   **** {
 1262              		.loc 1 125 1 is_stmt 1 view -0
 1263              		.cfi_startproc
 1264              		@ args = 0, pretend = 0, frame = 0
 1265              		@ frame_needed = 0, uses_anonymous_args = 0
 1266              		@ link register save eliminated.
 126:vasynth.cpp   **** 	for (uint8_t i = 0; i < VOICES_MAX; i++)
 1267              		.loc 1 126 2 view .LVU433
 1268              	.LBB370:
 1269              		.loc 1 126 24 view .LVU434
 127:vasynth.cpp   **** 	{
 128:vasynth.cpp   **** 		osc_[i].SetWaveform(waveform_);
 1270              		.loc 1 128 22 is_stmt 0 view .LVU435
 1271 0000 0279     		ldrb	r2, [r0, #4]	@ zero_extendqisi2
 1272 0002 00F5C071 		add	r1, r0, #384
 129:vasynth.cpp   **** 		osc2_[i].SetWaveform(osc2_waveform_);
 1273              		.loc 1 129 23 view .LVU436
 1274 0006 037D     		ldrb	r3, [r0, #20]	@ zero_extendqisi2
 1275 0008 072A     		cmp	r2, #7
 1276 000a 88BF     		it	hi
 1277 000c 0022     		movhi	r2, #0
 1278 000e 072B     		cmp	r3, #7
 1279 0010 88BF     		it	hi
 1280 0012 0023     		movhi	r3, #0
 1281              	.LVL79:
 1282              	.L23:
 128:vasynth.cpp   **** 		osc2_[i].SetWaveform(osc2_waveform_);
 1283              		.loc 1 128 3 is_stmt 1 discriminator 2 view .LVU437
 1284              	.LBB371:
 1285              	.LBI371:
  72:../../DaisySP/Source/Synthesis/oscillator.h ****     {
 1286              		.loc 3 72 17 discriminator 2 view .LVU438
 1287              	.LBB372:
  74:../../DaisySP/Source/Synthesis/oscillator.h ****     }
 1288              		.loc 3 74 9 discriminator 2 view .LVU439
  74:../../DaisySP/Source/Synthesis/oscillator.h ****     }
 1289              		.loc 3 74 19 is_stmt 0 discriminator 2 view .LVU440
 1290 0014 80F81421 		strb	r2, [r0, #276]
 1291              	.LVL80:
  74:../../DaisySP/Source/Synthesis/oscillator.h ****     }
 1292              		.loc 3 74 19 discriminator 2 view .LVU441
 1293              	.LBE372:
 1294              	.LBE371:
 1295              		.loc 1 129 3 is_stmt 1 discriminator 2 view .LVU442
 1296              	.LBB373:
 1297              	.LBI373:
  72:../../DaisySP/Source/Synthesis/oscillator.h ****     {
 1298              		.loc 3 72 17 discriminator 2 view .LVU443
 1299              	.LBB374:
ARM GAS  C:\Users\jcjco\AppData\Local\Temp\ccZs88zN.s 			page 36


  74:../../DaisySP/Source/Synthesis/oscillator.h ****     }
 1300              		.loc 3 74 9 discriminator 2 view .LVU444
 1301              	.LBE374:
 1302              	.LBE373:
 126:vasynth.cpp   **** 	{
 1303              		.loc 1 126 24 is_stmt 0 discriminator 2 view .LVU445
 1304 0018 3030     		adds	r0, r0, #48
 1305              	.LVL81:
 1306              	.LBB376:
 1307              	.LBB375:
  74:../../DaisySP/Source/Synthesis/oscillator.h ****     }
 1308              		.loc 3 74 19 discriminator 2 view .LVU446
 1309 001a 80F86432 		strb	r3, [r0, #612]
 1310              	.LVL82:
  74:../../DaisySP/Source/Synthesis/oscillator.h ****     }
 1311              		.loc 3 74 19 discriminator 2 view .LVU447
 1312              	.LBE375:
 1313              	.LBE376:
 126:vasynth.cpp   **** 	{
 1314              		.loc 1 126 2 is_stmt 1 discriminator 2 view .LVU448
 126:vasynth.cpp   **** 	{
 1315              		.loc 1 126 24 discriminator 2 view .LVU449
 1316 001e 8142     		cmp	r1, r0
 1317 0020 F8D1     		bne	.L23
 1318              	.LBE370:
 130:vasynth.cpp   **** 	}
 131:vasynth.cpp   **** }
 1319              		.loc 1 131 1 is_stmt 0 view .LVU450
 1320 0022 7047     		bx	lr
 1321              		.cfi_endproc
 1322              	.LFE4794:
 1324              		.section	.text._ZN7VASynth5SetEGEv,"ax",%progbits
 1325              		.align	1
 1326              		.p2align 2,,3
 1327              		.global	_ZN7VASynth5SetEGEv
 1328              		.syntax unified
 1329              		.thumb
 1330              		.thumb_func
 1331              		.fpu fpv5-d16
 1333              	_ZN7VASynth5SetEGEv:
 1334              	.LVL83:
 1335              	.LFB4795:
 132:vasynth.cpp   **** 
 133:vasynth.cpp   **** void VASynth::SetEG()
 134:vasynth.cpp   **** {
 1336              		.loc 1 134 1 is_stmt 1 view -0
 1337              		.cfi_startproc
 1338              		@ args = 0, pretend = 0, frame = 8
 1339              		@ frame_needed = 0, uses_anonymous_args = 0
 135:vasynth.cpp   **** 	for (uint8_t i = 0; i < VOICES_MAX; i++)
 1340              		.loc 1 135 2 view .LVU452
 1341              	.LBB377:
 1342              		.loc 1 135 24 view .LVU453
 1343              	.LBE377:
 134:vasynth.cpp   **** 	for (uint8_t i = 0; i < VOICES_MAX; i++)
 1344              		.loc 1 134 1 is_stmt 0 view .LVU454
 1345 0000 70B5     		push	{r4, r5, r6, lr}
ARM GAS  C:\Users\jcjco\AppData\Local\Temp\ccZs88zN.s 			page 37


 1346              		.cfi_def_cfa_offset 16
 1347              		.cfi_offset 4, -16
 1348              		.cfi_offset 5, -12
 1349              		.cfi_offset 6, -8
 1350              		.cfi_offset 14, -4
 1351 0002 0446     		mov	r4, r0
 1352 0004 82B0     		sub	sp, sp, #8
 1353              		.cfi_def_cfa_offset 24
 1354 0006 00F2D445 		addw	r5, r0, #1236
 1355 000a 00F25466 		addw	r6, r0, #1620
 1356 000e 2EE0     		b	.L28
 1357              	.LVL84:
 1358              	.L36:
 1359              	.LBB390:
 1360              	.LBB378:
 1361              	.LBB379:
  69:../../DaisySP/Source/Control/adsr.h ****         sus_level_ = sus_level;
 1362              		.loc 2 69 60 view .LVU455
 1363 0010 F4EE477A 		vcmp.f32	s15, s14
 1364 0014 F1EE10FA 		vmrs	APSR_nzcv, FPSCR
 1365 0018 77FE277A 		vselgt.f32	s15, s14, s15
 1366              	.LVL85:
 1367              	.L26:
 1368              		.loc 2 70 9 is_stmt 1 view .LVU456
 1369              		.loc 2 70 20 is_stmt 0 view .LVU457
 1370 001c C5ED607A 		vstr.32	s15, [r5, #384]
 1371              	.LVL86:
 1372              		.loc 2 70 20 view .LVU458
 1373              	.LBE379:
 1374              	.LBE378:
 136:vasynth.cpp   **** 	{
 137:vasynth.cpp   **** 		// EG - filter
 138:vasynth.cpp   **** 		eg_f_[i].SetTime(ADSR_SEG_ATTACK, eg_f_attack_);
 139:vasynth.cpp   **** 		eg_f_[i].SetTime(ADSR_SEG_DECAY, eg_f_decay_);
 140:vasynth.cpp   **** 		eg_f_[i].SetTime(ADSR_SEG_RELEASE, eg_f_release_);
 141:vasynth.cpp   **** 		eg_f_[i].SetSustainLevel(eg_f_sustain_);
 142:vasynth.cpp   **** 
 143:vasynth.cpp   **** 		// EG - amplitude
 144:vasynth.cpp   **** 		eg_a_[i].SetTime(ADSR_SEG_ATTACK, eg_a_attack_);
 1375              		.loc 1 144 3 is_stmt 1 view .LVU459
 1376              		.loc 1 144 19 is_stmt 0 view .LVU460
 1377 0020 2846     		mov	r0, r5
 1378 0022 0121     		movs	r1, #1
 1379 0024 94ED090A 		vldr.32	s0, [r4, #36]
 1380 0028 FFF7FEFF 		bl	_ZN7daisysp4Adsr7SetTimeEif
 1381              	.LVL87:
 145:vasynth.cpp   **** 		eg_a_[i].SetTime(ADSR_SEG_DECAY, eg_a_decay_);
 1382              		.loc 1 145 3 is_stmt 1 view .LVU461
 1383              		.loc 1 145 19 is_stmt 0 view .LVU462
 1384 002c 2846     		mov	r0, r5
 1385 002e 94ED0A0A 		vldr.32	s0, [r4, #40]
 1386 0032 0221     		movs	r1, #2
 1387 0034 FFF7FEFF 		bl	_ZN7daisysp4Adsr7SetTimeEif
 1388              	.LVL88:
 146:vasynth.cpp   **** 		eg_a_[i].SetTime(ADSR_SEG_RELEASE, eg_a_release_);
 1389              		.loc 1 146 3 is_stmt 1 view .LVU463
 1390              		.loc 1 146 19 is_stmt 0 view .LVU464
ARM GAS  C:\Users\jcjco\AppData\Local\Temp\ccZs88zN.s 			page 38


 1391 0038 2846     		mov	r0, r5
 1392 003a 94ED0C0A 		vldr.32	s0, [r4, #48]
 1393 003e 0421     		movs	r1, #4
 1394 0040 FFF7FEFF 		bl	_ZN7daisysp4Adsr7SetTimeEif
 1395              	.LVL89:
 147:vasynth.cpp   **** 		eg_a_[i].SetSustainLevel(eg_a_sustain_);
 1396              		.loc 1 147 3 is_stmt 1 view .LVU465
 1397              		.loc 1 147 27 is_stmt 0 view .LVU466
 1398 0044 D4ED0B7A 		vldr.32	s15, [r4, #44]
 1399              	.LVL90:
 1400              	.LBB381:
 1401              	.LBI381:
  66:../../DaisySP/Source/Control/adsr.h ****     {
 1402              		.loc 2 66 17 is_stmt 1 view .LVU467
 1403              	.LBB382:
  68:../../DaisySP/Source/Control/adsr.h ****                                        : (sus_level > 1.f) ? 1.f : sus_level;
 1404              		.loc 2 68 9 view .LVU468
  69:../../DaisySP/Source/Control/adsr.h ****         sus_level_ = sus_level;
 1405              		.loc 2 69 60 is_stmt 0 view .LVU469
 1406 0048 B7EE007A 		vmov.f32	s14, #1.0e+0
  68:../../DaisySP/Source/Control/adsr.h ****                                        : (sus_level > 1.f) ? 1.f : sus_level;
 1407              		.loc 2 68 40 view .LVU470
 1408 004c F5EEC07A 		vcmpe.f32	s15, #0
 1409 0050 F1EE10FA 		vmrs	APSR_nzcv, FPSCR
 1410 0054 2BD9     		bls	.L31
  69:../../DaisySP/Source/Control/adsr.h ****         sus_level_ = sus_level;
 1411              		.loc 2 69 60 view .LVU471
 1412 0056 F4EE477A 		vcmp.f32	s15, s14
 1413              		.loc 2 70 20 view .LVU472
 1414 005a 2B46     		mov	r3, r5
 1415 005c 3035     		adds	r5, r5, #48
 1416              	.LVL91:
  69:../../DaisySP/Source/Control/adsr.h ****         sus_level_ = sus_level;
 1417              		.loc 2 69 60 view .LVU473
 1418 005e F1EE10FA 		vmrs	APSR_nzcv, FPSCR
 1419 0062 77FE277A 		vselgt.f32	s15, s14, s15
 1420              	.LVL92:
 1421              		.loc 2 70 9 is_stmt 1 view .LVU474
 1422              	.LBE382:
 1423              	.LBE381:
 135:vasynth.cpp   **** 	{
 1424              		.loc 1 135 24 is_stmt 0 view .LVU475
 1425 0066 B542     		cmp	r5, r6
 1426              	.LBB386:
 1427              	.LBB383:
 1428              		.loc 2 70 20 view .LVU476
 1429 0068 C3ED007A 		vstr.32	s15, [r3]
 1430              	.LVL93:
 1431              		.loc 2 70 20 view .LVU477
 1432              	.LBE383:
 1433              	.LBE386:
 135:vasynth.cpp   **** 	{
 1434              		.loc 1 135 2 is_stmt 1 view .LVU478
 135:vasynth.cpp   **** 	{
 1435              		.loc 1 135 24 view .LVU479
 1436 006c 27D0     		beq	.L35
 1437              	.L28:
ARM GAS  C:\Users\jcjco\AppData\Local\Temp\ccZs88zN.s 			page 39


 1438              	.LVL94:
 138:vasynth.cpp   **** 		eg_f_[i].SetTime(ADSR_SEG_DECAY, eg_f_decay_);
 1439              		.loc 1 138 3 discriminator 2 view .LVU480
 1440 006e 05F5C070 		add	r0, r5, #384
 138:vasynth.cpp   **** 		eg_f_[i].SetTime(ADSR_SEG_DECAY, eg_f_decay_);
 1441              		.loc 1 138 19 is_stmt 0 discriminator 2 view .LVU481
 1442 0072 94ED0D0A 		vldr.32	s0, [r4, #52]
 1443 0076 0121     		movs	r1, #1
 1444 0078 0190     		str	r0, [sp, #4]
 1445 007a FFF7FEFF 		bl	_ZN7daisysp4Adsr7SetTimeEif
 1446              	.LVL95:
 139:vasynth.cpp   **** 		eg_f_[i].SetTime(ADSR_SEG_RELEASE, eg_f_release_);
 1447              		.loc 1 139 3 is_stmt 1 discriminator 2 view .LVU482
 139:vasynth.cpp   **** 		eg_f_[i].SetTime(ADSR_SEG_RELEASE, eg_f_release_);
 1448              		.loc 1 139 19 is_stmt 0 discriminator 2 view .LVU483
 1449 007e 94ED0E0A 		vldr.32	s0, [r4, #56]
 1450 0082 0221     		movs	r1, #2
 1451 0084 0198     		ldr	r0, [sp, #4]
 1452 0086 FFF7FEFF 		bl	_ZN7daisysp4Adsr7SetTimeEif
 1453              	.LVL96:
 140:vasynth.cpp   **** 		eg_f_[i].SetSustainLevel(eg_f_sustain_);
 1454              		.loc 1 140 3 is_stmt 1 discriminator 2 view .LVU484
 140:vasynth.cpp   **** 		eg_f_[i].SetSustainLevel(eg_f_sustain_);
 1455              		.loc 1 140 19 is_stmt 0 discriminator 2 view .LVU485
 1456 008a 94ED100A 		vldr.32	s0, [r4, #64]
 1457 008e 0198     		ldr	r0, [sp, #4]
 1458 0090 0421     		movs	r1, #4
 1459 0092 FFF7FEFF 		bl	_ZN7daisysp4Adsr7SetTimeEif
 1460              	.LVL97:
 141:vasynth.cpp   **** 
 1461              		.loc 1 141 3 is_stmt 1 discriminator 2 view .LVU486
 141:vasynth.cpp   **** 
 1462              		.loc 1 141 27 is_stmt 0 discriminator 2 view .LVU487
 1463 0096 D4ED0F7A 		vldr.32	s15, [r4, #60]
 1464              	.LVL98:
 1465              	.LBB387:
 1466              	.LBI378:
  66:../../DaisySP/Source/Control/adsr.h ****     {
 1467              		.loc 2 66 17 is_stmt 1 discriminator 2 view .LVU488
 1468              	.LBB380:
  68:../../DaisySP/Source/Control/adsr.h ****                                        : (sus_level > 1.f) ? 1.f : sus_level;
 1469              		.loc 2 68 9 discriminator 2 view .LVU489
  69:../../DaisySP/Source/Control/adsr.h ****         sus_level_ = sus_level;
 1470              		.loc 2 69 60 is_stmt 0 discriminator 2 view .LVU490
 1471 009a B7EE007A 		vmov.f32	s14, #1.0e+0
  68:../../DaisySP/Source/Control/adsr.h ****                                        : (sus_level > 1.f) ? 1.f : sus_level;
 1472              		.loc 2 68 40 discriminator 2 view .LVU491
 1473 009e F5EEC07A 		vcmpe.f32	s15, #0
 1474 00a2 F1EE10FA 		vmrs	APSR_nzcv, FPSCR
 1475 00a6 B3D8     		bhi	.L36
  68:../../DaisySP/Source/Control/adsr.h ****                                        : (sus_level > 1.f) ? 1.f : sus_level;
 1476              		.loc 2 68 40 view .LVU492
 1477 00a8 DFED067A 		vldr.32	s15, .L37
 1478              	.LVL99:
  68:../../DaisySP/Source/Control/adsr.h ****                                        : (sus_level > 1.f) ? 1.f : sus_level;
 1479              		.loc 2 68 40 view .LVU493
 1480 00ac B6E7     		b	.L26
ARM GAS  C:\Users\jcjco\AppData\Local\Temp\ccZs88zN.s 			page 40


 1481              	.LVL100:
 1482              	.L31:
  68:../../DaisySP/Source/Control/adsr.h ****                                        : (sus_level > 1.f) ? 1.f : sus_level;
 1483              		.loc 2 68 40 view .LVU494
 1484              	.LBE380:
 1485              	.LBE387:
 1486              	.LBB388:
 1487              	.LBB384:
 1488              		.loc 2 70 20 view .LVU495
 1489 00ae 2B46     		mov	r3, r5
 1490 00b0 3035     		adds	r5, r5, #48
 1491              	.LVL101:
  68:../../DaisySP/Source/Control/adsr.h ****                                        : (sus_level > 1.f) ? 1.f : sus_level;
 1492              		.loc 2 68 40 view .LVU496
 1493 00b2 DFED047A 		vldr.32	s15, .L37
 1494              	.LVL102:
 1495              		.loc 2 70 9 is_stmt 1 view .LVU497
 1496              	.LBE384:
 1497              	.LBE388:
 135:vasynth.cpp   **** 	{
 1498              		.loc 1 135 24 is_stmt 0 view .LVU498
 1499 00b6 B542     		cmp	r5, r6
 1500              	.LBB389:
 1501              	.LBB385:
 1502              		.loc 2 70 20 view .LVU499
 1503 00b8 C3ED007A 		vstr.32	s15, [r3]
 1504              	.LVL103:
 1505              		.loc 2 70 20 view .LVU500
 1506              	.LBE385:
 1507              	.LBE389:
 135:vasynth.cpp   **** 	{
 1508              		.loc 1 135 2 is_stmt 1 view .LVU501
 135:vasynth.cpp   **** 	{
 1509              		.loc 1 135 24 view .LVU502
 1510 00bc D7D1     		bne	.L28
 1511              	.L35:
 135:vasynth.cpp   **** 	{
 1512              		.loc 1 135 24 is_stmt 0 view .LVU503
 1513              	.LBE390:
 148:vasynth.cpp   **** 	}
 149:vasynth.cpp   **** }
 1514              		.loc 1 149 1 view .LVU504
 1515 00be 02B0     		add	sp, sp, #8
 1516              		.cfi_def_cfa_offset 16
 1517              		@ sp needed
 1518 00c0 70BD     		pop	{r4, r5, r6, pc}
 1519              	.LVL104:
 1520              	.L38:
 1521              		.loc 1 149 1 view .LVU505
 1522 00c2 00BF     		.align	2
 1523              	.L37:
 1524 00c4 0AD723BC 		.word	-1138501878
 1525              		.cfi_endproc
 1526              	.LFE4795:
 1528              		.section	.text._ZN7VASynth9SetFilterEv,"ax",%progbits
 1529              		.align	1
 1530              		.p2align 2,,3
ARM GAS  C:\Users\jcjco\AppData\Local\Temp\ccZs88zN.s 			page 41


 1531              		.global	_ZN7VASynth9SetFilterEv
 1532              		.syntax unified
 1533              		.thumb
 1534              		.thumb_func
 1535              		.fpu fpv5-d16
 1537              	_ZN7VASynth9SetFilterEv:
 1538              	.LVL105:
 1539              	.LFB4796:
 150:vasynth.cpp   **** 
 151:vasynth.cpp   **** void VASynth::SetFilter()
 152:vasynth.cpp   **** {
 1540              		.loc 1 152 1 is_stmt 1 view -0
 1541              		.cfi_startproc
 1542              		@ args = 0, pretend = 0, frame = 0
 1543              		@ frame_needed = 0, uses_anonymous_args = 0
 153:vasynth.cpp   **** 	for (uint8_t i = 0; i < VOICES_MAX; i++)
 1544              		.loc 1 153 2 view .LVU507
 1545              	.LBB391:
 1546              		.loc 1 153 24 view .LVU508
 1547              	.LBE391:
 152:vasynth.cpp   **** 	for (uint8_t i = 0; i < VOICES_MAX; i++)
 1548              		.loc 1 152 1 is_stmt 0 view .LVU509
 1549 0000 70B5     		push	{r4, r5, r6, lr}
 1550              		.cfi_def_cfa_offset 16
 1551              		.cfi_offset 4, -16
 1552              		.cfi_offset 5, -12
 1553              		.cfi_offset 6, -8
 1554              		.cfi_offset 14, -4
 152:vasynth.cpp   **** 	for (uint8_t i = 0; i < VOICES_MAX; i++)
 1555              		.loc 1 152 1 view .LVU510
 1556 0002 0546     		mov	r5, r0
 1557 0004 00F2D474 		addw	r4, r0, #2004
 1558 0008 00F63426 		addw	r6, r0, #2612
 1559              	.LVL106:
 1560              	.L40:
 1561              	.LBB392:
 154:vasynth.cpp   **** 	{
 155:vasynth.cpp   **** 		flt[i].SetFreq(filter_cutoff_);
 1562              		.loc 1 155 3 is_stmt 1 discriminator 2 view .LVU511
 1563              		.loc 1 155 17 is_stmt 0 discriminator 2 view .LVU512
 1564 000c 2046     		mov	r0, r4
 1565 000e 95ED200A 		vldr.32	s0, [r5, #128]
 1566 0012 FFF7FEFF 		bl	_ZN10infrasonic10MoogLadder7SetFreqEf
 1567              	.LVL107:
 156:vasynth.cpp   **** 		flt[i].SetRes(filter_res_);
 1568              		.loc 1 156 3 is_stmt 1 discriminator 2 view .LVU513
 1569              		.loc 1 156 16 is_stmt 0 discriminator 2 view .LVU514
 1570 0016 2046     		mov	r0, r4
 153:vasynth.cpp   **** 	{
 1571              		.loc 1 153 24 discriminator 2 view .LVU515
 1572 0018 4C34     		adds	r4, r4, #76
 1573              	.LVL108:
 1574              		.loc 1 156 16 discriminator 2 view .LVU516
 1575 001a 95ED1F0A 		vldr.32	s0, [r5, #124]
 1576 001e FFF7FEFF 		bl	_ZN10infrasonic10MoogLadder6SetResEf
 1577              	.LVL109:
 153:vasynth.cpp   **** 	{
ARM GAS  C:\Users\jcjco\AppData\Local\Temp\ccZs88zN.s 			page 42


 1578              		.loc 1 153 2 is_stmt 1 discriminator 2 view .LVU517
 153:vasynth.cpp   **** 	{
 1579              		.loc 1 153 24 discriminator 2 view .LVU518
 1580 0022 B442     		cmp	r4, r6
 1581 0024 F2D1     		bne	.L40
 1582              	.LBE392:
 157:vasynth.cpp   **** 	}
 158:vasynth.cpp   **** }
 1583              		.loc 1 158 1 is_stmt 0 view .LVU519
 1584 0026 70BD     		pop	{r4, r5, r6, pc}
 1585              		.loc 1 158 1 view .LVU520
 1586              		.cfi_endproc
 1587              	.LFE4796:
 1589              		.section	.text._ZN7VASynth6SetLFOEv,"ax",%progbits
 1590              		.align	1
 1591              		.p2align 2,,3
 1592              		.global	_ZN7VASynth6SetLFOEv
 1593              		.syntax unified
 1594              		.thumb
 1595              		.thumb_func
 1596              		.fpu fpv5-d16
 1598              	_ZN7VASynth6SetLFOEv:
 1599              	.LVL110:
 1600              	.LFB4797:
 159:vasynth.cpp   **** 
 160:vasynth.cpp   **** void VASynth::SetLFO()
 161:vasynth.cpp   **** {
 1601              		.loc 1 161 1 is_stmt 1 view -0
 1602              		.cfi_startproc
 1603              		@ args = 0, pretend = 0, frame = 0
 1604              		@ frame_needed = 0, uses_anonymous_args = 0
 162:vasynth.cpp   **** 	lfo_.SetWaveform(lfo_waveform_);
 1605              		.loc 1 162 2 view .LVU522
 161:vasynth.cpp   **** 	lfo_.SetWaveform(lfo_waveform_);
 1606              		.loc 1 161 1 is_stmt 0 view .LVU523
 1607 0000 38B5     		push	{r3, r4, r5, lr}
 1608              		.cfi_def_cfa_offset 16
 1609              		.cfi_offset 3, -16
 1610              		.cfi_offset 4, -12
 1611              		.cfi_offset 5, -8
 1612              		.cfi_offset 14, -4
 163:vasynth.cpp   **** 	lfo_.SetFreq(lfo_freq_ * 8.0f);
 1613              		.loc 1 163 14 view .LVU524
 1614 0002 F2EE007A 		vmov.f32	s15, #8.0e+0
 162:vasynth.cpp   **** 	lfo_.SetWaveform(lfo_waveform_);
 1615              		.loc 1 162 18 view .LVU525
 1616 0006 90F84430 		ldrb	r3, [r0, #68]	@ zero_extendqisi2
 1617              		.loc 1 163 14 view .LVU526
 1618 000a 90ED120A 		vldr.32	s0, [r0, #72]
 1619              	.LBB393:
 1620              	.LBB394:
  62:../../DaisySP/Source/Synthesis/oscillator.h ****         phase_inc_ = CalcPhaseInc(f);
 1621              		.loc 3 62 20 view .LVU527
 1622 000e 00F21445 		addw	r5, r0, #1044
 1623              	.LBE394:
 1624              	.LBE393:
 1625              	.LBB397:
ARM GAS  C:\Users\jcjco\AppData\Local\Temp\ccZs88zN.s 			page 43


 1626              	.LBB398:
  74:../../DaisySP/Source/Synthesis/oscillator.h ****     }
 1627              		.loc 3 74 19 view .LVU528
 1628 0012 082B     		cmp	r3, #8
 1629              	.LBE398:
 1630              	.LBE397:
 161:vasynth.cpp   **** 	lfo_.SetWaveform(lfo_waveform_);
 1631              		.loc 1 161 1 view .LVU529
 1632 0014 0446     		mov	r4, r0
 1633              	.LVL111:
 1634              	.LBB401:
 1635              	.LBI397:
  72:../../DaisySP/Source/Synthesis/oscillator.h ****     {
 1636              		.loc 3 72 17 is_stmt 1 view .LVU530
 1637              	.LBB399:
  74:../../DaisySP/Source/Synthesis/oscillator.h ****     }
 1638              		.loc 3 74 9 view .LVU531
 1639              	.LBE399:
 1640              	.LBE401:
 1641              		.loc 1 163 14 is_stmt 0 view .LVU532
 1642 0016 20EE270A 		vmul.f32	s0, s0, s15
 1643              	.LBB402:
 1644              	.LBB395:
  63:../../DaisySP/Source/Synthesis/oscillator.h ****     }
 1645              		.loc 3 63 34 view .LVU533
 1646 001a 2846     		mov	r0, r5
 1647              	.LVL112:
  63:../../DaisySP/Source/Synthesis/oscillator.h ****     }
 1648              		.loc 3 63 34 view .LVU534
 1649              	.LBE395:
 1650              	.LBE402:
 1651              	.LBB403:
 1652              	.LBB400:
  74:../../DaisySP/Source/Synthesis/oscillator.h ****     }
 1653              		.loc 3 74 19 view .LVU535
 1654 001c 28BF     		it	cs
 1655 001e 0023     		movcs	r3, #0
 1656              	.LVL113:
  74:../../DaisySP/Source/Synthesis/oscillator.h ****     }
 1657              		.loc 3 74 19 view .LVU536
 1658 0020 84F81434 		strb	r3, [r4, #1044]
 1659              	.LVL114:
  74:../../DaisySP/Source/Synthesis/oscillator.h ****     }
 1660              		.loc 3 74 19 view .LVU537
 1661              	.LBE400:
 1662              	.LBE403:
 1663              		.loc 1 163 2 is_stmt 1 view .LVU538
 1664              	.LBB404:
 1665              	.LBI393:
  60:../../DaisySP/Source/Synthesis/oscillator.h ****     {
 1666              		.loc 3 60 17 view .LVU539
 1667              	.LBB396:
  62:../../DaisySP/Source/Synthesis/oscillator.h ****         phase_inc_ = CalcPhaseInc(f);
 1668              		.loc 3 62 9 view .LVU540
  62:../../DaisySP/Source/Synthesis/oscillator.h ****         phase_inc_ = CalcPhaseInc(f);
 1669              		.loc 3 62 20 is_stmt 0 view .LVU541
 1670 0024 85ED020A 		vstr.32	s0, [r5, #8]
ARM GAS  C:\Users\jcjco\AppData\Local\Temp\ccZs88zN.s 			page 44


  63:../../DaisySP/Source/Synthesis/oscillator.h ****     }
 1671              		.loc 3 63 9 is_stmt 1 view .LVU542
  63:../../DaisySP/Source/Synthesis/oscillator.h ****     }
 1672              		.loc 3 63 34 is_stmt 0 view .LVU543
 1673 0028 FFF7FEFF 		bl	_ZN7daisysp10Oscillator12CalcPhaseIncEf
 1674              	.LVL115:
  63:../../DaisySP/Source/Synthesis/oscillator.h ****     }
 1675              		.loc 3 63 20 view .LVU544
 1676 002c 85ED080A 		vstr.32	s0, [r5, #32]
 1677              	.LVL116:
  63:../../DaisySP/Source/Synthesis/oscillator.h ****     }
 1678              		.loc 3 63 20 view .LVU545
 1679              	.LBE396:
 1680              	.LBE404:
 164:vasynth.cpp   **** 	lfo_.SetAmp(lfo_amp_);
 1681              		.loc 1 164 2 is_stmt 1 view .LVU546
 1682              	.LBB405:
 1683              	.LBI405:
  69:../../DaisySP/Source/Synthesis/oscillator.h ****     /** Sets the waveform to be synthesized by the Process() function.
 1684              		.loc 3 69 17 view .LVU547
 1685              	.LBB406:
  69:../../DaisySP/Source/Synthesis/oscillator.h ****     /** Sets the waveform to be synthesized by the Process() function.
 1686              		.loc 3 69 41 view .LVU548
  69:../../DaisySP/Source/Synthesis/oscillator.h ****     /** Sets the waveform to be synthesized by the Process() function.
 1687              		.loc 3 69 46 is_stmt 0 view .LVU549
 1688 0030 E36C     		ldr	r3, [r4, #76]	@ float
 1689 0032 6B60     		str	r3, [r5, #4]	@ float
 1690              	.LVL117:
  69:../../DaisySP/Source/Synthesis/oscillator.h ****     /** Sets the waveform to be synthesized by the Process() function.
 1691              		.loc 3 69 46 view .LVU550
 1692              	.LBE406:
 1693              	.LBE405:
 165:vasynth.cpp   **** }
 1694              		.loc 1 165 1 view .LVU551
 1695 0034 38BD     		pop	{r3, r4, r5, pc}
 1696              		.loc 1 165 1 view .LVU552
 1697              		.cfi_endproc
 1698              	.LFE4797:
 1700 0036 00BF     		.section	.text._ZN7VASynth9SetPWMLFOEv,"ax",%progbits
 1701              		.align	1
 1702              		.p2align 2,,3
 1703              		.global	_ZN7VASynth9SetPWMLFOEv
 1704              		.syntax unified
 1705              		.thumb
 1706              		.thumb_func
 1707              		.fpu fpv5-d16
 1709              	_ZN7VASynth9SetPWMLFOEv:
 1710              	.LVL118:
 1711              	.LFB4798:
 166:vasynth.cpp   **** 
 167:vasynth.cpp   **** void VASynth::SetPWMLFO()
 168:vasynth.cpp   **** {
 1712              		.loc 1 168 1 is_stmt 1 view -0
 1713              		.cfi_startproc
 1714              		@ args = 0, pretend = 0, frame = 0
 1715              		@ frame_needed = 0, uses_anonymous_args = 0
 169:vasynth.cpp   **** 	pwmlfo_.SetWaveform(pwmlfo_waveform_);
ARM GAS  C:\Users\jcjco\AppData\Local\Temp\ccZs88zN.s 			page 45


 1716              		.loc 1 169 2 view .LVU554
 168:vasynth.cpp   **** 	pwmlfo_.SetWaveform(pwmlfo_waveform_);
 1717              		.loc 1 168 1 is_stmt 0 view .LVU555
 1718 0000 38B5     		push	{r3, r4, r5, lr}
 1719              		.cfi_def_cfa_offset 16
 1720              		.cfi_offset 3, -16
 1721              		.cfi_offset 4, -12
 1722              		.cfi_offset 5, -8
 1723              		.cfi_offset 14, -4
 1724              		.loc 1 169 21 view .LVU556
 1725 0002 90F85030 		ldrb	r3, [r0, #80]	@ zero_extendqisi2
 1726              	.LBB407:
 1727              	.LBB408:
  62:../../DaisySP/Source/Synthesis/oscillator.h ****         phase_inc_ = CalcPhaseInc(f);
 1728              		.loc 3 62 20 view .LVU557
 1729 0006 00F24445 		addw	r5, r0, #1092
 1730              	.LBE408:
 1731              	.LBE407:
 170:vasynth.cpp   **** 	pwmlfo_.SetFreq(pwmlfo_freq_);
 1732              		.loc 1 170 17 view .LVU558
 1733 000a 90ED150A 		vldr.32	s0, [r0, #84]
 168:vasynth.cpp   **** 	pwmlfo_.SetWaveform(pwmlfo_waveform_);
 1734              		.loc 1 168 1 view .LVU559
 1735 000e 0446     		mov	r4, r0
 1736              	.LVL119:
 1737              	.LBB411:
 1738              	.LBI411:
  72:../../DaisySP/Source/Synthesis/oscillator.h ****     {
 1739              		.loc 3 72 17 is_stmt 1 view .LVU560
 1740              	.LBB412:
  74:../../DaisySP/Source/Synthesis/oscillator.h ****     }
 1741              		.loc 3 74 9 view .LVU561
  74:../../DaisySP/Source/Synthesis/oscillator.h ****     }
 1742              		.loc 3 74 19 is_stmt 0 view .LVU562
 1743 0010 082B     		cmp	r3, #8
 1744              	.LBE412:
 1745              	.LBE411:
 1746              	.LBB414:
 1747              	.LBB409:
  63:../../DaisySP/Source/Synthesis/oscillator.h ****     }
 1748              		.loc 3 63 34 view .LVU563
 1749 0012 2846     		mov	r0, r5
 1750              	.LVL120:
  63:../../DaisySP/Source/Synthesis/oscillator.h ****     }
 1751              		.loc 3 63 34 view .LVU564
 1752              	.LBE409:
 1753              	.LBE414:
 1754              	.LBB415:
 1755              	.LBB413:
  74:../../DaisySP/Source/Synthesis/oscillator.h ****     }
 1756              		.loc 3 74 19 view .LVU565
 1757 0014 28BF     		it	cs
 1758 0016 0023     		movcs	r3, #0
 1759              	.LVL121:
  74:../../DaisySP/Source/Synthesis/oscillator.h ****     }
 1760              		.loc 3 74 19 view .LVU566
 1761 0018 84F84434 		strb	r3, [r4, #1092]
ARM GAS  C:\Users\jcjco\AppData\Local\Temp\ccZs88zN.s 			page 46


 1762              	.LVL122:
  74:../../DaisySP/Source/Synthesis/oscillator.h ****     }
 1763              		.loc 3 74 19 view .LVU567
 1764              	.LBE413:
 1765              	.LBE415:
 1766              		.loc 1 170 2 is_stmt 1 view .LVU568
 1767              	.LBB416:
 1768              	.LBI407:
  60:../../DaisySP/Source/Synthesis/oscillator.h ****     {
 1769              		.loc 3 60 17 view .LVU569
 1770              	.LBB410:
  62:../../DaisySP/Source/Synthesis/oscillator.h ****         phase_inc_ = CalcPhaseInc(f);
 1771              		.loc 3 62 9 view .LVU570
  62:../../DaisySP/Source/Synthesis/oscillator.h ****         phase_inc_ = CalcPhaseInc(f);
 1772              		.loc 3 62 20 is_stmt 0 view .LVU571
 1773 001c 85ED020A 		vstr.32	s0, [r5, #8]
  63:../../DaisySP/Source/Synthesis/oscillator.h ****     }
 1774              		.loc 3 63 9 is_stmt 1 view .LVU572
  63:../../DaisySP/Source/Synthesis/oscillator.h ****     }
 1775              		.loc 3 63 34 is_stmt 0 view .LVU573
 1776 0020 FFF7FEFF 		bl	_ZN7daisysp10Oscillator12CalcPhaseIncEf
 1777              	.LVL123:
  63:../../DaisySP/Source/Synthesis/oscillator.h ****     }
 1778              		.loc 3 63 20 view .LVU574
 1779 0024 85ED080A 		vstr.32	s0, [r5, #32]
 1780              	.LVL124:
  63:../../DaisySP/Source/Synthesis/oscillator.h ****     }
 1781              		.loc 3 63 20 view .LVU575
 1782              	.LBE410:
 1783              	.LBE416:
 171:vasynth.cpp   **** 	pwmlfo_.SetAmp(pwmlfo_amp_);
 1784              		.loc 1 171 2 is_stmt 1 view .LVU576
 1785              	.LBB417:
 1786              	.LBI417:
  69:../../DaisySP/Source/Synthesis/oscillator.h ****     /** Sets the waveform to be synthesized by the Process() function.
 1787              		.loc 3 69 17 view .LVU577
 1788              	.LBB418:
  69:../../DaisySP/Source/Synthesis/oscillator.h ****     /** Sets the waveform to be synthesized by the Process() function.
 1789              		.loc 3 69 41 view .LVU578
  69:../../DaisySP/Source/Synthesis/oscillator.h ****     /** Sets the waveform to be synthesized by the Process() function.
 1790              		.loc 3 69 46 is_stmt 0 view .LVU579
 1791 0028 A36D     		ldr	r3, [r4, #88]	@ float
 1792 002a 6B60     		str	r3, [r5, #4]	@ float
 1793              	.LVL125:
  69:../../DaisySP/Source/Synthesis/oscillator.h ****     /** Sets the waveform to be synthesized by the Process() function.
 1794              		.loc 3 69 46 view .LVU580
 1795              	.LBE418:
 1796              	.LBE417:
 172:vasynth.cpp   **** }
 1797              		.loc 1 172 1 view .LVU581
 1798 002c 38BD     		pop	{r3, r4, r5, pc}
 1799              		.loc 1 172 1 view .LVU582
 1800              		.cfi_endproc
 1801              	.LFE4798:
 1803 002e 00BF     		.section	.text._ZN7VASynth10SetPWM2LFOEv,"ax",%progbits
 1804              		.align	1
 1805              		.p2align 2,,3
ARM GAS  C:\Users\jcjco\AppData\Local\Temp\ccZs88zN.s 			page 47


 1806              		.global	_ZN7VASynth10SetPWM2LFOEv
 1807              		.syntax unified
 1808              		.thumb
 1809              		.thumb_func
 1810              		.fpu fpv5-d16
 1812              	_ZN7VASynth10SetPWM2LFOEv:
 1813              	.LVL126:
 1814              	.LFB4799:
 173:vasynth.cpp   **** 
 174:vasynth.cpp   **** void VASynth::SetPWM2LFO()
 175:vasynth.cpp   **** {
 1815              		.loc 1 175 1 is_stmt 1 view -0
 1816              		.cfi_startproc
 1817              		@ args = 0, pretend = 0, frame = 0
 1818              		@ frame_needed = 0, uses_anonymous_args = 0
 176:vasynth.cpp   **** 	pwm2lfo_.SetWaveform(pwm2lfo_waveform_);
 1819              		.loc 1 176 2 view .LVU584
 175:vasynth.cpp   **** 	pwm2lfo_.SetWaveform(pwm2lfo_waveform_);
 1820              		.loc 1 175 1 is_stmt 0 view .LVU585
 1821 0000 38B5     		push	{r3, r4, r5, lr}
 1822              		.cfi_def_cfa_offset 16
 1823              		.cfi_offset 3, -16
 1824              		.cfi_offset 4, -12
 1825              		.cfi_offset 5, -8
 1826              		.cfi_offset 14, -4
 1827              		.loc 1 176 22 view .LVU586
 1828 0002 90F85C30 		ldrb	r3, [r0, #92]	@ zero_extendqisi2
 1829              	.LBB419:
 1830              	.LBB420:
  62:../../DaisySP/Source/Synthesis/oscillator.h ****         phase_inc_ = CalcPhaseInc(f);
 1831              		.loc 3 62 20 view .LVU587
 1832 0006 00F27445 		addw	r5, r0, #1140
 1833              	.LBE420:
 1834              	.LBE419:
 177:vasynth.cpp   **** 	pwm2lfo_.SetFreq(pwm2lfo_freq_);
 1835              		.loc 1 177 18 view .LVU588
 1836 000a 90ED180A 		vldr.32	s0, [r0, #96]
 175:vasynth.cpp   **** 	pwm2lfo_.SetWaveform(pwm2lfo_waveform_);
 1837              		.loc 1 175 1 view .LVU589
 1838 000e 0446     		mov	r4, r0
 1839              	.LVL127:
 1840              	.LBB423:
 1841              	.LBI423:
  72:../../DaisySP/Source/Synthesis/oscillator.h ****     {
 1842              		.loc 3 72 17 is_stmt 1 view .LVU590
 1843              	.LBB424:
  74:../../DaisySP/Source/Synthesis/oscillator.h ****     }
 1844              		.loc 3 74 9 view .LVU591
  74:../../DaisySP/Source/Synthesis/oscillator.h ****     }
 1845              		.loc 3 74 19 is_stmt 0 view .LVU592
 1846 0010 082B     		cmp	r3, #8
 1847              	.LBE424:
 1848              	.LBE423:
 1849              	.LBB426:
 1850              	.LBB421:
  63:../../DaisySP/Source/Synthesis/oscillator.h ****     }
 1851              		.loc 3 63 34 view .LVU593
ARM GAS  C:\Users\jcjco\AppData\Local\Temp\ccZs88zN.s 			page 48


 1852 0012 2846     		mov	r0, r5
 1853              	.LVL128:
  63:../../DaisySP/Source/Synthesis/oscillator.h ****     }
 1854              		.loc 3 63 34 view .LVU594
 1855              	.LBE421:
 1856              	.LBE426:
 1857              	.LBB427:
 1858              	.LBB425:
  74:../../DaisySP/Source/Synthesis/oscillator.h ****     }
 1859              		.loc 3 74 19 view .LVU595
 1860 0014 28BF     		it	cs
 1861 0016 0023     		movcs	r3, #0
 1862              	.LVL129:
  74:../../DaisySP/Source/Synthesis/oscillator.h ****     }
 1863              		.loc 3 74 19 view .LVU596
 1864 0018 84F87434 		strb	r3, [r4, #1140]
 1865              	.LVL130:
  74:../../DaisySP/Source/Synthesis/oscillator.h ****     }
 1866              		.loc 3 74 19 view .LVU597
 1867              	.LBE425:
 1868              	.LBE427:
 1869              		.loc 1 177 2 is_stmt 1 view .LVU598
 1870              	.LBB428:
 1871              	.LBI419:
  60:../../DaisySP/Source/Synthesis/oscillator.h ****     {
 1872              		.loc 3 60 17 view .LVU599
 1873              	.LBB422:
  62:../../DaisySP/Source/Synthesis/oscillator.h ****         phase_inc_ = CalcPhaseInc(f);
 1874              		.loc 3 62 9 view .LVU600
  62:../../DaisySP/Source/Synthesis/oscillator.h ****         phase_inc_ = CalcPhaseInc(f);
 1875              		.loc 3 62 20 is_stmt 0 view .LVU601
 1876 001c 85ED020A 		vstr.32	s0, [r5, #8]
  63:../../DaisySP/Source/Synthesis/oscillator.h ****     }
 1877              		.loc 3 63 9 is_stmt 1 view .LVU602
  63:../../DaisySP/Source/Synthesis/oscillator.h ****     }
 1878              		.loc 3 63 34 is_stmt 0 view .LVU603
 1879 0020 FFF7FEFF 		bl	_ZN7daisysp10Oscillator12CalcPhaseIncEf
 1880              	.LVL131:
  63:../../DaisySP/Source/Synthesis/oscillator.h ****     }
 1881              		.loc 3 63 20 view .LVU604
 1882 0024 85ED080A 		vstr.32	s0, [r5, #32]
 1883              	.LVL132:
  63:../../DaisySP/Source/Synthesis/oscillator.h ****     }
 1884              		.loc 3 63 20 view .LVU605
 1885              	.LBE422:
 1886              	.LBE428:
 178:vasynth.cpp   **** 	pwm2lfo_.SetAmp(pwm2lfo_amp_);
 1887              		.loc 1 178 2 is_stmt 1 view .LVU606
 1888              	.LBB429:
 1889              	.LBI429:
  69:../../DaisySP/Source/Synthesis/oscillator.h ****     /** Sets the waveform to be synthesized by the Process() function.
 1890              		.loc 3 69 17 view .LVU607
 1891              	.LBB430:
  69:../../DaisySP/Source/Synthesis/oscillator.h ****     /** Sets the waveform to be synthesized by the Process() function.
 1892              		.loc 3 69 41 view .LVU608
  69:../../DaisySP/Source/Synthesis/oscillator.h ****     /** Sets the waveform to be synthesized by the Process() function.
 1893              		.loc 3 69 46 is_stmt 0 view .LVU609
ARM GAS  C:\Users\jcjco\AppData\Local\Temp\ccZs88zN.s 			page 49


 1894 0028 636E     		ldr	r3, [r4, #100]	@ float
 1895 002a 6B60     		str	r3, [r5, #4]	@ float
 1896              	.LVL133:
  69:../../DaisySP/Source/Synthesis/oscillator.h ****     /** Sets the waveform to be synthesized by the Process() function.
 1897              		.loc 3 69 46 view .LVU610
 1898              	.LBE430:
 1899              	.LBE429:
 179:vasynth.cpp   **** }
 1900              		.loc 1 179 1 view .LVU611
 1901 002c 38BD     		pop	{r3, r4, r5, pc}
 1902              		.loc 1 179 1 view .LVU612
 1903              		.cfi_endproc
 1904              	.LFE4799:
 1906 002e 00BF     		.section	.text._ZN7VASynth12SetVCAVCFLFOEv,"ax",%progbits
 1907              		.align	1
 1908              		.p2align 2,,3
 1909              		.global	_ZN7VASynth12SetVCAVCFLFOEv
 1910              		.syntax unified
 1911              		.thumb
 1912              		.thumb_func
 1913              		.fpu fpv5-d16
 1915              	_ZN7VASynth12SetVCAVCFLFOEv:
 1916              	.LVL134:
 1917              	.LFB4800:
 180:vasynth.cpp   **** 
 181:vasynth.cpp   **** void VASynth::SetVCAVCFLFO()
 182:vasynth.cpp   **** {
 1918              		.loc 1 182 1 is_stmt 1 view -0
 1919              		.cfi_startproc
 1920              		@ args = 0, pretend = 0, frame = 0
 1921              		@ frame_needed = 0, uses_anonymous_args = 0
 183:vasynth.cpp   **** 	vcavcflfo_.SetWaveform(vcavcflfo_waveform_);
 1922              		.loc 1 183 2 view .LVU614
 182:vasynth.cpp   **** 	vcavcflfo_.SetWaveform(vcavcflfo_waveform_);
 1923              		.loc 1 182 1 is_stmt 0 view .LVU615
 1924 0000 38B5     		push	{r3, r4, r5, lr}
 1925              		.cfi_def_cfa_offset 16
 1926              		.cfi_offset 3, -16
 1927              		.cfi_offset 4, -12
 1928              		.cfi_offset 5, -8
 1929              		.cfi_offset 14, -4
 184:vasynth.cpp   **** 	vcavcflfo_.SetFreq(vcavcflfo_freq_ * 8.0f);
 1930              		.loc 1 184 20 view .LVU616
 1931 0002 F2EE007A 		vmov.f32	s15, #8.0e+0
 183:vasynth.cpp   **** 	vcavcflfo_.SetWaveform(vcavcflfo_waveform_);
 1932              		.loc 1 183 24 view .LVU617
 1933 0006 90F86830 		ldrb	r3, [r0, #104]	@ zero_extendqisi2
 1934              		.loc 1 184 20 view .LVU618
 1935 000a 90ED1B0A 		vldr.32	s0, [r0, #108]
 1936              	.LBB431:
 1937              	.LBB432:
  62:../../DaisySP/Source/Synthesis/oscillator.h ****         phase_inc_ = CalcPhaseInc(f);
 1938              		.loc 3 62 20 view .LVU619
 1939 000e 00F2A445 		addw	r5, r0, #1188
 1940              	.LBE432:
 1941              	.LBE431:
 1942              	.LBB435:
ARM GAS  C:\Users\jcjco\AppData\Local\Temp\ccZs88zN.s 			page 50


 1943              	.LBB436:
  74:../../DaisySP/Source/Synthesis/oscillator.h ****     }
 1944              		.loc 3 74 19 view .LVU620
 1945 0012 082B     		cmp	r3, #8
 1946              	.LBE436:
 1947              	.LBE435:
 182:vasynth.cpp   **** 	vcavcflfo_.SetWaveform(vcavcflfo_waveform_);
 1948              		.loc 1 182 1 view .LVU621
 1949 0014 0446     		mov	r4, r0
 1950              	.LVL135:
 1951              	.LBB439:
 1952              	.LBI435:
  72:../../DaisySP/Source/Synthesis/oscillator.h ****     {
 1953              		.loc 3 72 17 is_stmt 1 view .LVU622
 1954              	.LBB437:
  74:../../DaisySP/Source/Synthesis/oscillator.h ****     }
 1955              		.loc 3 74 9 view .LVU623
 1956              	.LBE437:
 1957              	.LBE439:
 1958              		.loc 1 184 20 is_stmt 0 view .LVU624
 1959 0016 20EE270A 		vmul.f32	s0, s0, s15
 1960              	.LBB440:
 1961              	.LBB433:
  63:../../DaisySP/Source/Synthesis/oscillator.h ****     }
 1962              		.loc 3 63 34 view .LVU625
 1963 001a 2846     		mov	r0, r5
 1964              	.LVL136:
  63:../../DaisySP/Source/Synthesis/oscillator.h ****     }
 1965              		.loc 3 63 34 view .LVU626
 1966              	.LBE433:
 1967              	.LBE440:
 1968              	.LBB441:
 1969              	.LBB438:
  74:../../DaisySP/Source/Synthesis/oscillator.h ****     }
 1970              		.loc 3 74 19 view .LVU627
 1971 001c 28BF     		it	cs
 1972 001e 0023     		movcs	r3, #0
 1973              	.LVL137:
  74:../../DaisySP/Source/Synthesis/oscillator.h ****     }
 1974              		.loc 3 74 19 view .LVU628
 1975 0020 84F8A434 		strb	r3, [r4, #1188]
 1976              	.LVL138:
  74:../../DaisySP/Source/Synthesis/oscillator.h ****     }
 1977              		.loc 3 74 19 view .LVU629
 1978              	.LBE438:
 1979              	.LBE441:
 1980              		.loc 1 184 2 is_stmt 1 view .LVU630
 1981              	.LBB442:
 1982              	.LBI431:
  60:../../DaisySP/Source/Synthesis/oscillator.h ****     {
 1983              		.loc 3 60 17 view .LVU631
 1984              	.LBB434:
  62:../../DaisySP/Source/Synthesis/oscillator.h ****         phase_inc_ = CalcPhaseInc(f);
 1985              		.loc 3 62 9 view .LVU632
  62:../../DaisySP/Source/Synthesis/oscillator.h ****         phase_inc_ = CalcPhaseInc(f);
 1986              		.loc 3 62 20 is_stmt 0 view .LVU633
 1987 0024 85ED020A 		vstr.32	s0, [r5, #8]
ARM GAS  C:\Users\jcjco\AppData\Local\Temp\ccZs88zN.s 			page 51


  63:../../DaisySP/Source/Synthesis/oscillator.h ****     }
 1988              		.loc 3 63 9 is_stmt 1 view .LVU634
  63:../../DaisySP/Source/Synthesis/oscillator.h ****     }
 1989              		.loc 3 63 34 is_stmt 0 view .LVU635
 1990 0028 FFF7FEFF 		bl	_ZN7daisysp10Oscillator12CalcPhaseIncEf
 1991              	.LVL139:
  63:../../DaisySP/Source/Synthesis/oscillator.h ****     }
 1992              		.loc 3 63 20 view .LVU636
 1993 002c 85ED080A 		vstr.32	s0, [r5, #32]
 1994              	.LVL140:
  63:../../DaisySP/Source/Synthesis/oscillator.h ****     }
 1995              		.loc 3 63 20 view .LVU637
 1996              	.LBE434:
 1997              	.LBE442:
 185:vasynth.cpp   **** 	vcavcflfo_.SetAmp(vcavcflfo_amp_);
 1998              		.loc 1 185 2 is_stmt 1 view .LVU638
 1999              	.LBB443:
 2000              	.LBI443:
  69:../../DaisySP/Source/Synthesis/oscillator.h ****     /** Sets the waveform to be synthesized by the Process() function.
 2001              		.loc 3 69 17 view .LVU639
 2002              	.LBB444:
  69:../../DaisySP/Source/Synthesis/oscillator.h ****     /** Sets the waveform to be synthesized by the Process() function.
 2003              		.loc 3 69 41 view .LVU640
  69:../../DaisySP/Source/Synthesis/oscillator.h ****     /** Sets the waveform to be synthesized by the Process() function.
 2004              		.loc 3 69 46 is_stmt 0 view .LVU641
 2005 0030 236F     		ldr	r3, [r4, #112]	@ float
 2006 0032 6B60     		str	r3, [r5, #4]	@ float
 2007              	.LVL141:
  69:../../DaisySP/Source/Synthesis/oscillator.h ****     /** Sets the waveform to be synthesized by the Process() function.
 2008              		.loc 3 69 46 view .LVU642
 2009              	.LBE444:
 2010              	.LBE443:
 186:vasynth.cpp   **** }
 2011              		.loc 1 186 1 view .LVU643
 2012 0034 38BD     		pop	{r3, r4, r5, pc}
 2013              		.loc 1 186 1 view .LVU644
 2014              		.cfi_endproc
 2015              	.LFE4800:
 2017 0036 00BF     		.section	.text._ZN7VASynth7ProcessEPfS0_,"ax",%progbits
 2018              		.align	1
 2019              		.p2align 2,,3
 2020              		.global	_ZN7VASynth7ProcessEPfS0_
 2021              		.syntax unified
 2022              		.thumb
 2023              		.thumb_func
 2024              		.fpu fpv5-d16
 2026              	_ZN7VASynth7ProcessEPfS0_:
 2027              	.LVL142:
 2028              	.LFB4801:
 187:vasynth.cpp   **** 
 188:vasynth.cpp   **** void VASynth::Process(float *out_l, float *out_r)
 189:vasynth.cpp   **** {
 2029              		.loc 1 189 1 is_stmt 1 view -0
 2030              		.cfi_startproc
 2031              		@ args = 0, pretend = 0, frame = 16
 2032              		@ frame_needed = 0, uses_anonymous_args = 0
 190:vasynth.cpp   **** 	float lfo_out;
ARM GAS  C:\Users\jcjco\AppData\Local\Temp\ccZs88zN.s 			page 52


 2033              		.loc 1 190 2 view .LVU646
 191:vasynth.cpp   **** 	float pwmlfo_out;
 2034              		.loc 1 191 2 view .LVU647
 192:vasynth.cpp   **** 	float pwm2lfo_out;
 2035              		.loc 1 192 2 view .LVU648
 193:vasynth.cpp   **** 	float vcavcflfo_out;
 2036              		.loc 1 193 2 view .LVU649
 194:vasynth.cpp   **** 	float env_a_out;
 2037              		.loc 1 194 2 view .LVU650
 195:vasynth.cpp   **** 	float env_f_out;
 2038              		.loc 1 195 2 view .LVU651
 196:vasynth.cpp   **** 	float osc_one;
 2039              		.loc 1 196 2 view .LVU652
 197:vasynth.cpp   **** 	float osc_two;
 2040              		.loc 1 197 2 view .LVU653
 198:vasynth.cpp   **** 	float osc_out;
 2041              		.loc 1 198 2 view .LVU654
 199:vasynth.cpp   **** 	float filter_out;
 2042              		.loc 1 199 2 view .LVU655
 200:vasynth.cpp   **** 	float voice_out;
 2043              		.loc 1 200 2 view .LVU656
 201:vasynth.cpp   **** 	float delay_out;
 2044              		.loc 1 201 2 view .LVU657
 202:vasynth.cpp   **** 	float bender;
 2045              		.loc 1 202 2 view .LVU658
 203:vasynth.cpp   **** 	float tuning;
 2046              		.loc 1 203 2 view .LVU659
 204:vasynth.cpp   **** 	float pitchmod;
 2047              		.loc 1 204 2 view .LVU660
 205:vasynth.cpp   **** 	float detune;
 2048              		.loc 1 205 2 view .LVU661
 206:vasynth.cpp   **** 
 207:vasynth.cpp   **** 	bool note_on;
 2049              		.loc 1 207 2 view .LVU662
 208:vasynth.cpp   **** 
 209:vasynth.cpp   **** 	// Process mod, pwm, vca, and vcf lfo's
 210:vasynth.cpp   **** 	lfo_out = lfo_.Process();
 2050              		.loc 1 210 2 view .LVU663
 189:vasynth.cpp   **** 	float lfo_out;
 2051              		.loc 1 189 1 is_stmt 0 view .LVU664
 2052 0000 2DE9F04F 		push	{r4, r5, r6, r7, r8, r9, r10, fp, lr}
 2053              		.cfi_def_cfa_offset 36
 2054              		.cfi_offset 4, -36
 2055              		.cfi_offset 5, -32
 2056              		.cfi_offset 6, -28
 2057              		.cfi_offset 7, -24
 2058              		.cfi_offset 8, -20
 2059              		.cfi_offset 9, -16
 2060              		.cfi_offset 10, -12
 2061              		.cfi_offset 11, -8
 2062              		.cfi_offset 14, -4
 2063 0004 0446     		mov	r4, r0
 2064              		.loc 1 210 24 view .LVU665
 2065 0006 00F21440 		addw	r0, r0, #1044
 2066              	.LVL143:
 189:vasynth.cpp   **** 	float lfo_out;
 2067              		.loc 1 189 1 view .LVU666
ARM GAS  C:\Users\jcjco\AppData\Local\Temp\ccZs88zN.s 			page 53


 2068 000a 2DED0A8B 		vpush.64	{d8, d9, d10, d11, d12}
 2069              		.cfi_def_cfa_offset 76
 2070              		.cfi_offset 80, -76
 2071              		.cfi_offset 81, -72
 2072              		.cfi_offset 82, -68
 2073              		.cfi_offset 83, -64
 2074              		.cfi_offset 84, -60
 2075              		.cfi_offset 85, -56
 2076              		.cfi_offset 86, -52
 2077              		.cfi_offset 87, -48
 2078              		.cfi_offset 88, -44
 2079              		.cfi_offset 89, -40
 2080 000e 85B0     		sub	sp, sp, #20
 2081              		.cfi_def_cfa_offset 96
 211:vasynth.cpp   **** 	pwmlfo_out = pwmlfo_.Process();
 212:vasynth.cpp   **** 	pwm2lfo_out = pwm2lfo_.Process();
 213:vasynth.cpp   **** 	vcavcflfo_out = vcavcflfo_.Process();
 214:vasynth.cpp   **** 	
 215:vasynth.cpp   **** 	filter_out = 0;
 2082              		.loc 1 215 13 view .LVU667
 2083 0010 DFEDE48A 		vldr.32	s17, .L71
 2084 0014 04F18B07 		add	r7, r4, #139
 2085 0018 04F2D476 		addw	r6, r4, #2004
 2086 001c 04F1940A 		add	r10, r4, #148
 2087 0020 04F58A75 		add	r5, r4, #276
 189:vasynth.cpp   **** 	float lfo_out;
 2088              		.loc 1 189 1 view .LVU668
 2089 0024 CDE90212 		strd	r1, r2, [sp, #8]
 210:vasynth.cpp   **** 	pwmlfo_out = pwmlfo_.Process();
 2090              		.loc 1 210 24 view .LVU669
 2091 0028 FFF7FEFF 		bl	_ZN7daisysp10Oscillator7ProcessEv
 2092              	.LVL144:
 211:vasynth.cpp   **** 	pwmlfo_out = pwmlfo_.Process();
 2093              		.loc 1 211 30 view .LVU670
 2094 002c 04F24440 		addw	r0, r4, #1092
 210:vasynth.cpp   **** 	pwmlfo_out = pwmlfo_.Process();
 2095              		.loc 1 210 24 view .LVU671
 2096 0030 F0EE40AA 		vmov.f32	s21, s0
 2097              	.LVL145:
 211:vasynth.cpp   **** 	pwmlfo_out = pwmlfo_.Process();
 2098              		.loc 1 211 2 is_stmt 1 view .LVU672
 211:vasynth.cpp   **** 	pwmlfo_out = pwmlfo_.Process();
 2099              		.loc 1 211 30 is_stmt 0 view .LVU673
 2100 0034 FFF7FEFF 		bl	_ZN7daisysp10Oscillator7ProcessEv
 2101              	.LVL146:
 212:vasynth.cpp   **** 	vcavcflfo_out = vcavcflfo_.Process();
 2102              		.loc 1 212 32 view .LVU674
 2103 0038 04F27440 		addw	r0, r4, #1140
 211:vasynth.cpp   **** 	pwmlfo_out = pwmlfo_.Process();
 2104              		.loc 1 211 30 view .LVU675
 2105 003c B0EE40AA 		vmov.f32	s20, s0
 2106              	.LVL147:
 212:vasynth.cpp   **** 	vcavcflfo_out = vcavcflfo_.Process();
 2107              		.loc 1 212 2 is_stmt 1 view .LVU676
 212:vasynth.cpp   **** 	vcavcflfo_out = vcavcflfo_.Process();
 2108              		.loc 1 212 32 is_stmt 0 view .LVU677
 2109 0040 FFF7FEFF 		bl	_ZN7daisysp10Oscillator7ProcessEv
ARM GAS  C:\Users\jcjco\AppData\Local\Temp\ccZs88zN.s 			page 54


 2110              	.LVL148:
 213:vasynth.cpp   **** 	
 2111              		.loc 1 213 36 view .LVU678
 2112 0044 04F2A440 		addw	r0, r4, #1188
 212:vasynth.cpp   **** 	vcavcflfo_out = vcavcflfo_.Process();
 2113              		.loc 1 212 32 view .LVU679
 2114 0048 F0EE409A 		vmov.f32	s19, s0
 2115              	.LVL149:
 213:vasynth.cpp   **** 	
 2116              		.loc 1 213 2 is_stmt 1 view .LVU680
 213:vasynth.cpp   **** 	
 2117              		.loc 1 213 36 is_stmt 0 view .LVU681
 2118 004c FFF7FEFF 		bl	_ZN7daisysp10Oscillator7ProcessEv
 2119              	.LVL150:
 213:vasynth.cpp   **** 	
 2120              		.loc 1 213 36 view .LVU682
 2121 0050 04F19303 		add	r3, r4, #147
 2122 0054 B0EE409A 		vmov.f32	s18, s0
 2123              	.LVL151:
 2124              		.loc 1 215 2 is_stmt 1 view .LVU683
 216:vasynth.cpp   **** 
 217:vasynth.cpp   **** 	for (uint8_t i = 0; i < VOICES_MAX; i++)
 2125              		.loc 1 217 2 view .LVU684
 2126              	.LBB476:
 2127              		.loc 1 217 24 view .LVU685
 2128 0058 0193     		str	r3, [sp, #4]
 2129 005a 28E0     		b	.L63
 2130              	.LVL152:
 2131              	.L70:
 218:vasynth.cpp   **** 	{
 219:vasynth.cpp   **** 		note_on = (note_midi_[i] != 0);
 220:vasynth.cpp   **** 
 221:vasynth.cpp   **** 		// Calculate keyboard follow value for the VCF and ENV on active notes
 222:vasynth.cpp   **** 		if(note_on)
 223:vasynth.cpp   **** 		{
 224:vasynth.cpp   **** 			follow[i] = 1.0f - (float (note_midi_[i])/84.0f);	
 225:vasynth.cpp   **** 		}
 226:vasynth.cpp   **** 
 227:vasynth.cpp   **** 		if(env_kbd_follow_)
 228:vasynth.cpp   **** 		{
 229:vasynth.cpp   **** 			// Calculate envelope speeds for VCF and VCA based on ENV keyboard follow value
 230:vasynth.cpp   **** 			eg_f_[i].SetTime(ADSR_SEG_ATTACK, eg_f_attack_ * (1.0f - ((env_kbd_follow_ * (1.0f - follow[i]))
 231:vasynth.cpp   **** 			eg_f_[i].SetTime(ADSR_SEG_DECAY, eg_f_decay_ * (1.0f - ((env_kbd_follow_ * (1.0f - follow[i]))))
 232:vasynth.cpp   **** 			eg_f_[i].SetTime(ADSR_SEG_RELEASE, eg_f_release_ * (1.0f - ((env_kbd_follow_ * (1.0f - follow[i]
 233:vasynth.cpp   **** 			eg_a_[i].SetTime(ADSR_SEG_ATTACK, eg_a_attack_ * (1.0f - ((env_kbd_follow_ * (1.0f - follow[i]))
 234:vasynth.cpp   **** 			eg_a_[i].SetTime(ADSR_SEG_DECAY, eg_a_decay_ * (1.0f - ((env_kbd_follow_ * (1.0f - follow[i]))))
 235:vasynth.cpp   **** 			eg_a_[i].SetTime(ADSR_SEG_RELEASE, eg_a_release_ * (1.0f - ((env_kbd_follow_ * (1.0f - follow[i]
 236:vasynth.cpp   **** 		}
 237:vasynth.cpp   **** 		
 238:vasynth.cpp   **** 		// EG - AMP
 239:vasynth.cpp   **** 		env_a_out = eg_a_[i].Process(note_on);
 240:vasynth.cpp   **** 
 241:vasynth.cpp   **** 		if(vel_select_ >= 2)
 242:vasynth.cpp   **** 		{
 243:vasynth.cpp   **** 			// Enable velocity control of the VCA on osc
 244:vasynth.cpp   **** 			osc_[i].SetAmp(env_a_out * velocity[i] * (1.0f + vcavcflfo_out));
 245:vasynth.cpp   **** 		}
ARM GAS  C:\Users\jcjco\AppData\Local\Temp\ccZs88zN.s 			page 55


 246:vasynth.cpp   **** 		else
 247:vasynth.cpp   **** 		{
 248:vasynth.cpp   **** 			// Disable velocity control of the VCA on osc
 249:vasynth.cpp   **** 			osc_[i].SetAmp(env_a_out * (1.0f + vcavcflfo_out));
 250:vasynth.cpp   **** 		}
 251:vasynth.cpp   **** 
 252:vasynth.cpp   **** 		if(vel_select_ >= 2)
 253:vasynth.cpp   **** 		{
 254:vasynth.cpp   **** 			// Enable velocity control of the VCA on osc2
 255:vasynth.cpp   **** 			osc2_[i].SetAmp(env_a_out * velocity[i] * (1.0f + vcavcflfo_out));
 256:vasynth.cpp   **** 		}
 257:vasynth.cpp   **** 		else
 258:vasynth.cpp   **** 		{
 259:vasynth.cpp   **** 			// Disable velocity control of the VCA on osc2
 260:vasynth.cpp   **** 			osc2_[i].SetAmp(env_a_out * (1.0f + vcavcflfo_out));
 261:vasynth.cpp   **** 		}
 262:vasynth.cpp   **** 
 263:vasynth.cpp   **** 		// Set osc + osc2 frequencies with pitch bend, mod wheel, master tuning, and osc2 detune
 264:vasynth.cpp   **** 		tuning = bender_offset[i] * master_tune;
 265:vasynth.cpp   **** 		bender = bender_offset[i] * pitch_bend;
 266:vasynth.cpp   **** 		pitchmod = bender_offset[i] * lfo_out;
 267:vasynth.cpp   **** 		detune = bender_offset[i] * osc2_detune_;
 268:vasynth.cpp   **** 		osc_[i].SetFreq((note_freq_[i] + detune_ + bender + tuning + pitchmod));
 269:vasynth.cpp   **** 		osc2_[i].SetFreq((((note_freq_[i] * osc2_transpose_) + (bender * osc2_transpose_) + (tuning * osc
 270:vasynth.cpp   **** 
 271:vasynth.cpp   **** 		// Set the pw, process both oscillators, then mix them
 272:vasynth.cpp   **** 		osc_[i].SetPw(osc_pw_ + pwmlfo_out + pwm2lfo_out);
 273:vasynth.cpp   **** 		osc2_[i].SetPw(osc2_pw_ + pwmlfo_out + pwm2lfo_out);
 274:vasynth.cpp   **** 
 275:vasynth.cpp   **** 		osc_one = osc_[i].Process();
 276:vasynth.cpp   **** 		osc_two = osc2_[i].Process();
 277:vasynth.cpp   **** 
 278:vasynth.cpp   **** 		osc_out = (osc_one * (osc_mix_)) + ((osc_two * (1.0f - osc_mix_)));
 279:vasynth.cpp   **** 
 280:vasynth.cpp   **** 		// filter		
 281:vasynth.cpp   **** 		env_f_out = eg_f_[i].Process(note_on);
 282:vasynth.cpp   **** 
 283:vasynth.cpp   **** 		if(vel_select_ == 1 || vel_select_ == 3)
 284:vasynth.cpp   **** 		{
 285:vasynth.cpp   **** 			// Enable velocity control of the VCF summed with vcflfo and vcf_kbd_follow
 286:vasynth.cpp   **** 			flt[i].SetFreq(filter_cutoff_ * (env_f_out * velocity[i] * eg_f_amount_) * (1.0f + vcavcflfo_out
 2132              		.loc 1 286 4 view .LVU686
 2133              		.loc 1 286 47 is_stmt 0 view .LVU687
 2134 005c DAED0F7A 		vldr.32	s15, [r10, #60]
 2135              		.loc 1 286 18 view .LVU688
 2136 0060 3046     		mov	r0, r6
 2137              		.loc 1 286 61 view .LVU689
 2138 0062 D4ED216A 		vldr.32	s13, [r4, #132]
 2139              		.loc 1 286 47 view .LVU690
 2140 0066 20EE270A 		vmul.f32	s0, s0, s15
 2141              	.LVL153:
 2142              		.loc 1 286 34 view .LVU691
 2143 006a 94ED207A 		vldr.32	s14, [r4, #128]
 2144              		.loc 1 286 110 view .LVU692
 2145 006e D4ED1D5A 		vldr.32	s11, [r4, #116]
 2146              		.loc 1 286 85 view .LVU693
 2147 0072 79EE0B7A 		vadd.f32	s15, s18, s22
ARM GAS  C:\Users\jcjco\AppData\Local\Temp\ccZs88zN.s 			page 56


 2148              		.loc 1 286 110 view .LVU694
 2149 0076 9AED076A 		vldr.32	s12, [r10, #28]
 2150              		.loc 1 286 61 view .LVU695
 2151 007a 20EE260A 		vmul.f32	s0, s0, s13
 2152              		.loc 1 286 110 view .LVU696
 2153 007e A5EEC6BA 		vfms.f32	s22, s11, s12
 2154              		.loc 1 286 34 view .LVU697
 2155 0082 20EE070A 		vmul.f32	s0, s0, s14
 2156              		.loc 1 286 77 view .LVU698
 2157 0086 20EE270A 		vmul.f32	s0, s0, s15
 2158              		.loc 1 286 18 view .LVU699
 2159 008a 20EE0B0A 		vmul.f32	s0, s0, s22
 2160 008e FFF7FEFF 		bl	_ZN10infrasonic10MoogLadder7SetFreqEf
 2161              	.LVL154:
 2162              	.L62:
 287:vasynth.cpp   **** 		}
 288:vasynth.cpp   **** 		else
 289:vasynth.cpp   **** 		{
 290:vasynth.cpp   **** 			// Disable velocity control of the VCF summed with vcflfo and vcf_kbd_follow
 291:vasynth.cpp   **** 			flt[i].SetFreq(filter_cutoff_ * (env_f_out * eg_f_amount_) * (1.0f + vcavcflfo_out) * (1.0f - ((
 292:vasynth.cpp   **** 		}	
 293:vasynth.cpp   **** 		
 294:vasynth.cpp   **** 		filter_out += flt[i].Process(osc_out);
 2163              		.loc 1 294 3 is_stmt 1 discriminator 2 view .LVU700
 2164              		.loc 1 294 31 is_stmt 0 discriminator 2 view .LVU701
 2165 0092 3046     		mov	r0, r6
 2166 0094 B0EE480A 		vmov.f32	s0, s16
 2167 0098 FFF7FEFF 		bl	_ZN10infrasonic10MoogLadder7ProcessEf
 2168              	.LVL155:
 217:vasynth.cpp   **** 	{
 2169              		.loc 1 217 24 discriminator 2 view .LVU702
 2170 009c 019B     		ldr	r3, [sp, #4]
 2171              		.loc 1 294 14 discriminator 2 view .LVU703
 2172 009e 78EE808A 		vadd.f32	s17, s17, s0
 2173              	.LVL156:
 217:vasynth.cpp   **** 	{
 2174              		.loc 1 217 2 is_stmt 1 discriminator 2 view .LVU704
 217:vasynth.cpp   **** 	{
 2175              		.loc 1 217 24 discriminator 2 view .LVU705
 2176 00a2 4C36     		adds	r6, r6, #76
 2177 00a4 9F42     		cmp	r7, r3
 2178 00a6 05F13005 		add	r5, r5, #48
 2179 00aa 00F03F81 		beq	.L69
 2180              	.LVL157:
 2181              	.L63:
 219:vasynth.cpp   **** 
 2182              		.loc 1 219 3 view .LVU706
 219:vasynth.cpp   **** 
 2183              		.loc 1 219 26 is_stmt 0 view .LVU707
 2184 00ae 17F8013B 		ldrb	r3, [r7], #1	@ zero_extendqisi2
 219:vasynth.cpp   **** 
 2185              		.loc 1 219 11 view .LVU708
 2186 00b2 002B     		cmp	r3, #0
 2187 00b4 14BF     		ite	ne
 2188 00b6 4FF00108 		movne	r8, #1
 2189 00ba 4FF00008 		moveq	r8, #0
 2190              	.LVL158:
ARM GAS  C:\Users\jcjco\AppData\Local\Temp\ccZs88zN.s 			page 57


 222:vasynth.cpp   **** 		{
 2191              		.loc 1 222 3 is_stmt 1 view .LVU709
 2192 00be 0DD0     		beq	.L56
 224:vasynth.cpp   **** 		}
 2193              		.loc 1 224 4 view .LVU710
 224:vasynth.cpp   **** 		}
 2194              		.loc 1 224 24 is_stmt 0 view .LVU711
 2195 00c0 07EE903A 		vmov	s15, r3	@ int
 224:vasynth.cpp   **** 		}
 2196              		.loc 1 224 45 view .LVU712
 2197 00c4 9FEDB86A 		vldr.32	s12, .L71+4
 224:vasynth.cpp   **** 		}
 2198              		.loc 1 224 21 view .LVU713
 2199 00c8 B7EE007A 		vmov.f32	s14, #1.0e+0
 224:vasynth.cpp   **** 		}
 2200              		.loc 1 224 24 view .LVU714
 2201 00cc F8EE677A 		vcvt.f32.u32	s15, s15
 224:vasynth.cpp   **** 		}
 2202              		.loc 1 224 45 view .LVU715
 2203 00d0 C7EE866A 		vdiv.f32	s13, s15, s12
 224:vasynth.cpp   **** 		}
 2204              		.loc 1 224 21 view .LVU716
 2205 00d4 77EE667A 		vsub.f32	s15, s14, s13
 224:vasynth.cpp   **** 		}
 2206              		.loc 1 224 14 view .LVU717
 2207 00d8 CAED087A 		vstr.32	s15, [r10, #32]
 2208              	.L56:
 227:vasynth.cpp   **** 		{
 2209              		.loc 1 227 3 is_stmt 1 view .LVU718
 227:vasynth.cpp   **** 		{
 2210              		.loc 1 227 6 is_stmt 0 view .LVU719
 2211 00dc D4ED1E7A 		vldr.32	s15, [r4, #120]
 227:vasynth.cpp   **** 		{
 2212              		.loc 1 227 3 view .LVU720
 2213 00e0 F5EE407A 		vcmp.f32	s15, #0
 2214 00e4 F1EE10FA 		vmrs	APSR_nzcv, FPSCR
 2215 00e8 40F0B180 		bne	.L57
 2216 00ec 05F5A869 		add	r9, r5, #1344
 2217 00f0 05F5707B 		add	fp, r5, #960
 2218              	.L58:
 239:vasynth.cpp   **** 
 2219              		.loc 1 239 3 is_stmt 1 view .LVU721
 239:vasynth.cpp   **** 
 2220              		.loc 1 239 31 is_stmt 0 view .LVU722
 2221 00f4 4146     		mov	r1, r8
 2222 00f6 5846     		mov	r0, fp
 2223 00f8 FFF7FEFF 		bl	_ZN7daisysp4Adsr7ProcessEb
 2224              	.LVL159:
 241:vasynth.cpp   **** 		{
 2225              		.loc 1 241 3 is_stmt 1 view .LVU723
 2226 00fc 94F88830 		ldrb	r3, [r4, #136]	@ zero_extendqisi2
 244:vasynth.cpp   **** 		}
 2227              		.loc 1 244 51 is_stmt 0 view .LVU724
 2228 0100 F7EE007A 		vmov.f32	s15, #1.0e+0
 2229              	.LBB477:
 2230              	.LBB478:
  63:../../DaisySP/Source/Synthesis/oscillator.h ****     }
ARM GAS  C:\Users\jcjco\AppData\Local\Temp\ccZs88zN.s 			page 58


 2231              		.loc 3 63 34 view .LVU725
 2232 0104 2846     		mov	r0, r5
 2233              	.LBE478:
 2234              	.LBE477:
 241:vasynth.cpp   **** 		{
 2235              		.loc 1 241 3 view .LVU726
 2236 0106 012B     		cmp	r3, #1
 244:vasynth.cpp   **** 		}
 2237              		.loc 1 244 4 is_stmt 1 view .LVU727
 265:vasynth.cpp   **** 		pitchmod = bender_offset[i] * lfo_out;
 2238              		.loc 1 265 10 is_stmt 0 view .LVU728
 2239 0108 A84B     		ldr	r3, .L71+8
 2240              	.LBB480:
 2241              	.LBB481:
 2242              	.LBB482:
 2243              	.LBB483:
 2244              	.LBB484:
  47:../../DaisySP/Source/Utility/dsp.h **** #else
 2245              		.loc 4 47 5 view .LVU729
 2246 010a B7EE00BA 		vmov.f32	s22, #1.0e+0
 2247              	.LBE484:
 2248              	.LBE483:
 2249              	.LBE482:
 2250              	.LBE481:
 2251              	.LBE480:
 244:vasynth.cpp   **** 		}
 2252              		.loc 1 244 29 view .LVU730
 2253 010e 88BF     		it	hi
 2254 0110 9AED107A 		vldrhi.32	s14, [r10, #64]
 249:vasynth.cpp   **** 		}
 2255              		.loc 1 249 37 view .LVU731
 2256 0114 79EE277A 		vadd.f32	s15, s18, s15
 244:vasynth.cpp   **** 		}
 2257              		.loc 1 244 29 view .LVU732
 2258 0118 88BF     		it	hi
 2259 011a 20EE070A 		vmulhi.f32	s0, s0, s14
 2260              	.LVL160:
 249:vasynth.cpp   **** 		}
 2261              		.loc 1 249 4 is_stmt 1 view .LVU733
 249:vasynth.cpp   **** 		}
 2262              		.loc 1 249 18 is_stmt 0 view .LVU734
 2263 011e 27EE800A 		vmul.f32	s0, s15, s0
 2264              	.LVL161:
 2265              	.LBB502:
 2266              	.LBI502:
  69:../../DaisySP/Source/Synthesis/oscillator.h ****     /** Sets the waveform to be synthesized by the Process() function.
 2267              		.loc 3 69 17 is_stmt 1 view .LVU735
 2268              	.LBB503:
  69:../../DaisySP/Source/Synthesis/oscillator.h ****     /** Sets the waveform to be synthesized by the Process() function.
 2269              		.loc 3 69 41 view .LVU736
  69:../../DaisySP/Source/Synthesis/oscillator.h ****     /** Sets the waveform to be synthesized by the Process() function.
 2270              		.loc 3 69 46 is_stmt 0 view .LVU737
 2271 0122 85ED010A 		vstr.32	s0, [r5, #4]
 2272              	.LVL162:
  69:../../DaisySP/Source/Synthesis/oscillator.h ****     /** Sets the waveform to be synthesized by the Process() function.
 2273              		.loc 3 69 46 view .LVU738
 2274              	.LBE503:
ARM GAS  C:\Users\jcjco\AppData\Local\Temp\ccZs88zN.s 			page 59


 2275              	.LBE502:
 252:vasynth.cpp   **** 		{
 2276              		.loc 1 252 3 is_stmt 1 view .LVU739
 260:vasynth.cpp   **** 		}
 2277              		.loc 1 260 4 view .LVU740
 2278              	.LBB504:
 2279              	.LBI504:
  69:../../DaisySP/Source/Synthesis/oscillator.h ****     /** Sets the waveform to be synthesized by the Process() function.
 2280              		.loc 3 69 17 view .LVU741
 2281              	.LBB505:
  69:../../DaisySP/Source/Synthesis/oscillator.h ****     /** Sets the waveform to be synthesized by the Process() function.
 2282              		.loc 3 69 41 view .LVU742
  69:../../DaisySP/Source/Synthesis/oscillator.h ****     /** Sets the waveform to be synthesized by the Process() function.
 2283              		.loc 3 69 41 is_stmt 0 view .LVU743
 2284              	.LBE505:
 2285              	.LBE504:
 264:vasynth.cpp   **** 		bender = bender_offset[i] * pitch_bend;
 2286              		.loc 1 264 3 is_stmt 1 view .LVU744
 2287              	.LBB507:
 2288              	.LBB506:
  69:../../DaisySP/Source/Synthesis/oscillator.h ****     /** Sets the waveform to be synthesized by the Process() function.
 2289              		.loc 3 69 46 is_stmt 0 view .LVU745
 2290 0126 85ED610A 		vstr.32	s0, [r5, #388]
 2291              	.LBE506:
 2292              	.LBE507:
 264:vasynth.cpp   **** 		bender = bender_offset[i] * pitch_bend;
 2293              		.loc 1 264 27 view .LVU746
 2294 012a DAED187A 		vldr.32	s15, [r10, #96]
 268:vasynth.cpp   **** 		osc2_[i].SetFreq((((note_freq_[i] * osc2_transpose_) + (bender * osc2_transpose_) + (tuning * osc
 2295              		.loc 1 268 34 view .LVU747
 2296 012e 9AED000A 		vldr.32	s0, [r10]
 265:vasynth.cpp   **** 		pitchmod = bender_offset[i] * lfo_out;
 2297              		.loc 1 265 10 view .LVU748
 2298 0132 93ED008A 		vldr.32	s16, [r3]
 266:vasynth.cpp   **** 		detune = bender_offset[i] * osc2_detune_;
 2299              		.loc 1 266 12 view .LVU749
 2300 0136 67EEAACA 		vmul.f32	s25, s15, s21
 268:vasynth.cpp   **** 		osc2_[i].SetFreq((((note_freq_[i] * osc2_transpose_) + (bender * osc2_transpose_) + (tuning * osc
 2301              		.loc 1 268 34 view .LVU750
 2302 013a 94ED037A 		vldr.32	s14, [r4, #12]
 264:vasynth.cpp   **** 		bender = bender_offset[i] * pitch_bend;
 2303              		.loc 1 264 10 view .LVU751
 2304 013e 9C4B     		ldr	r3, .L71+12
 265:vasynth.cpp   **** 		pitchmod = bender_offset[i] * lfo_out;
 2305              		.loc 1 265 10 view .LVU752
 2306 0140 27EE888A 		vmul.f32	s16, s15, s16
 268:vasynth.cpp   **** 		osc2_[i].SetFreq((((note_freq_[i] * osc2_transpose_) + (bender * osc2_transpose_) + (tuning * osc
 2307              		.loc 1 268 34 view .LVU753
 2308 0144 30EE070A 		vadd.f32	s0, s0, s14
 267:vasynth.cpp   **** 		osc_[i].SetFreq((note_freq_[i] + detune_ + bender + tuning + pitchmod));
 2309              		.loc 1 267 10 view .LVU754
 2310 0148 D4ED06BA 		vldr.32	s23, [r4, #24]
 264:vasynth.cpp   **** 		bender = bender_offset[i] * pitch_bend;
 2311              		.loc 1 264 10 view .LVU755
 2312 014c 93ED00CA 		vldr.32	s24, [r3]
 267:vasynth.cpp   **** 		osc_[i].SetFreq((note_freq_[i] + detune_ + bender + tuning + pitchmod));
 2313              		.loc 1 267 10 view .LVU756
ARM GAS  C:\Users\jcjco\AppData\Local\Temp\ccZs88zN.s 			page 60


 2314 0150 67EEABBA 		vmul.f32	s23, s15, s23
 264:vasynth.cpp   **** 		bender = bender_offset[i] * pitch_bend;
 2315              		.loc 1 264 10 view .LVU757
 2316 0154 27EE8CCA 		vmul.f32	s24, s15, s24
 2317              	.LVL163:
 265:vasynth.cpp   **** 		pitchmod = bender_offset[i] * lfo_out;
 2318              		.loc 1 265 3 is_stmt 1 view .LVU758
 266:vasynth.cpp   **** 		detune = bender_offset[i] * osc2_detune_;
 2319              		.loc 1 266 3 view .LVU759
 267:vasynth.cpp   **** 		osc_[i].SetFreq((note_freq_[i] + detune_ + bender + tuning + pitchmod));
 2320              		.loc 1 267 3 view .LVU760
 268:vasynth.cpp   **** 		osc2_[i].SetFreq((((note_freq_[i] * osc2_transpose_) + (bender * osc2_transpose_) + (tuning * osc
 2321              		.loc 1 268 3 view .LVU761
 268:vasynth.cpp   **** 		osc2_[i].SetFreq((((note_freq_[i] * osc2_transpose_) + (bender * osc2_transpose_) + (tuning * osc
 2322              		.loc 1 268 44 is_stmt 0 view .LVU762
 2323 0158 30EE080A 		vadd.f32	s0, s0, s16
 268:vasynth.cpp   **** 		osc2_[i].SetFreq((((note_freq_[i] * osc2_transpose_) + (bender * osc2_transpose_) + (tuning * osc
 2324              		.loc 1 268 53 view .LVU763
 2325 015c 30EE0C0A 		vadd.f32	s0, s0, s24
 268:vasynth.cpp   **** 		osc2_[i].SetFreq((((note_freq_[i] * osc2_transpose_) + (bender * osc2_transpose_) + (tuning * osc
 2326              		.loc 1 268 18 view .LVU764
 2327 0160 30EE2C0A 		vadd.f32	s0, s0, s25
 2328              	.LVL164:
 2329              	.LBB508:
 2330              	.LBI477:
  60:../../DaisySP/Source/Synthesis/oscillator.h ****     {
 2331              		.loc 3 60 17 is_stmt 1 view .LVU765
 2332              	.LBB479:
  62:../../DaisySP/Source/Synthesis/oscillator.h ****         phase_inc_ = CalcPhaseInc(f);
 2333              		.loc 3 62 9 view .LVU766
  62:../../DaisySP/Source/Synthesis/oscillator.h ****         phase_inc_ = CalcPhaseInc(f);
 2334              		.loc 3 62 20 is_stmt 0 view .LVU767
 2335 0164 85ED020A 		vstr.32	s0, [r5, #8]
  63:../../DaisySP/Source/Synthesis/oscillator.h ****     }
 2336              		.loc 3 63 9 is_stmt 1 view .LVU768
  63:../../DaisySP/Source/Synthesis/oscillator.h ****     }
 2337              		.loc 3 63 34 is_stmt 0 view .LVU769
 2338 0168 FFF7FEFF 		bl	_ZN7daisysp10Oscillator12CalcPhaseIncEf
 2339              	.LVL165:
  63:../../DaisySP/Source/Synthesis/oscillator.h ****     }
 2340              		.loc 3 63 20 view .LVU770
 2341 016c 85ED080A 		vstr.32	s0, [r5, #32]
 2342              	.LVL166:
  63:../../DaisySP/Source/Synthesis/oscillator.h ****     }
 2343              		.loc 3 63 20 view .LVU771
 2344              	.LBE479:
 2345              	.LBE508:
 269:vasynth.cpp   **** 
 2346              		.loc 1 269 3 is_stmt 1 view .LVU772
 269:vasynth.cpp   **** 
 2347              		.loc 1 269 39 is_stmt 0 view .LVU773
 2348 0170 D4ED077A 		vldr.32	s15, [r4, #28]
 2349 0174 05F5C073 		add	r3, r5, #384
 269:vasynth.cpp   **** 
 2350              		.loc 1 269 56 view .LVU774
 2351 0178 BAEC017A 		vldmia.32	r10!, {s14}
 269:vasynth.cpp   **** 
ARM GAS  C:\Users\jcjco\AppData\Local\Temp\ccZs88zN.s 			page 61


 2352              		.loc 1 269 66 view .LVU775
 2353 017c 27EE880A 		vmul.f32	s0, s15, s16
 2354              	.LBB509:
 2355              	.LBB510:
  63:../../DaisySP/Source/Synthesis/oscillator.h ****     }
 2356              		.loc 3 63 34 view .LVU776
 2357 0180 1846     		mov	r0, r3
 2358 0182 9B46     		mov	fp, r3
 2359              	.LBE510:
 2360              	.LBE509:
 269:vasynth.cpp   **** 
 2361              		.loc 1 269 56 view .LVU777
 2362 0184 A7EE270A 		vfma.f32	s0, s14, s15
 269:vasynth.cpp   **** 
 2363              		.loc 1 269 85 view .LVU778
 2364 0188 A7EE8C0A 		vfma.f32	s0, s15, s24
 269:vasynth.cpp   **** 
 2365              		.loc 1 269 115 view .LVU779
 2366 018c A7EEAC0A 		vfma.f32	s0, s15, s25
 269:vasynth.cpp   **** 
 2367              		.loc 1 269 19 view .LVU780
 2368 0190 A7EEAB0A 		vfma.f32	s0, s15, s23
 2369              	.LVL167:
 2370              	.LBB512:
 2371              	.LBI509:
  60:../../DaisySP/Source/Synthesis/oscillator.h ****     {
 2372              		.loc 3 60 17 is_stmt 1 view .LVU781
 2373              	.LBB511:
  62:../../DaisySP/Source/Synthesis/oscillator.h ****         phase_inc_ = CalcPhaseInc(f);
 2374              		.loc 3 62 9 view .LVU782
  62:../../DaisySP/Source/Synthesis/oscillator.h ****         phase_inc_ = CalcPhaseInc(f);
 2375              		.loc 3 62 20 is_stmt 0 view .LVU783
 2376 0194 85ED620A 		vstr.32	s0, [r5, #392]
  63:../../DaisySP/Source/Synthesis/oscillator.h ****     }
 2377              		.loc 3 63 9 is_stmt 1 view .LVU784
  63:../../DaisySP/Source/Synthesis/oscillator.h ****     }
 2378              		.loc 3 63 34 is_stmt 0 view .LVU785
 2379 0198 FFF7FEFF 		bl	_ZN7daisysp10Oscillator12CalcPhaseIncEf
 2380              	.LVL168:
  63:../../DaisySP/Source/Synthesis/oscillator.h ****     }
 2381              		.loc 3 63 20 view .LVU786
 2382 019c 85ED680A 		vstr.32	s0, [r5, #416]
  63:../../DaisySP/Source/Synthesis/oscillator.h ****     }
 2383              		.loc 3 63 20 view .LVU787
 2384              	.LBE511:
 2385              	.LBE512:
 272:vasynth.cpp   **** 		osc2_[i].SetPw(osc2_pw_ + pwmlfo_out + pwm2lfo_out);
 2386              		.loc 1 272 3 is_stmt 1 view .LVU788
 2387              	.LVL169:
 2388              	.LBB513:
 2389              	.LBI480:
  78:../../DaisySP/Source/Synthesis/oscillator.h ****     {
 2390              		.loc 3 78 17 view .LVU789
 2391              	.LBB497:
  80:../../DaisySP/Source/Synthesis/oscillator.h ****         pw_rad_ = pw_ * TWOPI_F;
 2392              		.loc 3 80 9 view .LVU790
 2393              	.LBB493:
ARM GAS  C:\Users\jcjco\AppData\Local\Temp\ccZs88zN.s 			page 62


 2394              	.LBI482:
  56:../../DaisySP/Source/Utility/dsp.h **** {
 2395              		.loc 4 56 14 view .LVU791
 2396              	.LBE493:
 2397              	.LBE497:
 2398              	.LBE513:
 2399              	.LBE476:
 2400              		.loc 4 58 5 view .LVU792
 2401              	.LBB533:
 2402              	.LBB514:
 2403              	.LBB498:
 2404              	.LBB494:
 2405              	.LBB486:
 2406              	.LBI486:
  32:../../DaisySP/Source/Utility/dsp.h **** {
 2407              		.loc 4 32 14 view .LVU793
 2408              	.LBB487:
  34:../../DaisySP/Source/Utility/dsp.h **** #ifdef __arm__
 2409              		.loc 4 34 5 view .LVU794
  36:../../DaisySP/Source/Utility/dsp.h **** #else
 2410              		.loc 4 36 5 view .LVU795
 2411              	.LBE487:
 2412              	.LBE486:
 2413              	.LBE494:
 2414              	.LBE498:
 2415              	.LBE514:
 272:vasynth.cpp   **** 		osc2_[i].SetPw(osc2_pw_ + pwmlfo_out + pwm2lfo_out);
 2416              		.loc 1 272 25 is_stmt 0 view .LVU796
 2417 01a0 94ED047A 		vldr.32	s14, [r4, #16]
 275:vasynth.cpp   **** 		osc_two = osc2_[i].Process();
 2418              		.loc 1 275 28 view .LVU797
 2419 01a4 2846     		mov	r0, r5
 2420              	.LBB515:
 2421              	.LBB499:
 2422              		.loc 3 81 23 view .LVU798
 2423 01a6 DFED836A 		vldr.32	s13, .L71+16
 2424              	.LBE499:
 2425              	.LBE515:
 272:vasynth.cpp   **** 		osc2_[i].SetPw(osc2_pw_ + pwmlfo_out + pwm2lfo_out);
 2426              		.loc 1 272 25 view .LVU799
 2427 01aa 3AEE077A 		vadd.f32	s14, s20, s14
 2428              	.LBB516:
 2429              	.LBB500:
 2430              	.LBB495:
 2431              	.LBB490:
 2432              	.LBB488:
  36:../../DaisySP/Source/Utility/dsp.h **** #else
 2433              		.loc 4 36 5 view .LVU800
 2434 01ae 9FED7D6A 		vldr.32	s12, .L71
 2435              	.LBE488:
 2436              	.LBE490:
 2437              	.LBE495:
 2438              	.LBE500:
 2439              	.LBE516:
 272:vasynth.cpp   **** 		osc2_[i].SetPw(osc2_pw_ + pwmlfo_out + pwm2lfo_out);
 2440              		.loc 1 272 16 view .LVU801
 2441 01b2 37EE297A 		vadd.f32	s14, s14, s19
ARM GAS  C:\Users\jcjco\AppData\Local\Temp\ccZs88zN.s 			page 63


 2442              	.LVL170:
 2443              	.LBB517:
 2444              	.LBB501:
 2445              	.LBB496:
 2446              	.LBB491:
 2447              	.LBB489:
  36:../../DaisySP/Source/Utility/dsp.h **** #else
 2448              		.loc 4 36 5 view .LVU802
 2449              		.syntax unified
 2450              	@ 36 "../../DaisySP/Source/Utility/dsp.h" 1
 2451 01b6 87FE067A 		vmaxnm.f32 s14, s14, s12
 2452              	@ 0 "" 2
 2453              	.LVL171:
  40:../../DaisySP/Source/Utility/dsp.h **** }
 2454              		.loc 4 40 5 is_stmt 1 view .LVU803
  40:../../DaisySP/Source/Utility/dsp.h **** }
 2455              		.loc 4 40 5 is_stmt 0 view .LVU804
 2456              		.thumb
 2457              		.syntax unified
 2458              	.LBE489:
 2459              	.LBE491:
 2460              	.LBB492:
 2461              	.LBI483:
  43:../../DaisySP/Source/Utility/dsp.h **** {
 2462              		.loc 4 43 14 is_stmt 1 view .LVU805
 2463              	.LBB485:
  45:../../DaisySP/Source/Utility/dsp.h **** #ifdef __arm__
 2464              		.loc 4 45 5 view .LVU806
  47:../../DaisySP/Source/Utility/dsp.h **** #else
 2465              		.loc 4 47 5 view .LVU807
 2466              		.syntax unified
 2467              	@ 47 "../../DaisySP/Source/Utility/dsp.h" 1
 2468 01ba 87FE4B7A 		vminnm.f32 s14, s14, s22
 2469              	@ 0 "" 2
 2470              	.LVL172:
  51:../../DaisySP/Source/Utility/dsp.h **** }
 2471              		.loc 4 51 5 view .LVU808
  51:../../DaisySP/Source/Utility/dsp.h **** }
 2472              		.loc 4 51 5 is_stmt 0 view .LVU809
 2473              		.thumb
 2474              		.syntax unified
 2475              	.LBE485:
 2476              	.LBE492:
 2477              	.LBE496:
 2478              		.loc 3 81 23 view .LVU810
 2479 01be 67EE267A 		vmul.f32	s15, s14, s13
  80:../../DaisySP/Source/Synthesis/oscillator.h ****         pw_rad_ = pw_ * TWOPI_F;
 2480              		.loc 3 80 17 view .LVU811
 2481 01c2 85ED037A 		vstr.32	s14, [r5, #12]
 2482              	.LVL173:
 2483              		.loc 3 81 9 is_stmt 1 view .LVU812
 2484              		.loc 3 81 17 is_stmt 0 view .LVU813
 2485 01c6 C5ED047A 		vstr.32	s15, [r5, #16]
 2486              	.LVL174:
 2487              		.loc 3 81 17 view .LVU814
 2488              	.LBE501:
 2489              	.LBE517:
ARM GAS  C:\Users\jcjco\AppData\Local\Temp\ccZs88zN.s 			page 64


 273:vasynth.cpp   **** 
 2490              		.loc 1 273 3 is_stmt 1 view .LVU815
 2491              	.LBB518:
 2492              	.LBI518:
  78:../../DaisySP/Source/Synthesis/oscillator.h ****     {
 2493              		.loc 3 78 17 view .LVU816
 2494              	.LBB519:
  80:../../DaisySP/Source/Synthesis/oscillator.h ****         pw_rad_ = pw_ * TWOPI_F;
 2495              		.loc 3 80 9 view .LVU817
 2496              	.LBB520:
 2497              	.LBI520:
  56:../../DaisySP/Source/Utility/dsp.h **** {
 2498              		.loc 4 56 14 view .LVU818
 2499              	.LBE520:
 2500              	.LBE519:
 2501              	.LBE518:
 2502              	.LBE533:
 2503              		.loc 4 58 5 view .LVU819
 2504              	.LBB534:
 2505              	.LBB531:
 2506              	.LBB529:
 2507              	.LBB527:
 2508              	.LBB521:
 2509              	.LBI521:
  32:../../DaisySP/Source/Utility/dsp.h **** {
 2510              		.loc 4 32 14 view .LVU820
 2511              	.LBB522:
  34:../../DaisySP/Source/Utility/dsp.h **** #ifdef __arm__
 2512              		.loc 4 34 5 view .LVU821
  36:../../DaisySP/Source/Utility/dsp.h **** #else
 2513              		.loc 4 36 5 view .LVU822
 2514              	.LBE522:
 2515              	.LBE521:
 2516              	.LBE527:
 2517              	.LBE529:
 2518              	.LBE531:
 273:vasynth.cpp   **** 
 2519              		.loc 1 273 27 is_stmt 0 view .LVU823
 2520 01ca D4ED087A 		vldr.32	s15, [r4, #32]
 2521 01ce 7AEE277A 		vadd.f32	s15, s20, s15
 273:vasynth.cpp   **** 
 2522              		.loc 1 273 17 view .LVU824
 2523 01d2 77EEA97A 		vadd.f32	s15, s15, s19
 2524              	.LVL175:
 2525              	.LBB532:
 2526              	.LBB530:
 2527              	.LBB528:
 2528              	.LBB524:
 2529              	.LBB523:
  36:../../DaisySP/Source/Utility/dsp.h **** #else
 2530              		.loc 4 36 5 view .LVU825
 2531              		.syntax unified
 2532              	@ 36 "../../DaisySP/Source/Utility/dsp.h" 1
 2533 01d6 C7FE867A 		vmaxnm.f32 s15, s15, s12
 2534              	@ 0 "" 2
 2535              	.LVL176:
  40:../../DaisySP/Source/Utility/dsp.h **** }
ARM GAS  C:\Users\jcjco\AppData\Local\Temp\ccZs88zN.s 			page 65


 2536              		.loc 4 40 5 is_stmt 1 view .LVU826
  40:../../DaisySP/Source/Utility/dsp.h **** }
 2537              		.loc 4 40 5 is_stmt 0 view .LVU827
 2538              		.thumb
 2539              		.syntax unified
 2540              	.LBE523:
 2541              	.LBE524:
 2542              	.LBB525:
 2543              	.LBI525:
  43:../../DaisySP/Source/Utility/dsp.h **** {
 2544              		.loc 4 43 14 is_stmt 1 view .LVU828
 2545              	.LBB526:
  45:../../DaisySP/Source/Utility/dsp.h **** #ifdef __arm__
 2546              		.loc 4 45 5 view .LVU829
  47:../../DaisySP/Source/Utility/dsp.h **** #else
 2547              		.loc 4 47 5 view .LVU830
 2548              		.syntax unified
 2549              	@ 47 "../../DaisySP/Source/Utility/dsp.h" 1
 2550 01da C7FECB7A 		vminnm.f32 s15, s15, s22
 2551              	@ 0 "" 2
 2552              	.LVL177:
  51:../../DaisySP/Source/Utility/dsp.h **** }
 2553              		.loc 4 51 5 view .LVU831
  51:../../DaisySP/Source/Utility/dsp.h **** }
 2554              		.loc 4 51 5 is_stmt 0 view .LVU832
 2555              		.thumb
 2556              		.syntax unified
 2557              	.LBE526:
 2558              	.LBE525:
 2559              	.LBE528:
 2560              		.loc 3 81 23 view .LVU833
 2561 01de 67EEA66A 		vmul.f32	s13, s15, s13
  80:../../DaisySP/Source/Synthesis/oscillator.h ****         pw_rad_ = pw_ * TWOPI_F;
 2562              		.loc 3 80 17 view .LVU834
 2563 01e2 C5ED637A 		vstr.32	s15, [r5, #396]
 2564              	.LVL178:
 2565              		.loc 3 81 9 is_stmt 1 view .LVU835
 2566              		.loc 3 81 17 is_stmt 0 view .LVU836
 2567 01e6 C5ED646A 		vstr.32	s13, [r5, #400]
 2568              	.LVL179:
 2569              		.loc 3 81 17 view .LVU837
 2570              	.LBE530:
 2571              	.LBE532:
 275:vasynth.cpp   **** 		osc_two = osc2_[i].Process();
 2572              		.loc 1 275 3 is_stmt 1 view .LVU838
 275:vasynth.cpp   **** 		osc_two = osc2_[i].Process();
 2573              		.loc 1 275 28 is_stmt 0 view .LVU839
 2574 01ea FFF7FEFF 		bl	_ZN7daisysp10Oscillator7ProcessEv
 2575              	.LVL180:
 276:vasynth.cpp   **** 
 2576              		.loc 1 276 29 view .LVU840
 2577 01ee 5846     		mov	r0, fp
 275:vasynth.cpp   **** 		osc_two = osc2_[i].Process();
 2578              		.loc 1 275 28 view .LVU841
 2579 01f0 F0EE40BA 		vmov.f32	s23, s0
 2580              	.LVL181:
 276:vasynth.cpp   **** 
ARM GAS  C:\Users\jcjco\AppData\Local\Temp\ccZs88zN.s 			page 66


 2581              		.loc 1 276 3 is_stmt 1 view .LVU842
 276:vasynth.cpp   **** 
 2582              		.loc 1 276 29 is_stmt 0 view .LVU843
 2583 01f4 FFF7FEFF 		bl	_ZN7daisysp10Oscillator7ProcessEv
 2584              	.LVL182:
 278:vasynth.cpp   **** 
 2585              		.loc 1 278 3 is_stmt 1 view .LVU844
 278:vasynth.cpp   **** 
 2586              		.loc 1 278 25 is_stmt 0 view .LVU845
 2587 01f8 94ED027A 		vldr.32	s14, [r4, #8]
 281:vasynth.cpp   **** 
 2588              		.loc 1 281 31 view .LVU846
 2589 01fc 4146     		mov	r1, r8
 2590 01fe 4846     		mov	r0, r9
 278:vasynth.cpp   **** 
 2591              		.loc 1 278 56 view .LVU847
 2592 0200 7BEE477A 		vsub.f32	s15, s22, s14
 278:vasynth.cpp   **** 
 2593              		.loc 1 278 48 view .LVU848
 2594 0204 27EE808A 		vmul.f32	s16, s15, s0
 2595              	.LVL183:
 278:vasynth.cpp   **** 
 2596              		.loc 1 278 11 view .LVU849
 2597 0208 A7EE2B8A 		vfma.f32	s16, s14, s23
 2598              	.LVL184:
 281:vasynth.cpp   **** 
 2599              		.loc 1 281 3 is_stmt 1 view .LVU850
 281:vasynth.cpp   **** 
 2600              		.loc 1 281 31 is_stmt 0 view .LVU851
 2601 020c FFF7FEFF 		bl	_ZN7daisysp4Adsr7ProcessEb
 2602              	.LVL185:
 283:vasynth.cpp   **** 		{
 2603              		.loc 1 283 23 view .LVU852
 2604 0210 94F88830 		ldrb	r3, [r4, #136]	@ zero_extendqisi2
 283:vasynth.cpp   **** 		{
 2605              		.loc 1 283 3 view .LVU853
 2606 0214 03F0FD03 		and	r3, r3, #253
 2607              	.LVL186:
 283:vasynth.cpp   **** 		{
 2608              		.loc 1 283 3 is_stmt 1 view .LVU854
 2609 0218 012B     		cmp	r3, #1
 2610 021a 3FF41FAF 		beq	.L70
 291:vasynth.cpp   **** 		}	
 2611              		.loc 1 291 4 view .LVU855
 291:vasynth.cpp   **** 		}	
 2612              		.loc 1 291 47 is_stmt 0 view .LVU856
 2613 021e D4ED217A 		vldr.32	s15, [r4, #132]
 291:vasynth.cpp   **** 		}	
 2614              		.loc 1 291 18 view .LVU857
 2615 0222 3046     		mov	r0, r6
 291:vasynth.cpp   **** 		}	
 2616              		.loc 1 291 34 view .LVU858
 2617 0224 94ED207A 		vldr.32	s14, [r4, #128]
 291:vasynth.cpp   **** 		}	
 2618              		.loc 1 291 47 view .LVU859
 2619 0228 60EE277A 		vmul.f32	s15, s0, s15
 291:vasynth.cpp   **** 		}	
ARM GAS  C:\Users\jcjco\AppData\Local\Temp\ccZs88zN.s 			page 67


 2620              		.loc 1 291 96 view .LVU860
 2621 022c 94ED1D6A 		vldr.32	s12, [r4, #116]
 2622 0230 DAED076A 		vldr.32	s13, [r10, #28]
 291:vasynth.cpp   **** 		}	
 2623              		.loc 1 291 71 view .LVU861
 2624 0234 39EE0B0A 		vadd.f32	s0, s18, s22
 2625              	.LVL187:
 291:vasynth.cpp   **** 		}	
 2626              		.loc 1 291 34 view .LVU862
 2627 0238 67EE877A 		vmul.f32	s15, s15, s14
 291:vasynth.cpp   **** 		}	
 2628              		.loc 1 291 96 view .LVU863
 2629 023c A6EE66BA 		vfms.f32	s22, s12, s13
 291:vasynth.cpp   **** 		}	
 2630              		.loc 1 291 63 view .LVU864
 2631 0240 27EE800A 		vmul.f32	s0, s15, s0
 291:vasynth.cpp   **** 		}	
 2632              		.loc 1 291 18 view .LVU865
 2633 0244 20EE0B0A 		vmul.f32	s0, s0, s22
 2634 0248 FFF7FEFF 		bl	_ZN10infrasonic10MoogLadder7SetFreqEf
 2635              	.LVL188:
 2636 024c 21E7     		b	.L62
 2637              	.LVL189:
 2638              	.L57:
 230:vasynth.cpp   **** 			eg_f_[i].SetTime(ADSR_SEG_DECAY, eg_f_decay_ * (1.0f - ((env_kbd_follow_ * (1.0f - follow[i]))))
 2639              		.loc 1 230 4 is_stmt 1 view .LVU866
 230:vasynth.cpp   **** 			eg_f_[i].SetTime(ADSR_SEG_DECAY, eg_f_decay_ * (1.0f - ((env_kbd_follow_ * (1.0f - follow[i]))))
 2640              		.loc 1 230 87 is_stmt 0 view .LVU867
 2641 024e B7EE008A 		vmov.f32	s16, #1.0e+0
 2642 0252 9AED087A 		vldr.32	s14, [r10, #32]
 230:vasynth.cpp   **** 			eg_f_[i].SetTime(ADSR_SEG_DECAY, eg_f_decay_ * (1.0f - ((env_kbd_follow_ * (1.0f - follow[i]))))
 2643              		.loc 1 230 20 view .LVU868
 2644 0256 D4ED0D6A 		vldr.32	s13, [r4, #52]
 2645 025a 05F5A869 		add	r9, r5, #1344
 2646 025e 0121     		movs	r1, #1
 2647 0260 05F5707B 		add	fp, r5, #960
 230:vasynth.cpp   **** 			eg_f_[i].SetTime(ADSR_SEG_DECAY, eg_f_decay_ * (1.0f - ((env_kbd_follow_ * (1.0f - follow[i]))))
 2648              		.loc 1 230 87 view .LVU869
 2649 0264 38EE477A 		vsub.f32	s14, s16, s14
 230:vasynth.cpp   **** 			eg_f_[i].SetTime(ADSR_SEG_DECAY, eg_f_decay_ * (1.0f - ((env_kbd_follow_ * (1.0f - follow[i]))))
 2650              		.loc 1 230 20 view .LVU870
 2651 0268 4846     		mov	r0, r9
 230:vasynth.cpp   **** 			eg_f_[i].SetTime(ADSR_SEG_DECAY, eg_f_decay_ * (1.0f - ((env_kbd_follow_ * (1.0f - follow[i]))))
 2652              		.loc 1 230 59 view .LVU871
 2653 026a B0EE480A 		vmov.f32	s0, s16
 2654 026e A7EEC70A 		vfms.f32	s0, s15, s14
 230:vasynth.cpp   **** 			eg_f_[i].SetTime(ADSR_SEG_DECAY, eg_f_decay_ * (1.0f - ((env_kbd_follow_ * (1.0f - follow[i]))))
 2655              		.loc 1 230 20 view .LVU872
 2656 0272 20EE260A 		vmul.f32	s0, s0, s13
 2657 0276 FFF7FEFF 		bl	_ZN7daisysp4Adsr7SetTimeEif
 2658              	.LVL190:
 231:vasynth.cpp   **** 			eg_f_[i].SetTime(ADSR_SEG_RELEASE, eg_f_release_ * (1.0f - ((env_kbd_follow_ * (1.0f - follow[i]
 2659              		.loc 1 231 4 is_stmt 1 view .LVU873
 231:vasynth.cpp   **** 			eg_f_[i].SetTime(ADSR_SEG_RELEASE, eg_f_release_ * (1.0f - ((env_kbd_follow_ * (1.0f - follow[i]
 2660              		.loc 1 231 85 is_stmt 0 view .LVU874
 2661 027a DAED087A 		vldr.32	s15, [r10, #32]
 231:vasynth.cpp   **** 			eg_f_[i].SetTime(ADSR_SEG_RELEASE, eg_f_release_ * (1.0f - ((env_kbd_follow_ * (1.0f - follow[i]
ARM GAS  C:\Users\jcjco\AppData\Local\Temp\ccZs88zN.s 			page 68


 2662              		.loc 1 231 57 view .LVU875
 2663 027e B0EE480A 		vmov.f32	s0, s16
 2664 0282 D4ED1E6A 		vldr.32	s13, [r4, #120]
 231:vasynth.cpp   **** 			eg_f_[i].SetTime(ADSR_SEG_RELEASE, eg_f_release_ * (1.0f - ((env_kbd_follow_ * (1.0f - follow[i]
 2665              		.loc 1 231 85 view .LVU876
 2666 0286 78EE677A 		vsub.f32	s15, s16, s15
 231:vasynth.cpp   **** 			eg_f_[i].SetTime(ADSR_SEG_RELEASE, eg_f_release_ * (1.0f - ((env_kbd_follow_ * (1.0f - follow[i]
 2667              		.loc 1 231 20 view .LVU877
 2668 028a 94ED0E7A 		vldr.32	s14, [r4, #56]
 2669 028e 4846     		mov	r0, r9
 2670 0290 0221     		movs	r1, #2
 231:vasynth.cpp   **** 			eg_f_[i].SetTime(ADSR_SEG_RELEASE, eg_f_release_ * (1.0f - ((env_kbd_follow_ * (1.0f - follow[i]
 2671              		.loc 1 231 57 view .LVU878
 2672 0292 A6EEE70A 		vfms.f32	s0, s13, s15
 231:vasynth.cpp   **** 			eg_f_[i].SetTime(ADSR_SEG_RELEASE, eg_f_release_ * (1.0f - ((env_kbd_follow_ * (1.0f - follow[i]
 2673              		.loc 1 231 20 view .LVU879
 2674 0296 20EE070A 		vmul.f32	s0, s0, s14
 2675 029a FFF7FEFF 		bl	_ZN7daisysp4Adsr7SetTimeEif
 2676              	.LVL191:
 232:vasynth.cpp   **** 			eg_a_[i].SetTime(ADSR_SEG_ATTACK, eg_a_attack_ * (1.0f - ((env_kbd_follow_ * (1.0f - follow[i]))
 2677              		.loc 1 232 4 is_stmt 1 view .LVU880
 232:vasynth.cpp   **** 			eg_a_[i].SetTime(ADSR_SEG_ATTACK, eg_a_attack_ * (1.0f - ((env_kbd_follow_ * (1.0f - follow[i]))
 2678              		.loc 1 232 89 is_stmt 0 view .LVU881
 2679 029e DAED087A 		vldr.32	s15, [r10, #32]
 232:vasynth.cpp   **** 			eg_a_[i].SetTime(ADSR_SEG_ATTACK, eg_a_attack_ * (1.0f - ((env_kbd_follow_ * (1.0f - follow[i]))
 2680              		.loc 1 232 61 view .LVU882
 2681 02a2 B0EE480A 		vmov.f32	s0, s16
 2682 02a6 D4ED1E6A 		vldr.32	s13, [r4, #120]
 232:vasynth.cpp   **** 			eg_a_[i].SetTime(ADSR_SEG_ATTACK, eg_a_attack_ * (1.0f - ((env_kbd_follow_ * (1.0f - follow[i]))
 2683              		.loc 1 232 89 view .LVU883
 2684 02aa 78EE677A 		vsub.f32	s15, s16, s15
 232:vasynth.cpp   **** 			eg_a_[i].SetTime(ADSR_SEG_ATTACK, eg_a_attack_ * (1.0f - ((env_kbd_follow_ * (1.0f - follow[i]))
 2685              		.loc 1 232 20 view .LVU884
 2686 02ae 94ED107A 		vldr.32	s14, [r4, #64]
 2687 02b2 4846     		mov	r0, r9
 2688 02b4 0421     		movs	r1, #4
 232:vasynth.cpp   **** 			eg_a_[i].SetTime(ADSR_SEG_ATTACK, eg_a_attack_ * (1.0f - ((env_kbd_follow_ * (1.0f - follow[i]))
 2689              		.loc 1 232 61 view .LVU885
 2690 02b6 A6EEE70A 		vfms.f32	s0, s13, s15
 232:vasynth.cpp   **** 			eg_a_[i].SetTime(ADSR_SEG_ATTACK, eg_a_attack_ * (1.0f - ((env_kbd_follow_ * (1.0f - follow[i]))
 2691              		.loc 1 232 20 view .LVU886
 2692 02ba 20EE070A 		vmul.f32	s0, s0, s14
 2693 02be FFF7FEFF 		bl	_ZN7daisysp4Adsr7SetTimeEif
 2694              	.LVL192:
 233:vasynth.cpp   **** 			eg_a_[i].SetTime(ADSR_SEG_DECAY, eg_a_decay_ * (1.0f - ((env_kbd_follow_ * (1.0f - follow[i]))))
 2695              		.loc 1 233 4 is_stmt 1 view .LVU887
 233:vasynth.cpp   **** 			eg_a_[i].SetTime(ADSR_SEG_DECAY, eg_a_decay_ * (1.0f - ((env_kbd_follow_ * (1.0f - follow[i]))))
 2696              		.loc 1 233 87 is_stmt 0 view .LVU888
 2697 02c2 DAED087A 		vldr.32	s15, [r10, #32]
 233:vasynth.cpp   **** 			eg_a_[i].SetTime(ADSR_SEG_DECAY, eg_a_decay_ * (1.0f - ((env_kbd_follow_ * (1.0f - follow[i]))))
 2698              		.loc 1 233 59 view .LVU889
 2699 02c6 B0EE480A 		vmov.f32	s0, s16
 2700 02ca D4ED1E6A 		vldr.32	s13, [r4, #120]
 233:vasynth.cpp   **** 			eg_a_[i].SetTime(ADSR_SEG_DECAY, eg_a_decay_ * (1.0f - ((env_kbd_follow_ * (1.0f - follow[i]))))
 2701              		.loc 1 233 87 view .LVU890
 2702 02ce 78EE677A 		vsub.f32	s15, s16, s15
 233:vasynth.cpp   **** 			eg_a_[i].SetTime(ADSR_SEG_DECAY, eg_a_decay_ * (1.0f - ((env_kbd_follow_ * (1.0f - follow[i]))))
ARM GAS  C:\Users\jcjco\AppData\Local\Temp\ccZs88zN.s 			page 69


 2703              		.loc 1 233 20 view .LVU891
 2704 02d2 94ED097A 		vldr.32	s14, [r4, #36]
 2705 02d6 5846     		mov	r0, fp
 2706 02d8 0121     		movs	r1, #1
 233:vasynth.cpp   **** 			eg_a_[i].SetTime(ADSR_SEG_DECAY, eg_a_decay_ * (1.0f - ((env_kbd_follow_ * (1.0f - follow[i]))))
 2707              		.loc 1 233 59 view .LVU892
 2708 02da A6EEE70A 		vfms.f32	s0, s13, s15
 233:vasynth.cpp   **** 			eg_a_[i].SetTime(ADSR_SEG_DECAY, eg_a_decay_ * (1.0f - ((env_kbd_follow_ * (1.0f - follow[i]))))
 2709              		.loc 1 233 20 view .LVU893
 2710 02de 20EE070A 		vmul.f32	s0, s0, s14
 2711 02e2 FFF7FEFF 		bl	_ZN7daisysp4Adsr7SetTimeEif
 2712              	.LVL193:
 234:vasynth.cpp   **** 			eg_a_[i].SetTime(ADSR_SEG_RELEASE, eg_a_release_ * (1.0f - ((env_kbd_follow_ * (1.0f - follow[i]
 2713              		.loc 1 234 4 is_stmt 1 view .LVU894
 234:vasynth.cpp   **** 			eg_a_[i].SetTime(ADSR_SEG_RELEASE, eg_a_release_ * (1.0f - ((env_kbd_follow_ * (1.0f - follow[i]
 2714              		.loc 1 234 85 is_stmt 0 view .LVU895
 2715 02e6 DAED087A 		vldr.32	s15, [r10, #32]
 234:vasynth.cpp   **** 			eg_a_[i].SetTime(ADSR_SEG_RELEASE, eg_a_release_ * (1.0f - ((env_kbd_follow_ * (1.0f - follow[i]
 2716              		.loc 1 234 57 view .LVU896
 2717 02ea B0EE480A 		vmov.f32	s0, s16
 2718 02ee D4ED1E6A 		vldr.32	s13, [r4, #120]
 234:vasynth.cpp   **** 			eg_a_[i].SetTime(ADSR_SEG_RELEASE, eg_a_release_ * (1.0f - ((env_kbd_follow_ * (1.0f - follow[i]
 2719              		.loc 1 234 85 view .LVU897
 2720 02f2 78EE677A 		vsub.f32	s15, s16, s15
 234:vasynth.cpp   **** 			eg_a_[i].SetTime(ADSR_SEG_RELEASE, eg_a_release_ * (1.0f - ((env_kbd_follow_ * (1.0f - follow[i]
 2721              		.loc 1 234 20 view .LVU898
 2722 02f6 94ED0A7A 		vldr.32	s14, [r4, #40]
 2723 02fa 5846     		mov	r0, fp
 2724 02fc 0221     		movs	r1, #2
 234:vasynth.cpp   **** 			eg_a_[i].SetTime(ADSR_SEG_RELEASE, eg_a_release_ * (1.0f - ((env_kbd_follow_ * (1.0f - follow[i]
 2725              		.loc 1 234 57 view .LVU899
 2726 02fe A6EEE70A 		vfms.f32	s0, s13, s15
 234:vasynth.cpp   **** 			eg_a_[i].SetTime(ADSR_SEG_RELEASE, eg_a_release_ * (1.0f - ((env_kbd_follow_ * (1.0f - follow[i]
 2727              		.loc 1 234 20 view .LVU900
 2728 0302 20EE070A 		vmul.f32	s0, s0, s14
 2729 0306 FFF7FEFF 		bl	_ZN7daisysp4Adsr7SetTimeEif
 2730              	.LVL194:
 235:vasynth.cpp   **** 		}
 2731              		.loc 1 235 4 is_stmt 1 view .LVU901
 235:vasynth.cpp   **** 		}
 2732              		.loc 1 235 89 is_stmt 0 view .LVU902
 2733 030a DAED087A 		vldr.32	s15, [r10, #32]
 235:vasynth.cpp   **** 		}
 2734              		.loc 1 235 61 view .LVU903
 2735 030e 94ED1E7A 		vldr.32	s14, [r4, #120]
 235:vasynth.cpp   **** 		}
 2736              		.loc 1 235 20 view .LVU904
 2737 0312 0421     		movs	r1, #4
 235:vasynth.cpp   **** 		}
 2738              		.loc 1 235 89 view .LVU905
 2739 0314 78EE677A 		vsub.f32	s15, s16, s15
 235:vasynth.cpp   **** 		}
 2740              		.loc 1 235 20 view .LVU906
 2741 0318 94ED0C0A 		vldr.32	s0, [r4, #48]
 2742 031c 5846     		mov	r0, fp
 235:vasynth.cpp   **** 		}
 2743              		.loc 1 235 61 view .LVU907
ARM GAS  C:\Users\jcjco\AppData\Local\Temp\ccZs88zN.s 			page 70


 2744 031e A7EE678A 		vfms.f32	s16, s14, s15
 235:vasynth.cpp   **** 		}
 2745              		.loc 1 235 20 view .LVU908
 2746 0322 28EE000A 		vmul.f32	s0, s16, s0
 2747 0326 FFF7FEFF 		bl	_ZN7daisysp4Adsr7SetTimeEif
 2748              	.LVL195:
 2749 032a E3E6     		b	.L58
 2750              	.LVL196:
 2751              	.L69:
 235:vasynth.cpp   **** 		}
 2752              		.loc 1 235 20 view .LVU909
 2753              	.LBE534:
 295:vasynth.cpp   **** 	}
 296:vasynth.cpp   **** 
 297:vasynth.cpp   **** 	filter_out /= VOICES_MAX;
 2754              		.loc 1 297 2 is_stmt 1 view .LVU910
 2755              	.LBB535:
 2756              	.LBB536:
 2757              		.file 5 "../../DaisySP/Source/Utility/delayline.h"
   1:../../DaisySP/Source/Utility/delayline.h **** #pragma once
   2:../../DaisySP/Source/Utility/delayline.h **** #ifndef DSY_DELAY_H
   3:../../DaisySP/Source/Utility/delayline.h **** #define DSY_DELAY_H
   4:../../DaisySP/Source/Utility/delayline.h **** #include <stdlib.h>
   5:../../DaisySP/Source/Utility/delayline.h **** #include <stdint.h>
   6:../../DaisySP/Source/Utility/delayline.h **** namespace daisysp
   7:../../DaisySP/Source/Utility/delayline.h **** {
   8:../../DaisySP/Source/Utility/delayline.h **** /** Simple Delay line.
   9:../../DaisySP/Source/Utility/delayline.h **** November 2019
  10:../../DaisySP/Source/Utility/delayline.h **** 
